{
	"contracts/6_Ordering.sol": {
		"BeverageOrdering": {
			"abi": [
				{
					"inputs": [
						{
							"internalType": "address",
							"name": "_tokenAddress",
							"type": "address"
						}
					],
					"stateMutability": "nonpayable",
					"type": "constructor"
				},
				{
					"inputs": [
						{
							"internalType": "address",
							"name": "owner",
							"type": "address"
						}
					],
					"name": "OwnableInvalidOwner",
					"type": "error"
				},
				{
					"inputs": [
						{
							"internalType": "address",
							"name": "account",
							"type": "address"
						}
					],
					"name": "OwnableUnauthorizedAccount",
					"type": "error"
				},
				{
					"anonymous": false,
					"inputs": [
						{
							"indexed": true,
							"internalType": "address",
							"name": "previousOwner",
							"type": "address"
						},
						{
							"indexed": true,
							"internalType": "address",
							"name": "newOwner",
							"type": "address"
						}
					],
					"name": "OwnershipTransferred",
					"type": "event"
				},
				{
					"inputs": [
						{
							"internalType": "uint256",
							"name": "orderIndex",
							"type": "uint256"
						}
					],
					"name": "confirmOrder",
					"outputs": [],
					"stateMutability": "nonpayable",
					"type": "function"
				},
				{
					"inputs": [
						{
							"internalType": "uint256",
							"name": "orderIndex",
							"type": "uint256"
						}
					],
					"name": "getOrder",
					"outputs": [
						{
							"components": [
								{
									"internalType": "address",
									"name": "customer",
									"type": "address"
								},
								{
									"internalType": "string",
									"name": "beverage",
									"type": "string"
								},
								{
									"internalType": "bool",
									"name": "fulfilled",
									"type": "bool"
								}
							],
							"internalType": "struct BeverageOrdering.Order",
							"name": "",
							"type": "tuple"
						}
					],
					"stateMutability": "view",
					"type": "function"
				},
				{
					"inputs": [
						{
							"internalType": "string",
							"name": "beverage",
							"type": "string"
						}
					],
					"name": "orderBeverage",
					"outputs": [],
					"stateMutability": "nonpayable",
					"type": "function"
				},
				{
					"inputs": [
						{
							"internalType": "uint256",
							"name": "",
							"type": "uint256"
						}
					],
					"name": "orders",
					"outputs": [
						{
							"internalType": "address",
							"name": "customer",
							"type": "address"
						},
						{
							"internalType": "string",
							"name": "beverage",
							"type": "string"
						},
						{
							"internalType": "bool",
							"name": "fulfilled",
							"type": "bool"
						}
					],
					"stateMutability": "view",
					"type": "function"
				},
				{
					"inputs": [],
					"name": "owner",
					"outputs": [
						{
							"internalType": "address",
							"name": "",
							"type": "address"
						}
					],
					"stateMutability": "view",
					"type": "function"
				},
				{
					"inputs": [],
					"name": "pricePerBeverage",
					"outputs": [
						{
							"internalType": "uint256",
							"name": "",
							"type": "uint256"
						}
					],
					"stateMutability": "view",
					"type": "function"
				},
				{
					"inputs": [],
					"name": "renounceOwnership",
					"outputs": [],
					"stateMutability": "view",
					"type": "function"
				},
				{
					"inputs": [
						{
							"internalType": "string",
							"name": "beverage",
							"type": "string"
						},
						{
							"internalType": "bool",
							"name": "isValid",
							"type": "bool"
						}
					],
					"name": "setBeverageValidity",
					"outputs": [],
					"stateMutability": "nonpayable",
					"type": "function"
				},
				{
					"inputs": [],
					"name": "tokenContract",
					"outputs": [
						{
							"internalType": "contract IERC20",
							"name": "",
							"type": "address"
						}
					],
					"stateMutability": "view",
					"type": "function"
				},
				{
					"inputs": [
						{
							"internalType": "address",
							"name": "newOwner",
							"type": "address"
						}
					],
					"name": "transferOwnership",
					"outputs": [],
					"stateMutability": "nonpayable",
					"type": "function"
				},
				{
					"inputs": [
						{
							"internalType": "string",
							"name": "",
							"type": "string"
						}
					],
					"name": "validBeverages",
					"outputs": [
						{
							"internalType": "bool",
							"name": "",
							"type": "bool"
						}
					],
					"stateMutability": "view",
					"type": "function"
				}
			],
			"devdoc": {
				"errors": {
					"OwnableInvalidOwner(address)": [
						{
							"details": "The owner is not a valid owner account. (eg. `address(0)`)"
						}
					],
					"OwnableUnauthorizedAccount(address)": [
						{
							"details": "The caller account is not authorized to perform an operation."
						}
					]
				},
				"kind": "dev",
				"methods": {
					"owner()": {
						"details": "Returns the address of the current owner."
					},
					"renounceOwnership()": {
						"details": "Leaves the contract without owner. It will not be possible to call `onlyOwner` functions. Can only be called by the current owner. NOTE: Renouncing ownership will leave the contract without an owner, thereby disabling any functionality that is only available to the owner."
					},
					"transferOwnership(address)": {
						"details": "Transfers ownership of the contract to a new account (`newOwner`). Can only be called by the current owner."
					}
				},
				"version": 1
			},
			"evm": {
				"assembly": "    /* \"contracts/6_Ordering.sol\":168:2141  contract BeverageOrdering is Ownable(msg.sender) {... */\n  mstore(0x40, 0x80)\n    /* \"contracts/6_Ordering.sol\":290:294  1e18 */\n  0x0de0b6b3a7640000\n    /* \"contracts/6_Ordering.sol\":256:294  uint256 public pricePerBeverage = 1e18 */\n  0x02\n  sstore\n    /* \"contracts/6_Ordering.sol\":779:957  constructor(address _tokenAddress) {... */\n  callvalue\n  dup1\n  iszero\n  tag_1\n  jumpi\n  0x00\n  dup1\n  revert\ntag_1:\n  pop\n  mload(0x40)\n  sub(codesize, bytecodeSize)\n  dup1\n  bytecodeSize\n  dup4\n  codecopy\n  dup2\n  dup2\n  add\n  0x40\n  mstore\n  dup2\n  add\n  swap1\n  tag_2\n  swap2\n  swap1\n  tag_3\n  jump\t// in\ntag_2:\n    /* \"contracts/6_Ordering.sol\":205:215  msg.sender */\n  caller\n    /* \"@openzeppelin/contracts/access/Ownable.sol\":1297:1298  0 */\n  0x00\n    /* \"@openzeppelin/contracts/access/Ownable.sol\":1273:1299  initialOwner == address(0) */\n  0xffffffffffffffffffffffffffffffffffffffff\n  and\n    /* \"@openzeppelin/contracts/access/Ownable.sol\":1273:1285  initialOwner */\n  dup2\n    /* \"@openzeppelin/contracts/access/Ownable.sol\":1273:1299  initialOwner == address(0) */\n  0xffffffffffffffffffffffffffffffffffffffff\n  and\n  sub\n    /* \"@openzeppelin/contracts/access/Ownable.sol\":1269:1364  if (initialOwner == address(0)) {... */\n  tag_7\n  jumpi\n    /* \"@openzeppelin/contracts/access/Ownable.sol\":1350:1351  0 */\n  0x00\n    /* \"@openzeppelin/contracts/access/Ownable.sol\":1322:1353  OwnableInvalidOwner(address(0)) */\n  mload(0x40)\n  0x1e4fbdf700000000000000000000000000000000000000000000000000000000\n  dup2\n  mstore\n  0x04\n  add\n  tag_8\n  swap2\n  swap1\n  tag_9\n  jump\t// in\ntag_8:\n  mload(0x40)\n  dup1\n  swap2\n  sub\n  swap1\n  revert\n    /* \"@openzeppelin/contracts/access/Ownable.sol\":1269:1364  if (initialOwner == address(0)) {... */\ntag_7:\n    /* \"@openzeppelin/contracts/access/Ownable.sol\":1373:1405  _transferOwnership(initialOwner) */\n  tag_10\n    /* \"@openzeppelin/contracts/access/Ownable.sol\":1392:1404  initialOwner */\n  dup2\n    /* \"@openzeppelin/contracts/access/Ownable.sol\":1373:1391  _transferOwnership */\n  shl(0x20, tag_11)\n    /* \"@openzeppelin/contracts/access/Ownable.sol\":1373:1405  _transferOwnership(initialOwner) */\n  0x20\n  shr\n  jump\t// in\ntag_10:\n    /* \"@openzeppelin/contracts/access/Ownable.sol\":1225:1412  constructor(address initialOwner) {... */\n  pop\n    /* \"contracts/6_Ordering.sol\":847:860  _tokenAddress */\n  dup1\n    /* \"contracts/6_Ordering.sol\":824:837  tokenContract */\n  0x01\n  0x00\n    /* \"contracts/6_Ordering.sol\":824:861  tokenContract = IERC20(_tokenAddress) */\n  0x0100\n  exp\n  dup2\n  sload\n  dup2\n  0xffffffffffffffffffffffffffffffffffffffff\n  mul\n  not\n  and\n  swap1\n  dup4\n  0xffffffffffffffffffffffffffffffffffffffff\n  and\n  mul\n  or\n  swap1\n  sstore\n  pop\n    /* \"contracts/6_Ordering.sol\":901:905  true */\n  0x01\n    /* \"contracts/6_Ordering.sol\":871:885  validBeverages */\n  0x04\n    /* \"contracts/6_Ordering.sol\":871:898  validBeverages[\"americano\"] */\n  mload(0x40)\n  tag_13\n  swap1\n  tag_14\n  jump\t// in\ntag_13:\n  swap1\n  dup2\n  mstore\n  0x20\n  add\n  mload(0x40)\n  dup1\n  swap2\n  sub\n  swap1\n  keccak256\n  0x00\n    /* \"contracts/6_Ordering.sol\":871:905  validBeverages[\"americano\"] = true */\n  0x0100\n  exp\n  dup2\n  sload\n  dup2\n  0xff\n  mul\n  not\n  and\n  swap1\n  dup4\n  iszero\n  iszero\n  mul\n  or\n  swap1\n  sstore\n  pop\n    /* \"contracts/6_Ordering.sol\":946:950  true */\n  0x01\n    /* \"contracts/6_Ordering.sol\":915:929  validBeverages */\n  0x04\n    /* \"contracts/6_Ordering.sol\":915:943  validBeverages[\"caffelatte\"] */\n  mload(0x40)\n  tag_15\n  swap1\n  tag_16\n  jump\t// in\ntag_15:\n  swap1\n  dup2\n  mstore\n  0x20\n  add\n  mload(0x40)\n  dup1\n  swap2\n  sub\n  swap1\n  keccak256\n  0x00\n    /* \"contracts/6_Ordering.sol\":915:950  validBeverages[\"caffelatte\"] = true */\n  0x0100\n  exp\n  dup2\n  sload\n  dup2\n  0xff\n  mul\n  not\n  and\n  swap1\n  dup4\n  iszero\n  iszero\n  mul\n  or\n  swap1\n  sstore\n  pop\n    /* \"contracts/6_Ordering.sol\":779:957  constructor(address _tokenAddress) {... */\n  pop\n    /* \"contracts/6_Ordering.sol\":168:2141  contract BeverageOrdering is Ownable(msg.sender) {... */\n  jump(tag_17)\n    /* \"@openzeppelin/contracts/access/Ownable.sol\":2912:3099  function _transferOwnership(address newOwner) internal virtual {... */\ntag_11:\n    /* \"@openzeppelin/contracts/access/Ownable.sol\":2985:3001  address oldOwner */\n  0x00\n    /* \"@openzeppelin/contracts/access/Ownable.sol\":3004:3010  _owner */\n  dup1\n  0x00\n  swap1\n  sload\n  swap1\n  0x0100\n  exp\n  swap1\n  div\n  0xffffffffffffffffffffffffffffffffffffffff\n  and\n    /* \"@openzeppelin/contracts/access/Ownable.sol\":2985:3010  address oldOwner = _owner */\n  swap1\n  pop\n    /* \"@openzeppelin/contracts/access/Ownable.sol\":3029:3037  newOwner */\n  dup2\n    /* \"@openzeppelin/contracts/access/Ownable.sol\":3020:3026  _owner */\n  0x00\n  dup1\n    /* \"@openzeppelin/contracts/access/Ownable.sol\":3020:3037  _owner = newOwner */\n  0x0100\n  exp\n  dup2\n  sload\n  dup2\n  0xffffffffffffffffffffffffffffffffffffffff\n  mul\n  not\n  and\n  swap1\n  dup4\n  0xffffffffffffffffffffffffffffffffffffffff\n  and\n  mul\n  or\n  swap1\n  sstore\n  pop\n    /* \"@openzeppelin/contracts/access/Ownable.sol\":3083:3091  newOwner */\n  dup2\n    /* \"@openzeppelin/contracts/access/Ownable.sol\":3052:3092  OwnershipTransferred(oldOwner, newOwner) */\n  0xffffffffffffffffffffffffffffffffffffffff\n  and\n    /* \"@openzeppelin/contracts/access/Ownable.sol\":3073:3081  oldOwner */\n  dup2\n    /* \"@openzeppelin/contracts/access/Ownable.sol\":3052:3092  OwnershipTransferred(oldOwner, newOwner) */\n  0xffffffffffffffffffffffffffffffffffffffff\n  and\n  0x8be0079c531659141344cd1fd0a4f28419497f9722a3daafe3b4186f6b6457e0\n  mload(0x40)\n  mload(0x40)\n  dup1\n  swap2\n  sub\n  swap1\n  log3\n    /* \"@openzeppelin/contracts/access/Ownable.sol\":2975:3099  {... */\n  pop\n    /* \"@openzeppelin/contracts/access/Ownable.sol\":2912:3099  function _transferOwnership(address newOwner) internal virtual {... */\n  pop\n  jump\t// out\n    /* \"#utility.yul\":88:205   */\ntag_20:\n    /* \"#utility.yul\":197:198   */\n  0x00\n    /* \"#utility.yul\":194:195   */\n  dup1\n    /* \"#utility.yul\":187:199   */\n  revert\n    /* \"#utility.yul\":334:460   */\ntag_22:\n    /* \"#utility.yul\":371:378   */\n  0x00\n    /* \"#utility.yul\":411:453   */\n  0xffffffffffffffffffffffffffffffffffffffff\n    /* \"#utility.yul\":404:409   */\n  dup3\n    /* \"#utility.yul\":400:454   */\n  and\n    /* \"#utility.yul\":389:454   */\n  swap1\n  pop\n    /* \"#utility.yul\":334:460   */\n  swap2\n  swap1\n  pop\n  jump\t// out\n    /* \"#utility.yul\":466:562   */\ntag_23:\n    /* \"#utility.yul\":503:510   */\n  0x00\n    /* \"#utility.yul\":532:556   */\n  tag_38\n    /* \"#utility.yul\":550:555   */\n  dup3\n    /* \"#utility.yul\":532:556   */\n  tag_22\n  jump\t// in\ntag_38:\n    /* \"#utility.yul\":521:556   */\n  swap1\n  pop\n    /* \"#utility.yul\":466:562   */\n  swap2\n  swap1\n  pop\n  jump\t// out\n    /* \"#utility.yul\":568:690   */\ntag_24:\n    /* \"#utility.yul\":641:665   */\n  tag_40\n    /* \"#utility.yul\":659:664   */\n  dup2\n    /* \"#utility.yul\":641:665   */\n  tag_23\n  jump\t// in\ntag_40:\n    /* \"#utility.yul\":634:639   */\n  dup2\n    /* \"#utility.yul\":631:666   */\n  eq\n    /* \"#utility.yul\":621:684   */\n  tag_41\n  jumpi\n    /* \"#utility.yul\":680:681   */\n  0x00\n    /* \"#utility.yul\":677:678   */\n  dup1\n    /* \"#utility.yul\":670:682   */\n  revert\n    /* \"#utility.yul\":621:684   */\ntag_41:\n    /* \"#utility.yul\":568:690   */\n  pop\n  jump\t// out\n    /* \"#utility.yul\":696:839   */\ntag_25:\n    /* \"#utility.yul\":753:758   */\n  0x00\n    /* \"#utility.yul\":784:790   */\n  dup2\n    /* \"#utility.yul\":778:791   */\n  mload\n    /* \"#utility.yul\":769:791   */\n  swap1\n  pop\n    /* \"#utility.yul\":800:833   */\n  tag_43\n    /* \"#utility.yul\":827:832   */\n  dup2\n    /* \"#utility.yul\":800:833   */\n  tag_24\n  jump\t// in\ntag_43:\n    /* \"#utility.yul\":696:839   */\n  swap3\n  swap2\n  pop\n  pop\n  jump\t// out\n    /* \"#utility.yul\":845:1196   */\ntag_3:\n    /* \"#utility.yul\":915:921   */\n  0x00\n    /* \"#utility.yul\":964:966   */\n  0x20\n    /* \"#utility.yul\":952:961   */\n  dup3\n    /* \"#utility.yul\":943:950   */\n  dup5\n    /* \"#utility.yul\":939:962   */\n  sub\n    /* \"#utility.yul\":935:967   */\n  slt\n    /* \"#utility.yul\":932:1051   */\n  iszero\n  tag_45\n  jumpi\n    /* \"#utility.yul\":970:1049   */\n  tag_46\n  tag_20\n  jump\t// in\ntag_46:\n    /* \"#utility.yul\":932:1051   */\ntag_45:\n    /* \"#utility.yul\":1090:1091   */\n  0x00\n    /* \"#utility.yul\":1115:1179   */\n  tag_47\n    /* \"#utility.yul\":1171:1178   */\n  dup5\n    /* \"#utility.yul\":1162:1168   */\n  dup3\n    /* \"#utility.yul\":1151:1160   */\n  dup6\n    /* \"#utility.yul\":1147:1169   */\n  add\n    /* \"#utility.yul\":1115:1179   */\n  tag_25\n  jump\t// in\ntag_47:\n    /* \"#utility.yul\":1105:1179   */\n  swap2\n  pop\n    /* \"#utility.yul\":1061:1189   */\n  pop\n    /* \"#utility.yul\":845:1196   */\n  swap3\n  swap2\n  pop\n  pop\n  jump\t// out\n    /* \"#utility.yul\":1202:1320   */\ntag_26:\n    /* \"#utility.yul\":1289:1313   */\n  tag_49\n    /* \"#utility.yul\":1307:1312   */\n  dup2\n    /* \"#utility.yul\":1289:1313   */\n  tag_23\n  jump\t// in\ntag_49:\n    /* \"#utility.yul\":1284:1287   */\n  dup3\n    /* \"#utility.yul\":1277:1314   */\n  mstore\n    /* \"#utility.yul\":1202:1320   */\n  pop\n  pop\n  jump\t// out\n    /* \"#utility.yul\":1326:1548   */\ntag_9:\n    /* \"#utility.yul\":1419:1423   */\n  0x00\n    /* \"#utility.yul\":1457:1459   */\n  0x20\n    /* \"#utility.yul\":1446:1455   */\n  dup3\n    /* \"#utility.yul\":1442:1460   */\n  add\n    /* \"#utility.yul\":1434:1460   */\n  swap1\n  pop\n    /* \"#utility.yul\":1470:1541   */\n  tag_51\n    /* \"#utility.yul\":1538:1539   */\n  0x00\n    /* \"#utility.yul\":1527:1536   */\n  dup4\n    /* \"#utility.yul\":1523:1540   */\n  add\n    /* \"#utility.yul\":1514:1520   */\n  dup5\n    /* \"#utility.yul\":1470:1541   */\n  tag_26\n  jump\t// in\ntag_51:\n    /* \"#utility.yul\":1326:1548   */\n  swap3\n  swap2\n  pop\n  pop\n  jump\t// out\n    /* \"#utility.yul\":1554:1702   */\ntag_27:\n    /* \"#utility.yul\":1656:1667   */\n  0x00\n    /* \"#utility.yul\":1693:1696   */\n  dup2\n    /* \"#utility.yul\":1678:1696   */\n  swap1\n  pop\n    /* \"#utility.yul\":1554:1702   */\n  swap3\n  swap2\n  pop\n  pop\n  jump\t// out\n    /* \"#utility.yul\":1708:1867   */\ntag_28:\n    /* \"#utility.yul\":1848:1859   */\n  0x616d65726963616e6f0000000000000000000000000000000000000000000000\n    /* \"#utility.yul\":1844:1845   */\n  0x00\n    /* \"#utility.yul\":1836:1842   */\n  dup3\n    /* \"#utility.yul\":1832:1846   */\n  add\n    /* \"#utility.yul\":1825:1860   */\n  mstore\n    /* \"#utility.yul\":1708:1867   */\n  pop\n  jump\t// out\n    /* \"#utility.yul\":1873:2273   */\ntag_29:\n    /* \"#utility.yul\":2033:2036   */\n  0x00\n    /* \"#utility.yul\":2054:2138   */\n  tag_55\n    /* \"#utility.yul\":2136:2137   */\n  0x09\n    /* \"#utility.yul\":2131:2134   */\n  dup4\n    /* \"#utility.yul\":2054:2138   */\n  tag_27\n  jump\t// in\ntag_55:\n    /* \"#utility.yul\":2047:2138   */\n  swap2\n  pop\n    /* \"#utility.yul\":2147:2240   */\n  tag_56\n    /* \"#utility.yul\":2236:2239   */\n  dup3\n    /* \"#utility.yul\":2147:2240   */\n  tag_28\n  jump\t// in\ntag_56:\n    /* \"#utility.yul\":2265:2266   */\n  0x09\n    /* \"#utility.yul\":2260:2263   */\n  dup3\n    /* \"#utility.yul\":2256:2267   */\n  add\n    /* \"#utility.yul\":2249:2267   */\n  swap1\n  pop\n    /* \"#utility.yul\":1873:2273   */\n  swap2\n  swap1\n  pop\n  jump\t// out\n    /* \"#utility.yul\":2279:2660   */\ntag_14:\n    /* \"#utility.yul\":2464:2467   */\n  0x00\n    /* \"#utility.yul\":2486:2634   */\n  tag_58\n    /* \"#utility.yul\":2630:2633   */\n  dup3\n    /* \"#utility.yul\":2486:2634   */\n  tag_29\n  jump\t// in\ntag_58:\n    /* \"#utility.yul\":2479:2634   */\n  swap2\n  pop\n    /* \"#utility.yul\":2651:2654   */\n  dup2\n    /* \"#utility.yul\":2644:2654   */\n  swap1\n  pop\n    /* \"#utility.yul\":2279:2660   */\n  swap2\n  swap1\n  pop\n  jump\t// out\n    /* \"#utility.yul\":2666:2826   */\ntag_30:\n    /* \"#utility.yul\":2806:2818   */\n  0x63616666656c6174746500000000000000000000000000000000000000000000\n    /* \"#utility.yul\":2802:2803   */\n  0x00\n    /* \"#utility.yul\":2794:2800   */\n  dup3\n    /* \"#utility.yul\":2790:2804   */\n  add\n    /* \"#utility.yul\":2783:2819   */\n  mstore\n    /* \"#utility.yul\":2666:2826   */\n  pop\n  jump\t// out\n    /* \"#utility.yul\":2832:3234   */\ntag_31:\n    /* \"#utility.yul\":2992:2995   */\n  0x00\n    /* \"#utility.yul\":3013:3098   */\n  tag_61\n    /* \"#utility.yul\":3095:3097   */\n  0x0a\n    /* \"#utility.yul\":3090:3093   */\n  dup4\n    /* \"#utility.yul\":3013:3098   */\n  tag_27\n  jump\t// in\ntag_61:\n    /* \"#utility.yul\":3006:3098   */\n  swap2\n  pop\n    /* \"#utility.yul\":3107:3200   */\n  tag_62\n    /* \"#utility.yul\":3196:3199   */\n  dup3\n    /* \"#utility.yul\":3107:3200   */\n  tag_30\n  jump\t// in\ntag_62:\n    /* \"#utility.yul\":3225:3227   */\n  0x0a\n    /* \"#utility.yul\":3220:3223   */\n  dup3\n    /* \"#utility.yul\":3216:3228   */\n  add\n    /* \"#utility.yul\":3209:3228   */\n  swap1\n  pop\n    /* \"#utility.yul\":2832:3234   */\n  swap2\n  swap1\n  pop\n  jump\t// out\n    /* \"#utility.yul\":3240:3621   */\ntag_16:\n    /* \"#utility.yul\":3425:3428   */\n  0x00\n    /* \"#utility.yul\":3447:3595   */\n  tag_64\n    /* \"#utility.yul\":3591:3594   */\n  dup3\n    /* \"#utility.yul\":3447:3595   */\n  tag_31\n  jump\t// in\ntag_64:\n    /* \"#utility.yul\":3440:3595   */\n  swap2\n  pop\n    /* \"#utility.yul\":3612:3615   */\n  dup2\n    /* \"#utility.yul\":3605:3615   */\n  swap1\n  pop\n    /* \"#utility.yul\":3240:3621   */\n  swap2\n  swap1\n  pop\n  jump\t// out\n    /* \"contracts/6_Ordering.sol\":168:2141  contract BeverageOrdering is Ownable(msg.sender) {... */\ntag_17:\n  dataSize(sub_0)\n  dup1\n  dataOffset(sub_0)\n  0x00\n  codecopy\n  0x00\n  return\nstop\n\nsub_0: assembly {\n        /* \"contracts/6_Ordering.sol\":168:2141  contract BeverageOrdering is Ownable(msg.sender) {... */\n      mstore(0x40, 0x80)\n      callvalue\n      dup1\n      iszero\n      tag_1\n      jumpi\n      0x00\n      dup1\n      revert\n    tag_1:\n      pop\n      jumpi(tag_2, lt(calldatasize, 0x04))\n      shr(0xe0, calldataload(0x00))\n      dup1\n      0xa85c38ef\n      gt\n      tag_14\n      jumpi\n      dup1\n      0xa85c38ef\n      eq\n      tag_8\n      jumpi\n      dup1\n      0xd09ef241\n      eq\n      tag_9\n      jumpi\n      dup1\n      0xd3fa59cf\n      eq\n      tag_10\n      jumpi\n      dup1\n      0xf2fde38b\n      eq\n      tag_11\n      jumpi\n      dup1\n      0xf9f847dd\n      eq\n      tag_12\n      jumpi\n      dup1\n      0xfa47fd60\n      eq\n      tag_13\n      jumpi\n      jump(tag_2)\n    tag_14:\n      dup1\n      0x2ff71f3a\n      eq\n      tag_3\n      jumpi\n      dup1\n      0x55a373d6\n      eq\n      tag_4\n      jumpi\n      dup1\n      0x715018a6\n      eq\n      tag_5\n      jumpi\n      dup1\n      0x8ac7d79c\n      eq\n      tag_6\n      jumpi\n      dup1\n      0x8da5cb5b\n      eq\n      tag_7\n      jumpi\n    tag_2:\n      0x00\n      dup1\n      revert\n        /* \"contracts/6_Ordering.sol\":458:503  mapping(string => bool) public validBeverages */\n    tag_3:\n      tag_15\n      0x04\n      dup1\n      calldatasize\n      sub\n      dup2\n      add\n      swap1\n      tag_16\n      swap2\n      swap1\n      tag_17\n      jump\t// in\n    tag_16:\n      tag_18\n      jump\t// in\n    tag_15:\n      mload(0x40)\n      tag_19\n      swap2\n      swap1\n      tag_20\n      jump\t// in\n    tag_19:\n      mload(0x40)\n      dup1\n      swap2\n      sub\n      swap1\n      return\n        /* \"contracts/6_Ordering.sol\":223:250  IERC20 public tokenContract */\n    tag_4:\n      tag_21\n      tag_22\n      jump\t// in\n    tag_21:\n      mload(0x40)\n      tag_23\n      swap2\n      swap1\n      tag_24\n      jump\t// in\n    tag_23:\n      mload(0x40)\n      dup1\n      swap2\n      sub\n      swap1\n      return\n        /* \"contracts/6_Ordering.sol\":580:700  function renounceOwnership() view public override onlyOwner {... */\n    tag_5:\n      tag_25\n      tag_26\n      jump\t// in\n    tag_25:\n      stop\n        /* \"contracts/6_Ordering.sol\":1660:1915  function confirmOrder(uint256 orderIndex) public onlyOwner {... */\n    tag_6:\n      tag_27\n      0x04\n      dup1\n      calldatasize\n      sub\n      dup2\n      add\n      swap1\n      tag_28\n      swap2\n      swap1\n      tag_29\n      jump\t// in\n    tag_28:\n      tag_30\n      jump\t// in\n    tag_27:\n      stop\n        /* \"@openzeppelin/contracts/access/Ownable.sol\":1638:1723  function owner() public view virtual returns (address) {... */\n    tag_7:\n      tag_31\n      tag_32\n      jump\t// in\n    tag_31:\n      mload(0x40)\n      tag_33\n      swap2\n      swap1\n      tag_34\n      jump\t// in\n    tag_33:\n      mload(0x40)\n      dup1\n      swap2\n      sub\n      swap1\n      return\n        /* \"contracts/6_Ordering.sol\":431:452  Order[] public orders */\n    tag_8:\n      tag_35\n      0x04\n      dup1\n      calldatasize\n      sub\n      dup2\n      add\n      swap1\n      tag_36\n      swap2\n      swap1\n      tag_29\n      jump\t// in\n    tag_36:\n      tag_37\n      jump\t// in\n    tag_35:\n      mload(0x40)\n      tag_38\n      swap4\n      swap3\n      swap2\n      swap1\n      tag_39\n      jump\t// in\n    tag_38:\n      mload(0x40)\n      dup1\n      swap2\n      sub\n      swap1\n      return\n        /* \"contracts/6_Ordering.sol\":1956:2139  function getOrder(uint256 orderIndex) public view returns (Order memory) {... */\n    tag_9:\n      tag_40\n      0x04\n      dup1\n      calldatasize\n      sub\n      dup2\n      add\n      swap1\n      tag_41\n      swap2\n      swap1\n      tag_29\n      jump\t// in\n    tag_41:\n      tag_42\n      jump\t// in\n    tag_40:\n      mload(0x40)\n      tag_43\n      swap2\n      swap1\n      tag_44\n      jump\t// in\n    tag_43:\n      mload(0x40)\n      dup1\n      swap2\n      sub\n      swap1\n      return\n        /* \"contracts/6_Ordering.sol\":997:1132  function setBeverageValidity(string memory beverage, bool isValid) public onlyOwner {... */\n    tag_10:\n      tag_45\n      0x04\n      dup1\n      calldatasize\n      sub\n      dup2\n      add\n      swap1\n      tag_46\n      swap2\n      swap1\n      tag_47\n      jump\t// in\n    tag_46:\n      tag_48\n      jump\t// in\n    tag_45:\n      stop\n        /* \"@openzeppelin/contracts/access/Ownable.sol\":2543:2758  function transferOwnership(address newOwner) public virtual onlyOwner {... */\n    tag_11:\n      tag_49\n      0x04\n      dup1\n      calldatasize\n      sub\n      dup2\n      add\n      swap1\n      tag_50\n      swap2\n      swap1\n      tag_51\n      jump\t// in\n    tag_50:\n      tag_52\n      jump\t// in\n    tag_49:\n      stop\n        /* \"contracts/6_Ordering.sol\":256:294  uint256 public pricePerBeverage = 1e18 */\n    tag_12:\n      tag_53\n      tag_54\n      jump\t// in\n    tag_53:\n      mload(0x40)\n      tag_55\n      swap2\n      swap1\n      tag_56\n      jump\t// in\n    tag_55:\n      mload(0x40)\n      dup1\n      swap2\n      sub\n      swap1\n      return\n        /* \"contracts/6_Ordering.sol\":1159:1619  function orderBeverage(string memory beverage) public {... */\n    tag_13:\n      tag_57\n      0x04\n      dup1\n      calldatasize\n      sub\n      dup2\n      add\n      swap1\n      tag_58\n      swap2\n      swap1\n      tag_17\n      jump\t// in\n    tag_58:\n      tag_59\n      jump\t// in\n    tag_57:\n      stop\n        /* \"contracts/6_Ordering.sol\":458:503  mapping(string => bool) public validBeverages */\n    tag_18:\n      0x04\n      dup2\n      dup1\n      mload\n      0x20\n      dup2\n      add\n      dup3\n      add\n      dup1\n      mload\n      dup5\n      dup3\n      mstore\n      0x20\n      dup4\n      add\n      0x20\n      dup6\n      add\n      keccak256\n      dup2\n      dup4\n      mstore\n      dup1\n      swap6\n      pop\n      pop\n      pop\n      pop\n      pop\n      pop\n      0x00\n      swap2\n      pop\n      sload\n      swap1\n      0x0100\n      exp\n      swap1\n      div\n      0xff\n      and\n      dup2\n      jump\t// out\n        /* \"contracts/6_Ordering.sol\":223:250  IERC20 public tokenContract */\n    tag_22:\n      0x01\n      0x00\n      swap1\n      sload\n      swap1\n      0x0100\n      exp\n      swap1\n      div\n      0xffffffffffffffffffffffffffffffffffffffff\n      and\n      dup2\n      jump\t// out\n        /* \"contracts/6_Ordering.sol\":580:700  function renounceOwnership() view public override onlyOwner {... */\n    tag_26:\n        /* \"@openzeppelin/contracts/access/Ownable.sol\":1531:1544  _checkOwner() */\n      tag_61\n        /* \"@openzeppelin/contracts/access/Ownable.sol\":1531:1542  _checkOwner */\n      tag_62\n        /* \"@openzeppelin/contracts/access/Ownable.sol\":1531:1544  _checkOwner() */\n      jump\t// in\n    tag_61:\n        /* \"contracts/6_Ordering.sol\":650:693  revert(\"Renouncing ownership is disabled.\") */\n      mload(0x40)\n      0x08c379a000000000000000000000000000000000000000000000000000000000\n      dup2\n      mstore\n      0x04\n      add\n      tag_64\n      swap1\n      tag_65\n      jump\t// in\n    tag_64:\n      mload(0x40)\n      dup1\n      swap2\n      sub\n      swap1\n      revert\n        /* \"contracts/6_Ordering.sol\":1660:1915  function confirmOrder(uint256 orderIndex) public onlyOwner {... */\n    tag_30:\n        /* \"@openzeppelin/contracts/access/Ownable.sol\":1531:1544  _checkOwner() */\n      tag_67\n        /* \"@openzeppelin/contracts/access/Ownable.sol\":1531:1542  _checkOwner */\n      tag_62\n        /* \"@openzeppelin/contracts/access/Ownable.sol\":1531:1544  _checkOwner() */\n      jump\t// in\n    tag_67:\n        /* \"contracts/6_Ordering.sol\":1750:1756  orders */\n      0x03\n        /* \"contracts/6_Ordering.sol\":1750:1763  orders.length */\n      dup1\n      sload\n      swap1\n      pop\n        /* \"contracts/6_Ordering.sol\":1737:1747  orderIndex */\n      dup2\n        /* \"contracts/6_Ordering.sol\":1737:1763  orderIndex < orders.length */\n      lt\n        /* \"contracts/6_Ordering.sol\":1729:1787  require(orderIndex < orders.length, \"Invalid order index\") */\n      tag_69\n      jumpi\n      mload(0x40)\n      0x08c379a000000000000000000000000000000000000000000000000000000000\n      dup2\n      mstore\n      0x04\n      add\n      tag_70\n      swap1\n      tag_71\n      jump\t// in\n    tag_70:\n      mload(0x40)\n      dup1\n      swap2\n      sub\n      swap1\n      revert\n    tag_69:\n        /* \"contracts/6_Ordering.sol\":1806:1812  orders */\n      0x03\n        /* \"contracts/6_Ordering.sol\":1813:1823  orderIndex */\n      dup2\n        /* \"contracts/6_Ordering.sol\":1806:1824  orders[orderIndex] */\n      dup2\n      sload\n      dup2\n      lt\n      tag_72\n      jumpi\n      tag_73\n      tag_74\n      jump\t// in\n    tag_73:\n    tag_72:\n      swap1\n      0x00\n      mstore\n      keccak256(0x00, 0x20)\n      swap1\n      0x03\n      mul\n      add\n        /* \"contracts/6_Ordering.sol\":1806:1834  orders[orderIndex].fulfilled */\n      0x02\n      add\n      0x00\n      swap1\n      sload\n      swap1\n      0x0100\n      exp\n      swap1\n      div\n      0xff\n      and\n        /* \"contracts/6_Ordering.sol\":1805:1834  !orders[orderIndex].fulfilled */\n      iszero\n        /* \"contracts/6_Ordering.sol\":1797:1862  require(!orders[orderIndex].fulfilled, \"Order already fulfilled\") */\n      tag_76\n      jumpi\n      mload(0x40)\n      0x08c379a000000000000000000000000000000000000000000000000000000000\n      dup2\n      mstore\n      0x04\n      add\n      tag_77\n      swap1\n      tag_78\n      jump\t// in\n    tag_77:\n      mload(0x40)\n      dup1\n      swap2\n      sub\n      swap1\n      revert\n    tag_76:\n        /* \"contracts/6_Ordering.sol\":1904:1908  true */\n      0x01\n        /* \"contracts/6_Ordering.sol\":1873:1879  orders */\n      0x03\n        /* \"contracts/6_Ordering.sol\":1880:1890  orderIndex */\n      dup3\n        /* \"contracts/6_Ordering.sol\":1873:1891  orders[orderIndex] */\n      dup2\n      sload\n      dup2\n      lt\n      tag_79\n      jumpi\n      tag_80\n      tag_74\n      jump\t// in\n    tag_80:\n    tag_79:\n      swap1\n      0x00\n      mstore\n      keccak256(0x00, 0x20)\n      swap1\n      0x03\n      mul\n      add\n        /* \"contracts/6_Ordering.sol\":1873:1901  orders[orderIndex].fulfilled */\n      0x02\n      add\n      0x00\n        /* \"contracts/6_Ordering.sol\":1873:1908  orders[orderIndex].fulfilled = true */\n      0x0100\n      exp\n      dup2\n      sload\n      dup2\n      0xff\n      mul\n      not\n      and\n      swap1\n      dup4\n      iszero\n      iszero\n      mul\n      or\n      swap1\n      sstore\n      pop\n        /* \"contracts/6_Ordering.sol\":1660:1915  function confirmOrder(uint256 orderIndex) public onlyOwner {... */\n      pop\n      jump\t// out\n        /* \"@openzeppelin/contracts/access/Ownable.sol\":1638:1723  function owner() public view virtual returns (address) {... */\n    tag_32:\n        /* \"@openzeppelin/contracts/access/Ownable.sol\":1684:1691  address */\n      0x00\n        /* \"@openzeppelin/contracts/access/Ownable.sol\":1710:1716  _owner */\n      dup1\n      0x00\n      swap1\n      sload\n      swap1\n      0x0100\n      exp\n      swap1\n      div\n      0xffffffffffffffffffffffffffffffffffffffff\n      and\n        /* \"@openzeppelin/contracts/access/Ownable.sol\":1703:1716  return _owner */\n      swap1\n      pop\n        /* \"@openzeppelin/contracts/access/Ownable.sol\":1638:1723  function owner() public view virtual returns (address) {... */\n      swap1\n      jump\t// out\n        /* \"contracts/6_Ordering.sol\":431:452  Order[] public orders */\n    tag_37:\n      0x03\n      dup2\n      dup2\n      sload\n      dup2\n      lt\n      tag_83\n      jumpi\n      0x00\n      dup1\n      revert\n    tag_83:\n      swap1\n      0x00\n      mstore\n      keccak256(0x00, 0x20)\n      swap1\n      0x03\n      mul\n      add\n      0x00\n      swap2\n      pop\n      swap1\n      pop\n      dup1\n      0x00\n      add\n      0x00\n      swap1\n      sload\n      swap1\n      0x0100\n      exp\n      swap1\n      div\n      0xffffffffffffffffffffffffffffffffffffffff\n      and\n      swap1\n      dup1\n      0x01\n      add\n      dup1\n      sload\n      tag_85\n      swap1\n      tag_86\n      jump\t// in\n    tag_85:\n      dup1\n      0x1f\n      add\n      0x20\n      dup1\n      swap2\n      div\n      mul\n      0x20\n      add\n      mload(0x40)\n      swap1\n      dup2\n      add\n      0x40\n      mstore\n      dup1\n      swap3\n      swap2\n      swap1\n      dup2\n      dup2\n      mstore\n      0x20\n      add\n      dup3\n      dup1\n      sload\n      tag_87\n      swap1\n      tag_86\n      jump\t// in\n    tag_87:\n      dup1\n      iszero\n      tag_88\n      jumpi\n      dup1\n      0x1f\n      lt\n      tag_89\n      jumpi\n      0x0100\n      dup1\n      dup4\n      sload\n      div\n      mul\n      dup4\n      mstore\n      swap2\n      0x20\n      add\n      swap2\n      jump(tag_88)\n    tag_89:\n      dup3\n      add\n      swap2\n      swap1\n      0x00\n      mstore\n      keccak256(0x00, 0x20)\n      swap1\n    tag_90:\n      dup2\n      sload\n      dup2\n      mstore\n      swap1\n      0x01\n      add\n      swap1\n      0x20\n      add\n      dup1\n      dup4\n      gt\n      tag_90\n      jumpi\n      dup3\n      swap1\n      sub\n      0x1f\n      and\n      dup3\n      add\n      swap2\n    tag_88:\n      pop\n      pop\n      pop\n      pop\n      pop\n      swap1\n      dup1\n      0x02\n      add\n      0x00\n      swap1\n      sload\n      swap1\n      0x0100\n      exp\n      swap1\n      div\n      0xff\n      and\n      swap1\n      pop\n      dup4\n      jump\t// out\n        /* \"contracts/6_Ordering.sol\":1956:2139  function getOrder(uint256 orderIndex) public view returns (Order memory) {... */\n    tag_42:\n        /* \"contracts/6_Ordering.sol\":2015:2027  Order memory */\n      tag_91\n      tag_92\n      jump\t// in\n    tag_91:\n        /* \"contracts/6_Ordering.sol\":2060:2066  orders */\n      0x03\n        /* \"contracts/6_Ordering.sol\":2060:2073  orders.length */\n      dup1\n      sload\n      swap1\n      pop\n        /* \"contracts/6_Ordering.sol\":2047:2057  orderIndex */\n      dup3\n        /* \"contracts/6_Ordering.sol\":2047:2073  orderIndex < orders.length */\n      lt\n        /* \"contracts/6_Ordering.sol\":2039:2097  require(orderIndex < orders.length, \"Invalid order index\") */\n      tag_94\n      jumpi\n      mload(0x40)\n      0x08c379a000000000000000000000000000000000000000000000000000000000\n      dup2\n      mstore\n      0x04\n      add\n      tag_95\n      swap1\n      tag_71\n      jump\t// in\n    tag_95:\n      mload(0x40)\n      dup1\n      swap2\n      sub\n      swap1\n      revert\n    tag_94:\n        /* \"contracts/6_Ordering.sol\":2114:2120  orders */\n      0x03\n        /* \"contracts/6_Ordering.sol\":2121:2131  orderIndex */\n      dup3\n        /* \"contracts/6_Ordering.sol\":2114:2132  orders[orderIndex] */\n      dup2\n      sload\n      dup2\n      lt\n      tag_96\n      jumpi\n      tag_97\n      tag_74\n      jump\t// in\n    tag_97:\n    tag_96:\n      swap1\n      0x00\n      mstore\n      keccak256(0x00, 0x20)\n      swap1\n      0x03\n      mul\n      add\n        /* \"contracts/6_Ordering.sol\":2107:2132  return orders[orderIndex] */\n      mload(0x40)\n      dup1\n      0x60\n      add\n      0x40\n      mstore\n      swap1\n      dup2\n      0x00\n      dup3\n      add\n      0x00\n      swap1\n      sload\n      swap1\n      0x0100\n      exp\n      swap1\n      div\n      0xffffffffffffffffffffffffffffffffffffffff\n      and\n      0xffffffffffffffffffffffffffffffffffffffff\n      and\n      0xffffffffffffffffffffffffffffffffffffffff\n      and\n      dup2\n      mstore\n      0x20\n      add\n      0x01\n      dup3\n      add\n      dup1\n      sload\n      tag_99\n      swap1\n      tag_86\n      jump\t// in\n    tag_99:\n      dup1\n      0x1f\n      add\n      0x20\n      dup1\n      swap2\n      div\n      mul\n      0x20\n      add\n      mload(0x40)\n      swap1\n      dup2\n      add\n      0x40\n      mstore\n      dup1\n      swap3\n      swap2\n      swap1\n      dup2\n      dup2\n      mstore\n      0x20\n      add\n      dup3\n      dup1\n      sload\n      tag_100\n      swap1\n      tag_86\n      jump\t// in\n    tag_100:\n      dup1\n      iszero\n      tag_101\n      jumpi\n      dup1\n      0x1f\n      lt\n      tag_102\n      jumpi\n      0x0100\n      dup1\n      dup4\n      sload\n      div\n      mul\n      dup4\n      mstore\n      swap2\n      0x20\n      add\n      swap2\n      jump(tag_101)\n    tag_102:\n      dup3\n      add\n      swap2\n      swap1\n      0x00\n      mstore\n      keccak256(0x00, 0x20)\n      swap1\n    tag_103:\n      dup2\n      sload\n      dup2\n      mstore\n      swap1\n      0x01\n      add\n      swap1\n      0x20\n      add\n      dup1\n      dup4\n      gt\n      tag_103\n      jumpi\n      dup3\n      swap1\n      sub\n      0x1f\n      and\n      dup3\n      add\n      swap2\n    tag_101:\n      pop\n      pop\n      pop\n      pop\n      pop\n      dup2\n      mstore\n      0x20\n      add\n      0x02\n      dup3\n      add\n      0x00\n      swap1\n      sload\n      swap1\n      0x0100\n      exp\n      swap1\n      div\n      0xff\n      and\n      iszero\n      iszero\n      iszero\n      iszero\n      dup2\n      mstore\n      pop\n      pop\n      swap1\n      pop\n        /* \"contracts/6_Ordering.sol\":1956:2139  function getOrder(uint256 orderIndex) public view returns (Order memory) {... */\n      swap2\n      swap1\n      pop\n      jump\t// out\n        /* \"contracts/6_Ordering.sol\":997:1132  function setBeverageValidity(string memory beverage, bool isValid) public onlyOwner {... */\n    tag_48:\n        /* \"@openzeppelin/contracts/access/Ownable.sol\":1531:1544  _checkOwner() */\n      tag_105\n        /* \"@openzeppelin/contracts/access/Ownable.sol\":1531:1542  _checkOwner */\n      tag_62\n        /* \"@openzeppelin/contracts/access/Ownable.sol\":1531:1544  _checkOwner() */\n      jump\t// in\n    tag_105:\n        /* \"contracts/6_Ordering.sol\":1118:1125  isValid */\n      dup1\n        /* \"contracts/6_Ordering.sol\":1091:1105  validBeverages */\n      0x04\n        /* \"contracts/6_Ordering.sol\":1106:1114  beverage */\n      dup4\n        /* \"contracts/6_Ordering.sol\":1091:1115  validBeverages[beverage] */\n      mload(0x40)\n      tag_107\n      swap2\n      swap1\n      tag_108\n      jump\t// in\n    tag_107:\n      swap1\n      dup2\n      mstore\n      0x20\n      add\n      mload(0x40)\n      dup1\n      swap2\n      sub\n      swap1\n      keccak256\n      0x00\n        /* \"contracts/6_Ordering.sol\":1091:1125  validBeverages[beverage] = isValid */\n      0x0100\n      exp\n      dup2\n      sload\n      dup2\n      0xff\n      mul\n      not\n      and\n      swap1\n      dup4\n      iszero\n      iszero\n      mul\n      or\n      swap1\n      sstore\n      pop\n        /* \"contracts/6_Ordering.sol\":997:1132  function setBeverageValidity(string memory beverage, bool isValid) public onlyOwner {... */\n      pop\n      pop\n      jump\t// out\n        /* \"@openzeppelin/contracts/access/Ownable.sol\":2543:2758  function transferOwnership(address newOwner) public virtual onlyOwner {... */\n    tag_52:\n        /* \"@openzeppelin/contracts/access/Ownable.sol\":1531:1544  _checkOwner() */\n      tag_110\n        /* \"@openzeppelin/contracts/access/Ownable.sol\":1531:1542  _checkOwner */\n      tag_62\n        /* \"@openzeppelin/contracts/access/Ownable.sol\":1531:1544  _checkOwner() */\n      jump\t// in\n    tag_110:\n        /* \"@openzeppelin/contracts/access/Ownable.sol\":2647:2648  0 */\n      0x00\n        /* \"@openzeppelin/contracts/access/Ownable.sol\":2627:2649  newOwner == address(0) */\n      0xffffffffffffffffffffffffffffffffffffffff\n      and\n        /* \"@openzeppelin/contracts/access/Ownable.sol\":2627:2635  newOwner */\n      dup2\n        /* \"@openzeppelin/contracts/access/Ownable.sol\":2627:2649  newOwner == address(0) */\n      0xffffffffffffffffffffffffffffffffffffffff\n      and\n      sub\n        /* \"@openzeppelin/contracts/access/Ownable.sol\":2623:2714  if (newOwner == address(0)) {... */\n      tag_112\n      jumpi\n        /* \"@openzeppelin/contracts/access/Ownable.sol\":2700:2701  0 */\n      0x00\n        /* \"@openzeppelin/contracts/access/Ownable.sol\":2672:2703  OwnableInvalidOwner(address(0)) */\n      mload(0x40)\n      0x1e4fbdf700000000000000000000000000000000000000000000000000000000\n      dup2\n      mstore\n      0x04\n      add\n      tag_113\n      swap2\n      swap1\n      tag_34\n      jump\t// in\n    tag_113:\n      mload(0x40)\n      dup1\n      swap2\n      sub\n      swap1\n      revert\n        /* \"@openzeppelin/contracts/access/Ownable.sol\":2623:2714  if (newOwner == address(0)) {... */\n    tag_112:\n        /* \"@openzeppelin/contracts/access/Ownable.sol\":2723:2751  _transferOwnership(newOwner) */\n      tag_114\n        /* \"@openzeppelin/contracts/access/Ownable.sol\":2742:2750  newOwner */\n      dup2\n        /* \"@openzeppelin/contracts/access/Ownable.sol\":2723:2741  _transferOwnership */\n      tag_115\n        /* \"@openzeppelin/contracts/access/Ownable.sol\":2723:2751  _transferOwnership(newOwner) */\n      jump\t// in\n    tag_114:\n        /* \"@openzeppelin/contracts/access/Ownable.sol\":2543:2758  function transferOwnership(address newOwner) public virtual onlyOwner {... */\n      pop\n      jump\t// out\n        /* \"contracts/6_Ordering.sol\":256:294  uint256 public pricePerBeverage = 1e18 */\n    tag_54:\n      sload(0x02)\n      dup2\n      jump\t// out\n        /* \"contracts/6_Ordering.sol\":1159:1619  function orderBeverage(string memory beverage) public {... */\n    tag_59:\n        /* \"contracts/6_Ordering.sol\":1270:1286  pricePerBeverage */\n      sload(0x02)\n        /* \"contracts/6_Ordering.sol\":1231:1244  tokenContract */\n      0x01\n      0x00\n      swap1\n      sload\n      swap1\n      0x0100\n      exp\n      swap1\n      div\n      0xffffffffffffffffffffffffffffffffffffffff\n      and\n        /* \"contracts/6_Ordering.sol\":1231:1254  tokenContract.balanceOf */\n      0xffffffffffffffffffffffffffffffffffffffff\n      and\n      0x70a08231\n        /* \"contracts/6_Ordering.sol\":1255:1265  msg.sender */\n      caller\n        /* \"contracts/6_Ordering.sol\":1231:1266  tokenContract.balanceOf(msg.sender) */\n      mload(0x40)\n      dup3\n      0xffffffff\n      and\n      0xe0\n      shl\n      dup2\n      mstore\n      0x04\n      add\n      tag_117\n      swap2\n      swap1\n      tag_34\n      jump\t// in\n    tag_117:\n      0x20\n      mload(0x40)\n      dup1\n      dup4\n      sub\n      dup2\n      dup7\n      gas\n      staticcall\n      iszero\n      dup1\n      iszero\n      tag_119\n      jumpi\n      returndatasize\n      0x00\n      dup1\n      returndatacopy\n      revert(0x00, returndatasize)\n    tag_119:\n      pop\n      pop\n      pop\n      pop\n      mload(0x40)\n      returndatasize\n      not(0x1f)\n      0x1f\n      dup3\n      add\n      and\n      dup3\n      add\n      dup1\n      0x40\n      mstore\n      pop\n      dup2\n      add\n      swap1\n      tag_120\n      swap2\n      swap1\n      tag_121\n      jump\t// in\n    tag_120:\n        /* \"contracts/6_Ordering.sol\":1231:1286  tokenContract.balanceOf(msg.sender) >= pricePerBeverage */\n      lt\n      iszero\n        /* \"contracts/6_Ordering.sol\":1223:1326  require(tokenContract.balanceOf(msg.sender) >= pricePerBeverage, \"Insufficient balance to place order\") */\n      tag_122\n      jumpi\n      mload(0x40)\n      0x08c379a000000000000000000000000000000000000000000000000000000000\n      dup2\n      mstore\n      0x04\n      add\n      tag_123\n      swap1\n      tag_124\n      jump\t// in\n    tag_123:\n      mload(0x40)\n      dup1\n      swap2\n      sub\n      swap1\n      revert\n    tag_122:\n        /* \"contracts/6_Ordering.sol\":1344:1358  validBeverages */\n      0x04\n        /* \"contracts/6_Ordering.sol\":1359:1367  beverage */\n      dup2\n        /* \"contracts/6_Ordering.sol\":1344:1368  validBeverages[beverage] */\n      mload(0x40)\n      tag_125\n      swap2\n      swap1\n      tag_108\n      jump\t// in\n    tag_125:\n      swap1\n      dup2\n      mstore\n      0x20\n      add\n      mload(0x40)\n      dup1\n      swap2\n      sub\n      swap1\n      keccak256\n      0x00\n      swap1\n      sload\n      swap1\n      0x0100\n      exp\n      swap1\n      div\n      0xff\n      and\n        /* \"contracts/6_Ordering.sol\":1336:1394  require(validBeverages[beverage], \"Invalid beverage type\") */\n      tag_126\n      jumpi\n      mload(0x40)\n      0x08c379a000000000000000000000000000000000000000000000000000000000\n      dup2\n      mstore\n      0x04\n      add\n      tag_127\n      swap1\n      tag_128\n      jump\t// in\n    tag_127:\n      mload(0x40)\n      dup1\n      swap2\n      sub\n      swap1\n      revert\n    tag_126:\n        /* \"contracts/6_Ordering.sol\":1404:1417  tokenContract */\n      0x01\n      0x00\n      swap1\n      sload\n      swap1\n      0x0100\n      exp\n      swap1\n      div\n      0xffffffffffffffffffffffffffffffffffffffff\n      and\n        /* \"contracts/6_Ordering.sol\":1404:1430  tokenContract.transferFrom */\n      0xffffffffffffffffffffffffffffffffffffffff\n      and\n      0x23b872dd\n        /* \"contracts/6_Ordering.sol\":1431:1441  msg.sender */\n      caller\n        /* \"contracts/6_Ordering.sol\":1451:1455  this */\n      address\n        /* \"contracts/6_Ordering.sol\":1458:1474  pricePerBeverage */\n      sload(0x02)\n        /* \"contracts/6_Ordering.sol\":1404:1475  tokenContract.transferFrom(msg.sender, address(this), pricePerBeverage) */\n      mload(0x40)\n      dup5\n      0xffffffff\n      and\n      0xe0\n      shl\n      dup2\n      mstore\n      0x04\n      add\n      tag_129\n      swap4\n      swap3\n      swap2\n      swap1\n      tag_130\n      jump\t// in\n    tag_129:\n      0x20\n      mload(0x40)\n      dup1\n      dup4\n      sub\n      dup2\n      0x00\n      dup8\n      gas\n      call\n      iszero\n      dup1\n      iszero\n      tag_132\n      jumpi\n      returndatasize\n      0x00\n      dup1\n      returndatacopy\n      revert(0x00, returndatasize)\n    tag_132:\n      pop\n      pop\n      pop\n      pop\n      mload(0x40)\n      returndatasize\n      not(0x1f)\n      0x1f\n      dup3\n      add\n      and\n      dup3\n      add\n      dup1\n      0x40\n      mstore\n      pop\n      dup2\n      add\n      swap1\n      tag_133\n      swap2\n      swap1\n      tag_134\n      jump\t// in\n    tag_133:\n      pop\n        /* \"contracts/6_Ordering.sol\":1486:1492  orders */\n      0x03\n        /* \"contracts/6_Ordering.sol\":1498:1611  Order({... */\n      mload(0x40)\n      dup1\n      0x60\n      add\n      0x40\n      mstore\n      dup1\n        /* \"contracts/6_Ordering.sol\":1528:1538  msg.sender */\n      caller\n        /* \"contracts/6_Ordering.sol\":1498:1611  Order({... */\n      0xffffffffffffffffffffffffffffffffffffffff\n      and\n      dup2\n      mstore\n      0x20\n      add\n        /* \"contracts/6_Ordering.sol\":1562:1570  beverage */\n      dup4\n        /* \"contracts/6_Ordering.sol\":1498:1611  Order({... */\n      dup2\n      mstore\n      0x20\n      add\n        /* \"contracts/6_Ordering.sol\":1595:1600  false */\n      0x00\n        /* \"contracts/6_Ordering.sol\":1498:1611  Order({... */\n      iszero\n      iszero\n      dup2\n      mstore\n      pop\n        /* \"contracts/6_Ordering.sol\":1486:1612  orders.push(Order({... */\n      swap1\n      dup1\n      0x01\n      dup2\n      sload\n      add\n      dup1\n      dup3\n      sstore\n      dup1\n      swap2\n      pop\n      pop\n      0x01\n      swap1\n      sub\n      swap1\n      0x00\n      mstore\n      keccak256(0x00, 0x20)\n      swap1\n      0x03\n      mul\n      add\n      0x00\n      swap1\n      swap2\n      swap1\n      swap2\n      swap1\n      swap2\n      pop\n      0x00\n      dup3\n      add\n      mload\n      dup2\n      0x00\n      add\n      exp(0x0100, 0x00)\n      dup2\n      sload\n      dup2\n      0xffffffffffffffffffffffffffffffffffffffff\n      mul\n      not\n      and\n      swap1\n      dup4\n      0xffffffffffffffffffffffffffffffffffffffff\n      and\n      mul\n      or\n      swap1\n      sstore\n      pop\n      0x20\n      dup3\n      add\n      mload\n      dup2\n      0x01\n      add\n      swap1\n      dup2\n      tag_136\n      swap2\n      swap1\n      tag_137\n      jump\t// in\n    tag_136:\n      pop\n      0x40\n      dup3\n      add\n      mload\n      dup2\n      0x02\n      add\n      exp(0x0100, 0x00)\n      dup2\n      sload\n      dup2\n      0xff\n      mul\n      not\n      and\n      swap1\n      dup4\n      iszero\n      iszero\n      mul\n      or\n      swap1\n      sstore\n      pop\n      pop\n      pop\n        /* \"contracts/6_Ordering.sol\":1159:1619  function orderBeverage(string memory beverage) public {... */\n      pop\n      jump\t// out\n        /* \"@openzeppelin/contracts/access/Ownable.sol\":1796:1958  function _checkOwner() internal view virtual {... */\n    tag_62:\n        /* \"@openzeppelin/contracts/access/Ownable.sol\":1866:1878  _msgSender() */\n      tag_139\n        /* \"@openzeppelin/contracts/access/Ownable.sol\":1866:1876  _msgSender */\n      tag_140\n        /* \"@openzeppelin/contracts/access/Ownable.sol\":1866:1878  _msgSender() */\n      jump\t// in\n    tag_139:\n        /* \"@openzeppelin/contracts/access/Ownable.sol\":1855:1878  owner() != _msgSender() */\n      0xffffffffffffffffffffffffffffffffffffffff\n      and\n        /* \"@openzeppelin/contracts/access/Ownable.sol\":1855:1862  owner() */\n      tag_141\n        /* \"@openzeppelin/contracts/access/Ownable.sol\":1855:1860  owner */\n      tag_32\n        /* \"@openzeppelin/contracts/access/Ownable.sol\":1855:1862  owner() */\n      jump\t// in\n    tag_141:\n        /* \"@openzeppelin/contracts/access/Ownable.sol\":1855:1878  owner() != _msgSender() */\n      0xffffffffffffffffffffffffffffffffffffffff\n      and\n      eq\n        /* \"@openzeppelin/contracts/access/Ownable.sol\":1851:1952  if (owner() != _msgSender()) {... */\n      tag_142\n      jumpi\n        /* \"@openzeppelin/contracts/access/Ownable.sol\":1928:1940  _msgSender() */\n      tag_143\n        /* \"@openzeppelin/contracts/access/Ownable.sol\":1928:1938  _msgSender */\n      tag_140\n        /* \"@openzeppelin/contracts/access/Ownable.sol\":1928:1940  _msgSender() */\n      jump\t// in\n    tag_143:\n        /* \"@openzeppelin/contracts/access/Ownable.sol\":1901:1941  OwnableUnauthorizedAccount(_msgSender()) */\n      mload(0x40)\n      0x118cdaa700000000000000000000000000000000000000000000000000000000\n      dup2\n      mstore\n      0x04\n      add\n      tag_144\n      swap2\n      swap1\n      tag_34\n      jump\t// in\n    tag_144:\n      mload(0x40)\n      dup1\n      swap2\n      sub\n      swap1\n      revert\n        /* \"@openzeppelin/contracts/access/Ownable.sol\":1851:1952  if (owner() != _msgSender()) {... */\n    tag_142:\n        /* \"@openzeppelin/contracts/access/Ownable.sol\":1796:1958  function _checkOwner() internal view virtual {... */\n      jump\t// out\n        /* \"@openzeppelin/contracts/access/Ownable.sol\":2912:3099  function _transferOwnership(address newOwner) internal virtual {... */\n    tag_115:\n        /* \"@openzeppelin/contracts/access/Ownable.sol\":2985:3001  address oldOwner */\n      0x00\n        /* \"@openzeppelin/contracts/access/Ownable.sol\":3004:3010  _owner */\n      dup1\n      0x00\n      swap1\n      sload\n      swap1\n      0x0100\n      exp\n      swap1\n      div\n      0xffffffffffffffffffffffffffffffffffffffff\n      and\n        /* \"@openzeppelin/contracts/access/Ownable.sol\":2985:3010  address oldOwner = _owner */\n      swap1\n      pop\n        /* \"@openzeppelin/contracts/access/Ownable.sol\":3029:3037  newOwner */\n      dup2\n        /* \"@openzeppelin/contracts/access/Ownable.sol\":3020:3026  _owner */\n      0x00\n      dup1\n        /* \"@openzeppelin/contracts/access/Ownable.sol\":3020:3037  _owner = newOwner */\n      0x0100\n      exp\n      dup2\n      sload\n      dup2\n      0xffffffffffffffffffffffffffffffffffffffff\n      mul\n      not\n      and\n      swap1\n      dup4\n      0xffffffffffffffffffffffffffffffffffffffff\n      and\n      mul\n      or\n      swap1\n      sstore\n      pop\n        /* \"@openzeppelin/contracts/access/Ownable.sol\":3083:3091  newOwner */\n      dup2\n        /* \"@openzeppelin/contracts/access/Ownable.sol\":3052:3092  OwnershipTransferred(oldOwner, newOwner) */\n      0xffffffffffffffffffffffffffffffffffffffff\n      and\n        /* \"@openzeppelin/contracts/access/Ownable.sol\":3073:3081  oldOwner */\n      dup2\n        /* \"@openzeppelin/contracts/access/Ownable.sol\":3052:3092  OwnershipTransferred(oldOwner, newOwner) */\n      0xffffffffffffffffffffffffffffffffffffffff\n      and\n      0x8be0079c531659141344cd1fd0a4f28419497f9722a3daafe3b4186f6b6457e0\n      mload(0x40)\n      mload(0x40)\n      dup1\n      swap2\n      sub\n      swap1\n      log3\n        /* \"@openzeppelin/contracts/access/Ownable.sol\":2975:3099  {... */\n      pop\n        /* \"@openzeppelin/contracts/access/Ownable.sol\":2912:3099  function _transferOwnership(address newOwner) internal virtual {... */\n      pop\n      jump\t// out\n        /* \"@openzeppelin/contracts/utils/Context.sol\":656:752  function _msgSender() internal view virtual returns (address) {... */\n    tag_140:\n        /* \"@openzeppelin/contracts/utils/Context.sol\":709:716  address */\n      0x00\n        /* \"@openzeppelin/contracts/utils/Context.sol\":735:745  msg.sender */\n      caller\n        /* \"@openzeppelin/contracts/utils/Context.sol\":728:745  return msg.sender */\n      swap1\n      pop\n        /* \"@openzeppelin/contracts/utils/Context.sol\":656:752  function _msgSender() internal view virtual returns (address) {... */\n      swap1\n      jump\t// out\n    tag_92:\n      mload(0x40)\n      dup1\n      0x60\n      add\n      0x40\n      mstore\n      dup1\n      and(0xffffffffffffffffffffffffffffffffffffffff, 0x00)\n      dup2\n      mstore\n      0x20\n      add\n      0x60\n      dup2\n      mstore\n      0x20\n      add\n      iszero(iszero(0x00))\n      dup2\n      mstore\n      pop\n      swap1\n      jump\t// out\n        /* \"#utility.yul\":7:82   */\n    tag_147:\n        /* \"#utility.yul\":40:46   */\n      0x00\n        /* \"#utility.yul\":73:75   */\n      0x40\n        /* \"#utility.yul\":67:76   */\n      mload\n        /* \"#utility.yul\":57:76   */\n      swap1\n      pop\n        /* \"#utility.yul\":7:82   */\n      swap1\n      jump\t// out\n        /* \"#utility.yul\":88:205   */\n    tag_148:\n        /* \"#utility.yul\":197:198   */\n      0x00\n        /* \"#utility.yul\":194:195   */\n      dup1\n        /* \"#utility.yul\":187:199   */\n      revert\n        /* \"#utility.yul\":211:328   */\n    tag_149:\n        /* \"#utility.yul\":320:321   */\n      0x00\n        /* \"#utility.yul\":317:318   */\n      dup1\n        /* \"#utility.yul\":310:322   */\n      revert\n        /* \"#utility.yul\":334:451   */\n    tag_150:\n        /* \"#utility.yul\":443:444   */\n      0x00\n        /* \"#utility.yul\":440:441   */\n      dup1\n        /* \"#utility.yul\":433:445   */\n      revert\n        /* \"#utility.yul\":457:574   */\n    tag_151:\n        /* \"#utility.yul\":566:567   */\n      0x00\n        /* \"#utility.yul\":563:564   */\n      dup1\n        /* \"#utility.yul\":556:568   */\n      revert\n        /* \"#utility.yul\":580:682   */\n    tag_152:\n        /* \"#utility.yul\":621:627   */\n      0x00\n        /* \"#utility.yul\":672:674   */\n      0x1f\n        /* \"#utility.yul\":668:675   */\n      not\n        /* \"#utility.yul\":663:665   */\n      0x1f\n        /* \"#utility.yul\":656:661   */\n      dup4\n        /* \"#utility.yul\":652:666   */\n      add\n        /* \"#utility.yul\":648:676   */\n      and\n        /* \"#utility.yul\":638:676   */\n      swap1\n      pop\n        /* \"#utility.yul\":580:682   */\n      swap2\n      swap1\n      pop\n      jump\t// out\n        /* \"#utility.yul\":688:868   */\n    tag_153:\n        /* \"#utility.yul\":736:813   */\n      0x4e487b7100000000000000000000000000000000000000000000000000000000\n        /* \"#utility.yul\":733:734   */\n      0x00\n        /* \"#utility.yul\":726:814   */\n      mstore\n        /* \"#utility.yul\":833:837   */\n      0x41\n        /* \"#utility.yul\":830:831   */\n      0x04\n        /* \"#utility.yul\":823:838   */\n      mstore\n        /* \"#utility.yul\":857:861   */\n      0x24\n        /* \"#utility.yul\":854:855   */\n      0x00\n        /* \"#utility.yul\":847:862   */\n      revert\n        /* \"#utility.yul\":874:1155   */\n    tag_154:\n        /* \"#utility.yul\":957:984   */\n      tag_225\n        /* \"#utility.yul\":979:983   */\n      dup3\n        /* \"#utility.yul\":957:984   */\n      tag_152\n      jump\t// in\n    tag_225:\n        /* \"#utility.yul\":949:955   */\n      dup2\n        /* \"#utility.yul\":945:985   */\n      add\n        /* \"#utility.yul\":1087:1093   */\n      dup2\n        /* \"#utility.yul\":1075:1085   */\n      dup2\n        /* \"#utility.yul\":1072:1094   */\n      lt\n        /* \"#utility.yul\":1051:1069   */\n      0xffffffffffffffff\n        /* \"#utility.yul\":1039:1049   */\n      dup3\n        /* \"#utility.yul\":1036:1070   */\n      gt\n        /* \"#utility.yul\":1033:1095   */\n      or\n        /* \"#utility.yul\":1030:1118   */\n      iszero\n      tag_226\n      jumpi\n        /* \"#utility.yul\":1098:1116   */\n      tag_227\n      tag_153\n      jump\t// in\n    tag_227:\n        /* \"#utility.yul\":1030:1118   */\n    tag_226:\n        /* \"#utility.yul\":1138:1148   */\n      dup1\n        /* \"#utility.yul\":1134:1136   */\n      0x40\n        /* \"#utility.yul\":1127:1149   */\n      mstore\n        /* \"#utility.yul\":917:1155   */\n      pop\n        /* \"#utility.yul\":874:1155   */\n      pop\n      pop\n      jump\t// out\n        /* \"#utility.yul\":1161:1290   */\n    tag_155:\n        /* \"#utility.yul\":1195:1201   */\n      0x00\n        /* \"#utility.yul\":1222:1242   */\n      tag_229\n      tag_147\n      jump\t// in\n    tag_229:\n        /* \"#utility.yul\":1212:1242   */\n      swap1\n      pop\n        /* \"#utility.yul\":1251:1284   */\n      tag_230\n        /* \"#utility.yul\":1279:1283   */\n      dup3\n        /* \"#utility.yul\":1271:1277   */\n      dup3\n        /* \"#utility.yul\":1251:1284   */\n      tag_154\n      jump\t// in\n    tag_230:\n        /* \"#utility.yul\":1161:1290   */\n      swap2\n      swap1\n      pop\n      jump\t// out\n        /* \"#utility.yul\":1296:1604   */\n    tag_156:\n        /* \"#utility.yul\":1358:1362   */\n      0x00\n        /* \"#utility.yul\":1448:1466   */\n      0xffffffffffffffff\n        /* \"#utility.yul\":1440:1446   */\n      dup3\n        /* \"#utility.yul\":1437:1467   */\n      gt\n        /* \"#utility.yul\":1434:1490   */\n      iszero\n      tag_232\n      jumpi\n        /* \"#utility.yul\":1470:1488   */\n      tag_233\n      tag_153\n      jump\t// in\n    tag_233:\n        /* \"#utility.yul\":1434:1490   */\n    tag_232:\n        /* \"#utility.yul\":1508:1537   */\n      tag_234\n        /* \"#utility.yul\":1530:1536   */\n      dup3\n        /* \"#utility.yul\":1508:1537   */\n      tag_152\n      jump\t// in\n    tag_234:\n        /* \"#utility.yul\":1500:1537   */\n      swap1\n      pop\n        /* \"#utility.yul\":1592:1596   */\n      0x20\n        /* \"#utility.yul\":1586:1590   */\n      dup2\n        /* \"#utility.yul\":1582:1597   */\n      add\n        /* \"#utility.yul\":1574:1597   */\n      swap1\n      pop\n        /* \"#utility.yul\":1296:1604   */\n      swap2\n      swap1\n      pop\n      jump\t// out\n        /* \"#utility.yul\":1610:1758   */\n    tag_157:\n        /* \"#utility.yul\":1708:1714   */\n      dup3\n        /* \"#utility.yul\":1703:1706   */\n      dup2\n        /* \"#utility.yul\":1698:1701   */\n      dup4\n        /* \"#utility.yul\":1685:1715   */\n      calldatacopy\n        /* \"#utility.yul\":1749:1750   */\n      0x00\n        /* \"#utility.yul\":1740:1746   */\n      dup4\n        /* \"#utility.yul\":1735:1738   */\n      dup4\n        /* \"#utility.yul\":1731:1747   */\n      add\n        /* \"#utility.yul\":1724:1751   */\n      mstore\n        /* \"#utility.yul\":1610:1758   */\n      pop\n      pop\n      pop\n      jump\t// out\n        /* \"#utility.yul\":1764:2189   */\n    tag_158:\n        /* \"#utility.yul\":1842:1847   */\n      0x00\n        /* \"#utility.yul\":1867:1933   */\n      tag_237\n        /* \"#utility.yul\":1883:1932   */\n      tag_238\n        /* \"#utility.yul\":1925:1931   */\n      dup5\n        /* \"#utility.yul\":1883:1932   */\n      tag_156\n      jump\t// in\n    tag_238:\n        /* \"#utility.yul\":1867:1933   */\n      tag_155\n      jump\t// in\n    tag_237:\n        /* \"#utility.yul\":1858:1933   */\n      swap1\n      pop\n        /* \"#utility.yul\":1956:1962   */\n      dup3\n        /* \"#utility.yul\":1949:1954   */\n      dup2\n        /* \"#utility.yul\":1942:1963   */\n      mstore\n        /* \"#utility.yul\":1994:1998   */\n      0x20\n        /* \"#utility.yul\":1987:1992   */\n      dup2\n        /* \"#utility.yul\":1983:1999   */\n      add\n        /* \"#utility.yul\":2032:2035   */\n      dup5\n        /* \"#utility.yul\":2023:2029   */\n      dup5\n        /* \"#utility.yul\":2018:2021   */\n      dup5\n        /* \"#utility.yul\":2014:2030   */\n      add\n        /* \"#utility.yul\":2011:2036   */\n      gt\n        /* \"#utility.yul\":2008:2120   */\n      iszero\n      tag_239\n      jumpi\n        /* \"#utility.yul\":2039:2118   */\n      tag_240\n      tag_151\n      jump\t// in\n    tag_240:\n        /* \"#utility.yul\":2008:2120   */\n    tag_239:\n        /* \"#utility.yul\":2129:2183   */\n      tag_241\n        /* \"#utility.yul\":2176:2182   */\n      dup5\n        /* \"#utility.yul\":2171:2174   */\n      dup3\n        /* \"#utility.yul\":2166:2169   */\n      dup6\n        /* \"#utility.yul\":2129:2183   */\n      tag_157\n      jump\t// in\n    tag_241:\n        /* \"#utility.yul\":1848:2189   */\n      pop\n        /* \"#utility.yul\":1764:2189   */\n      swap4\n      swap3\n      pop\n      pop\n      pop\n      jump\t// out\n        /* \"#utility.yul\":2209:2549   */\n    tag_159:\n        /* \"#utility.yul\":2265:2270   */\n      0x00\n        /* \"#utility.yul\":2314:2317   */\n      dup3\n        /* \"#utility.yul\":2307:2311   */\n      0x1f\n        /* \"#utility.yul\":2299:2305   */\n      dup4\n        /* \"#utility.yul\":2295:2312   */\n      add\n        /* \"#utility.yul\":2291:2318   */\n      slt\n        /* \"#utility.yul\":2281:2403   */\n      tag_243\n      jumpi\n        /* \"#utility.yul\":2322:2401   */\n      tag_244\n      tag_150\n      jump\t// in\n    tag_244:\n        /* \"#utility.yul\":2281:2403   */\n    tag_243:\n        /* \"#utility.yul\":2439:2445   */\n      dup2\n        /* \"#utility.yul\":2426:2446   */\n      calldataload\n        /* \"#utility.yul\":2464:2543   */\n      tag_245\n        /* \"#utility.yul\":2539:2542   */\n      dup5\n        /* \"#utility.yul\":2531:2537   */\n      dup3\n        /* \"#utility.yul\":2524:2528   */\n      0x20\n        /* \"#utility.yul\":2516:2522   */\n      dup7\n        /* \"#utility.yul\":2512:2529   */\n      add\n        /* \"#utility.yul\":2464:2543   */\n      tag_158\n      jump\t// in\n    tag_245:\n        /* \"#utility.yul\":2455:2543   */\n      swap2\n      pop\n        /* \"#utility.yul\":2271:2549   */\n      pop\n        /* \"#utility.yul\":2209:2549   */\n      swap3\n      swap2\n      pop\n      pop\n      jump\t// out\n        /* \"#utility.yul\":2555:3064   */\n    tag_17:\n        /* \"#utility.yul\":2624:2630   */\n      0x00\n        /* \"#utility.yul\":2673:2675   */\n      0x20\n        /* \"#utility.yul\":2661:2670   */\n      dup3\n        /* \"#utility.yul\":2652:2659   */\n      dup5\n        /* \"#utility.yul\":2648:2671   */\n      sub\n        /* \"#utility.yul\":2644:2676   */\n      slt\n        /* \"#utility.yul\":2641:2760   */\n      iszero\n      tag_247\n      jumpi\n        /* \"#utility.yul\":2679:2758   */\n      tag_248\n      tag_148\n      jump\t// in\n    tag_248:\n        /* \"#utility.yul\":2641:2760   */\n    tag_247:\n        /* \"#utility.yul\":2827:2828   */\n      0x00\n        /* \"#utility.yul\":2816:2825   */\n      dup3\n        /* \"#utility.yul\":2812:2829   */\n      add\n        /* \"#utility.yul\":2799:2830   */\n      calldataload\n        /* \"#utility.yul\":2857:2875   */\n      0xffffffffffffffff\n        /* \"#utility.yul\":2849:2855   */\n      dup2\n        /* \"#utility.yul\":2846:2876   */\n      gt\n        /* \"#utility.yul\":2843:2960   */\n      iszero\n      tag_249\n      jumpi\n        /* \"#utility.yul\":2879:2958   */\n      tag_250\n      tag_149\n      jump\t// in\n    tag_250:\n        /* \"#utility.yul\":2843:2960   */\n    tag_249:\n        /* \"#utility.yul\":2984:3047   */\n      tag_251\n        /* \"#utility.yul\":3039:3046   */\n      dup5\n        /* \"#utility.yul\":3030:3036   */\n      dup3\n        /* \"#utility.yul\":3019:3028   */\n      dup6\n        /* \"#utility.yul\":3015:3037   */\n      add\n        /* \"#utility.yul\":2984:3047   */\n      tag_159\n      jump\t// in\n    tag_251:\n        /* \"#utility.yul\":2974:3047   */\n      swap2\n      pop\n        /* \"#utility.yul\":2770:3057   */\n      pop\n        /* \"#utility.yul\":2555:3064   */\n      swap3\n      swap2\n      pop\n      pop\n      jump\t// out\n        /* \"#utility.yul\":3070:3160   */\n    tag_160:\n        /* \"#utility.yul\":3104:3111   */\n      0x00\n        /* \"#utility.yul\":3147:3152   */\n      dup2\n        /* \"#utility.yul\":3140:3153   */\n      iszero\n        /* \"#utility.yul\":3133:3154   */\n      iszero\n        /* \"#utility.yul\":3122:3154   */\n      swap1\n      pop\n        /* \"#utility.yul\":3070:3160   */\n      swap2\n      swap1\n      pop\n      jump\t// out\n        /* \"#utility.yul\":3166:3275   */\n    tag_161:\n        /* \"#utility.yul\":3247:3268   */\n      tag_254\n        /* \"#utility.yul\":3262:3267   */\n      dup2\n        /* \"#utility.yul\":3247:3268   */\n      tag_160\n      jump\t// in\n    tag_254:\n        /* \"#utility.yul\":3242:3245   */\n      dup3\n        /* \"#utility.yul\":3235:3269   */\n      mstore\n        /* \"#utility.yul\":3166:3275   */\n      pop\n      pop\n      jump\t// out\n        /* \"#utility.yul\":3281:3491   */\n    tag_20:\n        /* \"#utility.yul\":3368:3372   */\n      0x00\n        /* \"#utility.yul\":3406:3408   */\n      0x20\n        /* \"#utility.yul\":3395:3404   */\n      dup3\n        /* \"#utility.yul\":3391:3409   */\n      add\n        /* \"#utility.yul\":3383:3409   */\n      swap1\n      pop\n        /* \"#utility.yul\":3419:3484   */\n      tag_256\n        /* \"#utility.yul\":3481:3482   */\n      0x00\n        /* \"#utility.yul\":3470:3479   */\n      dup4\n        /* \"#utility.yul\":3466:3483   */\n      add\n        /* \"#utility.yul\":3457:3463   */\n      dup5\n        /* \"#utility.yul\":3419:3484   */\n      tag_161\n      jump\t// in\n    tag_256:\n        /* \"#utility.yul\":3281:3491   */\n      swap3\n      swap2\n      pop\n      pop\n      jump\t// out\n        /* \"#utility.yul\":3497:3623   */\n    tag_162:\n        /* \"#utility.yul\":3534:3541   */\n      0x00\n        /* \"#utility.yul\":3574:3616   */\n      0xffffffffffffffffffffffffffffffffffffffff\n        /* \"#utility.yul\":3567:3572   */\n      dup3\n        /* \"#utility.yul\":3563:3617   */\n      and\n        /* \"#utility.yul\":3552:3617   */\n      swap1\n      pop\n        /* \"#utility.yul\":3497:3623   */\n      swap2\n      swap1\n      pop\n      jump\t// out\n        /* \"#utility.yul\":3629:3689   */\n    tag_163:\n        /* \"#utility.yul\":3657:3660   */\n      0x00\n        /* \"#utility.yul\":3678:3683   */\n      dup2\n        /* \"#utility.yul\":3671:3683   */\n      swap1\n      pop\n        /* \"#utility.yul\":3629:3689   */\n      swap2\n      swap1\n      pop\n      jump\t// out\n        /* \"#utility.yul\":3695:3837   */\n    tag_164:\n        /* \"#utility.yul\":3745:3754   */\n      0x00\n        /* \"#utility.yul\":3778:3831   */\n      tag_260\n        /* \"#utility.yul\":3796:3830   */\n      tag_261\n        /* \"#utility.yul\":3805:3829   */\n      tag_262\n        /* \"#utility.yul\":3823:3828   */\n      dup5\n        /* \"#utility.yul\":3805:3829   */\n      tag_162\n      jump\t// in\n    tag_262:\n        /* \"#utility.yul\":3796:3830   */\n      tag_163\n      jump\t// in\n    tag_261:\n        /* \"#utility.yul\":3778:3831   */\n      tag_162\n      jump\t// in\n    tag_260:\n        /* \"#utility.yul\":3765:3831   */\n      swap1\n      pop\n        /* \"#utility.yul\":3695:3837   */\n      swap2\n      swap1\n      pop\n      jump\t// out\n        /* \"#utility.yul\":3843:3969   */\n    tag_165:\n        /* \"#utility.yul\":3893:3902   */\n      0x00\n        /* \"#utility.yul\":3926:3963   */\n      tag_264\n        /* \"#utility.yul\":3957:3962   */\n      dup3\n        /* \"#utility.yul\":3926:3963   */\n      tag_164\n      jump\t// in\n    tag_264:\n        /* \"#utility.yul\":3913:3963   */\n      swap1\n      pop\n        /* \"#utility.yul\":3843:3969   */\n      swap2\n      swap1\n      pop\n      jump\t// out\n        /* \"#utility.yul\":3975:4115   */\n    tag_166:\n        /* \"#utility.yul\":4039:4048   */\n      0x00\n        /* \"#utility.yul\":4072:4109   */\n      tag_266\n        /* \"#utility.yul\":4103:4108   */\n      dup3\n        /* \"#utility.yul\":4072:4109   */\n      tag_165\n      jump\t// in\n    tag_266:\n        /* \"#utility.yul\":4059:4109   */\n      swap1\n      pop\n        /* \"#utility.yul\":3975:4115   */\n      swap2\n      swap1\n      pop\n      jump\t// out\n        /* \"#utility.yul\":4121:4280   */\n    tag_167:\n        /* \"#utility.yul\":4222:4273   */\n      tag_268\n        /* \"#utility.yul\":4267:4272   */\n      dup2\n        /* \"#utility.yul\":4222:4273   */\n      tag_166\n      jump\t// in\n    tag_268:\n        /* \"#utility.yul\":4217:4220   */\n      dup3\n        /* \"#utility.yul\":4210:4274   */\n      mstore\n        /* \"#utility.yul\":4121:4280   */\n      pop\n      pop\n      jump\t// out\n        /* \"#utility.yul\":4286:4536   */\n    tag_24:\n        /* \"#utility.yul\":4393:4397   */\n      0x00\n        /* \"#utility.yul\":4431:4433   */\n      0x20\n        /* \"#utility.yul\":4420:4429   */\n      dup3\n        /* \"#utility.yul\":4416:4434   */\n      add\n        /* \"#utility.yul\":4408:4434   */\n      swap1\n      pop\n        /* \"#utility.yul\":4444:4529   */\n      tag_270\n        /* \"#utility.yul\":4526:4527   */\n      0x00\n        /* \"#utility.yul\":4515:4524   */\n      dup4\n        /* \"#utility.yul\":4511:4528   */\n      add\n        /* \"#utility.yul\":4502:4508   */\n      dup5\n        /* \"#utility.yul\":4444:4529   */\n      tag_167\n      jump\t// in\n    tag_270:\n        /* \"#utility.yul\":4286:4536   */\n      swap3\n      swap2\n      pop\n      pop\n      jump\t// out\n        /* \"#utility.yul\":4542:4619   */\n    tag_168:\n        /* \"#utility.yul\":4579:4586   */\n      0x00\n        /* \"#utility.yul\":4608:4613   */\n      dup2\n        /* \"#utility.yul\":4597:4613   */\n      swap1\n      pop\n        /* \"#utility.yul\":4542:4619   */\n      swap2\n      swap1\n      pop\n      jump\t// out\n        /* \"#utility.yul\":4625:4747   */\n    tag_169:\n        /* \"#utility.yul\":4698:4722   */\n      tag_273\n        /* \"#utility.yul\":4716:4721   */\n      dup2\n        /* \"#utility.yul\":4698:4722   */\n      tag_168\n      jump\t// in\n    tag_273:\n        /* \"#utility.yul\":4691:4696   */\n      dup2\n        /* \"#utility.yul\":4688:4723   */\n      eq\n        /* \"#utility.yul\":4678:4741   */\n      tag_274\n      jumpi\n        /* \"#utility.yul\":4737:4738   */\n      0x00\n        /* \"#utility.yul\":4734:4735   */\n      dup1\n        /* \"#utility.yul\":4727:4739   */\n      revert\n        /* \"#utility.yul\":4678:4741   */\n    tag_274:\n        /* \"#utility.yul\":4625:4747   */\n      pop\n      jump\t// out\n        /* \"#utility.yul\":4753:4892   */\n    tag_170:\n        /* \"#utility.yul\":4799:4804   */\n      0x00\n        /* \"#utility.yul\":4837:4843   */\n      dup2\n        /* \"#utility.yul\":4824:4844   */\n      calldataload\n        /* \"#utility.yul\":4815:4844   */\n      swap1\n      pop\n        /* \"#utility.yul\":4853:4886   */\n      tag_276\n        /* \"#utility.yul\":4880:4885   */\n      dup2\n        /* \"#utility.yul\":4853:4886   */\n      tag_169\n      jump\t// in\n    tag_276:\n        /* \"#utility.yul\":4753:4892   */\n      swap3\n      swap2\n      pop\n      pop\n      jump\t// out\n        /* \"#utility.yul\":4898:5227   */\n    tag_29:\n        /* \"#utility.yul\":4957:4963   */\n      0x00\n        /* \"#utility.yul\":5006:5008   */\n      0x20\n        /* \"#utility.yul\":4994:5003   */\n      dup3\n        /* \"#utility.yul\":4985:4992   */\n      dup5\n        /* \"#utility.yul\":4981:5004   */\n      sub\n        /* \"#utility.yul\":4977:5009   */\n      slt\n        /* \"#utility.yul\":4974:5093   */\n      iszero\n      tag_278\n      jumpi\n        /* \"#utility.yul\":5012:5091   */\n      tag_279\n      tag_148\n      jump\t// in\n    tag_279:\n        /* \"#utility.yul\":4974:5093   */\n    tag_278:\n        /* \"#utility.yul\":5132:5133   */\n      0x00\n        /* \"#utility.yul\":5157:5210   */\n      tag_280\n        /* \"#utility.yul\":5202:5209   */\n      dup5\n        /* \"#utility.yul\":5193:5199   */\n      dup3\n        /* \"#utility.yul\":5182:5191   */\n      dup6\n        /* \"#utility.yul\":5178:5200   */\n      add\n        /* \"#utility.yul\":5157:5210   */\n      tag_170\n      jump\t// in\n    tag_280:\n        /* \"#utility.yul\":5147:5210   */\n      swap2\n      pop\n        /* \"#utility.yul\":5103:5220   */\n      pop\n        /* \"#utility.yul\":4898:5227   */\n      swap3\n      swap2\n      pop\n      pop\n      jump\t// out\n        /* \"#utility.yul\":5233:5329   */\n    tag_171:\n        /* \"#utility.yul\":5270:5277   */\n      0x00\n        /* \"#utility.yul\":5299:5323   */\n      tag_282\n        /* \"#utility.yul\":5317:5322   */\n      dup3\n        /* \"#utility.yul\":5299:5323   */\n      tag_162\n      jump\t// in\n    tag_282:\n        /* \"#utility.yul\":5288:5323   */\n      swap1\n      pop\n        /* \"#utility.yul\":5233:5329   */\n      swap2\n      swap1\n      pop\n      jump\t// out\n        /* \"#utility.yul\":5335:5453   */\n    tag_172:\n        /* \"#utility.yul\":5422:5446   */\n      tag_284\n        /* \"#utility.yul\":5440:5445   */\n      dup2\n        /* \"#utility.yul\":5422:5446   */\n      tag_171\n      jump\t// in\n    tag_284:\n        /* \"#utility.yul\":5417:5420   */\n      dup3\n        /* \"#utility.yul\":5410:5447   */\n      mstore\n        /* \"#utility.yul\":5335:5453   */\n      pop\n      pop\n      jump\t// out\n        /* \"#utility.yul\":5459:5681   */\n    tag_34:\n        /* \"#utility.yul\":5552:5556   */\n      0x00\n        /* \"#utility.yul\":5590:5592   */\n      0x20\n        /* \"#utility.yul\":5579:5588   */\n      dup3\n        /* \"#utility.yul\":5575:5593   */\n      add\n        /* \"#utility.yul\":5567:5593   */\n      swap1\n      pop\n        /* \"#utility.yul\":5603:5674   */\n      tag_286\n        /* \"#utility.yul\":5671:5672   */\n      0x00\n        /* \"#utility.yul\":5660:5669   */\n      dup4\n        /* \"#utility.yul\":5656:5673   */\n      add\n        /* \"#utility.yul\":5647:5653   */\n      dup5\n        /* \"#utility.yul\":5603:5674   */\n      tag_172\n      jump\t// in\n    tag_286:\n        /* \"#utility.yul\":5459:5681   */\n      swap3\n      swap2\n      pop\n      pop\n      jump\t// out\n        /* \"#utility.yul\":5687:5786   */\n    tag_173:\n        /* \"#utility.yul\":5739:5745   */\n      0x00\n        /* \"#utility.yul\":5773:5778   */\n      dup2\n        /* \"#utility.yul\":5767:5779   */\n      mload\n        /* \"#utility.yul\":5757:5779   */\n      swap1\n      pop\n        /* \"#utility.yul\":5687:5786   */\n      swap2\n      swap1\n      pop\n      jump\t// out\n        /* \"#utility.yul\":5792:5961   */\n    tag_174:\n        /* \"#utility.yul\":5876:5887   */\n      0x00\n        /* \"#utility.yul\":5910:5916   */\n      dup3\n        /* \"#utility.yul\":5905:5908   */\n      dup3\n        /* \"#utility.yul\":5898:5917   */\n      mstore\n        /* \"#utility.yul\":5950:5954   */\n      0x20\n        /* \"#utility.yul\":5945:5948   */\n      dup3\n        /* \"#utility.yul\":5941:5955   */\n      add\n        /* \"#utility.yul\":5926:5955   */\n      swap1\n      pop\n        /* \"#utility.yul\":5792:5961   */\n      swap3\n      swap2\n      pop\n      pop\n      jump\t// out\n        /* \"#utility.yul\":5967:6215   */\n    tag_175:\n        /* \"#utility.yul\":6049:6050   */\n      0x00\n        /* \"#utility.yul\":6059:6172   */\n    tag_290:\n        /* \"#utility.yul\":6073:6079   */\n      dup4\n        /* \"#utility.yul\":6070:6071   */\n      dup2\n        /* \"#utility.yul\":6067:6080   */\n      lt\n        /* \"#utility.yul\":6059:6172   */\n      iszero\n      tag_292\n      jumpi\n        /* \"#utility.yul\":6158:6159   */\n      dup1\n        /* \"#utility.yul\":6153:6156   */\n      dup3\n        /* \"#utility.yul\":6149:6160   */\n      add\n        /* \"#utility.yul\":6143:6161   */\n      mload\n        /* \"#utility.yul\":6139:6140   */\n      dup2\n        /* \"#utility.yul\":6134:6137   */\n      dup5\n        /* \"#utility.yul\":6130:6141   */\n      add\n        /* \"#utility.yul\":6123:6162   */\n      mstore\n        /* \"#utility.yul\":6095:6097   */\n      0x20\n        /* \"#utility.yul\":6092:6093   */\n      dup2\n        /* \"#utility.yul\":6088:6098   */\n      add\n        /* \"#utility.yul\":6083:6098   */\n      swap1\n      pop\n        /* \"#utility.yul\":6059:6172   */\n      jump(tag_290)\n    tag_292:\n        /* \"#utility.yul\":6206:6207   */\n      0x00\n        /* \"#utility.yul\":6197:6203   */\n      dup5\n        /* \"#utility.yul\":6192:6195   */\n      dup5\n        /* \"#utility.yul\":6188:6204   */\n      add\n        /* \"#utility.yul\":6181:6208   */\n      mstore\n        /* \"#utility.yul\":6029:6215   */\n      pop\n        /* \"#utility.yul\":5967:6215   */\n      pop\n      pop\n      pop\n      jump\t// out\n        /* \"#utility.yul\":6221:6598   */\n    tag_176:\n        /* \"#utility.yul\":6309:6312   */\n      0x00\n        /* \"#utility.yul\":6337:6376   */\n      tag_294\n        /* \"#utility.yul\":6370:6375   */\n      dup3\n        /* \"#utility.yul\":6337:6376   */\n      tag_173\n      jump\t// in\n    tag_294:\n        /* \"#utility.yul\":6392:6463   */\n      tag_295\n        /* \"#utility.yul\":6456:6462   */\n      dup2\n        /* \"#utility.yul\":6451:6454   */\n      dup6\n        /* \"#utility.yul\":6392:6463   */\n      tag_174\n      jump\t// in\n    tag_295:\n        /* \"#utility.yul\":6385:6463   */\n      swap4\n      pop\n        /* \"#utility.yul\":6472:6537   */\n      tag_296\n        /* \"#utility.yul\":6530:6536   */\n      dup2\n        /* \"#utility.yul\":6525:6528   */\n      dup6\n        /* \"#utility.yul\":6518:6522   */\n      0x20\n        /* \"#utility.yul\":6511:6516   */\n      dup7\n        /* \"#utility.yul\":6507:6523   */\n      add\n        /* \"#utility.yul\":6472:6537   */\n      tag_175\n      jump\t// in\n    tag_296:\n        /* \"#utility.yul\":6562:6591   */\n      tag_297\n        /* \"#utility.yul\":6584:6590   */\n      dup2\n        /* \"#utility.yul\":6562:6591   */\n      tag_152\n      jump\t// in\n    tag_297:\n        /* \"#utility.yul\":6557:6560   */\n      dup5\n        /* \"#utility.yul\":6553:6592   */\n      add\n        /* \"#utility.yul\":6546:6592   */\n      swap2\n      pop\n        /* \"#utility.yul\":6313:6598   */\n      pop\n        /* \"#utility.yul\":6221:6598   */\n      swap3\n      swap2\n      pop\n      pop\n      jump\t// out\n        /* \"#utility.yul\":6604:7125   */\n    tag_39:\n        /* \"#utility.yul\":6767:6771   */\n      0x00\n        /* \"#utility.yul\":6805:6807   */\n      0x60\n        /* \"#utility.yul\":6794:6803   */\n      dup3\n        /* \"#utility.yul\":6790:6808   */\n      add\n        /* \"#utility.yul\":6782:6808   */\n      swap1\n      pop\n        /* \"#utility.yul\":6818:6889   */\n      tag_299\n        /* \"#utility.yul\":6886:6887   */\n      0x00\n        /* \"#utility.yul\":6875:6884   */\n      dup4\n        /* \"#utility.yul\":6871:6888   */\n      add\n        /* \"#utility.yul\":6862:6868   */\n      dup7\n        /* \"#utility.yul\":6818:6889   */\n      tag_172\n      jump\t// in\n    tag_299:\n        /* \"#utility.yul\":6936:6945   */\n      dup2\n        /* \"#utility.yul\":6930:6934   */\n      dup2\n        /* \"#utility.yul\":6926:6946   */\n      sub\n        /* \"#utility.yul\":6921:6923   */\n      0x20\n        /* \"#utility.yul\":6910:6919   */\n      dup4\n        /* \"#utility.yul\":6906:6924   */\n      add\n        /* \"#utility.yul\":6899:6947   */\n      mstore\n        /* \"#utility.yul\":6964:7042   */\n      tag_300\n        /* \"#utility.yul\":7037:7041   */\n      dup2\n        /* \"#utility.yul\":7028:7034   */\n      dup6\n        /* \"#utility.yul\":6964:7042   */\n      tag_176\n      jump\t// in\n    tag_300:\n        /* \"#utility.yul\":6956:7042   */\n      swap1\n      pop\n        /* \"#utility.yul\":7052:7118   */\n      tag_301\n        /* \"#utility.yul\":7114:7116   */\n      0x40\n        /* \"#utility.yul\":7103:7112   */\n      dup4\n        /* \"#utility.yul\":7099:7117   */\n      add\n        /* \"#utility.yul\":7090:7096   */\n      dup5\n        /* \"#utility.yul\":7052:7118   */\n      tag_161\n      jump\t// in\n    tag_301:\n        /* \"#utility.yul\":6604:7125   */\n      swap5\n      swap4\n      pop\n      pop\n      pop\n      pop\n      jump\t// out\n        /* \"#utility.yul\":7131:7239   */\n    tag_177:\n        /* \"#utility.yul\":7208:7232   */\n      tag_303\n        /* \"#utility.yul\":7226:7231   */\n      dup2\n        /* \"#utility.yul\":7208:7232   */\n      tag_171\n      jump\t// in\n    tag_303:\n        /* \"#utility.yul\":7203:7206   */\n      dup3\n        /* \"#utility.yul\":7196:7233   */\n      mstore\n        /* \"#utility.yul\":7131:7239   */\n      pop\n      pop\n      jump\t// out\n        /* \"#utility.yul\":7245:7404   */\n    tag_178:\n        /* \"#utility.yul\":7319:7330   */\n      0x00\n        /* \"#utility.yul\":7353:7359   */\n      dup3\n        /* \"#utility.yul\":7348:7351   */\n      dup3\n        /* \"#utility.yul\":7341:7360   */\n      mstore\n        /* \"#utility.yul\":7393:7397   */\n      0x20\n        /* \"#utility.yul\":7388:7391   */\n      dup3\n        /* \"#utility.yul\":7384:7398   */\n      add\n        /* \"#utility.yul\":7369:7398   */\n      swap1\n      pop\n        /* \"#utility.yul\":7245:7404   */\n      swap3\n      swap2\n      pop\n      pop\n      jump\t// out\n        /* \"#utility.yul\":7410:7767   */\n    tag_179:\n        /* \"#utility.yul\":7488:7491   */\n      0x00\n        /* \"#utility.yul\":7516:7555   */\n      tag_306\n        /* \"#utility.yul\":7549:7554   */\n      dup3\n        /* \"#utility.yul\":7516:7555   */\n      tag_173\n      jump\t// in\n    tag_306:\n        /* \"#utility.yul\":7571:7632   */\n      tag_307\n        /* \"#utility.yul\":7625:7631   */\n      dup2\n        /* \"#utility.yul\":7620:7623   */\n      dup6\n        /* \"#utility.yul\":7571:7632   */\n      tag_178\n      jump\t// in\n    tag_307:\n        /* \"#utility.yul\":7564:7632   */\n      swap4\n      pop\n        /* \"#utility.yul\":7641:7706   */\n      tag_308\n        /* \"#utility.yul\":7699:7705   */\n      dup2\n        /* \"#utility.yul\":7694:7697   */\n      dup6\n        /* \"#utility.yul\":7687:7691   */\n      0x20\n        /* \"#utility.yul\":7680:7685   */\n      dup7\n        /* \"#utility.yul\":7676:7692   */\n      add\n        /* \"#utility.yul\":7641:7706   */\n      tag_175\n      jump\t// in\n    tag_308:\n        /* \"#utility.yul\":7731:7760   */\n      tag_309\n        /* \"#utility.yul\":7753:7759   */\n      dup2\n        /* \"#utility.yul\":7731:7760   */\n      tag_152\n      jump\t// in\n    tag_309:\n        /* \"#utility.yul\":7726:7729   */\n      dup5\n        /* \"#utility.yul\":7722:7761   */\n      add\n        /* \"#utility.yul\":7715:7761   */\n      swap2\n      pop\n        /* \"#utility.yul\":7492:7767   */\n      pop\n        /* \"#utility.yul\":7410:7767   */\n      swap3\n      swap2\n      pop\n      pop\n      jump\t// out\n        /* \"#utility.yul\":7773:7872   */\n    tag_180:\n        /* \"#utility.yul\":7844:7865   */\n      tag_311\n        /* \"#utility.yul\":7859:7864   */\n      dup2\n        /* \"#utility.yul\":7844:7865   */\n      tag_160\n      jump\t// in\n    tag_311:\n        /* \"#utility.yul\":7839:7842   */\n      dup3\n        /* \"#utility.yul\":7832:7866   */\n      mstore\n        /* \"#utility.yul\":7773:7872   */\n      pop\n      pop\n      jump\t// out\n        /* \"#utility.yul\":7948:8729   */\n    tag_181:\n        /* \"#utility.yul\":8061:8064   */\n      0x00\n        /* \"#utility.yul\":8097:8101   */\n      0x60\n        /* \"#utility.yul\":8092:8095   */\n      dup4\n        /* \"#utility.yul\":8088:8102   */\n      add\n        /* \"#utility.yul\":8188:8192   */\n      0x00\n        /* \"#utility.yul\":8181:8186   */\n      dup4\n        /* \"#utility.yul\":8177:8193   */\n      add\n        /* \"#utility.yul\":8171:8194   */\n      mload\n        /* \"#utility.yul\":8207:8270   */\n      tag_313\n        /* \"#utility.yul\":8264:8268   */\n      0x00\n        /* \"#utility.yul\":8259:8262   */\n      dup7\n        /* \"#utility.yul\":8255:8269   */\n      add\n        /* \"#utility.yul\":8241:8253   */\n      dup3\n        /* \"#utility.yul\":8207:8270   */\n      tag_177\n      jump\t// in\n    tag_313:\n        /* \"#utility.yul\":8112:8280   */\n      pop\n        /* \"#utility.yul\":8366:8370   */\n      0x20\n        /* \"#utility.yul\":8359:8364   */\n      dup4\n        /* \"#utility.yul\":8355:8371   */\n      add\n        /* \"#utility.yul\":8349:8372   */\n      mload\n        /* \"#utility.yul\":8419:8422   */\n      dup5\n        /* \"#utility.yul\":8413:8417   */\n      dup3\n        /* \"#utility.yul\":8409:8423   */\n      sub\n        /* \"#utility.yul\":8402:8406   */\n      0x20\n        /* \"#utility.yul\":8397:8400   */\n      dup7\n        /* \"#utility.yul\":8393:8407   */\n      add\n        /* \"#utility.yul\":8386:8424   */\n      mstore\n        /* \"#utility.yul\":8445:8518   */\n      tag_314\n        /* \"#utility.yul\":8513:8517   */\n      dup3\n        /* \"#utility.yul\":8499:8511   */\n      dup3\n        /* \"#utility.yul\":8445:8518   */\n      tag_179\n      jump\t// in\n    tag_314:\n        /* \"#utility.yul\":8437:8518   */\n      swap2\n      pop\n        /* \"#utility.yul\":8290:8529   */\n      pop\n        /* \"#utility.yul\":8616:8620   */\n      0x40\n        /* \"#utility.yul\":8609:8614   */\n      dup4\n        /* \"#utility.yul\":8605:8621   */\n      add\n        /* \"#utility.yul\":8599:8622   */\n      mload\n        /* \"#utility.yul\":8635:8692   */\n      tag_315\n        /* \"#utility.yul\":8686:8690   */\n      0x40\n        /* \"#utility.yul\":8681:8684   */\n      dup7\n        /* \"#utility.yul\":8677:8691   */\n      add\n        /* \"#utility.yul\":8663:8675   */\n      dup3\n        /* \"#utility.yul\":8635:8692   */\n      tag_180\n      jump\t// in\n    tag_315:\n        /* \"#utility.yul\":8539:8702   */\n      pop\n        /* \"#utility.yul\":8719:8723   */\n      dup1\n        /* \"#utility.yul\":8712:8723   */\n      swap2\n      pop\n        /* \"#utility.yul\":8066:8729   */\n      pop\n        /* \"#utility.yul\":7948:8729   */\n      swap3\n      swap2\n      pop\n      pop\n      jump\t// out\n        /* \"#utility.yul\":8735:9096   */\n    tag_44:\n        /* \"#utility.yul\":8872:8876   */\n      0x00\n        /* \"#utility.yul\":8910:8912   */\n      0x20\n        /* \"#utility.yul\":8899:8908   */\n      dup3\n        /* \"#utility.yul\":8895:8913   */\n      add\n        /* \"#utility.yul\":8887:8913   */\n      swap1\n      pop\n        /* \"#utility.yul\":8959:8968   */\n      dup2\n        /* \"#utility.yul\":8953:8957   */\n      dup2\n        /* \"#utility.yul\":8949:8969   */\n      sub\n        /* \"#utility.yul\":8945:8946   */\n      0x00\n        /* \"#utility.yul\":8934:8943   */\n      dup4\n        /* \"#utility.yul\":8930:8947   */\n      add\n        /* \"#utility.yul\":8923:8970   */\n      mstore\n        /* \"#utility.yul\":8987:9089   */\n      tag_317\n        /* \"#utility.yul\":9084:9088   */\n      dup2\n        /* \"#utility.yul\":9075:9081   */\n      dup5\n        /* \"#utility.yul\":8987:9089   */\n      tag_181\n      jump\t// in\n    tag_317:\n        /* \"#utility.yul\":8979:9089   */\n      swap1\n      pop\n        /* \"#utility.yul\":8735:9096   */\n      swap3\n      swap2\n      pop\n      pop\n      jump\t// out\n        /* \"#utility.yul\":9102:9218   */\n    tag_182:\n        /* \"#utility.yul\":9172:9193   */\n      tag_319\n        /* \"#utility.yul\":9187:9192   */\n      dup2\n        /* \"#utility.yul\":9172:9193   */\n      tag_160\n      jump\t// in\n    tag_319:\n        /* \"#utility.yul\":9165:9170   */\n      dup2\n        /* \"#utility.yul\":9162:9194   */\n      eq\n        /* \"#utility.yul\":9152:9212   */\n      tag_320\n      jumpi\n        /* \"#utility.yul\":9208:9209   */\n      0x00\n        /* \"#utility.yul\":9205:9206   */\n      dup1\n        /* \"#utility.yul\":9198:9210   */\n      revert\n        /* \"#utility.yul\":9152:9212   */\n    tag_320:\n        /* \"#utility.yul\":9102:9218   */\n      pop\n      jump\t// out\n        /* \"#utility.yul\":9224:9357   */\n    tag_183:\n        /* \"#utility.yul\":9267:9272   */\n      0x00\n        /* \"#utility.yul\":9305:9311   */\n      dup2\n        /* \"#utility.yul\":9292:9312   */\n      calldataload\n        /* \"#utility.yul\":9283:9312   */\n      swap1\n      pop\n        /* \"#utility.yul\":9321:9351   */\n      tag_322\n        /* \"#utility.yul\":9345:9350   */\n      dup2\n        /* \"#utility.yul\":9321:9351   */\n      tag_182\n      jump\t// in\n    tag_322:\n        /* \"#utility.yul\":9224:9357   */\n      swap3\n      swap2\n      pop\n      pop\n      jump\t// out\n        /* \"#utility.yul\":9363:10011   */\n    tag_47:\n        /* \"#utility.yul\":9438:9444   */\n      0x00\n        /* \"#utility.yul\":9446:9452   */\n      dup1\n        /* \"#utility.yul\":9495:9497   */\n      0x40\n        /* \"#utility.yul\":9483:9492   */\n      dup4\n        /* \"#utility.yul\":9474:9481   */\n      dup6\n        /* \"#utility.yul\":9470:9493   */\n      sub\n        /* \"#utility.yul\":9466:9498   */\n      slt\n        /* \"#utility.yul\":9463:9582   */\n      iszero\n      tag_324\n      jumpi\n        /* \"#utility.yul\":9501:9580   */\n      tag_325\n      tag_148\n      jump\t// in\n    tag_325:\n        /* \"#utility.yul\":9463:9582   */\n    tag_324:\n        /* \"#utility.yul\":9649:9650   */\n      0x00\n        /* \"#utility.yul\":9638:9647   */\n      dup4\n        /* \"#utility.yul\":9634:9651   */\n      add\n        /* \"#utility.yul\":9621:9652   */\n      calldataload\n        /* \"#utility.yul\":9679:9697   */\n      0xffffffffffffffff\n        /* \"#utility.yul\":9671:9677   */\n      dup2\n        /* \"#utility.yul\":9668:9698   */\n      gt\n        /* \"#utility.yul\":9665:9782   */\n      iszero\n      tag_326\n      jumpi\n        /* \"#utility.yul\":9701:9780   */\n      tag_327\n      tag_149\n      jump\t// in\n    tag_327:\n        /* \"#utility.yul\":9665:9782   */\n    tag_326:\n        /* \"#utility.yul\":9806:9869   */\n      tag_328\n        /* \"#utility.yul\":9861:9868   */\n      dup6\n        /* \"#utility.yul\":9852:9858   */\n      dup3\n        /* \"#utility.yul\":9841:9850   */\n      dup7\n        /* \"#utility.yul\":9837:9859   */\n      add\n        /* \"#utility.yul\":9806:9869   */\n      tag_159\n      jump\t// in\n    tag_328:\n        /* \"#utility.yul\":9796:9869   */\n      swap3\n      pop\n        /* \"#utility.yul\":9592:9879   */\n      pop\n        /* \"#utility.yul\":9918:9920   */\n      0x20\n        /* \"#utility.yul\":9944:9994   */\n      tag_329\n        /* \"#utility.yul\":9986:9993   */\n      dup6\n        /* \"#utility.yul\":9977:9983   */\n      dup3\n        /* \"#utility.yul\":9966:9975   */\n      dup7\n        /* \"#utility.yul\":9962:9984   */\n      add\n        /* \"#utility.yul\":9944:9994   */\n      tag_183\n      jump\t// in\n    tag_329:\n        /* \"#utility.yul\":9934:9994   */\n      swap2\n      pop\n        /* \"#utility.yul\":9889:10004   */\n      pop\n        /* \"#utility.yul\":9363:10011   */\n      swap3\n      pop\n      swap3\n      swap1\n      pop\n      jump\t// out\n        /* \"#utility.yul\":10017:10139   */\n    tag_184:\n        /* \"#utility.yul\":10090:10114   */\n      tag_331\n        /* \"#utility.yul\":10108:10113   */\n      dup2\n        /* \"#utility.yul\":10090:10114   */\n      tag_171\n      jump\t// in\n    tag_331:\n        /* \"#utility.yul\":10083:10088   */\n      dup2\n        /* \"#utility.yul\":10080:10115   */\n      eq\n        /* \"#utility.yul\":10070:10133   */\n      tag_332\n      jumpi\n        /* \"#utility.yul\":10129:10130   */\n      0x00\n        /* \"#utility.yul\":10126:10127   */\n      dup1\n        /* \"#utility.yul\":10119:10131   */\n      revert\n        /* \"#utility.yul\":10070:10133   */\n    tag_332:\n        /* \"#utility.yul\":10017:10139   */\n      pop\n      jump\t// out\n        /* \"#utility.yul\":10145:10284   */\n    tag_185:\n        /* \"#utility.yul\":10191:10196   */\n      0x00\n        /* \"#utility.yul\":10229:10235   */\n      dup2\n        /* \"#utility.yul\":10216:10236   */\n      calldataload\n        /* \"#utility.yul\":10207:10236   */\n      swap1\n      pop\n        /* \"#utility.yul\":10245:10278   */\n      tag_334\n        /* \"#utility.yul\":10272:10277   */\n      dup2\n        /* \"#utility.yul\":10245:10278   */\n      tag_184\n      jump\t// in\n    tag_334:\n        /* \"#utility.yul\":10145:10284   */\n      swap3\n      swap2\n      pop\n      pop\n      jump\t// out\n        /* \"#utility.yul\":10290:10619   */\n    tag_51:\n        /* \"#utility.yul\":10349:10355   */\n      0x00\n        /* \"#utility.yul\":10398:10400   */\n      0x20\n        /* \"#utility.yul\":10386:10395   */\n      dup3\n        /* \"#utility.yul\":10377:10384   */\n      dup5\n        /* \"#utility.yul\":10373:10396   */\n      sub\n        /* \"#utility.yul\":10369:10401   */\n      slt\n        /* \"#utility.yul\":10366:10485   */\n      iszero\n      tag_336\n      jumpi\n        /* \"#utility.yul\":10404:10483   */\n      tag_337\n      tag_148\n      jump\t// in\n    tag_337:\n        /* \"#utility.yul\":10366:10485   */\n    tag_336:\n        /* \"#utility.yul\":10524:10525   */\n      0x00\n        /* \"#utility.yul\":10549:10602   */\n      tag_338\n        /* \"#utility.yul\":10594:10601   */\n      dup5\n        /* \"#utility.yul\":10585:10591   */\n      dup3\n        /* \"#utility.yul\":10574:10583   */\n      dup6\n        /* \"#utility.yul\":10570:10592   */\n      add\n        /* \"#utility.yul\":10549:10602   */\n      tag_185\n      jump\t// in\n    tag_338:\n        /* \"#utility.yul\":10539:10602   */\n      swap2\n      pop\n        /* \"#utility.yul\":10495:10612   */\n      pop\n        /* \"#utility.yul\":10290:10619   */\n      swap3\n      swap2\n      pop\n      pop\n      jump\t// out\n        /* \"#utility.yul\":10625:10743   */\n    tag_186:\n        /* \"#utility.yul\":10712:10736   */\n      tag_340\n        /* \"#utility.yul\":10730:10735   */\n      dup2\n        /* \"#utility.yul\":10712:10736   */\n      tag_168\n      jump\t// in\n    tag_340:\n        /* \"#utility.yul\":10707:10710   */\n      dup3\n        /* \"#utility.yul\":10700:10737   */\n      mstore\n        /* \"#utility.yul\":10625:10743   */\n      pop\n      pop\n      jump\t// out\n        /* \"#utility.yul\":10749:10971   */\n    tag_56:\n        /* \"#utility.yul\":10842:10846   */\n      0x00\n        /* \"#utility.yul\":10880:10882   */\n      0x20\n        /* \"#utility.yul\":10869:10878   */\n      dup3\n        /* \"#utility.yul\":10865:10883   */\n      add\n        /* \"#utility.yul\":10857:10883   */\n      swap1\n      pop\n        /* \"#utility.yul\":10893:10964   */\n      tag_342\n        /* \"#utility.yul\":10961:10962   */\n      0x00\n        /* \"#utility.yul\":10950:10959   */\n      dup4\n        /* \"#utility.yul\":10946:10963   */\n      add\n        /* \"#utility.yul\":10937:10943   */\n      dup5\n        /* \"#utility.yul\":10893:10964   */\n      tag_186\n      jump\t// in\n    tag_342:\n        /* \"#utility.yul\":10749:10971   */\n      swap3\n      swap2\n      pop\n      pop\n      jump\t// out\n        /* \"#utility.yul\":10977:11197   */\n    tag_187:\n        /* \"#utility.yul\":11117:11151   */\n      0x52656e6f756e63696e67206f776e6572736869702069732064697361626c6564\n        /* \"#utility.yul\":11113:11114   */\n      0x00\n        /* \"#utility.yul\":11105:11111   */\n      dup3\n        /* \"#utility.yul\":11101:11115   */\n      add\n        /* \"#utility.yul\":11094:11152   */\n      mstore\n        /* \"#utility.yul\":11186:11189   */\n      0x2e00000000000000000000000000000000000000000000000000000000000000\n        /* \"#utility.yul\":11181:11183   */\n      0x20\n        /* \"#utility.yul\":11173:11179   */\n      dup3\n        /* \"#utility.yul\":11169:11184   */\n      add\n        /* \"#utility.yul\":11162:11190   */\n      mstore\n        /* \"#utility.yul\":10977:11197   */\n      pop\n      jump\t// out\n        /* \"#utility.yul\":11203:11569   */\n    tag_188:\n        /* \"#utility.yul\":11345:11348   */\n      0x00\n        /* \"#utility.yul\":11366:11433   */\n      tag_345\n        /* \"#utility.yul\":11430:11432   */\n      0x21\n        /* \"#utility.yul\":11425:11428   */\n      dup4\n        /* \"#utility.yul\":11366:11433   */\n      tag_174\n      jump\t// in\n    tag_345:\n        /* \"#utility.yul\":11359:11433   */\n      swap2\n      pop\n        /* \"#utility.yul\":11442:11535   */\n      tag_346\n        /* \"#utility.yul\":11531:11534   */\n      dup3\n        /* \"#utility.yul\":11442:11535   */\n      tag_187\n      jump\t// in\n    tag_346:\n        /* \"#utility.yul\":11560:11562   */\n      0x40\n        /* \"#utility.yul\":11555:11558   */\n      dup3\n        /* \"#utility.yul\":11551:11563   */\n      add\n        /* \"#utility.yul\":11544:11563   */\n      swap1\n      pop\n        /* \"#utility.yul\":11203:11569   */\n      swap2\n      swap1\n      pop\n      jump\t// out\n        /* \"#utility.yul\":11575:11994   */\n    tag_65:\n        /* \"#utility.yul\":11741:11745   */\n      0x00\n        /* \"#utility.yul\":11779:11781   */\n      0x20\n        /* \"#utility.yul\":11768:11777   */\n      dup3\n        /* \"#utility.yul\":11764:11782   */\n      add\n        /* \"#utility.yul\":11756:11782   */\n      swap1\n      pop\n        /* \"#utility.yul\":11828:11837   */\n      dup2\n        /* \"#utility.yul\":11822:11826   */\n      dup2\n        /* \"#utility.yul\":11818:11838   */\n      sub\n        /* \"#utility.yul\":11814:11815   */\n      0x00\n        /* \"#utility.yul\":11803:11812   */\n      dup4\n        /* \"#utility.yul\":11799:11816   */\n      add\n        /* \"#utility.yul\":11792:11839   */\n      mstore\n        /* \"#utility.yul\":11856:11987   */\n      tag_348\n        /* \"#utility.yul\":11982:11986   */\n      dup2\n        /* \"#utility.yul\":11856:11987   */\n      tag_188\n      jump\t// in\n    tag_348:\n        /* \"#utility.yul\":11848:11987   */\n      swap1\n      pop\n        /* \"#utility.yul\":11575:11994   */\n      swap2\n      swap1\n      pop\n      jump\t// out\n        /* \"#utility.yul\":12000:12169   */\n    tag_189:\n        /* \"#utility.yul\":12140:12161   */\n      0x496e76616c6964206f7264657220696e64657800000000000000000000000000\n        /* \"#utility.yul\":12136:12137   */\n      0x00\n        /* \"#utility.yul\":12128:12134   */\n      dup3\n        /* \"#utility.yul\":12124:12138   */\n      add\n        /* \"#utility.yul\":12117:12162   */\n      mstore\n        /* \"#utility.yul\":12000:12169   */\n      pop\n      jump\t// out\n        /* \"#utility.yul\":12175:12541   */\n    tag_190:\n        /* \"#utility.yul\":12317:12320   */\n      0x00\n        /* \"#utility.yul\":12338:12405   */\n      tag_351\n        /* \"#utility.yul\":12402:12404   */\n      0x13\n        /* \"#utility.yul\":12397:12400   */\n      dup4\n        /* \"#utility.yul\":12338:12405   */\n      tag_174\n      jump\t// in\n    tag_351:\n        /* \"#utility.yul\":12331:12405   */\n      swap2\n      pop\n        /* \"#utility.yul\":12414:12507   */\n      tag_352\n        /* \"#utility.yul\":12503:12506   */\n      dup3\n        /* \"#utility.yul\":12414:12507   */\n      tag_189\n      jump\t// in\n    tag_352:\n        /* \"#utility.yul\":12532:12534   */\n      0x20\n        /* \"#utility.yul\":12527:12530   */\n      dup3\n        /* \"#utility.yul\":12523:12535   */\n      add\n        /* \"#utility.yul\":12516:12535   */\n      swap1\n      pop\n        /* \"#utility.yul\":12175:12541   */\n      swap2\n      swap1\n      pop\n      jump\t// out\n        /* \"#utility.yul\":12547:12966   */\n    tag_71:\n        /* \"#utility.yul\":12713:12717   */\n      0x00\n        /* \"#utility.yul\":12751:12753   */\n      0x20\n        /* \"#utility.yul\":12740:12749   */\n      dup3\n        /* \"#utility.yul\":12736:12754   */\n      add\n        /* \"#utility.yul\":12728:12754   */\n      swap1\n      pop\n        /* \"#utility.yul\":12800:12809   */\n      dup2\n        /* \"#utility.yul\":12794:12798   */\n      dup2\n        /* \"#utility.yul\":12790:12810   */\n      sub\n        /* \"#utility.yul\":12786:12787   */\n      0x00\n        /* \"#utility.yul\":12775:12784   */\n      dup4\n        /* \"#utility.yul\":12771:12788   */\n      add\n        /* \"#utility.yul\":12764:12811   */\n      mstore\n        /* \"#utility.yul\":12828:12959   */\n      tag_354\n        /* \"#utility.yul\":12954:12958   */\n      dup2\n        /* \"#utility.yul\":12828:12959   */\n      tag_190\n      jump\t// in\n    tag_354:\n        /* \"#utility.yul\":12820:12959   */\n      swap1\n      pop\n        /* \"#utility.yul\":12547:12966   */\n      swap2\n      swap1\n      pop\n      jump\t// out\n        /* \"#utility.yul\":12972:13152   */\n    tag_74:\n        /* \"#utility.yul\":13020:13097   */\n      0x4e487b7100000000000000000000000000000000000000000000000000000000\n        /* \"#utility.yul\":13017:13018   */\n      0x00\n        /* \"#utility.yul\":13010:13098   */\n      mstore\n        /* \"#utility.yul\":13117:13121   */\n      0x32\n        /* \"#utility.yul\":13114:13115   */\n      0x04\n        /* \"#utility.yul\":13107:13122   */\n      mstore\n        /* \"#utility.yul\":13141:13145   */\n      0x24\n        /* \"#utility.yul\":13138:13139   */\n      0x00\n        /* \"#utility.yul\":13131:13146   */\n      revert\n        /* \"#utility.yul\":13158:13331   */\n    tag_191:\n        /* \"#utility.yul\":13298:13323   */\n      0x4f7264657220616c72656164792066756c66696c6c6564000000000000000000\n        /* \"#utility.yul\":13294:13295   */\n      0x00\n        /* \"#utility.yul\":13286:13292   */\n      dup3\n        /* \"#utility.yul\":13282:13296   */\n      add\n        /* \"#utility.yul\":13275:13324   */\n      mstore\n        /* \"#utility.yul\":13158:13331   */\n      pop\n      jump\t// out\n        /* \"#utility.yul\":13337:13703   */\n    tag_192:\n        /* \"#utility.yul\":13479:13482   */\n      0x00\n        /* \"#utility.yul\":13500:13567   */\n      tag_358\n        /* \"#utility.yul\":13564:13566   */\n      0x17\n        /* \"#utility.yul\":13559:13562   */\n      dup4\n        /* \"#utility.yul\":13500:13567   */\n      tag_174\n      jump\t// in\n    tag_358:\n        /* \"#utility.yul\":13493:13567   */\n      swap2\n      pop\n        /* \"#utility.yul\":13576:13669   */\n      tag_359\n        /* \"#utility.yul\":13665:13668   */\n      dup3\n        /* \"#utility.yul\":13576:13669   */\n      tag_191\n      jump\t// in\n    tag_359:\n        /* \"#utility.yul\":13694:13696   */\n      0x20\n        /* \"#utility.yul\":13689:13692   */\n      dup3\n        /* \"#utility.yul\":13685:13697   */\n      add\n        /* \"#utility.yul\":13678:13697   */\n      swap1\n      pop\n        /* \"#utility.yul\":13337:13703   */\n      swap2\n      swap1\n      pop\n      jump\t// out\n        /* \"#utility.yul\":13709:14128   */\n    tag_78:\n        /* \"#utility.yul\":13875:13879   */\n      0x00\n        /* \"#utility.yul\":13913:13915   */\n      0x20\n        /* \"#utility.yul\":13902:13911   */\n      dup3\n        /* \"#utility.yul\":13898:13916   */\n      add\n        /* \"#utility.yul\":13890:13916   */\n      swap1\n      pop\n        /* \"#utility.yul\":13962:13971   */\n      dup2\n        /* \"#utility.yul\":13956:13960   */\n      dup2\n        /* \"#utility.yul\":13952:13972   */\n      sub\n        /* \"#utility.yul\":13948:13949   */\n      0x00\n        /* \"#utility.yul\":13937:13946   */\n      dup4\n        /* \"#utility.yul\":13933:13950   */\n      add\n        /* \"#utility.yul\":13926:13973   */\n      mstore\n        /* \"#utility.yul\":13990:14121   */\n      tag_361\n        /* \"#utility.yul\":14116:14120   */\n      dup2\n        /* \"#utility.yul\":13990:14121   */\n      tag_192\n      jump\t// in\n    tag_361:\n        /* \"#utility.yul\":13982:14121   */\n      swap1\n      pop\n        /* \"#utility.yul\":13709:14128   */\n      swap2\n      swap1\n      pop\n      jump\t// out\n        /* \"#utility.yul\":14134:14314   */\n    tag_193:\n        /* \"#utility.yul\":14182:14259   */\n      0x4e487b7100000000000000000000000000000000000000000000000000000000\n        /* \"#utility.yul\":14179:14180   */\n      0x00\n        /* \"#utility.yul\":14172:14260   */\n      mstore\n        /* \"#utility.yul\":14279:14283   */\n      0x22\n        /* \"#utility.yul\":14276:14277   */\n      0x04\n        /* \"#utility.yul\":14269:14284   */\n      mstore\n        /* \"#utility.yul\":14303:14307   */\n      0x24\n        /* \"#utility.yul\":14300:14301   */\n      0x00\n        /* \"#utility.yul\":14293:14308   */\n      revert\n        /* \"#utility.yul\":14320:14640   */\n    tag_86:\n        /* \"#utility.yul\":14364:14370   */\n      0x00\n        /* \"#utility.yul\":14401:14402   */\n      0x02\n        /* \"#utility.yul\":14395:14399   */\n      dup3\n        /* \"#utility.yul\":14391:14403   */\n      div\n        /* \"#utility.yul\":14381:14403   */\n      swap1\n      pop\n        /* \"#utility.yul\":14448:14449   */\n      0x01\n        /* \"#utility.yul\":14442:14446   */\n      dup3\n        /* \"#utility.yul\":14438:14450   */\n      and\n        /* \"#utility.yul\":14469:14487   */\n      dup1\n        /* \"#utility.yul\":14459:14540   */\n      tag_364\n      jumpi\n        /* \"#utility.yul\":14525:14529   */\n      0x7f\n        /* \"#utility.yul\":14517:14523   */\n      dup3\n        /* \"#utility.yul\":14513:14530   */\n      and\n        /* \"#utility.yul\":14503:14530   */\n      swap2\n      pop\n        /* \"#utility.yul\":14459:14540   */\n    tag_364:\n        /* \"#utility.yul\":14587:14589   */\n      0x20\n        /* \"#utility.yul\":14579:14585   */\n      dup3\n        /* \"#utility.yul\":14576:14590   */\n      lt\n        /* \"#utility.yul\":14556:14574   */\n      dup2\n        /* \"#utility.yul\":14553:14591   */\n      sub\n        /* \"#utility.yul\":14550:14634   */\n      tag_365\n      jumpi\n        /* \"#utility.yul\":14606:14624   */\n      tag_366\n      tag_193\n      jump\t// in\n    tag_366:\n        /* \"#utility.yul\":14550:14634   */\n    tag_365:\n        /* \"#utility.yul\":14371:14640   */\n      pop\n        /* \"#utility.yul\":14320:14640   */\n      swap2\n      swap1\n      pop\n      jump\t// out\n        /* \"#utility.yul\":14646:14794   */\n    tag_194:\n        /* \"#utility.yul\":14748:14759   */\n      0x00\n        /* \"#utility.yul\":14785:14788   */\n      dup2\n        /* \"#utility.yul\":14770:14788   */\n      swap1\n      pop\n        /* \"#utility.yul\":14646:14794   */\n      swap3\n      swap2\n      pop\n      pop\n      jump\t// out\n        /* \"#utility.yul\":14800:15190   */\n    tag_195:\n        /* \"#utility.yul\":14906:14909   */\n      0x00\n        /* \"#utility.yul\":14934:14973   */\n      tag_369\n        /* \"#utility.yul\":14967:14972   */\n      dup3\n        /* \"#utility.yul\":14934:14973   */\n      tag_173\n      jump\t// in\n    tag_369:\n        /* \"#utility.yul\":14989:15078   */\n      tag_370\n        /* \"#utility.yul\":15071:15077   */\n      dup2\n        /* \"#utility.yul\":15066:15069   */\n      dup6\n        /* \"#utility.yul\":14989:15078   */\n      tag_194\n      jump\t// in\n    tag_370:\n        /* \"#utility.yul\":14982:15078   */\n      swap4\n      pop\n        /* \"#utility.yul\":15087:15152   */\n      tag_371\n        /* \"#utility.yul\":15145:15151   */\n      dup2\n        /* \"#utility.yul\":15140:15143   */\n      dup6\n        /* \"#utility.yul\":15133:15137   */\n      0x20\n        /* \"#utility.yul\":15126:15131   */\n      dup7\n        /* \"#utility.yul\":15122:15138   */\n      add\n        /* \"#utility.yul\":15087:15152   */\n      tag_175\n      jump\t// in\n    tag_371:\n        /* \"#utility.yul\":15177:15183   */\n      dup1\n        /* \"#utility.yul\":15172:15175   */\n      dup5\n        /* \"#utility.yul\":15168:15184   */\n      add\n        /* \"#utility.yul\":15161:15184   */\n      swap2\n      pop\n        /* \"#utility.yul\":14910:15190   */\n      pop\n        /* \"#utility.yul\":14800:15190   */\n      swap3\n      swap2\n      pop\n      pop\n      jump\t// out\n        /* \"#utility.yul\":15196:15471   */\n    tag_108:\n        /* \"#utility.yul\":15328:15331   */\n      0x00\n        /* \"#utility.yul\":15350:15445   */\n      tag_373\n        /* \"#utility.yul\":15441:15444   */\n      dup3\n        /* \"#utility.yul\":15432:15438   */\n      dup5\n        /* \"#utility.yul\":15350:15445   */\n      tag_195\n      jump\t// in\n    tag_373:\n        /* \"#utility.yul\":15343:15445   */\n      swap2\n      pop\n        /* \"#utility.yul\":15462:15465   */\n      dup2\n        /* \"#utility.yul\":15455:15465   */\n      swap1\n      pop\n        /* \"#utility.yul\":15196:15471   */\n      swap3\n      swap2\n      pop\n      pop\n      jump\t// out\n        /* \"#utility.yul\":15477:15620   */\n    tag_196:\n        /* \"#utility.yul\":15534:15539   */\n      0x00\n        /* \"#utility.yul\":15565:15571   */\n      dup2\n        /* \"#utility.yul\":15559:15572   */\n      mload\n        /* \"#utility.yul\":15550:15572   */\n      swap1\n      pop\n        /* \"#utility.yul\":15581:15614   */\n      tag_375\n        /* \"#utility.yul\":15608:15613   */\n      dup2\n        /* \"#utility.yul\":15581:15614   */\n      tag_169\n      jump\t// in\n    tag_375:\n        /* \"#utility.yul\":15477:15620   */\n      swap3\n      swap2\n      pop\n      pop\n      jump\t// out\n        /* \"#utility.yul\":15626:15977   */\n    tag_121:\n        /* \"#utility.yul\":15696:15702   */\n      0x00\n        /* \"#utility.yul\":15745:15747   */\n      0x20\n        /* \"#utility.yul\":15733:15742   */\n      dup3\n        /* \"#utility.yul\":15724:15731   */\n      dup5\n        /* \"#utility.yul\":15720:15743   */\n      sub\n        /* \"#utility.yul\":15716:15748   */\n      slt\n        /* \"#utility.yul\":15713:15832   */\n      iszero\n      tag_377\n      jumpi\n        /* \"#utility.yul\":15751:15830   */\n      tag_378\n      tag_148\n      jump\t// in\n    tag_378:\n        /* \"#utility.yul\":15713:15832   */\n    tag_377:\n        /* \"#utility.yul\":15871:15872   */\n      0x00\n        /* \"#utility.yul\":15896:15960   */\n      tag_379\n        /* \"#utility.yul\":15952:15959   */\n      dup5\n        /* \"#utility.yul\":15943:15949   */\n      dup3\n        /* \"#utility.yul\":15932:15941   */\n      dup6\n        /* \"#utility.yul\":15928:15950   */\n      add\n        /* \"#utility.yul\":15896:15960   */\n      tag_196\n      jump\t// in\n    tag_379:\n        /* \"#utility.yul\":15886:15960   */\n      swap2\n      pop\n        /* \"#utility.yul\":15842:15970   */\n      pop\n        /* \"#utility.yul\":15626:15977   */\n      swap3\n      swap2\n      pop\n      pop\n      jump\t// out\n        /* \"#utility.yul\":15983:16205   */\n    tag_197:\n        /* \"#utility.yul\":16123:16157   */\n      0x496e73756666696369656e742062616c616e636520746f20706c616365206f72\n        /* \"#utility.yul\":16119:16120   */\n      0x00\n        /* \"#utility.yul\":16111:16117   */\n      dup3\n        /* \"#utility.yul\":16107:16121   */\n      add\n        /* \"#utility.yul\":16100:16158   */\n      mstore\n        /* \"#utility.yul\":16192:16197   */\n      0x6465720000000000000000000000000000000000000000000000000000000000\n        /* \"#utility.yul\":16187:16189   */\n      0x20\n        /* \"#utility.yul\":16179:16185   */\n      dup3\n        /* \"#utility.yul\":16175:16190   */\n      add\n        /* \"#utility.yul\":16168:16198   */\n      mstore\n        /* \"#utility.yul\":15983:16205   */\n      pop\n      jump\t// out\n        /* \"#utility.yul\":16211:16577   */\n    tag_198:\n        /* \"#utility.yul\":16353:16356   */\n      0x00\n        /* \"#utility.yul\":16374:16441   */\n      tag_382\n        /* \"#utility.yul\":16438:16440   */\n      0x23\n        /* \"#utility.yul\":16433:16436   */\n      dup4\n        /* \"#utility.yul\":16374:16441   */\n      tag_174\n      jump\t// in\n    tag_382:\n        /* \"#utility.yul\":16367:16441   */\n      swap2\n      pop\n        /* \"#utility.yul\":16450:16543   */\n      tag_383\n        /* \"#utility.yul\":16539:16542   */\n      dup3\n        /* \"#utility.yul\":16450:16543   */\n      tag_197\n      jump\t// in\n    tag_383:\n        /* \"#utility.yul\":16568:16570   */\n      0x40\n        /* \"#utility.yul\":16563:16566   */\n      dup3\n        /* \"#utility.yul\":16559:16571   */\n      add\n        /* \"#utility.yul\":16552:16571   */\n      swap1\n      pop\n        /* \"#utility.yul\":16211:16577   */\n      swap2\n      swap1\n      pop\n      jump\t// out\n        /* \"#utility.yul\":16583:17002   */\n    tag_124:\n        /* \"#utility.yul\":16749:16753   */\n      0x00\n        /* \"#utility.yul\":16787:16789   */\n      0x20\n        /* \"#utility.yul\":16776:16785   */\n      dup3\n        /* \"#utility.yul\":16772:16790   */\n      add\n        /* \"#utility.yul\":16764:16790   */\n      swap1\n      pop\n        /* \"#utility.yul\":16836:16845   */\n      dup2\n        /* \"#utility.yul\":16830:16834   */\n      dup2\n        /* \"#utility.yul\":16826:16846   */\n      sub\n        /* \"#utility.yul\":16822:16823   */\n      0x00\n        /* \"#utility.yul\":16811:16820   */\n      dup4\n        /* \"#utility.yul\":16807:16824   */\n      add\n        /* \"#utility.yul\":16800:16847   */\n      mstore\n        /* \"#utility.yul\":16864:16995   */\n      tag_385\n        /* \"#utility.yul\":16990:16994   */\n      dup2\n        /* \"#utility.yul\":16864:16995   */\n      tag_198\n      jump\t// in\n    tag_385:\n        /* \"#utility.yul\":16856:16995   */\n      swap1\n      pop\n        /* \"#utility.yul\":16583:17002   */\n      swap2\n      swap1\n      pop\n      jump\t// out\n        /* \"#utility.yul\":17008:17179   */\n    tag_199:\n        /* \"#utility.yul\":17148:17171   */\n      0x496e76616c696420626576657261676520747970650000000000000000000000\n        /* \"#utility.yul\":17144:17145   */\n      0x00\n        /* \"#utility.yul\":17136:17142   */\n      dup3\n        /* \"#utility.yul\":17132:17146   */\n      add\n        /* \"#utility.yul\":17125:17172   */\n      mstore\n        /* \"#utility.yul\":17008:17179   */\n      pop\n      jump\t// out\n        /* \"#utility.yul\":17185:17551   */\n    tag_200:\n        /* \"#utility.yul\":17327:17330   */\n      0x00\n        /* \"#utility.yul\":17348:17415   */\n      tag_388\n        /* \"#utility.yul\":17412:17414   */\n      0x15\n        /* \"#utility.yul\":17407:17410   */\n      dup4\n        /* \"#utility.yul\":17348:17415   */\n      tag_174\n      jump\t// in\n    tag_388:\n        /* \"#utility.yul\":17341:17415   */\n      swap2\n      pop\n        /* \"#utility.yul\":17424:17517   */\n      tag_389\n        /* \"#utility.yul\":17513:17516   */\n      dup3\n        /* \"#utility.yul\":17424:17517   */\n      tag_199\n      jump\t// in\n    tag_389:\n        /* \"#utility.yul\":17542:17544   */\n      0x20\n        /* \"#utility.yul\":17537:17540   */\n      dup3\n        /* \"#utility.yul\":17533:17545   */\n      add\n        /* \"#utility.yul\":17526:17545   */\n      swap1\n      pop\n        /* \"#utility.yul\":17185:17551   */\n      swap2\n      swap1\n      pop\n      jump\t// out\n        /* \"#utility.yul\":17557:17976   */\n    tag_128:\n        /* \"#utility.yul\":17723:17727   */\n      0x00\n        /* \"#utility.yul\":17761:17763   */\n      0x20\n        /* \"#utility.yul\":17750:17759   */\n      dup3\n        /* \"#utility.yul\":17746:17764   */\n      add\n        /* \"#utility.yul\":17738:17764   */\n      swap1\n      pop\n        /* \"#utility.yul\":17810:17819   */\n      dup2\n        /* \"#utility.yul\":17804:17808   */\n      dup2\n        /* \"#utility.yul\":17800:17820   */\n      sub\n        /* \"#utility.yul\":17796:17797   */\n      0x00\n        /* \"#utility.yul\":17785:17794   */\n      dup4\n        /* \"#utility.yul\":17781:17798   */\n      add\n        /* \"#utility.yul\":17774:17821   */\n      mstore\n        /* \"#utility.yul\":17838:17969   */\n      tag_391\n        /* \"#utility.yul\":17964:17968   */\n      dup2\n        /* \"#utility.yul\":17838:17969   */\n      tag_200\n      jump\t// in\n    tag_391:\n        /* \"#utility.yul\":17830:17969   */\n      swap1\n      pop\n        /* \"#utility.yul\":17557:17976   */\n      swap2\n      swap1\n      pop\n      jump\t// out\n        /* \"#utility.yul\":17982:18424   */\n    tag_130:\n        /* \"#utility.yul\":18131:18135   */\n      0x00\n        /* \"#utility.yul\":18169:18171   */\n      0x60\n        /* \"#utility.yul\":18158:18167   */\n      dup3\n        /* \"#utility.yul\":18154:18172   */\n      add\n        /* \"#utility.yul\":18146:18172   */\n      swap1\n      pop\n        /* \"#utility.yul\":18182:18253   */\n      tag_393\n        /* \"#utility.yul\":18250:18251   */\n      0x00\n        /* \"#utility.yul\":18239:18248   */\n      dup4\n        /* \"#utility.yul\":18235:18252   */\n      add\n        /* \"#utility.yul\":18226:18232   */\n      dup7\n        /* \"#utility.yul\":18182:18253   */\n      tag_172\n      jump\t// in\n    tag_393:\n        /* \"#utility.yul\":18263:18335   */\n      tag_394\n        /* \"#utility.yul\":18331:18333   */\n      0x20\n        /* \"#utility.yul\":18320:18329   */\n      dup4\n        /* \"#utility.yul\":18316:18334   */\n      add\n        /* \"#utility.yul\":18307:18313   */\n      dup6\n        /* \"#utility.yul\":18263:18335   */\n      tag_172\n      jump\t// in\n    tag_394:\n        /* \"#utility.yul\":18345:18417   */\n      tag_395\n        /* \"#utility.yul\":18413:18415   */\n      0x40\n        /* \"#utility.yul\":18402:18411   */\n      dup4\n        /* \"#utility.yul\":18398:18416   */\n      add\n        /* \"#utility.yul\":18389:18395   */\n      dup5\n        /* \"#utility.yul\":18345:18417   */\n      tag_186\n      jump\t// in\n    tag_395:\n        /* \"#utility.yul\":17982:18424   */\n      swap5\n      swap4\n      pop\n      pop\n      pop\n      pop\n      jump\t// out\n        /* \"#utility.yul\":18430:18567   */\n    tag_201:\n        /* \"#utility.yul\":18484:18489   */\n      0x00\n        /* \"#utility.yul\":18515:18521   */\n      dup2\n        /* \"#utility.yul\":18509:18522   */\n      mload\n        /* \"#utility.yul\":18500:18522   */\n      swap1\n      pop\n        /* \"#utility.yul\":18531:18561   */\n      tag_397\n        /* \"#utility.yul\":18555:18560   */\n      dup2\n        /* \"#utility.yul\":18531:18561   */\n      tag_182\n      jump\t// in\n    tag_397:\n        /* \"#utility.yul\":18430:18567   */\n      swap3\n      swap2\n      pop\n      pop\n      jump\t// out\n        /* \"#utility.yul\":18573:18918   */\n    tag_134:\n        /* \"#utility.yul\":18640:18646   */\n      0x00\n        /* \"#utility.yul\":18689:18691   */\n      0x20\n        /* \"#utility.yul\":18677:18686   */\n      dup3\n        /* \"#utility.yul\":18668:18675   */\n      dup5\n        /* \"#utility.yul\":18664:18687   */\n      sub\n        /* \"#utility.yul\":18660:18692   */\n      slt\n        /* \"#utility.yul\":18657:18776   */\n      iszero\n      tag_399\n      jumpi\n        /* \"#utility.yul\":18695:18774   */\n      tag_400\n      tag_148\n      jump\t// in\n    tag_400:\n        /* \"#utility.yul\":18657:18776   */\n    tag_399:\n        /* \"#utility.yul\":18815:18816   */\n      0x00\n        /* \"#utility.yul\":18840:18901   */\n      tag_401\n        /* \"#utility.yul\":18893:18900   */\n      dup5\n        /* \"#utility.yul\":18884:18890   */\n      dup3\n        /* \"#utility.yul\":18873:18882   */\n      dup6\n        /* \"#utility.yul\":18869:18891   */\n      add\n        /* \"#utility.yul\":18840:18901   */\n      tag_201\n      jump\t// in\n    tag_401:\n        /* \"#utility.yul\":18830:18901   */\n      swap2\n      pop\n        /* \"#utility.yul\":18786:18911   */\n      pop\n        /* \"#utility.yul\":18573:18918   */\n      swap3\n      swap2\n      pop\n      pop\n      jump\t// out\n        /* \"#utility.yul\":18924:19065   */\n    tag_202:\n        /* \"#utility.yul\":18973:18977   */\n      0x00\n        /* \"#utility.yul\":18996:18999   */\n      dup2\n        /* \"#utility.yul\":18988:18999   */\n      swap1\n      pop\n        /* \"#utility.yul\":19019:19022   */\n      dup2\n        /* \"#utility.yul\":19016:19017   */\n      0x00\n        /* \"#utility.yul\":19009:19023   */\n      mstore\n        /* \"#utility.yul\":19053:19057   */\n      0x20\n        /* \"#utility.yul\":19050:19051   */\n      0x00\n        /* \"#utility.yul\":19040:19058   */\n      keccak256\n        /* \"#utility.yul\":19032:19058   */\n      swap1\n      pop\n        /* \"#utility.yul\":18924:19065   */\n      swap2\n      swap1\n      pop\n      jump\t// out\n        /* \"#utility.yul\":19071:19164   */\n    tag_203:\n        /* \"#utility.yul\":19108:19114   */\n      0x00\n        /* \"#utility.yul\":19155:19157   */\n      0x20\n        /* \"#utility.yul\":19150:19152   */\n      0x1f\n        /* \"#utility.yul\":19143:19148   */\n      dup4\n        /* \"#utility.yul\":19139:19153   */\n      add\n        /* \"#utility.yul\":19135:19158   */\n      div\n        /* \"#utility.yul\":19125:19158   */\n      swap1\n      pop\n        /* \"#utility.yul\":19071:19164   */\n      swap2\n      swap1\n      pop\n      jump\t// out\n        /* \"#utility.yul\":19170:19277   */\n    tag_204:\n        /* \"#utility.yul\":19214:19222   */\n      0x00\n        /* \"#utility.yul\":19264:19269   */\n      dup3\n        /* \"#utility.yul\":19258:19262   */\n      dup3\n        /* \"#utility.yul\":19254:19270   */\n      shl\n        /* \"#utility.yul\":19233:19270   */\n      swap1\n      pop\n        /* \"#utility.yul\":19170:19277   */\n      swap3\n      swap2\n      pop\n      pop\n      jump\t// out\n        /* \"#utility.yul\":19283:19676   */\n    tag_205:\n        /* \"#utility.yul\":19352:19358   */\n      0x00\n        /* \"#utility.yul\":19402:19403   */\n      0x08\n        /* \"#utility.yul\":19390:19400   */\n      dup4\n        /* \"#utility.yul\":19386:19404   */\n      mul\n        /* \"#utility.yul\":19425:19522   */\n      tag_406\n        /* \"#utility.yul\":19455:19521   */\n      0xffffffffffffffffffffffffffffffffffffffffffffffffffffffffffffffff\n        /* \"#utility.yul\":19444:19453   */\n      dup3\n        /* \"#utility.yul\":19425:19522   */\n      tag_204\n      jump\t// in\n    tag_406:\n        /* \"#utility.yul\":19543:19582   */\n      tag_407\n        /* \"#utility.yul\":19573:19581   */\n      dup7\n        /* \"#utility.yul\":19562:19571   */\n      dup4\n        /* \"#utility.yul\":19543:19582   */\n      tag_204\n      jump\t// in\n    tag_407:\n        /* \"#utility.yul\":19531:19582   */\n      swap6\n      pop\n        /* \"#utility.yul\":19615:19619   */\n      dup1\n        /* \"#utility.yul\":19611:19620   */\n      not\n        /* \"#utility.yul\":19604:19609   */\n      dup5\n        /* \"#utility.yul\":19600:19621   */\n      and\n        /* \"#utility.yul\":19591:19621   */\n      swap4\n      pop\n        /* \"#utility.yul\":19664:19668   */\n      dup1\n        /* \"#utility.yul\":19654:19662   */\n      dup7\n        /* \"#utility.yul\":19650:19669   */\n      and\n        /* \"#utility.yul\":19643:19648   */\n      dup5\n        /* \"#utility.yul\":19640:19670   */\n      or\n        /* \"#utility.yul\":19630:19670   */\n      swap3\n      pop\n        /* \"#utility.yul\":19359:19676   */\n      pop\n      pop\n        /* \"#utility.yul\":19283:19676   */\n      swap4\n      swap3\n      pop\n      pop\n      pop\n      jump\t// out\n        /* \"#utility.yul\":19682:19824   */\n    tag_206:\n        /* \"#utility.yul\":19732:19741   */\n      0x00\n        /* \"#utility.yul\":19765:19818   */\n      tag_409\n        /* \"#utility.yul\":19783:19817   */\n      tag_410\n        /* \"#utility.yul\":19792:19816   */\n      tag_411\n        /* \"#utility.yul\":19810:19815   */\n      dup5\n        /* \"#utility.yul\":19792:19816   */\n      tag_168\n      jump\t// in\n    tag_411:\n        /* \"#utility.yul\":19783:19817   */\n      tag_163\n      jump\t// in\n    tag_410:\n        /* \"#utility.yul\":19765:19818   */\n      tag_168\n      jump\t// in\n    tag_409:\n        /* \"#utility.yul\":19752:19818   */\n      swap1\n      pop\n        /* \"#utility.yul\":19682:19824   */\n      swap2\n      swap1\n      pop\n      jump\t// out\n        /* \"#utility.yul\":19830:19905   */\n    tag_207:\n        /* \"#utility.yul\":19873:19876   */\n      0x00\n        /* \"#utility.yul\":19894:19899   */\n      dup2\n        /* \"#utility.yul\":19887:19899   */\n      swap1\n      pop\n        /* \"#utility.yul\":19830:19905   */\n      swap2\n      swap1\n      pop\n      jump\t// out\n        /* \"#utility.yul\":19911:20180   */\n    tag_208:\n        /* \"#utility.yul\":20021:20060   */\n      tag_414\n        /* \"#utility.yul\":20052:20059   */\n      dup4\n        /* \"#utility.yul\":20021:20060   */\n      tag_206\n      jump\t// in\n    tag_414:\n        /* \"#utility.yul\":20082:20173   */\n      tag_415\n        /* \"#utility.yul\":20131:20172   */\n      tag_416\n        /* \"#utility.yul\":20155:20171   */\n      dup3\n        /* \"#utility.yul\":20131:20172   */\n      tag_207\n      jump\t// in\n    tag_416:\n        /* \"#utility.yul\":20123:20129   */\n      dup5\n        /* \"#utility.yul\":20116:20120   */\n      dup5\n        /* \"#utility.yul\":20110:20121   */\n      sload\n        /* \"#utility.yul\":20082:20173   */\n      tag_205\n      jump\t// in\n    tag_415:\n        /* \"#utility.yul\":20076:20080   */\n      dup3\n        /* \"#utility.yul\":20069:20174   */\n      sstore\n        /* \"#utility.yul\":19987:20180   */\n      pop\n        /* \"#utility.yul\":19911:20180   */\n      pop\n      pop\n      pop\n      jump\t// out\n        /* \"#utility.yul\":20186:20259   */\n    tag_209:\n        /* \"#utility.yul\":20231:20234   */\n      0x00\n        /* \"#utility.yul\":20186:20259   */\n      swap1\n      jump\t// out\n        /* \"#utility.yul\":20265:20454   */\n    tag_210:\n        /* \"#utility.yul\":20342:20374   */\n      tag_419\n      tag_209\n      jump\t// in\n    tag_419:\n        /* \"#utility.yul\":20383:20448   */\n      tag_420\n        /* \"#utility.yul\":20441:20447   */\n      dup2\n        /* \"#utility.yul\":20433:20439   */\n      dup5\n        /* \"#utility.yul\":20427:20431   */\n      dup5\n        /* \"#utility.yul\":20383:20448   */\n      tag_208\n      jump\t// in\n    tag_420:\n        /* \"#utility.yul\":20318:20454   */\n      pop\n        /* \"#utility.yul\":20265:20454   */\n      pop\n      pop\n      jump\t// out\n        /* \"#utility.yul\":20460:20646   */\n    tag_211:\n        /* \"#utility.yul\":20520:20640   */\n    tag_422:\n        /* \"#utility.yul\":20537:20540   */\n      dup2\n        /* \"#utility.yul\":20530:20535   */\n      dup2\n        /* \"#utility.yul\":20527:20541   */\n      lt\n        /* \"#utility.yul\":20520:20640   */\n      iszero\n      tag_424\n      jumpi\n        /* \"#utility.yul\":20591:20630   */\n      tag_425\n        /* \"#utility.yul\":20628:20629   */\n      0x00\n        /* \"#utility.yul\":20621:20626   */\n      dup3\n        /* \"#utility.yul\":20591:20630   */\n      tag_210\n      jump\t// in\n    tag_425:\n        /* \"#utility.yul\":20564:20565   */\n      0x01\n        /* \"#utility.yul\":20557:20562   */\n      dup2\n        /* \"#utility.yul\":20553:20566   */\n      add\n        /* \"#utility.yul\":20544:20566   */\n      swap1\n      pop\n        /* \"#utility.yul\":20520:20640   */\n      jump(tag_422)\n    tag_424:\n        /* \"#utility.yul\":20460:20646   */\n      pop\n      pop\n      jump\t// out\n        /* \"#utility.yul\":20652:21195   */\n    tag_212:\n        /* \"#utility.yul\":20753:20755   */\n      0x1f\n        /* \"#utility.yul\":20748:20751   */\n      dup3\n        /* \"#utility.yul\":20745:20756   */\n      gt\n        /* \"#utility.yul\":20742:21188   */\n      iszero\n      tag_427\n      jumpi\n        /* \"#utility.yul\":20787:20825   */\n      tag_428\n        /* \"#utility.yul\":20819:20824   */\n      dup2\n        /* \"#utility.yul\":20787:20825   */\n      tag_202\n      jump\t// in\n    tag_428:\n        /* \"#utility.yul\":20871:20900   */\n      tag_429\n        /* \"#utility.yul\":20889:20899   */\n      dup5\n        /* \"#utility.yul\":20871:20900   */\n      tag_203\n      jump\t// in\n    tag_429:\n        /* \"#utility.yul\":20861:20869   */\n      dup2\n        /* \"#utility.yul\":20857:20901   */\n      add\n        /* \"#utility.yul\":21054:21056   */\n      0x20\n        /* \"#utility.yul\":21042:21052   */\n      dup6\n        /* \"#utility.yul\":21039:21057   */\n      lt\n        /* \"#utility.yul\":21036:21085   */\n      iszero\n      tag_430\n      jumpi\n        /* \"#utility.yul\":21075:21083   */\n      dup2\n        /* \"#utility.yul\":21060:21083   */\n      swap1\n      pop\n        /* \"#utility.yul\":21036:21085   */\n    tag_430:\n        /* \"#utility.yul\":21098:21178   */\n      tag_431\n        /* \"#utility.yul\":21154:21176   */\n      tag_432\n        /* \"#utility.yul\":21172:21175   */\n      dup6\n        /* \"#utility.yul\":21154:21176   */\n      tag_203\n      jump\t// in\n    tag_432:\n        /* \"#utility.yul\":21144:21152   */\n      dup4\n        /* \"#utility.yul\":21140:21177   */\n      add\n        /* \"#utility.yul\":21127:21138   */\n      dup3\n        /* \"#utility.yul\":21098:21178   */\n      tag_211\n      jump\t// in\n    tag_431:\n        /* \"#utility.yul\":20757:21188   */\n      pop\n      pop\n        /* \"#utility.yul\":20742:21188   */\n    tag_427:\n        /* \"#utility.yul\":20652:21195   */\n      pop\n      pop\n      pop\n      jump\t// out\n        /* \"#utility.yul\":21201:21318   */\n    tag_213:\n        /* \"#utility.yul\":21255:21263   */\n      0x00\n        /* \"#utility.yul\":21305:21310   */\n      dup3\n        /* \"#utility.yul\":21299:21303   */\n      dup3\n        /* \"#utility.yul\":21295:21311   */\n      shr\n        /* \"#utility.yul\":21274:21311   */\n      swap1\n      pop\n        /* \"#utility.yul\":21201:21318   */\n      swap3\n      swap2\n      pop\n      pop\n      jump\t// out\n        /* \"#utility.yul\":21324:21493   */\n    tag_214:\n        /* \"#utility.yul\":21368:21374   */\n      0x00\n        /* \"#utility.yul\":21401:21452   */\n      tag_435\n        /* \"#utility.yul\":21449:21450   */\n      0x00\n        /* \"#utility.yul\":21445:21451   */\n      not\n        /* \"#utility.yul\":21437:21442   */\n      dup5\n        /* \"#utility.yul\":21434:21435   */\n      0x08\n        /* \"#utility.yul\":21430:21443   */\n      mul\n        /* \"#utility.yul\":21401:21452   */\n      tag_213\n      jump\t// in\n    tag_435:\n        /* \"#utility.yul\":21397:21453   */\n      not\n        /* \"#utility.yul\":21482:21486   */\n      dup1\n        /* \"#utility.yul\":21476:21480   */\n      dup4\n        /* \"#utility.yul\":21472:21487   */\n      and\n        /* \"#utility.yul\":21462:21487   */\n      swap2\n      pop\n        /* \"#utility.yul\":21375:21493   */\n      pop\n        /* \"#utility.yul\":21324:21493   */\n      swap3\n      swap2\n      pop\n      pop\n      jump\t// out\n        /* \"#utility.yul\":21498:21793   */\n    tag_215:\n        /* \"#utility.yul\":21574:21578   */\n      0x00\n        /* \"#utility.yul\":21720:21749   */\n      tag_437\n        /* \"#utility.yul\":21745:21748   */\n      dup4\n        /* \"#utility.yul\":21739:21743   */\n      dup4\n        /* \"#utility.yul\":21720:21749   */\n      tag_214\n      jump\t// in\n    tag_437:\n        /* \"#utility.yul\":21712:21749   */\n      swap2\n      pop\n        /* \"#utility.yul\":21782:21785   */\n      dup3\n        /* \"#utility.yul\":21779:21780   */\n      0x02\n        /* \"#utility.yul\":21775:21786   */\n      mul\n        /* \"#utility.yul\":21769:21773   */\n      dup3\n        /* \"#utility.yul\":21766:21787   */\n      or\n        /* \"#utility.yul\":21758:21787   */\n      swap1\n      pop\n        /* \"#utility.yul\":21498:21793   */\n      swap3\n      swap2\n      pop\n      pop\n      jump\t// out\n        /* \"#utility.yul\":21798:23193   */\n    tag_137:\n        /* \"#utility.yul\":21915:21952   */\n      tag_439\n        /* \"#utility.yul\":21948:21951   */\n      dup3\n        /* \"#utility.yul\":21915:21952   */\n      tag_173\n      jump\t// in\n    tag_439:\n        /* \"#utility.yul\":22017:22035   */\n      0xffffffffffffffff\n        /* \"#utility.yul\":22009:22015   */\n      dup2\n        /* \"#utility.yul\":22006:22036   */\n      gt\n        /* \"#utility.yul\":22003:22059   */\n      iszero\n      tag_440\n      jumpi\n        /* \"#utility.yul\":22039:22057   */\n      tag_441\n      tag_153\n      jump\t// in\n    tag_441:\n        /* \"#utility.yul\":22003:22059   */\n    tag_440:\n        /* \"#utility.yul\":22083:22121   */\n      tag_442\n        /* \"#utility.yul\":22115:22119   */\n      dup3\n        /* \"#utility.yul\":22109:22120   */\n      sload\n        /* \"#utility.yul\":22083:22121   */\n      tag_86\n      jump\t// in\n    tag_442:\n        /* \"#utility.yul\":22168:22235   */\n      tag_443\n        /* \"#utility.yul\":22228:22234   */\n      dup3\n        /* \"#utility.yul\":22220:22226   */\n      dup3\n        /* \"#utility.yul\":22214:22218   */\n      dup6\n        /* \"#utility.yul\":22168:22235   */\n      tag_212\n      jump\t// in\n    tag_443:\n        /* \"#utility.yul\":22262:22263   */\n      0x00\n        /* \"#utility.yul\":22286:22290   */\n      0x20\n        /* \"#utility.yul\":22273:22290   */\n      swap1\n      pop\n        /* \"#utility.yul\":22318:22320   */\n      0x1f\n        /* \"#utility.yul\":22310:22316   */\n      dup4\n        /* \"#utility.yul\":22307:22321   */\n      gt\n        /* \"#utility.yul\":22335:22336   */\n      0x01\n        /* \"#utility.yul\":22330:22948   */\n      dup2\n      eq\n      tag_445\n      jumpi\n        /* \"#utility.yul\":22992:22993   */\n      0x00\n        /* \"#utility.yul\":23009:23015   */\n      dup5\n        /* \"#utility.yul\":23006:23083   */\n      iszero\n      tag_446\n      jumpi\n        /* \"#utility.yul\":23058:23067   */\n      dup3\n        /* \"#utility.yul\":23053:23056   */\n      dup8\n        /* \"#utility.yul\":23049:23068   */\n      add\n        /* \"#utility.yul\":23043:23069   */\n      mload\n        /* \"#utility.yul\":23034:23069   */\n      swap1\n      pop\n        /* \"#utility.yul\":23006:23083   */\n    tag_446:\n        /* \"#utility.yul\":23109:23176   */\n      tag_447\n        /* \"#utility.yul\":23169:23175   */\n      dup6\n        /* \"#utility.yul\":23162:23167   */\n      dup3\n        /* \"#utility.yul\":23109:23176   */\n      tag_215\n      jump\t// in\n    tag_447:\n        /* \"#utility.yul\":23103:23107   */\n      dup7\n        /* \"#utility.yul\":23096:23177   */\n      sstore\n        /* \"#utility.yul\":22965:23187   */\n      pop\n        /* \"#utility.yul\":22300:23187   */\n      jump(tag_444)\n        /* \"#utility.yul\":22330:22948   */\n    tag_445:\n        /* \"#utility.yul\":22382:22386   */\n      0x1f\n        /* \"#utility.yul\":22378:22387   */\n      not\n        /* \"#utility.yul\":22370:22376   */\n      dup5\n        /* \"#utility.yul\":22366:22388   */\n      and\n        /* \"#utility.yul\":22416:22453   */\n      tag_448\n        /* \"#utility.yul\":22448:22452   */\n      dup7\n        /* \"#utility.yul\":22416:22453   */\n      tag_202\n      jump\t// in\n    tag_448:\n        /* \"#utility.yul\":22475:22476   */\n      0x00\n        /* \"#utility.yul\":22489:22697   */\n    tag_449:\n        /* \"#utility.yul\":22503:22510   */\n      dup3\n        /* \"#utility.yul\":22500:22501   */\n      dup2\n        /* \"#utility.yul\":22497:22511   */\n      lt\n        /* \"#utility.yul\":22489:22697   */\n      iszero\n      tag_451\n      jumpi\n        /* \"#utility.yul\":22582:22591   */\n      dup5\n        /* \"#utility.yul\":22577:22580   */\n      dup10\n        /* \"#utility.yul\":22573:22592   */\n      add\n        /* \"#utility.yul\":22567:22593   */\n      mload\n        /* \"#utility.yul\":22559:22565   */\n      dup3\n        /* \"#utility.yul\":22552:22594   */\n      sstore\n        /* \"#utility.yul\":22633:22634   */\n      0x01\n        /* \"#utility.yul\":22625:22631   */\n      dup3\n        /* \"#utility.yul\":22621:22635   */\n      add\n        /* \"#utility.yul\":22611:22635   */\n      swap2\n      pop\n        /* \"#utility.yul\":22680:22682   */\n      0x20\n        /* \"#utility.yul\":22669:22678   */\n      dup6\n        /* \"#utility.yul\":22665:22683   */\n      add\n        /* \"#utility.yul\":22652:22683   */\n      swap5\n      pop\n        /* \"#utility.yul\":22526:22530   */\n      0x20\n        /* \"#utility.yul\":22523:22524   */\n      dup2\n        /* \"#utility.yul\":22519:22531   */\n      add\n        /* \"#utility.yul\":22514:22531   */\n      swap1\n      pop\n        /* \"#utility.yul\":22489:22697   */\n      jump(tag_449)\n    tag_451:\n        /* \"#utility.yul\":22725:22731   */\n      dup7\n        /* \"#utility.yul\":22716:22723   */\n      dup4\n        /* \"#utility.yul\":22713:22732   */\n      lt\n        /* \"#utility.yul\":22710:22889   */\n      iszero\n      tag_452\n      jumpi\n        /* \"#utility.yul\":22783:22792   */\n      dup5\n        /* \"#utility.yul\":22778:22781   */\n      dup10\n        /* \"#utility.yul\":22774:22793   */\n      add\n        /* \"#utility.yul\":22768:22794   */\n      mload\n        /* \"#utility.yul\":22826:22874   */\n      tag_453\n        /* \"#utility.yul\":22868:22872   */\n      0x1f\n        /* \"#utility.yul\":22860:22866   */\n      dup10\n        /* \"#utility.yul\":22856:22873   */\n      and\n        /* \"#utility.yul\":22845:22854   */\n      dup3\n        /* \"#utility.yul\":22826:22874   */\n      tag_214\n      jump\t// in\n    tag_453:\n        /* \"#utility.yul\":22818:22824   */\n      dup4\n        /* \"#utility.yul\":22811:22875   */\n      sstore\n        /* \"#utility.yul\":22733:22889   */\n      pop\n        /* \"#utility.yul\":22710:22889   */\n    tag_452:\n        /* \"#utility.yul\":22935:22936   */\n      0x01\n        /* \"#utility.yul\":22931:22932   */\n      0x02\n        /* \"#utility.yul\":22923:22929   */\n      dup9\n        /* \"#utility.yul\":22919:22933   */\n      mul\n        /* \"#utility.yul\":22915:22937   */\n      add\n        /* \"#utility.yul\":22909:22913   */\n      dup9\n        /* \"#utility.yul\":22902:22938   */\n      sstore\n        /* \"#utility.yul\":22337:22948   */\n      pop\n      pop\n      pop\n        /* \"#utility.yul\":22300:23187   */\n    tag_444:\n      pop\n        /* \"#utility.yul\":21890:23193   */\n      pop\n      pop\n      pop\n        /* \"#utility.yul\":21798:23193   */\n      pop\n      pop\n      jump\t// out\n\n    auxdata: 0xa264697066735822122018f9f62f48effd6644060ef6ebacc36ce5ae10e3606aa50f8c270063b3c4552564736f6c63430008190033\n}\n",
				"bytecode": {
					"linkReferences": {},
					"object": "6080604052670de0b6b3a764000060025534801561001c57600080fd5b50604051611bae380380611bae833981810160405281019061003e9190610299565b33600073ffffffffffffffffffffffffffffffffffffffff168173ffffffffffffffffffffffffffffffffffffffff16036100b15760006040517f1e4fbdf70000000000000000000000000000000000000000000000000000000081526004016100a891906102d5565b60405180910390fd5b6100c08161017260201b60201c565b5080600160006101000a81548173ffffffffffffffffffffffffffffffffffffffff021916908373ffffffffffffffffffffffffffffffffffffffff1602179055506001600460405161011290610347565b908152602001604051809103902060006101000a81548160ff02191690831515021790555060016004604051610147906103a8565b908152602001604051809103902060006101000a81548160ff021916908315150217905550506103bd565b60008060009054906101000a900473ffffffffffffffffffffffffffffffffffffffff169050816000806101000a81548173ffffffffffffffffffffffffffffffffffffffff021916908373ffffffffffffffffffffffffffffffffffffffff1602179055508173ffffffffffffffffffffffffffffffffffffffff168173ffffffffffffffffffffffffffffffffffffffff167f8be0079c531659141344cd1fd0a4f28419497f9722a3daafe3b4186f6b6457e060405160405180910390a35050565b600080fd5b600073ffffffffffffffffffffffffffffffffffffffff82169050919050565b60006102668261023b565b9050919050565b6102768161025b565b811461028157600080fd5b50565b6000815190506102938161026d565b92915050565b6000602082840312156102af576102ae610236565b5b60006102bd84828501610284565b91505092915050565b6102cf8161025b565b82525050565b60006020820190506102ea60008301846102c6565b92915050565b600081905092915050565b7f616d65726963616e6f0000000000000000000000000000000000000000000000600082015250565b60006103316009836102f0565b915061033c826102fb565b600982019050919050565b600061035282610324565b9150819050919050565b7f63616666656c6174746500000000000000000000000000000000000000000000600082015250565b6000610392600a836102f0565b915061039d8261035c565b600a82019050919050565b60006103b382610385565b9150819050919050565b6117e2806103cc6000396000f3fe608060405234801561001057600080fd5b50600436106100a95760003560e01c8063a85c38ef11610071578063a85c38ef14610140578063d09ef24114610172578063d3fa59cf146101a2578063f2fde38b146101be578063f9f847dd146101da578063fa47fd60146101f8576100a9565b80632ff71f3a146100ae57806355a373d6146100de578063715018a6146100fc5780638ac7d79c146101065780638da5cb5b14610122575b600080fd5b6100c860048036038101906100c39190610cd9565b610214565b6040516100d59190610d3d565b60405180910390f35b6100e661024a565b6040516100f39190610dd7565b60405180910390f35b610104610270565b005b610120600480360381019061011b9190610e28565b6102b3565b005b61012a6103b6565b6040516101379190610e76565b60405180910390f35b61015a60048036038101906101559190610e28565b6103df565b60405161016993929190610f10565b60405180910390f35b61018c60048036038101906101879190610e28565b6104ce565b6040516101999190611006565b60405180910390f35b6101bc60048036038101906101b79190611054565b610654565b005b6101d860048036038101906101d391906110dc565b610696565b005b6101e261071c565b6040516101ef9190611118565b60405180910390f35b610212600480360381019061020d9190610cd9565b610722565b005b6004818051602081018201805184825260208301602085012081835280955050505050506000915054906101000a900460ff1681565b600160009054906101000a900473ffffffffffffffffffffffffffffffffffffffff1681565b6102786109f3565b6040517f08c379a00000000000000000000000000000000000000000000000000000000081526004016102aa906111a5565b60405180910390fd5b6102bb6109f3565b6003805490508110610302576040517f08c379a00000000000000000000000000000000000000000000000000000000081526004016102f990611211565b60405180910390fd5b6003818154811061031657610315611231565b5b906000526020600020906003020160020160009054906101000a900460ff1615610375576040517f08c379a000000000000000000000000000000000000000000000000000000000815260040161036c906112ac565b60405180910390fd5b60016003828154811061038b5761038a611231565b5b906000526020600020906003020160020160006101000a81548160ff02191690831515021790555050565b60008060009054906101000a900473ffffffffffffffffffffffffffffffffffffffff16905090565b600381815481106103ef57600080fd5b90600052602060002090600302016000915090508060000160009054906101000a900473ffffffffffffffffffffffffffffffffffffffff1690806001018054610438906112fb565b80601f0160208091040260200160405190810160405280929190818152602001828054610464906112fb565b80156104b15780601f10610486576101008083540402835291602001916104b1565b820191906000526020600020905b81548152906001019060200180831161049457829003601f168201915b5050505050908060020160009054906101000a900460ff16905083565b6104d6610b46565b600380549050821061051d576040517f08c379a000000000000000000000000000000000000000000000000000000000815260040161051490611211565b60405180910390fd5b6003828154811061053157610530611231565b5b90600052602060002090600302016040518060600160405290816000820160009054906101000a900473ffffffffffffffffffffffffffffffffffffffff1673ffffffffffffffffffffffffffffffffffffffff1673ffffffffffffffffffffffffffffffffffffffff1681526020016001820180546105b0906112fb565b80601f01602080910402602001604051908101604052809291908181526020018280546105dc906112fb565b80156106295780601f106105fe57610100808354040283529160200191610629565b820191906000526020600020905b81548152906001019060200180831161060c57829003601f168201915b505050505081526020016002820160009054906101000a900460ff1615151515815250509050919050565b61065c6109f3565b8060048360405161066d9190611368565b908152602001604051809103902060006101000a81548160ff0219169083151502179055505050565b61069e6109f3565b600073ffffffffffffffffffffffffffffffffffffffff168173ffffffffffffffffffffffffffffffffffffffff16036107105760006040517f1e4fbdf70000000000000000000000000000000000000000000000000000000081526004016107079190610e76565b60405180910390fd5b61071981610a7a565b50565b60025481565b600254600160009054906101000a900473ffffffffffffffffffffffffffffffffffffffff1673ffffffffffffffffffffffffffffffffffffffff166370a08231336040518263ffffffff1660e01b81526004016107809190610e76565b602060405180830381865afa15801561079d573d6000803e3d6000fd5b505050506040513d601f19601f820116820180604052508101906107c19190611394565b1015610802576040517f08c379a00000000000000000000000000000000000000000000000000000000081526004016107f990611433565b60405180910390fd5b6004816040516108129190611368565b908152602001604051809103902060009054906101000a900460ff1661086d576040517f08c379a00000000000000000000000000000000000000000000000000000000081526004016108649061149f565b60405180910390fd5b600160009054906101000a900473ffffffffffffffffffffffffffffffffffffffff1673ffffffffffffffffffffffffffffffffffffffff166323b872dd33306002546040518463ffffffff1660e01b81526004016108ce939291906114bf565b6020604051808303816000875af11580156108ed573d6000803e3d6000fd5b505050506040513d601f19601f82011682018060405250810190610911919061150b565b50600360405180606001604052803373ffffffffffffffffffffffffffffffffffffffff16815260200183815260200160001515815250908060018154018082558091505060019003906000526020600020906003020160009091909190915060008201518160000160006101000a81548173ffffffffffffffffffffffffffffffffffffffff021916908373ffffffffffffffffffffffffffffffffffffffff16021790555060208201518160010190816109cd91906116da565b5060408201518160020160006101000a81548160ff021916908315150217905550505050565b6109fb610b3e565b73ffffffffffffffffffffffffffffffffffffffff16610a196103b6565b73ffffffffffffffffffffffffffffffffffffffff1614610a7857610a3c610b3e565b6040517f118cdaa7000000000000000000000000000000000000000000000000000000008152600401610a6f9190610e76565b60405180910390fd5b565b60008060009054906101000a900473ffffffffffffffffffffffffffffffffffffffff169050816000806101000a81548173ffffffffffffffffffffffffffffffffffffffff021916908373ffffffffffffffffffffffffffffffffffffffff1602179055508173ffffffffffffffffffffffffffffffffffffffff168173ffffffffffffffffffffffffffffffffffffffff167f8be0079c531659141344cd1fd0a4f28419497f9722a3daafe3b4186f6b6457e060405160405180910390a35050565b600033905090565b6040518060600160405280600073ffffffffffffffffffffffffffffffffffffffff168152602001606081526020016000151581525090565b6000604051905090565b600080fd5b600080fd5b600080fd5b600080fd5b6000601f19601f8301169050919050565b7f4e487b7100000000000000000000000000000000000000000000000000000000600052604160045260246000fd5b610be682610b9d565b810181811067ffffffffffffffff82111715610c0557610c04610bae565b5b80604052505050565b6000610c18610b7f565b9050610c248282610bdd565b919050565b600067ffffffffffffffff821115610c4457610c43610bae565b5b610c4d82610b9d565b9050602081019050919050565b82818337600083830152505050565b6000610c7c610c7784610c29565b610c0e565b905082815260208101848484011115610c9857610c97610b98565b5b610ca3848285610c5a565b509392505050565b600082601f830112610cc057610cbf610b93565b5b8135610cd0848260208601610c69565b91505092915050565b600060208284031215610cef57610cee610b89565b5b600082013567ffffffffffffffff811115610d0d57610d0c610b8e565b5b610d1984828501610cab565b91505092915050565b60008115159050919050565b610d3781610d22565b82525050565b6000602082019050610d526000830184610d2e565b92915050565b600073ffffffffffffffffffffffffffffffffffffffff82169050919050565b6000819050919050565b6000610d9d610d98610d9384610d58565b610d78565b610d58565b9050919050565b6000610daf82610d82565b9050919050565b6000610dc182610da4565b9050919050565b610dd181610db6565b82525050565b6000602082019050610dec6000830184610dc8565b92915050565b6000819050919050565b610e0581610df2565b8114610e1057600080fd5b50565b600081359050610e2281610dfc565b92915050565b600060208284031215610e3e57610e3d610b89565b5b6000610e4c84828501610e13565b91505092915050565b6000610e6082610d58565b9050919050565b610e7081610e55565b82525050565b6000602082019050610e8b6000830184610e67565b92915050565b600081519050919050565b600082825260208201905092915050565b60005b83811015610ecb578082015181840152602081019050610eb0565b60008484015250505050565b6000610ee282610e91565b610eec8185610e9c565b9350610efc818560208601610ead565b610f0581610b9d565b840191505092915050565b6000606082019050610f256000830186610e67565b8181036020830152610f378185610ed7565b9050610f466040830184610d2e565b949350505050565b610f5781610e55565b82525050565b600082825260208201905092915050565b6000610f7982610e91565b610f838185610f5d565b9350610f93818560208601610ead565b610f9c81610b9d565b840191505092915050565b610fb081610d22565b82525050565b6000606083016000830151610fce6000860182610f4e565b5060208301518482036020860152610fe68282610f6e565b9150506040830151610ffb6040860182610fa7565b508091505092915050565b600060208201905081810360008301526110208184610fb6565b905092915050565b61103181610d22565b811461103c57600080fd5b50565b60008135905061104e81611028565b92915050565b6000806040838503121561106b5761106a610b89565b5b600083013567ffffffffffffffff81111561108957611088610b8e565b5b61109585828601610cab565b92505060206110a68582860161103f565b9150509250929050565b6110b981610e55565b81146110c457600080fd5b50565b6000813590506110d6816110b0565b92915050565b6000602082840312156110f2576110f1610b89565b5b6000611100848285016110c7565b91505092915050565b61111281610df2565b82525050565b600060208201905061112d6000830184611109565b92915050565b7f52656e6f756e63696e67206f776e6572736869702069732064697361626c656460008201527f2e00000000000000000000000000000000000000000000000000000000000000602082015250565b600061118f602183610e9c565b915061119a82611133565b604082019050919050565b600060208201905081810360008301526111be81611182565b9050919050565b7f496e76616c6964206f7264657220696e64657800000000000000000000000000600082015250565b60006111fb601383610e9c565b9150611206826111c5565b602082019050919050565b6000602082019050818103600083015261122a816111ee565b9050919050565b7f4e487b7100000000000000000000000000000000000000000000000000000000600052603260045260246000fd5b7f4f7264657220616c72656164792066756c66696c6c6564000000000000000000600082015250565b6000611296601783610e9c565b91506112a182611260565b602082019050919050565b600060208201905081810360008301526112c581611289565b9050919050565b7f4e487b7100000000000000000000000000000000000000000000000000000000600052602260045260246000fd5b6000600282049050600182168061131357607f821691505b602082108103611326576113256112cc565b5b50919050565b600081905092915050565b600061134282610e91565b61134c818561132c565b935061135c818560208601610ead565b80840191505092915050565b60006113748284611337565b915081905092915050565b60008151905061138e81610dfc565b92915050565b6000602082840312156113aa576113a9610b89565b5b60006113b88482850161137f565b91505092915050565b7f496e73756666696369656e742062616c616e636520746f20706c616365206f7260008201527f6465720000000000000000000000000000000000000000000000000000000000602082015250565b600061141d602383610e9c565b9150611428826113c1565b604082019050919050565b6000602082019050818103600083015261144c81611410565b9050919050565b7f496e76616c696420626576657261676520747970650000000000000000000000600082015250565b6000611489601583610e9c565b915061149482611453565b602082019050919050565b600060208201905081810360008301526114b88161147c565b9050919050565b60006060820190506114d46000830186610e67565b6114e16020830185610e67565b6114ee6040830184611109565b949350505050565b60008151905061150581611028565b92915050565b60006020828403121561152157611520610b89565b5b600061152f848285016114f6565b91505092915050565b60008190508160005260206000209050919050565b60006020601f8301049050919050565b600082821b905092915050565b60006008830261159a7fffffffffffffffffffffffffffffffffffffffffffffffffffffffffffffffff8261155d565b6115a4868361155d565b95508019841693508086168417925050509392505050565b60006115d76115d26115cd84610df2565b610d78565b610df2565b9050919050565b6000819050919050565b6115f1836115bc565b6116056115fd826115de565b84845461156a565b825550505050565b600090565b61161a61160d565b6116258184846115e8565b505050565b5b818110156116495761163e600082611612565b60018101905061162b565b5050565b601f82111561168e5761165f81611538565b6116688461154d565b81016020851015611677578190505b61168b6116838561154d565b83018261162a565b50505b505050565b600082821c905092915050565b60006116b160001984600802611693565b1980831691505092915050565b60006116ca83836116a0565b9150826002028217905092915050565b6116e382610e91565b67ffffffffffffffff8111156116fc576116fb610bae565b5b61170682546112fb565b61171182828561164d565b600060209050601f8311600181146117445760008415611732578287015190505b61173c85826116be565b8655506117a4565b601f19841661175286611538565b60005b8281101561177a57848901518255600182019150602085019450602081019050611755565b868310156117975784890151611793601f8916826116a0565b8355505b6001600288020188555050505b50505050505056fea264697066735822122018f9f62f48effd6644060ef6ebacc36ce5ae10e3606aa50f8c270063b3c4552564736f6c63430008190033",
					"opcodes": "PUSH1 0x80 PUSH1 0x40 MSTORE PUSH8 0xDE0B6B3A7640000 PUSH1 0x2 SSTORE CALLVALUE DUP1 ISZERO PUSH2 0x1C JUMPI PUSH1 0x0 DUP1 REVERT JUMPDEST POP PUSH1 0x40 MLOAD PUSH2 0x1BAE CODESIZE SUB DUP1 PUSH2 0x1BAE DUP4 CODECOPY DUP2 DUP2 ADD PUSH1 0x40 MSTORE DUP2 ADD SWAP1 PUSH2 0x3E SWAP2 SWAP1 PUSH2 0x299 JUMP JUMPDEST CALLER PUSH1 0x0 PUSH20 0xFFFFFFFFFFFFFFFFFFFFFFFFFFFFFFFFFFFFFFFF AND DUP2 PUSH20 0xFFFFFFFFFFFFFFFFFFFFFFFFFFFFFFFFFFFFFFFF AND SUB PUSH2 0xB1 JUMPI PUSH1 0x0 PUSH1 0x40 MLOAD PUSH32 0x1E4FBDF700000000000000000000000000000000000000000000000000000000 DUP2 MSTORE PUSH1 0x4 ADD PUSH2 0xA8 SWAP2 SWAP1 PUSH2 0x2D5 JUMP JUMPDEST PUSH1 0x40 MLOAD DUP1 SWAP2 SUB SWAP1 REVERT JUMPDEST PUSH2 0xC0 DUP2 PUSH2 0x172 PUSH1 0x20 SHL PUSH1 0x20 SHR JUMP JUMPDEST POP DUP1 PUSH1 0x1 PUSH1 0x0 PUSH2 0x100 EXP DUP2 SLOAD DUP2 PUSH20 0xFFFFFFFFFFFFFFFFFFFFFFFFFFFFFFFFFFFFFFFF MUL NOT AND SWAP1 DUP4 PUSH20 0xFFFFFFFFFFFFFFFFFFFFFFFFFFFFFFFFFFFFFFFF AND MUL OR SWAP1 SSTORE POP PUSH1 0x1 PUSH1 0x4 PUSH1 0x40 MLOAD PUSH2 0x112 SWAP1 PUSH2 0x347 JUMP JUMPDEST SWAP1 DUP2 MSTORE PUSH1 0x20 ADD PUSH1 0x40 MLOAD DUP1 SWAP2 SUB SWAP1 KECCAK256 PUSH1 0x0 PUSH2 0x100 EXP DUP2 SLOAD DUP2 PUSH1 0xFF MUL NOT AND SWAP1 DUP4 ISZERO ISZERO MUL OR SWAP1 SSTORE POP PUSH1 0x1 PUSH1 0x4 PUSH1 0x40 MLOAD PUSH2 0x147 SWAP1 PUSH2 0x3A8 JUMP JUMPDEST SWAP1 DUP2 MSTORE PUSH1 0x20 ADD PUSH1 0x40 MLOAD DUP1 SWAP2 SUB SWAP1 KECCAK256 PUSH1 0x0 PUSH2 0x100 EXP DUP2 SLOAD DUP2 PUSH1 0xFF MUL NOT AND SWAP1 DUP4 ISZERO ISZERO MUL OR SWAP1 SSTORE POP POP PUSH2 0x3BD JUMP JUMPDEST PUSH1 0x0 DUP1 PUSH1 0x0 SWAP1 SLOAD SWAP1 PUSH2 0x100 EXP SWAP1 DIV PUSH20 0xFFFFFFFFFFFFFFFFFFFFFFFFFFFFFFFFFFFFFFFF AND SWAP1 POP DUP2 PUSH1 0x0 DUP1 PUSH2 0x100 EXP DUP2 SLOAD DUP2 PUSH20 0xFFFFFFFFFFFFFFFFFFFFFFFFFFFFFFFFFFFFFFFF MUL NOT AND SWAP1 DUP4 PUSH20 0xFFFFFFFFFFFFFFFFFFFFFFFFFFFFFFFFFFFFFFFF AND MUL OR SWAP1 SSTORE POP DUP2 PUSH20 0xFFFFFFFFFFFFFFFFFFFFFFFFFFFFFFFFFFFFFFFF AND DUP2 PUSH20 0xFFFFFFFFFFFFFFFFFFFFFFFFFFFFFFFFFFFFFFFF AND PUSH32 0x8BE0079C531659141344CD1FD0A4F28419497F9722A3DAAFE3B4186F6B6457E0 PUSH1 0x40 MLOAD PUSH1 0x40 MLOAD DUP1 SWAP2 SUB SWAP1 LOG3 POP POP JUMP JUMPDEST PUSH1 0x0 DUP1 REVERT JUMPDEST PUSH1 0x0 PUSH20 0xFFFFFFFFFFFFFFFFFFFFFFFFFFFFFFFFFFFFFFFF DUP3 AND SWAP1 POP SWAP2 SWAP1 POP JUMP JUMPDEST PUSH1 0x0 PUSH2 0x266 DUP3 PUSH2 0x23B JUMP JUMPDEST SWAP1 POP SWAP2 SWAP1 POP JUMP JUMPDEST PUSH2 0x276 DUP2 PUSH2 0x25B JUMP JUMPDEST DUP2 EQ PUSH2 0x281 JUMPI PUSH1 0x0 DUP1 REVERT JUMPDEST POP JUMP JUMPDEST PUSH1 0x0 DUP2 MLOAD SWAP1 POP PUSH2 0x293 DUP2 PUSH2 0x26D JUMP JUMPDEST SWAP3 SWAP2 POP POP JUMP JUMPDEST PUSH1 0x0 PUSH1 0x20 DUP3 DUP5 SUB SLT ISZERO PUSH2 0x2AF JUMPI PUSH2 0x2AE PUSH2 0x236 JUMP JUMPDEST JUMPDEST PUSH1 0x0 PUSH2 0x2BD DUP5 DUP3 DUP6 ADD PUSH2 0x284 JUMP JUMPDEST SWAP2 POP POP SWAP3 SWAP2 POP POP JUMP JUMPDEST PUSH2 0x2CF DUP2 PUSH2 0x25B JUMP JUMPDEST DUP3 MSTORE POP POP JUMP JUMPDEST PUSH1 0x0 PUSH1 0x20 DUP3 ADD SWAP1 POP PUSH2 0x2EA PUSH1 0x0 DUP4 ADD DUP5 PUSH2 0x2C6 JUMP JUMPDEST SWAP3 SWAP2 POP POP JUMP JUMPDEST PUSH1 0x0 DUP2 SWAP1 POP SWAP3 SWAP2 POP POP JUMP JUMPDEST PUSH32 0x616D65726963616E6F0000000000000000000000000000000000000000000000 PUSH1 0x0 DUP3 ADD MSTORE POP JUMP JUMPDEST PUSH1 0x0 PUSH2 0x331 PUSH1 0x9 DUP4 PUSH2 0x2F0 JUMP JUMPDEST SWAP2 POP PUSH2 0x33C DUP3 PUSH2 0x2FB JUMP JUMPDEST PUSH1 0x9 DUP3 ADD SWAP1 POP SWAP2 SWAP1 POP JUMP JUMPDEST PUSH1 0x0 PUSH2 0x352 DUP3 PUSH2 0x324 JUMP JUMPDEST SWAP2 POP DUP2 SWAP1 POP SWAP2 SWAP1 POP JUMP JUMPDEST PUSH32 0x63616666656C6174746500000000000000000000000000000000000000000000 PUSH1 0x0 DUP3 ADD MSTORE POP JUMP JUMPDEST PUSH1 0x0 PUSH2 0x392 PUSH1 0xA DUP4 PUSH2 0x2F0 JUMP JUMPDEST SWAP2 POP PUSH2 0x39D DUP3 PUSH2 0x35C JUMP JUMPDEST PUSH1 0xA DUP3 ADD SWAP1 POP SWAP2 SWAP1 POP JUMP JUMPDEST PUSH1 0x0 PUSH2 0x3B3 DUP3 PUSH2 0x385 JUMP JUMPDEST SWAP2 POP DUP2 SWAP1 POP SWAP2 SWAP1 POP JUMP JUMPDEST PUSH2 0x17E2 DUP1 PUSH2 0x3CC PUSH1 0x0 CODECOPY PUSH1 0x0 RETURN INVALID PUSH1 0x80 PUSH1 0x40 MSTORE CALLVALUE DUP1 ISZERO PUSH2 0x10 JUMPI PUSH1 0x0 DUP1 REVERT JUMPDEST POP PUSH1 0x4 CALLDATASIZE LT PUSH2 0xA9 JUMPI PUSH1 0x0 CALLDATALOAD PUSH1 0xE0 SHR DUP1 PUSH4 0xA85C38EF GT PUSH2 0x71 JUMPI DUP1 PUSH4 0xA85C38EF EQ PUSH2 0x140 JUMPI DUP1 PUSH4 0xD09EF241 EQ PUSH2 0x172 JUMPI DUP1 PUSH4 0xD3FA59CF EQ PUSH2 0x1A2 JUMPI DUP1 PUSH4 0xF2FDE38B EQ PUSH2 0x1BE JUMPI DUP1 PUSH4 0xF9F847DD EQ PUSH2 0x1DA JUMPI DUP1 PUSH4 0xFA47FD60 EQ PUSH2 0x1F8 JUMPI PUSH2 0xA9 JUMP JUMPDEST DUP1 PUSH4 0x2FF71F3A EQ PUSH2 0xAE JUMPI DUP1 PUSH4 0x55A373D6 EQ PUSH2 0xDE JUMPI DUP1 PUSH4 0x715018A6 EQ PUSH2 0xFC JUMPI DUP1 PUSH4 0x8AC7D79C EQ PUSH2 0x106 JUMPI DUP1 PUSH4 0x8DA5CB5B EQ PUSH2 0x122 JUMPI JUMPDEST PUSH1 0x0 DUP1 REVERT JUMPDEST PUSH2 0xC8 PUSH1 0x4 DUP1 CALLDATASIZE SUB DUP2 ADD SWAP1 PUSH2 0xC3 SWAP2 SWAP1 PUSH2 0xCD9 JUMP JUMPDEST PUSH2 0x214 JUMP JUMPDEST PUSH1 0x40 MLOAD PUSH2 0xD5 SWAP2 SWAP1 PUSH2 0xD3D JUMP JUMPDEST PUSH1 0x40 MLOAD DUP1 SWAP2 SUB SWAP1 RETURN JUMPDEST PUSH2 0xE6 PUSH2 0x24A JUMP JUMPDEST PUSH1 0x40 MLOAD PUSH2 0xF3 SWAP2 SWAP1 PUSH2 0xDD7 JUMP JUMPDEST PUSH1 0x40 MLOAD DUP1 SWAP2 SUB SWAP1 RETURN JUMPDEST PUSH2 0x104 PUSH2 0x270 JUMP JUMPDEST STOP JUMPDEST PUSH2 0x120 PUSH1 0x4 DUP1 CALLDATASIZE SUB DUP2 ADD SWAP1 PUSH2 0x11B SWAP2 SWAP1 PUSH2 0xE28 JUMP JUMPDEST PUSH2 0x2B3 JUMP JUMPDEST STOP JUMPDEST PUSH2 0x12A PUSH2 0x3B6 JUMP JUMPDEST PUSH1 0x40 MLOAD PUSH2 0x137 SWAP2 SWAP1 PUSH2 0xE76 JUMP JUMPDEST PUSH1 0x40 MLOAD DUP1 SWAP2 SUB SWAP1 RETURN JUMPDEST PUSH2 0x15A PUSH1 0x4 DUP1 CALLDATASIZE SUB DUP2 ADD SWAP1 PUSH2 0x155 SWAP2 SWAP1 PUSH2 0xE28 JUMP JUMPDEST PUSH2 0x3DF JUMP JUMPDEST PUSH1 0x40 MLOAD PUSH2 0x169 SWAP4 SWAP3 SWAP2 SWAP1 PUSH2 0xF10 JUMP JUMPDEST PUSH1 0x40 MLOAD DUP1 SWAP2 SUB SWAP1 RETURN JUMPDEST PUSH2 0x18C PUSH1 0x4 DUP1 CALLDATASIZE SUB DUP2 ADD SWAP1 PUSH2 0x187 SWAP2 SWAP1 PUSH2 0xE28 JUMP JUMPDEST PUSH2 0x4CE JUMP JUMPDEST PUSH1 0x40 MLOAD PUSH2 0x199 SWAP2 SWAP1 PUSH2 0x1006 JUMP JUMPDEST PUSH1 0x40 MLOAD DUP1 SWAP2 SUB SWAP1 RETURN JUMPDEST PUSH2 0x1BC PUSH1 0x4 DUP1 CALLDATASIZE SUB DUP2 ADD SWAP1 PUSH2 0x1B7 SWAP2 SWAP1 PUSH2 0x1054 JUMP JUMPDEST PUSH2 0x654 JUMP JUMPDEST STOP JUMPDEST PUSH2 0x1D8 PUSH1 0x4 DUP1 CALLDATASIZE SUB DUP2 ADD SWAP1 PUSH2 0x1D3 SWAP2 SWAP1 PUSH2 0x10DC JUMP JUMPDEST PUSH2 0x696 JUMP JUMPDEST STOP JUMPDEST PUSH2 0x1E2 PUSH2 0x71C JUMP JUMPDEST PUSH1 0x40 MLOAD PUSH2 0x1EF SWAP2 SWAP1 PUSH2 0x1118 JUMP JUMPDEST PUSH1 0x40 MLOAD DUP1 SWAP2 SUB SWAP1 RETURN JUMPDEST PUSH2 0x212 PUSH1 0x4 DUP1 CALLDATASIZE SUB DUP2 ADD SWAP1 PUSH2 0x20D SWAP2 SWAP1 PUSH2 0xCD9 JUMP JUMPDEST PUSH2 0x722 JUMP JUMPDEST STOP JUMPDEST PUSH1 0x4 DUP2 DUP1 MLOAD PUSH1 0x20 DUP2 ADD DUP3 ADD DUP1 MLOAD DUP5 DUP3 MSTORE PUSH1 0x20 DUP4 ADD PUSH1 0x20 DUP6 ADD KECCAK256 DUP2 DUP4 MSTORE DUP1 SWAP6 POP POP POP POP POP POP PUSH1 0x0 SWAP2 POP SLOAD SWAP1 PUSH2 0x100 EXP SWAP1 DIV PUSH1 0xFF AND DUP2 JUMP JUMPDEST PUSH1 0x1 PUSH1 0x0 SWAP1 SLOAD SWAP1 PUSH2 0x100 EXP SWAP1 DIV PUSH20 0xFFFFFFFFFFFFFFFFFFFFFFFFFFFFFFFFFFFFFFFF AND DUP2 JUMP JUMPDEST PUSH2 0x278 PUSH2 0x9F3 JUMP JUMPDEST PUSH1 0x40 MLOAD PUSH32 0x8C379A000000000000000000000000000000000000000000000000000000000 DUP2 MSTORE PUSH1 0x4 ADD PUSH2 0x2AA SWAP1 PUSH2 0x11A5 JUMP JUMPDEST PUSH1 0x40 MLOAD DUP1 SWAP2 SUB SWAP1 REVERT JUMPDEST PUSH2 0x2BB PUSH2 0x9F3 JUMP JUMPDEST PUSH1 0x3 DUP1 SLOAD SWAP1 POP DUP2 LT PUSH2 0x302 JUMPI PUSH1 0x40 MLOAD PUSH32 0x8C379A000000000000000000000000000000000000000000000000000000000 DUP2 MSTORE PUSH1 0x4 ADD PUSH2 0x2F9 SWAP1 PUSH2 0x1211 JUMP JUMPDEST PUSH1 0x40 MLOAD DUP1 SWAP2 SUB SWAP1 REVERT JUMPDEST PUSH1 0x3 DUP2 DUP2 SLOAD DUP2 LT PUSH2 0x316 JUMPI PUSH2 0x315 PUSH2 0x1231 JUMP JUMPDEST JUMPDEST SWAP1 PUSH1 0x0 MSTORE PUSH1 0x20 PUSH1 0x0 KECCAK256 SWAP1 PUSH1 0x3 MUL ADD PUSH1 0x2 ADD PUSH1 0x0 SWAP1 SLOAD SWAP1 PUSH2 0x100 EXP SWAP1 DIV PUSH1 0xFF AND ISZERO PUSH2 0x375 JUMPI PUSH1 0x40 MLOAD PUSH32 0x8C379A000000000000000000000000000000000000000000000000000000000 DUP2 MSTORE PUSH1 0x4 ADD PUSH2 0x36C SWAP1 PUSH2 0x12AC JUMP JUMPDEST PUSH1 0x40 MLOAD DUP1 SWAP2 SUB SWAP1 REVERT JUMPDEST PUSH1 0x1 PUSH1 0x3 DUP3 DUP2 SLOAD DUP2 LT PUSH2 0x38B JUMPI PUSH2 0x38A PUSH2 0x1231 JUMP JUMPDEST JUMPDEST SWAP1 PUSH1 0x0 MSTORE PUSH1 0x20 PUSH1 0x0 KECCAK256 SWAP1 PUSH1 0x3 MUL ADD PUSH1 0x2 ADD PUSH1 0x0 PUSH2 0x100 EXP DUP2 SLOAD DUP2 PUSH1 0xFF MUL NOT AND SWAP1 DUP4 ISZERO ISZERO MUL OR SWAP1 SSTORE POP POP JUMP JUMPDEST PUSH1 0x0 DUP1 PUSH1 0x0 SWAP1 SLOAD SWAP1 PUSH2 0x100 EXP SWAP1 DIV PUSH20 0xFFFFFFFFFFFFFFFFFFFFFFFFFFFFFFFFFFFFFFFF AND SWAP1 POP SWAP1 JUMP JUMPDEST PUSH1 0x3 DUP2 DUP2 SLOAD DUP2 LT PUSH2 0x3EF JUMPI PUSH1 0x0 DUP1 REVERT JUMPDEST SWAP1 PUSH1 0x0 MSTORE PUSH1 0x20 PUSH1 0x0 KECCAK256 SWAP1 PUSH1 0x3 MUL ADD PUSH1 0x0 SWAP2 POP SWAP1 POP DUP1 PUSH1 0x0 ADD PUSH1 0x0 SWAP1 SLOAD SWAP1 PUSH2 0x100 EXP SWAP1 DIV PUSH20 0xFFFFFFFFFFFFFFFFFFFFFFFFFFFFFFFFFFFFFFFF AND SWAP1 DUP1 PUSH1 0x1 ADD DUP1 SLOAD PUSH2 0x438 SWAP1 PUSH2 0x12FB JUMP JUMPDEST DUP1 PUSH1 0x1F ADD PUSH1 0x20 DUP1 SWAP2 DIV MUL PUSH1 0x20 ADD PUSH1 0x40 MLOAD SWAP1 DUP2 ADD PUSH1 0x40 MSTORE DUP1 SWAP3 SWAP2 SWAP1 DUP2 DUP2 MSTORE PUSH1 0x20 ADD DUP3 DUP1 SLOAD PUSH2 0x464 SWAP1 PUSH2 0x12FB JUMP JUMPDEST DUP1 ISZERO PUSH2 0x4B1 JUMPI DUP1 PUSH1 0x1F LT PUSH2 0x486 JUMPI PUSH2 0x100 DUP1 DUP4 SLOAD DIV MUL DUP4 MSTORE SWAP2 PUSH1 0x20 ADD SWAP2 PUSH2 0x4B1 JUMP JUMPDEST DUP3 ADD SWAP2 SWAP1 PUSH1 0x0 MSTORE PUSH1 0x20 PUSH1 0x0 KECCAK256 SWAP1 JUMPDEST DUP2 SLOAD DUP2 MSTORE SWAP1 PUSH1 0x1 ADD SWAP1 PUSH1 0x20 ADD DUP1 DUP4 GT PUSH2 0x494 JUMPI DUP3 SWAP1 SUB PUSH1 0x1F AND DUP3 ADD SWAP2 JUMPDEST POP POP POP POP POP SWAP1 DUP1 PUSH1 0x2 ADD PUSH1 0x0 SWAP1 SLOAD SWAP1 PUSH2 0x100 EXP SWAP1 DIV PUSH1 0xFF AND SWAP1 POP DUP4 JUMP JUMPDEST PUSH2 0x4D6 PUSH2 0xB46 JUMP JUMPDEST PUSH1 0x3 DUP1 SLOAD SWAP1 POP DUP3 LT PUSH2 0x51D JUMPI PUSH1 0x40 MLOAD PUSH32 0x8C379A000000000000000000000000000000000000000000000000000000000 DUP2 MSTORE PUSH1 0x4 ADD PUSH2 0x514 SWAP1 PUSH2 0x1211 JUMP JUMPDEST PUSH1 0x40 MLOAD DUP1 SWAP2 SUB SWAP1 REVERT JUMPDEST PUSH1 0x3 DUP3 DUP2 SLOAD DUP2 LT PUSH2 0x531 JUMPI PUSH2 0x530 PUSH2 0x1231 JUMP JUMPDEST JUMPDEST SWAP1 PUSH1 0x0 MSTORE PUSH1 0x20 PUSH1 0x0 KECCAK256 SWAP1 PUSH1 0x3 MUL ADD PUSH1 0x40 MLOAD DUP1 PUSH1 0x60 ADD PUSH1 0x40 MSTORE SWAP1 DUP2 PUSH1 0x0 DUP3 ADD PUSH1 0x0 SWAP1 SLOAD SWAP1 PUSH2 0x100 EXP SWAP1 DIV PUSH20 0xFFFFFFFFFFFFFFFFFFFFFFFFFFFFFFFFFFFFFFFF AND PUSH20 0xFFFFFFFFFFFFFFFFFFFFFFFFFFFFFFFFFFFFFFFF AND PUSH20 0xFFFFFFFFFFFFFFFFFFFFFFFFFFFFFFFFFFFFFFFF AND DUP2 MSTORE PUSH1 0x20 ADD PUSH1 0x1 DUP3 ADD DUP1 SLOAD PUSH2 0x5B0 SWAP1 PUSH2 0x12FB JUMP JUMPDEST DUP1 PUSH1 0x1F ADD PUSH1 0x20 DUP1 SWAP2 DIV MUL PUSH1 0x20 ADD PUSH1 0x40 MLOAD SWAP1 DUP2 ADD PUSH1 0x40 MSTORE DUP1 SWAP3 SWAP2 SWAP1 DUP2 DUP2 MSTORE PUSH1 0x20 ADD DUP3 DUP1 SLOAD PUSH2 0x5DC SWAP1 PUSH2 0x12FB JUMP JUMPDEST DUP1 ISZERO PUSH2 0x629 JUMPI DUP1 PUSH1 0x1F LT PUSH2 0x5FE JUMPI PUSH2 0x100 DUP1 DUP4 SLOAD DIV MUL DUP4 MSTORE SWAP2 PUSH1 0x20 ADD SWAP2 PUSH2 0x629 JUMP JUMPDEST DUP3 ADD SWAP2 SWAP1 PUSH1 0x0 MSTORE PUSH1 0x20 PUSH1 0x0 KECCAK256 SWAP1 JUMPDEST DUP2 SLOAD DUP2 MSTORE SWAP1 PUSH1 0x1 ADD SWAP1 PUSH1 0x20 ADD DUP1 DUP4 GT PUSH2 0x60C JUMPI DUP3 SWAP1 SUB PUSH1 0x1F AND DUP3 ADD SWAP2 JUMPDEST POP POP POP POP POP DUP2 MSTORE PUSH1 0x20 ADD PUSH1 0x2 DUP3 ADD PUSH1 0x0 SWAP1 SLOAD SWAP1 PUSH2 0x100 EXP SWAP1 DIV PUSH1 0xFF AND ISZERO ISZERO ISZERO ISZERO DUP2 MSTORE POP POP SWAP1 POP SWAP2 SWAP1 POP JUMP JUMPDEST PUSH2 0x65C PUSH2 0x9F3 JUMP JUMPDEST DUP1 PUSH1 0x4 DUP4 PUSH1 0x40 MLOAD PUSH2 0x66D SWAP2 SWAP1 PUSH2 0x1368 JUMP JUMPDEST SWAP1 DUP2 MSTORE PUSH1 0x20 ADD PUSH1 0x40 MLOAD DUP1 SWAP2 SUB SWAP1 KECCAK256 PUSH1 0x0 PUSH2 0x100 EXP DUP2 SLOAD DUP2 PUSH1 0xFF MUL NOT AND SWAP1 DUP4 ISZERO ISZERO MUL OR SWAP1 SSTORE POP POP POP JUMP JUMPDEST PUSH2 0x69E PUSH2 0x9F3 JUMP JUMPDEST PUSH1 0x0 PUSH20 0xFFFFFFFFFFFFFFFFFFFFFFFFFFFFFFFFFFFFFFFF AND DUP2 PUSH20 0xFFFFFFFFFFFFFFFFFFFFFFFFFFFFFFFFFFFFFFFF AND SUB PUSH2 0x710 JUMPI PUSH1 0x0 PUSH1 0x40 MLOAD PUSH32 0x1E4FBDF700000000000000000000000000000000000000000000000000000000 DUP2 MSTORE PUSH1 0x4 ADD PUSH2 0x707 SWAP2 SWAP1 PUSH2 0xE76 JUMP JUMPDEST PUSH1 0x40 MLOAD DUP1 SWAP2 SUB SWAP1 REVERT JUMPDEST PUSH2 0x719 DUP2 PUSH2 0xA7A JUMP JUMPDEST POP JUMP JUMPDEST PUSH1 0x2 SLOAD DUP2 JUMP JUMPDEST PUSH1 0x2 SLOAD PUSH1 0x1 PUSH1 0x0 SWAP1 SLOAD SWAP1 PUSH2 0x100 EXP SWAP1 DIV PUSH20 0xFFFFFFFFFFFFFFFFFFFFFFFFFFFFFFFFFFFFFFFF AND PUSH20 0xFFFFFFFFFFFFFFFFFFFFFFFFFFFFFFFFFFFFFFFF AND PUSH4 0x70A08231 CALLER PUSH1 0x40 MLOAD DUP3 PUSH4 0xFFFFFFFF AND PUSH1 0xE0 SHL DUP2 MSTORE PUSH1 0x4 ADD PUSH2 0x780 SWAP2 SWAP1 PUSH2 0xE76 JUMP JUMPDEST PUSH1 0x20 PUSH1 0x40 MLOAD DUP1 DUP4 SUB DUP2 DUP7 GAS STATICCALL ISZERO DUP1 ISZERO PUSH2 0x79D JUMPI RETURNDATASIZE PUSH1 0x0 DUP1 RETURNDATACOPY RETURNDATASIZE PUSH1 0x0 REVERT JUMPDEST POP POP POP POP PUSH1 0x40 MLOAD RETURNDATASIZE PUSH1 0x1F NOT PUSH1 0x1F DUP3 ADD AND DUP3 ADD DUP1 PUSH1 0x40 MSTORE POP DUP2 ADD SWAP1 PUSH2 0x7C1 SWAP2 SWAP1 PUSH2 0x1394 JUMP JUMPDEST LT ISZERO PUSH2 0x802 JUMPI PUSH1 0x40 MLOAD PUSH32 0x8C379A000000000000000000000000000000000000000000000000000000000 DUP2 MSTORE PUSH1 0x4 ADD PUSH2 0x7F9 SWAP1 PUSH2 0x1433 JUMP JUMPDEST PUSH1 0x40 MLOAD DUP1 SWAP2 SUB SWAP1 REVERT JUMPDEST PUSH1 0x4 DUP2 PUSH1 0x40 MLOAD PUSH2 0x812 SWAP2 SWAP1 PUSH2 0x1368 JUMP JUMPDEST SWAP1 DUP2 MSTORE PUSH1 0x20 ADD PUSH1 0x40 MLOAD DUP1 SWAP2 SUB SWAP1 KECCAK256 PUSH1 0x0 SWAP1 SLOAD SWAP1 PUSH2 0x100 EXP SWAP1 DIV PUSH1 0xFF AND PUSH2 0x86D JUMPI PUSH1 0x40 MLOAD PUSH32 0x8C379A000000000000000000000000000000000000000000000000000000000 DUP2 MSTORE PUSH1 0x4 ADD PUSH2 0x864 SWAP1 PUSH2 0x149F JUMP JUMPDEST PUSH1 0x40 MLOAD DUP1 SWAP2 SUB SWAP1 REVERT JUMPDEST PUSH1 0x1 PUSH1 0x0 SWAP1 SLOAD SWAP1 PUSH2 0x100 EXP SWAP1 DIV PUSH20 0xFFFFFFFFFFFFFFFFFFFFFFFFFFFFFFFFFFFFFFFF AND PUSH20 0xFFFFFFFFFFFFFFFFFFFFFFFFFFFFFFFFFFFFFFFF AND PUSH4 0x23B872DD CALLER ADDRESS PUSH1 0x2 SLOAD PUSH1 0x40 MLOAD DUP5 PUSH4 0xFFFFFFFF AND PUSH1 0xE0 SHL DUP2 MSTORE PUSH1 0x4 ADD PUSH2 0x8CE SWAP4 SWAP3 SWAP2 SWAP1 PUSH2 0x14BF JUMP JUMPDEST PUSH1 0x20 PUSH1 0x40 MLOAD DUP1 DUP4 SUB DUP2 PUSH1 0x0 DUP8 GAS CALL ISZERO DUP1 ISZERO PUSH2 0x8ED JUMPI RETURNDATASIZE PUSH1 0x0 DUP1 RETURNDATACOPY RETURNDATASIZE PUSH1 0x0 REVERT JUMPDEST POP POP POP POP PUSH1 0x40 MLOAD RETURNDATASIZE PUSH1 0x1F NOT PUSH1 0x1F DUP3 ADD AND DUP3 ADD DUP1 PUSH1 0x40 MSTORE POP DUP2 ADD SWAP1 PUSH2 0x911 SWAP2 SWAP1 PUSH2 0x150B JUMP JUMPDEST POP PUSH1 0x3 PUSH1 0x40 MLOAD DUP1 PUSH1 0x60 ADD PUSH1 0x40 MSTORE DUP1 CALLER PUSH20 0xFFFFFFFFFFFFFFFFFFFFFFFFFFFFFFFFFFFFFFFF AND DUP2 MSTORE PUSH1 0x20 ADD DUP4 DUP2 MSTORE PUSH1 0x20 ADD PUSH1 0x0 ISZERO ISZERO DUP2 MSTORE POP SWAP1 DUP1 PUSH1 0x1 DUP2 SLOAD ADD DUP1 DUP3 SSTORE DUP1 SWAP2 POP POP PUSH1 0x1 SWAP1 SUB SWAP1 PUSH1 0x0 MSTORE PUSH1 0x20 PUSH1 0x0 KECCAK256 SWAP1 PUSH1 0x3 MUL ADD PUSH1 0x0 SWAP1 SWAP2 SWAP1 SWAP2 SWAP1 SWAP2 POP PUSH1 0x0 DUP3 ADD MLOAD DUP2 PUSH1 0x0 ADD PUSH1 0x0 PUSH2 0x100 EXP DUP2 SLOAD DUP2 PUSH20 0xFFFFFFFFFFFFFFFFFFFFFFFFFFFFFFFFFFFFFFFF MUL NOT AND SWAP1 DUP4 PUSH20 0xFFFFFFFFFFFFFFFFFFFFFFFFFFFFFFFFFFFFFFFF AND MUL OR SWAP1 SSTORE POP PUSH1 0x20 DUP3 ADD MLOAD DUP2 PUSH1 0x1 ADD SWAP1 DUP2 PUSH2 0x9CD SWAP2 SWAP1 PUSH2 0x16DA JUMP JUMPDEST POP PUSH1 0x40 DUP3 ADD MLOAD DUP2 PUSH1 0x2 ADD PUSH1 0x0 PUSH2 0x100 EXP DUP2 SLOAD DUP2 PUSH1 0xFF MUL NOT AND SWAP1 DUP4 ISZERO ISZERO MUL OR SWAP1 SSTORE POP POP POP POP JUMP JUMPDEST PUSH2 0x9FB PUSH2 0xB3E JUMP JUMPDEST PUSH20 0xFFFFFFFFFFFFFFFFFFFFFFFFFFFFFFFFFFFFFFFF AND PUSH2 0xA19 PUSH2 0x3B6 JUMP JUMPDEST PUSH20 0xFFFFFFFFFFFFFFFFFFFFFFFFFFFFFFFFFFFFFFFF AND EQ PUSH2 0xA78 JUMPI PUSH2 0xA3C PUSH2 0xB3E JUMP JUMPDEST PUSH1 0x40 MLOAD PUSH32 0x118CDAA700000000000000000000000000000000000000000000000000000000 DUP2 MSTORE PUSH1 0x4 ADD PUSH2 0xA6F SWAP2 SWAP1 PUSH2 0xE76 JUMP JUMPDEST PUSH1 0x40 MLOAD DUP1 SWAP2 SUB SWAP1 REVERT JUMPDEST JUMP JUMPDEST PUSH1 0x0 DUP1 PUSH1 0x0 SWAP1 SLOAD SWAP1 PUSH2 0x100 EXP SWAP1 DIV PUSH20 0xFFFFFFFFFFFFFFFFFFFFFFFFFFFFFFFFFFFFFFFF AND SWAP1 POP DUP2 PUSH1 0x0 DUP1 PUSH2 0x100 EXP DUP2 SLOAD DUP2 PUSH20 0xFFFFFFFFFFFFFFFFFFFFFFFFFFFFFFFFFFFFFFFF MUL NOT AND SWAP1 DUP4 PUSH20 0xFFFFFFFFFFFFFFFFFFFFFFFFFFFFFFFFFFFFFFFF AND MUL OR SWAP1 SSTORE POP DUP2 PUSH20 0xFFFFFFFFFFFFFFFFFFFFFFFFFFFFFFFFFFFFFFFF AND DUP2 PUSH20 0xFFFFFFFFFFFFFFFFFFFFFFFFFFFFFFFFFFFFFFFF AND PUSH32 0x8BE0079C531659141344CD1FD0A4F28419497F9722A3DAAFE3B4186F6B6457E0 PUSH1 0x40 MLOAD PUSH1 0x40 MLOAD DUP1 SWAP2 SUB SWAP1 LOG3 POP POP JUMP JUMPDEST PUSH1 0x0 CALLER SWAP1 POP SWAP1 JUMP JUMPDEST PUSH1 0x40 MLOAD DUP1 PUSH1 0x60 ADD PUSH1 0x40 MSTORE DUP1 PUSH1 0x0 PUSH20 0xFFFFFFFFFFFFFFFFFFFFFFFFFFFFFFFFFFFFFFFF AND DUP2 MSTORE PUSH1 0x20 ADD PUSH1 0x60 DUP2 MSTORE PUSH1 0x20 ADD PUSH1 0x0 ISZERO ISZERO DUP2 MSTORE POP SWAP1 JUMP JUMPDEST PUSH1 0x0 PUSH1 0x40 MLOAD SWAP1 POP SWAP1 JUMP JUMPDEST PUSH1 0x0 DUP1 REVERT JUMPDEST PUSH1 0x0 DUP1 REVERT JUMPDEST PUSH1 0x0 DUP1 REVERT JUMPDEST PUSH1 0x0 DUP1 REVERT JUMPDEST PUSH1 0x0 PUSH1 0x1F NOT PUSH1 0x1F DUP4 ADD AND SWAP1 POP SWAP2 SWAP1 POP JUMP JUMPDEST PUSH32 0x4E487B7100000000000000000000000000000000000000000000000000000000 PUSH1 0x0 MSTORE PUSH1 0x41 PUSH1 0x4 MSTORE PUSH1 0x24 PUSH1 0x0 REVERT JUMPDEST PUSH2 0xBE6 DUP3 PUSH2 0xB9D JUMP JUMPDEST DUP2 ADD DUP2 DUP2 LT PUSH8 0xFFFFFFFFFFFFFFFF DUP3 GT OR ISZERO PUSH2 0xC05 JUMPI PUSH2 0xC04 PUSH2 0xBAE JUMP JUMPDEST JUMPDEST DUP1 PUSH1 0x40 MSTORE POP POP POP JUMP JUMPDEST PUSH1 0x0 PUSH2 0xC18 PUSH2 0xB7F JUMP JUMPDEST SWAP1 POP PUSH2 0xC24 DUP3 DUP3 PUSH2 0xBDD JUMP JUMPDEST SWAP2 SWAP1 POP JUMP JUMPDEST PUSH1 0x0 PUSH8 0xFFFFFFFFFFFFFFFF DUP3 GT ISZERO PUSH2 0xC44 JUMPI PUSH2 0xC43 PUSH2 0xBAE JUMP JUMPDEST JUMPDEST PUSH2 0xC4D DUP3 PUSH2 0xB9D JUMP JUMPDEST SWAP1 POP PUSH1 0x20 DUP2 ADD SWAP1 POP SWAP2 SWAP1 POP JUMP JUMPDEST DUP3 DUP2 DUP4 CALLDATACOPY PUSH1 0x0 DUP4 DUP4 ADD MSTORE POP POP POP JUMP JUMPDEST PUSH1 0x0 PUSH2 0xC7C PUSH2 0xC77 DUP5 PUSH2 0xC29 JUMP JUMPDEST PUSH2 0xC0E JUMP JUMPDEST SWAP1 POP DUP3 DUP2 MSTORE PUSH1 0x20 DUP2 ADD DUP5 DUP5 DUP5 ADD GT ISZERO PUSH2 0xC98 JUMPI PUSH2 0xC97 PUSH2 0xB98 JUMP JUMPDEST JUMPDEST PUSH2 0xCA3 DUP5 DUP3 DUP6 PUSH2 0xC5A JUMP JUMPDEST POP SWAP4 SWAP3 POP POP POP JUMP JUMPDEST PUSH1 0x0 DUP3 PUSH1 0x1F DUP4 ADD SLT PUSH2 0xCC0 JUMPI PUSH2 0xCBF PUSH2 0xB93 JUMP JUMPDEST JUMPDEST DUP2 CALLDATALOAD PUSH2 0xCD0 DUP5 DUP3 PUSH1 0x20 DUP7 ADD PUSH2 0xC69 JUMP JUMPDEST SWAP2 POP POP SWAP3 SWAP2 POP POP JUMP JUMPDEST PUSH1 0x0 PUSH1 0x20 DUP3 DUP5 SUB SLT ISZERO PUSH2 0xCEF JUMPI PUSH2 0xCEE PUSH2 0xB89 JUMP JUMPDEST JUMPDEST PUSH1 0x0 DUP3 ADD CALLDATALOAD PUSH8 0xFFFFFFFFFFFFFFFF DUP2 GT ISZERO PUSH2 0xD0D JUMPI PUSH2 0xD0C PUSH2 0xB8E JUMP JUMPDEST JUMPDEST PUSH2 0xD19 DUP5 DUP3 DUP6 ADD PUSH2 0xCAB JUMP JUMPDEST SWAP2 POP POP SWAP3 SWAP2 POP POP JUMP JUMPDEST PUSH1 0x0 DUP2 ISZERO ISZERO SWAP1 POP SWAP2 SWAP1 POP JUMP JUMPDEST PUSH2 0xD37 DUP2 PUSH2 0xD22 JUMP JUMPDEST DUP3 MSTORE POP POP JUMP JUMPDEST PUSH1 0x0 PUSH1 0x20 DUP3 ADD SWAP1 POP PUSH2 0xD52 PUSH1 0x0 DUP4 ADD DUP5 PUSH2 0xD2E JUMP JUMPDEST SWAP3 SWAP2 POP POP JUMP JUMPDEST PUSH1 0x0 PUSH20 0xFFFFFFFFFFFFFFFFFFFFFFFFFFFFFFFFFFFFFFFF DUP3 AND SWAP1 POP SWAP2 SWAP1 POP JUMP JUMPDEST PUSH1 0x0 DUP2 SWAP1 POP SWAP2 SWAP1 POP JUMP JUMPDEST PUSH1 0x0 PUSH2 0xD9D PUSH2 0xD98 PUSH2 0xD93 DUP5 PUSH2 0xD58 JUMP JUMPDEST PUSH2 0xD78 JUMP JUMPDEST PUSH2 0xD58 JUMP JUMPDEST SWAP1 POP SWAP2 SWAP1 POP JUMP JUMPDEST PUSH1 0x0 PUSH2 0xDAF DUP3 PUSH2 0xD82 JUMP JUMPDEST SWAP1 POP SWAP2 SWAP1 POP JUMP JUMPDEST PUSH1 0x0 PUSH2 0xDC1 DUP3 PUSH2 0xDA4 JUMP JUMPDEST SWAP1 POP SWAP2 SWAP1 POP JUMP JUMPDEST PUSH2 0xDD1 DUP2 PUSH2 0xDB6 JUMP JUMPDEST DUP3 MSTORE POP POP JUMP JUMPDEST PUSH1 0x0 PUSH1 0x20 DUP3 ADD SWAP1 POP PUSH2 0xDEC PUSH1 0x0 DUP4 ADD DUP5 PUSH2 0xDC8 JUMP JUMPDEST SWAP3 SWAP2 POP POP JUMP JUMPDEST PUSH1 0x0 DUP2 SWAP1 POP SWAP2 SWAP1 POP JUMP JUMPDEST PUSH2 0xE05 DUP2 PUSH2 0xDF2 JUMP JUMPDEST DUP2 EQ PUSH2 0xE10 JUMPI PUSH1 0x0 DUP1 REVERT JUMPDEST POP JUMP JUMPDEST PUSH1 0x0 DUP2 CALLDATALOAD SWAP1 POP PUSH2 0xE22 DUP2 PUSH2 0xDFC JUMP JUMPDEST SWAP3 SWAP2 POP POP JUMP JUMPDEST PUSH1 0x0 PUSH1 0x20 DUP3 DUP5 SUB SLT ISZERO PUSH2 0xE3E JUMPI PUSH2 0xE3D PUSH2 0xB89 JUMP JUMPDEST JUMPDEST PUSH1 0x0 PUSH2 0xE4C DUP5 DUP3 DUP6 ADD PUSH2 0xE13 JUMP JUMPDEST SWAP2 POP POP SWAP3 SWAP2 POP POP JUMP JUMPDEST PUSH1 0x0 PUSH2 0xE60 DUP3 PUSH2 0xD58 JUMP JUMPDEST SWAP1 POP SWAP2 SWAP1 POP JUMP JUMPDEST PUSH2 0xE70 DUP2 PUSH2 0xE55 JUMP JUMPDEST DUP3 MSTORE POP POP JUMP JUMPDEST PUSH1 0x0 PUSH1 0x20 DUP3 ADD SWAP1 POP PUSH2 0xE8B PUSH1 0x0 DUP4 ADD DUP5 PUSH2 0xE67 JUMP JUMPDEST SWAP3 SWAP2 POP POP JUMP JUMPDEST PUSH1 0x0 DUP2 MLOAD SWAP1 POP SWAP2 SWAP1 POP JUMP JUMPDEST PUSH1 0x0 DUP3 DUP3 MSTORE PUSH1 0x20 DUP3 ADD SWAP1 POP SWAP3 SWAP2 POP POP JUMP JUMPDEST PUSH1 0x0 JUMPDEST DUP4 DUP2 LT ISZERO PUSH2 0xECB JUMPI DUP1 DUP3 ADD MLOAD DUP2 DUP5 ADD MSTORE PUSH1 0x20 DUP2 ADD SWAP1 POP PUSH2 0xEB0 JUMP JUMPDEST PUSH1 0x0 DUP5 DUP5 ADD MSTORE POP POP POP POP JUMP JUMPDEST PUSH1 0x0 PUSH2 0xEE2 DUP3 PUSH2 0xE91 JUMP JUMPDEST PUSH2 0xEEC DUP2 DUP6 PUSH2 0xE9C JUMP JUMPDEST SWAP4 POP PUSH2 0xEFC DUP2 DUP6 PUSH1 0x20 DUP7 ADD PUSH2 0xEAD JUMP JUMPDEST PUSH2 0xF05 DUP2 PUSH2 0xB9D JUMP JUMPDEST DUP5 ADD SWAP2 POP POP SWAP3 SWAP2 POP POP JUMP JUMPDEST PUSH1 0x0 PUSH1 0x60 DUP3 ADD SWAP1 POP PUSH2 0xF25 PUSH1 0x0 DUP4 ADD DUP7 PUSH2 0xE67 JUMP JUMPDEST DUP2 DUP2 SUB PUSH1 0x20 DUP4 ADD MSTORE PUSH2 0xF37 DUP2 DUP6 PUSH2 0xED7 JUMP JUMPDEST SWAP1 POP PUSH2 0xF46 PUSH1 0x40 DUP4 ADD DUP5 PUSH2 0xD2E JUMP JUMPDEST SWAP5 SWAP4 POP POP POP POP JUMP JUMPDEST PUSH2 0xF57 DUP2 PUSH2 0xE55 JUMP JUMPDEST DUP3 MSTORE POP POP JUMP JUMPDEST PUSH1 0x0 DUP3 DUP3 MSTORE PUSH1 0x20 DUP3 ADD SWAP1 POP SWAP3 SWAP2 POP POP JUMP JUMPDEST PUSH1 0x0 PUSH2 0xF79 DUP3 PUSH2 0xE91 JUMP JUMPDEST PUSH2 0xF83 DUP2 DUP6 PUSH2 0xF5D JUMP JUMPDEST SWAP4 POP PUSH2 0xF93 DUP2 DUP6 PUSH1 0x20 DUP7 ADD PUSH2 0xEAD JUMP JUMPDEST PUSH2 0xF9C DUP2 PUSH2 0xB9D JUMP JUMPDEST DUP5 ADD SWAP2 POP POP SWAP3 SWAP2 POP POP JUMP JUMPDEST PUSH2 0xFB0 DUP2 PUSH2 0xD22 JUMP JUMPDEST DUP3 MSTORE POP POP JUMP JUMPDEST PUSH1 0x0 PUSH1 0x60 DUP4 ADD PUSH1 0x0 DUP4 ADD MLOAD PUSH2 0xFCE PUSH1 0x0 DUP7 ADD DUP3 PUSH2 0xF4E JUMP JUMPDEST POP PUSH1 0x20 DUP4 ADD MLOAD DUP5 DUP3 SUB PUSH1 0x20 DUP7 ADD MSTORE PUSH2 0xFE6 DUP3 DUP3 PUSH2 0xF6E JUMP JUMPDEST SWAP2 POP POP PUSH1 0x40 DUP4 ADD MLOAD PUSH2 0xFFB PUSH1 0x40 DUP7 ADD DUP3 PUSH2 0xFA7 JUMP JUMPDEST POP DUP1 SWAP2 POP POP SWAP3 SWAP2 POP POP JUMP JUMPDEST PUSH1 0x0 PUSH1 0x20 DUP3 ADD SWAP1 POP DUP2 DUP2 SUB PUSH1 0x0 DUP4 ADD MSTORE PUSH2 0x1020 DUP2 DUP5 PUSH2 0xFB6 JUMP JUMPDEST SWAP1 POP SWAP3 SWAP2 POP POP JUMP JUMPDEST PUSH2 0x1031 DUP2 PUSH2 0xD22 JUMP JUMPDEST DUP2 EQ PUSH2 0x103C JUMPI PUSH1 0x0 DUP1 REVERT JUMPDEST POP JUMP JUMPDEST PUSH1 0x0 DUP2 CALLDATALOAD SWAP1 POP PUSH2 0x104E DUP2 PUSH2 0x1028 JUMP JUMPDEST SWAP3 SWAP2 POP POP JUMP JUMPDEST PUSH1 0x0 DUP1 PUSH1 0x40 DUP4 DUP6 SUB SLT ISZERO PUSH2 0x106B JUMPI PUSH2 0x106A PUSH2 0xB89 JUMP JUMPDEST JUMPDEST PUSH1 0x0 DUP4 ADD CALLDATALOAD PUSH8 0xFFFFFFFFFFFFFFFF DUP2 GT ISZERO PUSH2 0x1089 JUMPI PUSH2 0x1088 PUSH2 0xB8E JUMP JUMPDEST JUMPDEST PUSH2 0x1095 DUP6 DUP3 DUP7 ADD PUSH2 0xCAB JUMP JUMPDEST SWAP3 POP POP PUSH1 0x20 PUSH2 0x10A6 DUP6 DUP3 DUP7 ADD PUSH2 0x103F JUMP JUMPDEST SWAP2 POP POP SWAP3 POP SWAP3 SWAP1 POP JUMP JUMPDEST PUSH2 0x10B9 DUP2 PUSH2 0xE55 JUMP JUMPDEST DUP2 EQ PUSH2 0x10C4 JUMPI PUSH1 0x0 DUP1 REVERT JUMPDEST POP JUMP JUMPDEST PUSH1 0x0 DUP2 CALLDATALOAD SWAP1 POP PUSH2 0x10D6 DUP2 PUSH2 0x10B0 JUMP JUMPDEST SWAP3 SWAP2 POP POP JUMP JUMPDEST PUSH1 0x0 PUSH1 0x20 DUP3 DUP5 SUB SLT ISZERO PUSH2 0x10F2 JUMPI PUSH2 0x10F1 PUSH2 0xB89 JUMP JUMPDEST JUMPDEST PUSH1 0x0 PUSH2 0x1100 DUP5 DUP3 DUP6 ADD PUSH2 0x10C7 JUMP JUMPDEST SWAP2 POP POP SWAP3 SWAP2 POP POP JUMP JUMPDEST PUSH2 0x1112 DUP2 PUSH2 0xDF2 JUMP JUMPDEST DUP3 MSTORE POP POP JUMP JUMPDEST PUSH1 0x0 PUSH1 0x20 DUP3 ADD SWAP1 POP PUSH2 0x112D PUSH1 0x0 DUP4 ADD DUP5 PUSH2 0x1109 JUMP JUMPDEST SWAP3 SWAP2 POP POP JUMP JUMPDEST PUSH32 0x52656E6F756E63696E67206F776E6572736869702069732064697361626C6564 PUSH1 0x0 DUP3 ADD MSTORE PUSH32 0x2E00000000000000000000000000000000000000000000000000000000000000 PUSH1 0x20 DUP3 ADD MSTORE POP JUMP JUMPDEST PUSH1 0x0 PUSH2 0x118F PUSH1 0x21 DUP4 PUSH2 0xE9C JUMP JUMPDEST SWAP2 POP PUSH2 0x119A DUP3 PUSH2 0x1133 JUMP JUMPDEST PUSH1 0x40 DUP3 ADD SWAP1 POP SWAP2 SWAP1 POP JUMP JUMPDEST PUSH1 0x0 PUSH1 0x20 DUP3 ADD SWAP1 POP DUP2 DUP2 SUB PUSH1 0x0 DUP4 ADD MSTORE PUSH2 0x11BE DUP2 PUSH2 0x1182 JUMP JUMPDEST SWAP1 POP SWAP2 SWAP1 POP JUMP JUMPDEST PUSH32 0x496E76616C6964206F7264657220696E64657800000000000000000000000000 PUSH1 0x0 DUP3 ADD MSTORE POP JUMP JUMPDEST PUSH1 0x0 PUSH2 0x11FB PUSH1 0x13 DUP4 PUSH2 0xE9C JUMP JUMPDEST SWAP2 POP PUSH2 0x1206 DUP3 PUSH2 0x11C5 JUMP JUMPDEST PUSH1 0x20 DUP3 ADD SWAP1 POP SWAP2 SWAP1 POP JUMP JUMPDEST PUSH1 0x0 PUSH1 0x20 DUP3 ADD SWAP1 POP DUP2 DUP2 SUB PUSH1 0x0 DUP4 ADD MSTORE PUSH2 0x122A DUP2 PUSH2 0x11EE JUMP JUMPDEST SWAP1 POP SWAP2 SWAP1 POP JUMP JUMPDEST PUSH32 0x4E487B7100000000000000000000000000000000000000000000000000000000 PUSH1 0x0 MSTORE PUSH1 0x32 PUSH1 0x4 MSTORE PUSH1 0x24 PUSH1 0x0 REVERT JUMPDEST PUSH32 0x4F7264657220616C72656164792066756C66696C6C6564000000000000000000 PUSH1 0x0 DUP3 ADD MSTORE POP JUMP JUMPDEST PUSH1 0x0 PUSH2 0x1296 PUSH1 0x17 DUP4 PUSH2 0xE9C JUMP JUMPDEST SWAP2 POP PUSH2 0x12A1 DUP3 PUSH2 0x1260 JUMP JUMPDEST PUSH1 0x20 DUP3 ADD SWAP1 POP SWAP2 SWAP1 POP JUMP JUMPDEST PUSH1 0x0 PUSH1 0x20 DUP3 ADD SWAP1 POP DUP2 DUP2 SUB PUSH1 0x0 DUP4 ADD MSTORE PUSH2 0x12C5 DUP2 PUSH2 0x1289 JUMP JUMPDEST SWAP1 POP SWAP2 SWAP1 POP JUMP JUMPDEST PUSH32 0x4E487B7100000000000000000000000000000000000000000000000000000000 PUSH1 0x0 MSTORE PUSH1 0x22 PUSH1 0x4 MSTORE PUSH1 0x24 PUSH1 0x0 REVERT JUMPDEST PUSH1 0x0 PUSH1 0x2 DUP3 DIV SWAP1 POP PUSH1 0x1 DUP3 AND DUP1 PUSH2 0x1313 JUMPI PUSH1 0x7F DUP3 AND SWAP2 POP JUMPDEST PUSH1 0x20 DUP3 LT DUP2 SUB PUSH2 0x1326 JUMPI PUSH2 0x1325 PUSH2 0x12CC JUMP JUMPDEST JUMPDEST POP SWAP2 SWAP1 POP JUMP JUMPDEST PUSH1 0x0 DUP2 SWAP1 POP SWAP3 SWAP2 POP POP JUMP JUMPDEST PUSH1 0x0 PUSH2 0x1342 DUP3 PUSH2 0xE91 JUMP JUMPDEST PUSH2 0x134C DUP2 DUP6 PUSH2 0x132C JUMP JUMPDEST SWAP4 POP PUSH2 0x135C DUP2 DUP6 PUSH1 0x20 DUP7 ADD PUSH2 0xEAD JUMP JUMPDEST DUP1 DUP5 ADD SWAP2 POP POP SWAP3 SWAP2 POP POP JUMP JUMPDEST PUSH1 0x0 PUSH2 0x1374 DUP3 DUP5 PUSH2 0x1337 JUMP JUMPDEST SWAP2 POP DUP2 SWAP1 POP SWAP3 SWAP2 POP POP JUMP JUMPDEST PUSH1 0x0 DUP2 MLOAD SWAP1 POP PUSH2 0x138E DUP2 PUSH2 0xDFC JUMP JUMPDEST SWAP3 SWAP2 POP POP JUMP JUMPDEST PUSH1 0x0 PUSH1 0x20 DUP3 DUP5 SUB SLT ISZERO PUSH2 0x13AA JUMPI PUSH2 0x13A9 PUSH2 0xB89 JUMP JUMPDEST JUMPDEST PUSH1 0x0 PUSH2 0x13B8 DUP5 DUP3 DUP6 ADD PUSH2 0x137F JUMP JUMPDEST SWAP2 POP POP SWAP3 SWAP2 POP POP JUMP JUMPDEST PUSH32 0x496E73756666696369656E742062616C616E636520746F20706C616365206F72 PUSH1 0x0 DUP3 ADD MSTORE PUSH32 0x6465720000000000000000000000000000000000000000000000000000000000 PUSH1 0x20 DUP3 ADD MSTORE POP JUMP JUMPDEST PUSH1 0x0 PUSH2 0x141D PUSH1 0x23 DUP4 PUSH2 0xE9C JUMP JUMPDEST SWAP2 POP PUSH2 0x1428 DUP3 PUSH2 0x13C1 JUMP JUMPDEST PUSH1 0x40 DUP3 ADD SWAP1 POP SWAP2 SWAP1 POP JUMP JUMPDEST PUSH1 0x0 PUSH1 0x20 DUP3 ADD SWAP1 POP DUP2 DUP2 SUB PUSH1 0x0 DUP4 ADD MSTORE PUSH2 0x144C DUP2 PUSH2 0x1410 JUMP JUMPDEST SWAP1 POP SWAP2 SWAP1 POP JUMP JUMPDEST PUSH32 0x496E76616C696420626576657261676520747970650000000000000000000000 PUSH1 0x0 DUP3 ADD MSTORE POP JUMP JUMPDEST PUSH1 0x0 PUSH2 0x1489 PUSH1 0x15 DUP4 PUSH2 0xE9C JUMP JUMPDEST SWAP2 POP PUSH2 0x1494 DUP3 PUSH2 0x1453 JUMP JUMPDEST PUSH1 0x20 DUP3 ADD SWAP1 POP SWAP2 SWAP1 POP JUMP JUMPDEST PUSH1 0x0 PUSH1 0x20 DUP3 ADD SWAP1 POP DUP2 DUP2 SUB PUSH1 0x0 DUP4 ADD MSTORE PUSH2 0x14B8 DUP2 PUSH2 0x147C JUMP JUMPDEST SWAP1 POP SWAP2 SWAP1 POP JUMP JUMPDEST PUSH1 0x0 PUSH1 0x60 DUP3 ADD SWAP1 POP PUSH2 0x14D4 PUSH1 0x0 DUP4 ADD DUP7 PUSH2 0xE67 JUMP JUMPDEST PUSH2 0x14E1 PUSH1 0x20 DUP4 ADD DUP6 PUSH2 0xE67 JUMP JUMPDEST PUSH2 0x14EE PUSH1 0x40 DUP4 ADD DUP5 PUSH2 0x1109 JUMP JUMPDEST SWAP5 SWAP4 POP POP POP POP JUMP JUMPDEST PUSH1 0x0 DUP2 MLOAD SWAP1 POP PUSH2 0x1505 DUP2 PUSH2 0x1028 JUMP JUMPDEST SWAP3 SWAP2 POP POP JUMP JUMPDEST PUSH1 0x0 PUSH1 0x20 DUP3 DUP5 SUB SLT ISZERO PUSH2 0x1521 JUMPI PUSH2 0x1520 PUSH2 0xB89 JUMP JUMPDEST JUMPDEST PUSH1 0x0 PUSH2 0x152F DUP5 DUP3 DUP6 ADD PUSH2 0x14F6 JUMP JUMPDEST SWAP2 POP POP SWAP3 SWAP2 POP POP JUMP JUMPDEST PUSH1 0x0 DUP2 SWAP1 POP DUP2 PUSH1 0x0 MSTORE PUSH1 0x20 PUSH1 0x0 KECCAK256 SWAP1 POP SWAP2 SWAP1 POP JUMP JUMPDEST PUSH1 0x0 PUSH1 0x20 PUSH1 0x1F DUP4 ADD DIV SWAP1 POP SWAP2 SWAP1 POP JUMP JUMPDEST PUSH1 0x0 DUP3 DUP3 SHL SWAP1 POP SWAP3 SWAP2 POP POP JUMP JUMPDEST PUSH1 0x0 PUSH1 0x8 DUP4 MUL PUSH2 0x159A PUSH32 0xFFFFFFFFFFFFFFFFFFFFFFFFFFFFFFFFFFFFFFFFFFFFFFFFFFFFFFFFFFFFFFFF DUP3 PUSH2 0x155D JUMP JUMPDEST PUSH2 0x15A4 DUP7 DUP4 PUSH2 0x155D JUMP JUMPDEST SWAP6 POP DUP1 NOT DUP5 AND SWAP4 POP DUP1 DUP7 AND DUP5 OR SWAP3 POP POP POP SWAP4 SWAP3 POP POP POP JUMP JUMPDEST PUSH1 0x0 PUSH2 0x15D7 PUSH2 0x15D2 PUSH2 0x15CD DUP5 PUSH2 0xDF2 JUMP JUMPDEST PUSH2 0xD78 JUMP JUMPDEST PUSH2 0xDF2 JUMP JUMPDEST SWAP1 POP SWAP2 SWAP1 POP JUMP JUMPDEST PUSH1 0x0 DUP2 SWAP1 POP SWAP2 SWAP1 POP JUMP JUMPDEST PUSH2 0x15F1 DUP4 PUSH2 0x15BC JUMP JUMPDEST PUSH2 0x1605 PUSH2 0x15FD DUP3 PUSH2 0x15DE JUMP JUMPDEST DUP5 DUP5 SLOAD PUSH2 0x156A JUMP JUMPDEST DUP3 SSTORE POP POP POP POP JUMP JUMPDEST PUSH1 0x0 SWAP1 JUMP JUMPDEST PUSH2 0x161A PUSH2 0x160D JUMP JUMPDEST PUSH2 0x1625 DUP2 DUP5 DUP5 PUSH2 0x15E8 JUMP JUMPDEST POP POP POP JUMP JUMPDEST JUMPDEST DUP2 DUP2 LT ISZERO PUSH2 0x1649 JUMPI PUSH2 0x163E PUSH1 0x0 DUP3 PUSH2 0x1612 JUMP JUMPDEST PUSH1 0x1 DUP2 ADD SWAP1 POP PUSH2 0x162B JUMP JUMPDEST POP POP JUMP JUMPDEST PUSH1 0x1F DUP3 GT ISZERO PUSH2 0x168E JUMPI PUSH2 0x165F DUP2 PUSH2 0x1538 JUMP JUMPDEST PUSH2 0x1668 DUP5 PUSH2 0x154D JUMP JUMPDEST DUP2 ADD PUSH1 0x20 DUP6 LT ISZERO PUSH2 0x1677 JUMPI DUP2 SWAP1 POP JUMPDEST PUSH2 0x168B PUSH2 0x1683 DUP6 PUSH2 0x154D JUMP JUMPDEST DUP4 ADD DUP3 PUSH2 0x162A JUMP JUMPDEST POP POP JUMPDEST POP POP POP JUMP JUMPDEST PUSH1 0x0 DUP3 DUP3 SHR SWAP1 POP SWAP3 SWAP2 POP POP JUMP JUMPDEST PUSH1 0x0 PUSH2 0x16B1 PUSH1 0x0 NOT DUP5 PUSH1 0x8 MUL PUSH2 0x1693 JUMP JUMPDEST NOT DUP1 DUP4 AND SWAP2 POP POP SWAP3 SWAP2 POP POP JUMP JUMPDEST PUSH1 0x0 PUSH2 0x16CA DUP4 DUP4 PUSH2 0x16A0 JUMP JUMPDEST SWAP2 POP DUP3 PUSH1 0x2 MUL DUP3 OR SWAP1 POP SWAP3 SWAP2 POP POP JUMP JUMPDEST PUSH2 0x16E3 DUP3 PUSH2 0xE91 JUMP JUMPDEST PUSH8 0xFFFFFFFFFFFFFFFF DUP2 GT ISZERO PUSH2 0x16FC JUMPI PUSH2 0x16FB PUSH2 0xBAE JUMP JUMPDEST JUMPDEST PUSH2 0x1706 DUP3 SLOAD PUSH2 0x12FB JUMP JUMPDEST PUSH2 0x1711 DUP3 DUP3 DUP6 PUSH2 0x164D JUMP JUMPDEST PUSH1 0x0 PUSH1 0x20 SWAP1 POP PUSH1 0x1F DUP4 GT PUSH1 0x1 DUP2 EQ PUSH2 0x1744 JUMPI PUSH1 0x0 DUP5 ISZERO PUSH2 0x1732 JUMPI DUP3 DUP8 ADD MLOAD SWAP1 POP JUMPDEST PUSH2 0x173C DUP6 DUP3 PUSH2 0x16BE JUMP JUMPDEST DUP7 SSTORE POP PUSH2 0x17A4 JUMP JUMPDEST PUSH1 0x1F NOT DUP5 AND PUSH2 0x1752 DUP7 PUSH2 0x1538 JUMP JUMPDEST PUSH1 0x0 JUMPDEST DUP3 DUP2 LT ISZERO PUSH2 0x177A JUMPI DUP5 DUP10 ADD MLOAD DUP3 SSTORE PUSH1 0x1 DUP3 ADD SWAP2 POP PUSH1 0x20 DUP6 ADD SWAP5 POP PUSH1 0x20 DUP2 ADD SWAP1 POP PUSH2 0x1755 JUMP JUMPDEST DUP7 DUP4 LT ISZERO PUSH2 0x1797 JUMPI DUP5 DUP10 ADD MLOAD PUSH2 0x1793 PUSH1 0x1F DUP10 AND DUP3 PUSH2 0x16A0 JUMP JUMPDEST DUP4 SSTORE POP JUMPDEST PUSH1 0x1 PUSH1 0x2 DUP9 MUL ADD DUP9 SSTORE POP POP POP JUMPDEST POP POP POP POP POP POP JUMP INVALID LOG2 PUSH5 0x6970667358 0x22 SLT KECCAK256 XOR 0xF9 0xF6 0x2F BASEFEE 0xEF REVERT PUSH7 0x44060EF6EBACC3 PUSH13 0xE5AE10E3606AA50F8C270063B3 0xC4 SSTORE 0x25 PUSH5 0x736F6C6343 STOP ADDMOD NOT STOP CALLER "
				},
				"gasEstimates": {
					"creation": {
						"codeDepositCost": "1222800",
						"executionCost": "infinite",
						"totalCost": "infinite"
					},
					"external": {
						"confirmOrder(uint256)": "infinite",
						"getOrder(uint256)": "infinite",
						"orderBeverage(string)": "infinite",
						"orders(uint256)": "infinite",
						"owner()": "2611",
						"pricePerBeverage()": "2517",
						"renounceOwnership()": "infinite",
						"setBeverageValidity(string,bool)": "infinite",
						"tokenContract()": "infinite",
						"transferOwnership(address)": "infinite",
						"validBeverages(string)": "infinite"
					}
				},
				"methodIdentifiers": {
					"confirmOrder(uint256)": "8ac7d79c",
					"getOrder(uint256)": "d09ef241",
					"orderBeverage(string)": "fa47fd60",
					"orders(uint256)": "a85c38ef",
					"owner()": "8da5cb5b",
					"pricePerBeverage()": "f9f847dd",
					"renounceOwnership()": "715018a6",
					"setBeverageValidity(string,bool)": "d3fa59cf",
					"tokenContract()": "55a373d6",
					"transferOwnership(address)": "f2fde38b",
					"validBeverages(string)": "2ff71f3a"
				}
			},
			"storageLayout": {
				"storage": [
					{
						"astId": 8,
						"contract": "contracts/6_Ordering.sol:BeverageOrdering",
						"label": "_owner",
						"offset": 0,
						"slot": "0",
						"type": "t_address"
					},
					{
						"astId": 266,
						"contract": "contracts/6_Ordering.sol:BeverageOrdering",
						"label": "tokenContract",
						"offset": 0,
						"slot": "1",
						"type": "t_contract(IERC20)225"
					},
					{
						"astId": 269,
						"contract": "contracts/6_Ordering.sol:BeverageOrdering",
						"label": "pricePerBeverage",
						"offset": 0,
						"slot": "2",
						"type": "t_uint256"
					},
					{
						"astId": 280,
						"contract": "contracts/6_Ordering.sol:BeverageOrdering",
						"label": "orders",
						"offset": 0,
						"slot": "3",
						"type": "t_array(t_struct(Order)276_storage)dyn_storage"
					},
					{
						"astId": 284,
						"contract": "contracts/6_Ordering.sol:BeverageOrdering",
						"label": "validBeverages",
						"offset": 0,
						"slot": "4",
						"type": "t_mapping(t_string_memory_ptr,t_bool)"
					}
				],
				"types": {
					"t_address": {
						"encoding": "inplace",
						"label": "address",
						"numberOfBytes": "20"
					},
					"t_array(t_struct(Order)276_storage)dyn_storage": {
						"base": "t_struct(Order)276_storage",
						"encoding": "dynamic_array",
						"label": "struct BeverageOrdering.Order[]",
						"numberOfBytes": "32"
					},
					"t_bool": {
						"encoding": "inplace",
						"label": "bool",
						"numberOfBytes": "1"
					},
					"t_contract(IERC20)225": {
						"encoding": "inplace",
						"label": "contract IERC20",
						"numberOfBytes": "20"
					},
					"t_mapping(t_string_memory_ptr,t_bool)": {
						"encoding": "mapping",
						"key": "t_string_memory_ptr",
						"label": "mapping(string => bool)",
						"numberOfBytes": "32",
						"value": "t_bool"
					},
					"t_string_memory_ptr": {
						"encoding": "bytes",
						"label": "string",
						"numberOfBytes": "32"
					},
					"t_string_storage": {
						"encoding": "bytes",
						"label": "string",
						"numberOfBytes": "32"
					},
					"t_struct(Order)276_storage": {
						"encoding": "inplace",
						"label": "struct BeverageOrdering.Order",
						"members": [
							{
								"astId": 271,
								"contract": "contracts/6_Ordering.sol:BeverageOrdering",
								"label": "customer",
								"offset": 0,
								"slot": "0",
								"type": "t_address"
							},
							{
								"astId": 273,
								"contract": "contracts/6_Ordering.sol:BeverageOrdering",
								"label": "beverage",
								"offset": 0,
								"slot": "1",
								"type": "t_string_storage"
							},
							{
								"astId": 275,
								"contract": "contracts/6_Ordering.sol:BeverageOrdering",
								"label": "fulfilled",
								"offset": 0,
								"slot": "2",
								"type": "t_bool"
							}
						],
						"numberOfBytes": "96"
					},
					"t_uint256": {
						"encoding": "inplace",
						"label": "uint256",
						"numberOfBytes": "32"
					}
				}
			},
			"userdoc": {
				"kind": "user",
				"methods": {},
				"version": 1
			}
		}
	}
}