{
	"contracts/4_PLZNFT.sol": {
		"PLZNFT": {
			"abi": [
				{
					"inputs": [],
					"stateMutability": "nonpayable",
					"type": "constructor"
				},
				{
					"inputs": [
						{
							"internalType": "address",
							"name": "sender",
							"type": "address"
						},
						{
							"internalType": "uint256",
							"name": "tokenId",
							"type": "uint256"
						},
						{
							"internalType": "address",
							"name": "owner",
							"type": "address"
						}
					],
					"name": "ERC721IncorrectOwner",
					"type": "error"
				},
				{
					"inputs": [
						{
							"internalType": "address",
							"name": "operator",
							"type": "address"
						},
						{
							"internalType": "uint256",
							"name": "tokenId",
							"type": "uint256"
						}
					],
					"name": "ERC721InsufficientApproval",
					"type": "error"
				},
				{
					"inputs": [
						{
							"internalType": "address",
							"name": "approver",
							"type": "address"
						}
					],
					"name": "ERC721InvalidApprover",
					"type": "error"
				},
				{
					"inputs": [
						{
							"internalType": "address",
							"name": "operator",
							"type": "address"
						}
					],
					"name": "ERC721InvalidOperator",
					"type": "error"
				},
				{
					"inputs": [
						{
							"internalType": "address",
							"name": "owner",
							"type": "address"
						}
					],
					"name": "ERC721InvalidOwner",
					"type": "error"
				},
				{
					"inputs": [
						{
							"internalType": "address",
							"name": "receiver",
							"type": "address"
						}
					],
					"name": "ERC721InvalidReceiver",
					"type": "error"
				},
				{
					"inputs": [
						{
							"internalType": "address",
							"name": "sender",
							"type": "address"
						}
					],
					"name": "ERC721InvalidSender",
					"type": "error"
				},
				{
					"inputs": [
						{
							"internalType": "uint256",
							"name": "tokenId",
							"type": "uint256"
						}
					],
					"name": "ERC721NonexistentToken",
					"type": "error"
				},
				{
					"inputs": [
						{
							"internalType": "address",
							"name": "owner",
							"type": "address"
						}
					],
					"name": "OwnableInvalidOwner",
					"type": "error"
				},
				{
					"inputs": [
						{
							"internalType": "address",
							"name": "account",
							"type": "address"
						}
					],
					"name": "OwnableUnauthorizedAccount",
					"type": "error"
				},
				{
					"anonymous": false,
					"inputs": [
						{
							"indexed": true,
							"internalType": "address",
							"name": "owner",
							"type": "address"
						},
						{
							"indexed": true,
							"internalType": "address",
							"name": "approved",
							"type": "address"
						},
						{
							"indexed": true,
							"internalType": "uint256",
							"name": "tokenId",
							"type": "uint256"
						}
					],
					"name": "Approval",
					"type": "event"
				},
				{
					"anonymous": false,
					"inputs": [
						{
							"indexed": true,
							"internalType": "address",
							"name": "owner",
							"type": "address"
						},
						{
							"indexed": true,
							"internalType": "address",
							"name": "operator",
							"type": "address"
						},
						{
							"indexed": false,
							"internalType": "bool",
							"name": "approved",
							"type": "bool"
						}
					],
					"name": "ApprovalForAll",
					"type": "event"
				},
				{
					"anonymous": false,
					"inputs": [
						{
							"indexed": false,
							"internalType": "uint256",
							"name": "_fromTokenId",
							"type": "uint256"
						},
						{
							"indexed": false,
							"internalType": "uint256",
							"name": "_toTokenId",
							"type": "uint256"
						}
					],
					"name": "BatchMetadataUpdate",
					"type": "event"
				},
				{
					"anonymous": false,
					"inputs": [
						{
							"indexed": false,
							"internalType": "uint256",
							"name": "_tokenId",
							"type": "uint256"
						}
					],
					"name": "MetadataUpdate",
					"type": "event"
				},
				{
					"anonymous": false,
					"inputs": [
						{
							"indexed": true,
							"internalType": "address",
							"name": "previousOwner",
							"type": "address"
						},
						{
							"indexed": true,
							"internalType": "address",
							"name": "newOwner",
							"type": "address"
						}
					],
					"name": "OwnershipTransferred",
					"type": "event"
				},
				{
					"anonymous": false,
					"inputs": [
						{
							"indexed": true,
							"internalType": "address",
							"name": "from",
							"type": "address"
						},
						{
							"indexed": true,
							"internalType": "address",
							"name": "to",
							"type": "address"
						},
						{
							"indexed": true,
							"internalType": "uint256",
							"name": "tokenId",
							"type": "uint256"
						}
					],
					"name": "Transfer",
					"type": "event"
				},
				{
					"inputs": [
						{
							"internalType": "address",
							"name": "",
							"type": "address"
						},
						{
							"internalType": "uint256",
							"name": "",
							"type": "uint256"
						}
					],
					"name": "approve",
					"outputs": [],
					"stateMutability": "view",
					"type": "function"
				},
				{
					"inputs": [
						{
							"internalType": "address",
							"name": "owner",
							"type": "address"
						}
					],
					"name": "balanceOf",
					"outputs": [
						{
							"internalType": "uint256",
							"name": "",
							"type": "uint256"
						}
					],
					"stateMutability": "view",
					"type": "function"
				},
				{
					"inputs": [],
					"name": "deposit",
					"outputs": [],
					"stateMutability": "payable",
					"type": "function"
				},
				{
					"inputs": [
						{
							"internalType": "uint256",
							"name": "tokenId",
							"type": "uint256"
						}
					],
					"name": "getApproved",
					"outputs": [
						{
							"internalType": "address",
							"name": "",
							"type": "address"
						}
					],
					"stateMutability": "view",
					"type": "function"
				},
				{
					"inputs": [
						{
							"internalType": "address",
							"name": "owner",
							"type": "address"
						},
						{
							"internalType": "address",
							"name": "operator",
							"type": "address"
						}
					],
					"name": "isApprovedForAll",
					"outputs": [
						{
							"internalType": "bool",
							"name": "",
							"type": "bool"
						}
					],
					"stateMutability": "view",
					"type": "function"
				},
				{
					"inputs": [
						{
							"internalType": "address",
							"name": "recipient",
							"type": "address"
						},
						{
							"internalType": "string",
							"name": "tokenURI",
							"type": "string"
						}
					],
					"name": "mintAndTransfer",
					"outputs": [],
					"stateMutability": "nonpayable",
					"type": "function"
				},
				{
					"inputs": [],
					"name": "name",
					"outputs": [
						{
							"internalType": "string",
							"name": "",
							"type": "string"
						}
					],
					"stateMutability": "view",
					"type": "function"
				},
				{
					"inputs": [],
					"name": "owner",
					"outputs": [
						{
							"internalType": "address",
							"name": "",
							"type": "address"
						}
					],
					"stateMutability": "view",
					"type": "function"
				},
				{
					"inputs": [
						{
							"internalType": "uint256",
							"name": "tokenId",
							"type": "uint256"
						}
					],
					"name": "ownerOf",
					"outputs": [
						{
							"internalType": "address",
							"name": "",
							"type": "address"
						}
					],
					"stateMutability": "view",
					"type": "function"
				},
				{
					"inputs": [],
					"name": "renounceOwnership",
					"outputs": [],
					"stateMutability": "view",
					"type": "function"
				},
				{
					"inputs": [
						{
							"internalType": "address",
							"name": "from",
							"type": "address"
						},
						{
							"internalType": "address",
							"name": "to",
							"type": "address"
						},
						{
							"internalType": "uint256",
							"name": "tokenId",
							"type": "uint256"
						}
					],
					"name": "safeTransferFrom",
					"outputs": [],
					"stateMutability": "nonpayable",
					"type": "function"
				},
				{
					"inputs": [
						{
							"internalType": "address",
							"name": "from",
							"type": "address"
						},
						{
							"internalType": "address",
							"name": "to",
							"type": "address"
						},
						{
							"internalType": "uint256",
							"name": "tokenId",
							"type": "uint256"
						},
						{
							"internalType": "bytes",
							"name": "data",
							"type": "bytes"
						}
					],
					"name": "safeTransferFrom",
					"outputs": [],
					"stateMutability": "nonpayable",
					"type": "function"
				},
				{
					"inputs": [
						{
							"internalType": "address",
							"name": "",
							"type": "address"
						},
						{
							"internalType": "bool",
							"name": "",
							"type": "bool"
						}
					],
					"name": "setApprovalForAll",
					"outputs": [],
					"stateMutability": "view",
					"type": "function"
				},
				{
					"inputs": [
						{
							"internalType": "bytes4",
							"name": "interfaceId",
							"type": "bytes4"
						}
					],
					"name": "supportsInterface",
					"outputs": [
						{
							"internalType": "bool",
							"name": "",
							"type": "bool"
						}
					],
					"stateMutability": "view",
					"type": "function"
				},
				{
					"inputs": [],
					"name": "symbol",
					"outputs": [
						{
							"internalType": "string",
							"name": "",
							"type": "string"
						}
					],
					"stateMutability": "view",
					"type": "function"
				},
				{
					"inputs": [
						{
							"internalType": "uint256",
							"name": "tokenId",
							"type": "uint256"
						}
					],
					"name": "tokenURI",
					"outputs": [
						{
							"internalType": "string",
							"name": "",
							"type": "string"
						}
					],
					"stateMutability": "view",
					"type": "function"
				},
				{
					"inputs": [
						{
							"internalType": "address",
							"name": "",
							"type": "address"
						},
						{
							"internalType": "address",
							"name": "",
							"type": "address"
						},
						{
							"internalType": "uint256",
							"name": "",
							"type": "uint256"
						}
					],
					"name": "transferFrom",
					"outputs": [],
					"stateMutability": "view",
					"type": "function"
				},
				{
					"inputs": [
						{
							"internalType": "address",
							"name": "",
							"type": "address"
						}
					],
					"name": "transferOwnership",
					"outputs": [],
					"stateMutability": "view",
					"type": "function"
				},
				{
					"stateMutability": "payable",
					"type": "receive"
				}
			],
			"devdoc": {
				"errors": {
					"ERC721IncorrectOwner(address,uint256,address)": [
						{
							"details": "Indicates an error related to the ownership over a particular token. Used in transfers.",
							"params": {
								"owner": "Address of the current owner of a token.",
								"sender": "Address whose tokens are being transferred.",
								"tokenId": "Identifier number of a token."
							}
						}
					],
					"ERC721InsufficientApproval(address,uint256)": [
						{
							"details": "Indicates a failure with the `operator`’s approval. Used in transfers.",
							"params": {
								"operator": "Address that may be allowed to operate on tokens without being their owner.",
								"tokenId": "Identifier number of a token."
							}
						}
					],
					"ERC721InvalidApprover(address)": [
						{
							"details": "Indicates a failure with the `approver` of a token to be approved. Used in approvals.",
							"params": {
								"approver": "Address initiating an approval operation."
							}
						}
					],
					"ERC721InvalidOperator(address)": [
						{
							"details": "Indicates a failure with the `operator` to be approved. Used in approvals.",
							"params": {
								"operator": "Address that may be allowed to operate on tokens without being their owner."
							}
						}
					],
					"ERC721InvalidOwner(address)": [
						{
							"details": "Indicates that an address can't be an owner. For example, `address(0)` is a forbidden owner in EIP-20. Used in balance queries.",
							"params": {
								"owner": "Address of the current owner of a token."
							}
						}
					],
					"ERC721InvalidReceiver(address)": [
						{
							"details": "Indicates a failure with the token `receiver`. Used in transfers.",
							"params": {
								"receiver": "Address to which tokens are being transferred."
							}
						}
					],
					"ERC721InvalidSender(address)": [
						{
							"details": "Indicates a failure with the token `sender`. Used in transfers.",
							"params": {
								"sender": "Address whose tokens are being transferred."
							}
						}
					],
					"ERC721NonexistentToken(uint256)": [
						{
							"details": "Indicates a `tokenId` whose `owner` is the zero address.",
							"params": {
								"tokenId": "Identifier number of a token."
							}
						}
					],
					"OwnableInvalidOwner(address)": [
						{
							"details": "The owner is not a valid owner account. (eg. `address(0)`)"
						}
					],
					"OwnableUnauthorizedAccount(address)": [
						{
							"details": "The caller account is not authorized to perform an operation."
						}
					]
				},
				"events": {
					"Approval(address,address,uint256)": {
						"details": "Emitted when `owner` enables `approved` to manage the `tokenId` token."
					},
					"ApprovalForAll(address,address,bool)": {
						"details": "Emitted when `owner` enables or disables (`approved`) `operator` to manage all of its assets."
					},
					"BatchMetadataUpdate(uint256,uint256)": {
						"details": "This event emits when the metadata of a range of tokens is changed. So that the third-party platforms such as NFT market could timely update the images and related attributes of the NFTs."
					},
					"MetadataUpdate(uint256)": {
						"details": "This event emits when the metadata of a token is changed. So that the third-party platforms such as NFT market could timely update the images and related attributes of the NFT."
					},
					"Transfer(address,address,uint256)": {
						"details": "Emitted when `tokenId` token is transferred from `from` to `to`."
					}
				},
				"kind": "dev",
				"methods": {
					"balanceOf(address)": {
						"details": "See {IERC721-balanceOf}."
					},
					"getApproved(uint256)": {
						"details": "See {IERC721-getApproved}."
					},
					"isApprovedForAll(address,address)": {
						"details": "See {IERC721-isApprovedForAll}."
					},
					"name()": {
						"details": "See {IERC721Metadata-name}."
					},
					"owner()": {
						"details": "Returns the address of the current owner."
					},
					"ownerOf(uint256)": {
						"details": "See {IERC721-ownerOf}."
					},
					"renounceOwnership()": {
						"details": "Leaves the contract without owner. It will not be possible to call `onlyOwner` functions. Can only be called by the current owner. NOTE: Renouncing ownership will leave the contract without an owner, thereby disabling any functionality that is only available to the owner."
					},
					"safeTransferFrom(address,address,uint256)": {
						"details": "See {IERC721-safeTransferFrom}."
					},
					"safeTransferFrom(address,address,uint256,bytes)": {
						"details": "See {IERC721-safeTransferFrom}."
					},
					"supportsInterface(bytes4)": {
						"details": "See {IERC165-supportsInterface}"
					},
					"symbol()": {
						"details": "See {IERC721Metadata-symbol}."
					},
					"tokenURI(uint256)": {
						"details": "See {IERC721Metadata-tokenURI}."
					}
				},
				"version": 1
			},
			"evm": {
				"assembly": "    /* \"contracts/4_PLZNFT.sol\":249:2515  contract PLZNFT is ERC721URIStorage, Ownable(msg.sender) {... */\n  mstore(0x40, 0x80)\n    /* \"contracts/4_PLZNFT.sol\":346:347  1 */\n  0x01\n    /* \"contracts/4_PLZNFT.sol\":312:347  uint256 private _tokenIdCounter = 1 */\n  0x08\n  sstore\n    /* \"contracts/4_PLZNFT.sol\":354:397  constructor() ERC721(\"PLZNFT\", \"PLZNFT\") {} */\n  callvalue\n  dup1\n  iszero\n  tag_1\n  jumpi\n  0x00\n  dup1\n  revert\ntag_1:\n  pop\n    /* \"contracts/4_PLZNFT.sol\":294:304  msg.sender */\n  caller\n    /* \"@openzeppelin/contracts/token/ERC721/ERC721.sol\":1381:1494  constructor(string memory name_, string memory symbol_) {... */\n  mload(0x40)\n  dup1\n  0x40\n  add\n  0x40\n  mstore\n  dup1\n  0x06\n  dup2\n  mstore\n  0x20\n  add\n  0x504c5a4e46540000000000000000000000000000000000000000000000000000\n  dup2\n  mstore\n  pop\n  mload(0x40)\n  dup1\n  0x40\n  add\n  0x40\n  mstore\n  dup1\n  0x06\n  dup2\n  mstore\n  0x20\n  add\n  0x504c5a4e46540000000000000000000000000000000000000000000000000000\n  dup2\n  mstore\n  pop\n    /* \"@openzeppelin/contracts/token/ERC721/ERC721.sol\":1455:1460  name_ */\n  dup2\n    /* \"@openzeppelin/contracts/token/ERC721/ERC721.sol\":1447:1452  _name */\n  0x00\n    /* \"@openzeppelin/contracts/token/ERC721/ERC721.sol\":1447:1460  _name = name_ */\n  swap1\n  dup2\n  tag_6\n  swap2\n  swap1\n  tag_7\n  jump\t// in\ntag_6:\n  pop\n    /* \"@openzeppelin/contracts/token/ERC721/ERC721.sol\":1480:1487  symbol_ */\n  dup1\n    /* \"@openzeppelin/contracts/token/ERC721/ERC721.sol\":1470:1477  _symbol */\n  0x01\n    /* \"@openzeppelin/contracts/token/ERC721/ERC721.sol\":1470:1487  _symbol = symbol_ */\n  swap1\n  dup2\n  tag_8\n  swap2\n  swap1\n  tag_7\n  jump\t// in\ntag_8:\n  pop\n    /* \"@openzeppelin/contracts/token/ERC721/ERC721.sol\":1381:1494  constructor(string memory name_, string memory symbol_) {... */\n  pop\n  pop\n    /* \"@openzeppelin/contracts/access/Ownable.sol\":1297:1298  0 */\n  0x00\n    /* \"@openzeppelin/contracts/access/Ownable.sol\":1273:1299  initialOwner == address(0) */\n  0xffffffffffffffffffffffffffffffffffffffff\n  and\n    /* \"@openzeppelin/contracts/access/Ownable.sol\":1273:1285  initialOwner */\n  dup2\n    /* \"@openzeppelin/contracts/access/Ownable.sol\":1273:1299  initialOwner == address(0) */\n  0xffffffffffffffffffffffffffffffffffffffff\n  and\n  sub\n    /* \"@openzeppelin/contracts/access/Ownable.sol\":1269:1364  if (initialOwner == address(0)) {... */\n  tag_10\n  jumpi\n    /* \"@openzeppelin/contracts/access/Ownable.sol\":1350:1351  0 */\n  0x00\n    /* \"@openzeppelin/contracts/access/Ownable.sol\":1322:1353  OwnableInvalidOwner(address(0)) */\n  mload(0x40)\n  0x1e4fbdf700000000000000000000000000000000000000000000000000000000\n  dup2\n  mstore\n  0x04\n  add\n  tag_11\n  swap2\n  swap1\n  tag_12\n  jump\t// in\ntag_11:\n  mload(0x40)\n  dup1\n  swap2\n  sub\n  swap1\n  revert\n    /* \"@openzeppelin/contracts/access/Ownable.sol\":1269:1364  if (initialOwner == address(0)) {... */\ntag_10:\n    /* \"@openzeppelin/contracts/access/Ownable.sol\":1373:1405  _transferOwnership(initialOwner) */\n  tag_13\n    /* \"@openzeppelin/contracts/access/Ownable.sol\":1392:1404  initialOwner */\n  dup2\n    /* \"@openzeppelin/contracts/access/Ownable.sol\":1373:1391  _transferOwnership */\n  shl(0x20, tag_14)\n    /* \"@openzeppelin/contracts/access/Ownable.sol\":1373:1405  _transferOwnership(initialOwner) */\n  0x20\n  shr\n  jump\t// in\ntag_13:\n    /* \"@openzeppelin/contracts/access/Ownable.sol\":1225:1412  constructor(address initialOwner) {... */\n  pop\n    /* \"contracts/4_PLZNFT.sol\":249:2515  contract PLZNFT is ERC721URIStorage, Ownable(msg.sender) {... */\n  jump(tag_16)\n    /* \"@openzeppelin/contracts/access/Ownable.sol\":2912:3099  function _transferOwnership(address newOwner) internal virtual {... */\ntag_14:\n    /* \"@openzeppelin/contracts/access/Ownable.sol\":2985:3001  address oldOwner */\n  0x00\n    /* \"@openzeppelin/contracts/access/Ownable.sol\":3004:3010  _owner */\n  0x07\n  0x00\n  swap1\n  sload\n  swap1\n  0x0100\n  exp\n  swap1\n  div\n  0xffffffffffffffffffffffffffffffffffffffff\n  and\n    /* \"@openzeppelin/contracts/access/Ownable.sol\":2985:3010  address oldOwner = _owner */\n  swap1\n  pop\n    /* \"@openzeppelin/contracts/access/Ownable.sol\":3029:3037  newOwner */\n  dup2\n    /* \"@openzeppelin/contracts/access/Ownable.sol\":3020:3026  _owner */\n  0x07\n  0x00\n    /* \"@openzeppelin/contracts/access/Ownable.sol\":3020:3037  _owner = newOwner */\n  0x0100\n  exp\n  dup2\n  sload\n  dup2\n  0xffffffffffffffffffffffffffffffffffffffff\n  mul\n  not\n  and\n  swap1\n  dup4\n  0xffffffffffffffffffffffffffffffffffffffff\n  and\n  mul\n  or\n  swap1\n  sstore\n  pop\n    /* \"@openzeppelin/contracts/access/Ownable.sol\":3083:3091  newOwner */\n  dup2\n    /* \"@openzeppelin/contracts/access/Ownable.sol\":3052:3092  OwnershipTransferred(oldOwner, newOwner) */\n  0xffffffffffffffffffffffffffffffffffffffff\n  and\n    /* \"@openzeppelin/contracts/access/Ownable.sol\":3073:3081  oldOwner */\n  dup2\n    /* \"@openzeppelin/contracts/access/Ownable.sol\":3052:3092  OwnershipTransferred(oldOwner, newOwner) */\n  0xffffffffffffffffffffffffffffffffffffffff\n  and\n  0x8be0079c531659141344cd1fd0a4f28419497f9722a3daafe3b4186f6b6457e0\n  mload(0x40)\n  mload(0x40)\n  dup1\n  swap2\n  sub\n  swap1\n  log3\n    /* \"@openzeppelin/contracts/access/Ownable.sol\":2975:3099  {... */\n  pop\n    /* \"@openzeppelin/contracts/access/Ownable.sol\":2912:3099  function _transferOwnership(address newOwner) internal virtual {... */\n  pop\n  jump\t// out\n    /* \"#utility.yul\":7:106   */\ntag_18:\n    /* \"#utility.yul\":59:65   */\n  0x00\n    /* \"#utility.yul\":93:98   */\n  dup2\n    /* \"#utility.yul\":87:99   */\n  mload\n    /* \"#utility.yul\":77:99   */\n  swap1\n  pop\n    /* \"#utility.yul\":7:106   */\n  swap2\n  swap1\n  pop\n  jump\t// out\n    /* \"#utility.yul\":112:292   */\ntag_19:\n    /* \"#utility.yul\":160:237   */\n  0x4e487b7100000000000000000000000000000000000000000000000000000000\n    /* \"#utility.yul\":157:158   */\n  0x00\n    /* \"#utility.yul\":150:238   */\n  mstore\n    /* \"#utility.yul\":257:261   */\n  0x41\n    /* \"#utility.yul\":254:255   */\n  0x04\n    /* \"#utility.yul\":247:262   */\n  mstore\n    /* \"#utility.yul\":281:285   */\n  0x24\n    /* \"#utility.yul\":278:279   */\n  0x00\n    /* \"#utility.yul\":271:286   */\n  revert\n    /* \"#utility.yul\":298:478   */\ntag_20:\n    /* \"#utility.yul\":346:423   */\n  0x4e487b7100000000000000000000000000000000000000000000000000000000\n    /* \"#utility.yul\":343:344   */\n  0x00\n    /* \"#utility.yul\":336:424   */\n  mstore\n    /* \"#utility.yul\":443:447   */\n  0x22\n    /* \"#utility.yul\":440:441   */\n  0x04\n    /* \"#utility.yul\":433:448   */\n  mstore\n    /* \"#utility.yul\":467:471   */\n  0x24\n    /* \"#utility.yul\":464:465   */\n  0x00\n    /* \"#utility.yul\":457:472   */\n  revert\n    /* \"#utility.yul\":484:804   */\ntag_21:\n    /* \"#utility.yul\":528:534   */\n  0x00\n    /* \"#utility.yul\":565:566   */\n  0x02\n    /* \"#utility.yul\":559:563   */\n  dup3\n    /* \"#utility.yul\":555:567   */\n  div\n    /* \"#utility.yul\":545:567   */\n  swap1\n  pop\n    /* \"#utility.yul\":612:613   */\n  0x01\n    /* \"#utility.yul\":606:610   */\n  dup3\n    /* \"#utility.yul\":602:614   */\n  and\n    /* \"#utility.yul\":633:651   */\n  dup1\n    /* \"#utility.yul\":623:704   */\n  tag_46\n  jumpi\n    /* \"#utility.yul\":689:693   */\n  0x7f\n    /* \"#utility.yul\":681:687   */\n  dup3\n    /* \"#utility.yul\":677:694   */\n  and\n    /* \"#utility.yul\":667:694   */\n  swap2\n  pop\n    /* \"#utility.yul\":623:704   */\ntag_46:\n    /* \"#utility.yul\":751:753   */\n  0x20\n    /* \"#utility.yul\":743:749   */\n  dup3\n    /* \"#utility.yul\":740:754   */\n  lt\n    /* \"#utility.yul\":720:738   */\n  dup2\n    /* \"#utility.yul\":717:755   */\n  sub\n    /* \"#utility.yul\":714:798   */\n  tag_47\n  jumpi\n    /* \"#utility.yul\":770:788   */\n  tag_48\n  tag_20\n  jump\t// in\ntag_48:\n    /* \"#utility.yul\":714:798   */\ntag_47:\n    /* \"#utility.yul\":535:804   */\n  pop\n    /* \"#utility.yul\":484:804   */\n  swap2\n  swap1\n  pop\n  jump\t// out\n    /* \"#utility.yul\":810:951   */\ntag_22:\n    /* \"#utility.yul\":859:863   */\n  0x00\n    /* \"#utility.yul\":882:885   */\n  dup2\n    /* \"#utility.yul\":874:885   */\n  swap1\n  pop\n    /* \"#utility.yul\":905:908   */\n  dup2\n    /* \"#utility.yul\":902:903   */\n  0x00\n    /* \"#utility.yul\":895:909   */\n  mstore\n    /* \"#utility.yul\":939:943   */\n  0x20\n    /* \"#utility.yul\":936:937   */\n  0x00\n    /* \"#utility.yul\":926:944   */\n  keccak256\n    /* \"#utility.yul\":918:944   */\n  swap1\n  pop\n    /* \"#utility.yul\":810:951   */\n  swap2\n  swap1\n  pop\n  jump\t// out\n    /* \"#utility.yul\":957:1050   */\ntag_23:\n    /* \"#utility.yul\":994:1000   */\n  0x00\n    /* \"#utility.yul\":1041:1043   */\n  0x20\n    /* \"#utility.yul\":1036:1038   */\n  0x1f\n    /* \"#utility.yul\":1029:1034   */\n  dup4\n    /* \"#utility.yul\":1025:1039   */\n  add\n    /* \"#utility.yul\":1021:1044   */\n  div\n    /* \"#utility.yul\":1011:1044   */\n  swap1\n  pop\n    /* \"#utility.yul\":957:1050   */\n  swap2\n  swap1\n  pop\n  jump\t// out\n    /* \"#utility.yul\":1056:1163   */\ntag_24:\n    /* \"#utility.yul\":1100:1108   */\n  0x00\n    /* \"#utility.yul\":1150:1155   */\n  dup3\n    /* \"#utility.yul\":1144:1148   */\n  dup3\n    /* \"#utility.yul\":1140:1156   */\n  shl\n    /* \"#utility.yul\":1119:1156   */\n  swap1\n  pop\n    /* \"#utility.yul\":1056:1163   */\n  swap3\n  swap2\n  pop\n  pop\n  jump\t// out\n    /* \"#utility.yul\":1169:1562   */\ntag_25:\n    /* \"#utility.yul\":1238:1244   */\n  0x00\n    /* \"#utility.yul\":1288:1289   */\n  0x08\n    /* \"#utility.yul\":1276:1286   */\n  dup4\n    /* \"#utility.yul\":1272:1290   */\n  mul\n    /* \"#utility.yul\":1311:1408   */\n  tag_53\n    /* \"#utility.yul\":1341:1407   */\n  0xffffffffffffffffffffffffffffffffffffffffffffffffffffffffffffffff\n    /* \"#utility.yul\":1330:1339   */\n  dup3\n    /* \"#utility.yul\":1311:1408   */\n  tag_24\n  jump\t// in\ntag_53:\n    /* \"#utility.yul\":1429:1468   */\n  tag_54\n    /* \"#utility.yul\":1459:1467   */\n  dup7\n    /* \"#utility.yul\":1448:1457   */\n  dup4\n    /* \"#utility.yul\":1429:1468   */\n  tag_24\n  jump\t// in\ntag_54:\n    /* \"#utility.yul\":1417:1468   */\n  swap6\n  pop\n    /* \"#utility.yul\":1501:1505   */\n  dup1\n    /* \"#utility.yul\":1497:1506   */\n  not\n    /* \"#utility.yul\":1490:1495   */\n  dup5\n    /* \"#utility.yul\":1486:1507   */\n  and\n    /* \"#utility.yul\":1477:1507   */\n  swap4\n  pop\n    /* \"#utility.yul\":1550:1554   */\n  dup1\n    /* \"#utility.yul\":1540:1548   */\n  dup7\n    /* \"#utility.yul\":1536:1555   */\n  and\n    /* \"#utility.yul\":1529:1534   */\n  dup5\n    /* \"#utility.yul\":1526:1556   */\n  or\n    /* \"#utility.yul\":1516:1556   */\n  swap3\n  pop\n    /* \"#utility.yul\":1245:1562   */\n  pop\n  pop\n    /* \"#utility.yul\":1169:1562   */\n  swap4\n  swap3\n  pop\n  pop\n  pop\n  jump\t// out\n    /* \"#utility.yul\":1568:1645   */\ntag_26:\n    /* \"#utility.yul\":1605:1612   */\n  0x00\n    /* \"#utility.yul\":1634:1639   */\n  dup2\n    /* \"#utility.yul\":1623:1639   */\n  swap1\n  pop\n    /* \"#utility.yul\":1568:1645   */\n  swap2\n  swap1\n  pop\n  jump\t// out\n    /* \"#utility.yul\":1651:1711   */\ntag_27:\n    /* \"#utility.yul\":1679:1682   */\n  0x00\n    /* \"#utility.yul\":1700:1705   */\n  dup2\n    /* \"#utility.yul\":1693:1705   */\n  swap1\n  pop\n    /* \"#utility.yul\":1651:1711   */\n  swap2\n  swap1\n  pop\n  jump\t// out\n    /* \"#utility.yul\":1717:1859   */\ntag_28:\n    /* \"#utility.yul\":1767:1776   */\n  0x00\n    /* \"#utility.yul\":1800:1853   */\n  tag_58\n    /* \"#utility.yul\":1818:1852   */\n  tag_59\n    /* \"#utility.yul\":1827:1851   */\n  tag_60\n    /* \"#utility.yul\":1845:1850   */\n  dup5\n    /* \"#utility.yul\":1827:1851   */\n  tag_26\n  jump\t// in\ntag_60:\n    /* \"#utility.yul\":1818:1852   */\n  tag_27\n  jump\t// in\ntag_59:\n    /* \"#utility.yul\":1800:1853   */\n  tag_26\n  jump\t// in\ntag_58:\n    /* \"#utility.yul\":1787:1853   */\n  swap1\n  pop\n    /* \"#utility.yul\":1717:1859   */\n  swap2\n  swap1\n  pop\n  jump\t// out\n    /* \"#utility.yul\":1865:1940   */\ntag_29:\n    /* \"#utility.yul\":1908:1911   */\n  0x00\n    /* \"#utility.yul\":1929:1934   */\n  dup2\n    /* \"#utility.yul\":1922:1934   */\n  swap1\n  pop\n    /* \"#utility.yul\":1865:1940   */\n  swap2\n  swap1\n  pop\n  jump\t// out\n    /* \"#utility.yul\":1946:2215   */\ntag_30:\n    /* \"#utility.yul\":2056:2095   */\n  tag_63\n    /* \"#utility.yul\":2087:2094   */\n  dup4\n    /* \"#utility.yul\":2056:2095   */\n  tag_28\n  jump\t// in\ntag_63:\n    /* \"#utility.yul\":2117:2208   */\n  tag_64\n    /* \"#utility.yul\":2166:2207   */\n  tag_65\n    /* \"#utility.yul\":2190:2206   */\n  dup3\n    /* \"#utility.yul\":2166:2207   */\n  tag_29\n  jump\t// in\ntag_65:\n    /* \"#utility.yul\":2158:2164   */\n  dup5\n    /* \"#utility.yul\":2151:2155   */\n  dup5\n    /* \"#utility.yul\":2145:2156   */\n  sload\n    /* \"#utility.yul\":2117:2208   */\n  tag_25\n  jump\t// in\ntag_64:\n    /* \"#utility.yul\":2111:2115   */\n  dup3\n    /* \"#utility.yul\":2104:2209   */\n  sstore\n    /* \"#utility.yul\":2022:2215   */\n  pop\n    /* \"#utility.yul\":1946:2215   */\n  pop\n  pop\n  pop\n  jump\t// out\n    /* \"#utility.yul\":2221:2294   */\ntag_31:\n    /* \"#utility.yul\":2266:2269   */\n  0x00\n    /* \"#utility.yul\":2221:2294   */\n  swap1\n  jump\t// out\n    /* \"#utility.yul\":2300:2489   */\ntag_32:\n    /* \"#utility.yul\":2377:2409   */\n  tag_68\n  tag_31\n  jump\t// in\ntag_68:\n    /* \"#utility.yul\":2418:2483   */\n  tag_69\n    /* \"#utility.yul\":2476:2482   */\n  dup2\n    /* \"#utility.yul\":2468:2474   */\n  dup5\n    /* \"#utility.yul\":2462:2466   */\n  dup5\n    /* \"#utility.yul\":2418:2483   */\n  tag_30\n  jump\t// in\ntag_69:\n    /* \"#utility.yul\":2353:2489   */\n  pop\n    /* \"#utility.yul\":2300:2489   */\n  pop\n  pop\n  jump\t// out\n    /* \"#utility.yul\":2495:2681   */\ntag_33:\n    /* \"#utility.yul\":2555:2675   */\ntag_71:\n    /* \"#utility.yul\":2572:2575   */\n  dup2\n    /* \"#utility.yul\":2565:2570   */\n  dup2\n    /* \"#utility.yul\":2562:2576   */\n  lt\n    /* \"#utility.yul\":2555:2675   */\n  iszero\n  tag_73\n  jumpi\n    /* \"#utility.yul\":2626:2665   */\n  tag_74\n    /* \"#utility.yul\":2663:2664   */\n  0x00\n    /* \"#utility.yul\":2656:2661   */\n  dup3\n    /* \"#utility.yul\":2626:2665   */\n  tag_32\n  jump\t// in\ntag_74:\n    /* \"#utility.yul\":2599:2600   */\n  0x01\n    /* \"#utility.yul\":2592:2597   */\n  dup2\n    /* \"#utility.yul\":2588:2601   */\n  add\n    /* \"#utility.yul\":2579:2601   */\n  swap1\n  pop\n    /* \"#utility.yul\":2555:2675   */\n  jump(tag_71)\ntag_73:\n    /* \"#utility.yul\":2495:2681   */\n  pop\n  pop\n  jump\t// out\n    /* \"#utility.yul\":2687:3230   */\ntag_34:\n    /* \"#utility.yul\":2788:2790   */\n  0x1f\n    /* \"#utility.yul\":2783:2786   */\n  dup3\n    /* \"#utility.yul\":2780:2791   */\n  gt\n    /* \"#utility.yul\":2777:3223   */\n  iszero\n  tag_76\n  jumpi\n    /* \"#utility.yul\":2822:2860   */\n  tag_77\n    /* \"#utility.yul\":2854:2859   */\n  dup2\n    /* \"#utility.yul\":2822:2860   */\n  tag_22\n  jump\t// in\ntag_77:\n    /* \"#utility.yul\":2906:2935   */\n  tag_78\n    /* \"#utility.yul\":2924:2934   */\n  dup5\n    /* \"#utility.yul\":2906:2935   */\n  tag_23\n  jump\t// in\ntag_78:\n    /* \"#utility.yul\":2896:2904   */\n  dup2\n    /* \"#utility.yul\":2892:2936   */\n  add\n    /* \"#utility.yul\":3089:3091   */\n  0x20\n    /* \"#utility.yul\":3077:3087   */\n  dup6\n    /* \"#utility.yul\":3074:3092   */\n  lt\n    /* \"#utility.yul\":3071:3120   */\n  iszero\n  tag_79\n  jumpi\n    /* \"#utility.yul\":3110:3118   */\n  dup2\n    /* \"#utility.yul\":3095:3118   */\n  swap1\n  pop\n    /* \"#utility.yul\":3071:3120   */\ntag_79:\n    /* \"#utility.yul\":3133:3213   */\n  tag_80\n    /* \"#utility.yul\":3189:3211   */\n  tag_81\n    /* \"#utility.yul\":3207:3210   */\n  dup6\n    /* \"#utility.yul\":3189:3211   */\n  tag_23\n  jump\t// in\ntag_81:\n    /* \"#utility.yul\":3179:3187   */\n  dup4\n    /* \"#utility.yul\":3175:3212   */\n  add\n    /* \"#utility.yul\":3162:3173   */\n  dup3\n    /* \"#utility.yul\":3133:3213   */\n  tag_33\n  jump\t// in\ntag_80:\n    /* \"#utility.yul\":2792:3223   */\n  pop\n  pop\n    /* \"#utility.yul\":2777:3223   */\ntag_76:\n    /* \"#utility.yul\":2687:3230   */\n  pop\n  pop\n  pop\n  jump\t// out\n    /* \"#utility.yul\":3236:3353   */\ntag_35:\n    /* \"#utility.yul\":3290:3298   */\n  0x00\n    /* \"#utility.yul\":3340:3345   */\n  dup3\n    /* \"#utility.yul\":3334:3338   */\n  dup3\n    /* \"#utility.yul\":3330:3346   */\n  shr\n    /* \"#utility.yul\":3309:3346   */\n  swap1\n  pop\n    /* \"#utility.yul\":3236:3353   */\n  swap3\n  swap2\n  pop\n  pop\n  jump\t// out\n    /* \"#utility.yul\":3359:3528   */\ntag_36:\n    /* \"#utility.yul\":3403:3409   */\n  0x00\n    /* \"#utility.yul\":3436:3487   */\n  tag_84\n    /* \"#utility.yul\":3484:3485   */\n  0x00\n    /* \"#utility.yul\":3480:3486   */\n  not\n    /* \"#utility.yul\":3472:3477   */\n  dup5\n    /* \"#utility.yul\":3469:3470   */\n  0x08\n    /* \"#utility.yul\":3465:3478   */\n  mul\n    /* \"#utility.yul\":3436:3487   */\n  tag_35\n  jump\t// in\ntag_84:\n    /* \"#utility.yul\":3432:3488   */\n  not\n    /* \"#utility.yul\":3517:3521   */\n  dup1\n    /* \"#utility.yul\":3511:3515   */\n  dup4\n    /* \"#utility.yul\":3507:3522   */\n  and\n    /* \"#utility.yul\":3497:3522   */\n  swap2\n  pop\n    /* \"#utility.yul\":3410:3528   */\n  pop\n    /* \"#utility.yul\":3359:3528   */\n  swap3\n  swap2\n  pop\n  pop\n  jump\t// out\n    /* \"#utility.yul\":3533:3828   */\ntag_37:\n    /* \"#utility.yul\":3609:3613   */\n  0x00\n    /* \"#utility.yul\":3755:3784   */\n  tag_86\n    /* \"#utility.yul\":3780:3783   */\n  dup4\n    /* \"#utility.yul\":3774:3778   */\n  dup4\n    /* \"#utility.yul\":3755:3784   */\n  tag_36\n  jump\t// in\ntag_86:\n    /* \"#utility.yul\":3747:3784   */\n  swap2\n  pop\n    /* \"#utility.yul\":3817:3820   */\n  dup3\n    /* \"#utility.yul\":3814:3815   */\n  0x02\n    /* \"#utility.yul\":3810:3821   */\n  mul\n    /* \"#utility.yul\":3804:3808   */\n  dup3\n    /* \"#utility.yul\":3801:3822   */\n  or\n    /* \"#utility.yul\":3793:3822   */\n  swap1\n  pop\n    /* \"#utility.yul\":3533:3828   */\n  swap3\n  swap2\n  pop\n  pop\n  jump\t// out\n    /* \"#utility.yul\":3833:5228   */\ntag_7:\n    /* \"#utility.yul\":3950:3987   */\n  tag_88\n    /* \"#utility.yul\":3983:3986   */\n  dup3\n    /* \"#utility.yul\":3950:3987   */\n  tag_18\n  jump\t// in\ntag_88:\n    /* \"#utility.yul\":4052:4070   */\n  0xffffffffffffffff\n    /* \"#utility.yul\":4044:4050   */\n  dup2\n    /* \"#utility.yul\":4041:4071   */\n  gt\n    /* \"#utility.yul\":4038:4094   */\n  iszero\n  tag_89\n  jumpi\n    /* \"#utility.yul\":4074:4092   */\n  tag_90\n  tag_19\n  jump\t// in\ntag_90:\n    /* \"#utility.yul\":4038:4094   */\ntag_89:\n    /* \"#utility.yul\":4118:4156   */\n  tag_91\n    /* \"#utility.yul\":4150:4154   */\n  dup3\n    /* \"#utility.yul\":4144:4155   */\n  sload\n    /* \"#utility.yul\":4118:4156   */\n  tag_21\n  jump\t// in\ntag_91:\n    /* \"#utility.yul\":4203:4270   */\n  tag_92\n    /* \"#utility.yul\":4263:4269   */\n  dup3\n    /* \"#utility.yul\":4255:4261   */\n  dup3\n    /* \"#utility.yul\":4249:4253   */\n  dup6\n    /* \"#utility.yul\":4203:4270   */\n  tag_34\n  jump\t// in\ntag_92:\n    /* \"#utility.yul\":4297:4298   */\n  0x00\n    /* \"#utility.yul\":4321:4325   */\n  0x20\n    /* \"#utility.yul\":4308:4325   */\n  swap1\n  pop\n    /* \"#utility.yul\":4353:4355   */\n  0x1f\n    /* \"#utility.yul\":4345:4351   */\n  dup4\n    /* \"#utility.yul\":4342:4356   */\n  gt\n    /* \"#utility.yul\":4370:4371   */\n  0x01\n    /* \"#utility.yul\":4365:4983   */\n  dup2\n  eq\n  tag_94\n  jumpi\n    /* \"#utility.yul\":5027:5028   */\n  0x00\n    /* \"#utility.yul\":5044:5050   */\n  dup5\n    /* \"#utility.yul\":5041:5118   */\n  iszero\n  tag_95\n  jumpi\n    /* \"#utility.yul\":5093:5102   */\n  dup3\n    /* \"#utility.yul\":5088:5091   */\n  dup8\n    /* \"#utility.yul\":5084:5103   */\n  add\n    /* \"#utility.yul\":5078:5104   */\n  mload\n    /* \"#utility.yul\":5069:5104   */\n  swap1\n  pop\n    /* \"#utility.yul\":5041:5118   */\ntag_95:\n    /* \"#utility.yul\":5144:5211   */\n  tag_96\n    /* \"#utility.yul\":5204:5210   */\n  dup6\n    /* \"#utility.yul\":5197:5202   */\n  dup3\n    /* \"#utility.yul\":5144:5211   */\n  tag_37\n  jump\t// in\ntag_96:\n    /* \"#utility.yul\":5138:5142   */\n  dup7\n    /* \"#utility.yul\":5131:5212   */\n  sstore\n    /* \"#utility.yul\":5000:5222   */\n  pop\n    /* \"#utility.yul\":4335:5222   */\n  jump(tag_93)\n    /* \"#utility.yul\":4365:4983   */\ntag_94:\n    /* \"#utility.yul\":4417:4421   */\n  0x1f\n    /* \"#utility.yul\":4413:4422   */\n  not\n    /* \"#utility.yul\":4405:4411   */\n  dup5\n    /* \"#utility.yul\":4401:4423   */\n  and\n    /* \"#utility.yul\":4451:4488   */\n  tag_97\n    /* \"#utility.yul\":4483:4487   */\n  dup7\n    /* \"#utility.yul\":4451:4488   */\n  tag_22\n  jump\t// in\ntag_97:\n    /* \"#utility.yul\":4510:4511   */\n  0x00\n    /* \"#utility.yul\":4524:4732   */\ntag_98:\n    /* \"#utility.yul\":4538:4545   */\n  dup3\n    /* \"#utility.yul\":4535:4536   */\n  dup2\n    /* \"#utility.yul\":4532:4546   */\n  lt\n    /* \"#utility.yul\":4524:4732   */\n  iszero\n  tag_100\n  jumpi\n    /* \"#utility.yul\":4617:4626   */\n  dup5\n    /* \"#utility.yul\":4612:4615   */\n  dup10\n    /* \"#utility.yul\":4608:4627   */\n  add\n    /* \"#utility.yul\":4602:4628   */\n  mload\n    /* \"#utility.yul\":4594:4600   */\n  dup3\n    /* \"#utility.yul\":4587:4629   */\n  sstore\n    /* \"#utility.yul\":4668:4669   */\n  0x01\n    /* \"#utility.yul\":4660:4666   */\n  dup3\n    /* \"#utility.yul\":4656:4670   */\n  add\n    /* \"#utility.yul\":4646:4670   */\n  swap2\n  pop\n    /* \"#utility.yul\":4715:4717   */\n  0x20\n    /* \"#utility.yul\":4704:4713   */\n  dup6\n    /* \"#utility.yul\":4700:4718   */\n  add\n    /* \"#utility.yul\":4687:4718   */\n  swap5\n  pop\n    /* \"#utility.yul\":4561:4565   */\n  0x20\n    /* \"#utility.yul\":4558:4559   */\n  dup2\n    /* \"#utility.yul\":4554:4566   */\n  add\n    /* \"#utility.yul\":4549:4566   */\n  swap1\n  pop\n    /* \"#utility.yul\":4524:4732   */\n  jump(tag_98)\ntag_100:\n    /* \"#utility.yul\":4760:4766   */\n  dup7\n    /* \"#utility.yul\":4751:4758   */\n  dup4\n    /* \"#utility.yul\":4748:4767   */\n  lt\n    /* \"#utility.yul\":4745:4924   */\n  iszero\n  tag_101\n  jumpi\n    /* \"#utility.yul\":4818:4827   */\n  dup5\n    /* \"#utility.yul\":4813:4816   */\n  dup10\n    /* \"#utility.yul\":4809:4828   */\n  add\n    /* \"#utility.yul\":4803:4829   */\n  mload\n    /* \"#utility.yul\":4861:4909   */\n  tag_102\n    /* \"#utility.yul\":4903:4907   */\n  0x1f\n    /* \"#utility.yul\":4895:4901   */\n  dup10\n    /* \"#utility.yul\":4891:4908   */\n  and\n    /* \"#utility.yul\":4880:4889   */\n  dup3\n    /* \"#utility.yul\":4861:4909   */\n  tag_36\n  jump\t// in\ntag_102:\n    /* \"#utility.yul\":4853:4859   */\n  dup4\n    /* \"#utility.yul\":4846:4910   */\n  sstore\n    /* \"#utility.yul\":4768:4924   */\n  pop\n    /* \"#utility.yul\":4745:4924   */\ntag_101:\n    /* \"#utility.yul\":4970:4971   */\n  0x01\n    /* \"#utility.yul\":4966:4967   */\n  0x02\n    /* \"#utility.yul\":4958:4964   */\n  dup9\n    /* \"#utility.yul\":4954:4968   */\n  mul\n    /* \"#utility.yul\":4950:4972   */\n  add\n    /* \"#utility.yul\":4944:4948   */\n  dup9\n    /* \"#utility.yul\":4937:4973   */\n  sstore\n    /* \"#utility.yul\":4372:4983   */\n  pop\n  pop\n  pop\n    /* \"#utility.yul\":4335:5222   */\ntag_93:\n  pop\n    /* \"#utility.yul\":3925:5228   */\n  pop\n  pop\n  pop\n    /* \"#utility.yul\":3833:5228   */\n  pop\n  pop\n  jump\t// out\n    /* \"#utility.yul\":5234:5360   */\ntag_38:\n    /* \"#utility.yul\":5271:5278   */\n  0x00\n    /* \"#utility.yul\":5311:5353   */\n  0xffffffffffffffffffffffffffffffffffffffff\n    /* \"#utility.yul\":5304:5309   */\n  dup3\n    /* \"#utility.yul\":5300:5354   */\n  and\n    /* \"#utility.yul\":5289:5354   */\n  swap1\n  pop\n    /* \"#utility.yul\":5234:5360   */\n  swap2\n  swap1\n  pop\n  jump\t// out\n    /* \"#utility.yul\":5366:5462   */\ntag_39:\n    /* \"#utility.yul\":5403:5410   */\n  0x00\n    /* \"#utility.yul\":5432:5456   */\n  tag_105\n    /* \"#utility.yul\":5450:5455   */\n  dup3\n    /* \"#utility.yul\":5432:5456   */\n  tag_38\n  jump\t// in\ntag_105:\n    /* \"#utility.yul\":5421:5456   */\n  swap1\n  pop\n    /* \"#utility.yul\":5366:5462   */\n  swap2\n  swap1\n  pop\n  jump\t// out\n    /* \"#utility.yul\":5468:5586   */\ntag_40:\n    /* \"#utility.yul\":5555:5579   */\n  tag_107\n    /* \"#utility.yul\":5573:5578   */\n  dup2\n    /* \"#utility.yul\":5555:5579   */\n  tag_39\n  jump\t// in\ntag_107:\n    /* \"#utility.yul\":5550:5553   */\n  dup3\n    /* \"#utility.yul\":5543:5580   */\n  mstore\n    /* \"#utility.yul\":5468:5586   */\n  pop\n  pop\n  jump\t// out\n    /* \"#utility.yul\":5592:5814   */\ntag_12:\n    /* \"#utility.yul\":5685:5689   */\n  0x00\n    /* \"#utility.yul\":5723:5725   */\n  0x20\n    /* \"#utility.yul\":5712:5721   */\n  dup3\n    /* \"#utility.yul\":5708:5726   */\n  add\n    /* \"#utility.yul\":5700:5726   */\n  swap1\n  pop\n    /* \"#utility.yul\":5736:5807   */\n  tag_109\n    /* \"#utility.yul\":5804:5805   */\n  0x00\n    /* \"#utility.yul\":5793:5802   */\n  dup4\n    /* \"#utility.yul\":5789:5806   */\n  add\n    /* \"#utility.yul\":5780:5786   */\n  dup5\n    /* \"#utility.yul\":5736:5807   */\n  tag_40\n  jump\t// in\ntag_109:\n    /* \"#utility.yul\":5592:5814   */\n  swap3\n  swap2\n  pop\n  pop\n  jump\t// out\n    /* \"contracts/4_PLZNFT.sol\":249:2515  contract PLZNFT is ERC721URIStorage, Ownable(msg.sender) {... */\ntag_16:\n  dataSize(sub_0)\n  dup1\n  dataOffset(sub_0)\n  0x00\n  codecopy\n  0x00\n  return\nstop\n\nsub_0: assembly {\n        /* \"contracts/4_PLZNFT.sol\":249:2515  contract PLZNFT is ERC721URIStorage, Ownable(msg.sender) {... */\n      mstore(0x40, 0x80)\n      jumpi(tag_1, lt(calldatasize, 0x04))\n      shr(0xe0, calldataload(0x00))\n      dup1\n      0x715018a6\n      gt\n      tag_21\n      jumpi\n      dup1\n      0xb88d4fde\n      gt\n      tag_22\n      jumpi\n      dup1\n      0xb88d4fde\n      eq\n      tag_16\n      jumpi\n      dup1\n      0xc87b56dd\n      eq\n      tag_17\n      jumpi\n      dup1\n      0xd0e30db0\n      eq\n      tag_18\n      jumpi\n      dup1\n      0xe985e9c5\n      eq\n      tag_19\n      jumpi\n      dup1\n      0xf2fde38b\n      eq\n      tag_20\n      jumpi\n      jump(tag_2)\n    tag_22:\n      dup1\n      0x715018a6\n      eq\n      tag_12\n      jumpi\n      dup1\n      0x8da5cb5b\n      eq\n      tag_13\n      jumpi\n      dup1\n      0x95d89b41\n      eq\n      tag_14\n      jumpi\n      dup1\n      0xa22cb465\n      eq\n      tag_15\n      jumpi\n      jump(tag_2)\n    tag_21:\n      dup1\n      0x23b872dd\n      gt\n      tag_23\n      jumpi\n      dup1\n      0x23b872dd\n      eq\n      tag_7\n      jumpi\n      dup1\n      0x3df0805e\n      eq\n      tag_8\n      jumpi\n      dup1\n      0x42842e0e\n      eq\n      tag_9\n      jumpi\n      dup1\n      0x6352211e\n      eq\n      tag_10\n      jumpi\n      dup1\n      0x70a08231\n      eq\n      tag_11\n      jumpi\n      jump(tag_2)\n    tag_23:\n      dup1\n      0x01ffc9a7\n      eq\n      tag_3\n      jumpi\n      dup1\n      0x06fdde03\n      eq\n      tag_4\n      jumpi\n      dup1\n      0x081812fc\n      eq\n      tag_5\n      jumpi\n      dup1\n      0x095ea7b3\n      eq\n      tag_6\n      jumpi\n      jump(tag_2)\n    tag_1:\n      jumpi(tag_2, calldatasize)\n      stop\n    tag_2:\n      0x00\n      dup1\n      revert\n        /* \"@openzeppelin/contracts/token/ERC721/extensions/ERC721URIStorage.sol\":937:1144  function supportsInterface(bytes4 interfaceId) public view virtual override(ERC721, IERC165) returns (bool) {... */\n    tag_3:\n      callvalue\n      dup1\n      iszero\n      tag_26\n      jumpi\n      0x00\n      dup1\n      revert\n    tag_26:\n      pop\n      tag_27\n      0x04\n      dup1\n      calldatasize\n      sub\n      dup2\n      add\n      swap1\n      tag_28\n      swap2\n      swap1\n      tag_29\n      jump\t// in\n    tag_28:\n      tag_30\n      jump\t// in\n    tag_27:\n      mload(0x40)\n      tag_31\n      swap2\n      swap1\n      tag_32\n      jump\t// in\n    tag_31:\n      mload(0x40)\n      dup1\n      swap2\n      sub\n      swap1\n      return\n        /* \"@openzeppelin/contracts/token/ERC721/ERC721.sol\":2365:2454  function name() public view virtual returns (string memory) {... */\n    tag_4:\n      callvalue\n      dup1\n      iszero\n      tag_33\n      jumpi\n      0x00\n      dup1\n      revert\n    tag_33:\n      pop\n      tag_34\n      tag_35\n      jump\t// in\n    tag_34:\n      mload(0x40)\n      tag_36\n      swap2\n      swap1\n      tag_37\n      jump\t// in\n    tag_36:\n      mload(0x40)\n      dup1\n      swap2\n      sub\n      swap1\n      return\n        /* \"@openzeppelin/contracts/token/ERC721/ERC721.sol\":3497:3651  function getApproved(uint256 tokenId) public view virtual returns (address) {... */\n    tag_5:\n      callvalue\n      dup1\n      iszero\n      tag_38\n      jumpi\n      0x00\n      dup1\n      revert\n    tag_38:\n      pop\n      tag_39\n      0x04\n      dup1\n      calldatasize\n      sub\n      dup2\n      add\n      swap1\n      tag_40\n      swap2\n      swap1\n      tag_41\n      jump\t// in\n    tag_40:\n      tag_42\n      jump\t// in\n    tag_39:\n      mload(0x40)\n      tag_43\n      swap2\n      swap1\n      tag_44\n      jump\t// in\n    tag_43:\n      mload(0x40)\n      dup1\n      swap2\n      sub\n      swap1\n      return\n        /* \"contracts/4_PLZNFT.sol\":456:614  function approve(address /*to*/, uint256 /*tokenId*/) public view override(ERC721, IERC721) onlyOwner {... */\n    tag_6:\n      callvalue\n      dup1\n      iszero\n      tag_45\n      jumpi\n      0x00\n      dup1\n      revert\n    tag_45:\n      pop\n      tag_46\n      0x04\n      dup1\n      calldatasize\n      sub\n      dup2\n      add\n      swap1\n      tag_47\n      swap2\n      swap1\n      tag_48\n      jump\t// in\n    tag_47:\n      tag_49\n      jump\t// in\n    tag_46:\n      stop\n        /* \"contracts/4_PLZNFT.sol\":932:1119  function transferFrom(address /*from*/, address /*to*/, uint256 /*tokenId*/) public view override(ERC721, IERC721) onlyOwner {... */\n    tag_7:\n      callvalue\n      dup1\n      iszero\n      tag_50\n      jumpi\n      0x00\n      dup1\n      revert\n    tag_50:\n      pop\n      tag_51\n      0x04\n      dup1\n      calldatasize\n      sub\n      dup2\n      add\n      swap1\n      tag_52\n      swap2\n      swap1\n      tag_53\n      jump\t// in\n    tag_52:\n      tag_54\n      jump\t// in\n    tag_51:\n      stop\n        /* \"contracts/4_PLZNFT.sol\":1962:2513  function mintAndTransfer(address recipient, string memory tokenURI) public onlyOwner {... */\n    tag_8:\n      callvalue\n      dup1\n      iszero\n      tag_55\n      jumpi\n      0x00\n      dup1\n      revert\n    tag_55:\n      pop\n      tag_56\n      0x04\n      dup1\n      calldatasize\n      sub\n      dup2\n      add\n      swap1\n      tag_57\n      swap2\n      swap1\n      tag_58\n      jump\t// in\n    tag_57:\n      tag_59\n      jump\t// in\n    tag_56:\n      stop\n        /* \"@openzeppelin/contracts/token/ERC721/ERC721.sol\":4787:4919  function safeTransferFrom(address from, address to, uint256 tokenId) public {... */\n    tag_9:\n      callvalue\n      dup1\n      iszero\n      tag_60\n      jumpi\n      0x00\n      dup1\n      revert\n    tag_60:\n      pop\n      tag_61\n      0x04\n      dup1\n      calldatasize\n      sub\n      dup2\n      add\n      swap1\n      tag_62\n      swap2\n      swap1\n      tag_53\n      jump\t// in\n    tag_62:\n      tag_63\n      jump\t// in\n    tag_61:\n      stop\n        /* \"@openzeppelin/contracts/token/ERC721/ERC721.sol\":2185:2303  function ownerOf(uint256 tokenId) public view virtual returns (address) {... */\n    tag_10:\n      callvalue\n      dup1\n      iszero\n      tag_64\n      jumpi\n      0x00\n      dup1\n      revert\n    tag_64:\n      pop\n      tag_65\n      0x04\n      dup1\n      calldatasize\n      sub\n      dup2\n      add\n      swap1\n      tag_66\n      swap2\n      swap1\n      tag_41\n      jump\t// in\n    tag_66:\n      tag_67\n      jump\t// in\n    tag_65:\n      mload(0x40)\n      tag_68\n      swap2\n      swap1\n      tag_44\n      jump\t// in\n    tag_68:\n      mload(0x40)\n      dup1\n      swap2\n      sub\n      swap1\n      return\n        /* \"@openzeppelin/contracts/token/ERC721/ERC721.sol\":1920:2128  function balanceOf(address owner) public view virtual returns (uint256) {... */\n    tag_11:\n      callvalue\n      dup1\n      iszero\n      tag_69\n      jumpi\n      0x00\n      dup1\n      revert\n    tag_69:\n      pop\n      tag_70\n      0x04\n      dup1\n      calldatasize\n      sub\n      dup2\n      add\n      swap1\n      tag_71\n      swap2\n      swap1\n      tag_72\n      jump\t// in\n    tag_71:\n      tag_73\n      jump\t// in\n    tag_70:\n      mload(0x40)\n      tag_74\n      swap2\n      swap1\n      tag_75\n      jump\t// in\n    tag_74:\n      mload(0x40)\n      dup1\n      swap2\n      sub\n      swap1\n      return\n        /* \"contracts/4_PLZNFT.sol\":1454:1574  function renounceOwnership() view public override onlyOwner {... */\n    tag_12:\n      callvalue\n      dup1\n      iszero\n      tag_76\n      jumpi\n      0x00\n      dup1\n      revert\n    tag_76:\n      pop\n      tag_77\n      tag_78\n      jump\t// in\n    tag_77:\n      stop\n        /* \"@openzeppelin/contracts/access/Ownable.sol\":1638:1723  function owner() public view virtual returns (address) {... */\n    tag_13:\n      callvalue\n      dup1\n      iszero\n      tag_79\n      jumpi\n      0x00\n      dup1\n      revert\n    tag_79:\n      pop\n      tag_80\n      tag_81\n      jump\t// in\n    tag_80:\n      mload(0x40)\n      tag_82\n      swap2\n      swap1\n      tag_44\n      jump\t// in\n    tag_82:\n      mload(0x40)\n      dup1\n      swap2\n      sub\n      swap1\n      return\n        /* \"@openzeppelin/contracts/token/ERC721/ERC721.sol\":2518:2611  function symbol() public view virtual returns (string memory) {... */\n    tag_14:\n      callvalue\n      dup1\n      iszero\n      tag_83\n      jumpi\n      0x00\n      dup1\n      revert\n    tag_83:\n      pop\n      tag_84\n      tag_85\n      jump\t// in\n    tag_84:\n      mload(0x40)\n      tag_86\n      swap2\n      swap1\n      tag_37\n      jump\t// in\n    tag_86:\n      mload(0x40)\n      dup1\n      swap2\n      sub\n      swap1\n      return\n        /* \"contracts/4_PLZNFT.sol\":683:868  function setApprovalForAll(address /*operator*/, bool /*approved*/) public view override(ERC721, IERC721) onlyOwner {... */\n    tag_15:\n      callvalue\n      dup1\n      iszero\n      tag_87\n      jumpi\n      0x00\n      dup1\n      revert\n    tag_87:\n      pop\n      tag_88\n      0x04\n      dup1\n      calldatasize\n      sub\n      dup2\n      add\n      swap1\n      tag_89\n      swap2\n      swap1\n      tag_90\n      jump\t// in\n    tag_89:\n      tag_91\n      jump\t// in\n    tag_88:\n      stop\n        /* \"@openzeppelin/contracts/token/ERC721/ERC721.sol\":4985:5193  function safeTransferFrom(address from, address to, uint256 tokenId, bytes memory data) public virtual {... */\n    tag_16:\n      callvalue\n      dup1\n      iszero\n      tag_92\n      jumpi\n      0x00\n      dup1\n      revert\n    tag_92:\n      pop\n      tag_93\n      0x04\n      dup1\n      calldatasize\n      sub\n      dup2\n      add\n      swap1\n      tag_94\n      swap2\n      swap1\n      tag_95\n      jump\t// in\n    tag_94:\n      tag_96\n      jump\t// in\n    tag_93:\n      stop\n        /* \"@openzeppelin/contracts/token/ERC721/extensions/ERC721URIStorage.sol\":1210:1803  function tokenURI(uint256 tokenId) public view virtual override returns (string memory) {... */\n    tag_17:\n      callvalue\n      dup1\n      iszero\n      tag_97\n      jumpi\n      0x00\n      dup1\n      revert\n    tag_97:\n      pop\n      tag_98\n      0x04\n      dup1\n      calldatasize\n      sub\n      dup2\n      add\n      swap1\n      tag_99\n      swap2\n      swap1\n      tag_41\n      jump\t// in\n    tag_99:\n      tag_100\n      jump\t// in\n    tag_98:\n      mload(0x40)\n      tag_101\n      swap2\n      swap1\n      tag_37\n      jump\t// in\n    tag_101:\n      mload(0x40)\n      dup1\n      swap2\n      sub\n      swap1\n      return\n        /* \"contracts/4_PLZNFT.sol\":1758:1806  function deposit() external payable onlyOwner {} */\n    tag_18:\n      tag_102\n      tag_103\n      jump\t// in\n    tag_102:\n      stop\n        /* \"@openzeppelin/contracts/token/ERC721/ERC721.sol\":3928:4081  function isApprovedForAll(address owner, address operator) public view virtual returns (bool) {... */\n    tag_19:\n      callvalue\n      dup1\n      iszero\n      tag_104\n      jumpi\n      0x00\n      dup1\n      revert\n    tag_104:\n      pop\n      tag_105\n      0x04\n      dup1\n      calldatasize\n      sub\n      dup2\n      add\n      swap1\n      tag_106\n      swap2\n      swap1\n      tag_107\n      jump\t// in\n    tag_106:\n      tag_108\n      jump\t// in\n    tag_105:\n      mload(0x40)\n      tag_109\n      swap2\n      swap1\n      tag_32\n      jump\t// in\n    tag_109:\n      mload(0x40)\n      dup1\n      swap2\n      sub\n      swap1\n      return\n        /* \"contracts/4_PLZNFT.sol\":1231:1378  function transferOwnership(address /*newOwner*/) public view override onlyOwner {... */\n    tag_20:\n      callvalue\n      dup1\n      iszero\n      tag_110\n      jumpi\n      0x00\n      dup1\n      revert\n    tag_110:\n      pop\n      tag_111\n      0x04\n      dup1\n      calldatasize\n      sub\n      dup2\n      add\n      swap1\n      tag_112\n      swap2\n      swap1\n      tag_72\n      jump\t// in\n    tag_112:\n      tag_113\n      jump\t// in\n    tag_111:\n      stop\n        /* \"@openzeppelin/contracts/token/ERC721/extensions/ERC721URIStorage.sol\":937:1144  function supportsInterface(bytes4 interfaceId) public view virtual override(ERC721, IERC165) returns (bool) {... */\n    tag_30:\n        /* \"@openzeppelin/contracts/token/ERC721/extensions/ERC721URIStorage.sol\":1039:1043  bool */\n      0x00\n        /* \"@openzeppelin/contracts/token/ERC721/extensions/ERC721URIStorage.sol\":760:770  0x49064906 */\n      0x49064906\n        /* \"@openzeppelin/contracts/token/ERC721/extensions/ERC721URIStorage.sol\":753:771  bytes4(0x49064906) */\n      0xe0\n      shl\n        /* \"@openzeppelin/contracts/token/ERC721/extensions/ERC721URIStorage.sol\":1062:1097  interfaceId == ERC4906_INTERFACE_ID */\n      not(0xffffffffffffffffffffffffffffffffffffffffffffffffffffffff)\n      and\n        /* \"@openzeppelin/contracts/token/ERC721/extensions/ERC721URIStorage.sol\":1062:1073  interfaceId */\n      dup3\n        /* \"@openzeppelin/contracts/token/ERC721/extensions/ERC721URIStorage.sol\":1062:1097  interfaceId == ERC4906_INTERFACE_ID */\n      not(0xffffffffffffffffffffffffffffffffffffffffffffffffffffffff)\n      and\n      eq\n        /* \"@openzeppelin/contracts/token/ERC721/extensions/ERC721URIStorage.sol\":1062:1137  interfaceId == ERC4906_INTERFACE_ID || super.supportsInterface(interfaceId) */\n      dup1\n      tag_115\n      jumpi\n      pop\n        /* \"@openzeppelin/contracts/token/ERC721/extensions/ERC721URIStorage.sol\":1101:1137  super.supportsInterface(interfaceId) */\n      tag_116\n        /* \"@openzeppelin/contracts/token/ERC721/extensions/ERC721URIStorage.sol\":1125:1136  interfaceId */\n      dup3\n        /* \"@openzeppelin/contracts/token/ERC721/extensions/ERC721URIStorage.sol\":1101:1124  super.supportsInterface */\n      tag_117\n        /* \"@openzeppelin/contracts/token/ERC721/extensions/ERC721URIStorage.sol\":1101:1137  super.supportsInterface(interfaceId) */\n      jump\t// in\n    tag_116:\n        /* \"@openzeppelin/contracts/token/ERC721/extensions/ERC721URIStorage.sol\":1062:1137  interfaceId == ERC4906_INTERFACE_ID || super.supportsInterface(interfaceId) */\n    tag_115:\n        /* \"@openzeppelin/contracts/token/ERC721/extensions/ERC721URIStorage.sol\":1055:1137  return interfaceId == ERC4906_INTERFACE_ID || super.supportsInterface(interfaceId) */\n      swap1\n      pop\n        /* \"@openzeppelin/contracts/token/ERC721/extensions/ERC721URIStorage.sol\":937:1144  function supportsInterface(bytes4 interfaceId) public view virtual override(ERC721, IERC165) returns (bool) {... */\n      swap2\n      swap1\n      pop\n      jump\t// out\n        /* \"@openzeppelin/contracts/token/ERC721/ERC721.sol\":2365:2454  function name() public view virtual returns (string memory) {... */\n    tag_35:\n        /* \"@openzeppelin/contracts/token/ERC721/ERC721.sol\":2410:2423  string memory */\n      0x60\n        /* \"@openzeppelin/contracts/token/ERC721/ERC721.sol\":2442:2447  _name */\n      0x00\n        /* \"@openzeppelin/contracts/token/ERC721/ERC721.sol\":2435:2447  return _name */\n      dup1\n      sload\n      tag_119\n      swap1\n      tag_120\n      jump\t// in\n    tag_119:\n      dup1\n      0x1f\n      add\n      0x20\n      dup1\n      swap2\n      div\n      mul\n      0x20\n      add\n      mload(0x40)\n      swap1\n      dup2\n      add\n      0x40\n      mstore\n      dup1\n      swap3\n      swap2\n      swap1\n      dup2\n      dup2\n      mstore\n      0x20\n      add\n      dup3\n      dup1\n      sload\n      tag_121\n      swap1\n      tag_120\n      jump\t// in\n    tag_121:\n      dup1\n      iszero\n      tag_122\n      jumpi\n      dup1\n      0x1f\n      lt\n      tag_123\n      jumpi\n      0x0100\n      dup1\n      dup4\n      sload\n      div\n      mul\n      dup4\n      mstore\n      swap2\n      0x20\n      add\n      swap2\n      jump(tag_122)\n    tag_123:\n      dup3\n      add\n      swap2\n      swap1\n      0x00\n      mstore\n      keccak256(0x00, 0x20)\n      swap1\n    tag_124:\n      dup2\n      sload\n      dup2\n      mstore\n      swap1\n      0x01\n      add\n      swap1\n      0x20\n      add\n      dup1\n      dup4\n      gt\n      tag_124\n      jumpi\n      dup3\n      swap1\n      sub\n      0x1f\n      and\n      dup3\n      add\n      swap2\n    tag_122:\n      pop\n      pop\n      pop\n      pop\n      pop\n      swap1\n      pop\n        /* \"@openzeppelin/contracts/token/ERC721/ERC721.sol\":2365:2454  function name() public view virtual returns (string memory) {... */\n      swap1\n      jump\t// out\n        /* \"@openzeppelin/contracts/token/ERC721/ERC721.sol\":3497:3651  function getApproved(uint256 tokenId) public view virtual returns (address) {... */\n    tag_42:\n        /* \"@openzeppelin/contracts/token/ERC721/ERC721.sol\":3564:3571  address */\n      0x00\n        /* \"@openzeppelin/contracts/token/ERC721/ERC721.sol\":3583:3605  _requireOwned(tokenId) */\n      tag_126\n        /* \"@openzeppelin/contracts/token/ERC721/ERC721.sol\":3597:3604  tokenId */\n      dup3\n        /* \"@openzeppelin/contracts/token/ERC721/ERC721.sol\":3583:3596  _requireOwned */\n      tag_127\n        /* \"@openzeppelin/contracts/token/ERC721/ERC721.sol\":3583:3605  _requireOwned(tokenId) */\n      jump\t// in\n    tag_126:\n      pop\n        /* \"@openzeppelin/contracts/token/ERC721/ERC721.sol\":3623:3644  _getApproved(tokenId) */\n      tag_128\n        /* \"@openzeppelin/contracts/token/ERC721/ERC721.sol\":3636:3643  tokenId */\n      dup3\n        /* \"@openzeppelin/contracts/token/ERC721/ERC721.sol\":3623:3635  _getApproved */\n      tag_129\n        /* \"@openzeppelin/contracts/token/ERC721/ERC721.sol\":3623:3644  _getApproved(tokenId) */\n      jump\t// in\n    tag_128:\n        /* \"@openzeppelin/contracts/token/ERC721/ERC721.sol\":3616:3644  return _getApproved(tokenId) */\n      swap1\n      pop\n        /* \"@openzeppelin/contracts/token/ERC721/ERC721.sol\":3497:3651  function getApproved(uint256 tokenId) public view virtual returns (address) {... */\n      swap2\n      swap1\n      pop\n      jump\t// out\n        /* \"contracts/4_PLZNFT.sol\":456:614  function approve(address /*to*/, uint256 /*tokenId*/) public view override(ERC721, IERC721) onlyOwner {... */\n    tag_49:\n        /* \"@openzeppelin/contracts/access/Ownable.sol\":1531:1544  _checkOwner() */\n      tag_131\n        /* \"@openzeppelin/contracts/access/Ownable.sol\":1531:1542  _checkOwner */\n      tag_132\n        /* \"@openzeppelin/contracts/access/Ownable.sol\":1531:1544  _checkOwner() */\n      jump\t// in\n    tag_131:\n        /* \"contracts/4_PLZNFT.sol\":568:607  revert(\"Approve function is disabled.\") */\n      mload(0x40)\n      0x08c379a000000000000000000000000000000000000000000000000000000000\n      dup2\n      mstore\n      0x04\n      add\n      tag_134\n      swap1\n      tag_135\n      jump\t// in\n    tag_134:\n      mload(0x40)\n      dup1\n      swap2\n      sub\n      swap1\n      revert\n        /* \"contracts/4_PLZNFT.sol\":932:1119  function transferFrom(address /*from*/, address /*to*/, uint256 /*tokenId*/) public view override(ERC721, IERC721) onlyOwner {... */\n    tag_54:\n        /* \"@openzeppelin/contracts/access/Ownable.sol\":1531:1544  _checkOwner() */\n      tag_137\n        /* \"@openzeppelin/contracts/access/Ownable.sol\":1531:1542  _checkOwner */\n      tag_132\n        /* \"@openzeppelin/contracts/access/Ownable.sol\":1531:1544  _checkOwner() */\n      jump\t// in\n    tag_137:\n        /* \"contracts/4_PLZNFT.sol\":1067:1112  revert(\"Transfer from function is disabled.\") */\n      mload(0x40)\n      0x08c379a000000000000000000000000000000000000000000000000000000000\n      dup2\n      mstore\n      0x04\n      add\n      tag_139\n      swap1\n      tag_140\n      jump\t// in\n    tag_139:\n      mload(0x40)\n      dup1\n      swap2\n      sub\n      swap1\n      revert\n        /* \"contracts/4_PLZNFT.sol\":1962:2513  function mintAndTransfer(address recipient, string memory tokenURI) public onlyOwner {... */\n    tag_59:\n        /* \"@openzeppelin/contracts/access/Ownable.sol\":1531:1544  _checkOwner() */\n      tag_142\n        /* \"@openzeppelin/contracts/access/Ownable.sol\":1531:1542  _checkOwner */\n      tag_132\n        /* \"@openzeppelin/contracts/access/Ownable.sol\":1531:1544  _checkOwner() */\n      jump\t// in\n    tag_142:\n        /* \"contracts/4_PLZNFT.sol\":2090:2097  1 ether */\n      0x0de0b6b3a7640000\n        /* \"contracts/4_PLZNFT.sol\":2065:2086  address(this).balance */\n      selfbalance\n        /* \"contracts/4_PLZNFT.sol\":2065:2097  address(this).balance >= 1 ether */\n      lt\n      iszero\n        /* \"contracts/4_PLZNFT.sol\":2057:2128  require(address(this).balance >= 1 ether, \"Not enough ETH in contract\") */\n      tag_144\n      jumpi\n      mload(0x40)\n      0x08c379a000000000000000000000000000000000000000000000000000000000\n      dup2\n      mstore\n      0x04\n      add\n      tag_145\n      swap1\n      tag_146\n      jump\t// in\n    tag_145:\n      mload(0x40)\n      dup1\n      swap2\n      sub\n      swap1\n      revert\n    tag_144:\n        /* \"contracts/4_PLZNFT.sol\":2147:2165  uint256 newTokenId */\n      0x00\n        /* \"contracts/4_PLZNFT.sol\":2168:2183  _tokenIdCounter */\n      sload(0x08)\n        /* \"contracts/4_PLZNFT.sol\":2147:2183  uint256 newTokenId = _tokenIdCounter */\n      swap1\n      pop\n        /* \"contracts/4_PLZNFT.sol\":2193:2226  _safeMint(msg.sender, newTokenId) */\n      tag_147\n        /* \"contracts/4_PLZNFT.sol\":2203:2213  msg.sender */\n      caller\n        /* \"contracts/4_PLZNFT.sol\":2215:2225  newTokenId */\n      dup3\n        /* \"contracts/4_PLZNFT.sol\":2193:2202  _safeMint */\n      tag_148\n        /* \"contracts/4_PLZNFT.sol\":2193:2226  _safeMint(msg.sender, newTokenId) */\n      jump\t// in\n    tag_147:\n        /* \"contracts/4_PLZNFT.sol\":2236:2270  _setTokenURI(newTokenId, tokenURI) */\n      tag_149\n        /* \"contracts/4_PLZNFT.sol\":2249:2259  newTokenId */\n      dup2\n        /* \"contracts/4_PLZNFT.sol\":2261:2269  tokenURI */\n      dup4\n        /* \"contracts/4_PLZNFT.sol\":2236:2248  _setTokenURI */\n      tag_150\n        /* \"contracts/4_PLZNFT.sol\":2236:2270  _setTokenURI(newTokenId, tokenURI) */\n      jump\t// in\n    tag_149:\n        /* \"contracts/4_PLZNFT.sol\":2280:2295  _tokenIdCounter */\n      0x08\n      0x00\n        /* \"contracts/4_PLZNFT.sol\":2280:2297  _tokenIdCounter++ */\n      dup2\n      sload\n      dup1\n      swap3\n      swap2\n      swap1\n      tag_151\n      swap1\n      tag_152\n      jump\t// in\n    tag_151:\n      swap2\n      swap1\n      pop\n      sstore\n      pop\n        /* \"contracts/4_PLZNFT.sol\":2347:2356  bool sent */\n      0x00\n        /* \"contracts/4_PLZNFT.sol\":2362:2371  recipient */\n      dup4\n        /* \"contracts/4_PLZNFT.sol\":2362:2376  recipient.call */\n      0xffffffffffffffffffffffffffffffffffffffff\n      and\n        /* \"contracts/4_PLZNFT.sol\":2384:2391  1 ether */\n      0x0de0b6b3a7640000\n        /* \"contracts/4_PLZNFT.sol\":2362:2396  recipient.call{value: 1 ether}(\"\") */\n      mload(0x40)\n      tag_153\n      swap1\n      tag_154\n      jump\t// in\n    tag_153:\n      0x00\n      mload(0x40)\n      dup1\n      dup4\n      sub\n      dup2\n      dup6\n      dup8\n      gas\n      call\n      swap3\n      pop\n      pop\n      pop\n      returndatasize\n      dup1\n      0x00\n      dup2\n      eq\n      tag_157\n      jumpi\n      mload(0x40)\n      swap2\n      pop\n      and(add(returndatasize, 0x3f), not(0x1f))\n      dup3\n      add\n      0x40\n      mstore\n      returndatasize\n      dup3\n      mstore\n      returndatasize\n      0x00\n      0x20\n      dup5\n      add\n      returndatacopy\n      jump(tag_156)\n    tag_157:\n      0x60\n      swap2\n      pop\n    tag_156:\n      pop\n        /* \"contracts/4_PLZNFT.sol\":2346:2396  (bool sent, ) = recipient.call{value: 1 ether}(\"\") */\n      pop\n      swap1\n      pop\n        /* \"contracts/4_PLZNFT.sol\":2414:2418  sent */\n      dup1\n        /* \"contracts/4_PLZNFT.sol\":2406:2443  require(sent, \"Failed to send Ether\") */\n      tag_158\n      jumpi\n      mload(0x40)\n      0x08c379a000000000000000000000000000000000000000000000000000000000\n      dup2\n      mstore\n      0x04\n      add\n      tag_159\n      swap1\n      tag_160\n      jump\t// in\n    tag_159:\n      mload(0x40)\n      dup1\n      swap2\n      sub\n      swap1\n      revert\n    tag_158:\n        /* \"contracts/4_PLZNFT.sol\":2454:2506  _safeTransfer(msg.sender, recipient, newTokenId, \"\") */\n      tag_161\n        /* \"contracts/4_PLZNFT.sol\":2468:2478  msg.sender */\n      caller\n        /* \"contracts/4_PLZNFT.sol\":2480:2489  recipient */\n      dup6\n        /* \"contracts/4_PLZNFT.sol\":2491:2501  newTokenId */\n      dup5\n        /* \"contracts/4_PLZNFT.sol\":2454:2506  _safeTransfer(msg.sender, recipient, newTokenId, \"\") */\n      mload(0x40)\n      dup1\n      0x20\n      add\n      0x40\n      mstore\n      dup1\n      0x00\n      dup2\n      mstore\n      pop\n        /* \"contracts/4_PLZNFT.sol\":2454:2467  _safeTransfer */\n      tag_162\n        /* \"contracts/4_PLZNFT.sol\":2454:2506  _safeTransfer(msg.sender, recipient, newTokenId, \"\") */\n      jump\t// in\n    tag_161:\n        /* \"contracts/4_PLZNFT.sol\":2047:2513  {... */\n      pop\n      pop\n        /* \"contracts/4_PLZNFT.sol\":1962:2513  function mintAndTransfer(address recipient, string memory tokenURI) public onlyOwner {... */\n      pop\n      pop\n      jump\t// out\n        /* \"@openzeppelin/contracts/token/ERC721/ERC721.sol\":4787:4919  function safeTransferFrom(address from, address to, uint256 tokenId) public {... */\n    tag_63:\n        /* \"@openzeppelin/contracts/token/ERC721/ERC721.sol\":4873:4912  safeTransferFrom(from, to, tokenId, \"\") */\n      tag_164\n        /* \"@openzeppelin/contracts/token/ERC721/ERC721.sol\":4890:4894  from */\n      dup4\n        /* \"@openzeppelin/contracts/token/ERC721/ERC721.sol\":4896:4898  to */\n      dup4\n        /* \"@openzeppelin/contracts/token/ERC721/ERC721.sol\":4900:4907  tokenId */\n      dup4\n        /* \"@openzeppelin/contracts/token/ERC721/ERC721.sol\":4873:4912  safeTransferFrom(from, to, tokenId, \"\") */\n      mload(0x40)\n      dup1\n      0x20\n      add\n      0x40\n      mstore\n      dup1\n      0x00\n      dup2\n      mstore\n      pop\n        /* \"@openzeppelin/contracts/token/ERC721/ERC721.sol\":4873:4889  safeTransferFrom */\n      tag_96\n        /* \"@openzeppelin/contracts/token/ERC721/ERC721.sol\":4873:4912  safeTransferFrom(from, to, tokenId, \"\") */\n      jump\t// in\n    tag_164:\n        /* \"@openzeppelin/contracts/token/ERC721/ERC721.sol\":4787:4919  function safeTransferFrom(address from, address to, uint256 tokenId) public {... */\n      pop\n      pop\n      pop\n      jump\t// out\n        /* \"@openzeppelin/contracts/token/ERC721/ERC721.sol\":2185:2303  function ownerOf(uint256 tokenId) public view virtual returns (address) {... */\n    tag_67:\n        /* \"@openzeppelin/contracts/token/ERC721/ERC721.sol\":2248:2255  address */\n      0x00\n        /* \"@openzeppelin/contracts/token/ERC721/ERC721.sol\":2274:2296  _requireOwned(tokenId) */\n      tag_166\n        /* \"@openzeppelin/contracts/token/ERC721/ERC721.sol\":2288:2295  tokenId */\n      dup3\n        /* \"@openzeppelin/contracts/token/ERC721/ERC721.sol\":2274:2287  _requireOwned */\n      tag_127\n        /* \"@openzeppelin/contracts/token/ERC721/ERC721.sol\":2274:2296  _requireOwned(tokenId) */\n      jump\t// in\n    tag_166:\n        /* \"@openzeppelin/contracts/token/ERC721/ERC721.sol\":2267:2296  return _requireOwned(tokenId) */\n      swap1\n      pop\n        /* \"@openzeppelin/contracts/token/ERC721/ERC721.sol\":2185:2303  function ownerOf(uint256 tokenId) public view virtual returns (address) {... */\n      swap2\n      swap1\n      pop\n      jump\t// out\n        /* \"@openzeppelin/contracts/token/ERC721/ERC721.sol\":1920:2128  function balanceOf(address owner) public view virtual returns (uint256) {... */\n    tag_73:\n        /* \"@openzeppelin/contracts/token/ERC721/ERC721.sol\":1983:1990  uint256 */\n      0x00\n        /* \"@openzeppelin/contracts/token/ERC721/ERC721.sol\":2023:2024  0 */\n      dup1\n        /* \"@openzeppelin/contracts/token/ERC721/ERC721.sol\":2006:2025  owner == address(0) */\n      0xffffffffffffffffffffffffffffffffffffffff\n      and\n        /* \"@openzeppelin/contracts/token/ERC721/ERC721.sol\":2006:2011  owner */\n      dup3\n        /* \"@openzeppelin/contracts/token/ERC721/ERC721.sol\":2006:2025  owner == address(0) */\n      0xffffffffffffffffffffffffffffffffffffffff\n      and\n      sub\n        /* \"@openzeppelin/contracts/token/ERC721/ERC721.sol\":2002:2089  if (owner == address(0)) {... */\n      tag_168\n      jumpi\n        /* \"@openzeppelin/contracts/token/ERC721/ERC721.sol\":2075:2076  0 */\n      0x00\n        /* \"@openzeppelin/contracts/token/ERC721/ERC721.sol\":2048:2078  ERC721InvalidOwner(address(0)) */\n      mload(0x40)\n      0x89c62b6400000000000000000000000000000000000000000000000000000000\n      dup2\n      mstore\n      0x04\n      add\n      tag_169\n      swap2\n      swap1\n      tag_44\n      jump\t// in\n    tag_169:\n      mload(0x40)\n      dup1\n      swap2\n      sub\n      swap1\n      revert\n        /* \"@openzeppelin/contracts/token/ERC721/ERC721.sol\":2002:2089  if (owner == address(0)) {... */\n    tag_168:\n        /* \"@openzeppelin/contracts/token/ERC721/ERC721.sol\":2105:2114  _balances */\n      0x03\n        /* \"@openzeppelin/contracts/token/ERC721/ERC721.sol\":2105:2121  _balances[owner] */\n      0x00\n        /* \"@openzeppelin/contracts/token/ERC721/ERC721.sol\":2115:2120  owner */\n      dup4\n        /* \"@openzeppelin/contracts/token/ERC721/ERC721.sol\":2105:2121  _balances[owner] */\n      0xffffffffffffffffffffffffffffffffffffffff\n      and\n      0xffffffffffffffffffffffffffffffffffffffff\n      and\n      dup2\n      mstore\n      0x20\n      add\n      swap1\n      dup2\n      mstore\n      0x20\n      add\n      0x00\n      keccak256\n      sload\n        /* \"@openzeppelin/contracts/token/ERC721/ERC721.sol\":2098:2121  return _balances[owner] */\n      swap1\n      pop\n        /* \"@openzeppelin/contracts/token/ERC721/ERC721.sol\":1920:2128  function balanceOf(address owner) public view virtual returns (uint256) {... */\n      swap2\n      swap1\n      pop\n      jump\t// out\n        /* \"contracts/4_PLZNFT.sol\":1454:1574  function renounceOwnership() view public override onlyOwner {... */\n    tag_78:\n        /* \"@openzeppelin/contracts/access/Ownable.sol\":1531:1544  _checkOwner() */\n      tag_171\n        /* \"@openzeppelin/contracts/access/Ownable.sol\":1531:1542  _checkOwner */\n      tag_132\n        /* \"@openzeppelin/contracts/access/Ownable.sol\":1531:1544  _checkOwner() */\n      jump\t// in\n    tag_171:\n        /* \"contracts/4_PLZNFT.sol\":1524:1567  revert(\"Renouncing ownership is disabled.\") */\n      mload(0x40)\n      0x08c379a000000000000000000000000000000000000000000000000000000000\n      dup2\n      mstore\n      0x04\n      add\n      tag_173\n      swap1\n      tag_174\n      jump\t// in\n    tag_173:\n      mload(0x40)\n      dup1\n      swap2\n      sub\n      swap1\n      revert\n        /* \"@openzeppelin/contracts/access/Ownable.sol\":1638:1723  function owner() public view virtual returns (address) {... */\n    tag_81:\n        /* \"@openzeppelin/contracts/access/Ownable.sol\":1684:1691  address */\n      0x00\n        /* \"@openzeppelin/contracts/access/Ownable.sol\":1710:1716  _owner */\n      0x07\n      0x00\n      swap1\n      sload\n      swap1\n      0x0100\n      exp\n      swap1\n      div\n      0xffffffffffffffffffffffffffffffffffffffff\n      and\n        /* \"@openzeppelin/contracts/access/Ownable.sol\":1703:1716  return _owner */\n      swap1\n      pop\n        /* \"@openzeppelin/contracts/access/Ownable.sol\":1638:1723  function owner() public view virtual returns (address) {... */\n      swap1\n      jump\t// out\n        /* \"@openzeppelin/contracts/token/ERC721/ERC721.sol\":2518:2611  function symbol() public view virtual returns (string memory) {... */\n    tag_85:\n        /* \"@openzeppelin/contracts/token/ERC721/ERC721.sol\":2565:2578  string memory */\n      0x60\n        /* \"@openzeppelin/contracts/token/ERC721/ERC721.sol\":2597:2604  _symbol */\n      0x01\n        /* \"@openzeppelin/contracts/token/ERC721/ERC721.sol\":2590:2604  return _symbol */\n      dup1\n      sload\n      tag_177\n      swap1\n      tag_120\n      jump\t// in\n    tag_177:\n      dup1\n      0x1f\n      add\n      0x20\n      dup1\n      swap2\n      div\n      mul\n      0x20\n      add\n      mload(0x40)\n      swap1\n      dup2\n      add\n      0x40\n      mstore\n      dup1\n      swap3\n      swap2\n      swap1\n      dup2\n      dup2\n      mstore\n      0x20\n      add\n      dup3\n      dup1\n      sload\n      tag_178\n      swap1\n      tag_120\n      jump\t// in\n    tag_178:\n      dup1\n      iszero\n      tag_179\n      jumpi\n      dup1\n      0x1f\n      lt\n      tag_180\n      jumpi\n      0x0100\n      dup1\n      dup4\n      sload\n      div\n      mul\n      dup4\n      mstore\n      swap2\n      0x20\n      add\n      swap2\n      jump(tag_179)\n    tag_180:\n      dup3\n      add\n      swap2\n      swap1\n      0x00\n      mstore\n      keccak256(0x00, 0x20)\n      swap1\n    tag_181:\n      dup2\n      sload\n      dup2\n      mstore\n      swap1\n      0x01\n      add\n      swap1\n      0x20\n      add\n      dup1\n      dup4\n      gt\n      tag_181\n      jumpi\n      dup3\n      swap1\n      sub\n      0x1f\n      and\n      dup3\n      add\n      swap2\n    tag_179:\n      pop\n      pop\n      pop\n      pop\n      pop\n      swap1\n      pop\n        /* \"@openzeppelin/contracts/token/ERC721/ERC721.sol\":2518:2611  function symbol() public view virtual returns (string memory) {... */\n      swap1\n      jump\t// out\n        /* \"contracts/4_PLZNFT.sol\":683:868  function setApprovalForAll(address /*operator*/, bool /*approved*/) public view override(ERC721, IERC721) onlyOwner {... */\n    tag_91:\n        /* \"@openzeppelin/contracts/access/Ownable.sol\":1531:1544  _checkOwner() */\n      tag_183\n        /* \"@openzeppelin/contracts/access/Ownable.sol\":1531:1542  _checkOwner */\n      tag_132\n        /* \"@openzeppelin/contracts/access/Ownable.sol\":1531:1544  _checkOwner() */\n      jump\t// in\n    tag_183:\n        /* \"contracts/4_PLZNFT.sol\":809:861  revert(\"Set approval for all function is disabled.\") */\n      mload(0x40)\n      0x08c379a000000000000000000000000000000000000000000000000000000000\n      dup2\n      mstore\n      0x04\n      add\n      tag_185\n      swap1\n      tag_186\n      jump\t// in\n    tag_185:\n      mload(0x40)\n      dup1\n      swap2\n      sub\n      swap1\n      revert\n        /* \"@openzeppelin/contracts/token/ERC721/ERC721.sol\":4985:5193  function safeTransferFrom(address from, address to, uint256 tokenId, bytes memory data) public virtual {... */\n    tag_96:\n        /* \"@openzeppelin/contracts/token/ERC721/ERC721.sol\":5098:5129  transferFrom(from, to, tokenId) */\n      tag_188\n        /* \"@openzeppelin/contracts/token/ERC721/ERC721.sol\":5111:5115  from */\n      dup5\n        /* \"@openzeppelin/contracts/token/ERC721/ERC721.sol\":5117:5119  to */\n      dup5\n        /* \"@openzeppelin/contracts/token/ERC721/ERC721.sol\":5121:5128  tokenId */\n      dup5\n        /* \"@openzeppelin/contracts/token/ERC721/ERC721.sol\":5098:5110  transferFrom */\n      tag_54\n        /* \"@openzeppelin/contracts/token/ERC721/ERC721.sol\":5098:5129  transferFrom(from, to, tokenId) */\n      jump\t// in\n    tag_188:\n        /* \"@openzeppelin/contracts/token/ERC721/ERC721.sol\":5139:5186  _checkOnERC721Received(from, to, tokenId, data) */\n      tag_189\n        /* \"@openzeppelin/contracts/token/ERC721/ERC721.sol\":5162:5166  from */\n      dup5\n        /* \"@openzeppelin/contracts/token/ERC721/ERC721.sol\":5168:5170  to */\n      dup5\n        /* \"@openzeppelin/contracts/token/ERC721/ERC721.sol\":5172:5179  tokenId */\n      dup5\n        /* \"@openzeppelin/contracts/token/ERC721/ERC721.sol\":5181:5185  data */\n      dup5\n        /* \"@openzeppelin/contracts/token/ERC721/ERC721.sol\":5139:5161  _checkOnERC721Received */\n      tag_190\n        /* \"@openzeppelin/contracts/token/ERC721/ERC721.sol\":5139:5186  _checkOnERC721Received(from, to, tokenId, data) */\n      jump\t// in\n    tag_189:\n        /* \"@openzeppelin/contracts/token/ERC721/ERC721.sol\":4985:5193  function safeTransferFrom(address from, address to, uint256 tokenId, bytes memory data) public virtual {... */\n      pop\n      pop\n      pop\n      pop\n      jump\t// out\n        /* \"@openzeppelin/contracts/token/ERC721/extensions/ERC721URIStorage.sol\":1210:1803  function tokenURI(uint256 tokenId) public view virtual override returns (string memory) {... */\n    tag_100:\n        /* \"@openzeppelin/contracts/token/ERC721/extensions/ERC721URIStorage.sol\":1283:1296  string memory */\n      0x60\n        /* \"@openzeppelin/contracts/token/ERC721/extensions/ERC721URIStorage.sol\":1308:1330  _requireOwned(tokenId) */\n      tag_192\n        /* \"@openzeppelin/contracts/token/ERC721/extensions/ERC721URIStorage.sol\":1322:1329  tokenId */\n      dup3\n        /* \"@openzeppelin/contracts/token/ERC721/extensions/ERC721URIStorage.sol\":1308:1321  _requireOwned */\n      tag_127\n        /* \"@openzeppelin/contracts/token/ERC721/extensions/ERC721URIStorage.sol\":1308:1330  _requireOwned(tokenId) */\n      jump\t// in\n    tag_192:\n      pop\n        /* \"@openzeppelin/contracts/token/ERC721/extensions/ERC721URIStorage.sol\":1341:1364  string memory _tokenURI */\n      0x00\n        /* \"@openzeppelin/contracts/token/ERC721/extensions/ERC721URIStorage.sol\":1367:1377  _tokenURIs */\n      0x06\n        /* \"@openzeppelin/contracts/token/ERC721/extensions/ERC721URIStorage.sol\":1367:1386  _tokenURIs[tokenId] */\n      0x00\n        /* \"@openzeppelin/contracts/token/ERC721/extensions/ERC721URIStorage.sol\":1378:1385  tokenId */\n      dup5\n        /* \"@openzeppelin/contracts/token/ERC721/extensions/ERC721URIStorage.sol\":1367:1386  _tokenURIs[tokenId] */\n      dup2\n      mstore\n      0x20\n      add\n      swap1\n      dup2\n      mstore\n      0x20\n      add\n      0x00\n      keccak256\n        /* \"@openzeppelin/contracts/token/ERC721/extensions/ERC721URIStorage.sol\":1341:1386  string memory _tokenURI = _tokenURIs[tokenId] */\n      dup1\n      sload\n      tag_193\n      swap1\n      tag_120\n      jump\t// in\n    tag_193:\n      dup1\n      0x1f\n      add\n      0x20\n      dup1\n      swap2\n      div\n      mul\n      0x20\n      add\n      mload(0x40)\n      swap1\n      dup2\n      add\n      0x40\n      mstore\n      dup1\n      swap3\n      swap2\n      swap1\n      dup2\n      dup2\n      mstore\n      0x20\n      add\n      dup3\n      dup1\n      sload\n      tag_194\n      swap1\n      tag_120\n      jump\t// in\n    tag_194:\n      dup1\n      iszero\n      tag_195\n      jumpi\n      dup1\n      0x1f\n      lt\n      tag_196\n      jumpi\n      0x0100\n      dup1\n      dup4\n      sload\n      div\n      mul\n      dup4\n      mstore\n      swap2\n      0x20\n      add\n      swap2\n      jump(tag_195)\n    tag_196:\n      dup3\n      add\n      swap2\n      swap1\n      0x00\n      mstore\n      keccak256(0x00, 0x20)\n      swap1\n    tag_197:\n      dup2\n      sload\n      dup2\n      mstore\n      swap1\n      0x01\n      add\n      swap1\n      0x20\n      add\n      dup1\n      dup4\n      gt\n      tag_197\n      jumpi\n      dup3\n      swap1\n      sub\n      0x1f\n      and\n      dup3\n      add\n      swap2\n    tag_195:\n      pop\n      pop\n      pop\n      pop\n      pop\n      swap1\n      pop\n        /* \"@openzeppelin/contracts/token/ERC721/extensions/ERC721URIStorage.sol\":1396:1414  string memory base */\n      0x00\n        /* \"@openzeppelin/contracts/token/ERC721/extensions/ERC721URIStorage.sol\":1417:1427  _baseURI() */\n      tag_198\n        /* \"@openzeppelin/contracts/token/ERC721/extensions/ERC721URIStorage.sol\":1417:1425  _baseURI */\n      tag_199\n        /* \"@openzeppelin/contracts/token/ERC721/extensions/ERC721URIStorage.sol\":1417:1427  _baseURI() */\n      jump\t// in\n    tag_198:\n        /* \"@openzeppelin/contracts/token/ERC721/extensions/ERC721URIStorage.sol\":1396:1427  string memory base = _baseURI() */\n      swap1\n      pop\n        /* \"@openzeppelin/contracts/token/ERC721/extensions/ERC721URIStorage.sol\":1522:1523  0 */\n      0x00\n        /* \"@openzeppelin/contracts/token/ERC721/extensions/ERC721URIStorage.sol\":1506:1510  base */\n      dup2\n        /* \"@openzeppelin/contracts/token/ERC721/extensions/ERC721URIStorage.sol\":1500:1518  bytes(base).length */\n      mload\n        /* \"@openzeppelin/contracts/token/ERC721/extensions/ERC721URIStorage.sol\":1500:1523  bytes(base).length == 0 */\n      sub\n        /* \"@openzeppelin/contracts/token/ERC721/extensions/ERC721URIStorage.sol\":1496:1566  if (bytes(base).length == 0) {... */\n      tag_200\n      jumpi\n        /* \"@openzeppelin/contracts/token/ERC721/extensions/ERC721URIStorage.sol\":1546:1555  _tokenURI */\n      dup2\n        /* \"@openzeppelin/contracts/token/ERC721/extensions/ERC721URIStorage.sol\":1539:1555  return _tokenURI */\n      swap3\n      pop\n      pop\n      pop\n      jump(tag_191)\n        /* \"@openzeppelin/contracts/token/ERC721/extensions/ERC721URIStorage.sol\":1496:1566  if (bytes(base).length == 0) {... */\n    tag_200:\n        /* \"@openzeppelin/contracts/token/ERC721/extensions/ERC721URIStorage.sol\":1691:1692  0 */\n      0x00\n        /* \"@openzeppelin/contracts/token/ERC721/extensions/ERC721URIStorage.sol\":1671:1680  _tokenURI */\n      dup3\n        /* \"@openzeppelin/contracts/token/ERC721/extensions/ERC721URIStorage.sol\":1665:1688  bytes(_tokenURI).length */\n      mload\n        /* \"@openzeppelin/contracts/token/ERC721/extensions/ERC721URIStorage.sol\":1665:1692  bytes(_tokenURI).length > 0 */\n      gt\n        /* \"@openzeppelin/contracts/token/ERC721/extensions/ERC721URIStorage.sol\":1661:1756  if (bytes(_tokenURI).length > 0) {... */\n      iszero\n      tag_201\n      jumpi\n        /* \"@openzeppelin/contracts/token/ERC721/extensions/ERC721URIStorage.sol\":1729:1733  base */\n      dup1\n        /* \"@openzeppelin/contracts/token/ERC721/extensions/ERC721URIStorage.sol\":1735:1744  _tokenURI */\n      dup3\n        /* \"@openzeppelin/contracts/token/ERC721/extensions/ERC721URIStorage.sol\":1715:1745  string.concat(base, _tokenURI) */\n      add(0x20, mload(0x40))\n      tag_202\n      swap3\n      swap2\n      swap1\n      tag_203\n      jump\t// in\n    tag_202:\n      mload(0x40)\n      0x20\n      dup2\n      dup4\n      sub\n      sub\n      dup2\n      mstore\n      swap1\n      0x40\n      mstore\n        /* \"@openzeppelin/contracts/token/ERC721/extensions/ERC721URIStorage.sol\":1708:1745  return string.concat(base, _tokenURI) */\n      swap3\n      pop\n      pop\n      pop\n      jump(tag_191)\n        /* \"@openzeppelin/contracts/token/ERC721/extensions/ERC721URIStorage.sol\":1661:1756  if (bytes(_tokenURI).length > 0) {... */\n    tag_201:\n        /* \"@openzeppelin/contracts/token/ERC721/extensions/ERC721URIStorage.sol\":1773:1796  super.tokenURI(tokenId) */\n      tag_204\n        /* \"@openzeppelin/contracts/token/ERC721/extensions/ERC721URIStorage.sol\":1788:1795  tokenId */\n      dup5\n        /* \"@openzeppelin/contracts/token/ERC721/extensions/ERC721URIStorage.sol\":1773:1787  super.tokenURI */\n      tag_205\n        /* \"@openzeppelin/contracts/token/ERC721/extensions/ERC721URIStorage.sol\":1773:1796  super.tokenURI(tokenId) */\n      jump\t// in\n    tag_204:\n        /* \"@openzeppelin/contracts/token/ERC721/extensions/ERC721URIStorage.sol\":1766:1796  return super.tokenURI(tokenId) */\n      swap3\n      pop\n      pop\n      pop\n        /* \"@openzeppelin/contracts/token/ERC721/extensions/ERC721URIStorage.sol\":1210:1803  function tokenURI(uint256 tokenId) public view virtual override returns (string memory) {... */\n    tag_191:\n      swap2\n      swap1\n      pop\n      jump\t// out\n        /* \"contracts/4_PLZNFT.sol\":1758:1806  function deposit() external payable onlyOwner {} */\n    tag_103:\n        /* \"@openzeppelin/contracts/access/Ownable.sol\":1531:1544  _checkOwner() */\n      tag_207\n        /* \"@openzeppelin/contracts/access/Ownable.sol\":1531:1542  _checkOwner */\n      tag_132\n        /* \"@openzeppelin/contracts/access/Ownable.sol\":1531:1544  _checkOwner() */\n      jump\t// in\n    tag_207:\n        /* \"contracts/4_PLZNFT.sol\":1758:1806  function deposit() external payable onlyOwner {} */\n      jump\t// out\n        /* \"@openzeppelin/contracts/token/ERC721/ERC721.sol\":3928:4081  function isApprovedForAll(address owner, address operator) public view virtual returns (bool) {... */\n    tag_108:\n        /* \"@openzeppelin/contracts/token/ERC721/ERC721.sol\":4016:4020  bool */\n      0x00\n        /* \"@openzeppelin/contracts/token/ERC721/ERC721.sol\":4039:4057  _operatorApprovals */\n      0x05\n        /* \"@openzeppelin/contracts/token/ERC721/ERC721.sol\":4039:4064  _operatorApprovals[owner] */\n      0x00\n        /* \"@openzeppelin/contracts/token/ERC721/ERC721.sol\":4058:4063  owner */\n      dup5\n        /* \"@openzeppelin/contracts/token/ERC721/ERC721.sol\":4039:4064  _operatorApprovals[owner] */\n      0xffffffffffffffffffffffffffffffffffffffff\n      and\n      0xffffffffffffffffffffffffffffffffffffffff\n      and\n      dup2\n      mstore\n      0x20\n      add\n      swap1\n      dup2\n      mstore\n      0x20\n      add\n      0x00\n      keccak256\n        /* \"@openzeppelin/contracts/token/ERC721/ERC721.sol\":4039:4074  _operatorApprovals[owner][operator] */\n      0x00\n        /* \"@openzeppelin/contracts/token/ERC721/ERC721.sol\":4065:4073  operator */\n      dup4\n        /* \"@openzeppelin/contracts/token/ERC721/ERC721.sol\":4039:4074  _operatorApprovals[owner][operator] */\n      0xffffffffffffffffffffffffffffffffffffffff\n      and\n      0xffffffffffffffffffffffffffffffffffffffff\n      and\n      dup2\n      mstore\n      0x20\n      add\n      swap1\n      dup2\n      mstore\n      0x20\n      add\n      0x00\n      keccak256\n      0x00\n      swap1\n      sload\n      swap1\n      0x0100\n      exp\n      swap1\n      div\n      0xff\n      and\n        /* \"@openzeppelin/contracts/token/ERC721/ERC721.sol\":4032:4074  return _operatorApprovals[owner][operator] */\n      swap1\n      pop\n        /* \"@openzeppelin/contracts/token/ERC721/ERC721.sol\":3928:4081  function isApprovedForAll(address owner, address operator) public view virtual returns (bool) {... */\n      swap3\n      swap2\n      pop\n      pop\n      jump\t// out\n        /* \"contracts/4_PLZNFT.sol\":1231:1378  function transferOwnership(address /*newOwner*/) public view override onlyOwner {... */\n    tag_113:\n        /* \"@openzeppelin/contracts/access/Ownable.sol\":1531:1544  _checkOwner() */\n      tag_211\n        /* \"@openzeppelin/contracts/access/Ownable.sol\":1531:1542  _checkOwner */\n      tag_132\n        /* \"@openzeppelin/contracts/access/Ownable.sol\":1531:1544  _checkOwner() */\n      jump\t// in\n    tag_211:\n        /* \"contracts/4_PLZNFT.sol\":1321:1371  revert(\"Transfer ownership function is disabled.\") */\n      mload(0x40)\n      0x08c379a000000000000000000000000000000000000000000000000000000000\n      dup2\n      mstore\n      0x04\n      add\n      tag_213\n      swap1\n      tag_214\n      jump\t// in\n    tag_213:\n      mload(0x40)\n      dup1\n      swap2\n      sub\n      swap1\n      revert\n        /* \"@openzeppelin/contracts/token/ERC721/ERC721.sol\":1561:1861  function supportsInterface(bytes4 interfaceId) public view virtual override(ERC165, IERC165) returns (bool) {... */\n    tag_117:\n        /* \"@openzeppelin/contracts/token/ERC721/ERC721.sol\":1663:1667  bool */\n      0x00\n        /* \"@openzeppelin/contracts/token/ERC721/ERC721.sol\":1713:1738  type(IERC721).interfaceId */\n      0x80ac58cd00000000000000000000000000000000000000000000000000000000\n        /* \"@openzeppelin/contracts/token/ERC721/ERC721.sol\":1698:1738  interfaceId == type(IERC721).interfaceId */\n      not(0xffffffffffffffffffffffffffffffffffffffffffffffffffffffff)\n      and\n        /* \"@openzeppelin/contracts/token/ERC721/ERC721.sol\":1698:1709  interfaceId */\n      dup3\n        /* \"@openzeppelin/contracts/token/ERC721/ERC721.sol\":1698:1738  interfaceId == type(IERC721).interfaceId */\n      not(0xffffffffffffffffffffffffffffffffffffffffffffffffffffffff)\n      and\n      eq\n        /* \"@openzeppelin/contracts/token/ERC721/ERC721.sol\":1698:1802  interfaceId == type(IERC721).interfaceId ||... */\n      dup1\n      tag_216\n      jumpi\n      pop\n        /* \"@openzeppelin/contracts/token/ERC721/ERC721.sol\":1769:1802  type(IERC721Metadata).interfaceId */\n      0x5b5e139f00000000000000000000000000000000000000000000000000000000\n        /* \"@openzeppelin/contracts/token/ERC721/ERC721.sol\":1754:1802  interfaceId == type(IERC721Metadata).interfaceId */\n      not(0xffffffffffffffffffffffffffffffffffffffffffffffffffffffff)\n      and\n        /* \"@openzeppelin/contracts/token/ERC721/ERC721.sol\":1754:1765  interfaceId */\n      dup3\n        /* \"@openzeppelin/contracts/token/ERC721/ERC721.sol\":1754:1802  interfaceId == type(IERC721Metadata).interfaceId */\n      not(0xffffffffffffffffffffffffffffffffffffffffffffffffffffffff)\n      and\n      eq\n        /* \"@openzeppelin/contracts/token/ERC721/ERC721.sol\":1698:1802  interfaceId == type(IERC721).interfaceId ||... */\n    tag_216:\n        /* \"@openzeppelin/contracts/token/ERC721/ERC721.sol\":1698:1854  interfaceId == type(IERC721).interfaceId ||... */\n      dup1\n      tag_217\n      jumpi\n      pop\n        /* \"@openzeppelin/contracts/token/ERC721/ERC721.sol\":1818:1854  super.supportsInterface(interfaceId) */\n      tag_218\n        /* \"@openzeppelin/contracts/token/ERC721/ERC721.sol\":1842:1853  interfaceId */\n      dup3\n        /* \"@openzeppelin/contracts/token/ERC721/ERC721.sol\":1818:1841  super.supportsInterface */\n      tag_219\n        /* \"@openzeppelin/contracts/token/ERC721/ERC721.sol\":1818:1854  super.supportsInterface(interfaceId) */\n      jump\t// in\n    tag_218:\n        /* \"@openzeppelin/contracts/token/ERC721/ERC721.sol\":1698:1854  interfaceId == type(IERC721).interfaceId ||... */\n    tag_217:\n        /* \"@openzeppelin/contracts/token/ERC721/ERC721.sol\":1679:1854  return... */\n      swap1\n      pop\n        /* \"@openzeppelin/contracts/token/ERC721/ERC721.sol\":1561:1861  function supportsInterface(bytes4 interfaceId) public view virtual override(ERC165, IERC165) returns (bool) {... */\n      swap2\n      swap1\n      pop\n      jump\t// out\n        /* \"@openzeppelin/contracts/token/ERC721/ERC721.sol\":16138:16379  function _requireOwned(uint256 tokenId) internal view returns (address) {... */\n    tag_127:\n        /* \"@openzeppelin/contracts/token/ERC721/ERC721.sol\":16201:16208  address */\n      0x00\n        /* \"@openzeppelin/contracts/token/ERC721/ERC721.sol\":16220:16233  address owner */\n      dup1\n        /* \"@openzeppelin/contracts/token/ERC721/ERC721.sol\":16236:16253  _ownerOf(tokenId) */\n      tag_221\n        /* \"@openzeppelin/contracts/token/ERC721/ERC721.sol\":16245:16252  tokenId */\n      dup4\n        /* \"@openzeppelin/contracts/token/ERC721/ERC721.sol\":16236:16244  _ownerOf */\n      tag_222\n        /* \"@openzeppelin/contracts/token/ERC721/ERC721.sol\":16236:16253  _ownerOf(tokenId) */\n      jump\t// in\n    tag_221:\n        /* \"@openzeppelin/contracts/token/ERC721/ERC721.sol\":16220:16253  address owner = _ownerOf(tokenId) */\n      swap1\n      pop\n        /* \"@openzeppelin/contracts/token/ERC721/ERC721.sol\":16284:16285  0 */\n      0x00\n        /* \"@openzeppelin/contracts/token/ERC721/ERC721.sol\":16267:16286  owner == address(0) */\n      0xffffffffffffffffffffffffffffffffffffffff\n      and\n        /* \"@openzeppelin/contracts/token/ERC721/ERC721.sol\":16267:16272  owner */\n      dup2\n        /* \"@openzeppelin/contracts/token/ERC721/ERC721.sol\":16267:16286  owner == address(0) */\n      0xffffffffffffffffffffffffffffffffffffffff\n      and\n      sub\n        /* \"@openzeppelin/contracts/token/ERC721/ERC721.sol\":16263:16351  if (owner == address(0)) {... */\n      tag_223\n      jumpi\n        /* \"@openzeppelin/contracts/token/ERC721/ERC721.sol\":16332:16339  tokenId */\n      dup3\n        /* \"@openzeppelin/contracts/token/ERC721/ERC721.sol\":16309:16340  ERC721NonexistentToken(tokenId) */\n      mload(0x40)\n      0x7e27328900000000000000000000000000000000000000000000000000000000\n      dup2\n      mstore\n      0x04\n      add\n      tag_224\n      swap2\n      swap1\n      tag_75\n      jump\t// in\n    tag_224:\n      mload(0x40)\n      dup1\n      swap2\n      sub\n      swap1\n      revert\n        /* \"@openzeppelin/contracts/token/ERC721/ERC721.sol\":16263:16351  if (owner == address(0)) {... */\n    tag_223:\n        /* \"@openzeppelin/contracts/token/ERC721/ERC721.sol\":16367:16372  owner */\n      dup1\n        /* \"@openzeppelin/contracts/token/ERC721/ERC721.sol\":16360:16372  return owner */\n      swap2\n      pop\n      pop\n        /* \"@openzeppelin/contracts/token/ERC721/ERC721.sol\":16138:16379  function _requireOwned(uint256 tokenId) internal view returns (address) {... */\n      swap2\n      swap1\n      pop\n      jump\t// out\n        /* \"@openzeppelin/contracts/token/ERC721/ERC721.sol\":5938:6065  function _getApproved(uint256 tokenId) internal view virtual returns (address) {... */\n    tag_129:\n        /* \"@openzeppelin/contracts/token/ERC721/ERC721.sol\":6008:6015  address */\n      0x00\n        /* \"@openzeppelin/contracts/token/ERC721/ERC721.sol\":6034:6049  _tokenApprovals */\n      0x04\n        /* \"@openzeppelin/contracts/token/ERC721/ERC721.sol\":6034:6058  _tokenApprovals[tokenId] */\n      0x00\n        /* \"@openzeppelin/contracts/token/ERC721/ERC721.sol\":6050:6057  tokenId */\n      dup4\n        /* \"@openzeppelin/contracts/token/ERC721/ERC721.sol\":6034:6058  _tokenApprovals[tokenId] */\n      dup2\n      mstore\n      0x20\n      add\n      swap1\n      dup2\n      mstore\n      0x20\n      add\n      0x00\n      keccak256\n      0x00\n      swap1\n      sload\n      swap1\n      0x0100\n      exp\n      swap1\n      div\n      0xffffffffffffffffffffffffffffffffffffffff\n      and\n        /* \"@openzeppelin/contracts/token/ERC721/ERC721.sol\":6027:6058  return _tokenApprovals[tokenId] */\n      swap1\n      pop\n        /* \"@openzeppelin/contracts/token/ERC721/ERC721.sol\":5938:6065  function _getApproved(uint256 tokenId) internal view virtual returns (address) {... */\n      swap2\n      swap1\n      pop\n      jump\t// out\n        /* \"@openzeppelin/contracts/access/Ownable.sol\":1796:1958  function _checkOwner() internal view virtual {... */\n    tag_132:\n        /* \"@openzeppelin/contracts/access/Ownable.sol\":1866:1878  _msgSender() */\n      tag_227\n        /* \"@openzeppelin/contracts/access/Ownable.sol\":1866:1876  _msgSender */\n      tag_228\n        /* \"@openzeppelin/contracts/access/Ownable.sol\":1866:1878  _msgSender() */\n      jump\t// in\n    tag_227:\n        /* \"@openzeppelin/contracts/access/Ownable.sol\":1855:1878  owner() != _msgSender() */\n      0xffffffffffffffffffffffffffffffffffffffff\n      and\n        /* \"@openzeppelin/contracts/access/Ownable.sol\":1855:1862  owner() */\n      tag_229\n        /* \"@openzeppelin/contracts/access/Ownable.sol\":1855:1860  owner */\n      tag_81\n        /* \"@openzeppelin/contracts/access/Ownable.sol\":1855:1862  owner() */\n      jump\t// in\n    tag_229:\n        /* \"@openzeppelin/contracts/access/Ownable.sol\":1855:1878  owner() != _msgSender() */\n      0xffffffffffffffffffffffffffffffffffffffff\n      and\n      eq\n        /* \"@openzeppelin/contracts/access/Ownable.sol\":1851:1952  if (owner() != _msgSender()) {... */\n      tag_230\n      jumpi\n        /* \"@openzeppelin/contracts/access/Ownable.sol\":1928:1940  _msgSender() */\n      tag_231\n        /* \"@openzeppelin/contracts/access/Ownable.sol\":1928:1938  _msgSender */\n      tag_228\n        /* \"@openzeppelin/contracts/access/Ownable.sol\":1928:1940  _msgSender() */\n      jump\t// in\n    tag_231:\n        /* \"@openzeppelin/contracts/access/Ownable.sol\":1901:1941  OwnableUnauthorizedAccount(_msgSender()) */\n      mload(0x40)\n      0x118cdaa700000000000000000000000000000000000000000000000000000000\n      dup2\n      mstore\n      0x04\n      add\n      tag_232\n      swap2\n      swap1\n      tag_44\n      jump\t// in\n    tag_232:\n      mload(0x40)\n      dup1\n      swap2\n      sub\n      swap1\n      revert\n        /* \"@openzeppelin/contracts/access/Ownable.sol\":1851:1952  if (owner() != _msgSender()) {... */\n    tag_230:\n        /* \"@openzeppelin/contracts/access/Ownable.sol\":1796:1958  function _checkOwner() internal view virtual {... */\n      jump\t// out\n        /* \"@openzeppelin/contracts/token/ERC721/ERC721.sol\":10633:10733  function _safeMint(address to, uint256 tokenId) internal {... */\n    tag_148:\n        /* \"@openzeppelin/contracts/token/ERC721/ERC721.sol\":10700:10726  _safeMint(to, tokenId, \"\") */\n      tag_234\n        /* \"@openzeppelin/contracts/token/ERC721/ERC721.sol\":10710:10712  to */\n      dup3\n        /* \"@openzeppelin/contracts/token/ERC721/ERC721.sol\":10714:10721  tokenId */\n      dup3\n        /* \"@openzeppelin/contracts/token/ERC721/ERC721.sol\":10700:10726  _safeMint(to, tokenId, \"\") */\n      mload(0x40)\n      dup1\n      0x20\n      add\n      0x40\n      mstore\n      dup1\n      0x00\n      dup2\n      mstore\n      pop\n        /* \"@openzeppelin/contracts/token/ERC721/ERC721.sol\":10700:10709  _safeMint */\n      tag_235\n        /* \"@openzeppelin/contracts/token/ERC721/ERC721.sol\":10700:10726  _safeMint(to, tokenId, \"\") */\n      jump\t// in\n    tag_234:\n        /* \"@openzeppelin/contracts/token/ERC721/ERC721.sol\":10633:10733  function _safeMint(address to, uint256 tokenId) internal {... */\n      pop\n      pop\n      jump\t// out\n        /* \"@openzeppelin/contracts/token/ERC721/extensions/ERC721URIStorage.sol\":1922:2089  function _setTokenURI(uint256 tokenId, string memory _tokenURI) internal virtual {... */\n    tag_150:\n        /* \"@openzeppelin/contracts/token/ERC721/extensions/ERC721URIStorage.sol\":2035:2044  _tokenURI */\n      dup1\n        /* \"@openzeppelin/contracts/token/ERC721/extensions/ERC721URIStorage.sol\":2013:2023  _tokenURIs */\n      0x06\n        /* \"@openzeppelin/contracts/token/ERC721/extensions/ERC721URIStorage.sol\":2013:2032  _tokenURIs[tokenId] */\n      0x00\n        /* \"@openzeppelin/contracts/token/ERC721/extensions/ERC721URIStorage.sol\":2024:2031  tokenId */\n      dup5\n        /* \"@openzeppelin/contracts/token/ERC721/extensions/ERC721URIStorage.sol\":2013:2032  _tokenURIs[tokenId] */\n      dup2\n      mstore\n      0x20\n      add\n      swap1\n      dup2\n      mstore\n      0x20\n      add\n      0x00\n      keccak256\n        /* \"@openzeppelin/contracts/token/ERC721/extensions/ERC721URIStorage.sol\":2013:2044  _tokenURIs[tokenId] = _tokenURI */\n      swap1\n      dup2\n      tag_237\n      swap2\n      swap1\n      tag_238\n      jump\t// in\n    tag_237:\n      pop\n        /* \"@openzeppelin/contracts/token/ERC721/extensions/ERC721URIStorage.sol\":2059:2082  MetadataUpdate(tokenId) */\n      0xf8e1a15aba9398e019f0b49df1a4fde98ee17ae345cb5f6b5e2c27f5033e8ce7\n        /* \"@openzeppelin/contracts/token/ERC721/extensions/ERC721URIStorage.sol\":2074:2081  tokenId */\n      dup3\n        /* \"@openzeppelin/contracts/token/ERC721/extensions/ERC721URIStorage.sol\":2059:2082  MetadataUpdate(tokenId) */\n      mload(0x40)\n      tag_239\n      swap2\n      swap1\n      tag_75\n      jump\t// in\n    tag_239:\n      mload(0x40)\n      dup1\n      swap2\n      sub\n      swap1\n      log1\n        /* \"@openzeppelin/contracts/token/ERC721/extensions/ERC721URIStorage.sol\":1922:2089  function _setTokenURI(uint256 tokenId, string memory _tokenURI) internal virtual {... */\n      pop\n      pop\n      jump\t// out\n        /* \"@openzeppelin/contracts/token/ERC721/ERC721.sol\":13771:13975  function _safeTransfer(address from, address to, uint256 tokenId, bytes memory data) internal virtual {... */\n    tag_162:\n        /* \"@openzeppelin/contracts/token/ERC721/ERC721.sol\":13883:13911  _transfer(from, to, tokenId) */\n      tag_241\n        /* \"@openzeppelin/contracts/token/ERC721/ERC721.sol\":13893:13897  from */\n      dup5\n        /* \"@openzeppelin/contracts/token/ERC721/ERC721.sol\":13899:13901  to */\n      dup5\n        /* \"@openzeppelin/contracts/token/ERC721/ERC721.sol\":13903:13910  tokenId */\n      dup5\n        /* \"@openzeppelin/contracts/token/ERC721/ERC721.sol\":13883:13892  _transfer */\n      tag_242\n        /* \"@openzeppelin/contracts/token/ERC721/ERC721.sol\":13883:13911  _transfer(from, to, tokenId) */\n      jump\t// in\n    tag_241:\n        /* \"@openzeppelin/contracts/token/ERC721/ERC721.sol\":13921:13968  _checkOnERC721Received(from, to, tokenId, data) */\n      tag_243\n        /* \"@openzeppelin/contracts/token/ERC721/ERC721.sol\":13944:13948  from */\n      dup5\n        /* \"@openzeppelin/contracts/token/ERC721/ERC721.sol\":13950:13952  to */\n      dup5\n        /* \"@openzeppelin/contracts/token/ERC721/ERC721.sol\":13954:13961  tokenId */\n      dup5\n        /* \"@openzeppelin/contracts/token/ERC721/ERC721.sol\":13963:13967  data */\n      dup5\n        /* \"@openzeppelin/contracts/token/ERC721/ERC721.sol\":13921:13943  _checkOnERC721Received */\n      tag_190\n        /* \"@openzeppelin/contracts/token/ERC721/ERC721.sol\":13921:13968  _checkOnERC721Received(from, to, tokenId, data) */\n      jump\t// in\n    tag_243:\n        /* \"@openzeppelin/contracts/token/ERC721/ERC721.sol\":13771:13975  function _safeTransfer(address from, address to, uint256 tokenId, bytes memory data) internal virtual {... */\n      pop\n      pop\n      pop\n      pop\n      jump\t// out\n        /* \"@openzeppelin/contracts/token/ERC721/ERC721.sol\":16918:17700  function _checkOnERC721Received(address from, address to, uint256 tokenId, bytes memory data) private {... */\n    tag_190:\n        /* \"@openzeppelin/contracts/token/ERC721/ERC721.sol\":17051:17052  0 */\n      0x00\n        /* \"@openzeppelin/contracts/token/ERC721/ERC721.sol\":17034:17036  to */\n      dup4\n        /* \"@openzeppelin/contracts/token/ERC721/ERC721.sol\":17034:17048  to.code.length */\n      0xffffffffffffffffffffffffffffffffffffffff\n      and\n      extcodesize\n        /* \"@openzeppelin/contracts/token/ERC721/ERC721.sol\":17034:17052  to.code.length > 0 */\n      gt\n        /* \"@openzeppelin/contracts/token/ERC721/ERC721.sol\":17030:17694  if (to.code.length > 0) {... */\n      iszero\n      tag_245\n      jumpi\n        /* \"@openzeppelin/contracts/token/ERC721/ERC721.sol\":17088:17090  to */\n      dup3\n        /* \"@openzeppelin/contracts/token/ERC721/ERC721.sol\":17072:17108  IERC721Receiver(to).onERC721Received */\n      0xffffffffffffffffffffffffffffffffffffffff\n      and\n      0x150b7a02\n        /* \"@openzeppelin/contracts/token/ERC721/ERC721.sol\":17109:17121  _msgSender() */\n      tag_246\n        /* \"@openzeppelin/contracts/token/ERC721/ERC721.sol\":17109:17119  _msgSender */\n      tag_228\n        /* \"@openzeppelin/contracts/token/ERC721/ERC721.sol\":17109:17121  _msgSender() */\n      jump\t// in\n    tag_246:\n        /* \"@openzeppelin/contracts/token/ERC721/ERC721.sol\":17123:17127  from */\n      dup7\n        /* \"@openzeppelin/contracts/token/ERC721/ERC721.sol\":17129:17136  tokenId */\n      dup6\n        /* \"@openzeppelin/contracts/token/ERC721/ERC721.sol\":17138:17142  data */\n      dup6\n        /* \"@openzeppelin/contracts/token/ERC721/ERC721.sol\":17072:17143  IERC721Receiver(to).onERC721Received(_msgSender(), from, tokenId, data) */\n      mload(0x40)\n      dup6\n      0xffffffff\n      and\n      0xe0\n      shl\n      dup2\n      mstore\n      0x04\n      add\n      tag_247\n      swap5\n      swap4\n      swap3\n      swap2\n      swap1\n      tag_248\n      jump\t// in\n    tag_247:\n      0x20\n      mload(0x40)\n      dup1\n      dup4\n      sub\n      dup2\n      0x00\n      dup8\n      gas\n      call\n      swap3\n      pop\n      pop\n      pop\n      dup1\n      iszero\n      tag_249\n      jumpi\n      pop\n      mload(0x40)\n      returndatasize\n      not(0x1f)\n      0x1f\n      dup3\n      add\n      and\n      dup3\n      add\n      dup1\n      0x40\n      mstore\n      pop\n      dup2\n      add\n      swap1\n      tag_250\n      swap2\n      swap1\n      tag_251\n      jump\t// in\n    tag_250:\n      0x01\n    tag_249:\n        /* \"@openzeppelin/contracts/token/ERC721/ERC721.sol\":17068:17684  try IERC721Receiver(to).onERC721Received(_msgSender(), from, tokenId, data) returns (bytes4 retval) {... */\n      tag_252\n      jumpi\n      returndatasize\n      dup1\n      0x00\n      dup2\n      eq\n      tag_257\n      jumpi\n      mload(0x40)\n      swap2\n      pop\n      and(add(returndatasize, 0x3f), not(0x1f))\n      dup3\n      add\n      0x40\n      mstore\n      returndatasize\n      dup3\n      mstore\n      returndatasize\n      0x00\n      0x20\n      dup5\n      add\n      returndatacopy\n      jump(tag_256)\n    tag_257:\n      0x60\n      swap2\n      pop\n    tag_256:\n      pop\n        /* \"@openzeppelin/contracts/token/ERC721/ERC721.sol\":17398:17399  0 */\n      0x00\n        /* \"@openzeppelin/contracts/token/ERC721/ERC721.sol\":17381:17387  reason */\n      dup2\n        /* \"@openzeppelin/contracts/token/ERC721/ERC721.sol\":17381:17394  reason.length */\n      mload\n        /* \"@openzeppelin/contracts/token/ERC721/ERC721.sol\":17381:17399  reason.length == 0 */\n      sub\n        /* \"@openzeppelin/contracts/token/ERC721/ERC721.sol\":17377:17670  if (reason.length == 0) {... */\n      tag_258\n      jumpi\n        /* \"@openzeppelin/contracts/token/ERC721/ERC721.sol\":17452:17454  to */\n      dup4\n        /* \"@openzeppelin/contracts/token/ERC721/ERC721.sol\":17430:17455  ERC721InvalidReceiver(to) */\n      mload(0x40)\n      0x64a0ae9200000000000000000000000000000000000000000000000000000000\n      dup2\n      mstore\n      0x04\n      add\n      tag_259\n      swap2\n      swap1\n      tag_44\n      jump\t// in\n    tag_259:\n      mload(0x40)\n      dup1\n      swap2\n      sub\n      swap1\n      revert\n        /* \"@openzeppelin/contracts/token/ERC721/ERC721.sol\":17377:17670  if (reason.length == 0) {... */\n    tag_258:\n        /* \"@openzeppelin/contracts/token/ERC721/ERC721.sol\":17622:17628  reason */\n      dup1\n        /* \"@openzeppelin/contracts/token/ERC721/ERC721.sol\":17616:17629  mload(reason) */\n      mload\n        /* \"@openzeppelin/contracts/token/ERC721/ERC721.sol\":17607:17613  reason */\n      dup2\n        /* \"@openzeppelin/contracts/token/ERC721/ERC721.sol\":17603:17605  32 */\n      0x20\n        /* \"@openzeppelin/contracts/token/ERC721/ERC721.sol\":17599:17614  add(32, reason) */\n      add\n        /* \"@openzeppelin/contracts/token/ERC721/ERC721.sol\":17592:17630  revert(add(32, reason), mload(reason)) */\n      revert\n        /* \"@openzeppelin/contracts/token/ERC721/ERC721.sol\":17068:17684  try IERC721Receiver(to).onERC721Received(_msgSender(), from, tokenId, data) returns (bytes4 retval) {... */\n    tag_252:\n        /* \"@openzeppelin/contracts/token/ERC721/ERC721.sol\":17200:17241  IERC721Receiver.onERC721Received.selector */\n      shl(0xe0, 0x150b7a02)\n        /* \"@openzeppelin/contracts/token/ERC721/ERC721.sol\":17190:17241  retval != IERC721Receiver.onERC721Received.selector */\n      not(0xffffffffffffffffffffffffffffffffffffffffffffffffffffffff)\n      and\n        /* \"@openzeppelin/contracts/token/ERC721/ERC721.sol\":17190:17196  retval */\n      dup2\n        /* \"@openzeppelin/contracts/token/ERC721/ERC721.sol\":17190:17241  retval != IERC721Receiver.onERC721Received.selector */\n      not(0xffffffffffffffffffffffffffffffffffffffffffffffffffffffff)\n      and\n      eq\n        /* \"@openzeppelin/contracts/token/ERC721/ERC721.sol\":17186:17316  if (retval != IERC721Receiver.onERC721Received.selector) {... */\n      tag_262\n      jumpi\n        /* \"@openzeppelin/contracts/token/ERC721/ERC721.sol\":17294:17296  to */\n      dup4\n        /* \"@openzeppelin/contracts/token/ERC721/ERC721.sol\":17272:17297  ERC721InvalidReceiver(to) */\n      mload(0x40)\n      0x64a0ae9200000000000000000000000000000000000000000000000000000000\n      dup2\n      mstore\n      0x04\n      add\n      tag_263\n      swap2\n      swap1\n      tag_44\n      jump\t// in\n    tag_263:\n      mload(0x40)\n      dup1\n      swap2\n      sub\n      swap1\n      revert\n        /* \"@openzeppelin/contracts/token/ERC721/ERC721.sol\":17186:17316  if (retval != IERC721Receiver.onERC721Received.selector) {... */\n    tag_262:\n        /* \"@openzeppelin/contracts/token/ERC721/ERC721.sol\":17144:17330  returns (bytes4 retval) {... */\n      pop\n        /* \"@openzeppelin/contracts/token/ERC721/ERC721.sol\":17030:17694  if (to.code.length > 0) {... */\n    tag_245:\n        /* \"@openzeppelin/contracts/token/ERC721/ERC721.sol\":16918:17700  function _checkOnERC721Received(address from, address to, uint256 tokenId, bytes memory data) private {... */\n      pop\n      pop\n      pop\n      pop\n      jump\t// out\n        /* \"@openzeppelin/contracts/token/ERC721/ERC721.sol\":3174:3266  function _baseURI() internal view virtual returns (string memory) {... */\n    tag_199:\n        /* \"@openzeppelin/contracts/token/ERC721/ERC721.sol\":3225:3238  string memory */\n      0x60\n        /* \"@openzeppelin/contracts/token/ERC721/ERC721.sol\":3250:3259  return \"\" */\n      mload(0x40)\n      dup1\n      0x20\n      add\n      0x40\n      mstore\n      dup1\n      0x00\n      dup2\n      mstore\n      pop\n      swap1\n      pop\n        /* \"@openzeppelin/contracts/token/ERC721/ERC721.sol\":3174:3266  function _baseURI() internal view virtual returns (string memory) {... */\n      swap1\n      jump\t// out\n        /* \"@openzeppelin/contracts/token/ERC721/ERC721.sol\":2677:2932  function tokenURI(uint256 tokenId) public view virtual returns (string memory) {... */\n    tag_205:\n        /* \"@openzeppelin/contracts/token/ERC721/ERC721.sol\":2741:2754  string memory */\n      0x60\n        /* \"@openzeppelin/contracts/token/ERC721/ERC721.sol\":2766:2788  _requireOwned(tokenId) */\n      tag_266\n        /* \"@openzeppelin/contracts/token/ERC721/ERC721.sol\":2780:2787  tokenId */\n      dup3\n        /* \"@openzeppelin/contracts/token/ERC721/ERC721.sol\":2766:2779  _requireOwned */\n      tag_127\n        /* \"@openzeppelin/contracts/token/ERC721/ERC721.sol\":2766:2788  _requireOwned(tokenId) */\n      jump\t// in\n    tag_266:\n      pop\n        /* \"@openzeppelin/contracts/token/ERC721/ERC721.sol\":2799:2820  string memory baseURI */\n      0x00\n        /* \"@openzeppelin/contracts/token/ERC721/ERC721.sol\":2823:2833  _baseURI() */\n      tag_267\n        /* \"@openzeppelin/contracts/token/ERC721/ERC721.sol\":2823:2831  _baseURI */\n      tag_199\n        /* \"@openzeppelin/contracts/token/ERC721/ERC721.sol\":2823:2833  _baseURI() */\n      jump\t// in\n    tag_267:\n        /* \"@openzeppelin/contracts/token/ERC721/ERC721.sol\":2799:2833  string memory baseURI = _baseURI() */\n      swap1\n      pop\n        /* \"@openzeppelin/contracts/token/ERC721/ERC721.sol\":2874:2875  0 */\n      0x00\n        /* \"@openzeppelin/contracts/token/ERC721/ERC721.sol\":2856:2863  baseURI */\n      dup2\n        /* \"@openzeppelin/contracts/token/ERC721/ERC721.sol\":2850:2871  bytes(baseURI).length */\n      mload\n        /* \"@openzeppelin/contracts/token/ERC721/ERC721.sol\":2850:2875  bytes(baseURI).length > 0 */\n      gt\n        /* \"@openzeppelin/contracts/token/ERC721/ERC721.sol\":2850:2925  bytes(baseURI).length > 0 ? string.concat(baseURI, tokenId.toString()) : \"\" */\n      tag_268\n      jumpi\n      mload(0x40)\n      dup1\n      0x20\n      add\n      0x40\n      mstore\n      dup1\n      0x00\n      dup2\n      mstore\n      pop\n      jump(tag_269)\n    tag_268:\n        /* \"@openzeppelin/contracts/token/ERC721/ERC721.sol\":2892:2899  baseURI */\n      dup1\n        /* \"@openzeppelin/contracts/token/ERC721/ERC721.sol\":2901:2919  tokenId.toString() */\n      tag_270\n        /* \"@openzeppelin/contracts/token/ERC721/ERC721.sol\":2901:2908  tokenId */\n      dup5\n        /* \"@openzeppelin/contracts/token/ERC721/ERC721.sol\":2901:2917  tokenId.toString */\n      tag_271\n        /* \"@openzeppelin/contracts/token/ERC721/ERC721.sol\":2901:2919  tokenId.toString() */\n      jump\t// in\n    tag_270:\n        /* \"@openzeppelin/contracts/token/ERC721/ERC721.sol\":2878:2920  string.concat(baseURI, tokenId.toString()) */\n      add(0x20, mload(0x40))\n      tag_272\n      swap3\n      swap2\n      swap1\n      tag_203\n      jump\t// in\n    tag_272:\n      mload(0x40)\n      0x20\n      dup2\n      dup4\n      sub\n      sub\n      dup2\n      mstore\n      swap1\n      0x40\n      mstore\n        /* \"@openzeppelin/contracts/token/ERC721/ERC721.sol\":2850:2925  bytes(baseURI).length > 0 ? string.concat(baseURI, tokenId.toString()) : \"\" */\n    tag_269:\n        /* \"@openzeppelin/contracts/token/ERC721/ERC721.sol\":2843:2925  return bytes(baseURI).length > 0 ? string.concat(baseURI, tokenId.toString()) : \"\" */\n      swap2\n      pop\n      pop\n        /* \"@openzeppelin/contracts/token/ERC721/ERC721.sol\":2677:2932  function tokenURI(uint256 tokenId) public view virtual returns (string memory) {... */\n      swap2\n      swap1\n      pop\n      jump\t// out\n        /* \"@openzeppelin/contracts/utils/introspection/ERC165.sol\":762:908  function supportsInterface(bytes4 interfaceId) public view virtual returns (bool) {... */\n    tag_219:\n        /* \"@openzeppelin/contracts/utils/introspection/ERC165.sol\":838:842  bool */\n      0x00\n        /* \"@openzeppelin/contracts/utils/introspection/ERC165.sol\":876:901  type(IERC165).interfaceId */\n      0x01ffc9a700000000000000000000000000000000000000000000000000000000\n        /* \"@openzeppelin/contracts/utils/introspection/ERC165.sol\":861:901  interfaceId == type(IERC165).interfaceId */\n      not(0xffffffffffffffffffffffffffffffffffffffffffffffffffffffff)\n      and\n        /* \"@openzeppelin/contracts/utils/introspection/ERC165.sol\":861:872  interfaceId */\n      dup3\n        /* \"@openzeppelin/contracts/utils/introspection/ERC165.sol\":861:901  interfaceId == type(IERC165).interfaceId */\n      not(0xffffffffffffffffffffffffffffffffffffffffffffffffffffffff)\n      and\n      eq\n        /* \"@openzeppelin/contracts/utils/introspection/ERC165.sol\":854:901  return interfaceId == type(IERC165).interfaceId */\n      swap1\n      pop\n        /* \"@openzeppelin/contracts/utils/introspection/ERC165.sol\":762:908  function supportsInterface(bytes4 interfaceId) public view virtual returns (bool) {... */\n      swap2\n      swap1\n      pop\n      jump\t// out\n        /* \"@openzeppelin/contracts/token/ERC721/ERC721.sol\":5707:5822  function _ownerOf(uint256 tokenId) internal view virtual returns (address) {... */\n    tag_222:\n        /* \"@openzeppelin/contracts/token/ERC721/ERC721.sol\":5773:5780  address */\n      0x00\n        /* \"@openzeppelin/contracts/token/ERC721/ERC721.sol\":5799:5806  _owners */\n      0x02\n        /* \"@openzeppelin/contracts/token/ERC721/ERC721.sol\":5799:5815  _owners[tokenId] */\n      0x00\n        /* \"@openzeppelin/contracts/token/ERC721/ERC721.sol\":5807:5814  tokenId */\n      dup4\n        /* \"@openzeppelin/contracts/token/ERC721/ERC721.sol\":5799:5815  _owners[tokenId] */\n      dup2\n      mstore\n      0x20\n      add\n      swap1\n      dup2\n      mstore\n      0x20\n      add\n      0x00\n      keccak256\n      0x00\n      swap1\n      sload\n      swap1\n      0x0100\n      exp\n      swap1\n      div\n      0xffffffffffffffffffffffffffffffffffffffff\n      and\n        /* \"@openzeppelin/contracts/token/ERC721/ERC721.sol\":5792:5815  return _owners[tokenId] */\n      swap1\n      pop\n        /* \"@openzeppelin/contracts/token/ERC721/ERC721.sol\":5707:5822  function _ownerOf(uint256 tokenId) internal view virtual returns (address) {... */\n      swap2\n      swap1\n      pop\n      jump\t// out\n        /* \"@openzeppelin/contracts/utils/Context.sol\":656:752  function _msgSender() internal view virtual returns (address) {... */\n    tag_228:\n        /* \"@openzeppelin/contracts/utils/Context.sol\":709:716  address */\n      0x00\n        /* \"@openzeppelin/contracts/utils/Context.sol\":735:745  msg.sender */\n      caller\n        /* \"@openzeppelin/contracts/utils/Context.sol\":728:745  return msg.sender */\n      swap1\n      pop\n        /* \"@openzeppelin/contracts/utils/Context.sol\":656:752  function _msgSender() internal view virtual returns (address) {... */\n      swap1\n      jump\t// out\n        /* \"@openzeppelin/contracts/token/ERC721/ERC721.sol\":10954:11136  function _safeMint(address to, uint256 tokenId, bytes memory data) internal virtual {... */\n    tag_235:\n        /* \"@openzeppelin/contracts/token/ERC721/ERC721.sol\":11048:11066  _mint(to, tokenId) */\n      tag_277\n        /* \"@openzeppelin/contracts/token/ERC721/ERC721.sol\":11054:11056  to */\n      dup4\n        /* \"@openzeppelin/contracts/token/ERC721/ERC721.sol\":11058:11065  tokenId */\n      dup4\n        /* \"@openzeppelin/contracts/token/ERC721/ERC721.sol\":11048:11053  _mint */\n      tag_278\n        /* \"@openzeppelin/contracts/token/ERC721/ERC721.sol\":11048:11066  _mint(to, tokenId) */\n      jump\t// in\n    tag_277:\n        /* \"@openzeppelin/contracts/token/ERC721/ERC721.sol\":11076:11129  _checkOnERC721Received(address(0), to, tokenId, data) */\n      tag_279\n        /* \"@openzeppelin/contracts/token/ERC721/ERC721.sol\":11107:11108  0 */\n      0x00\n        /* \"@openzeppelin/contracts/token/ERC721/ERC721.sol\":11111:11113  to */\n      dup5\n        /* \"@openzeppelin/contracts/token/ERC721/ERC721.sol\":11115:11122  tokenId */\n      dup5\n        /* \"@openzeppelin/contracts/token/ERC721/ERC721.sol\":11124:11128  data */\n      dup5\n        /* \"@openzeppelin/contracts/token/ERC721/ERC721.sol\":11076:11098  _checkOnERC721Received */\n      tag_190\n        /* \"@openzeppelin/contracts/token/ERC721/ERC721.sol\":11076:11129  _checkOnERC721Received(address(0), to, tokenId, data) */\n      jump\t// in\n    tag_279:\n        /* \"@openzeppelin/contracts/token/ERC721/ERC721.sol\":10954:11136  function _safeMint(address to, uint256 tokenId, bytes memory data) internal virtual {... */\n      pop\n      pop\n      pop\n      jump\t// out\n        /* \"@openzeppelin/contracts/token/ERC721/ERC721.sol\":12013:12473  function _transfer(address from, address to, uint256 tokenId) internal {... */\n    tag_242:\n        /* \"@openzeppelin/contracts/token/ERC721/ERC721.sol\":12112:12113  0 */\n      0x00\n        /* \"@openzeppelin/contracts/token/ERC721/ERC721.sol\":12098:12114  to == address(0) */\n      0xffffffffffffffffffffffffffffffffffffffff\n      and\n        /* \"@openzeppelin/contracts/token/ERC721/ERC721.sol\":12098:12100  to */\n      dup3\n        /* \"@openzeppelin/contracts/token/ERC721/ERC721.sol\":12098:12114  to == address(0) */\n      0xffffffffffffffffffffffffffffffffffffffff\n      and\n      sub\n        /* \"@openzeppelin/contracts/token/ERC721/ERC721.sol\":12094:12181  if (to == address(0)) {... */\n      tag_281\n      jumpi\n        /* \"@openzeppelin/contracts/token/ERC721/ERC721.sol\":12167:12168  0 */\n      0x00\n        /* \"@openzeppelin/contracts/token/ERC721/ERC721.sol\":12137:12170  ERC721InvalidReceiver(address(0)) */\n      mload(0x40)\n      0x64a0ae9200000000000000000000000000000000000000000000000000000000\n      dup2\n      mstore\n      0x04\n      add\n      tag_282\n      swap2\n      swap1\n      tag_44\n      jump\t// in\n    tag_282:\n      mload(0x40)\n      dup1\n      swap2\n      sub\n      swap1\n      revert\n        /* \"@openzeppelin/contracts/token/ERC721/ERC721.sol\":12094:12181  if (to == address(0)) {... */\n    tag_281:\n        /* \"@openzeppelin/contracts/token/ERC721/ERC721.sol\":12190:12211  address previousOwner */\n      0x00\n        /* \"@openzeppelin/contracts/token/ERC721/ERC721.sol\":12214:12246  _update(to, tokenId, address(0)) */\n      tag_283\n        /* \"@openzeppelin/contracts/token/ERC721/ERC721.sol\":12222:12224  to */\n      dup4\n        /* \"@openzeppelin/contracts/token/ERC721/ERC721.sol\":12226:12233  tokenId */\n      dup4\n        /* \"@openzeppelin/contracts/token/ERC721/ERC721.sol\":12243:12244  0 */\n      0x00\n        /* \"@openzeppelin/contracts/token/ERC721/ERC721.sol\":12214:12221  _update */\n      tag_284\n        /* \"@openzeppelin/contracts/token/ERC721/ERC721.sol\":12214:12246  _update(to, tokenId, address(0)) */\n      jump\t// in\n    tag_283:\n        /* \"@openzeppelin/contracts/token/ERC721/ERC721.sol\":12190:12246  address previousOwner = _update(to, tokenId, address(0)) */\n      swap1\n      pop\n        /* \"@openzeppelin/contracts/token/ERC721/ERC721.sol\":12285:12286  0 */\n      0x00\n        /* \"@openzeppelin/contracts/token/ERC721/ERC721.sol\":12260:12287  previousOwner == address(0) */\n      0xffffffffffffffffffffffffffffffffffffffff\n      and\n        /* \"@openzeppelin/contracts/token/ERC721/ERC721.sol\":12260:12273  previousOwner */\n      dup2\n        /* \"@openzeppelin/contracts/token/ERC721/ERC721.sol\":12260:12287  previousOwner == address(0) */\n      0xffffffffffffffffffffffffffffffffffffffff\n      and\n      sub\n        /* \"@openzeppelin/contracts/token/ERC721/ERC721.sol\":12256:12467  if (previousOwner == address(0)) {... */\n      tag_285\n      jumpi\n        /* \"@openzeppelin/contracts/token/ERC721/ERC721.sol\":12333:12340  tokenId */\n      dup2\n        /* \"@openzeppelin/contracts/token/ERC721/ERC721.sol\":12310:12341  ERC721NonexistentToken(tokenId) */\n      mload(0x40)\n      0x7e27328900000000000000000000000000000000000000000000000000000000\n      dup2\n      mstore\n      0x04\n      add\n      tag_286\n      swap2\n      swap1\n      tag_75\n      jump\t// in\n    tag_286:\n      mload(0x40)\n      dup1\n      swap2\n      sub\n      swap1\n      revert\n        /* \"@openzeppelin/contracts/token/ERC721/ERC721.sol\":12256:12467  if (previousOwner == address(0)) {... */\n    tag_285:\n        /* \"@openzeppelin/contracts/token/ERC721/ERC721.sol\":12379:12383  from */\n      dup4\n        /* \"@openzeppelin/contracts/token/ERC721/ERC721.sol\":12362:12383  previousOwner != from */\n      0xffffffffffffffffffffffffffffffffffffffff\n      and\n        /* \"@openzeppelin/contracts/token/ERC721/ERC721.sol\":12362:12375  previousOwner */\n      dup2\n        /* \"@openzeppelin/contracts/token/ERC721/ERC721.sol\":12362:12383  previousOwner != from */\n      0xffffffffffffffffffffffffffffffffffffffff\n      and\n      eq\n        /* \"@openzeppelin/contracts/token/ERC721/ERC721.sol\":12358:12467  if (previousOwner != from) {... */\n      tag_288\n      jumpi\n        /* \"@openzeppelin/contracts/token/ERC721/ERC721.sol\":12427:12431  from */\n      dup4\n        /* \"@openzeppelin/contracts/token/ERC721/ERC721.sol\":12433:12440  tokenId */\n      dup3\n        /* \"@openzeppelin/contracts/token/ERC721/ERC721.sol\":12442:12455  previousOwner */\n      dup3\n        /* \"@openzeppelin/contracts/token/ERC721/ERC721.sol\":12406:12456  ERC721IncorrectOwner(from, tokenId, previousOwner) */\n      mload(0x40)\n      0x64283d7b00000000000000000000000000000000000000000000000000000000\n      dup2\n      mstore\n      0x04\n      add\n      tag_289\n      swap4\n      swap3\n      swap2\n      swap1\n      tag_290\n      jump\t// in\n    tag_289:\n      mload(0x40)\n      dup1\n      swap2\n      sub\n      swap1\n      revert\n        /* \"@openzeppelin/contracts/token/ERC721/ERC721.sol\":12358:12467  if (previousOwner != from) {... */\n    tag_288:\n        /* \"@openzeppelin/contracts/token/ERC721/ERC721.sol\":12084:12473  {... */\n      pop\n        /* \"@openzeppelin/contracts/token/ERC721/ERC721.sol\":12013:12473  function _transfer(address from, address to, uint256 tokenId) internal {... */\n      pop\n      pop\n      pop\n      jump\t// out\n        /* \"@openzeppelin/contracts/utils/Strings.sol\":637:1335  function toString(uint256 value) internal pure returns (string memory) {... */\n    tag_271:\n        /* \"@openzeppelin/contracts/utils/Strings.sol\":693:706  string memory */\n      0x60\n        /* \"@openzeppelin/contracts/utils/Strings.sol\":742:756  uint256 length */\n      0x00\n        /* \"@openzeppelin/contracts/utils/Strings.sol\":779:780  1 */\n      0x01\n        /* \"@openzeppelin/contracts/utils/Strings.sol\":759:776  Math.log10(value) */\n      tag_292\n        /* \"@openzeppelin/contracts/utils/Strings.sol\":770:775  value */\n      dup5\n        /* \"@openzeppelin/contracts/utils/Strings.sol\":759:769  Math.log10 */\n      tag_293\n        /* \"@openzeppelin/contracts/utils/Strings.sol\":759:776  Math.log10(value) */\n      jump\t// in\n    tag_292:\n        /* \"@openzeppelin/contracts/utils/Strings.sol\":759:780  Math.log10(value) + 1 */\n      add\n        /* \"@openzeppelin/contracts/utils/Strings.sol\":742:780  uint256 length = Math.log10(value) + 1 */\n      swap1\n      pop\n        /* \"@openzeppelin/contracts/utils/Strings.sol\":794:814  string memory buffer */\n      0x00\n        /* \"@openzeppelin/contracts/utils/Strings.sol\":828:834  length */\n      dup2\n        /* \"@openzeppelin/contracts/utils/Strings.sol\":817:835  new string(length) */\n      0xffffffffffffffff\n      dup2\n      gt\n      iszero\n      tag_294\n      jumpi\n      tag_295\n      tag_296\n      jump\t// in\n    tag_295:\n    tag_294:\n      mload(0x40)\n      swap1\n      dup1\n      dup3\n      mstore\n      dup1\n      0x1f\n      add\n      not(0x1f)\n      and\n      0x20\n      add\n      dup3\n      add\n      0x40\n      mstore\n      dup1\n      iszero\n      tag_297\n      jumpi\n      dup2\n      0x20\n      add\n      0x01\n      dup3\n      mul\n      dup1\n      calldatasize\n      dup4\n      calldatacopy\n      dup1\n      dup3\n      add\n      swap2\n      pop\n      pop\n      swap1\n      pop\n    tag_297:\n      pop\n        /* \"@openzeppelin/contracts/utils/Strings.sol\":794:835  string memory buffer = new string(length) */\n      swap1\n      pop\n        /* \"@openzeppelin/contracts/utils/Strings.sol\":849:860  uint256 ptr */\n      0x00\n        /* \"@openzeppelin/contracts/utils/Strings.sol\":975:981  length */\n      dup3\n        /* \"@openzeppelin/contracts/utils/Strings.sol\":971:973  32 */\n      0x20\n        /* \"@openzeppelin/contracts/utils/Strings.sol\":967:982  add(32, length) */\n      add\n        /* \"@openzeppelin/contracts/utils/Strings.sol\":959:965  buffer */\n      dup3\n        /* \"@openzeppelin/contracts/utils/Strings.sol\":955:983  add(buffer, add(32, length)) */\n      add\n        /* \"@openzeppelin/contracts/utils/Strings.sol\":948:983  ptr := add(buffer, add(32, length)) */\n      swap1\n      pop\n        /* \"@openzeppelin/contracts/utils/Strings.sol\":1010:1292  while (true) {... */\n    tag_298:\n        /* \"@openzeppelin/contracts/utils/Strings.sol\":1017:1021  true */\n      0x01\n        /* \"@openzeppelin/contracts/utils/Strings.sol\":1010:1292  while (true) {... */\n      iszero\n      tag_299\n      jumpi\n        /* \"@openzeppelin/contracts/utils/Strings.sol\":1041:1046  ptr-- */\n      dup1\n      dup1\n      0x01\n      swap1\n      sub\n      swap2\n      pop\n      pop\n        /* \"@openzeppelin/contracts/utils/Strings.sol\":1180:1190  HEX_DIGITS */\n      0x3031323334353637383961626364656600000000000000000000000000000000\n        /* \"@openzeppelin/contracts/utils/Strings.sol\":1175:1177  10 */\n      0x0a\n        /* \"@openzeppelin/contracts/utils/Strings.sol\":1168:1173  value */\n      dup7\n        /* \"@openzeppelin/contracts/utils/Strings.sol\":1164:1178  mod(value, 10) */\n      mod\n        /* \"@openzeppelin/contracts/utils/Strings.sol\":1159:1191  byte(mod(value, 10), HEX_DIGITS) */\n      byte\n        /* \"@openzeppelin/contracts/utils/Strings.sol\":1154:1157  ptr */\n      dup2\n        /* \"@openzeppelin/contracts/utils/Strings.sol\":1146:1192  mstore8(ptr, byte(mod(value, 10), HEX_DIGITS)) */\n      mstore8\n        /* \"@openzeppelin/contracts/utils/Strings.sol\":1236:1238  10 */\n      0x0a\n        /* \"@openzeppelin/contracts/utils/Strings.sol\":1227:1238  value /= 10 */\n      dup6\n      dup2\n      tag_300\n      jumpi\n      tag_301\n      tag_302\n      jump\t// in\n    tag_301:\n    tag_300:\n      div\n      swap5\n      pop\n        /* \"@openzeppelin/contracts/utils/Strings.sol\":1269:1270  0 */\n      0x00\n        /* \"@openzeppelin/contracts/utils/Strings.sol\":1260:1265  value */\n      dup6\n        /* \"@openzeppelin/contracts/utils/Strings.sol\":1260:1270  value == 0 */\n      sub\n        /* \"@openzeppelin/contracts/utils/Strings.sol\":1010:1292  while (true) {... */\n      tag_298\n        /* \"@openzeppelin/contracts/utils/Strings.sol\":1256:1277  if (value == 0) break */\n      jumpi\n        /* \"@openzeppelin/contracts/utils/Strings.sol\":1010:1292  while (true) {... */\n    tag_299:\n        /* \"@openzeppelin/contracts/utils/Strings.sol\":1312:1318  buffer */\n      dup2\n        /* \"@openzeppelin/contracts/utils/Strings.sol\":1305:1318  return buffer */\n      swap4\n      pop\n      pop\n      pop\n      pop\n        /* \"@openzeppelin/contracts/utils/Strings.sol\":637:1335  function toString(uint256 value) internal pure returns (string memory) {... */\n      swap2\n      swap1\n      pop\n      jump\t// out\n        /* \"@openzeppelin/contracts/token/ERC721/ERC721.sol\":9955:10282  function _mint(address to, uint256 tokenId) internal {... */\n    tag_278:\n        /* \"@openzeppelin/contracts/token/ERC721/ERC721.sol\":10036:10037  0 */\n      0x00\n        /* \"@openzeppelin/contracts/token/ERC721/ERC721.sol\":10022:10038  to == address(0) */\n      0xffffffffffffffffffffffffffffffffffffffff\n      and\n        /* \"@openzeppelin/contracts/token/ERC721/ERC721.sol\":10022:10024  to */\n      dup3\n        /* \"@openzeppelin/contracts/token/ERC721/ERC721.sol\":10022:10038  to == address(0) */\n      0xffffffffffffffffffffffffffffffffffffffff\n      and\n      sub\n        /* \"@openzeppelin/contracts/token/ERC721/ERC721.sol\":10018:10105  if (to == address(0)) {... */\n      tag_305\n      jumpi\n        /* \"@openzeppelin/contracts/token/ERC721/ERC721.sol\":10091:10092  0 */\n      0x00\n        /* \"@openzeppelin/contracts/token/ERC721/ERC721.sol\":10061:10094  ERC721InvalidReceiver(address(0)) */\n      mload(0x40)\n      0x64a0ae9200000000000000000000000000000000000000000000000000000000\n      dup2\n      mstore\n      0x04\n      add\n      tag_306\n      swap2\n      swap1\n      tag_44\n      jump\t// in\n    tag_306:\n      mload(0x40)\n      dup1\n      swap2\n      sub\n      swap1\n      revert\n        /* \"@openzeppelin/contracts/token/ERC721/ERC721.sol\":10018:10105  if (to == address(0)) {... */\n    tag_305:\n        /* \"@openzeppelin/contracts/token/ERC721/ERC721.sol\":10114:10135  address previousOwner */\n      0x00\n        /* \"@openzeppelin/contracts/token/ERC721/ERC721.sol\":10138:10170  _update(to, tokenId, address(0)) */\n      tag_307\n        /* \"@openzeppelin/contracts/token/ERC721/ERC721.sol\":10146:10148  to */\n      dup4\n        /* \"@openzeppelin/contracts/token/ERC721/ERC721.sol\":10150:10157  tokenId */\n      dup4\n        /* \"@openzeppelin/contracts/token/ERC721/ERC721.sol\":10167:10168  0 */\n      0x00\n        /* \"@openzeppelin/contracts/token/ERC721/ERC721.sol\":10138:10145  _update */\n      tag_284\n        /* \"@openzeppelin/contracts/token/ERC721/ERC721.sol\":10138:10170  _update(to, tokenId, address(0)) */\n      jump\t// in\n    tag_307:\n        /* \"@openzeppelin/contracts/token/ERC721/ERC721.sol\":10114:10170  address previousOwner = _update(to, tokenId, address(0)) */\n      swap1\n      pop\n        /* \"@openzeppelin/contracts/token/ERC721/ERC721.sol\":10209:10210  0 */\n      0x00\n        /* \"@openzeppelin/contracts/token/ERC721/ERC721.sol\":10184:10211  previousOwner != address(0) */\n      0xffffffffffffffffffffffffffffffffffffffff\n      and\n        /* \"@openzeppelin/contracts/token/ERC721/ERC721.sol\":10184:10197  previousOwner */\n      dup2\n        /* \"@openzeppelin/contracts/token/ERC721/ERC721.sol\":10184:10211  previousOwner != address(0) */\n      0xffffffffffffffffffffffffffffffffffffffff\n      and\n      eq\n        /* \"@openzeppelin/contracts/token/ERC721/ERC721.sol\":10180:10276  if (previousOwner != address(0)) {... */\n      tag_308\n      jumpi\n        /* \"@openzeppelin/contracts/token/ERC721/ERC721.sol\":10262:10263  0 */\n      0x00\n        /* \"@openzeppelin/contracts/token/ERC721/ERC721.sol\":10234:10265  ERC721InvalidSender(address(0)) */\n      mload(0x40)\n      0x73c6ac6e00000000000000000000000000000000000000000000000000000000\n      dup2\n      mstore\n      0x04\n      add\n      tag_309\n      swap2\n      swap1\n      tag_44\n      jump\t// in\n    tag_309:\n      mload(0x40)\n      dup1\n      swap2\n      sub\n      swap1\n      revert\n        /* \"@openzeppelin/contracts/token/ERC721/ERC721.sol\":10180:10276  if (previousOwner != address(0)) {... */\n    tag_308:\n        /* \"@openzeppelin/contracts/token/ERC721/ERC721.sol\":10008:10282  {... */\n      pop\n        /* \"@openzeppelin/contracts/token/ERC721/ERC721.sol\":9955:10282  function _mint(address to, uint256 tokenId) internal {... */\n      pop\n      pop\n      jump\t// out\n        /* \"@openzeppelin/contracts/token/ERC721/ERC721.sol\":8838:9633  function _update(address to, uint256 tokenId, address auth) internal virtual returns (address) {... */\n    tag_284:\n        /* \"@openzeppelin/contracts/token/ERC721/ERC721.sol\":8924:8931  address */\n      0x00\n        /* \"@openzeppelin/contracts/token/ERC721/ERC721.sol\":8943:8955  address from */\n      dup1\n        /* \"@openzeppelin/contracts/token/ERC721/ERC721.sol\":8958:8975  _ownerOf(tokenId) */\n      tag_311\n        /* \"@openzeppelin/contracts/token/ERC721/ERC721.sol\":8967:8974  tokenId */\n      dup5\n        /* \"@openzeppelin/contracts/token/ERC721/ERC721.sol\":8958:8966  _ownerOf */\n      tag_222\n        /* \"@openzeppelin/contracts/token/ERC721/ERC721.sol\":8958:8975  _ownerOf(tokenId) */\n      jump\t// in\n    tag_311:\n        /* \"@openzeppelin/contracts/token/ERC721/ERC721.sol\":8943:8975  address from = _ownerOf(tokenId) */\n      swap1\n      pop\n        /* \"@openzeppelin/contracts/token/ERC721/ERC721.sol\":9051:9052  0 */\n      0x00\n        /* \"@openzeppelin/contracts/token/ERC721/ERC721.sol\":9035:9053  auth != address(0) */\n      0xffffffffffffffffffffffffffffffffffffffff\n      and\n        /* \"@openzeppelin/contracts/token/ERC721/ERC721.sol\":9035:9039  auth */\n      dup4\n        /* \"@openzeppelin/contracts/token/ERC721/ERC721.sol\":9035:9053  auth != address(0) */\n      0xffffffffffffffffffffffffffffffffffffffff\n      and\n      eq\n        /* \"@openzeppelin/contracts/token/ERC721/ERC721.sol\":9031:9117  if (auth != address(0)) {... */\n      tag_312\n      jumpi\n        /* \"@openzeppelin/contracts/token/ERC721/ERC721.sol\":9069:9106  _checkAuthorized(from, auth, tokenId) */\n      tag_313\n        /* \"@openzeppelin/contracts/token/ERC721/ERC721.sol\":9086:9090  from */\n      dup2\n        /* \"@openzeppelin/contracts/token/ERC721/ERC721.sol\":9092:9096  auth */\n      dup5\n        /* \"@openzeppelin/contracts/token/ERC721/ERC721.sol\":9098:9105  tokenId */\n      dup7\n        /* \"@openzeppelin/contracts/token/ERC721/ERC721.sol\":9069:9085  _checkAuthorized */\n      tag_314\n        /* \"@openzeppelin/contracts/token/ERC721/ERC721.sol\":9069:9106  _checkAuthorized(from, auth, tokenId) */\n      jump\t// in\n    tag_313:\n        /* \"@openzeppelin/contracts/token/ERC721/ERC721.sol\":9031:9117  if (auth != address(0)) {... */\n    tag_312:\n        /* \"@openzeppelin/contracts/token/ERC721/ERC721.sol\":9177:9178  0 */\n      0x00\n        /* \"@openzeppelin/contracts/token/ERC721/ERC721.sol\":9161:9179  from != address(0) */\n      0xffffffffffffffffffffffffffffffffffffffff\n      and\n        /* \"@openzeppelin/contracts/token/ERC721/ERC721.sol\":9161:9165  from */\n      dup2\n        /* \"@openzeppelin/contracts/token/ERC721/ERC721.sol\":9161:9179  from != address(0) */\n      0xffffffffffffffffffffffffffffffffffffffff\n      and\n      eq\n        /* \"@openzeppelin/contracts/token/ERC721/ERC721.sol\":9157:9413  if (from != address(0)) {... */\n      tag_315\n      jumpi\n        /* \"@openzeppelin/contracts/token/ERC721/ERC721.sol\":9277:9325  _approve(address(0), tokenId, address(0), false) */\n      tag_316\n        /* \"@openzeppelin/contracts/token/ERC721/ERC721.sol\":9294:9295  0 */\n      0x00\n        /* \"@openzeppelin/contracts/token/ERC721/ERC721.sol\":9298:9305  tokenId */\n      dup6\n        /* \"@openzeppelin/contracts/token/ERC721/ERC721.sol\":9315:9316  0 */\n      0x00\n        /* \"@openzeppelin/contracts/token/ERC721/ERC721.sol\":9319:9324  false */\n      dup1\n        /* \"@openzeppelin/contracts/token/ERC721/ERC721.sol\":9277:9285  _approve */\n      tag_317\n        /* \"@openzeppelin/contracts/token/ERC721/ERC721.sol\":9277:9325  _approve(address(0), tokenId, address(0), false) */\n      jump\t// in\n    tag_316:\n        /* \"@openzeppelin/contracts/token/ERC721/ERC721.sol\":9387:9388  1 */\n      0x01\n        /* \"@openzeppelin/contracts/token/ERC721/ERC721.sol\":9368:9377  _balances */\n      0x03\n        /* \"@openzeppelin/contracts/token/ERC721/ERC721.sol\":9368:9383  _balances[from] */\n      0x00\n        /* \"@openzeppelin/contracts/token/ERC721/ERC721.sol\":9378:9382  from */\n      dup4\n        /* \"@openzeppelin/contracts/token/ERC721/ERC721.sol\":9368:9383  _balances[from] */\n      0xffffffffffffffffffffffffffffffffffffffff\n      and\n      0xffffffffffffffffffffffffffffffffffffffff\n      and\n      dup2\n      mstore\n      0x20\n      add\n      swap1\n      dup2\n      mstore\n      0x20\n      add\n      0x00\n      keccak256\n      0x00\n        /* \"@openzeppelin/contracts/token/ERC721/ERC721.sol\":9368:9388  _balances[from] -= 1 */\n      dup3\n      dup3\n      sload\n      sub\n      swap3\n      pop\n      pop\n      dup2\n      swap1\n      sstore\n      pop\n        /* \"@openzeppelin/contracts/token/ERC721/ERC721.sol\":9157:9413  if (from != address(0)) {... */\n    tag_315:\n        /* \"@openzeppelin/contracts/token/ERC721/ERC721.sol\":9441:9442  0 */\n      0x00\n        /* \"@openzeppelin/contracts/token/ERC721/ERC721.sol\":9427:9443  to != address(0) */\n      0xffffffffffffffffffffffffffffffffffffffff\n      and\n        /* \"@openzeppelin/contracts/token/ERC721/ERC721.sol\":9427:9429  to */\n      dup6\n        /* \"@openzeppelin/contracts/token/ERC721/ERC721.sol\":9427:9443  to != address(0) */\n      0xffffffffffffffffffffffffffffffffffffffff\n      and\n      eq\n        /* \"@openzeppelin/contracts/token/ERC721/ERC721.sol\":9423:9530  if (to != address(0)) {... */\n      tag_318\n      jumpi\n        /* \"@openzeppelin/contracts/token/ERC721/ERC721.sol\":9504:9505  1 */\n      0x01\n        /* \"@openzeppelin/contracts/token/ERC721/ERC721.sol\":9487:9496  _balances */\n      0x03\n        /* \"@openzeppelin/contracts/token/ERC721/ERC721.sol\":9487:9500  _balances[to] */\n      0x00\n        /* \"@openzeppelin/contracts/token/ERC721/ERC721.sol\":9497:9499  to */\n      dup8\n        /* \"@openzeppelin/contracts/token/ERC721/ERC721.sol\":9487:9500  _balances[to] */\n      0xffffffffffffffffffffffffffffffffffffffff\n      and\n      0xffffffffffffffffffffffffffffffffffffffff\n      and\n      dup2\n      mstore\n      0x20\n      add\n      swap1\n      dup2\n      mstore\n      0x20\n      add\n      0x00\n      keccak256\n      0x00\n        /* \"@openzeppelin/contracts/token/ERC721/ERC721.sol\":9487:9505  _balances[to] += 1 */\n      dup3\n      dup3\n      sload\n      add\n      swap3\n      pop\n      pop\n      dup2\n      swap1\n      sstore\n      pop\n        /* \"@openzeppelin/contracts/token/ERC721/ERC721.sol\":9423:9530  if (to != address(0)) {... */\n    tag_318:\n        /* \"@openzeppelin/contracts/token/ERC721/ERC721.sol\":9559:9561  to */\n      dup5\n        /* \"@openzeppelin/contracts/token/ERC721/ERC721.sol\":9540:9547  _owners */\n      0x02\n        /* \"@openzeppelin/contracts/token/ERC721/ERC721.sol\":9540:9556  _owners[tokenId] */\n      0x00\n        /* \"@openzeppelin/contracts/token/ERC721/ERC721.sol\":9548:9555  tokenId */\n      dup7\n        /* \"@openzeppelin/contracts/token/ERC721/ERC721.sol\":9540:9556  _owners[tokenId] */\n      dup2\n      mstore\n      0x20\n      add\n      swap1\n      dup2\n      mstore\n      0x20\n      add\n      0x00\n      keccak256\n      0x00\n        /* \"@openzeppelin/contracts/token/ERC721/ERC721.sol\":9540:9561  _owners[tokenId] = to */\n      0x0100\n      exp\n      dup2\n      sload\n      dup2\n      0xffffffffffffffffffffffffffffffffffffffff\n      mul\n      not\n      and\n      swap1\n      dup4\n      0xffffffffffffffffffffffffffffffffffffffff\n      and\n      mul\n      or\n      swap1\n      sstore\n      pop\n        /* \"@openzeppelin/contracts/token/ERC721/ERC721.sol\":9596:9603  tokenId */\n      dup4\n        /* \"@openzeppelin/contracts/token/ERC721/ERC721.sol\":9592:9594  to */\n      dup6\n        /* \"@openzeppelin/contracts/token/ERC721/ERC721.sol\":9577:9604  Transfer(from, to, tokenId) */\n      0xffffffffffffffffffffffffffffffffffffffff\n      and\n        /* \"@openzeppelin/contracts/token/ERC721/ERC721.sol\":9586:9590  from */\n      dup3\n        /* \"@openzeppelin/contracts/token/ERC721/ERC721.sol\":9577:9604  Transfer(from, to, tokenId) */\n      0xffffffffffffffffffffffffffffffffffffffff\n      and\n      0xddf252ad1be2c89b69c2b068fc378daa952ba7f163c4a11628f55a4df523b3ef\n      mload(0x40)\n      mload(0x40)\n      dup1\n      swap2\n      sub\n      swap1\n      log4\n        /* \"@openzeppelin/contracts/token/ERC721/ERC721.sol\":9622:9626  from */\n      dup1\n        /* \"@openzeppelin/contracts/token/ERC721/ERC721.sol\":9615:9626  return from */\n      swap2\n      pop\n      pop\n        /* \"@openzeppelin/contracts/token/ERC721/ERC721.sol\":8838:9633  function _update(address to, uint256 tokenId, address auth) internal virtual returns (address) {... */\n      swap4\n      swap3\n      pop\n      pop\n      pop\n      jump\t// out\n        /* \"@openzeppelin/contracts/utils/math/Math.sol\":12214:13130  function log10(uint256 value) internal pure returns (uint256) {... */\n    tag_293:\n        /* \"@openzeppelin/contracts/utils/math/Math.sol\":12267:12274  uint256 */\n      0x00\n        /* \"@openzeppelin/contracts/utils/math/Math.sol\":12286:12300  uint256 result */\n      dup1\n        /* \"@openzeppelin/contracts/utils/math/Math.sol\":12303:12304  0 */\n      0x00\n        /* \"@openzeppelin/contracts/utils/math/Math.sol\":12286:12304  uint256 result = 0 */\n      swap1\n      pop\n        /* \"@openzeppelin/contracts/utils/math/Math.sol\":12351:12359  10 ** 64 */\n      0x184f03e93ff9f4daa797ed6e38ed64bf6a1f010000000000000000\n        /* \"@openzeppelin/contracts/utils/math/Math.sol\":12342:12347  value */\n      dup4\n        /* \"@openzeppelin/contracts/utils/math/Math.sol\":12342:12359  value >= 10 ** 64 */\n      lt\n        /* \"@openzeppelin/contracts/utils/math/Math.sol\":12338:12441  if (value >= 10 ** 64) {... */\n      tag_320\n      jumpi\n        /* \"@openzeppelin/contracts/utils/math/Math.sol\":12388:12396  10 ** 64 */\n      0x184f03e93ff9f4daa797ed6e38ed64bf6a1f010000000000000000\n        /* \"@openzeppelin/contracts/utils/math/Math.sol\":12379:12396  value /= 10 ** 64 */\n      dup4\n      dup2\n      tag_321\n      jumpi\n      tag_322\n      tag_302\n      jump\t// in\n    tag_322:\n    tag_321:\n      div\n      swap3\n      pop\n        /* \"@openzeppelin/contracts/utils/math/Math.sol\":12424:12426  64 */\n      0x40\n        /* \"@openzeppelin/contracts/utils/math/Math.sol\":12414:12426  result += 64 */\n      dup2\n      add\n      swap1\n      pop\n        /* \"@openzeppelin/contracts/utils/math/Math.sol\":12338:12441  if (value >= 10 ** 64) {... */\n    tag_320:\n        /* \"@openzeppelin/contracts/utils/math/Math.sol\":12467:12475  10 ** 32 */\n      0x04ee2d6d415b85acef8100000000\n        /* \"@openzeppelin/contracts/utils/math/Math.sol\":12458:12463  value */\n      dup4\n        /* \"@openzeppelin/contracts/utils/math/Math.sol\":12458:12475  value >= 10 ** 32 */\n      lt\n        /* \"@openzeppelin/contracts/utils/math/Math.sol\":12454:12557  if (value >= 10 ** 32) {... */\n      tag_323\n      jumpi\n        /* \"@openzeppelin/contracts/utils/math/Math.sol\":12504:12512  10 ** 32 */\n      0x04ee2d6d415b85acef8100000000\n        /* \"@openzeppelin/contracts/utils/math/Math.sol\":12495:12512  value /= 10 ** 32 */\n      dup4\n      dup2\n      tag_324\n      jumpi\n      tag_325\n      tag_302\n      jump\t// in\n    tag_325:\n    tag_324:\n      div\n      swap3\n      pop\n        /* \"@openzeppelin/contracts/utils/math/Math.sol\":12540:12542  32 */\n      0x20\n        /* \"@openzeppelin/contracts/utils/math/Math.sol\":12530:12542  result += 32 */\n      dup2\n      add\n      swap1\n      pop\n        /* \"@openzeppelin/contracts/utils/math/Math.sol\":12454:12557  if (value >= 10 ** 32) {... */\n    tag_323:\n        /* \"@openzeppelin/contracts/utils/math/Math.sol\":12583:12591  10 ** 16 */\n      0x2386f26fc10000\n        /* \"@openzeppelin/contracts/utils/math/Math.sol\":12574:12579  value */\n      dup4\n        /* \"@openzeppelin/contracts/utils/math/Math.sol\":12574:12591  value >= 10 ** 16 */\n      lt\n        /* \"@openzeppelin/contracts/utils/math/Math.sol\":12570:12673  if (value >= 10 ** 16) {... */\n      tag_326\n      jumpi\n        /* \"@openzeppelin/contracts/utils/math/Math.sol\":12620:12628  10 ** 16 */\n      0x2386f26fc10000\n        /* \"@openzeppelin/contracts/utils/math/Math.sol\":12611:12628  value /= 10 ** 16 */\n      dup4\n      dup2\n      tag_327\n      jumpi\n      tag_328\n      tag_302\n      jump\t// in\n    tag_328:\n    tag_327:\n      div\n      swap3\n      pop\n        /* \"@openzeppelin/contracts/utils/math/Math.sol\":12656:12658  16 */\n      0x10\n        /* \"@openzeppelin/contracts/utils/math/Math.sol\":12646:12658  result += 16 */\n      dup2\n      add\n      swap1\n      pop\n        /* \"@openzeppelin/contracts/utils/math/Math.sol\":12570:12673  if (value >= 10 ** 16) {... */\n    tag_326:\n        /* \"@openzeppelin/contracts/utils/math/Math.sol\":12699:12706  10 ** 8 */\n      0x05f5e100\n        /* \"@openzeppelin/contracts/utils/math/Math.sol\":12690:12695  value */\n      dup4\n        /* \"@openzeppelin/contracts/utils/math/Math.sol\":12690:12706  value >= 10 ** 8 */\n      lt\n        /* \"@openzeppelin/contracts/utils/math/Math.sol\":12686:12786  if (value >= 10 ** 8) {... */\n      tag_329\n      jumpi\n        /* \"@openzeppelin/contracts/utils/math/Math.sol\":12735:12742  10 ** 8 */\n      0x05f5e100\n        /* \"@openzeppelin/contracts/utils/math/Math.sol\":12726:12742  value /= 10 ** 8 */\n      dup4\n      dup2\n      tag_330\n      jumpi\n      tag_331\n      tag_302\n      jump\t// in\n    tag_331:\n    tag_330:\n      div\n      swap3\n      pop\n        /* \"@openzeppelin/contracts/utils/math/Math.sol\":12770:12771  8 */\n      0x08\n        /* \"@openzeppelin/contracts/utils/math/Math.sol\":12760:12771  result += 8 */\n      dup2\n      add\n      swap1\n      pop\n        /* \"@openzeppelin/contracts/utils/math/Math.sol\":12686:12786  if (value >= 10 ** 8) {... */\n    tag_329:\n        /* \"@openzeppelin/contracts/utils/math/Math.sol\":12812:12819  10 ** 4 */\n      0x2710\n        /* \"@openzeppelin/contracts/utils/math/Math.sol\":12803:12808  value */\n      dup4\n        /* \"@openzeppelin/contracts/utils/math/Math.sol\":12803:12819  value >= 10 ** 4 */\n      lt\n        /* \"@openzeppelin/contracts/utils/math/Math.sol\":12799:12899  if (value >= 10 ** 4) {... */\n      tag_332\n      jumpi\n        /* \"@openzeppelin/contracts/utils/math/Math.sol\":12848:12855  10 ** 4 */\n      0x2710\n        /* \"@openzeppelin/contracts/utils/math/Math.sol\":12839:12855  value /= 10 ** 4 */\n      dup4\n      dup2\n      tag_333\n      jumpi\n      tag_334\n      tag_302\n      jump\t// in\n    tag_334:\n    tag_333:\n      div\n      swap3\n      pop\n        /* \"@openzeppelin/contracts/utils/math/Math.sol\":12883:12884  4 */\n      0x04\n        /* \"@openzeppelin/contracts/utils/math/Math.sol\":12873:12884  result += 4 */\n      dup2\n      add\n      swap1\n      pop\n        /* \"@openzeppelin/contracts/utils/math/Math.sol\":12799:12899  if (value >= 10 ** 4) {... */\n    tag_332:\n        /* \"@openzeppelin/contracts/utils/math/Math.sol\":12925:12932  10 ** 2 */\n      0x64\n        /* \"@openzeppelin/contracts/utils/math/Math.sol\":12916:12921  value */\n      dup4\n        /* \"@openzeppelin/contracts/utils/math/Math.sol\":12916:12932  value >= 10 ** 2 */\n      lt\n        /* \"@openzeppelin/contracts/utils/math/Math.sol\":12912:13012  if (value >= 10 ** 2) {... */\n      tag_335\n      jumpi\n        /* \"@openzeppelin/contracts/utils/math/Math.sol\":12961:12968  10 ** 2 */\n      0x64\n        /* \"@openzeppelin/contracts/utils/math/Math.sol\":12952:12968  value /= 10 ** 2 */\n      dup4\n      dup2\n      tag_336\n      jumpi\n      tag_337\n      tag_302\n      jump\t// in\n    tag_337:\n    tag_336:\n      div\n      swap3\n      pop\n        /* \"@openzeppelin/contracts/utils/math/Math.sol\":12996:12997  2 */\n      0x02\n        /* \"@openzeppelin/contracts/utils/math/Math.sol\":12986:12997  result += 2 */\n      dup2\n      add\n      swap1\n      pop\n        /* \"@openzeppelin/contracts/utils/math/Math.sol\":12912:13012  if (value >= 10 ** 2) {... */\n    tag_335:\n        /* \"@openzeppelin/contracts/utils/math/Math.sol\":13038:13045  10 ** 1 */\n      0x0a\n        /* \"@openzeppelin/contracts/utils/math/Math.sol\":13029:13034  value */\n      dup4\n        /* \"@openzeppelin/contracts/utils/math/Math.sol\":13029:13045  value >= 10 ** 1 */\n      lt\n        /* \"@openzeppelin/contracts/utils/math/Math.sol\":13025:13091  if (value >= 10 ** 1) {... */\n      tag_338\n      jumpi\n        /* \"@openzeppelin/contracts/utils/math/Math.sol\":13075:13076  1 */\n      0x01\n        /* \"@openzeppelin/contracts/utils/math/Math.sol\":13065:13076  result += 1 */\n      dup2\n      add\n      swap1\n      pop\n        /* \"@openzeppelin/contracts/utils/math/Math.sol\":13025:13091  if (value >= 10 ** 1) {... */\n    tag_338:\n        /* \"@openzeppelin/contracts/utils/math/Math.sol\":13117:13123  result */\n      dup1\n        /* \"@openzeppelin/contracts/utils/math/Math.sol\":13110:13123  return result */\n      swap2\n      pop\n      pop\n        /* \"@openzeppelin/contracts/utils/math/Math.sol\":12214:13130  function log10(uint256 value) internal pure returns (uint256) {... */\n      swap2\n      swap1\n      pop\n      jump\t// out\n        /* \"@openzeppelin/contracts/token/ERC721/ERC721.sol\":7082:7450  function _checkAuthorized(address owner, address spender, uint256 tokenId) internal view virtual {... */\n    tag_314:\n        /* \"@openzeppelin/contracts/token/ERC721/ERC721.sol\":7194:7232  _isAuthorized(owner, spender, tokenId) */\n      tag_340\n        /* \"@openzeppelin/contracts/token/ERC721/ERC721.sol\":7208:7213  owner */\n      dup4\n        /* \"@openzeppelin/contracts/token/ERC721/ERC721.sol\":7215:7222  spender */\n      dup4\n        /* \"@openzeppelin/contracts/token/ERC721/ERC721.sol\":7224:7231  tokenId */\n      dup4\n        /* \"@openzeppelin/contracts/token/ERC721/ERC721.sol\":7194:7207  _isAuthorized */\n      tag_341\n        /* \"@openzeppelin/contracts/token/ERC721/ERC721.sol\":7194:7232  _isAuthorized(owner, spender, tokenId) */\n      jump\t// in\n    tag_340:\n        /* \"@openzeppelin/contracts/token/ERC721/ERC721.sol\":7189:7444  if (!_isAuthorized(owner, spender, tokenId)) {... */\n      tag_342\n      jumpi\n        /* \"@openzeppelin/contracts/token/ERC721/ERC721.sol\":7269:7270  0 */\n      0x00\n        /* \"@openzeppelin/contracts/token/ERC721/ERC721.sol\":7252:7271  owner == address(0) */\n      0xffffffffffffffffffffffffffffffffffffffff\n      and\n        /* \"@openzeppelin/contracts/token/ERC721/ERC721.sol\":7252:7257  owner */\n      dup4\n        /* \"@openzeppelin/contracts/token/ERC721/ERC721.sol\":7252:7271  owner == address(0) */\n      0xffffffffffffffffffffffffffffffffffffffff\n      and\n      sub\n        /* \"@openzeppelin/contracts/token/ERC721/ERC721.sol\":7248:7434  if (owner == address(0)) {... */\n      tag_343\n      jumpi\n        /* \"@openzeppelin/contracts/token/ERC721/ERC721.sol\":7321:7328  tokenId */\n      dup1\n        /* \"@openzeppelin/contracts/token/ERC721/ERC721.sol\":7298:7329  ERC721NonexistentToken(tokenId) */\n      mload(0x40)\n      0x7e27328900000000000000000000000000000000000000000000000000000000\n      dup2\n      mstore\n      0x04\n      add\n      tag_344\n      swap2\n      swap1\n      tag_75\n      jump\t// in\n    tag_344:\n      mload(0x40)\n      dup1\n      swap2\n      sub\n      swap1\n      revert\n        /* \"@openzeppelin/contracts/token/ERC721/ERC721.sol\":7248:7434  if (owner == address(0)) {... */\n    tag_343:\n        /* \"@openzeppelin/contracts/token/ERC721/ERC721.sol\":7402:7409  spender */\n      dup2\n        /* \"@openzeppelin/contracts/token/ERC721/ERC721.sol\":7411:7418  tokenId */\n      dup2\n        /* \"@openzeppelin/contracts/token/ERC721/ERC721.sol\":7375:7419  ERC721InsufficientApproval(spender, tokenId) */\n      mload(0x40)\n      0x177e802f00000000000000000000000000000000000000000000000000000000\n      dup2\n      mstore\n      0x04\n      add\n      tag_346\n      swap3\n      swap2\n      swap1\n      tag_347\n      jump\t// in\n    tag_346:\n      mload(0x40)\n      dup1\n      swap2\n      sub\n      swap1\n      revert\n        /* \"@openzeppelin/contracts/token/ERC721/ERC721.sol\":7189:7444  if (!_isAuthorized(owner, spender, tokenId)) {... */\n    tag_342:\n        /* \"@openzeppelin/contracts/token/ERC721/ERC721.sol\":7082:7450  function _checkAuthorized(address owner, address spender, uint256 tokenId) internal view virtual {... */\n      pop\n      pop\n      pop\n      jump\t// out\n        /* \"@openzeppelin/contracts/token/ERC721/ERC721.sol\":14720:15382  function _approve(address to, uint256 tokenId, address auth, bool emitEvent) internal virtual {... */\n    tag_317:\n        /* \"@openzeppelin/contracts/token/ERC721/ERC721.sol\":14880:14889  emitEvent */\n      dup1\n        /* \"@openzeppelin/contracts/token/ERC721/ERC721.sol\":14880:14911  emitEvent || auth != address(0) */\n      dup1\n      tag_349\n      jumpi\n      pop\n        /* \"@openzeppelin/contracts/token/ERC721/ERC721.sol\":14909:14910  0 */\n      0x00\n        /* \"@openzeppelin/contracts/token/ERC721/ERC721.sol\":14893:14911  auth != address(0) */\n      0xffffffffffffffffffffffffffffffffffffffff\n      and\n        /* \"@openzeppelin/contracts/token/ERC721/ERC721.sol\":14893:14897  auth */\n      dup3\n        /* \"@openzeppelin/contracts/token/ERC721/ERC721.sol\":14893:14911  auth != address(0) */\n      0xffffffffffffffffffffffffffffffffffffffff\n      and\n      eq\n      iszero\n        /* \"@openzeppelin/contracts/token/ERC721/ERC721.sol\":14880:14911  emitEvent || auth != address(0) */\n    tag_349:\n        /* \"@openzeppelin/contracts/token/ERC721/ERC721.sol\":14876:15336  if (emitEvent || auth != address(0)) {... */\n      iszero\n      tag_350\n      jumpi\n        /* \"@openzeppelin/contracts/token/ERC721/ERC721.sol\":14927:14940  address owner */\n      0x00\n        /* \"@openzeppelin/contracts/token/ERC721/ERC721.sol\":14943:14965  _requireOwned(tokenId) */\n      tag_351\n        /* \"@openzeppelin/contracts/token/ERC721/ERC721.sol\":14957:14964  tokenId */\n      dup5\n        /* \"@openzeppelin/contracts/token/ERC721/ERC721.sol\":14943:14956  _requireOwned */\n      tag_127\n        /* \"@openzeppelin/contracts/token/ERC721/ERC721.sol\":14943:14965  _requireOwned(tokenId) */\n      jump\t// in\n    tag_351:\n        /* \"@openzeppelin/contracts/token/ERC721/ERC721.sol\":14927:14965  address owner = _requireOwned(tokenId) */\n      swap1\n      pop\n        /* \"@openzeppelin/contracts/token/ERC721/ERC721.sol\":15109:15110  0 */\n      0x00\n        /* \"@openzeppelin/contracts/token/ERC721/ERC721.sol\":15093:15111  auth != address(0) */\n      0xffffffffffffffffffffffffffffffffffffffff\n      and\n        /* \"@openzeppelin/contracts/token/ERC721/ERC721.sol\":15093:15097  auth */\n      dup4\n        /* \"@openzeppelin/contracts/token/ERC721/ERC721.sol\":15093:15111  auth != address(0) */\n      0xffffffffffffffffffffffffffffffffffffffff\n      and\n      eq\n      iszero\n        /* \"@openzeppelin/contracts/token/ERC721/ERC721.sol\":15093:15128  auth != address(0) && owner != auth */\n      dup1\n      iszero\n      tag_352\n      jumpi\n      pop\n        /* \"@openzeppelin/contracts/token/ERC721/ERC721.sol\":15124:15128  auth */\n      dup3\n        /* \"@openzeppelin/contracts/token/ERC721/ERC721.sol\":15115:15128  owner != auth */\n      0xffffffffffffffffffffffffffffffffffffffff\n      and\n        /* \"@openzeppelin/contracts/token/ERC721/ERC721.sol\":15115:15120  owner */\n      dup2\n        /* \"@openzeppelin/contracts/token/ERC721/ERC721.sol\":15115:15128  owner != auth */\n      0xffffffffffffffffffffffffffffffffffffffff\n      and\n      eq\n      iszero\n        /* \"@openzeppelin/contracts/token/ERC721/ERC721.sol\":15093:15128  auth != address(0) && owner != auth */\n    tag_352:\n        /* \"@openzeppelin/contracts/token/ERC721/ERC721.sol\":15093:15162  auth != address(0) && owner != auth && !isApprovedForAll(owner, auth) */\n      dup1\n      iszero\n      tag_353\n      jumpi\n      pop\n        /* \"@openzeppelin/contracts/token/ERC721/ERC721.sol\":15133:15162  isApprovedForAll(owner, auth) */\n      tag_354\n        /* \"@openzeppelin/contracts/token/ERC721/ERC721.sol\":15150:15155  owner */\n      dup2\n        /* \"@openzeppelin/contracts/token/ERC721/ERC721.sol\":15157:15161  auth */\n      dup5\n        /* \"@openzeppelin/contracts/token/ERC721/ERC721.sol\":15133:15149  isApprovedForAll */\n      tag_108\n        /* \"@openzeppelin/contracts/token/ERC721/ERC721.sol\":15133:15162  isApprovedForAll(owner, auth) */\n      jump\t// in\n    tag_354:\n        /* \"@openzeppelin/contracts/token/ERC721/ERC721.sol\":15132:15162  !isApprovedForAll(owner, auth) */\n      iszero\n        /* \"@openzeppelin/contracts/token/ERC721/ERC721.sol\":15093:15162  auth != address(0) && owner != auth && !isApprovedForAll(owner, auth) */\n    tag_353:\n        /* \"@openzeppelin/contracts/token/ERC721/ERC721.sol\":15089:15231  if (auth != address(0) && owner != auth && !isApprovedForAll(owner, auth)) {... */\n      iszero\n      tag_355\n      jumpi\n        /* \"@openzeppelin/contracts/token/ERC721/ERC721.sol\":15211:15215  auth */\n      dup3\n        /* \"@openzeppelin/contracts/token/ERC721/ERC721.sol\":15189:15216  ERC721InvalidApprover(auth) */\n      mload(0x40)\n      0xa9fbf51f00000000000000000000000000000000000000000000000000000000\n      dup2\n      mstore\n      0x04\n      add\n      tag_356\n      swap2\n      swap1\n      tag_44\n      jump\t// in\n    tag_356:\n      mload(0x40)\n      dup1\n      swap2\n      sub\n      swap1\n      revert\n        /* \"@openzeppelin/contracts/token/ERC721/ERC721.sol\":15089:15231  if (auth != address(0) && owner != auth && !isApprovedForAll(owner, auth)) {... */\n    tag_355:\n        /* \"@openzeppelin/contracts/token/ERC721/ERC721.sol\":15249:15258  emitEvent */\n      dup2\n        /* \"@openzeppelin/contracts/token/ERC721/ERC721.sol\":15245:15326  if (emitEvent) {... */\n      iszero\n      tag_357\n      jumpi\n        /* \"@openzeppelin/contracts/token/ERC721/ERC721.sol\":15303:15310  tokenId */\n      dup4\n        /* \"@openzeppelin/contracts/token/ERC721/ERC721.sol\":15299:15301  to */\n      dup6\n        /* \"@openzeppelin/contracts/token/ERC721/ERC721.sol\":15283:15311  Approval(owner, to, tokenId) */\n      0xffffffffffffffffffffffffffffffffffffffff\n      and\n        /* \"@openzeppelin/contracts/token/ERC721/ERC721.sol\":15292:15297  owner */\n      dup3\n        /* \"@openzeppelin/contracts/token/ERC721/ERC721.sol\":15283:15311  Approval(owner, to, tokenId) */\n      0xffffffffffffffffffffffffffffffffffffffff\n      and\n      0x8c5be1e5ebec7d5bd14f71427d1e84f3dd0314c0f7b2291e5b200ac8c7c3b925\n      mload(0x40)\n      mload(0x40)\n      dup1\n      swap2\n      sub\n      swap1\n      log4\n        /* \"@openzeppelin/contracts/token/ERC721/ERC721.sol\":15245:15326  if (emitEvent) {... */\n    tag_357:\n        /* \"@openzeppelin/contracts/token/ERC721/ERC721.sol\":14913:15336  {... */\n      pop\n        /* \"@openzeppelin/contracts/token/ERC721/ERC721.sol\":14876:15336  if (emitEvent || auth != address(0)) {... */\n    tag_350:\n        /* \"@openzeppelin/contracts/token/ERC721/ERC721.sol\":15373:15375  to */\n      dup4\n        /* \"@openzeppelin/contracts/token/ERC721/ERC721.sol\":15346:15361  _tokenApprovals */\n      0x04\n        /* \"@openzeppelin/contracts/token/ERC721/ERC721.sol\":15346:15370  _tokenApprovals[tokenId] */\n      0x00\n        /* \"@openzeppelin/contracts/token/ERC721/ERC721.sol\":15362:15369  tokenId */\n      dup6\n        /* \"@openzeppelin/contracts/token/ERC721/ERC721.sol\":15346:15370  _tokenApprovals[tokenId] */\n      dup2\n      mstore\n      0x20\n      add\n      swap1\n      dup2\n      mstore\n      0x20\n      add\n      0x00\n      keccak256\n      0x00\n        /* \"@openzeppelin/contracts/token/ERC721/ERC721.sol\":15346:15375  _tokenApprovals[tokenId] = to */\n      0x0100\n      exp\n      dup2\n      sload\n      dup2\n      0xffffffffffffffffffffffffffffffffffffffff\n      mul\n      not\n      and\n      swap1\n      dup4\n      0xffffffffffffffffffffffffffffffffffffffff\n      and\n      mul\n      or\n      swap1\n      sstore\n      pop\n        /* \"@openzeppelin/contracts/token/ERC721/ERC721.sol\":14720:15382  function _approve(address to, uint256 tokenId, address auth, bool emitEvent) internal virtual {... */\n      pop\n      pop\n      pop\n      pop\n      jump\t// out\n        /* \"@openzeppelin/contracts/token/ERC721/ERC721.sol\":6376:6648  function _isAuthorized(address owner, address spender, uint256 tokenId) internal view virtual returns (bool) {... */\n    tag_341:\n        /* \"@openzeppelin/contracts/token/ERC721/ERC721.sol\":6479:6483  bool */\n      0x00\n        /* \"@openzeppelin/contracts/token/ERC721/ERC721.sol\":6533:6534  0 */\n      dup1\n        /* \"@openzeppelin/contracts/token/ERC721/ERC721.sol\":6514:6535  spender != address(0) */\n      0xffffffffffffffffffffffffffffffffffffffff\n      and\n        /* \"@openzeppelin/contracts/token/ERC721/ERC721.sol\":6514:6521  spender */\n      dup4\n        /* \"@openzeppelin/contracts/token/ERC721/ERC721.sol\":6514:6535  spender != address(0) */\n      0xffffffffffffffffffffffffffffffffffffffff\n      and\n      eq\n      iszero\n        /* \"@openzeppelin/contracts/token/ERC721/ERC721.sol\":6514:6641  spender != address(0) &&... */\n      dup1\n      iszero\n      tag_359\n      jumpi\n      pop\n        /* \"@openzeppelin/contracts/token/ERC721/ERC721.sol\":6561:6568  spender */\n      dup3\n        /* \"@openzeppelin/contracts/token/ERC721/ERC721.sol\":6552:6568  owner == spender */\n      0xffffffffffffffffffffffffffffffffffffffff\n      and\n        /* \"@openzeppelin/contracts/token/ERC721/ERC721.sol\":6552:6557  owner */\n      dup5\n        /* \"@openzeppelin/contracts/token/ERC721/ERC721.sol\":6552:6568  owner == spender */\n      0xffffffffffffffffffffffffffffffffffffffff\n      and\n      eq\n        /* \"@openzeppelin/contracts/token/ERC721/ERC721.sol\":6552:6604  owner == spender || isApprovedForAll(owner, spender) */\n      dup1\n      tag_360\n      jumpi\n      pop\n        /* \"@openzeppelin/contracts/token/ERC721/ERC721.sol\":6572:6604  isApprovedForAll(owner, spender) */\n      tag_361\n        /* \"@openzeppelin/contracts/token/ERC721/ERC721.sol\":6589:6594  owner */\n      dup5\n        /* \"@openzeppelin/contracts/token/ERC721/ERC721.sol\":6596:6603  spender */\n      dup5\n        /* \"@openzeppelin/contracts/token/ERC721/ERC721.sol\":6572:6588  isApprovedForAll */\n      tag_108\n        /* \"@openzeppelin/contracts/token/ERC721/ERC721.sol\":6572:6604  isApprovedForAll(owner, spender) */\n      jump\t// in\n    tag_361:\n        /* \"@openzeppelin/contracts/token/ERC721/ERC721.sol\":6552:6604  owner == spender || isApprovedForAll(owner, spender) */\n    tag_360:\n        /* \"@openzeppelin/contracts/token/ERC721/ERC721.sol\":6552:6640  owner == spender || isApprovedForAll(owner, spender) || _getApproved(tokenId) == spender */\n      dup1\n      tag_362\n      jumpi\n      pop\n        /* \"@openzeppelin/contracts/token/ERC721/ERC721.sol\":6633:6640  spender */\n      dup3\n        /* \"@openzeppelin/contracts/token/ERC721/ERC721.sol\":6608:6640  _getApproved(tokenId) == spender */\n      0xffffffffffffffffffffffffffffffffffffffff\n      and\n        /* \"@openzeppelin/contracts/token/ERC721/ERC721.sol\":6608:6629  _getApproved(tokenId) */\n      tag_363\n        /* \"@openzeppelin/contracts/token/ERC721/ERC721.sol\":6621:6628  tokenId */\n      dup4\n        /* \"@openzeppelin/contracts/token/ERC721/ERC721.sol\":6608:6620  _getApproved */\n      tag_129\n        /* \"@openzeppelin/contracts/token/ERC721/ERC721.sol\":6608:6629  _getApproved(tokenId) */\n      jump\t// in\n    tag_363:\n        /* \"@openzeppelin/contracts/token/ERC721/ERC721.sol\":6608:6640  _getApproved(tokenId) == spender */\n      0xffffffffffffffffffffffffffffffffffffffff\n      and\n      eq\n        /* \"@openzeppelin/contracts/token/ERC721/ERC721.sol\":6552:6640  owner == spender || isApprovedForAll(owner, spender) || _getApproved(tokenId) == spender */\n    tag_362:\n        /* \"@openzeppelin/contracts/token/ERC721/ERC721.sol\":6514:6641  spender != address(0) &&... */\n    tag_359:\n        /* \"@openzeppelin/contracts/token/ERC721/ERC721.sol\":6495:6641  return... */\n      swap1\n      pop\n        /* \"@openzeppelin/contracts/token/ERC721/ERC721.sol\":6376:6648  function _isAuthorized(address owner, address spender, uint256 tokenId) internal view virtual returns (bool) {... */\n      swap4\n      swap3\n      pop\n      pop\n      pop\n      jump\t// out\n        /* \"#utility.yul\":7:82   */\n    tag_364:\n        /* \"#utility.yul\":40:46   */\n      0x00\n        /* \"#utility.yul\":73:75   */\n      0x40\n        /* \"#utility.yul\":67:76   */\n      mload\n        /* \"#utility.yul\":57:76   */\n      swap1\n      pop\n        /* \"#utility.yul\":7:82   */\n      swap1\n      jump\t// out\n        /* \"#utility.yul\":88:205   */\n    tag_365:\n        /* \"#utility.yul\":197:198   */\n      0x00\n        /* \"#utility.yul\":194:195   */\n      dup1\n        /* \"#utility.yul\":187:199   */\n      revert\n        /* \"#utility.yul\":211:328   */\n    tag_366:\n        /* \"#utility.yul\":320:321   */\n      0x00\n        /* \"#utility.yul\":317:318   */\n      dup1\n        /* \"#utility.yul\":310:322   */\n      revert\n        /* \"#utility.yul\":334:483   */\n    tag_367:\n        /* \"#utility.yul\":370:377   */\n      0x00\n        /* \"#utility.yul\":410:476   */\n      0xffffffff00000000000000000000000000000000000000000000000000000000\n        /* \"#utility.yul\":403:408   */\n      dup3\n        /* \"#utility.yul\":399:477   */\n      and\n        /* \"#utility.yul\":388:477   */\n      swap1\n      pop\n        /* \"#utility.yul\":334:483   */\n      swap2\n      swap1\n      pop\n      jump\t// out\n        /* \"#utility.yul\":489:609   */\n    tag_368:\n        /* \"#utility.yul\":561:584   */\n      tag_445\n        /* \"#utility.yul\":578:583   */\n      dup2\n        /* \"#utility.yul\":561:584   */\n      tag_367\n      jump\t// in\n    tag_445:\n        /* \"#utility.yul\":554:559   */\n      dup2\n        /* \"#utility.yul\":551:585   */\n      eq\n        /* \"#utility.yul\":541:603   */\n      tag_446\n      jumpi\n        /* \"#utility.yul\":599:600   */\n      0x00\n        /* \"#utility.yul\":596:597   */\n      dup1\n        /* \"#utility.yul\":589:601   */\n      revert\n        /* \"#utility.yul\":541:603   */\n    tag_446:\n        /* \"#utility.yul\":489:609   */\n      pop\n      jump\t// out\n        /* \"#utility.yul\":615:752   */\n    tag_369:\n        /* \"#utility.yul\":660:665   */\n      0x00\n        /* \"#utility.yul\":698:704   */\n      dup2\n        /* \"#utility.yul\":685:705   */\n      calldataload\n        /* \"#utility.yul\":676:705   */\n      swap1\n      pop\n        /* \"#utility.yul\":714:746   */\n      tag_448\n        /* \"#utility.yul\":740:745   */\n      dup2\n        /* \"#utility.yul\":714:746   */\n      tag_368\n      jump\t// in\n    tag_448:\n        /* \"#utility.yul\":615:752   */\n      swap3\n      swap2\n      pop\n      pop\n      jump\t// out\n        /* \"#utility.yul\":758:1085   */\n    tag_29:\n        /* \"#utility.yul\":816:822   */\n      0x00\n        /* \"#utility.yul\":865:867   */\n      0x20\n        /* \"#utility.yul\":853:862   */\n      dup3\n        /* \"#utility.yul\":844:851   */\n      dup5\n        /* \"#utility.yul\":840:863   */\n      sub\n        /* \"#utility.yul\":836:868   */\n      slt\n        /* \"#utility.yul\":833:952   */\n      iszero\n      tag_450\n      jumpi\n        /* \"#utility.yul\":871:950   */\n      tag_451\n      tag_365\n      jump\t// in\n    tag_451:\n        /* \"#utility.yul\":833:952   */\n    tag_450:\n        /* \"#utility.yul\":991:992   */\n      0x00\n        /* \"#utility.yul\":1016:1068   */\n      tag_452\n        /* \"#utility.yul\":1060:1067   */\n      dup5\n        /* \"#utility.yul\":1051:1057   */\n      dup3\n        /* \"#utility.yul\":1040:1049   */\n      dup6\n        /* \"#utility.yul\":1036:1058   */\n      add\n        /* \"#utility.yul\":1016:1068   */\n      tag_369\n      jump\t// in\n    tag_452:\n        /* \"#utility.yul\":1006:1068   */\n      swap2\n      pop\n        /* \"#utility.yul\":962:1078   */\n      pop\n        /* \"#utility.yul\":758:1085   */\n      swap3\n      swap2\n      pop\n      pop\n      jump\t// out\n        /* \"#utility.yul\":1091:1181   */\n    tag_370:\n        /* \"#utility.yul\":1125:1132   */\n      0x00\n        /* \"#utility.yul\":1168:1173   */\n      dup2\n        /* \"#utility.yul\":1161:1174   */\n      iszero\n        /* \"#utility.yul\":1154:1175   */\n      iszero\n        /* \"#utility.yul\":1143:1175   */\n      swap1\n      pop\n        /* \"#utility.yul\":1091:1181   */\n      swap2\n      swap1\n      pop\n      jump\t// out\n        /* \"#utility.yul\":1187:1296   */\n    tag_371:\n        /* \"#utility.yul\":1268:1289   */\n      tag_455\n        /* \"#utility.yul\":1283:1288   */\n      dup2\n        /* \"#utility.yul\":1268:1289   */\n      tag_370\n      jump\t// in\n    tag_455:\n        /* \"#utility.yul\":1263:1266   */\n      dup3\n        /* \"#utility.yul\":1256:1290   */\n      mstore\n        /* \"#utility.yul\":1187:1296   */\n      pop\n      pop\n      jump\t// out\n        /* \"#utility.yul\":1302:1512   */\n    tag_32:\n        /* \"#utility.yul\":1389:1393   */\n      0x00\n        /* \"#utility.yul\":1427:1429   */\n      0x20\n        /* \"#utility.yul\":1416:1425   */\n      dup3\n        /* \"#utility.yul\":1412:1430   */\n      add\n        /* \"#utility.yul\":1404:1430   */\n      swap1\n      pop\n        /* \"#utility.yul\":1440:1505   */\n      tag_457\n        /* \"#utility.yul\":1502:1503   */\n      0x00\n        /* \"#utility.yul\":1491:1500   */\n      dup4\n        /* \"#utility.yul\":1487:1504   */\n      add\n        /* \"#utility.yul\":1478:1484   */\n      dup5\n        /* \"#utility.yul\":1440:1505   */\n      tag_371\n      jump\t// in\n    tag_457:\n        /* \"#utility.yul\":1302:1512   */\n      swap3\n      swap2\n      pop\n      pop\n      jump\t// out\n        /* \"#utility.yul\":1518:1617   */\n    tag_372:\n        /* \"#utility.yul\":1570:1576   */\n      0x00\n        /* \"#utility.yul\":1604:1609   */\n      dup2\n        /* \"#utility.yul\":1598:1610   */\n      mload\n        /* \"#utility.yul\":1588:1610   */\n      swap1\n      pop\n        /* \"#utility.yul\":1518:1617   */\n      swap2\n      swap1\n      pop\n      jump\t// out\n        /* \"#utility.yul\":1623:1792   */\n    tag_373:\n        /* \"#utility.yul\":1707:1718   */\n      0x00\n        /* \"#utility.yul\":1741:1747   */\n      dup3\n        /* \"#utility.yul\":1736:1739   */\n      dup3\n        /* \"#utility.yul\":1729:1748   */\n      mstore\n        /* \"#utility.yul\":1781:1785   */\n      0x20\n        /* \"#utility.yul\":1776:1779   */\n      dup3\n        /* \"#utility.yul\":1772:1786   */\n      add\n        /* \"#utility.yul\":1757:1786   */\n      swap1\n      pop\n        /* \"#utility.yul\":1623:1792   */\n      swap3\n      swap2\n      pop\n      pop\n      jump\t// out\n        /* \"#utility.yul\":1798:1937   */\n    tag_374:\n        /* \"#utility.yul\":1887:1893   */\n      dup3\n        /* \"#utility.yul\":1882:1885   */\n      dup2\n        /* \"#utility.yul\":1877:1880   */\n      dup4\n        /* \"#utility.yul\":1871:1894   */\n      mcopy\n        /* \"#utility.yul\":1928:1929   */\n      0x00\n        /* \"#utility.yul\":1919:1925   */\n      dup4\n        /* \"#utility.yul\":1914:1917   */\n      dup4\n        /* \"#utility.yul\":1910:1926   */\n      add\n        /* \"#utility.yul\":1903:1930   */\n      mstore\n        /* \"#utility.yul\":1798:1937   */\n      pop\n      pop\n      pop\n      jump\t// out\n        /* \"#utility.yul\":1943:2045   */\n    tag_375:\n        /* \"#utility.yul\":1984:1990   */\n      0x00\n        /* \"#utility.yul\":2035:2037   */\n      0x1f\n        /* \"#utility.yul\":2031:2038   */\n      not\n        /* \"#utility.yul\":2026:2028   */\n      0x1f\n        /* \"#utility.yul\":2019:2024   */\n      dup4\n        /* \"#utility.yul\":2015:2029   */\n      add\n        /* \"#utility.yul\":2011:2039   */\n      and\n        /* \"#utility.yul\":2001:2039   */\n      swap1\n      pop\n        /* \"#utility.yul\":1943:2045   */\n      swap2\n      swap1\n      pop\n      jump\t// out\n        /* \"#utility.yul\":2051:2428   */\n    tag_376:\n        /* \"#utility.yul\":2139:2142   */\n      0x00\n        /* \"#utility.yul\":2167:2206   */\n      tag_463\n        /* \"#utility.yul\":2200:2205   */\n      dup3\n        /* \"#utility.yul\":2167:2206   */\n      tag_372\n      jump\t// in\n    tag_463:\n        /* \"#utility.yul\":2222:2293   */\n      tag_464\n        /* \"#utility.yul\":2286:2292   */\n      dup2\n        /* \"#utility.yul\":2281:2284   */\n      dup6\n        /* \"#utility.yul\":2222:2293   */\n      tag_373\n      jump\t// in\n    tag_464:\n        /* \"#utility.yul\":2215:2293   */\n      swap4\n      pop\n        /* \"#utility.yul\":2302:2367   */\n      tag_465\n        /* \"#utility.yul\":2360:2366   */\n      dup2\n        /* \"#utility.yul\":2355:2358   */\n      dup6\n        /* \"#utility.yul\":2348:2352   */\n      0x20\n        /* \"#utility.yul\":2341:2346   */\n      dup7\n        /* \"#utility.yul\":2337:2353   */\n      add\n        /* \"#utility.yul\":2302:2367   */\n      tag_374\n      jump\t// in\n    tag_465:\n        /* \"#utility.yul\":2392:2421   */\n      tag_466\n        /* \"#utility.yul\":2414:2420   */\n      dup2\n        /* \"#utility.yul\":2392:2421   */\n      tag_375\n      jump\t// in\n    tag_466:\n        /* \"#utility.yul\":2387:2390   */\n      dup5\n        /* \"#utility.yul\":2383:2422   */\n      add\n        /* \"#utility.yul\":2376:2422   */\n      swap2\n      pop\n        /* \"#utility.yul\":2143:2428   */\n      pop\n        /* \"#utility.yul\":2051:2428   */\n      swap3\n      swap2\n      pop\n      pop\n      jump\t// out\n        /* \"#utility.yul\":2434:2747   */\n    tag_37:\n        /* \"#utility.yul\":2547:2551   */\n      0x00\n        /* \"#utility.yul\":2585:2587   */\n      0x20\n        /* \"#utility.yul\":2574:2583   */\n      dup3\n        /* \"#utility.yul\":2570:2588   */\n      add\n        /* \"#utility.yul\":2562:2588   */\n      swap1\n      pop\n        /* \"#utility.yul\":2634:2643   */\n      dup2\n        /* \"#utility.yul\":2628:2632   */\n      dup2\n        /* \"#utility.yul\":2624:2644   */\n      sub\n        /* \"#utility.yul\":2620:2621   */\n      0x00\n        /* \"#utility.yul\":2609:2618   */\n      dup4\n        /* \"#utility.yul\":2605:2622   */\n      add\n        /* \"#utility.yul\":2598:2645   */\n      mstore\n        /* \"#utility.yul\":2662:2740   */\n      tag_468\n        /* \"#utility.yul\":2735:2739   */\n      dup2\n        /* \"#utility.yul\":2726:2732   */\n      dup5\n        /* \"#utility.yul\":2662:2740   */\n      tag_376\n      jump\t// in\n    tag_468:\n        /* \"#utility.yul\":2654:2740   */\n      swap1\n      pop\n        /* \"#utility.yul\":2434:2747   */\n      swap3\n      swap2\n      pop\n      pop\n      jump\t// out\n        /* \"#utility.yul\":2753:2830   */\n    tag_377:\n        /* \"#utility.yul\":2790:2797   */\n      0x00\n        /* \"#utility.yul\":2819:2824   */\n      dup2\n        /* \"#utility.yul\":2808:2824   */\n      swap1\n      pop\n        /* \"#utility.yul\":2753:2830   */\n      swap2\n      swap1\n      pop\n      jump\t// out\n        /* \"#utility.yul\":2836:2958   */\n    tag_378:\n        /* \"#utility.yul\":2909:2933   */\n      tag_471\n        /* \"#utility.yul\":2927:2932   */\n      dup2\n        /* \"#utility.yul\":2909:2933   */\n      tag_377\n      jump\t// in\n    tag_471:\n        /* \"#utility.yul\":2902:2907   */\n      dup2\n        /* \"#utility.yul\":2899:2934   */\n      eq\n        /* \"#utility.yul\":2889:2952   */\n      tag_472\n      jumpi\n        /* \"#utility.yul\":2948:2949   */\n      0x00\n        /* \"#utility.yul\":2945:2946   */\n      dup1\n        /* \"#utility.yul\":2938:2950   */\n      revert\n        /* \"#utility.yul\":2889:2952   */\n    tag_472:\n        /* \"#utility.yul\":2836:2958   */\n      pop\n      jump\t// out\n        /* \"#utility.yul\":2964:3103   */\n    tag_379:\n        /* \"#utility.yul\":3010:3015   */\n      0x00\n        /* \"#utility.yul\":3048:3054   */\n      dup2\n        /* \"#utility.yul\":3035:3055   */\n      calldataload\n        /* \"#utility.yul\":3026:3055   */\n      swap1\n      pop\n        /* \"#utility.yul\":3064:3097   */\n      tag_474\n        /* \"#utility.yul\":3091:3096   */\n      dup2\n        /* \"#utility.yul\":3064:3097   */\n      tag_378\n      jump\t// in\n    tag_474:\n        /* \"#utility.yul\":2964:3103   */\n      swap3\n      swap2\n      pop\n      pop\n      jump\t// out\n        /* \"#utility.yul\":3109:3438   */\n    tag_41:\n        /* \"#utility.yul\":3168:3174   */\n      0x00\n        /* \"#utility.yul\":3217:3219   */\n      0x20\n        /* \"#utility.yul\":3205:3214   */\n      dup3\n        /* \"#utility.yul\":3196:3203   */\n      dup5\n        /* \"#utility.yul\":3192:3215   */\n      sub\n        /* \"#utility.yul\":3188:3220   */\n      slt\n        /* \"#utility.yul\":3185:3304   */\n      iszero\n      tag_476\n      jumpi\n        /* \"#utility.yul\":3223:3302   */\n      tag_477\n      tag_365\n      jump\t// in\n    tag_477:\n        /* \"#utility.yul\":3185:3304   */\n    tag_476:\n        /* \"#utility.yul\":3343:3344   */\n      0x00\n        /* \"#utility.yul\":3368:3421   */\n      tag_478\n        /* \"#utility.yul\":3413:3420   */\n      dup5\n        /* \"#utility.yul\":3404:3410   */\n      dup3\n        /* \"#utility.yul\":3393:3402   */\n      dup6\n        /* \"#utility.yul\":3389:3411   */\n      add\n        /* \"#utility.yul\":3368:3421   */\n      tag_379\n      jump\t// in\n    tag_478:\n        /* \"#utility.yul\":3358:3421   */\n      swap2\n      pop\n        /* \"#utility.yul\":3314:3431   */\n      pop\n        /* \"#utility.yul\":3109:3438   */\n      swap3\n      swap2\n      pop\n      pop\n      jump\t// out\n        /* \"#utility.yul\":3444:3570   */\n    tag_380:\n        /* \"#utility.yul\":3481:3488   */\n      0x00\n        /* \"#utility.yul\":3521:3563   */\n      0xffffffffffffffffffffffffffffffffffffffff\n        /* \"#utility.yul\":3514:3519   */\n      dup3\n        /* \"#utility.yul\":3510:3564   */\n      and\n        /* \"#utility.yul\":3499:3564   */\n      swap1\n      pop\n        /* \"#utility.yul\":3444:3570   */\n      swap2\n      swap1\n      pop\n      jump\t// out\n        /* \"#utility.yul\":3576:3672   */\n    tag_381:\n        /* \"#utility.yul\":3613:3620   */\n      0x00\n        /* \"#utility.yul\":3642:3666   */\n      tag_481\n        /* \"#utility.yul\":3660:3665   */\n      dup3\n        /* \"#utility.yul\":3642:3666   */\n      tag_380\n      jump\t// in\n    tag_481:\n        /* \"#utility.yul\":3631:3666   */\n      swap1\n      pop\n        /* \"#utility.yul\":3576:3672   */\n      swap2\n      swap1\n      pop\n      jump\t// out\n        /* \"#utility.yul\":3678:3796   */\n    tag_382:\n        /* \"#utility.yul\":3765:3789   */\n      tag_483\n        /* \"#utility.yul\":3783:3788   */\n      dup2\n        /* \"#utility.yul\":3765:3789   */\n      tag_381\n      jump\t// in\n    tag_483:\n        /* \"#utility.yul\":3760:3763   */\n      dup3\n        /* \"#utility.yul\":3753:3790   */\n      mstore\n        /* \"#utility.yul\":3678:3796   */\n      pop\n      pop\n      jump\t// out\n        /* \"#utility.yul\":3802:4024   */\n    tag_44:\n        /* \"#utility.yul\":3895:3899   */\n      0x00\n        /* \"#utility.yul\":3933:3935   */\n      0x20\n        /* \"#utility.yul\":3922:3931   */\n      dup3\n        /* \"#utility.yul\":3918:3936   */\n      add\n        /* \"#utility.yul\":3910:3936   */\n      swap1\n      pop\n        /* \"#utility.yul\":3946:4017   */\n      tag_485\n        /* \"#utility.yul\":4014:4015   */\n      0x00\n        /* \"#utility.yul\":4003:4012   */\n      dup4\n        /* \"#utility.yul\":3999:4016   */\n      add\n        /* \"#utility.yul\":3990:3996   */\n      dup5\n        /* \"#utility.yul\":3946:4017   */\n      tag_382\n      jump\t// in\n    tag_485:\n        /* \"#utility.yul\":3802:4024   */\n      swap3\n      swap2\n      pop\n      pop\n      jump\t// out\n        /* \"#utility.yul\":4030:4152   */\n    tag_383:\n        /* \"#utility.yul\":4103:4127   */\n      tag_487\n        /* \"#utility.yul\":4121:4126   */\n      dup2\n        /* \"#utility.yul\":4103:4127   */\n      tag_381\n      jump\t// in\n    tag_487:\n        /* \"#utility.yul\":4096:4101   */\n      dup2\n        /* \"#utility.yul\":4093:4128   */\n      eq\n        /* \"#utility.yul\":4083:4146   */\n      tag_488\n      jumpi\n        /* \"#utility.yul\":4142:4143   */\n      0x00\n        /* \"#utility.yul\":4139:4140   */\n      dup1\n        /* \"#utility.yul\":4132:4144   */\n      revert\n        /* \"#utility.yul\":4083:4146   */\n    tag_488:\n        /* \"#utility.yul\":4030:4152   */\n      pop\n      jump\t// out\n        /* \"#utility.yul\":4158:4297   */\n    tag_384:\n        /* \"#utility.yul\":4204:4209   */\n      0x00\n        /* \"#utility.yul\":4242:4248   */\n      dup2\n        /* \"#utility.yul\":4229:4249   */\n      calldataload\n        /* \"#utility.yul\":4220:4249   */\n      swap1\n      pop\n        /* \"#utility.yul\":4258:4291   */\n      tag_490\n        /* \"#utility.yul\":4285:4290   */\n      dup2\n        /* \"#utility.yul\":4258:4291   */\n      tag_383\n      jump\t// in\n    tag_490:\n        /* \"#utility.yul\":4158:4297   */\n      swap3\n      swap2\n      pop\n      pop\n      jump\t// out\n        /* \"#utility.yul\":4303:4777   */\n    tag_48:\n        /* \"#utility.yul\":4371:4377   */\n      0x00\n        /* \"#utility.yul\":4379:4385   */\n      dup1\n        /* \"#utility.yul\":4428:4430   */\n      0x40\n        /* \"#utility.yul\":4416:4425   */\n      dup4\n        /* \"#utility.yul\":4407:4414   */\n      dup6\n        /* \"#utility.yul\":4403:4426   */\n      sub\n        /* \"#utility.yul\":4399:4431   */\n      slt\n        /* \"#utility.yul\":4396:4515   */\n      iszero\n      tag_492\n      jumpi\n        /* \"#utility.yul\":4434:4513   */\n      tag_493\n      tag_365\n      jump\t// in\n    tag_493:\n        /* \"#utility.yul\":4396:4515   */\n    tag_492:\n        /* \"#utility.yul\":4554:4555   */\n      0x00\n        /* \"#utility.yul\":4579:4632   */\n      tag_494\n        /* \"#utility.yul\":4624:4631   */\n      dup6\n        /* \"#utility.yul\":4615:4621   */\n      dup3\n        /* \"#utility.yul\":4604:4613   */\n      dup7\n        /* \"#utility.yul\":4600:4622   */\n      add\n        /* \"#utility.yul\":4579:4632   */\n      tag_384\n      jump\t// in\n    tag_494:\n        /* \"#utility.yul\":4569:4632   */\n      swap3\n      pop\n        /* \"#utility.yul\":4525:4642   */\n      pop\n        /* \"#utility.yul\":4681:4683   */\n      0x20\n        /* \"#utility.yul\":4707:4760   */\n      tag_495\n        /* \"#utility.yul\":4752:4759   */\n      dup6\n        /* \"#utility.yul\":4743:4749   */\n      dup3\n        /* \"#utility.yul\":4732:4741   */\n      dup7\n        /* \"#utility.yul\":4728:4750   */\n      add\n        /* \"#utility.yul\":4707:4760   */\n      tag_379\n      jump\t// in\n    tag_495:\n        /* \"#utility.yul\":4697:4760   */\n      swap2\n      pop\n        /* \"#utility.yul\":4652:4770   */\n      pop\n        /* \"#utility.yul\":4303:4777   */\n      swap3\n      pop\n      swap3\n      swap1\n      pop\n      jump\t// out\n        /* \"#utility.yul\":4783:5402   */\n    tag_53:\n        /* \"#utility.yul\":4860:4866   */\n      0x00\n        /* \"#utility.yul\":4868:4874   */\n      dup1\n        /* \"#utility.yul\":4876:4882   */\n      0x00\n        /* \"#utility.yul\":4925:4927   */\n      0x60\n        /* \"#utility.yul\":4913:4922   */\n      dup5\n        /* \"#utility.yul\":4904:4911   */\n      dup7\n        /* \"#utility.yul\":4900:4923   */\n      sub\n        /* \"#utility.yul\":4896:4928   */\n      slt\n        /* \"#utility.yul\":4893:5012   */\n      iszero\n      tag_497\n      jumpi\n        /* \"#utility.yul\":4931:5010   */\n      tag_498\n      tag_365\n      jump\t// in\n    tag_498:\n        /* \"#utility.yul\":4893:5012   */\n    tag_497:\n        /* \"#utility.yul\":5051:5052   */\n      0x00\n        /* \"#utility.yul\":5076:5129   */\n      tag_499\n        /* \"#utility.yul\":5121:5128   */\n      dup7\n        /* \"#utility.yul\":5112:5118   */\n      dup3\n        /* \"#utility.yul\":5101:5110   */\n      dup8\n        /* \"#utility.yul\":5097:5119   */\n      add\n        /* \"#utility.yul\":5076:5129   */\n      tag_384\n      jump\t// in\n    tag_499:\n        /* \"#utility.yul\":5066:5129   */\n      swap4\n      pop\n        /* \"#utility.yul\":5022:5139   */\n      pop\n        /* \"#utility.yul\":5178:5180   */\n      0x20\n        /* \"#utility.yul\":5204:5257   */\n      tag_500\n        /* \"#utility.yul\":5249:5256   */\n      dup7\n        /* \"#utility.yul\":5240:5246   */\n      dup3\n        /* \"#utility.yul\":5229:5238   */\n      dup8\n        /* \"#utility.yul\":5225:5247   */\n      add\n        /* \"#utility.yul\":5204:5257   */\n      tag_384\n      jump\t// in\n    tag_500:\n        /* \"#utility.yul\":5194:5257   */\n      swap3\n      pop\n        /* \"#utility.yul\":5149:5267   */\n      pop\n        /* \"#utility.yul\":5306:5308   */\n      0x40\n        /* \"#utility.yul\":5332:5385   */\n      tag_501\n        /* \"#utility.yul\":5377:5384   */\n      dup7\n        /* \"#utility.yul\":5368:5374   */\n      dup3\n        /* \"#utility.yul\":5357:5366   */\n      dup8\n        /* \"#utility.yul\":5353:5375   */\n      add\n        /* \"#utility.yul\":5332:5385   */\n      tag_379\n      jump\t// in\n    tag_501:\n        /* \"#utility.yul\":5322:5385   */\n      swap2\n      pop\n        /* \"#utility.yul\":5277:5395   */\n      pop\n        /* \"#utility.yul\":4783:5402   */\n      swap3\n      pop\n      swap3\n      pop\n      swap3\n      jump\t// out\n        /* \"#utility.yul\":5408:5525   */\n    tag_385:\n        /* \"#utility.yul\":5517:5518   */\n      0x00\n        /* \"#utility.yul\":5514:5515   */\n      dup1\n        /* \"#utility.yul\":5507:5519   */\n      revert\n        /* \"#utility.yul\":5531:5648   */\n    tag_386:\n        /* \"#utility.yul\":5640:5641   */\n      0x00\n        /* \"#utility.yul\":5637:5638   */\n      dup1\n        /* \"#utility.yul\":5630:5642   */\n      revert\n        /* \"#utility.yul\":5654:5834   */\n    tag_296:\n        /* \"#utility.yul\":5702:5779   */\n      0x4e487b7100000000000000000000000000000000000000000000000000000000\n        /* \"#utility.yul\":5699:5700   */\n      0x00\n        /* \"#utility.yul\":5692:5780   */\n      mstore\n        /* \"#utility.yul\":5799:5803   */\n      0x41\n        /* \"#utility.yul\":5796:5797   */\n      0x04\n        /* \"#utility.yul\":5789:5804   */\n      mstore\n        /* \"#utility.yul\":5823:5827   */\n      0x24\n        /* \"#utility.yul\":5820:5821   */\n      0x00\n        /* \"#utility.yul\":5813:5828   */\n      revert\n        /* \"#utility.yul\":5840:6121   */\n    tag_387:\n        /* \"#utility.yul\":5923:5950   */\n      tag_506\n        /* \"#utility.yul\":5945:5949   */\n      dup3\n        /* \"#utility.yul\":5923:5950   */\n      tag_375\n      jump\t// in\n    tag_506:\n        /* \"#utility.yul\":5915:5921   */\n      dup2\n        /* \"#utility.yul\":5911:5951   */\n      add\n        /* \"#utility.yul\":6053:6059   */\n      dup2\n        /* \"#utility.yul\":6041:6051   */\n      dup2\n        /* \"#utility.yul\":6038:6060   */\n      lt\n        /* \"#utility.yul\":6017:6035   */\n      0xffffffffffffffff\n        /* \"#utility.yul\":6005:6015   */\n      dup3\n        /* \"#utility.yul\":6002:6036   */\n      gt\n        /* \"#utility.yul\":5999:6061   */\n      or\n        /* \"#utility.yul\":5996:6084   */\n      iszero\n      tag_507\n      jumpi\n        /* \"#utility.yul\":6064:6082   */\n      tag_508\n      tag_296\n      jump\t// in\n    tag_508:\n        /* \"#utility.yul\":5996:6084   */\n    tag_507:\n        /* \"#utility.yul\":6104:6114   */\n      dup1\n        /* \"#utility.yul\":6100:6102   */\n      0x40\n        /* \"#utility.yul\":6093:6115   */\n      mstore\n        /* \"#utility.yul\":5883:6121   */\n      pop\n        /* \"#utility.yul\":5840:6121   */\n      pop\n      pop\n      jump\t// out\n        /* \"#utility.yul\":6127:6256   */\n    tag_388:\n        /* \"#utility.yul\":6161:6167   */\n      0x00\n        /* \"#utility.yul\":6188:6208   */\n      tag_510\n      tag_364\n      jump\t// in\n    tag_510:\n        /* \"#utility.yul\":6178:6208   */\n      swap1\n      pop\n        /* \"#utility.yul\":6217:6250   */\n      tag_511\n        /* \"#utility.yul\":6245:6249   */\n      dup3\n        /* \"#utility.yul\":6237:6243   */\n      dup3\n        /* \"#utility.yul\":6217:6250   */\n      tag_387\n      jump\t// in\n    tag_511:\n        /* \"#utility.yul\":6127:6256   */\n      swap2\n      swap1\n      pop\n      jump\t// out\n        /* \"#utility.yul\":6262:6570   */\n    tag_389:\n        /* \"#utility.yul\":6324:6328   */\n      0x00\n        /* \"#utility.yul\":6414:6432   */\n      0xffffffffffffffff\n        /* \"#utility.yul\":6406:6412   */\n      dup3\n        /* \"#utility.yul\":6403:6433   */\n      gt\n        /* \"#utility.yul\":6400:6456   */\n      iszero\n      tag_513\n      jumpi\n        /* \"#utility.yul\":6436:6454   */\n      tag_514\n      tag_296\n      jump\t// in\n    tag_514:\n        /* \"#utility.yul\":6400:6456   */\n    tag_513:\n        /* \"#utility.yul\":6474:6503   */\n      tag_515\n        /* \"#utility.yul\":6496:6502   */\n      dup3\n        /* \"#utility.yul\":6474:6503   */\n      tag_375\n      jump\t// in\n    tag_515:\n        /* \"#utility.yul\":6466:6503   */\n      swap1\n      pop\n        /* \"#utility.yul\":6558:6562   */\n      0x20\n        /* \"#utility.yul\":6552:6556   */\n      dup2\n        /* \"#utility.yul\":6548:6563   */\n      add\n        /* \"#utility.yul\":6540:6563   */\n      swap1\n      pop\n        /* \"#utility.yul\":6262:6570   */\n      swap2\n      swap1\n      pop\n      jump\t// out\n        /* \"#utility.yul\":6576:6724   */\n    tag_390:\n        /* \"#utility.yul\":6674:6680   */\n      dup3\n        /* \"#utility.yul\":6669:6672   */\n      dup2\n        /* \"#utility.yul\":6664:6667   */\n      dup4\n        /* \"#utility.yul\":6651:6681   */\n      calldatacopy\n        /* \"#utility.yul\":6715:6716   */\n      0x00\n        /* \"#utility.yul\":6706:6712   */\n      dup4\n        /* \"#utility.yul\":6701:6704   */\n      dup4\n        /* \"#utility.yul\":6697:6713   */\n      add\n        /* \"#utility.yul\":6690:6717   */\n      mstore\n        /* \"#utility.yul\":6576:6724   */\n      pop\n      pop\n      pop\n      jump\t// out\n        /* \"#utility.yul\":6730:7155   */\n    tag_391:\n        /* \"#utility.yul\":6808:6813   */\n      0x00\n        /* \"#utility.yul\":6833:6899   */\n      tag_518\n        /* \"#utility.yul\":6849:6898   */\n      tag_519\n        /* \"#utility.yul\":6891:6897   */\n      dup5\n        /* \"#utility.yul\":6849:6898   */\n      tag_389\n      jump\t// in\n    tag_519:\n        /* \"#utility.yul\":6833:6899   */\n      tag_388\n      jump\t// in\n    tag_518:\n        /* \"#utility.yul\":6824:6899   */\n      swap1\n      pop\n        /* \"#utility.yul\":6922:6928   */\n      dup3\n        /* \"#utility.yul\":6915:6920   */\n      dup2\n        /* \"#utility.yul\":6908:6929   */\n      mstore\n        /* \"#utility.yul\":6960:6964   */\n      0x20\n        /* \"#utility.yul\":6953:6958   */\n      dup2\n        /* \"#utility.yul\":6949:6965   */\n      add\n        /* \"#utility.yul\":6998:7001   */\n      dup5\n        /* \"#utility.yul\":6989:6995   */\n      dup5\n        /* \"#utility.yul\":6984:6987   */\n      dup5\n        /* \"#utility.yul\":6980:6996   */\n      add\n        /* \"#utility.yul\":6977:7002   */\n      gt\n        /* \"#utility.yul\":6974:7086   */\n      iszero\n      tag_520\n      jumpi\n        /* \"#utility.yul\":7005:7084   */\n      tag_521\n      tag_386\n      jump\t// in\n    tag_521:\n        /* \"#utility.yul\":6974:7086   */\n    tag_520:\n        /* \"#utility.yul\":7095:7149   */\n      tag_522\n        /* \"#utility.yul\":7142:7148   */\n      dup5\n        /* \"#utility.yul\":7137:7140   */\n      dup3\n        /* \"#utility.yul\":7132:7135   */\n      dup6\n        /* \"#utility.yul\":7095:7149   */\n      tag_390\n      jump\t// in\n    tag_522:\n        /* \"#utility.yul\":6814:7155   */\n      pop\n        /* \"#utility.yul\":6730:7155   */\n      swap4\n      swap3\n      pop\n      pop\n      pop\n      jump\t// out\n        /* \"#utility.yul\":7175:7515   */\n    tag_392:\n        /* \"#utility.yul\":7231:7236   */\n      0x00\n        /* \"#utility.yul\":7280:7283   */\n      dup3\n        /* \"#utility.yul\":7273:7277   */\n      0x1f\n        /* \"#utility.yul\":7265:7271   */\n      dup4\n        /* \"#utility.yul\":7261:7278   */\n      add\n        /* \"#utility.yul\":7257:7284   */\n      slt\n        /* \"#utility.yul\":7247:7369   */\n      tag_524\n      jumpi\n        /* \"#utility.yul\":7288:7367   */\n      tag_525\n      tag_385\n      jump\t// in\n    tag_525:\n        /* \"#utility.yul\":7247:7369   */\n    tag_524:\n        /* \"#utility.yul\":7405:7411   */\n      dup2\n        /* \"#utility.yul\":7392:7412   */\n      calldataload\n        /* \"#utility.yul\":7430:7509   */\n      tag_526\n        /* \"#utility.yul\":7505:7508   */\n      dup5\n        /* \"#utility.yul\":7497:7503   */\n      dup3\n        /* \"#utility.yul\":7490:7494   */\n      0x20\n        /* \"#utility.yul\":7482:7488   */\n      dup7\n        /* \"#utility.yul\":7478:7495   */\n      add\n        /* \"#utility.yul\":7430:7509   */\n      tag_391\n      jump\t// in\n    tag_526:\n        /* \"#utility.yul\":7421:7509   */\n      swap2\n      pop\n        /* \"#utility.yul\":7237:7515   */\n      pop\n        /* \"#utility.yul\":7175:7515   */\n      swap3\n      swap2\n      pop\n      pop\n      jump\t// out\n        /* \"#utility.yul\":7521:8175   */\n    tag_58:\n        /* \"#utility.yul\":7599:7605   */\n      0x00\n        /* \"#utility.yul\":7607:7613   */\n      dup1\n        /* \"#utility.yul\":7656:7658   */\n      0x40\n        /* \"#utility.yul\":7644:7653   */\n      dup4\n        /* \"#utility.yul\":7635:7642   */\n      dup6\n        /* \"#utility.yul\":7631:7654   */\n      sub\n        /* \"#utility.yul\":7627:7659   */\n      slt\n        /* \"#utility.yul\":7624:7743   */\n      iszero\n      tag_528\n      jumpi\n        /* \"#utility.yul\":7662:7741   */\n      tag_529\n      tag_365\n      jump\t// in\n    tag_529:\n        /* \"#utility.yul\":7624:7743   */\n    tag_528:\n        /* \"#utility.yul\":7782:7783   */\n      0x00\n        /* \"#utility.yul\":7807:7860   */\n      tag_530\n        /* \"#utility.yul\":7852:7859   */\n      dup6\n        /* \"#utility.yul\":7843:7849   */\n      dup3\n        /* \"#utility.yul\":7832:7841   */\n      dup7\n        /* \"#utility.yul\":7828:7850   */\n      add\n        /* \"#utility.yul\":7807:7860   */\n      tag_384\n      jump\t// in\n    tag_530:\n        /* \"#utility.yul\":7797:7860   */\n      swap3\n      pop\n        /* \"#utility.yul\":7753:7870   */\n      pop\n        /* \"#utility.yul\":7937:7939   */\n      0x20\n        /* \"#utility.yul\":7926:7935   */\n      dup4\n        /* \"#utility.yul\":7922:7940   */\n      add\n        /* \"#utility.yul\":7909:7941   */\n      calldataload\n        /* \"#utility.yul\":7968:7986   */\n      0xffffffffffffffff\n        /* \"#utility.yul\":7960:7966   */\n      dup2\n        /* \"#utility.yul\":7957:7987   */\n      gt\n        /* \"#utility.yul\":7954:8071   */\n      iszero\n      tag_531\n      jumpi\n        /* \"#utility.yul\":7990:8069   */\n      tag_532\n      tag_366\n      jump\t// in\n    tag_532:\n        /* \"#utility.yul\":7954:8071   */\n    tag_531:\n        /* \"#utility.yul\":8095:8158   */\n      tag_533\n        /* \"#utility.yul\":8150:8157   */\n      dup6\n        /* \"#utility.yul\":8141:8147   */\n      dup3\n        /* \"#utility.yul\":8130:8139   */\n      dup7\n        /* \"#utility.yul\":8126:8148   */\n      add\n        /* \"#utility.yul\":8095:8158   */\n      tag_392\n      jump\t// in\n    tag_533:\n        /* \"#utility.yul\":8085:8158   */\n      swap2\n      pop\n        /* \"#utility.yul\":7880:8168   */\n      pop\n        /* \"#utility.yul\":7521:8175   */\n      swap3\n      pop\n      swap3\n      swap1\n      pop\n      jump\t// out\n        /* \"#utility.yul\":8181:8510   */\n    tag_72:\n        /* \"#utility.yul\":8240:8246   */\n      0x00\n        /* \"#utility.yul\":8289:8291   */\n      0x20\n        /* \"#utility.yul\":8277:8286   */\n      dup3\n        /* \"#utility.yul\":8268:8275   */\n      dup5\n        /* \"#utility.yul\":8264:8287   */\n      sub\n        /* \"#utility.yul\":8260:8292   */\n      slt\n        /* \"#utility.yul\":8257:8376   */\n      iszero\n      tag_535\n      jumpi\n        /* \"#utility.yul\":8295:8374   */\n      tag_536\n      tag_365\n      jump\t// in\n    tag_536:\n        /* \"#utility.yul\":8257:8376   */\n    tag_535:\n        /* \"#utility.yul\":8415:8416   */\n      0x00\n        /* \"#utility.yul\":8440:8493   */\n      tag_537\n        /* \"#utility.yul\":8485:8492   */\n      dup5\n        /* \"#utility.yul\":8476:8482   */\n      dup3\n        /* \"#utility.yul\":8465:8474   */\n      dup6\n        /* \"#utility.yul\":8461:8483   */\n      add\n        /* \"#utility.yul\":8440:8493   */\n      tag_384\n      jump\t// in\n    tag_537:\n        /* \"#utility.yul\":8430:8493   */\n      swap2\n      pop\n        /* \"#utility.yul\":8386:8503   */\n      pop\n        /* \"#utility.yul\":8181:8510   */\n      swap3\n      swap2\n      pop\n      pop\n      jump\t// out\n        /* \"#utility.yul\":8516:8634   */\n    tag_393:\n        /* \"#utility.yul\":8603:8627   */\n      tag_539\n        /* \"#utility.yul\":8621:8626   */\n      dup2\n        /* \"#utility.yul\":8603:8627   */\n      tag_377\n      jump\t// in\n    tag_539:\n        /* \"#utility.yul\":8598:8601   */\n      dup3\n        /* \"#utility.yul\":8591:8628   */\n      mstore\n        /* \"#utility.yul\":8516:8634   */\n      pop\n      pop\n      jump\t// out\n        /* \"#utility.yul\":8640:8862   */\n    tag_75:\n        /* \"#utility.yul\":8733:8737   */\n      0x00\n        /* \"#utility.yul\":8771:8773   */\n      0x20\n        /* \"#utility.yul\":8760:8769   */\n      dup3\n        /* \"#utility.yul\":8756:8774   */\n      add\n        /* \"#utility.yul\":8748:8774   */\n      swap1\n      pop\n        /* \"#utility.yul\":8784:8855   */\n      tag_541\n        /* \"#utility.yul\":8852:8853   */\n      0x00\n        /* \"#utility.yul\":8841:8850   */\n      dup4\n        /* \"#utility.yul\":8837:8854   */\n      add\n        /* \"#utility.yul\":8828:8834   */\n      dup5\n        /* \"#utility.yul\":8784:8855   */\n      tag_393\n      jump\t// in\n    tag_541:\n        /* \"#utility.yul\":8640:8862   */\n      swap3\n      swap2\n      pop\n      pop\n      jump\t// out\n        /* \"#utility.yul\":8868:8984   */\n    tag_394:\n        /* \"#utility.yul\":8938:8959   */\n      tag_543\n        /* \"#utility.yul\":8953:8958   */\n      dup2\n        /* \"#utility.yul\":8938:8959   */\n      tag_370\n      jump\t// in\n    tag_543:\n        /* \"#utility.yul\":8931:8936   */\n      dup2\n        /* \"#utility.yul\":8928:8960   */\n      eq\n        /* \"#utility.yul\":8918:8978   */\n      tag_544\n      jumpi\n        /* \"#utility.yul\":8974:8975   */\n      0x00\n        /* \"#utility.yul\":8971:8972   */\n      dup1\n        /* \"#utility.yul\":8964:8976   */\n      revert\n        /* \"#utility.yul\":8918:8978   */\n    tag_544:\n        /* \"#utility.yul\":8868:8984   */\n      pop\n      jump\t// out\n        /* \"#utility.yul\":8990:9123   */\n    tag_395:\n        /* \"#utility.yul\":9033:9038   */\n      0x00\n        /* \"#utility.yul\":9071:9077   */\n      dup2\n        /* \"#utility.yul\":9058:9078   */\n      calldataload\n        /* \"#utility.yul\":9049:9078   */\n      swap1\n      pop\n        /* \"#utility.yul\":9087:9117   */\n      tag_546\n        /* \"#utility.yul\":9111:9116   */\n      dup2\n        /* \"#utility.yul\":9087:9117   */\n      tag_394\n      jump\t// in\n    tag_546:\n        /* \"#utility.yul\":8990:9123   */\n      swap3\n      swap2\n      pop\n      pop\n      jump\t// out\n        /* \"#utility.yul\":9129:9597   */\n    tag_90:\n        /* \"#utility.yul\":9194:9200   */\n      0x00\n        /* \"#utility.yul\":9202:9208   */\n      dup1\n        /* \"#utility.yul\":9251:9253   */\n      0x40\n        /* \"#utility.yul\":9239:9248   */\n      dup4\n        /* \"#utility.yul\":9230:9237   */\n      dup6\n        /* \"#utility.yul\":9226:9249   */\n      sub\n        /* \"#utility.yul\":9222:9254   */\n      slt\n        /* \"#utility.yul\":9219:9338   */\n      iszero\n      tag_548\n      jumpi\n        /* \"#utility.yul\":9257:9336   */\n      tag_549\n      tag_365\n      jump\t// in\n    tag_549:\n        /* \"#utility.yul\":9219:9338   */\n    tag_548:\n        /* \"#utility.yul\":9377:9378   */\n      0x00\n        /* \"#utility.yul\":9402:9455   */\n      tag_550\n        /* \"#utility.yul\":9447:9454   */\n      dup6\n        /* \"#utility.yul\":9438:9444   */\n      dup3\n        /* \"#utility.yul\":9427:9436   */\n      dup7\n        /* \"#utility.yul\":9423:9445   */\n      add\n        /* \"#utility.yul\":9402:9455   */\n      tag_384\n      jump\t// in\n    tag_550:\n        /* \"#utility.yul\":9392:9455   */\n      swap3\n      pop\n        /* \"#utility.yul\":9348:9465   */\n      pop\n        /* \"#utility.yul\":9504:9506   */\n      0x20\n        /* \"#utility.yul\":9530:9580   */\n      tag_551\n        /* \"#utility.yul\":9572:9579   */\n      dup6\n        /* \"#utility.yul\":9563:9569   */\n      dup3\n        /* \"#utility.yul\":9552:9561   */\n      dup7\n        /* \"#utility.yul\":9548:9570   */\n      add\n        /* \"#utility.yul\":9530:9580   */\n      tag_395\n      jump\t// in\n    tag_551:\n        /* \"#utility.yul\":9520:9580   */\n      swap2\n      pop\n        /* \"#utility.yul\":9475:9590   */\n      pop\n        /* \"#utility.yul\":9129:9597   */\n      swap3\n      pop\n      swap3\n      swap1\n      pop\n      jump\t// out\n        /* \"#utility.yul\":9603:9910   */\n    tag_396:\n        /* \"#utility.yul\":9664:9668   */\n      0x00\n        /* \"#utility.yul\":9754:9772   */\n      0xffffffffffffffff\n        /* \"#utility.yul\":9746:9752   */\n      dup3\n        /* \"#utility.yul\":9743:9773   */\n      gt\n        /* \"#utility.yul\":9740:9796   */\n      iszero\n      tag_553\n      jumpi\n        /* \"#utility.yul\":9776:9794   */\n      tag_554\n      tag_296\n      jump\t// in\n    tag_554:\n        /* \"#utility.yul\":9740:9796   */\n    tag_553:\n        /* \"#utility.yul\":9814:9843   */\n      tag_555\n        /* \"#utility.yul\":9836:9842   */\n      dup3\n        /* \"#utility.yul\":9814:9843   */\n      tag_375\n      jump\t// in\n    tag_555:\n        /* \"#utility.yul\":9806:9843   */\n      swap1\n      pop\n        /* \"#utility.yul\":9898:9902   */\n      0x20\n        /* \"#utility.yul\":9892:9896   */\n      dup2\n        /* \"#utility.yul\":9888:9903   */\n      add\n        /* \"#utility.yul\":9880:9903   */\n      swap1\n      pop\n        /* \"#utility.yul\":9603:9910   */\n      swap2\n      swap1\n      pop\n      jump\t// out\n        /* \"#utility.yul\":9916:10339   */\n    tag_397:\n        /* \"#utility.yul\":9993:9998   */\n      0x00\n        /* \"#utility.yul\":10018:10083   */\n      tag_557\n        /* \"#utility.yul\":10034:10082   */\n      tag_558\n        /* \"#utility.yul\":10075:10081   */\n      dup5\n        /* \"#utility.yul\":10034:10082   */\n      tag_396\n      jump\t// in\n    tag_558:\n        /* \"#utility.yul\":10018:10083   */\n      tag_388\n      jump\t// in\n    tag_557:\n        /* \"#utility.yul\":10009:10083   */\n      swap1\n      pop\n        /* \"#utility.yul\":10106:10112   */\n      dup3\n        /* \"#utility.yul\":10099:10104   */\n      dup2\n        /* \"#utility.yul\":10092:10113   */\n      mstore\n        /* \"#utility.yul\":10144:10148   */\n      0x20\n        /* \"#utility.yul\":10137:10142   */\n      dup2\n        /* \"#utility.yul\":10133:10149   */\n      add\n        /* \"#utility.yul\":10182:10185   */\n      dup5\n        /* \"#utility.yul\":10173:10179   */\n      dup5\n        /* \"#utility.yul\":10168:10171   */\n      dup5\n        /* \"#utility.yul\":10164:10180   */\n      add\n        /* \"#utility.yul\":10161:10186   */\n      gt\n        /* \"#utility.yul\":10158:10270   */\n      iszero\n      tag_559\n      jumpi\n        /* \"#utility.yul\":10189:10268   */\n      tag_560\n      tag_386\n      jump\t// in\n    tag_560:\n        /* \"#utility.yul\":10158:10270   */\n    tag_559:\n        /* \"#utility.yul\":10279:10333   */\n      tag_561\n        /* \"#utility.yul\":10326:10332   */\n      dup5\n        /* \"#utility.yul\":10321:10324   */\n      dup3\n        /* \"#utility.yul\":10316:10319   */\n      dup6\n        /* \"#utility.yul\":10279:10333   */\n      tag_390\n      jump\t// in\n    tag_561:\n        /* \"#utility.yul\":9999:10339   */\n      pop\n        /* \"#utility.yul\":9916:10339   */\n      swap4\n      swap3\n      pop\n      pop\n      pop\n      jump\t// out\n        /* \"#utility.yul\":10358:10696   */\n    tag_398:\n        /* \"#utility.yul\":10413:10418   */\n      0x00\n        /* \"#utility.yul\":10462:10465   */\n      dup3\n        /* \"#utility.yul\":10455:10459   */\n      0x1f\n        /* \"#utility.yul\":10447:10453   */\n      dup4\n        /* \"#utility.yul\":10443:10460   */\n      add\n        /* \"#utility.yul\":10439:10466   */\n      slt\n        /* \"#utility.yul\":10429:10551   */\n      tag_563\n      jumpi\n        /* \"#utility.yul\":10470:10549   */\n      tag_564\n      tag_385\n      jump\t// in\n    tag_564:\n        /* \"#utility.yul\":10429:10551   */\n    tag_563:\n        /* \"#utility.yul\":10587:10593   */\n      dup2\n        /* \"#utility.yul\":10574:10594   */\n      calldataload\n        /* \"#utility.yul\":10612:10690   */\n      tag_565\n        /* \"#utility.yul\":10686:10689   */\n      dup5\n        /* \"#utility.yul\":10678:10684   */\n      dup3\n        /* \"#utility.yul\":10671:10675   */\n      0x20\n        /* \"#utility.yul\":10663:10669   */\n      dup7\n        /* \"#utility.yul\":10659:10676   */\n      add\n        /* \"#utility.yul\":10612:10690   */\n      tag_397\n      jump\t// in\n    tag_565:\n        /* \"#utility.yul\":10603:10690   */\n      swap2\n      pop\n        /* \"#utility.yul\":10419:10696   */\n      pop\n        /* \"#utility.yul\":10358:10696   */\n      swap3\n      swap2\n      pop\n      pop\n      jump\t// out\n        /* \"#utility.yul\":10702:11645   */\n    tag_95:\n        /* \"#utility.yul\":10797:10803   */\n      0x00\n        /* \"#utility.yul\":10805:10811   */\n      dup1\n        /* \"#utility.yul\":10813:10819   */\n      0x00\n        /* \"#utility.yul\":10821:10827   */\n      dup1\n        /* \"#utility.yul\":10870:10873   */\n      0x80\n        /* \"#utility.yul\":10858:10867   */\n      dup6\n        /* \"#utility.yul\":10849:10856   */\n      dup8\n        /* \"#utility.yul\":10845:10868   */\n      sub\n        /* \"#utility.yul\":10841:10874   */\n      slt\n        /* \"#utility.yul\":10838:10958   */\n      iszero\n      tag_567\n      jumpi\n        /* \"#utility.yul\":10877:10956   */\n      tag_568\n      tag_365\n      jump\t// in\n    tag_568:\n        /* \"#utility.yul\":10838:10958   */\n    tag_567:\n        /* \"#utility.yul\":10997:10998   */\n      0x00\n        /* \"#utility.yul\":11022:11075   */\n      tag_569\n        /* \"#utility.yul\":11067:11074   */\n      dup8\n        /* \"#utility.yul\":11058:11064   */\n      dup3\n        /* \"#utility.yul\":11047:11056   */\n      dup9\n        /* \"#utility.yul\":11043:11065   */\n      add\n        /* \"#utility.yul\":11022:11075   */\n      tag_384\n      jump\t// in\n    tag_569:\n        /* \"#utility.yul\":11012:11075   */\n      swap5\n      pop\n        /* \"#utility.yul\":10968:11085   */\n      pop\n        /* \"#utility.yul\":11124:11126   */\n      0x20\n        /* \"#utility.yul\":11150:11203   */\n      tag_570\n        /* \"#utility.yul\":11195:11202   */\n      dup8\n        /* \"#utility.yul\":11186:11192   */\n      dup3\n        /* \"#utility.yul\":11175:11184   */\n      dup9\n        /* \"#utility.yul\":11171:11193   */\n      add\n        /* \"#utility.yul\":11150:11203   */\n      tag_384\n      jump\t// in\n    tag_570:\n        /* \"#utility.yul\":11140:11203   */\n      swap4\n      pop\n        /* \"#utility.yul\":11095:11213   */\n      pop\n        /* \"#utility.yul\":11252:11254   */\n      0x40\n        /* \"#utility.yul\":11278:11331   */\n      tag_571\n        /* \"#utility.yul\":11323:11330   */\n      dup8\n        /* \"#utility.yul\":11314:11320   */\n      dup3\n        /* \"#utility.yul\":11303:11312   */\n      dup9\n        /* \"#utility.yul\":11299:11321   */\n      add\n        /* \"#utility.yul\":11278:11331   */\n      tag_379\n      jump\t// in\n    tag_571:\n        /* \"#utility.yul\":11268:11331   */\n      swap3\n      pop\n        /* \"#utility.yul\":11223:11341   */\n      pop\n        /* \"#utility.yul\":11408:11410   */\n      0x60\n        /* \"#utility.yul\":11397:11406   */\n      dup6\n        /* \"#utility.yul\":11393:11411   */\n      add\n        /* \"#utility.yul\":11380:11412   */\n      calldataload\n        /* \"#utility.yul\":11439:11457   */\n      0xffffffffffffffff\n        /* \"#utility.yul\":11431:11437   */\n      dup2\n        /* \"#utility.yul\":11428:11458   */\n      gt\n        /* \"#utility.yul\":11425:11542   */\n      iszero\n      tag_572\n      jumpi\n        /* \"#utility.yul\":11461:11540   */\n      tag_573\n      tag_366\n      jump\t// in\n    tag_573:\n        /* \"#utility.yul\":11425:11542   */\n    tag_572:\n        /* \"#utility.yul\":11566:11628   */\n      tag_574\n        /* \"#utility.yul\":11620:11627   */\n      dup8\n        /* \"#utility.yul\":11611:11617   */\n      dup3\n        /* \"#utility.yul\":11600:11609   */\n      dup9\n        /* \"#utility.yul\":11596:11618   */\n      add\n        /* \"#utility.yul\":11566:11628   */\n      tag_398\n      jump\t// in\n    tag_574:\n        /* \"#utility.yul\":11556:11628   */\n      swap2\n      pop\n        /* \"#utility.yul\":11351:11638   */\n      pop\n        /* \"#utility.yul\":10702:11645   */\n      swap3\n      swap6\n      swap2\n      swap5\n      pop\n      swap3\n      pop\n      jump\t// out\n        /* \"#utility.yul\":11651:12125   */\n    tag_107:\n        /* \"#utility.yul\":11719:11725   */\n      0x00\n        /* \"#utility.yul\":11727:11733   */\n      dup1\n        /* \"#utility.yul\":11776:11778   */\n      0x40\n        /* \"#utility.yul\":11764:11773   */\n      dup4\n        /* \"#utility.yul\":11755:11762   */\n      dup6\n        /* \"#utility.yul\":11751:11774   */\n      sub\n        /* \"#utility.yul\":11747:11779   */\n      slt\n        /* \"#utility.yul\":11744:11863   */\n      iszero\n      tag_576\n      jumpi\n        /* \"#utility.yul\":11782:11861   */\n      tag_577\n      tag_365\n      jump\t// in\n    tag_577:\n        /* \"#utility.yul\":11744:11863   */\n    tag_576:\n        /* \"#utility.yul\":11902:11903   */\n      0x00\n        /* \"#utility.yul\":11927:11980   */\n      tag_578\n        /* \"#utility.yul\":11972:11979   */\n      dup6\n        /* \"#utility.yul\":11963:11969   */\n      dup3\n        /* \"#utility.yul\":11952:11961   */\n      dup7\n        /* \"#utility.yul\":11948:11970   */\n      add\n        /* \"#utility.yul\":11927:11980   */\n      tag_384\n      jump\t// in\n    tag_578:\n        /* \"#utility.yul\":11917:11980   */\n      swap3\n      pop\n        /* \"#utility.yul\":11873:11990   */\n      pop\n        /* \"#utility.yul\":12029:12031   */\n      0x20\n        /* \"#utility.yul\":12055:12108   */\n      tag_579\n        /* \"#utility.yul\":12100:12107   */\n      dup6\n        /* \"#utility.yul\":12091:12097   */\n      dup3\n        /* \"#utility.yul\":12080:12089   */\n      dup7\n        /* \"#utility.yul\":12076:12098   */\n      add\n        /* \"#utility.yul\":12055:12108   */\n      tag_384\n      jump\t// in\n    tag_579:\n        /* \"#utility.yul\":12045:12108   */\n      swap2\n      pop\n        /* \"#utility.yul\":12000:12118   */\n      pop\n        /* \"#utility.yul\":11651:12125   */\n      swap3\n      pop\n      swap3\n      swap1\n      pop\n      jump\t// out\n        /* \"#utility.yul\":12131:12311   */\n    tag_399:\n        /* \"#utility.yul\":12179:12256   */\n      0x4e487b7100000000000000000000000000000000000000000000000000000000\n        /* \"#utility.yul\":12176:12177   */\n      0x00\n        /* \"#utility.yul\":12169:12257   */\n      mstore\n        /* \"#utility.yul\":12276:12280   */\n      0x22\n        /* \"#utility.yul\":12273:12274   */\n      0x04\n        /* \"#utility.yul\":12266:12281   */\n      mstore\n        /* \"#utility.yul\":12300:12304   */\n      0x24\n        /* \"#utility.yul\":12297:12298   */\n      0x00\n        /* \"#utility.yul\":12290:12305   */\n      revert\n        /* \"#utility.yul\":12317:12637   */\n    tag_120:\n        /* \"#utility.yul\":12361:12367   */\n      0x00\n        /* \"#utility.yul\":12398:12399   */\n      0x02\n        /* \"#utility.yul\":12392:12396   */\n      dup3\n        /* \"#utility.yul\":12388:12400   */\n      div\n        /* \"#utility.yul\":12378:12400   */\n      swap1\n      pop\n        /* \"#utility.yul\":12445:12446   */\n      0x01\n        /* \"#utility.yul\":12439:12443   */\n      dup3\n        /* \"#utility.yul\":12435:12447   */\n      and\n        /* \"#utility.yul\":12466:12484   */\n      dup1\n        /* \"#utility.yul\":12456:12537   */\n      tag_582\n      jumpi\n        /* \"#utility.yul\":12522:12526   */\n      0x7f\n        /* \"#utility.yul\":12514:12520   */\n      dup3\n        /* \"#utility.yul\":12510:12527   */\n      and\n        /* \"#utility.yul\":12500:12527   */\n      swap2\n      pop\n        /* \"#utility.yul\":12456:12537   */\n    tag_582:\n        /* \"#utility.yul\":12584:12586   */\n      0x20\n        /* \"#utility.yul\":12576:12582   */\n      dup3\n        /* \"#utility.yul\":12573:12587   */\n      lt\n        /* \"#utility.yul\":12553:12571   */\n      dup2\n        /* \"#utility.yul\":12550:12588   */\n      sub\n        /* \"#utility.yul\":12547:12631   */\n      tag_583\n      jumpi\n        /* \"#utility.yul\":12603:12621   */\n      tag_584\n      tag_399\n      jump\t// in\n    tag_584:\n        /* \"#utility.yul\":12547:12631   */\n    tag_583:\n        /* \"#utility.yul\":12368:12637   */\n      pop\n        /* \"#utility.yul\":12317:12637   */\n      swap2\n      swap1\n      pop\n      jump\t// out\n        /* \"#utility.yul\":12643:12822   */\n    tag_400:\n        /* \"#utility.yul\":12783:12814   */\n      0x417070726f76652066756e6374696f6e2069732064697361626c65642e000000\n        /* \"#utility.yul\":12779:12780   */\n      0x00\n        /* \"#utility.yul\":12771:12777   */\n      dup3\n        /* \"#utility.yul\":12767:12781   */\n      add\n        /* \"#utility.yul\":12760:12815   */\n      mstore\n        /* \"#utility.yul\":12643:12822   */\n      pop\n      jump\t// out\n        /* \"#utility.yul\":12828:13194   */\n    tag_401:\n        /* \"#utility.yul\":12970:12973   */\n      0x00\n        /* \"#utility.yul\":12991:13058   */\n      tag_587\n        /* \"#utility.yul\":13055:13057   */\n      0x1d\n        /* \"#utility.yul\":13050:13053   */\n      dup4\n        /* \"#utility.yul\":12991:13058   */\n      tag_373\n      jump\t// in\n    tag_587:\n        /* \"#utility.yul\":12984:13058   */\n      swap2\n      pop\n        /* \"#utility.yul\":13067:13160   */\n      tag_588\n        /* \"#utility.yul\":13156:13159   */\n      dup3\n        /* \"#utility.yul\":13067:13160   */\n      tag_400\n      jump\t// in\n    tag_588:\n        /* \"#utility.yul\":13185:13187   */\n      0x20\n        /* \"#utility.yul\":13180:13183   */\n      dup3\n        /* \"#utility.yul\":13176:13188   */\n      add\n        /* \"#utility.yul\":13169:13188   */\n      swap1\n      pop\n        /* \"#utility.yul\":12828:13194   */\n      swap2\n      swap1\n      pop\n      jump\t// out\n        /* \"#utility.yul\":13200:13619   */\n    tag_135:\n        /* \"#utility.yul\":13366:13370   */\n      0x00\n        /* \"#utility.yul\":13404:13406   */\n      0x20\n        /* \"#utility.yul\":13393:13402   */\n      dup3\n        /* \"#utility.yul\":13389:13407   */\n      add\n        /* \"#utility.yul\":13381:13407   */\n      swap1\n      pop\n        /* \"#utility.yul\":13453:13462   */\n      dup2\n        /* \"#utility.yul\":13447:13451   */\n      dup2\n        /* \"#utility.yul\":13443:13463   */\n      sub\n        /* \"#utility.yul\":13439:13440   */\n      0x00\n        /* \"#utility.yul\":13428:13437   */\n      dup4\n        /* \"#utility.yul\":13424:13441   */\n      add\n        /* \"#utility.yul\":13417:13464   */\n      mstore\n        /* \"#utility.yul\":13481:13612   */\n      tag_590\n        /* \"#utility.yul\":13607:13611   */\n      dup2\n        /* \"#utility.yul\":13481:13612   */\n      tag_401\n      jump\t// in\n    tag_590:\n        /* \"#utility.yul\":13473:13612   */\n      swap1\n      pop\n        /* \"#utility.yul\":13200:13619   */\n      swap2\n      swap1\n      pop\n      jump\t// out\n        /* \"#utility.yul\":13625:13847   */\n    tag_402:\n        /* \"#utility.yul\":13765:13799   */\n      0x5472616e736665722066726f6d2066756e6374696f6e2069732064697361626c\n        /* \"#utility.yul\":13761:13762   */\n      0x00\n        /* \"#utility.yul\":13753:13759   */\n      dup3\n        /* \"#utility.yul\":13749:13763   */\n      add\n        /* \"#utility.yul\":13742:13800   */\n      mstore\n        /* \"#utility.yul\":13834:13839   */\n      0x65642e0000000000000000000000000000000000000000000000000000000000\n        /* \"#utility.yul\":13829:13831   */\n      0x20\n        /* \"#utility.yul\":13821:13827   */\n      dup3\n        /* \"#utility.yul\":13817:13832   */\n      add\n        /* \"#utility.yul\":13810:13840   */\n      mstore\n        /* \"#utility.yul\":13625:13847   */\n      pop\n      jump\t// out\n        /* \"#utility.yul\":13853:14219   */\n    tag_403:\n        /* \"#utility.yul\":13995:13998   */\n      0x00\n        /* \"#utility.yul\":14016:14083   */\n      tag_593\n        /* \"#utility.yul\":14080:14082   */\n      0x23\n        /* \"#utility.yul\":14075:14078   */\n      dup4\n        /* \"#utility.yul\":14016:14083   */\n      tag_373\n      jump\t// in\n    tag_593:\n        /* \"#utility.yul\":14009:14083   */\n      swap2\n      pop\n        /* \"#utility.yul\":14092:14185   */\n      tag_594\n        /* \"#utility.yul\":14181:14184   */\n      dup3\n        /* \"#utility.yul\":14092:14185   */\n      tag_402\n      jump\t// in\n    tag_594:\n        /* \"#utility.yul\":14210:14212   */\n      0x40\n        /* \"#utility.yul\":14205:14208   */\n      dup3\n        /* \"#utility.yul\":14201:14213   */\n      add\n        /* \"#utility.yul\":14194:14213   */\n      swap1\n      pop\n        /* \"#utility.yul\":13853:14219   */\n      swap2\n      swap1\n      pop\n      jump\t// out\n        /* \"#utility.yul\":14225:14644   */\n    tag_140:\n        /* \"#utility.yul\":14391:14395   */\n      0x00\n        /* \"#utility.yul\":14429:14431   */\n      0x20\n        /* \"#utility.yul\":14418:14427   */\n      dup3\n        /* \"#utility.yul\":14414:14432   */\n      add\n        /* \"#utility.yul\":14406:14432   */\n      swap1\n      pop\n        /* \"#utility.yul\":14478:14487   */\n      dup2\n        /* \"#utility.yul\":14472:14476   */\n      dup2\n        /* \"#utility.yul\":14468:14488   */\n      sub\n        /* \"#utility.yul\":14464:14465   */\n      0x00\n        /* \"#utility.yul\":14453:14462   */\n      dup4\n        /* \"#utility.yul\":14449:14466   */\n      add\n        /* \"#utility.yul\":14442:14489   */\n      mstore\n        /* \"#utility.yul\":14506:14637   */\n      tag_596\n        /* \"#utility.yul\":14632:14636   */\n      dup2\n        /* \"#utility.yul\":14506:14637   */\n      tag_403\n      jump\t// in\n    tag_596:\n        /* \"#utility.yul\":14498:14637   */\n      swap1\n      pop\n        /* \"#utility.yul\":14225:14644   */\n      swap2\n      swap1\n      pop\n      jump\t// out\n        /* \"#utility.yul\":14650:14826   */\n    tag_404:\n        /* \"#utility.yul\":14790:14818   */\n      0x4e6f7420656e6f7567682045544820696e20636f6e7472616374000000000000\n        /* \"#utility.yul\":14786:14787   */\n      0x00\n        /* \"#utility.yul\":14778:14784   */\n      dup3\n        /* \"#utility.yul\":14774:14788   */\n      add\n        /* \"#utility.yul\":14767:14819   */\n      mstore\n        /* \"#utility.yul\":14650:14826   */\n      pop\n      jump\t// out\n        /* \"#utility.yul\":14832:15198   */\n    tag_405:\n        /* \"#utility.yul\":14974:14977   */\n      0x00\n        /* \"#utility.yul\":14995:15062   */\n      tag_599\n        /* \"#utility.yul\":15059:15061   */\n      0x1a\n        /* \"#utility.yul\":15054:15057   */\n      dup4\n        /* \"#utility.yul\":14995:15062   */\n      tag_373\n      jump\t// in\n    tag_599:\n        /* \"#utility.yul\":14988:15062   */\n      swap2\n      pop\n        /* \"#utility.yul\":15071:15164   */\n      tag_600\n        /* \"#utility.yul\":15160:15163   */\n      dup3\n        /* \"#utility.yul\":15071:15164   */\n      tag_404\n      jump\t// in\n    tag_600:\n        /* \"#utility.yul\":15189:15191   */\n      0x20\n        /* \"#utility.yul\":15184:15187   */\n      dup3\n        /* \"#utility.yul\":15180:15192   */\n      add\n        /* \"#utility.yul\":15173:15192   */\n      swap1\n      pop\n        /* \"#utility.yul\":14832:15198   */\n      swap2\n      swap1\n      pop\n      jump\t// out\n        /* \"#utility.yul\":15204:15623   */\n    tag_146:\n        /* \"#utility.yul\":15370:15374   */\n      0x00\n        /* \"#utility.yul\":15408:15410   */\n      0x20\n        /* \"#utility.yul\":15397:15406   */\n      dup3\n        /* \"#utility.yul\":15393:15411   */\n      add\n        /* \"#utility.yul\":15385:15411   */\n      swap1\n      pop\n        /* \"#utility.yul\":15457:15466   */\n      dup2\n        /* \"#utility.yul\":15451:15455   */\n      dup2\n        /* \"#utility.yul\":15447:15467   */\n      sub\n        /* \"#utility.yul\":15443:15444   */\n      0x00\n        /* \"#utility.yul\":15432:15441   */\n      dup4\n        /* \"#utility.yul\":15428:15445   */\n      add\n        /* \"#utility.yul\":15421:15468   */\n      mstore\n        /* \"#utility.yul\":15485:15616   */\n      tag_602\n        /* \"#utility.yul\":15611:15615   */\n      dup2\n        /* \"#utility.yul\":15485:15616   */\n      tag_405\n      jump\t// in\n    tag_602:\n        /* \"#utility.yul\":15477:15616   */\n      swap1\n      pop\n        /* \"#utility.yul\":15204:15623   */\n      swap2\n      swap1\n      pop\n      jump\t// out\n        /* \"#utility.yul\":15629:15809   */\n    tag_406:\n        /* \"#utility.yul\":15677:15754   */\n      0x4e487b7100000000000000000000000000000000000000000000000000000000\n        /* \"#utility.yul\":15674:15675   */\n      0x00\n        /* \"#utility.yul\":15667:15755   */\n      mstore\n        /* \"#utility.yul\":15774:15778   */\n      0x11\n        /* \"#utility.yul\":15771:15772   */\n      0x04\n        /* \"#utility.yul\":15764:15779   */\n      mstore\n        /* \"#utility.yul\":15798:15802   */\n      0x24\n        /* \"#utility.yul\":15795:15796   */\n      0x00\n        /* \"#utility.yul\":15788:15803   */\n      revert\n        /* \"#utility.yul\":15815:16048   */\n    tag_152:\n        /* \"#utility.yul\":15854:15857   */\n      0x00\n        /* \"#utility.yul\":15877:15901   */\n      tag_605\n        /* \"#utility.yul\":15895:15900   */\n      dup3\n        /* \"#utility.yul\":15877:15901   */\n      tag_377\n      jump\t// in\n    tag_605:\n        /* \"#utility.yul\":15868:15901   */\n      swap2\n      pop\n        /* \"#utility.yul\":15923:15989   */\n      0xffffffffffffffffffffffffffffffffffffffffffffffffffffffffffffffff\n        /* \"#utility.yul\":15916:15921   */\n      dup3\n        /* \"#utility.yul\":15913:15990   */\n      sub\n        /* \"#utility.yul\":15910:16013   */\n      tag_606\n      jumpi\n        /* \"#utility.yul\":15993:16011   */\n      tag_607\n      tag_406\n      jump\t// in\n    tag_607:\n        /* \"#utility.yul\":15910:16013   */\n    tag_606:\n        /* \"#utility.yul\":16040:16041   */\n      0x01\n        /* \"#utility.yul\":16033:16038   */\n      dup3\n        /* \"#utility.yul\":16029:16042   */\n      add\n        /* \"#utility.yul\":16022:16042   */\n      swap1\n      pop\n        /* \"#utility.yul\":15815:16048   */\n      swap2\n      swap1\n      pop\n      jump\t// out\n        /* \"#utility.yul\":16054:16201   */\n    tag_407:\n        /* \"#utility.yul\":16155:16166   */\n      0x00\n        /* \"#utility.yul\":16192:16195   */\n      dup2\n        /* \"#utility.yul\":16177:16195   */\n      swap1\n      pop\n        /* \"#utility.yul\":16054:16201   */\n      swap3\n      swap2\n      pop\n      pop\n      jump\t// out\n        /* \"#utility.yul\":16207:16321   */\n    tag_408:\n      pop\n      jump\t// out\n        /* \"#utility.yul\":16327:16725   */\n    tag_409:\n        /* \"#utility.yul\":16486:16489   */\n      0x00\n        /* \"#utility.yul\":16507:16590   */\n      tag_611\n        /* \"#utility.yul\":16588:16589   */\n      0x00\n        /* \"#utility.yul\":16583:16586   */\n      dup4\n        /* \"#utility.yul\":16507:16590   */\n      tag_407\n      jump\t// in\n    tag_611:\n        /* \"#utility.yul\":16500:16590   */\n      swap2\n      pop\n        /* \"#utility.yul\":16599:16692   */\n      tag_612\n        /* \"#utility.yul\":16688:16691   */\n      dup3\n        /* \"#utility.yul\":16599:16692   */\n      tag_408\n      jump\t// in\n    tag_612:\n        /* \"#utility.yul\":16717:16718   */\n      0x00\n        /* \"#utility.yul\":16712:16715   */\n      dup3\n        /* \"#utility.yul\":16708:16719   */\n      add\n        /* \"#utility.yul\":16701:16719   */\n      swap1\n      pop\n        /* \"#utility.yul\":16327:16725   */\n      swap2\n      swap1\n      pop\n      jump\t// out\n        /* \"#utility.yul\":16731:17110   */\n    tag_154:\n        /* \"#utility.yul\":16915:16918   */\n      0x00\n        /* \"#utility.yul\":16937:17084   */\n      tag_614\n        /* \"#utility.yul\":17080:17083   */\n      dup3\n        /* \"#utility.yul\":16937:17084   */\n      tag_409\n      jump\t// in\n    tag_614:\n        /* \"#utility.yul\":16930:17084   */\n      swap2\n      pop\n        /* \"#utility.yul\":17101:17104   */\n      dup2\n        /* \"#utility.yul\":17094:17104   */\n      swap1\n      pop\n        /* \"#utility.yul\":16731:17110   */\n      swap2\n      swap1\n      pop\n      jump\t// out\n        /* \"#utility.yul\":17116:17286   */\n    tag_410:\n        /* \"#utility.yul\":17256:17278   */\n      0x4661696c656420746f2073656e64204574686572000000000000000000000000\n        /* \"#utility.yul\":17252:17253   */\n      0x00\n        /* \"#utility.yul\":17244:17250   */\n      dup3\n        /* \"#utility.yul\":17240:17254   */\n      add\n        /* \"#utility.yul\":17233:17279   */\n      mstore\n        /* \"#utility.yul\":17116:17286   */\n      pop\n      jump\t// out\n        /* \"#utility.yul\":17292:17658   */\n    tag_411:\n        /* \"#utility.yul\":17434:17437   */\n      0x00\n        /* \"#utility.yul\":17455:17522   */\n      tag_617\n        /* \"#utility.yul\":17519:17521   */\n      0x14\n        /* \"#utility.yul\":17514:17517   */\n      dup4\n        /* \"#utility.yul\":17455:17522   */\n      tag_373\n      jump\t// in\n    tag_617:\n        /* \"#utility.yul\":17448:17522   */\n      swap2\n      pop\n        /* \"#utility.yul\":17531:17624   */\n      tag_618\n        /* \"#utility.yul\":17620:17623   */\n      dup3\n        /* \"#utility.yul\":17531:17624   */\n      tag_410\n      jump\t// in\n    tag_618:\n        /* \"#utility.yul\":17649:17651   */\n      0x20\n        /* \"#utility.yul\":17644:17647   */\n      dup3\n        /* \"#utility.yul\":17640:17652   */\n      add\n        /* \"#utility.yul\":17633:17652   */\n      swap1\n      pop\n        /* \"#utility.yul\":17292:17658   */\n      swap2\n      swap1\n      pop\n      jump\t// out\n        /* \"#utility.yul\":17664:18083   */\n    tag_160:\n        /* \"#utility.yul\":17830:17834   */\n      0x00\n        /* \"#utility.yul\":17868:17870   */\n      0x20\n        /* \"#utility.yul\":17857:17866   */\n      dup3\n        /* \"#utility.yul\":17853:17871   */\n      add\n        /* \"#utility.yul\":17845:17871   */\n      swap1\n      pop\n        /* \"#utility.yul\":17917:17926   */\n      dup2\n        /* \"#utility.yul\":17911:17915   */\n      dup2\n        /* \"#utility.yul\":17907:17927   */\n      sub\n        /* \"#utility.yul\":17903:17904   */\n      0x00\n        /* \"#utility.yul\":17892:17901   */\n      dup4\n        /* \"#utility.yul\":17888:17905   */\n      add\n        /* \"#utility.yul\":17881:17928   */\n      mstore\n        /* \"#utility.yul\":17945:18076   */\n      tag_620\n        /* \"#utility.yul\":18071:18075   */\n      dup2\n        /* \"#utility.yul\":17945:18076   */\n      tag_411\n      jump\t// in\n    tag_620:\n        /* \"#utility.yul\":17937:18076   */\n      swap1\n      pop\n        /* \"#utility.yul\":17664:18083   */\n      swap2\n      swap1\n      pop\n      jump\t// out\n        /* \"#utility.yul\":18089:18309   */\n    tag_412:\n        /* \"#utility.yul\":18229:18263   */\n      0x52656e6f756e63696e67206f776e6572736869702069732064697361626c6564\n        /* \"#utility.yul\":18225:18226   */\n      0x00\n        /* \"#utility.yul\":18217:18223   */\n      dup3\n        /* \"#utility.yul\":18213:18227   */\n      add\n        /* \"#utility.yul\":18206:18264   */\n      mstore\n        /* \"#utility.yul\":18298:18301   */\n      0x2e00000000000000000000000000000000000000000000000000000000000000\n        /* \"#utility.yul\":18293:18295   */\n      0x20\n        /* \"#utility.yul\":18285:18291   */\n      dup3\n        /* \"#utility.yul\":18281:18296   */\n      add\n        /* \"#utility.yul\":18274:18302   */\n      mstore\n        /* \"#utility.yul\":18089:18309   */\n      pop\n      jump\t// out\n        /* \"#utility.yul\":18315:18681   */\n    tag_413:\n        /* \"#utility.yul\":18457:18460   */\n      0x00\n        /* \"#utility.yul\":18478:18545   */\n      tag_623\n        /* \"#utility.yul\":18542:18544   */\n      0x21\n        /* \"#utility.yul\":18537:18540   */\n      dup4\n        /* \"#utility.yul\":18478:18545   */\n      tag_373\n      jump\t// in\n    tag_623:\n        /* \"#utility.yul\":18471:18545   */\n      swap2\n      pop\n        /* \"#utility.yul\":18554:18647   */\n      tag_624\n        /* \"#utility.yul\":18643:18646   */\n      dup3\n        /* \"#utility.yul\":18554:18647   */\n      tag_412\n      jump\t// in\n    tag_624:\n        /* \"#utility.yul\":18672:18674   */\n      0x40\n        /* \"#utility.yul\":18667:18670   */\n      dup3\n        /* \"#utility.yul\":18663:18675   */\n      add\n        /* \"#utility.yul\":18656:18675   */\n      swap1\n      pop\n        /* \"#utility.yul\":18315:18681   */\n      swap2\n      swap1\n      pop\n      jump\t// out\n        /* \"#utility.yul\":18687:19106   */\n    tag_174:\n        /* \"#utility.yul\":18853:18857   */\n      0x00\n        /* \"#utility.yul\":18891:18893   */\n      0x20\n        /* \"#utility.yul\":18880:18889   */\n      dup3\n        /* \"#utility.yul\":18876:18894   */\n      add\n        /* \"#utility.yul\":18868:18894   */\n      swap1\n      pop\n        /* \"#utility.yul\":18940:18949   */\n      dup2\n        /* \"#utility.yul\":18934:18938   */\n      dup2\n        /* \"#utility.yul\":18930:18950   */\n      sub\n        /* \"#utility.yul\":18926:18927   */\n      0x00\n        /* \"#utility.yul\":18915:18924   */\n      dup4\n        /* \"#utility.yul\":18911:18928   */\n      add\n        /* \"#utility.yul\":18904:18951   */\n      mstore\n        /* \"#utility.yul\":18968:19099   */\n      tag_626\n        /* \"#utility.yul\":19094:19098   */\n      dup2\n        /* \"#utility.yul\":18968:19099   */\n      tag_413\n      jump\t// in\n    tag_626:\n        /* \"#utility.yul\":18960:19099   */\n      swap1\n      pop\n        /* \"#utility.yul\":18687:19106   */\n      swap2\n      swap1\n      pop\n      jump\t// out\n        /* \"#utility.yul\":19112:19341   */\n    tag_414:\n        /* \"#utility.yul\":19252:19286   */\n      0x53657420617070726f76616c20666f7220616c6c2066756e6374696f6e206973\n        /* \"#utility.yul\":19248:19249   */\n      0x00\n        /* \"#utility.yul\":19240:19246   */\n      dup3\n        /* \"#utility.yul\":19236:19250   */\n      add\n        /* \"#utility.yul\":19229:19287   */\n      mstore\n        /* \"#utility.yul\":19321:19333   */\n      0x2064697361626c65642e00000000000000000000000000000000000000000000\n        /* \"#utility.yul\":19316:19318   */\n      0x20\n        /* \"#utility.yul\":19308:19314   */\n      dup3\n        /* \"#utility.yul\":19304:19319   */\n      add\n        /* \"#utility.yul\":19297:19334   */\n      mstore\n        /* \"#utility.yul\":19112:19341   */\n      pop\n      jump\t// out\n        /* \"#utility.yul\":19347:19713   */\n    tag_415:\n        /* \"#utility.yul\":19489:19492   */\n      0x00\n        /* \"#utility.yul\":19510:19577   */\n      tag_629\n        /* \"#utility.yul\":19574:19576   */\n      0x2a\n        /* \"#utility.yul\":19569:19572   */\n      dup4\n        /* \"#utility.yul\":19510:19577   */\n      tag_373\n      jump\t// in\n    tag_629:\n        /* \"#utility.yul\":19503:19577   */\n      swap2\n      pop\n        /* \"#utility.yul\":19586:19679   */\n      tag_630\n        /* \"#utility.yul\":19675:19678   */\n      dup3\n        /* \"#utility.yul\":19586:19679   */\n      tag_414\n      jump\t// in\n    tag_630:\n        /* \"#utility.yul\":19704:19706   */\n      0x40\n        /* \"#utility.yul\":19699:19702   */\n      dup3\n        /* \"#utility.yul\":19695:19707   */\n      add\n        /* \"#utility.yul\":19688:19707   */\n      swap1\n      pop\n        /* \"#utility.yul\":19347:19713   */\n      swap2\n      swap1\n      pop\n      jump\t// out\n        /* \"#utility.yul\":19719:20138   */\n    tag_186:\n        /* \"#utility.yul\":19885:19889   */\n      0x00\n        /* \"#utility.yul\":19923:19925   */\n      0x20\n        /* \"#utility.yul\":19912:19921   */\n      dup3\n        /* \"#utility.yul\":19908:19926   */\n      add\n        /* \"#utility.yul\":19900:19926   */\n      swap1\n      pop\n        /* \"#utility.yul\":19972:19981   */\n      dup2\n        /* \"#utility.yul\":19966:19970   */\n      dup2\n        /* \"#utility.yul\":19962:19982   */\n      sub\n        /* \"#utility.yul\":19958:19959   */\n      0x00\n        /* \"#utility.yul\":19947:19956   */\n      dup4\n        /* \"#utility.yul\":19943:19960   */\n      add\n        /* \"#utility.yul\":19936:19983   */\n      mstore\n        /* \"#utility.yul\":20000:20131   */\n      tag_632\n        /* \"#utility.yul\":20126:20130   */\n      dup2\n        /* \"#utility.yul\":20000:20131   */\n      tag_415\n      jump\t// in\n    tag_632:\n        /* \"#utility.yul\":19992:20131   */\n      swap1\n      pop\n        /* \"#utility.yul\":19719:20138   */\n      swap2\n      swap1\n      pop\n      jump\t// out\n        /* \"#utility.yul\":20144:20292   */\n    tag_416:\n        /* \"#utility.yul\":20246:20257   */\n      0x00\n        /* \"#utility.yul\":20283:20286   */\n      dup2\n        /* \"#utility.yul\":20268:20286   */\n      swap1\n      pop\n        /* \"#utility.yul\":20144:20292   */\n      swap3\n      swap2\n      pop\n      pop\n      jump\t// out\n        /* \"#utility.yul\":20298:20688   */\n    tag_417:\n        /* \"#utility.yul\":20404:20407   */\n      0x00\n        /* \"#utility.yul\":20432:20471   */\n      tag_635\n        /* \"#utility.yul\":20465:20470   */\n      dup3\n        /* \"#utility.yul\":20432:20471   */\n      tag_372\n      jump\t// in\n    tag_635:\n        /* \"#utility.yul\":20487:20576   */\n      tag_636\n        /* \"#utility.yul\":20569:20575   */\n      dup2\n        /* \"#utility.yul\":20564:20567   */\n      dup6\n        /* \"#utility.yul\":20487:20576   */\n      tag_416\n      jump\t// in\n    tag_636:\n        /* \"#utility.yul\":20480:20576   */\n      swap4\n      pop\n        /* \"#utility.yul\":20585:20650   */\n      tag_637\n        /* \"#utility.yul\":20643:20649   */\n      dup2\n        /* \"#utility.yul\":20638:20641   */\n      dup6\n        /* \"#utility.yul\":20631:20635   */\n      0x20\n        /* \"#utility.yul\":20624:20629   */\n      dup7\n        /* \"#utility.yul\":20620:20636   */\n      add\n        /* \"#utility.yul\":20585:20650   */\n      tag_374\n      jump\t// in\n    tag_637:\n        /* \"#utility.yul\":20675:20681   */\n      dup1\n        /* \"#utility.yul\":20670:20673   */\n      dup5\n        /* \"#utility.yul\":20666:20682   */\n      add\n        /* \"#utility.yul\":20659:20682   */\n      swap2\n      pop\n        /* \"#utility.yul\":20408:20688   */\n      pop\n        /* \"#utility.yul\":20298:20688   */\n      swap3\n      swap2\n      pop\n      pop\n      jump\t// out\n        /* \"#utility.yul\":20694:21129   */\n    tag_203:\n        /* \"#utility.yul\":20874:20877   */\n      0x00\n        /* \"#utility.yul\":20896:20991   */\n      tag_639\n        /* \"#utility.yul\":20987:20990   */\n      dup3\n        /* \"#utility.yul\":20978:20984   */\n      dup6\n        /* \"#utility.yul\":20896:20991   */\n      tag_417\n      jump\t// in\n    tag_639:\n        /* \"#utility.yul\":20889:20991   */\n      swap2\n      pop\n        /* \"#utility.yul\":21008:21103   */\n      tag_640\n        /* \"#utility.yul\":21099:21102   */\n      dup3\n        /* \"#utility.yul\":21090:21096   */\n      dup5\n        /* \"#utility.yul\":21008:21103   */\n      tag_417\n      jump\t// in\n    tag_640:\n        /* \"#utility.yul\":21001:21103   */\n      swap2\n      pop\n        /* \"#utility.yul\":21120:21123   */\n      dup2\n        /* \"#utility.yul\":21113:21123   */\n      swap1\n      pop\n        /* \"#utility.yul\":20694:21129   */\n      swap4\n      swap3\n      pop\n      pop\n      pop\n      jump\t// out\n        /* \"#utility.yul\":21135:21362   */\n    tag_418:\n        /* \"#utility.yul\":21275:21309   */\n      0x5472616e73666572206f776e6572736869702066756e6374696f6e2069732064\n        /* \"#utility.yul\":21271:21272   */\n      0x00\n        /* \"#utility.yul\":21263:21269   */\n      dup3\n        /* \"#utility.yul\":21259:21273   */\n      add\n        /* \"#utility.yul\":21252:21310   */\n      mstore\n        /* \"#utility.yul\":21344:21354   */\n      0x697361626c65642e000000000000000000000000000000000000000000000000\n        /* \"#utility.yul\":21339:21341   */\n      0x20\n        /* \"#utility.yul\":21331:21337   */\n      dup3\n        /* \"#utility.yul\":21327:21342   */\n      add\n        /* \"#utility.yul\":21320:21355   */\n      mstore\n        /* \"#utility.yul\":21135:21362   */\n      pop\n      jump\t// out\n        /* \"#utility.yul\":21368:21734   */\n    tag_419:\n        /* \"#utility.yul\":21510:21513   */\n      0x00\n        /* \"#utility.yul\":21531:21598   */\n      tag_643\n        /* \"#utility.yul\":21595:21597   */\n      0x28\n        /* \"#utility.yul\":21590:21593   */\n      dup4\n        /* \"#utility.yul\":21531:21598   */\n      tag_373\n      jump\t// in\n    tag_643:\n        /* \"#utility.yul\":21524:21598   */\n      swap2\n      pop\n        /* \"#utility.yul\":21607:21700   */\n      tag_644\n        /* \"#utility.yul\":21696:21699   */\n      dup3\n        /* \"#utility.yul\":21607:21700   */\n      tag_418\n      jump\t// in\n    tag_644:\n        /* \"#utility.yul\":21725:21727   */\n      0x40\n        /* \"#utility.yul\":21720:21723   */\n      dup3\n        /* \"#utility.yul\":21716:21728   */\n      add\n        /* \"#utility.yul\":21709:21728   */\n      swap1\n      pop\n        /* \"#utility.yul\":21368:21734   */\n      swap2\n      swap1\n      pop\n      jump\t// out\n        /* \"#utility.yul\":21740:22159   */\n    tag_214:\n        /* \"#utility.yul\":21906:21910   */\n      0x00\n        /* \"#utility.yul\":21944:21946   */\n      0x20\n        /* \"#utility.yul\":21933:21942   */\n      dup3\n        /* \"#utility.yul\":21929:21947   */\n      add\n        /* \"#utility.yul\":21921:21947   */\n      swap1\n      pop\n        /* \"#utility.yul\":21993:22002   */\n      dup2\n        /* \"#utility.yul\":21987:21991   */\n      dup2\n        /* \"#utility.yul\":21983:22003   */\n      sub\n        /* \"#utility.yul\":21979:21980   */\n      0x00\n        /* \"#utility.yul\":21968:21977   */\n      dup4\n        /* \"#utility.yul\":21964:21981   */\n      add\n        /* \"#utility.yul\":21957:22004   */\n      mstore\n        /* \"#utility.yul\":22021:22152   */\n      tag_646\n        /* \"#utility.yul\":22147:22151   */\n      dup2\n        /* \"#utility.yul\":22021:22152   */\n      tag_419\n      jump\t// in\n    tag_646:\n        /* \"#utility.yul\":22013:22152   */\n      swap1\n      pop\n        /* \"#utility.yul\":21740:22159   */\n      swap2\n      swap1\n      pop\n      jump\t// out\n        /* \"#utility.yul\":22165:22306   */\n    tag_420:\n        /* \"#utility.yul\":22214:22218   */\n      0x00\n        /* \"#utility.yul\":22237:22240   */\n      dup2\n        /* \"#utility.yul\":22229:22240   */\n      swap1\n      pop\n        /* \"#utility.yul\":22260:22263   */\n      dup2\n        /* \"#utility.yul\":22257:22258   */\n      0x00\n        /* \"#utility.yul\":22250:22264   */\n      mstore\n        /* \"#utility.yul\":22294:22298   */\n      0x20\n        /* \"#utility.yul\":22291:22292   */\n      0x00\n        /* \"#utility.yul\":22281:22299   */\n      keccak256\n        /* \"#utility.yul\":22273:22299   */\n      swap1\n      pop\n        /* \"#utility.yul\":22165:22306   */\n      swap2\n      swap1\n      pop\n      jump\t// out\n        /* \"#utility.yul\":22312:22405   */\n    tag_421:\n        /* \"#utility.yul\":22349:22355   */\n      0x00\n        /* \"#utility.yul\":22396:22398   */\n      0x20\n        /* \"#utility.yul\":22391:22393   */\n      0x1f\n        /* \"#utility.yul\":22384:22389   */\n      dup4\n        /* \"#utility.yul\":22380:22394   */\n      add\n        /* \"#utility.yul\":22376:22399   */\n      div\n        /* \"#utility.yul\":22366:22399   */\n      swap1\n      pop\n        /* \"#utility.yul\":22312:22405   */\n      swap2\n      swap1\n      pop\n      jump\t// out\n        /* \"#utility.yul\":22411:22518   */\n    tag_422:\n        /* \"#utility.yul\":22455:22463   */\n      0x00\n        /* \"#utility.yul\":22505:22510   */\n      dup3\n        /* \"#utility.yul\":22499:22503   */\n      dup3\n        /* \"#utility.yul\":22495:22511   */\n      shl\n        /* \"#utility.yul\":22474:22511   */\n      swap1\n      pop\n        /* \"#utility.yul\":22411:22518   */\n      swap3\n      swap2\n      pop\n      pop\n      jump\t// out\n        /* \"#utility.yul\":22524:22917   */\n    tag_423:\n        /* \"#utility.yul\":22593:22599   */\n      0x00\n        /* \"#utility.yul\":22643:22644   */\n      0x08\n        /* \"#utility.yul\":22631:22641   */\n      dup4\n        /* \"#utility.yul\":22627:22645   */\n      mul\n        /* \"#utility.yul\":22666:22763   */\n      tag_651\n        /* \"#utility.yul\":22696:22762   */\n      0xffffffffffffffffffffffffffffffffffffffffffffffffffffffffffffffff\n        /* \"#utility.yul\":22685:22694   */\n      dup3\n        /* \"#utility.yul\":22666:22763   */\n      tag_422\n      jump\t// in\n    tag_651:\n        /* \"#utility.yul\":22784:22823   */\n      tag_652\n        /* \"#utility.yul\":22814:22822   */\n      dup7\n        /* \"#utility.yul\":22803:22812   */\n      dup4\n        /* \"#utility.yul\":22784:22823   */\n      tag_422\n      jump\t// in\n    tag_652:\n        /* \"#utility.yul\":22772:22823   */\n      swap6\n      pop\n        /* \"#utility.yul\":22856:22860   */\n      dup1\n        /* \"#utility.yul\":22852:22861   */\n      not\n        /* \"#utility.yul\":22845:22850   */\n      dup5\n        /* \"#utility.yul\":22841:22862   */\n      and\n        /* \"#utility.yul\":22832:22862   */\n      swap4\n      pop\n        /* \"#utility.yul\":22905:22909   */\n      dup1\n        /* \"#utility.yul\":22895:22903   */\n      dup7\n        /* \"#utility.yul\":22891:22910   */\n      and\n        /* \"#utility.yul\":22884:22889   */\n      dup5\n        /* \"#utility.yul\":22881:22911   */\n      or\n        /* \"#utility.yul\":22871:22911   */\n      swap3\n      pop\n        /* \"#utility.yul\":22600:22917   */\n      pop\n      pop\n        /* \"#utility.yul\":22524:22917   */\n      swap4\n      swap3\n      pop\n      pop\n      pop\n      jump\t// out\n        /* \"#utility.yul\":22923:22983   */\n    tag_424:\n        /* \"#utility.yul\":22951:22954   */\n      0x00\n        /* \"#utility.yul\":22972:22977   */\n      dup2\n        /* \"#utility.yul\":22965:22977   */\n      swap1\n      pop\n        /* \"#utility.yul\":22923:22983   */\n      swap2\n      swap1\n      pop\n      jump\t// out\n        /* \"#utility.yul\":22989:23131   */\n    tag_425:\n        /* \"#utility.yul\":23039:23048   */\n      0x00\n        /* \"#utility.yul\":23072:23125   */\n      tag_655\n        /* \"#utility.yul\":23090:23124   */\n      tag_656\n        /* \"#utility.yul\":23099:23123   */\n      tag_657\n        /* \"#utility.yul\":23117:23122   */\n      dup5\n        /* \"#utility.yul\":23099:23123   */\n      tag_377\n      jump\t// in\n    tag_657:\n        /* \"#utility.yul\":23090:23124   */\n      tag_424\n      jump\t// in\n    tag_656:\n        /* \"#utility.yul\":23072:23125   */\n      tag_377\n      jump\t// in\n    tag_655:\n        /* \"#utility.yul\":23059:23125   */\n      swap1\n      pop\n        /* \"#utility.yul\":22989:23131   */\n      swap2\n      swap1\n      pop\n      jump\t// out\n        /* \"#utility.yul\":23137:23212   */\n    tag_426:\n        /* \"#utility.yul\":23180:23183   */\n      0x00\n        /* \"#utility.yul\":23201:23206   */\n      dup2\n        /* \"#utility.yul\":23194:23206   */\n      swap1\n      pop\n        /* \"#utility.yul\":23137:23212   */\n      swap2\n      swap1\n      pop\n      jump\t// out\n        /* \"#utility.yul\":23218:23487   */\n    tag_427:\n        /* \"#utility.yul\":23328:23367   */\n      tag_660\n        /* \"#utility.yul\":23359:23366   */\n      dup4\n        /* \"#utility.yul\":23328:23367   */\n      tag_425\n      jump\t// in\n    tag_660:\n        /* \"#utility.yul\":23389:23480   */\n      tag_661\n        /* \"#utility.yul\":23438:23479   */\n      tag_662\n        /* \"#utility.yul\":23462:23478   */\n      dup3\n        /* \"#utility.yul\":23438:23479   */\n      tag_426\n      jump\t// in\n    tag_662:\n        /* \"#utility.yul\":23430:23436   */\n      dup5\n        /* \"#utility.yul\":23423:23427   */\n      dup5\n        /* \"#utility.yul\":23417:23428   */\n      sload\n        /* \"#utility.yul\":23389:23480   */\n      tag_423\n      jump\t// in\n    tag_661:\n        /* \"#utility.yul\":23383:23387   */\n      dup3\n        /* \"#utility.yul\":23376:23481   */\n      sstore\n        /* \"#utility.yul\":23294:23487   */\n      pop\n        /* \"#utility.yul\":23218:23487   */\n      pop\n      pop\n      pop\n      jump\t// out\n        /* \"#utility.yul\":23493:23566   */\n    tag_428:\n        /* \"#utility.yul\":23538:23541   */\n      0x00\n        /* \"#utility.yul\":23493:23566   */\n      swap1\n      jump\t// out\n        /* \"#utility.yul\":23572:23761   */\n    tag_429:\n        /* \"#utility.yul\":23649:23681   */\n      tag_665\n      tag_428\n      jump\t// in\n    tag_665:\n        /* \"#utility.yul\":23690:23755   */\n      tag_666\n        /* \"#utility.yul\":23748:23754   */\n      dup2\n        /* \"#utility.yul\":23740:23746   */\n      dup5\n        /* \"#utility.yul\":23734:23738   */\n      dup5\n        /* \"#utility.yul\":23690:23755   */\n      tag_427\n      jump\t// in\n    tag_666:\n        /* \"#utility.yul\":23625:23761   */\n      pop\n        /* \"#utility.yul\":23572:23761   */\n      pop\n      pop\n      jump\t// out\n        /* \"#utility.yul\":23767:23953   */\n    tag_430:\n        /* \"#utility.yul\":23827:23947   */\n    tag_668:\n        /* \"#utility.yul\":23844:23847   */\n      dup2\n        /* \"#utility.yul\":23837:23842   */\n      dup2\n        /* \"#utility.yul\":23834:23848   */\n      lt\n        /* \"#utility.yul\":23827:23947   */\n      iszero\n      tag_670\n      jumpi\n        /* \"#utility.yul\":23898:23937   */\n      tag_671\n        /* \"#utility.yul\":23935:23936   */\n      0x00\n        /* \"#utility.yul\":23928:23933   */\n      dup3\n        /* \"#utility.yul\":23898:23937   */\n      tag_429\n      jump\t// in\n    tag_671:\n        /* \"#utility.yul\":23871:23872   */\n      0x01\n        /* \"#utility.yul\":23864:23869   */\n      dup2\n        /* \"#utility.yul\":23860:23873   */\n      add\n        /* \"#utility.yul\":23851:23873   */\n      swap1\n      pop\n        /* \"#utility.yul\":23827:23947   */\n      jump(tag_668)\n    tag_670:\n        /* \"#utility.yul\":23767:23953   */\n      pop\n      pop\n      jump\t// out\n        /* \"#utility.yul\":23959:24502   */\n    tag_431:\n        /* \"#utility.yul\":24060:24062   */\n      0x1f\n        /* \"#utility.yul\":24055:24058   */\n      dup3\n        /* \"#utility.yul\":24052:24063   */\n      gt\n        /* \"#utility.yul\":24049:24495   */\n      iszero\n      tag_673\n      jumpi\n        /* \"#utility.yul\":24094:24132   */\n      tag_674\n        /* \"#utility.yul\":24126:24131   */\n      dup2\n        /* \"#utility.yul\":24094:24132   */\n      tag_420\n      jump\t// in\n    tag_674:\n        /* \"#utility.yul\":24178:24207   */\n      tag_675\n        /* \"#utility.yul\":24196:24206   */\n      dup5\n        /* \"#utility.yul\":24178:24207   */\n      tag_421\n      jump\t// in\n    tag_675:\n        /* \"#utility.yul\":24168:24176   */\n      dup2\n        /* \"#utility.yul\":24164:24208   */\n      add\n        /* \"#utility.yul\":24361:24363   */\n      0x20\n        /* \"#utility.yul\":24349:24359   */\n      dup6\n        /* \"#utility.yul\":24346:24364   */\n      lt\n        /* \"#utility.yul\":24343:24392   */\n      iszero\n      tag_676\n      jumpi\n        /* \"#utility.yul\":24382:24390   */\n      dup2\n        /* \"#utility.yul\":24367:24390   */\n      swap1\n      pop\n        /* \"#utility.yul\":24343:24392   */\n    tag_676:\n        /* \"#utility.yul\":24405:24485   */\n      tag_677\n        /* \"#utility.yul\":24461:24483   */\n      tag_678\n        /* \"#utility.yul\":24479:24482   */\n      dup6\n        /* \"#utility.yul\":24461:24483   */\n      tag_421\n      jump\t// in\n    tag_678:\n        /* \"#utility.yul\":24451:24459   */\n      dup4\n        /* \"#utility.yul\":24447:24484   */\n      add\n        /* \"#utility.yul\":24434:24445   */\n      dup3\n        /* \"#utility.yul\":24405:24485   */\n      tag_430\n      jump\t// in\n    tag_677:\n        /* \"#utility.yul\":24064:24495   */\n      pop\n      pop\n        /* \"#utility.yul\":24049:24495   */\n    tag_673:\n        /* \"#utility.yul\":23959:24502   */\n      pop\n      pop\n      pop\n      jump\t// out\n        /* \"#utility.yul\":24508:24625   */\n    tag_432:\n        /* \"#utility.yul\":24562:24570   */\n      0x00\n        /* \"#utility.yul\":24612:24617   */\n      dup3\n        /* \"#utility.yul\":24606:24610   */\n      dup3\n        /* \"#utility.yul\":24602:24618   */\n      shr\n        /* \"#utility.yul\":24581:24618   */\n      swap1\n      pop\n        /* \"#utility.yul\":24508:24625   */\n      swap3\n      swap2\n      pop\n      pop\n      jump\t// out\n        /* \"#utility.yul\":24631:24800   */\n    tag_433:\n        /* \"#utility.yul\":24675:24681   */\n      0x00\n        /* \"#utility.yul\":24708:24759   */\n      tag_681\n        /* \"#utility.yul\":24756:24757   */\n      0x00\n        /* \"#utility.yul\":24752:24758   */\n      not\n        /* \"#utility.yul\":24744:24749   */\n      dup5\n        /* \"#utility.yul\":24741:24742   */\n      0x08\n        /* \"#utility.yul\":24737:24750   */\n      mul\n        /* \"#utility.yul\":24708:24759   */\n      tag_432\n      jump\t// in\n    tag_681:\n        /* \"#utility.yul\":24704:24760   */\n      not\n        /* \"#utility.yul\":24789:24793   */\n      dup1\n        /* \"#utility.yul\":24783:24787   */\n      dup4\n        /* \"#utility.yul\":24779:24794   */\n      and\n        /* \"#utility.yul\":24769:24794   */\n      swap2\n      pop\n        /* \"#utility.yul\":24682:24800   */\n      pop\n        /* \"#utility.yul\":24631:24800   */\n      swap3\n      swap2\n      pop\n      pop\n      jump\t// out\n        /* \"#utility.yul\":24805:25100   */\n    tag_434:\n        /* \"#utility.yul\":24881:24885   */\n      0x00\n        /* \"#utility.yul\":25027:25056   */\n      tag_683\n        /* \"#utility.yul\":25052:25055   */\n      dup4\n        /* \"#utility.yul\":25046:25050   */\n      dup4\n        /* \"#utility.yul\":25027:25056   */\n      tag_433\n      jump\t// in\n    tag_683:\n        /* \"#utility.yul\":25019:25056   */\n      swap2\n      pop\n        /* \"#utility.yul\":25089:25092   */\n      dup3\n        /* \"#utility.yul\":25086:25087   */\n      0x02\n        /* \"#utility.yul\":25082:25093   */\n      mul\n        /* \"#utility.yul\":25076:25080   */\n      dup3\n        /* \"#utility.yul\":25073:25094   */\n      or\n        /* \"#utility.yul\":25065:25094   */\n      swap1\n      pop\n        /* \"#utility.yul\":24805:25100   */\n      swap3\n      swap2\n      pop\n      pop\n      jump\t// out\n        /* \"#utility.yul\":25105:26500   */\n    tag_238:\n        /* \"#utility.yul\":25222:25259   */\n      tag_685\n        /* \"#utility.yul\":25255:25258   */\n      dup3\n        /* \"#utility.yul\":25222:25259   */\n      tag_372\n      jump\t// in\n    tag_685:\n        /* \"#utility.yul\":25324:25342   */\n      0xffffffffffffffff\n        /* \"#utility.yul\":25316:25322   */\n      dup2\n        /* \"#utility.yul\":25313:25343   */\n      gt\n        /* \"#utility.yul\":25310:25366   */\n      iszero\n      tag_686\n      jumpi\n        /* \"#utility.yul\":25346:25364   */\n      tag_687\n      tag_296\n      jump\t// in\n    tag_687:\n        /* \"#utility.yul\":25310:25366   */\n    tag_686:\n        /* \"#utility.yul\":25390:25428   */\n      tag_688\n        /* \"#utility.yul\":25422:25426   */\n      dup3\n        /* \"#utility.yul\":25416:25427   */\n      sload\n        /* \"#utility.yul\":25390:25428   */\n      tag_120\n      jump\t// in\n    tag_688:\n        /* \"#utility.yul\":25475:25542   */\n      tag_689\n        /* \"#utility.yul\":25535:25541   */\n      dup3\n        /* \"#utility.yul\":25527:25533   */\n      dup3\n        /* \"#utility.yul\":25521:25525   */\n      dup6\n        /* \"#utility.yul\":25475:25542   */\n      tag_431\n      jump\t// in\n    tag_689:\n        /* \"#utility.yul\":25569:25570   */\n      0x00\n        /* \"#utility.yul\":25593:25597   */\n      0x20\n        /* \"#utility.yul\":25580:25597   */\n      swap1\n      pop\n        /* \"#utility.yul\":25625:25627   */\n      0x1f\n        /* \"#utility.yul\":25617:25623   */\n      dup4\n        /* \"#utility.yul\":25614:25628   */\n      gt\n        /* \"#utility.yul\":25642:25643   */\n      0x01\n        /* \"#utility.yul\":25637:26255   */\n      dup2\n      eq\n      tag_691\n      jumpi\n        /* \"#utility.yul\":26299:26300   */\n      0x00\n        /* \"#utility.yul\":26316:26322   */\n      dup5\n        /* \"#utility.yul\":26313:26390   */\n      iszero\n      tag_692\n      jumpi\n        /* \"#utility.yul\":26365:26374   */\n      dup3\n        /* \"#utility.yul\":26360:26363   */\n      dup8\n        /* \"#utility.yul\":26356:26375   */\n      add\n        /* \"#utility.yul\":26350:26376   */\n      mload\n        /* \"#utility.yul\":26341:26376   */\n      swap1\n      pop\n        /* \"#utility.yul\":26313:26390   */\n    tag_692:\n        /* \"#utility.yul\":26416:26483   */\n      tag_693\n        /* \"#utility.yul\":26476:26482   */\n      dup6\n        /* \"#utility.yul\":26469:26474   */\n      dup3\n        /* \"#utility.yul\":26416:26483   */\n      tag_434\n      jump\t// in\n    tag_693:\n        /* \"#utility.yul\":26410:26414   */\n      dup7\n        /* \"#utility.yul\":26403:26484   */\n      sstore\n        /* \"#utility.yul\":26272:26494   */\n      pop\n        /* \"#utility.yul\":25607:26494   */\n      jump(tag_690)\n        /* \"#utility.yul\":25637:26255   */\n    tag_691:\n        /* \"#utility.yul\":25689:25693   */\n      0x1f\n        /* \"#utility.yul\":25685:25694   */\n      not\n        /* \"#utility.yul\":25677:25683   */\n      dup5\n        /* \"#utility.yul\":25673:25695   */\n      and\n        /* \"#utility.yul\":25723:25760   */\n      tag_694\n        /* \"#utility.yul\":25755:25759   */\n      dup7\n        /* \"#utility.yul\":25723:25760   */\n      tag_420\n      jump\t// in\n    tag_694:\n        /* \"#utility.yul\":25782:25783   */\n      0x00\n        /* \"#utility.yul\":25796:26004   */\n    tag_695:\n        /* \"#utility.yul\":25810:25817   */\n      dup3\n        /* \"#utility.yul\":25807:25808   */\n      dup2\n        /* \"#utility.yul\":25804:25818   */\n      lt\n        /* \"#utility.yul\":25796:26004   */\n      iszero\n      tag_697\n      jumpi\n        /* \"#utility.yul\":25889:25898   */\n      dup5\n        /* \"#utility.yul\":25884:25887   */\n      dup10\n        /* \"#utility.yul\":25880:25899   */\n      add\n        /* \"#utility.yul\":25874:25900   */\n      mload\n        /* \"#utility.yul\":25866:25872   */\n      dup3\n        /* \"#utility.yul\":25859:25901   */\n      sstore\n        /* \"#utility.yul\":25940:25941   */\n      0x01\n        /* \"#utility.yul\":25932:25938   */\n      dup3\n        /* \"#utility.yul\":25928:25942   */\n      add\n        /* \"#utility.yul\":25918:25942   */\n      swap2\n      pop\n        /* \"#utility.yul\":25987:25989   */\n      0x20\n        /* \"#utility.yul\":25976:25985   */\n      dup6\n        /* \"#utility.yul\":25972:25990   */\n      add\n        /* \"#utility.yul\":25959:25990   */\n      swap5\n      pop\n        /* \"#utility.yul\":25833:25837   */\n      0x20\n        /* \"#utility.yul\":25830:25831   */\n      dup2\n        /* \"#utility.yul\":25826:25838   */\n      add\n        /* \"#utility.yul\":25821:25838   */\n      swap1\n      pop\n        /* \"#utility.yul\":25796:26004   */\n      jump(tag_695)\n    tag_697:\n        /* \"#utility.yul\":26032:26038   */\n      dup7\n        /* \"#utility.yul\":26023:26030   */\n      dup4\n        /* \"#utility.yul\":26020:26039   */\n      lt\n        /* \"#utility.yul\":26017:26196   */\n      iszero\n      tag_698\n      jumpi\n        /* \"#utility.yul\":26090:26099   */\n      dup5\n        /* \"#utility.yul\":26085:26088   */\n      dup10\n        /* \"#utility.yul\":26081:26100   */\n      add\n        /* \"#utility.yul\":26075:26101   */\n      mload\n        /* \"#utility.yul\":26133:26181   */\n      tag_699\n        /* \"#utility.yul\":26175:26179   */\n      0x1f\n        /* \"#utility.yul\":26167:26173   */\n      dup10\n        /* \"#utility.yul\":26163:26180   */\n      and\n        /* \"#utility.yul\":26152:26161   */\n      dup3\n        /* \"#utility.yul\":26133:26181   */\n      tag_433\n      jump\t// in\n    tag_699:\n        /* \"#utility.yul\":26125:26131   */\n      dup4\n        /* \"#utility.yul\":26118:26182   */\n      sstore\n        /* \"#utility.yul\":26040:26196   */\n      pop\n        /* \"#utility.yul\":26017:26196   */\n    tag_698:\n        /* \"#utility.yul\":26242:26243   */\n      0x01\n        /* \"#utility.yul\":26238:26239   */\n      0x02\n        /* \"#utility.yul\":26230:26236   */\n      dup9\n        /* \"#utility.yul\":26226:26240   */\n      mul\n        /* \"#utility.yul\":26222:26244   */\n      add\n        /* \"#utility.yul\":26216:26220   */\n      dup9\n        /* \"#utility.yul\":26209:26245   */\n      sstore\n        /* \"#utility.yul\":25644:26255   */\n      pop\n      pop\n      pop\n        /* \"#utility.yul\":25607:26494   */\n    tag_690:\n      pop\n        /* \"#utility.yul\":25197:26500   */\n      pop\n      pop\n      pop\n        /* \"#utility.yul\":25105:26500   */\n      pop\n      pop\n      jump\t// out\n        /* \"#utility.yul\":26506:26604   */\n    tag_435:\n        /* \"#utility.yul\":26557:26563   */\n      0x00\n        /* \"#utility.yul\":26591:26596   */\n      dup2\n        /* \"#utility.yul\":26585:26597   */\n      mload\n        /* \"#utility.yul\":26575:26597   */\n      swap1\n      pop\n        /* \"#utility.yul\":26506:26604   */\n      swap2\n      swap1\n      pop\n      jump\t// out\n        /* \"#utility.yul\":26610:26778   */\n    tag_436:\n        /* \"#utility.yul\":26693:26704   */\n      0x00\n        /* \"#utility.yul\":26727:26733   */\n      dup3\n        /* \"#utility.yul\":26722:26725   */\n      dup3\n        /* \"#utility.yul\":26715:26734   */\n      mstore\n        /* \"#utility.yul\":26767:26771   */\n      0x20\n        /* \"#utility.yul\":26762:26765   */\n      dup3\n        /* \"#utility.yul\":26758:26772   */\n      add\n        /* \"#utility.yul\":26743:26772   */\n      swap1\n      pop\n        /* \"#utility.yul\":26610:26778   */\n      swap3\n      swap2\n      pop\n      pop\n      jump\t// out\n        /* \"#utility.yul\":26784:27157   */\n    tag_437:\n        /* \"#utility.yul\":26870:26873   */\n      0x00\n        /* \"#utility.yul\":26898:26936   */\n      tag_703\n        /* \"#utility.yul\":26930:26935   */\n      dup3\n        /* \"#utility.yul\":26898:26936   */\n      tag_435\n      jump\t// in\n    tag_703:\n        /* \"#utility.yul\":26952:27022   */\n      tag_704\n        /* \"#utility.yul\":27015:27021   */\n      dup2\n        /* \"#utility.yul\":27010:27013   */\n      dup6\n        /* \"#utility.yul\":26952:27022   */\n      tag_436\n      jump\t// in\n    tag_704:\n        /* \"#utility.yul\":26945:27022   */\n      swap4\n      pop\n        /* \"#utility.yul\":27031:27096   */\n      tag_705\n        /* \"#utility.yul\":27089:27095   */\n      dup2\n        /* \"#utility.yul\":27084:27087   */\n      dup6\n        /* \"#utility.yul\":27077:27081   */\n      0x20\n        /* \"#utility.yul\":27070:27075   */\n      dup7\n        /* \"#utility.yul\":27066:27082   */\n      add\n        /* \"#utility.yul\":27031:27096   */\n      tag_374\n      jump\t// in\n    tag_705:\n        /* \"#utility.yul\":27121:27150   */\n      tag_706\n        /* \"#utility.yul\":27143:27149   */\n      dup2\n        /* \"#utility.yul\":27121:27150   */\n      tag_375\n      jump\t// in\n    tag_706:\n        /* \"#utility.yul\":27116:27119   */\n      dup5\n        /* \"#utility.yul\":27112:27151   */\n      add\n        /* \"#utility.yul\":27105:27151   */\n      swap2\n      pop\n        /* \"#utility.yul\":26874:27157   */\n      pop\n        /* \"#utility.yul\":26784:27157   */\n      swap3\n      swap2\n      pop\n      pop\n      jump\t// out\n        /* \"#utility.yul\":27163:27803   */\n    tag_248:\n        /* \"#utility.yul\":27358:27362   */\n      0x00\n        /* \"#utility.yul\":27396:27399   */\n      0x80\n        /* \"#utility.yul\":27385:27394   */\n      dup3\n        /* \"#utility.yul\":27381:27400   */\n      add\n        /* \"#utility.yul\":27373:27400   */\n      swap1\n      pop\n        /* \"#utility.yul\":27410:27481   */\n      tag_708\n        /* \"#utility.yul\":27478:27479   */\n      0x00\n        /* \"#utility.yul\":27467:27476   */\n      dup4\n        /* \"#utility.yul\":27463:27480   */\n      add\n        /* \"#utility.yul\":27454:27460   */\n      dup8\n        /* \"#utility.yul\":27410:27481   */\n      tag_382\n      jump\t// in\n    tag_708:\n        /* \"#utility.yul\":27491:27563   */\n      tag_709\n        /* \"#utility.yul\":27559:27561   */\n      0x20\n        /* \"#utility.yul\":27548:27557   */\n      dup4\n        /* \"#utility.yul\":27544:27562   */\n      add\n        /* \"#utility.yul\":27535:27541   */\n      dup7\n        /* \"#utility.yul\":27491:27563   */\n      tag_382\n      jump\t// in\n    tag_709:\n        /* \"#utility.yul\":27573:27645   */\n      tag_710\n        /* \"#utility.yul\":27641:27643   */\n      0x40\n        /* \"#utility.yul\":27630:27639   */\n      dup4\n        /* \"#utility.yul\":27626:27644   */\n      add\n        /* \"#utility.yul\":27617:27623   */\n      dup6\n        /* \"#utility.yul\":27573:27645   */\n      tag_393\n      jump\t// in\n    tag_710:\n        /* \"#utility.yul\":27692:27701   */\n      dup2\n        /* \"#utility.yul\":27686:27690   */\n      dup2\n        /* \"#utility.yul\":27682:27702   */\n      sub\n        /* \"#utility.yul\":27677:27679   */\n      0x60\n        /* \"#utility.yul\":27666:27675   */\n      dup4\n        /* \"#utility.yul\":27662:27680   */\n      add\n        /* \"#utility.yul\":27655:27703   */\n      mstore\n        /* \"#utility.yul\":27720:27796   */\n      tag_711\n        /* \"#utility.yul\":27791:27795   */\n      dup2\n        /* \"#utility.yul\":27782:27788   */\n      dup5\n        /* \"#utility.yul\":27720:27796   */\n      tag_437\n      jump\t// in\n    tag_711:\n        /* \"#utility.yul\":27712:27796   */\n      swap1\n      pop\n        /* \"#utility.yul\":27163:27803   */\n      swap6\n      swap5\n      pop\n      pop\n      pop\n      pop\n      pop\n      jump\t// out\n        /* \"#utility.yul\":27809:27950   */\n    tag_438:\n        /* \"#utility.yul\":27865:27870   */\n      0x00\n        /* \"#utility.yul\":27896:27902   */\n      dup2\n        /* \"#utility.yul\":27890:27903   */\n      mload\n        /* \"#utility.yul\":27881:27903   */\n      swap1\n      pop\n        /* \"#utility.yul\":27912:27944   */\n      tag_713\n        /* \"#utility.yul\":27938:27943   */\n      dup2\n        /* \"#utility.yul\":27912:27944   */\n      tag_368\n      jump\t// in\n    tag_713:\n        /* \"#utility.yul\":27809:27950   */\n      swap3\n      swap2\n      pop\n      pop\n      jump\t// out\n        /* \"#utility.yul\":27956:28305   */\n    tag_251:\n        /* \"#utility.yul\":28025:28031   */\n      0x00\n        /* \"#utility.yul\":28074:28076   */\n      0x20\n        /* \"#utility.yul\":28062:28071   */\n      dup3\n        /* \"#utility.yul\":28053:28060   */\n      dup5\n        /* \"#utility.yul\":28049:28072   */\n      sub\n        /* \"#utility.yul\":28045:28077   */\n      slt\n        /* \"#utility.yul\":28042:28161   */\n      iszero\n      tag_715\n      jumpi\n        /* \"#utility.yul\":28080:28159   */\n      tag_716\n      tag_365\n      jump\t// in\n    tag_716:\n        /* \"#utility.yul\":28042:28161   */\n    tag_715:\n        /* \"#utility.yul\":28200:28201   */\n      0x00\n        /* \"#utility.yul\":28225:28288   */\n      tag_717\n        /* \"#utility.yul\":28280:28287   */\n      dup5\n        /* \"#utility.yul\":28271:28277   */\n      dup3\n        /* \"#utility.yul\":28260:28269   */\n      dup6\n        /* \"#utility.yul\":28256:28278   */\n      add\n        /* \"#utility.yul\":28225:28288   */\n      tag_438\n      jump\t// in\n    tag_717:\n        /* \"#utility.yul\":28215:28288   */\n      swap2\n      pop\n        /* \"#utility.yul\":28171:28298   */\n      pop\n        /* \"#utility.yul\":27956:28305   */\n      swap3\n      swap2\n      pop\n      pop\n      jump\t// out\n        /* \"#utility.yul\":28311:28753   */\n    tag_290:\n        /* \"#utility.yul\":28460:28464   */\n      0x00\n        /* \"#utility.yul\":28498:28500   */\n      0x60\n        /* \"#utility.yul\":28487:28496   */\n      dup3\n        /* \"#utility.yul\":28483:28501   */\n      add\n        /* \"#utility.yul\":28475:28501   */\n      swap1\n      pop\n        /* \"#utility.yul\":28511:28582   */\n      tag_719\n        /* \"#utility.yul\":28579:28580   */\n      0x00\n        /* \"#utility.yul\":28568:28577   */\n      dup4\n        /* \"#utility.yul\":28564:28581   */\n      add\n        /* \"#utility.yul\":28555:28561   */\n      dup7\n        /* \"#utility.yul\":28511:28582   */\n      tag_382\n      jump\t// in\n    tag_719:\n        /* \"#utility.yul\":28592:28664   */\n      tag_720\n        /* \"#utility.yul\":28660:28662   */\n      0x20\n        /* \"#utility.yul\":28649:28658   */\n      dup4\n        /* \"#utility.yul\":28645:28663   */\n      add\n        /* \"#utility.yul\":28636:28642   */\n      dup6\n        /* \"#utility.yul\":28592:28664   */\n      tag_393\n      jump\t// in\n    tag_720:\n        /* \"#utility.yul\":28674:28746   */\n      tag_721\n        /* \"#utility.yul\":28742:28744   */\n      0x40\n        /* \"#utility.yul\":28731:28740   */\n      dup4\n        /* \"#utility.yul\":28727:28745   */\n      add\n        /* \"#utility.yul\":28718:28724   */\n      dup5\n        /* \"#utility.yul\":28674:28746   */\n      tag_382\n      jump\t// in\n    tag_721:\n        /* \"#utility.yul\":28311:28753   */\n      swap5\n      swap4\n      pop\n      pop\n      pop\n      pop\n      jump\t// out\n        /* \"#utility.yul\":28759:28939   */\n    tag_302:\n        /* \"#utility.yul\":28807:28884   */\n      0x4e487b7100000000000000000000000000000000000000000000000000000000\n        /* \"#utility.yul\":28804:28805   */\n      0x00\n        /* \"#utility.yul\":28797:28885   */\n      mstore\n        /* \"#utility.yul\":28904:28908   */\n      0x12\n        /* \"#utility.yul\":28901:28902   */\n      0x04\n        /* \"#utility.yul\":28894:28909   */\n      mstore\n        /* \"#utility.yul\":28928:28932   */\n      0x24\n        /* \"#utility.yul\":28925:28926   */\n      0x00\n        /* \"#utility.yul\":28918:28933   */\n      revert\n        /* \"#utility.yul\":28945:29277   */\n    tag_347:\n        /* \"#utility.yul\":29066:29070   */\n      0x00\n        /* \"#utility.yul\":29104:29106   */\n      0x40\n        /* \"#utility.yul\":29093:29102   */\n      dup3\n        /* \"#utility.yul\":29089:29107   */\n      add\n        /* \"#utility.yul\":29081:29107   */\n      swap1\n      pop\n        /* \"#utility.yul\":29117:29188   */\n      tag_724\n        /* \"#utility.yul\":29185:29186   */\n      0x00\n        /* \"#utility.yul\":29174:29183   */\n      dup4\n        /* \"#utility.yul\":29170:29187   */\n      add\n        /* \"#utility.yul\":29161:29167   */\n      dup6\n        /* \"#utility.yul\":29117:29188   */\n      tag_382\n      jump\t// in\n    tag_724:\n        /* \"#utility.yul\":29198:29270   */\n      tag_725\n        /* \"#utility.yul\":29266:29268   */\n      0x20\n        /* \"#utility.yul\":29255:29264   */\n      dup4\n        /* \"#utility.yul\":29251:29269   */\n      add\n        /* \"#utility.yul\":29242:29248   */\n      dup5\n        /* \"#utility.yul\":29198:29270   */\n      tag_393\n      jump\t// in\n    tag_725:\n        /* \"#utility.yul\":28945:29277   */\n      swap4\n      swap3\n      pop\n      pop\n      pop\n      jump\t// out\n\n    auxdata: 0xa26469706673582212202e46cd492b8963e5770d6bf1b17db8ba5891d1fd5806a75ccf9fea071aa0b6ee64736f6c63430008190033\n}\n",
				"bytecode": {
					"linkReferences": {},
					"object": "60806040526001600855348015610014575f80fd5b50336040518060400160405280600681526020017f504c5a4e465400000000000000000000000000000000000000000000000000008152506040518060400160405280600681526020017f504c5a4e46540000000000000000000000000000000000000000000000000000815250815f90816100909190610425565b5080600190816100a09190610425565b5050505f73ffffffffffffffffffffffffffffffffffffffff168173ffffffffffffffffffffffffffffffffffffffff1603610113575f6040517f1e4fbdf700000000000000000000000000000000000000000000000000000000815260040161010a9190610533565b60405180910390fd5b6101228161012860201b60201c565b5061054c565b5f60075f9054906101000a900473ffffffffffffffffffffffffffffffffffffffff1690508160075f6101000a81548173ffffffffffffffffffffffffffffffffffffffff021916908373ffffffffffffffffffffffffffffffffffffffff1602179055508173ffffffffffffffffffffffffffffffffffffffff168173ffffffffffffffffffffffffffffffffffffffff167f8be0079c531659141344cd1fd0a4f28419497f9722a3daafe3b4186f6b6457e060405160405180910390a35050565b5f81519050919050565b7f4e487b71000000000000000000000000000000000000000000000000000000005f52604160045260245ffd5b7f4e487b71000000000000000000000000000000000000000000000000000000005f52602260045260245ffd5b5f600282049050600182168061026657607f821691505b60208210810361027957610278610222565b5b50919050565b5f819050815f5260205f209050919050565b5f6020601f8301049050919050565b5f82821b905092915050565b5f600883026102db7fffffffffffffffffffffffffffffffffffffffffffffffffffffffffffffffff826102a0565b6102e586836102a0565b95508019841693508086168417925050509392505050565b5f819050919050565b5f819050919050565b5f61032961032461031f846102fd565b610306565b6102fd565b9050919050565b5f819050919050565b6103428361030f565b61035661034e82610330565b8484546102ac565b825550505050565b5f90565b61036a61035e565b610375818484610339565b505050565b5b818110156103985761038d5f82610362565b60018101905061037b565b5050565b601f8211156103dd576103ae8161027f565b6103b784610291565b810160208510156103c6578190505b6103da6103d285610291565b83018261037a565b50505b505050565b5f82821c905092915050565b5f6103fd5f19846008026103e2565b1980831691505092915050565b5f61041583836103ee565b9150826002028217905092915050565b61042e826101eb565b67ffffffffffffffff811115610447576104466101f5565b5b610451825461024f565b61045c82828561039c565b5f60209050601f83116001811461048d575f841561047b578287015190505b610485858261040a565b8655506104ec565b601f19841661049b8661027f565b5f5b828110156104c25784890151825560018201915060208501945060208101905061049d565b868310156104df57848901516104db601f8916826103ee565b8355505b6001600288020188555050505b505050505050565b5f73ffffffffffffffffffffffffffffffffffffffff82169050919050565b5f61051d826104f4565b9050919050565b61052d81610513565b82525050565b5f6020820190506105465f830184610524565b92915050565b6129f4806105595f395ff3fe60806040526004361061010c575f3560e01c8063715018a611610094578063b88d4fde11610063578063b88d4fde14610363578063c87b56dd1461038b578063d0e30db0146103c7578063e985e9c5146103d1578063f2fde38b1461040d57610113565b8063715018a6146102d15780638da5cb5b146102e757806395d89b4114610311578063a22cb4651461033b57610113565b806323b872dd116100db57806323b872dd146101e15780633df0805e1461020957806342842e0e146102315780636352211e1461025957806370a082311461029557610113565b806301ffc9a71461011757806306fdde0314610153578063081812fc1461017d578063095ea7b3146101b957610113565b3661011357005b5f80fd5b348015610122575f80fd5b5061013d60048036038101906101389190611b16565b610435565b60405161014a9190611b5b565b60405180910390f35b34801561015e575f80fd5b50610167610495565b6040516101749190611be4565b60405180910390f35b348015610188575f80fd5b506101a3600480360381019061019e9190611c37565b610524565b6040516101b09190611ca1565b60405180910390f35b3480156101c4575f80fd5b506101df60048036038101906101da9190611ce4565b61053f565b005b3480156101ec575f80fd5b5061020760048036038101906102029190611d22565b610582565b005b348015610214575f80fd5b5061022f600480360381019061022a9190611e9e565b6105c5565b005b34801561023c575f80fd5b5061025760048036038101906102529190611d22565b610719565b005b348015610264575f80fd5b5061027f600480360381019061027a9190611c37565b610738565b60405161028c9190611ca1565b60405180910390f35b3480156102a0575f80fd5b506102bb60048036038101906102b69190611ef8565b610749565b6040516102c89190611f32565b60405180910390f35b3480156102dc575f80fd5b506102e56107ff565b005b3480156102f2575f80fd5b506102fb610842565b6040516103089190611ca1565b60405180910390f35b34801561031c575f80fd5b5061032561086a565b6040516103329190611be4565b60405180910390f35b348015610346575f80fd5b50610361600480360381019061035c9190611f75565b6108fa565b005b34801561036e575f80fd5b5061038960048036038101906103849190612051565b61093d565b005b348015610396575f80fd5b506103b160048036038101906103ac9190611c37565b61095a565b6040516103be9190611be4565b60405180910390f35b6103cf610a65565b005b3480156103dc575f80fd5b506103f760048036038101906103f291906120d1565b610a6f565b6040516104049190611b5b565b60405180910390f35b348015610418575f80fd5b50610433600480360381019061042e9190611ef8565b610afd565b005b5f634906490660e01b7bffffffffffffffffffffffffffffffffffffffffffffffffffffffff1916827bffffffffffffffffffffffffffffffffffffffffffffffffffffffff1916148061048e575061048d82610b40565b5b9050919050565b60605f80546104a39061213c565b80601f01602080910402602001604051908101604052809291908181526020018280546104cf9061213c565b801561051a5780601f106104f15761010080835404028352916020019161051a565b820191905f5260205f20905b8154815290600101906020018083116104fd57829003601f168201915b5050505050905090565b5f61052e82610c21565b5061053882610ca7565b9050919050565b610547610ce0565b6040517f08c379a0000000000000000000000000000000000000000000000000000000008152600401610579906121b6565b60405180910390fd5b61058a610ce0565b6040517f08c379a00000000000000000000000000000000000000000000000000000000081526004016105bc90612244565b60405180910390fd5b6105cd610ce0565b670de0b6b3a7640000471015610618576040517f08c379a000000000000000000000000000000000000000000000000000000000815260040161060f906122ac565b60405180910390fd5b5f60085490506106283382610d67565b6106328183610d84565b60085f815480929190610644906122f7565b91905055505f8373ffffffffffffffffffffffffffffffffffffffff16670de0b6b3a76400006040516106769061236b565b5f6040518083038185875af1925050503d805f81146106b0576040519150601f19603f3d011682016040523d82523d5f602084013e6106b5565b606091505b50509050806106f9576040517f08c379a00000000000000000000000000000000000000000000000000000000081526004016106f0906123c9565b60405180910390fd5b61071333858460405180602001604052805f815250610dde565b50505050565b61073383838360405180602001604052805f81525061093d565b505050565b5f61074282610c21565b9050919050565b5f8073ffffffffffffffffffffffffffffffffffffffff168273ffffffffffffffffffffffffffffffffffffffff16036107ba575f6040517f89c62b640000000000000000000000000000000000000000000000000000000081526004016107b19190611ca1565b60405180910390fd5b60035f8373ffffffffffffffffffffffffffffffffffffffff1673ffffffffffffffffffffffffffffffffffffffff1681526020019081526020015f20549050919050565b610807610ce0565b6040517f08c379a000000000000000000000000000000000000000000000000000000000815260040161083990612457565b60405180910390fd5b5f60075f9054906101000a900473ffffffffffffffffffffffffffffffffffffffff16905090565b6060600180546108799061213c565b80601f01602080910402602001604051908101604052809291908181526020018280546108a59061213c565b80156108f05780601f106108c7576101008083540402835291602001916108f0565b820191905f5260205f20905b8154815290600101906020018083116108d357829003601f168201915b5050505050905090565b610902610ce0565b6040517f08c379a0000000000000000000000000000000000000000000000000000000008152600401610934906124e5565b60405180910390fd5b610948848484610582565b61095484848484610dfb565b50505050565b606061096582610c21565b505f60065f8481526020019081526020015f2080546109839061213c565b80601f01602080910402602001604051908101604052809291908181526020018280546109af9061213c565b80156109fa5780601f106109d1576101008083540402835291602001916109fa565b820191905f5260205f20905b8154815290600101906020018083116109dd57829003601f168201915b505050505090505f610a0a610fad565b90505f815103610a1e578192505050610a60565b5f82511115610a52578082604051602001610a3a92919061253d565b60405160208183030381529060405292505050610a60565b610a5b84610fc3565b925050505b919050565b610a6d610ce0565b565b5f60055f8473ffffffffffffffffffffffffffffffffffffffff1673ffffffffffffffffffffffffffffffffffffffff1681526020019081526020015f205f8373ffffffffffffffffffffffffffffffffffffffff1673ffffffffffffffffffffffffffffffffffffffff1681526020019081526020015f205f9054906101000a900460ff16905092915050565b610b05610ce0565b6040517f08c379a0000000000000000000000000000000000000000000000000000000008152600401610b37906125d0565b60405180910390fd5b5f7f80ac58cd000000000000000000000000000000000000000000000000000000007bffffffffffffffffffffffffffffffffffffffffffffffffffffffff1916827bffffffffffffffffffffffffffffffffffffffffffffffffffffffff19161480610c0a57507f5b5e139f000000000000000000000000000000000000000000000000000000007bffffffffffffffffffffffffffffffffffffffffffffffffffffffff1916827bffffffffffffffffffffffffffffffffffffffffffffffffffffffff1916145b80610c1a5750610c1982611029565b5b9050919050565b5f80610c2c83611092565b90505f73ffffffffffffffffffffffffffffffffffffffff168173ffffffffffffffffffffffffffffffffffffffff1603610c9e57826040517f7e273289000000000000000000000000000000000000000000000000000000008152600401610c959190611f32565b60405180910390fd5b80915050919050565b5f60045f8381526020019081526020015f205f9054906101000a900473ffffffffffffffffffffffffffffffffffffffff169050919050565b610ce86110cb565b73ffffffffffffffffffffffffffffffffffffffff16610d06610842565b73ffffffffffffffffffffffffffffffffffffffff1614610d6557610d296110cb565b6040517f118cdaa7000000000000000000000000000000000000000000000000000000008152600401610d5c9190611ca1565b60405180910390fd5b565b610d80828260405180602001604052805f8152506110d2565b5050565b8060065f8481526020019081526020015f209081610da2919061278b565b507ff8e1a15aba9398e019f0b49df1a4fde98ee17ae345cb5f6b5e2c27f5033e8ce782604051610dd29190611f32565b60405180910390a15050565b610de98484846110ed565b610df584848484610dfb565b50505050565b5f8373ffffffffffffffffffffffffffffffffffffffff163b1115610fa7578273ffffffffffffffffffffffffffffffffffffffff1663150b7a02610e3e6110cb565b8685856040518563ffffffff1660e01b8152600401610e6094939291906128ac565b6020604051808303815f875af1925050508015610e9b57506040513d601f19601f82011682018060405250810190610e98919061290a565b60015b610f1c573d805f8114610ec9576040519150601f19603f3d011682016040523d82523d5f602084013e610ece565b606091505b505f815103610f1457836040517f64a0ae92000000000000000000000000000000000000000000000000000000008152600401610f0b9190611ca1565b60405180910390fd5b805181602001fd5b63150b7a0260e01b7bffffffffffffffffffffffffffffffffffffffffffffffffffffffff1916817bffffffffffffffffffffffffffffffffffffffffffffffffffffffff191614610fa557836040517f64a0ae92000000000000000000000000000000000000000000000000000000008152600401610f9c9190611ca1565b60405180910390fd5b505b50505050565b606060405180602001604052805f815250905090565b6060610fce82610c21565b505f610fd8610fad565b90505f815111610ff65760405180602001604052805f815250611021565b8061100084611255565b60405160200161101192919061253d565b6040516020818303038152906040525b915050919050565b5f7f01ffc9a7000000000000000000000000000000000000000000000000000000007bffffffffffffffffffffffffffffffffffffffffffffffffffffffff1916827bffffffffffffffffffffffffffffffffffffffffffffffffffffffff1916149050919050565b5f60025f8381526020019081526020015f205f9054906101000a900473ffffffffffffffffffffffffffffffffffffffff169050919050565b5f33905090565b6110dc838361131f565b6110e85f848484610dfb565b505050565b5f73ffffffffffffffffffffffffffffffffffffffff168273ffffffffffffffffffffffffffffffffffffffff160361115d575f6040517f64a0ae920000000000000000000000000000000000000000000000000000000081526004016111549190611ca1565b60405180910390fd5b5f61116983835f611412565b90505f73ffffffffffffffffffffffffffffffffffffffff168173ffffffffffffffffffffffffffffffffffffffff16036111db57816040517f7e2732890000000000000000000000000000000000000000000000000000000081526004016111d29190611f32565b60405180910390fd5b8373ffffffffffffffffffffffffffffffffffffffff168173ffffffffffffffffffffffffffffffffffffffff161461124f578382826040517f64283d7b00000000000000000000000000000000000000000000000000000000815260040161124693929190612935565b60405180910390fd5b50505050565b60605f60016112638461161d565b0190505f8167ffffffffffffffff81111561128157611280611d7a565b5b6040519080825280601f01601f1916602001820160405280156112b35781602001600182028036833780820191505090505b5090505f82602001820190505b600115611314578080600190039150507f3031323334353637383961626364656600000000000000000000000000000000600a86061a8153600a85816113095761130861296a565b5b0494505f85036112c0575b819350505050919050565b5f73ffffffffffffffffffffffffffffffffffffffff168273ffffffffffffffffffffffffffffffffffffffff160361138f575f6040517f64a0ae920000000000000000000000000000000000000000000000000000000081526004016113869190611ca1565b60405180910390fd5b5f61139b83835f611412565b90505f73ffffffffffffffffffffffffffffffffffffffff168173ffffffffffffffffffffffffffffffffffffffff161461140d575f6040517f73c6ac6e0000000000000000000000000000000000000000000000000000000081526004016114049190611ca1565b60405180910390fd5b505050565b5f8061141d84611092565b90505f73ffffffffffffffffffffffffffffffffffffffff168373ffffffffffffffffffffffffffffffffffffffff161461145e5761145d81848661176e565b5b5f73ffffffffffffffffffffffffffffffffffffffff168173ffffffffffffffffffffffffffffffffffffffff16146114e95761149d5f855f80611831565b600160035f8373ffffffffffffffffffffffffffffffffffffffff1673ffffffffffffffffffffffffffffffffffffffff1681526020019081526020015f205f82825403925050819055505b5f73ffffffffffffffffffffffffffffffffffffffff168573ffffffffffffffffffffffffffffffffffffffff161461156857600160035f8773ffffffffffffffffffffffffffffffffffffffff1673ffffffffffffffffffffffffffffffffffffffff1681526020019081526020015f205f82825401925050819055505b8460025f8681526020019081526020015f205f6101000a81548173ffffffffffffffffffffffffffffffffffffffff021916908373ffffffffffffffffffffffffffffffffffffffff160217905550838573ffffffffffffffffffffffffffffffffffffffff168273ffffffffffffffffffffffffffffffffffffffff167fddf252ad1be2c89b69c2b068fc378daa952ba7f163c4a11628f55a4df523b3ef60405160405180910390a4809150509392505050565b5f805f90507a184f03e93ff9f4daa797ed6e38ed64bf6a1f0100000000000000008310611679577a184f03e93ff9f4daa797ed6e38ed64bf6a1f010000000000000000838161166f5761166e61296a565b5b0492506040810190505b6d04ee2d6d415b85acef810000000083106116b6576d04ee2d6d415b85acef810000000083816116ac576116ab61296a565b5b0492506020810190505b662386f26fc1000083106116e557662386f26fc1000083816116db576116da61296a565b5b0492506010810190505b6305f5e100831061170e576305f5e10083816117045761170361296a565b5b0492506008810190505b61271083106117335761271083816117295761172861296a565b5b0492506004810190505b60648310611756576064838161174c5761174b61296a565b5b0492506002810190505b600a8310611765576001810190505b80915050919050565b6117798383836119f0565b61182c575f73ffffffffffffffffffffffffffffffffffffffff168373ffffffffffffffffffffffffffffffffffffffff16036117ed57806040517f7e2732890000000000000000000000000000000000000000000000000000000081526004016117e49190611f32565b60405180910390fd5b81816040517f177e802f000000000000000000000000000000000000000000000000000000008152600401611823929190612997565b60405180910390fd5b505050565b808061186957505f73ffffffffffffffffffffffffffffffffffffffff168273ffffffffffffffffffffffffffffffffffffffff1614155b1561199b575f61187884610c21565b90505f73ffffffffffffffffffffffffffffffffffffffff168373ffffffffffffffffffffffffffffffffffffffff16141580156118e257508273ffffffffffffffffffffffffffffffffffffffff168173ffffffffffffffffffffffffffffffffffffffff1614155b80156118f557506118f38184610a6f565b155b1561193757826040517fa9fbf51f00000000000000000000000000000000000000000000000000000000815260040161192e9190611ca1565b60405180910390fd5b811561199957838573ffffffffffffffffffffffffffffffffffffffff168273ffffffffffffffffffffffffffffffffffffffff167f8c5be1e5ebec7d5bd14f71427d1e84f3dd0314c0f7b2291e5b200ac8c7c3b92560405160405180910390a45b505b8360045f8581526020019081526020015f205f6101000a81548173ffffffffffffffffffffffffffffffffffffffff021916908373ffffffffffffffffffffffffffffffffffffffff16021790555050505050565b5f8073ffffffffffffffffffffffffffffffffffffffff168373ffffffffffffffffffffffffffffffffffffffff1614158015611aa757508273ffffffffffffffffffffffffffffffffffffffff168473ffffffffffffffffffffffffffffffffffffffff161480611a685750611a678484610a6f565b5b80611aa657508273ffffffffffffffffffffffffffffffffffffffff16611a8e83610ca7565b73ffffffffffffffffffffffffffffffffffffffff16145b5b90509392505050565b5f604051905090565b5f80fd5b5f80fd5b5f7fffffffff0000000000000000000000000000000000000000000000000000000082169050919050565b611af581611ac1565b8114611aff575f80fd5b50565b5f81359050611b1081611aec565b92915050565b5f60208284031215611b2b57611b2a611ab9565b5b5f611b3884828501611b02565b91505092915050565b5f8115159050919050565b611b5581611b41565b82525050565b5f602082019050611b6e5f830184611b4c565b92915050565b5f81519050919050565b5f82825260208201905092915050565b8281835e5f83830152505050565b5f601f19601f8301169050919050565b5f611bb682611b74565b611bc08185611b7e565b9350611bd0818560208601611b8e565b611bd981611b9c565b840191505092915050565b5f6020820190508181035f830152611bfc8184611bac565b905092915050565b5f819050919050565b611c1681611c04565b8114611c20575f80fd5b50565b5f81359050611c3181611c0d565b92915050565b5f60208284031215611c4c57611c4b611ab9565b5b5f611c5984828501611c23565b91505092915050565b5f73ffffffffffffffffffffffffffffffffffffffff82169050919050565b5f611c8b82611c62565b9050919050565b611c9b81611c81565b82525050565b5f602082019050611cb45f830184611c92565b92915050565b611cc381611c81565b8114611ccd575f80fd5b50565b5f81359050611cde81611cba565b92915050565b5f8060408385031215611cfa57611cf9611ab9565b5b5f611d0785828601611cd0565b9250506020611d1885828601611c23565b9150509250929050565b5f805f60608486031215611d3957611d38611ab9565b5b5f611d4686828701611cd0565b9350506020611d5786828701611cd0565b9250506040611d6886828701611c23565b9150509250925092565b5f80fd5b5f80fd5b7f4e487b71000000000000000000000000000000000000000000000000000000005f52604160045260245ffd5b611db082611b9c565b810181811067ffffffffffffffff82111715611dcf57611dce611d7a565b5b80604052505050565b5f611de1611ab0565b9050611ded8282611da7565b919050565b5f67ffffffffffffffff821115611e0c57611e0b611d7a565b5b611e1582611b9c565b9050602081019050919050565b828183375f83830152505050565b5f611e42611e3d84611df2565b611dd8565b905082815260208101848484011115611e5e57611e5d611d76565b5b611e69848285611e22565b509392505050565b5f82601f830112611e8557611e84611d72565b5b8135611e95848260208601611e30565b91505092915050565b5f8060408385031215611eb457611eb3611ab9565b5b5f611ec185828601611cd0565b925050602083013567ffffffffffffffff811115611ee257611ee1611abd565b5b611eee85828601611e71565b9150509250929050565b5f60208284031215611f0d57611f0c611ab9565b5b5f611f1a84828501611cd0565b91505092915050565b611f2c81611c04565b82525050565b5f602082019050611f455f830184611f23565b92915050565b611f5481611b41565b8114611f5e575f80fd5b50565b5f81359050611f6f81611f4b565b92915050565b5f8060408385031215611f8b57611f8a611ab9565b5b5f611f9885828601611cd0565b9250506020611fa985828601611f61565b9150509250929050565b5f67ffffffffffffffff821115611fcd57611fcc611d7a565b5b611fd682611b9c565b9050602081019050919050565b5f611ff5611ff084611fb3565b611dd8565b90508281526020810184848401111561201157612010611d76565b5b61201c848285611e22565b509392505050565b5f82601f83011261203857612037611d72565b5b8135612048848260208601611fe3565b91505092915050565b5f805f806080858703121561206957612068611ab9565b5b5f61207687828801611cd0565b945050602061208787828801611cd0565b935050604061209887828801611c23565b925050606085013567ffffffffffffffff8111156120b9576120b8611abd565b5b6120c587828801612024565b91505092959194509250565b5f80604083850312156120e7576120e6611ab9565b5b5f6120f485828601611cd0565b925050602061210585828601611cd0565b9150509250929050565b7f4e487b71000000000000000000000000000000000000000000000000000000005f52602260045260245ffd5b5f600282049050600182168061215357607f821691505b6020821081036121665761216561210f565b5b50919050565b7f417070726f76652066756e6374696f6e2069732064697361626c65642e0000005f82015250565b5f6121a0601d83611b7e565b91506121ab8261216c565b602082019050919050565b5f6020820190508181035f8301526121cd81612194565b9050919050565b7f5472616e736665722066726f6d2066756e6374696f6e2069732064697361626c5f8201527f65642e0000000000000000000000000000000000000000000000000000000000602082015250565b5f61222e602383611b7e565b9150612239826121d4565b604082019050919050565b5f6020820190508181035f83015261225b81612222565b9050919050565b7f4e6f7420656e6f7567682045544820696e20636f6e74726163740000000000005f82015250565b5f612296601a83611b7e565b91506122a182612262565b602082019050919050565b5f6020820190508181035f8301526122c38161228a565b9050919050565b7f4e487b71000000000000000000000000000000000000000000000000000000005f52601160045260245ffd5b5f61230182611c04565b91507fffffffffffffffffffffffffffffffffffffffffffffffffffffffffffffffff8203612333576123326122ca565b5b600182019050919050565b5f81905092915050565b50565b5f6123565f8361233e565b915061236182612348565b5f82019050919050565b5f6123758261234b565b9150819050919050565b7f4661696c656420746f2073656e642045746865720000000000000000000000005f82015250565b5f6123b3601483611b7e565b91506123be8261237f565b602082019050919050565b5f6020820190508181035f8301526123e0816123a7565b9050919050565b7f52656e6f756e63696e67206f776e6572736869702069732064697361626c65645f8201527f2e00000000000000000000000000000000000000000000000000000000000000602082015250565b5f612441602183611b7e565b915061244c826123e7565b604082019050919050565b5f6020820190508181035f83015261246e81612435565b9050919050565b7f53657420617070726f76616c20666f7220616c6c2066756e6374696f6e2069735f8201527f2064697361626c65642e00000000000000000000000000000000000000000000602082015250565b5f6124cf602a83611b7e565b91506124da82612475565b604082019050919050565b5f6020820190508181035f8301526124fc816124c3565b9050919050565b5f81905092915050565b5f61251782611b74565b6125218185612503565b9350612531818560208601611b8e565b80840191505092915050565b5f612548828561250d565b9150612554828461250d565b91508190509392505050565b7f5472616e73666572206f776e6572736869702066756e6374696f6e20697320645f8201527f697361626c65642e000000000000000000000000000000000000000000000000602082015250565b5f6125ba602883611b7e565b91506125c582612560565b604082019050919050565b5f6020820190508181035f8301526125e7816125ae565b9050919050565b5f819050815f5260205f209050919050565b5f6020601f8301049050919050565b5f82821b905092915050565b5f6008830261264a7fffffffffffffffffffffffffffffffffffffffffffffffffffffffffffffffff8261260f565b612654868361260f565b95508019841693508086168417925050509392505050565b5f819050919050565b5f61268f61268a61268584611c04565b61266c565b611c04565b9050919050565b5f819050919050565b6126a883612675565b6126bc6126b482612696565b84845461261b565b825550505050565b5f90565b6126d06126c4565b6126db81848461269f565b505050565b5b818110156126fe576126f35f826126c8565b6001810190506126e1565b5050565b601f82111561274357612714816125ee565b61271d84612600565b8101602085101561272c578190505b61274061273885612600565b8301826126e0565b50505b505050565b5f82821c905092915050565b5f6127635f1984600802612748565b1980831691505092915050565b5f61277b8383612754565b9150826002028217905092915050565b61279482611b74565b67ffffffffffffffff8111156127ad576127ac611d7a565b5b6127b7825461213c565b6127c2828285612702565b5f60209050601f8311600181146127f3575f84156127e1578287015190505b6127eb8582612770565b865550612852565b601f198416612801866125ee565b5f5b8281101561282857848901518255600182019150602085019450602081019050612803565b868310156128455784890151612841601f891682612754565b8355505b6001600288020188555050505b505050505050565b5f81519050919050565b5f82825260208201905092915050565b5f61287e8261285a565b6128888185612864565b9350612898818560208601611b8e565b6128a181611b9c565b840191505092915050565b5f6080820190506128bf5f830187611c92565b6128cc6020830186611c92565b6128d96040830185611f23565b81810360608301526128eb8184612874565b905095945050505050565b5f8151905061290481611aec565b92915050565b5f6020828403121561291f5761291e611ab9565b5b5f61292c848285016128f6565b91505092915050565b5f6060820190506129485f830186611c92565b6129556020830185611f23565b6129626040830184611c92565b949350505050565b7f4e487b71000000000000000000000000000000000000000000000000000000005f52601260045260245ffd5b5f6040820190506129aa5f830185611c92565b6129b76020830184611f23565b939250505056fea26469706673582212202e46cd492b8963e5770d6bf1b17db8ba5891d1fd5806a75ccf9fea071aa0b6ee64736f6c63430008190033",
					"opcodes": "PUSH1 0x80 PUSH1 0x40 MSTORE PUSH1 0x1 PUSH1 0x8 SSTORE CALLVALUE DUP1 ISZERO PUSH2 0x14 JUMPI PUSH0 DUP1 REVERT JUMPDEST POP CALLER PUSH1 0x40 MLOAD DUP1 PUSH1 0x40 ADD PUSH1 0x40 MSTORE DUP1 PUSH1 0x6 DUP2 MSTORE PUSH1 0x20 ADD PUSH32 0x504C5A4E46540000000000000000000000000000000000000000000000000000 DUP2 MSTORE POP PUSH1 0x40 MLOAD DUP1 PUSH1 0x40 ADD PUSH1 0x40 MSTORE DUP1 PUSH1 0x6 DUP2 MSTORE PUSH1 0x20 ADD PUSH32 0x504C5A4E46540000000000000000000000000000000000000000000000000000 DUP2 MSTORE POP DUP2 PUSH0 SWAP1 DUP2 PUSH2 0x90 SWAP2 SWAP1 PUSH2 0x425 JUMP JUMPDEST POP DUP1 PUSH1 0x1 SWAP1 DUP2 PUSH2 0xA0 SWAP2 SWAP1 PUSH2 0x425 JUMP JUMPDEST POP POP POP PUSH0 PUSH20 0xFFFFFFFFFFFFFFFFFFFFFFFFFFFFFFFFFFFFFFFF AND DUP2 PUSH20 0xFFFFFFFFFFFFFFFFFFFFFFFFFFFFFFFFFFFFFFFF AND SUB PUSH2 0x113 JUMPI PUSH0 PUSH1 0x40 MLOAD PUSH32 0x1E4FBDF700000000000000000000000000000000000000000000000000000000 DUP2 MSTORE PUSH1 0x4 ADD PUSH2 0x10A SWAP2 SWAP1 PUSH2 0x533 JUMP JUMPDEST PUSH1 0x40 MLOAD DUP1 SWAP2 SUB SWAP1 REVERT JUMPDEST PUSH2 0x122 DUP2 PUSH2 0x128 PUSH1 0x20 SHL PUSH1 0x20 SHR JUMP JUMPDEST POP PUSH2 0x54C JUMP JUMPDEST PUSH0 PUSH1 0x7 PUSH0 SWAP1 SLOAD SWAP1 PUSH2 0x100 EXP SWAP1 DIV PUSH20 0xFFFFFFFFFFFFFFFFFFFFFFFFFFFFFFFFFFFFFFFF AND SWAP1 POP DUP2 PUSH1 0x7 PUSH0 PUSH2 0x100 EXP DUP2 SLOAD DUP2 PUSH20 0xFFFFFFFFFFFFFFFFFFFFFFFFFFFFFFFFFFFFFFFF MUL NOT AND SWAP1 DUP4 PUSH20 0xFFFFFFFFFFFFFFFFFFFFFFFFFFFFFFFFFFFFFFFF AND MUL OR SWAP1 SSTORE POP DUP2 PUSH20 0xFFFFFFFFFFFFFFFFFFFFFFFFFFFFFFFFFFFFFFFF AND DUP2 PUSH20 0xFFFFFFFFFFFFFFFFFFFFFFFFFFFFFFFFFFFFFFFF AND PUSH32 0x8BE0079C531659141344CD1FD0A4F28419497F9722A3DAAFE3B4186F6B6457E0 PUSH1 0x40 MLOAD PUSH1 0x40 MLOAD DUP1 SWAP2 SUB SWAP1 LOG3 POP POP JUMP JUMPDEST PUSH0 DUP2 MLOAD SWAP1 POP SWAP2 SWAP1 POP JUMP JUMPDEST PUSH32 0x4E487B7100000000000000000000000000000000000000000000000000000000 PUSH0 MSTORE PUSH1 0x41 PUSH1 0x4 MSTORE PUSH1 0x24 PUSH0 REVERT JUMPDEST PUSH32 0x4E487B7100000000000000000000000000000000000000000000000000000000 PUSH0 MSTORE PUSH1 0x22 PUSH1 0x4 MSTORE PUSH1 0x24 PUSH0 REVERT JUMPDEST PUSH0 PUSH1 0x2 DUP3 DIV SWAP1 POP PUSH1 0x1 DUP3 AND DUP1 PUSH2 0x266 JUMPI PUSH1 0x7F DUP3 AND SWAP2 POP JUMPDEST PUSH1 0x20 DUP3 LT DUP2 SUB PUSH2 0x279 JUMPI PUSH2 0x278 PUSH2 0x222 JUMP JUMPDEST JUMPDEST POP SWAP2 SWAP1 POP JUMP JUMPDEST PUSH0 DUP2 SWAP1 POP DUP2 PUSH0 MSTORE PUSH1 0x20 PUSH0 KECCAK256 SWAP1 POP SWAP2 SWAP1 POP JUMP JUMPDEST PUSH0 PUSH1 0x20 PUSH1 0x1F DUP4 ADD DIV SWAP1 POP SWAP2 SWAP1 POP JUMP JUMPDEST PUSH0 DUP3 DUP3 SHL SWAP1 POP SWAP3 SWAP2 POP POP JUMP JUMPDEST PUSH0 PUSH1 0x8 DUP4 MUL PUSH2 0x2DB PUSH32 0xFFFFFFFFFFFFFFFFFFFFFFFFFFFFFFFFFFFFFFFFFFFFFFFFFFFFFFFFFFFFFFFF DUP3 PUSH2 0x2A0 JUMP JUMPDEST PUSH2 0x2E5 DUP7 DUP4 PUSH2 0x2A0 JUMP JUMPDEST SWAP6 POP DUP1 NOT DUP5 AND SWAP4 POP DUP1 DUP7 AND DUP5 OR SWAP3 POP POP POP SWAP4 SWAP3 POP POP POP JUMP JUMPDEST PUSH0 DUP2 SWAP1 POP SWAP2 SWAP1 POP JUMP JUMPDEST PUSH0 DUP2 SWAP1 POP SWAP2 SWAP1 POP JUMP JUMPDEST PUSH0 PUSH2 0x329 PUSH2 0x324 PUSH2 0x31F DUP5 PUSH2 0x2FD JUMP JUMPDEST PUSH2 0x306 JUMP JUMPDEST PUSH2 0x2FD JUMP JUMPDEST SWAP1 POP SWAP2 SWAP1 POP JUMP JUMPDEST PUSH0 DUP2 SWAP1 POP SWAP2 SWAP1 POP JUMP JUMPDEST PUSH2 0x342 DUP4 PUSH2 0x30F JUMP JUMPDEST PUSH2 0x356 PUSH2 0x34E DUP3 PUSH2 0x330 JUMP JUMPDEST DUP5 DUP5 SLOAD PUSH2 0x2AC JUMP JUMPDEST DUP3 SSTORE POP POP POP POP JUMP JUMPDEST PUSH0 SWAP1 JUMP JUMPDEST PUSH2 0x36A PUSH2 0x35E JUMP JUMPDEST PUSH2 0x375 DUP2 DUP5 DUP5 PUSH2 0x339 JUMP JUMPDEST POP POP POP JUMP JUMPDEST JUMPDEST DUP2 DUP2 LT ISZERO PUSH2 0x398 JUMPI PUSH2 0x38D PUSH0 DUP3 PUSH2 0x362 JUMP JUMPDEST PUSH1 0x1 DUP2 ADD SWAP1 POP PUSH2 0x37B JUMP JUMPDEST POP POP JUMP JUMPDEST PUSH1 0x1F DUP3 GT ISZERO PUSH2 0x3DD JUMPI PUSH2 0x3AE DUP2 PUSH2 0x27F JUMP JUMPDEST PUSH2 0x3B7 DUP5 PUSH2 0x291 JUMP JUMPDEST DUP2 ADD PUSH1 0x20 DUP6 LT ISZERO PUSH2 0x3C6 JUMPI DUP2 SWAP1 POP JUMPDEST PUSH2 0x3DA PUSH2 0x3D2 DUP6 PUSH2 0x291 JUMP JUMPDEST DUP4 ADD DUP3 PUSH2 0x37A JUMP JUMPDEST POP POP JUMPDEST POP POP POP JUMP JUMPDEST PUSH0 DUP3 DUP3 SHR SWAP1 POP SWAP3 SWAP2 POP POP JUMP JUMPDEST PUSH0 PUSH2 0x3FD PUSH0 NOT DUP5 PUSH1 0x8 MUL PUSH2 0x3E2 JUMP JUMPDEST NOT DUP1 DUP4 AND SWAP2 POP POP SWAP3 SWAP2 POP POP JUMP JUMPDEST PUSH0 PUSH2 0x415 DUP4 DUP4 PUSH2 0x3EE JUMP JUMPDEST SWAP2 POP DUP3 PUSH1 0x2 MUL DUP3 OR SWAP1 POP SWAP3 SWAP2 POP POP JUMP JUMPDEST PUSH2 0x42E DUP3 PUSH2 0x1EB JUMP JUMPDEST PUSH8 0xFFFFFFFFFFFFFFFF DUP2 GT ISZERO PUSH2 0x447 JUMPI PUSH2 0x446 PUSH2 0x1F5 JUMP JUMPDEST JUMPDEST PUSH2 0x451 DUP3 SLOAD PUSH2 0x24F JUMP JUMPDEST PUSH2 0x45C DUP3 DUP3 DUP6 PUSH2 0x39C JUMP JUMPDEST PUSH0 PUSH1 0x20 SWAP1 POP PUSH1 0x1F DUP4 GT PUSH1 0x1 DUP2 EQ PUSH2 0x48D JUMPI PUSH0 DUP5 ISZERO PUSH2 0x47B JUMPI DUP3 DUP8 ADD MLOAD SWAP1 POP JUMPDEST PUSH2 0x485 DUP6 DUP3 PUSH2 0x40A JUMP JUMPDEST DUP7 SSTORE POP PUSH2 0x4EC JUMP JUMPDEST PUSH1 0x1F NOT DUP5 AND PUSH2 0x49B DUP7 PUSH2 0x27F JUMP JUMPDEST PUSH0 JUMPDEST DUP3 DUP2 LT ISZERO PUSH2 0x4C2 JUMPI DUP5 DUP10 ADD MLOAD DUP3 SSTORE PUSH1 0x1 DUP3 ADD SWAP2 POP PUSH1 0x20 DUP6 ADD SWAP5 POP PUSH1 0x20 DUP2 ADD SWAP1 POP PUSH2 0x49D JUMP JUMPDEST DUP7 DUP4 LT ISZERO PUSH2 0x4DF JUMPI DUP5 DUP10 ADD MLOAD PUSH2 0x4DB PUSH1 0x1F DUP10 AND DUP3 PUSH2 0x3EE JUMP JUMPDEST DUP4 SSTORE POP JUMPDEST PUSH1 0x1 PUSH1 0x2 DUP9 MUL ADD DUP9 SSTORE POP POP POP JUMPDEST POP POP POP POP POP POP JUMP JUMPDEST PUSH0 PUSH20 0xFFFFFFFFFFFFFFFFFFFFFFFFFFFFFFFFFFFFFFFF DUP3 AND SWAP1 POP SWAP2 SWAP1 POP JUMP JUMPDEST PUSH0 PUSH2 0x51D DUP3 PUSH2 0x4F4 JUMP JUMPDEST SWAP1 POP SWAP2 SWAP1 POP JUMP JUMPDEST PUSH2 0x52D DUP2 PUSH2 0x513 JUMP JUMPDEST DUP3 MSTORE POP POP JUMP JUMPDEST PUSH0 PUSH1 0x20 DUP3 ADD SWAP1 POP PUSH2 0x546 PUSH0 DUP4 ADD DUP5 PUSH2 0x524 JUMP JUMPDEST SWAP3 SWAP2 POP POP JUMP JUMPDEST PUSH2 0x29F4 DUP1 PUSH2 0x559 PUSH0 CODECOPY PUSH0 RETURN INVALID PUSH1 0x80 PUSH1 0x40 MSTORE PUSH1 0x4 CALLDATASIZE LT PUSH2 0x10C JUMPI PUSH0 CALLDATALOAD PUSH1 0xE0 SHR DUP1 PUSH4 0x715018A6 GT PUSH2 0x94 JUMPI DUP1 PUSH4 0xB88D4FDE GT PUSH2 0x63 JUMPI DUP1 PUSH4 0xB88D4FDE EQ PUSH2 0x363 JUMPI DUP1 PUSH4 0xC87B56DD EQ PUSH2 0x38B JUMPI DUP1 PUSH4 0xD0E30DB0 EQ PUSH2 0x3C7 JUMPI DUP1 PUSH4 0xE985E9C5 EQ PUSH2 0x3D1 JUMPI DUP1 PUSH4 0xF2FDE38B EQ PUSH2 0x40D JUMPI PUSH2 0x113 JUMP JUMPDEST DUP1 PUSH4 0x715018A6 EQ PUSH2 0x2D1 JUMPI DUP1 PUSH4 0x8DA5CB5B EQ PUSH2 0x2E7 JUMPI DUP1 PUSH4 0x95D89B41 EQ PUSH2 0x311 JUMPI DUP1 PUSH4 0xA22CB465 EQ PUSH2 0x33B JUMPI PUSH2 0x113 JUMP JUMPDEST DUP1 PUSH4 0x23B872DD GT PUSH2 0xDB JUMPI DUP1 PUSH4 0x23B872DD EQ PUSH2 0x1E1 JUMPI DUP1 PUSH4 0x3DF0805E EQ PUSH2 0x209 JUMPI DUP1 PUSH4 0x42842E0E EQ PUSH2 0x231 JUMPI DUP1 PUSH4 0x6352211E EQ PUSH2 0x259 JUMPI DUP1 PUSH4 0x70A08231 EQ PUSH2 0x295 JUMPI PUSH2 0x113 JUMP JUMPDEST DUP1 PUSH4 0x1FFC9A7 EQ PUSH2 0x117 JUMPI DUP1 PUSH4 0x6FDDE03 EQ PUSH2 0x153 JUMPI DUP1 PUSH4 0x81812FC EQ PUSH2 0x17D JUMPI DUP1 PUSH4 0x95EA7B3 EQ PUSH2 0x1B9 JUMPI PUSH2 0x113 JUMP JUMPDEST CALLDATASIZE PUSH2 0x113 JUMPI STOP JUMPDEST PUSH0 DUP1 REVERT JUMPDEST CALLVALUE DUP1 ISZERO PUSH2 0x122 JUMPI PUSH0 DUP1 REVERT JUMPDEST POP PUSH2 0x13D PUSH1 0x4 DUP1 CALLDATASIZE SUB DUP2 ADD SWAP1 PUSH2 0x138 SWAP2 SWAP1 PUSH2 0x1B16 JUMP JUMPDEST PUSH2 0x435 JUMP JUMPDEST PUSH1 0x40 MLOAD PUSH2 0x14A SWAP2 SWAP1 PUSH2 0x1B5B JUMP JUMPDEST PUSH1 0x40 MLOAD DUP1 SWAP2 SUB SWAP1 RETURN JUMPDEST CALLVALUE DUP1 ISZERO PUSH2 0x15E JUMPI PUSH0 DUP1 REVERT JUMPDEST POP PUSH2 0x167 PUSH2 0x495 JUMP JUMPDEST PUSH1 0x40 MLOAD PUSH2 0x174 SWAP2 SWAP1 PUSH2 0x1BE4 JUMP JUMPDEST PUSH1 0x40 MLOAD DUP1 SWAP2 SUB SWAP1 RETURN JUMPDEST CALLVALUE DUP1 ISZERO PUSH2 0x188 JUMPI PUSH0 DUP1 REVERT JUMPDEST POP PUSH2 0x1A3 PUSH1 0x4 DUP1 CALLDATASIZE SUB DUP2 ADD SWAP1 PUSH2 0x19E SWAP2 SWAP1 PUSH2 0x1C37 JUMP JUMPDEST PUSH2 0x524 JUMP JUMPDEST PUSH1 0x40 MLOAD PUSH2 0x1B0 SWAP2 SWAP1 PUSH2 0x1CA1 JUMP JUMPDEST PUSH1 0x40 MLOAD DUP1 SWAP2 SUB SWAP1 RETURN JUMPDEST CALLVALUE DUP1 ISZERO PUSH2 0x1C4 JUMPI PUSH0 DUP1 REVERT JUMPDEST POP PUSH2 0x1DF PUSH1 0x4 DUP1 CALLDATASIZE SUB DUP2 ADD SWAP1 PUSH2 0x1DA SWAP2 SWAP1 PUSH2 0x1CE4 JUMP JUMPDEST PUSH2 0x53F JUMP JUMPDEST STOP JUMPDEST CALLVALUE DUP1 ISZERO PUSH2 0x1EC JUMPI PUSH0 DUP1 REVERT JUMPDEST POP PUSH2 0x207 PUSH1 0x4 DUP1 CALLDATASIZE SUB DUP2 ADD SWAP1 PUSH2 0x202 SWAP2 SWAP1 PUSH2 0x1D22 JUMP JUMPDEST PUSH2 0x582 JUMP JUMPDEST STOP JUMPDEST CALLVALUE DUP1 ISZERO PUSH2 0x214 JUMPI PUSH0 DUP1 REVERT JUMPDEST POP PUSH2 0x22F PUSH1 0x4 DUP1 CALLDATASIZE SUB DUP2 ADD SWAP1 PUSH2 0x22A SWAP2 SWAP1 PUSH2 0x1E9E JUMP JUMPDEST PUSH2 0x5C5 JUMP JUMPDEST STOP JUMPDEST CALLVALUE DUP1 ISZERO PUSH2 0x23C JUMPI PUSH0 DUP1 REVERT JUMPDEST POP PUSH2 0x257 PUSH1 0x4 DUP1 CALLDATASIZE SUB DUP2 ADD SWAP1 PUSH2 0x252 SWAP2 SWAP1 PUSH2 0x1D22 JUMP JUMPDEST PUSH2 0x719 JUMP JUMPDEST STOP JUMPDEST CALLVALUE DUP1 ISZERO PUSH2 0x264 JUMPI PUSH0 DUP1 REVERT JUMPDEST POP PUSH2 0x27F PUSH1 0x4 DUP1 CALLDATASIZE SUB DUP2 ADD SWAP1 PUSH2 0x27A SWAP2 SWAP1 PUSH2 0x1C37 JUMP JUMPDEST PUSH2 0x738 JUMP JUMPDEST PUSH1 0x40 MLOAD PUSH2 0x28C SWAP2 SWAP1 PUSH2 0x1CA1 JUMP JUMPDEST PUSH1 0x40 MLOAD DUP1 SWAP2 SUB SWAP1 RETURN JUMPDEST CALLVALUE DUP1 ISZERO PUSH2 0x2A0 JUMPI PUSH0 DUP1 REVERT JUMPDEST POP PUSH2 0x2BB PUSH1 0x4 DUP1 CALLDATASIZE SUB DUP2 ADD SWAP1 PUSH2 0x2B6 SWAP2 SWAP1 PUSH2 0x1EF8 JUMP JUMPDEST PUSH2 0x749 JUMP JUMPDEST PUSH1 0x40 MLOAD PUSH2 0x2C8 SWAP2 SWAP1 PUSH2 0x1F32 JUMP JUMPDEST PUSH1 0x40 MLOAD DUP1 SWAP2 SUB SWAP1 RETURN JUMPDEST CALLVALUE DUP1 ISZERO PUSH2 0x2DC JUMPI PUSH0 DUP1 REVERT JUMPDEST POP PUSH2 0x2E5 PUSH2 0x7FF JUMP JUMPDEST STOP JUMPDEST CALLVALUE DUP1 ISZERO PUSH2 0x2F2 JUMPI PUSH0 DUP1 REVERT JUMPDEST POP PUSH2 0x2FB PUSH2 0x842 JUMP JUMPDEST PUSH1 0x40 MLOAD PUSH2 0x308 SWAP2 SWAP1 PUSH2 0x1CA1 JUMP JUMPDEST PUSH1 0x40 MLOAD DUP1 SWAP2 SUB SWAP1 RETURN JUMPDEST CALLVALUE DUP1 ISZERO PUSH2 0x31C JUMPI PUSH0 DUP1 REVERT JUMPDEST POP PUSH2 0x325 PUSH2 0x86A JUMP JUMPDEST PUSH1 0x40 MLOAD PUSH2 0x332 SWAP2 SWAP1 PUSH2 0x1BE4 JUMP JUMPDEST PUSH1 0x40 MLOAD DUP1 SWAP2 SUB SWAP1 RETURN JUMPDEST CALLVALUE DUP1 ISZERO PUSH2 0x346 JUMPI PUSH0 DUP1 REVERT JUMPDEST POP PUSH2 0x361 PUSH1 0x4 DUP1 CALLDATASIZE SUB DUP2 ADD SWAP1 PUSH2 0x35C SWAP2 SWAP1 PUSH2 0x1F75 JUMP JUMPDEST PUSH2 0x8FA JUMP JUMPDEST STOP JUMPDEST CALLVALUE DUP1 ISZERO PUSH2 0x36E JUMPI PUSH0 DUP1 REVERT JUMPDEST POP PUSH2 0x389 PUSH1 0x4 DUP1 CALLDATASIZE SUB DUP2 ADD SWAP1 PUSH2 0x384 SWAP2 SWAP1 PUSH2 0x2051 JUMP JUMPDEST PUSH2 0x93D JUMP JUMPDEST STOP JUMPDEST CALLVALUE DUP1 ISZERO PUSH2 0x396 JUMPI PUSH0 DUP1 REVERT JUMPDEST POP PUSH2 0x3B1 PUSH1 0x4 DUP1 CALLDATASIZE SUB DUP2 ADD SWAP1 PUSH2 0x3AC SWAP2 SWAP1 PUSH2 0x1C37 JUMP JUMPDEST PUSH2 0x95A JUMP JUMPDEST PUSH1 0x40 MLOAD PUSH2 0x3BE SWAP2 SWAP1 PUSH2 0x1BE4 JUMP JUMPDEST PUSH1 0x40 MLOAD DUP1 SWAP2 SUB SWAP1 RETURN JUMPDEST PUSH2 0x3CF PUSH2 0xA65 JUMP JUMPDEST STOP JUMPDEST CALLVALUE DUP1 ISZERO PUSH2 0x3DC JUMPI PUSH0 DUP1 REVERT JUMPDEST POP PUSH2 0x3F7 PUSH1 0x4 DUP1 CALLDATASIZE SUB DUP2 ADD SWAP1 PUSH2 0x3F2 SWAP2 SWAP1 PUSH2 0x20D1 JUMP JUMPDEST PUSH2 0xA6F JUMP JUMPDEST PUSH1 0x40 MLOAD PUSH2 0x404 SWAP2 SWAP1 PUSH2 0x1B5B JUMP JUMPDEST PUSH1 0x40 MLOAD DUP1 SWAP2 SUB SWAP1 RETURN JUMPDEST CALLVALUE DUP1 ISZERO PUSH2 0x418 JUMPI PUSH0 DUP1 REVERT JUMPDEST POP PUSH2 0x433 PUSH1 0x4 DUP1 CALLDATASIZE SUB DUP2 ADD SWAP1 PUSH2 0x42E SWAP2 SWAP1 PUSH2 0x1EF8 JUMP JUMPDEST PUSH2 0xAFD JUMP JUMPDEST STOP JUMPDEST PUSH0 PUSH4 0x49064906 PUSH1 0xE0 SHL PUSH28 0xFFFFFFFFFFFFFFFFFFFFFFFFFFFFFFFFFFFFFFFFFFFFFFFFFFFFFFFF NOT AND DUP3 PUSH28 0xFFFFFFFFFFFFFFFFFFFFFFFFFFFFFFFFFFFFFFFFFFFFFFFFFFFFFFFF NOT AND EQ DUP1 PUSH2 0x48E JUMPI POP PUSH2 0x48D DUP3 PUSH2 0xB40 JUMP JUMPDEST JUMPDEST SWAP1 POP SWAP2 SWAP1 POP JUMP JUMPDEST PUSH1 0x60 PUSH0 DUP1 SLOAD PUSH2 0x4A3 SWAP1 PUSH2 0x213C JUMP JUMPDEST DUP1 PUSH1 0x1F ADD PUSH1 0x20 DUP1 SWAP2 DIV MUL PUSH1 0x20 ADD PUSH1 0x40 MLOAD SWAP1 DUP2 ADD PUSH1 0x40 MSTORE DUP1 SWAP3 SWAP2 SWAP1 DUP2 DUP2 MSTORE PUSH1 0x20 ADD DUP3 DUP1 SLOAD PUSH2 0x4CF SWAP1 PUSH2 0x213C JUMP JUMPDEST DUP1 ISZERO PUSH2 0x51A JUMPI DUP1 PUSH1 0x1F LT PUSH2 0x4F1 JUMPI PUSH2 0x100 DUP1 DUP4 SLOAD DIV MUL DUP4 MSTORE SWAP2 PUSH1 0x20 ADD SWAP2 PUSH2 0x51A JUMP JUMPDEST DUP3 ADD SWAP2 SWAP1 PUSH0 MSTORE PUSH1 0x20 PUSH0 KECCAK256 SWAP1 JUMPDEST DUP2 SLOAD DUP2 MSTORE SWAP1 PUSH1 0x1 ADD SWAP1 PUSH1 0x20 ADD DUP1 DUP4 GT PUSH2 0x4FD JUMPI DUP3 SWAP1 SUB PUSH1 0x1F AND DUP3 ADD SWAP2 JUMPDEST POP POP POP POP POP SWAP1 POP SWAP1 JUMP JUMPDEST PUSH0 PUSH2 0x52E DUP3 PUSH2 0xC21 JUMP JUMPDEST POP PUSH2 0x538 DUP3 PUSH2 0xCA7 JUMP JUMPDEST SWAP1 POP SWAP2 SWAP1 POP JUMP JUMPDEST PUSH2 0x547 PUSH2 0xCE0 JUMP JUMPDEST PUSH1 0x40 MLOAD PUSH32 0x8C379A000000000000000000000000000000000000000000000000000000000 DUP2 MSTORE PUSH1 0x4 ADD PUSH2 0x579 SWAP1 PUSH2 0x21B6 JUMP JUMPDEST PUSH1 0x40 MLOAD DUP1 SWAP2 SUB SWAP1 REVERT JUMPDEST PUSH2 0x58A PUSH2 0xCE0 JUMP JUMPDEST PUSH1 0x40 MLOAD PUSH32 0x8C379A000000000000000000000000000000000000000000000000000000000 DUP2 MSTORE PUSH1 0x4 ADD PUSH2 0x5BC SWAP1 PUSH2 0x2244 JUMP JUMPDEST PUSH1 0x40 MLOAD DUP1 SWAP2 SUB SWAP1 REVERT JUMPDEST PUSH2 0x5CD PUSH2 0xCE0 JUMP JUMPDEST PUSH8 0xDE0B6B3A7640000 SELFBALANCE LT ISZERO PUSH2 0x618 JUMPI PUSH1 0x40 MLOAD PUSH32 0x8C379A000000000000000000000000000000000000000000000000000000000 DUP2 MSTORE PUSH1 0x4 ADD PUSH2 0x60F SWAP1 PUSH2 0x22AC JUMP JUMPDEST PUSH1 0x40 MLOAD DUP1 SWAP2 SUB SWAP1 REVERT JUMPDEST PUSH0 PUSH1 0x8 SLOAD SWAP1 POP PUSH2 0x628 CALLER DUP3 PUSH2 0xD67 JUMP JUMPDEST PUSH2 0x632 DUP2 DUP4 PUSH2 0xD84 JUMP JUMPDEST PUSH1 0x8 PUSH0 DUP2 SLOAD DUP1 SWAP3 SWAP2 SWAP1 PUSH2 0x644 SWAP1 PUSH2 0x22F7 JUMP JUMPDEST SWAP2 SWAP1 POP SSTORE POP PUSH0 DUP4 PUSH20 0xFFFFFFFFFFFFFFFFFFFFFFFFFFFFFFFFFFFFFFFF AND PUSH8 0xDE0B6B3A7640000 PUSH1 0x40 MLOAD PUSH2 0x676 SWAP1 PUSH2 0x236B JUMP JUMPDEST PUSH0 PUSH1 0x40 MLOAD DUP1 DUP4 SUB DUP2 DUP6 DUP8 GAS CALL SWAP3 POP POP POP RETURNDATASIZE DUP1 PUSH0 DUP2 EQ PUSH2 0x6B0 JUMPI PUSH1 0x40 MLOAD SWAP2 POP PUSH1 0x1F NOT PUSH1 0x3F RETURNDATASIZE ADD AND DUP3 ADD PUSH1 0x40 MSTORE RETURNDATASIZE DUP3 MSTORE RETURNDATASIZE PUSH0 PUSH1 0x20 DUP5 ADD RETURNDATACOPY PUSH2 0x6B5 JUMP JUMPDEST PUSH1 0x60 SWAP2 POP JUMPDEST POP POP SWAP1 POP DUP1 PUSH2 0x6F9 JUMPI PUSH1 0x40 MLOAD PUSH32 0x8C379A000000000000000000000000000000000000000000000000000000000 DUP2 MSTORE PUSH1 0x4 ADD PUSH2 0x6F0 SWAP1 PUSH2 0x23C9 JUMP JUMPDEST PUSH1 0x40 MLOAD DUP1 SWAP2 SUB SWAP1 REVERT JUMPDEST PUSH2 0x713 CALLER DUP6 DUP5 PUSH1 0x40 MLOAD DUP1 PUSH1 0x20 ADD PUSH1 0x40 MSTORE DUP1 PUSH0 DUP2 MSTORE POP PUSH2 0xDDE JUMP JUMPDEST POP POP POP POP JUMP JUMPDEST PUSH2 0x733 DUP4 DUP4 DUP4 PUSH1 0x40 MLOAD DUP1 PUSH1 0x20 ADD PUSH1 0x40 MSTORE DUP1 PUSH0 DUP2 MSTORE POP PUSH2 0x93D JUMP JUMPDEST POP POP POP JUMP JUMPDEST PUSH0 PUSH2 0x742 DUP3 PUSH2 0xC21 JUMP JUMPDEST SWAP1 POP SWAP2 SWAP1 POP JUMP JUMPDEST PUSH0 DUP1 PUSH20 0xFFFFFFFFFFFFFFFFFFFFFFFFFFFFFFFFFFFFFFFF AND DUP3 PUSH20 0xFFFFFFFFFFFFFFFFFFFFFFFFFFFFFFFFFFFFFFFF AND SUB PUSH2 0x7BA JUMPI PUSH0 PUSH1 0x40 MLOAD PUSH32 0x89C62B6400000000000000000000000000000000000000000000000000000000 DUP2 MSTORE PUSH1 0x4 ADD PUSH2 0x7B1 SWAP2 SWAP1 PUSH2 0x1CA1 JUMP JUMPDEST PUSH1 0x40 MLOAD DUP1 SWAP2 SUB SWAP1 REVERT JUMPDEST PUSH1 0x3 PUSH0 DUP4 PUSH20 0xFFFFFFFFFFFFFFFFFFFFFFFFFFFFFFFFFFFFFFFF AND PUSH20 0xFFFFFFFFFFFFFFFFFFFFFFFFFFFFFFFFFFFFFFFF AND DUP2 MSTORE PUSH1 0x20 ADD SWAP1 DUP2 MSTORE PUSH1 0x20 ADD PUSH0 KECCAK256 SLOAD SWAP1 POP SWAP2 SWAP1 POP JUMP JUMPDEST PUSH2 0x807 PUSH2 0xCE0 JUMP JUMPDEST PUSH1 0x40 MLOAD PUSH32 0x8C379A000000000000000000000000000000000000000000000000000000000 DUP2 MSTORE PUSH1 0x4 ADD PUSH2 0x839 SWAP1 PUSH2 0x2457 JUMP JUMPDEST PUSH1 0x40 MLOAD DUP1 SWAP2 SUB SWAP1 REVERT JUMPDEST PUSH0 PUSH1 0x7 PUSH0 SWAP1 SLOAD SWAP1 PUSH2 0x100 EXP SWAP1 DIV PUSH20 0xFFFFFFFFFFFFFFFFFFFFFFFFFFFFFFFFFFFFFFFF AND SWAP1 POP SWAP1 JUMP JUMPDEST PUSH1 0x60 PUSH1 0x1 DUP1 SLOAD PUSH2 0x879 SWAP1 PUSH2 0x213C JUMP JUMPDEST DUP1 PUSH1 0x1F ADD PUSH1 0x20 DUP1 SWAP2 DIV MUL PUSH1 0x20 ADD PUSH1 0x40 MLOAD SWAP1 DUP2 ADD PUSH1 0x40 MSTORE DUP1 SWAP3 SWAP2 SWAP1 DUP2 DUP2 MSTORE PUSH1 0x20 ADD DUP3 DUP1 SLOAD PUSH2 0x8A5 SWAP1 PUSH2 0x213C JUMP JUMPDEST DUP1 ISZERO PUSH2 0x8F0 JUMPI DUP1 PUSH1 0x1F LT PUSH2 0x8C7 JUMPI PUSH2 0x100 DUP1 DUP4 SLOAD DIV MUL DUP4 MSTORE SWAP2 PUSH1 0x20 ADD SWAP2 PUSH2 0x8F0 JUMP JUMPDEST DUP3 ADD SWAP2 SWAP1 PUSH0 MSTORE PUSH1 0x20 PUSH0 KECCAK256 SWAP1 JUMPDEST DUP2 SLOAD DUP2 MSTORE SWAP1 PUSH1 0x1 ADD SWAP1 PUSH1 0x20 ADD DUP1 DUP4 GT PUSH2 0x8D3 JUMPI DUP3 SWAP1 SUB PUSH1 0x1F AND DUP3 ADD SWAP2 JUMPDEST POP POP POP POP POP SWAP1 POP SWAP1 JUMP JUMPDEST PUSH2 0x902 PUSH2 0xCE0 JUMP JUMPDEST PUSH1 0x40 MLOAD PUSH32 0x8C379A000000000000000000000000000000000000000000000000000000000 DUP2 MSTORE PUSH1 0x4 ADD PUSH2 0x934 SWAP1 PUSH2 0x24E5 JUMP JUMPDEST PUSH1 0x40 MLOAD DUP1 SWAP2 SUB SWAP1 REVERT JUMPDEST PUSH2 0x948 DUP5 DUP5 DUP5 PUSH2 0x582 JUMP JUMPDEST PUSH2 0x954 DUP5 DUP5 DUP5 DUP5 PUSH2 0xDFB JUMP JUMPDEST POP POP POP POP JUMP JUMPDEST PUSH1 0x60 PUSH2 0x965 DUP3 PUSH2 0xC21 JUMP JUMPDEST POP PUSH0 PUSH1 0x6 PUSH0 DUP5 DUP2 MSTORE PUSH1 0x20 ADD SWAP1 DUP2 MSTORE PUSH1 0x20 ADD PUSH0 KECCAK256 DUP1 SLOAD PUSH2 0x983 SWAP1 PUSH2 0x213C JUMP JUMPDEST DUP1 PUSH1 0x1F ADD PUSH1 0x20 DUP1 SWAP2 DIV MUL PUSH1 0x20 ADD PUSH1 0x40 MLOAD SWAP1 DUP2 ADD PUSH1 0x40 MSTORE DUP1 SWAP3 SWAP2 SWAP1 DUP2 DUP2 MSTORE PUSH1 0x20 ADD DUP3 DUP1 SLOAD PUSH2 0x9AF SWAP1 PUSH2 0x213C JUMP JUMPDEST DUP1 ISZERO PUSH2 0x9FA JUMPI DUP1 PUSH1 0x1F LT PUSH2 0x9D1 JUMPI PUSH2 0x100 DUP1 DUP4 SLOAD DIV MUL DUP4 MSTORE SWAP2 PUSH1 0x20 ADD SWAP2 PUSH2 0x9FA JUMP JUMPDEST DUP3 ADD SWAP2 SWAP1 PUSH0 MSTORE PUSH1 0x20 PUSH0 KECCAK256 SWAP1 JUMPDEST DUP2 SLOAD DUP2 MSTORE SWAP1 PUSH1 0x1 ADD SWAP1 PUSH1 0x20 ADD DUP1 DUP4 GT PUSH2 0x9DD JUMPI DUP3 SWAP1 SUB PUSH1 0x1F AND DUP3 ADD SWAP2 JUMPDEST POP POP POP POP POP SWAP1 POP PUSH0 PUSH2 0xA0A PUSH2 0xFAD JUMP JUMPDEST SWAP1 POP PUSH0 DUP2 MLOAD SUB PUSH2 0xA1E JUMPI DUP2 SWAP3 POP POP POP PUSH2 0xA60 JUMP JUMPDEST PUSH0 DUP3 MLOAD GT ISZERO PUSH2 0xA52 JUMPI DUP1 DUP3 PUSH1 0x40 MLOAD PUSH1 0x20 ADD PUSH2 0xA3A SWAP3 SWAP2 SWAP1 PUSH2 0x253D JUMP JUMPDEST PUSH1 0x40 MLOAD PUSH1 0x20 DUP2 DUP4 SUB SUB DUP2 MSTORE SWAP1 PUSH1 0x40 MSTORE SWAP3 POP POP POP PUSH2 0xA60 JUMP JUMPDEST PUSH2 0xA5B DUP5 PUSH2 0xFC3 JUMP JUMPDEST SWAP3 POP POP POP JUMPDEST SWAP2 SWAP1 POP JUMP JUMPDEST PUSH2 0xA6D PUSH2 0xCE0 JUMP JUMPDEST JUMP JUMPDEST PUSH0 PUSH1 0x5 PUSH0 DUP5 PUSH20 0xFFFFFFFFFFFFFFFFFFFFFFFFFFFFFFFFFFFFFFFF AND PUSH20 0xFFFFFFFFFFFFFFFFFFFFFFFFFFFFFFFFFFFFFFFF AND DUP2 MSTORE PUSH1 0x20 ADD SWAP1 DUP2 MSTORE PUSH1 0x20 ADD PUSH0 KECCAK256 PUSH0 DUP4 PUSH20 0xFFFFFFFFFFFFFFFFFFFFFFFFFFFFFFFFFFFFFFFF AND PUSH20 0xFFFFFFFFFFFFFFFFFFFFFFFFFFFFFFFFFFFFFFFF AND DUP2 MSTORE PUSH1 0x20 ADD SWAP1 DUP2 MSTORE PUSH1 0x20 ADD PUSH0 KECCAK256 PUSH0 SWAP1 SLOAD SWAP1 PUSH2 0x100 EXP SWAP1 DIV PUSH1 0xFF AND SWAP1 POP SWAP3 SWAP2 POP POP JUMP JUMPDEST PUSH2 0xB05 PUSH2 0xCE0 JUMP JUMPDEST PUSH1 0x40 MLOAD PUSH32 0x8C379A000000000000000000000000000000000000000000000000000000000 DUP2 MSTORE PUSH1 0x4 ADD PUSH2 0xB37 SWAP1 PUSH2 0x25D0 JUMP JUMPDEST PUSH1 0x40 MLOAD DUP1 SWAP2 SUB SWAP1 REVERT JUMPDEST PUSH0 PUSH32 0x80AC58CD00000000000000000000000000000000000000000000000000000000 PUSH28 0xFFFFFFFFFFFFFFFFFFFFFFFFFFFFFFFFFFFFFFFFFFFFFFFFFFFFFFFF NOT AND DUP3 PUSH28 0xFFFFFFFFFFFFFFFFFFFFFFFFFFFFFFFFFFFFFFFFFFFFFFFFFFFFFFFF NOT AND EQ DUP1 PUSH2 0xC0A JUMPI POP PUSH32 0x5B5E139F00000000000000000000000000000000000000000000000000000000 PUSH28 0xFFFFFFFFFFFFFFFFFFFFFFFFFFFFFFFFFFFFFFFFFFFFFFFFFFFFFFFF NOT AND DUP3 PUSH28 0xFFFFFFFFFFFFFFFFFFFFFFFFFFFFFFFFFFFFFFFFFFFFFFFFFFFFFFFF NOT AND EQ JUMPDEST DUP1 PUSH2 0xC1A JUMPI POP PUSH2 0xC19 DUP3 PUSH2 0x1029 JUMP JUMPDEST JUMPDEST SWAP1 POP SWAP2 SWAP1 POP JUMP JUMPDEST PUSH0 DUP1 PUSH2 0xC2C DUP4 PUSH2 0x1092 JUMP JUMPDEST SWAP1 POP PUSH0 PUSH20 0xFFFFFFFFFFFFFFFFFFFFFFFFFFFFFFFFFFFFFFFF AND DUP2 PUSH20 0xFFFFFFFFFFFFFFFFFFFFFFFFFFFFFFFFFFFFFFFF AND SUB PUSH2 0xC9E JUMPI DUP3 PUSH1 0x40 MLOAD PUSH32 0x7E27328900000000000000000000000000000000000000000000000000000000 DUP2 MSTORE PUSH1 0x4 ADD PUSH2 0xC95 SWAP2 SWAP1 PUSH2 0x1F32 JUMP JUMPDEST PUSH1 0x40 MLOAD DUP1 SWAP2 SUB SWAP1 REVERT JUMPDEST DUP1 SWAP2 POP POP SWAP2 SWAP1 POP JUMP JUMPDEST PUSH0 PUSH1 0x4 PUSH0 DUP4 DUP2 MSTORE PUSH1 0x20 ADD SWAP1 DUP2 MSTORE PUSH1 0x20 ADD PUSH0 KECCAK256 PUSH0 SWAP1 SLOAD SWAP1 PUSH2 0x100 EXP SWAP1 DIV PUSH20 0xFFFFFFFFFFFFFFFFFFFFFFFFFFFFFFFFFFFFFFFF AND SWAP1 POP SWAP2 SWAP1 POP JUMP JUMPDEST PUSH2 0xCE8 PUSH2 0x10CB JUMP JUMPDEST PUSH20 0xFFFFFFFFFFFFFFFFFFFFFFFFFFFFFFFFFFFFFFFF AND PUSH2 0xD06 PUSH2 0x842 JUMP JUMPDEST PUSH20 0xFFFFFFFFFFFFFFFFFFFFFFFFFFFFFFFFFFFFFFFF AND EQ PUSH2 0xD65 JUMPI PUSH2 0xD29 PUSH2 0x10CB JUMP JUMPDEST PUSH1 0x40 MLOAD PUSH32 0x118CDAA700000000000000000000000000000000000000000000000000000000 DUP2 MSTORE PUSH1 0x4 ADD PUSH2 0xD5C SWAP2 SWAP1 PUSH2 0x1CA1 JUMP JUMPDEST PUSH1 0x40 MLOAD DUP1 SWAP2 SUB SWAP1 REVERT JUMPDEST JUMP JUMPDEST PUSH2 0xD80 DUP3 DUP3 PUSH1 0x40 MLOAD DUP1 PUSH1 0x20 ADD PUSH1 0x40 MSTORE DUP1 PUSH0 DUP2 MSTORE POP PUSH2 0x10D2 JUMP JUMPDEST POP POP JUMP JUMPDEST DUP1 PUSH1 0x6 PUSH0 DUP5 DUP2 MSTORE PUSH1 0x20 ADD SWAP1 DUP2 MSTORE PUSH1 0x20 ADD PUSH0 KECCAK256 SWAP1 DUP2 PUSH2 0xDA2 SWAP2 SWAP1 PUSH2 0x278B JUMP JUMPDEST POP PUSH32 0xF8E1A15ABA9398E019F0B49DF1A4FDE98EE17AE345CB5F6B5E2C27F5033E8CE7 DUP3 PUSH1 0x40 MLOAD PUSH2 0xDD2 SWAP2 SWAP1 PUSH2 0x1F32 JUMP JUMPDEST PUSH1 0x40 MLOAD DUP1 SWAP2 SUB SWAP1 LOG1 POP POP JUMP JUMPDEST PUSH2 0xDE9 DUP5 DUP5 DUP5 PUSH2 0x10ED JUMP JUMPDEST PUSH2 0xDF5 DUP5 DUP5 DUP5 DUP5 PUSH2 0xDFB JUMP JUMPDEST POP POP POP POP JUMP JUMPDEST PUSH0 DUP4 PUSH20 0xFFFFFFFFFFFFFFFFFFFFFFFFFFFFFFFFFFFFFFFF AND EXTCODESIZE GT ISZERO PUSH2 0xFA7 JUMPI DUP3 PUSH20 0xFFFFFFFFFFFFFFFFFFFFFFFFFFFFFFFFFFFFFFFF AND PUSH4 0x150B7A02 PUSH2 0xE3E PUSH2 0x10CB JUMP JUMPDEST DUP7 DUP6 DUP6 PUSH1 0x40 MLOAD DUP6 PUSH4 0xFFFFFFFF AND PUSH1 0xE0 SHL DUP2 MSTORE PUSH1 0x4 ADD PUSH2 0xE60 SWAP5 SWAP4 SWAP3 SWAP2 SWAP1 PUSH2 0x28AC JUMP JUMPDEST PUSH1 0x20 PUSH1 0x40 MLOAD DUP1 DUP4 SUB DUP2 PUSH0 DUP8 GAS CALL SWAP3 POP POP POP DUP1 ISZERO PUSH2 0xE9B JUMPI POP PUSH1 0x40 MLOAD RETURNDATASIZE PUSH1 0x1F NOT PUSH1 0x1F DUP3 ADD AND DUP3 ADD DUP1 PUSH1 0x40 MSTORE POP DUP2 ADD SWAP1 PUSH2 0xE98 SWAP2 SWAP1 PUSH2 0x290A JUMP JUMPDEST PUSH1 0x1 JUMPDEST PUSH2 0xF1C JUMPI RETURNDATASIZE DUP1 PUSH0 DUP2 EQ PUSH2 0xEC9 JUMPI PUSH1 0x40 MLOAD SWAP2 POP PUSH1 0x1F NOT PUSH1 0x3F RETURNDATASIZE ADD AND DUP3 ADD PUSH1 0x40 MSTORE RETURNDATASIZE DUP3 MSTORE RETURNDATASIZE PUSH0 PUSH1 0x20 DUP5 ADD RETURNDATACOPY PUSH2 0xECE JUMP JUMPDEST PUSH1 0x60 SWAP2 POP JUMPDEST POP PUSH0 DUP2 MLOAD SUB PUSH2 0xF14 JUMPI DUP4 PUSH1 0x40 MLOAD PUSH32 0x64A0AE9200000000000000000000000000000000000000000000000000000000 DUP2 MSTORE PUSH1 0x4 ADD PUSH2 0xF0B SWAP2 SWAP1 PUSH2 0x1CA1 JUMP JUMPDEST PUSH1 0x40 MLOAD DUP1 SWAP2 SUB SWAP1 REVERT JUMPDEST DUP1 MLOAD DUP2 PUSH1 0x20 ADD REVERT JUMPDEST PUSH4 0x150B7A02 PUSH1 0xE0 SHL PUSH28 0xFFFFFFFFFFFFFFFFFFFFFFFFFFFFFFFFFFFFFFFFFFFFFFFFFFFFFFFF NOT AND DUP2 PUSH28 0xFFFFFFFFFFFFFFFFFFFFFFFFFFFFFFFFFFFFFFFFFFFFFFFFFFFFFFFF NOT AND EQ PUSH2 0xFA5 JUMPI DUP4 PUSH1 0x40 MLOAD PUSH32 0x64A0AE9200000000000000000000000000000000000000000000000000000000 DUP2 MSTORE PUSH1 0x4 ADD PUSH2 0xF9C SWAP2 SWAP1 PUSH2 0x1CA1 JUMP JUMPDEST PUSH1 0x40 MLOAD DUP1 SWAP2 SUB SWAP1 REVERT JUMPDEST POP JUMPDEST POP POP POP POP JUMP JUMPDEST PUSH1 0x60 PUSH1 0x40 MLOAD DUP1 PUSH1 0x20 ADD PUSH1 0x40 MSTORE DUP1 PUSH0 DUP2 MSTORE POP SWAP1 POP SWAP1 JUMP JUMPDEST PUSH1 0x60 PUSH2 0xFCE DUP3 PUSH2 0xC21 JUMP JUMPDEST POP PUSH0 PUSH2 0xFD8 PUSH2 0xFAD JUMP JUMPDEST SWAP1 POP PUSH0 DUP2 MLOAD GT PUSH2 0xFF6 JUMPI PUSH1 0x40 MLOAD DUP1 PUSH1 0x20 ADD PUSH1 0x40 MSTORE DUP1 PUSH0 DUP2 MSTORE POP PUSH2 0x1021 JUMP JUMPDEST DUP1 PUSH2 0x1000 DUP5 PUSH2 0x1255 JUMP JUMPDEST PUSH1 0x40 MLOAD PUSH1 0x20 ADD PUSH2 0x1011 SWAP3 SWAP2 SWAP1 PUSH2 0x253D JUMP JUMPDEST PUSH1 0x40 MLOAD PUSH1 0x20 DUP2 DUP4 SUB SUB DUP2 MSTORE SWAP1 PUSH1 0x40 MSTORE JUMPDEST SWAP2 POP POP SWAP2 SWAP1 POP JUMP JUMPDEST PUSH0 PUSH32 0x1FFC9A700000000000000000000000000000000000000000000000000000000 PUSH28 0xFFFFFFFFFFFFFFFFFFFFFFFFFFFFFFFFFFFFFFFFFFFFFFFFFFFFFFFF NOT AND DUP3 PUSH28 0xFFFFFFFFFFFFFFFFFFFFFFFFFFFFFFFFFFFFFFFFFFFFFFFFFFFFFFFF NOT AND EQ SWAP1 POP SWAP2 SWAP1 POP JUMP JUMPDEST PUSH0 PUSH1 0x2 PUSH0 DUP4 DUP2 MSTORE PUSH1 0x20 ADD SWAP1 DUP2 MSTORE PUSH1 0x20 ADD PUSH0 KECCAK256 PUSH0 SWAP1 SLOAD SWAP1 PUSH2 0x100 EXP SWAP1 DIV PUSH20 0xFFFFFFFFFFFFFFFFFFFFFFFFFFFFFFFFFFFFFFFF AND SWAP1 POP SWAP2 SWAP1 POP JUMP JUMPDEST PUSH0 CALLER SWAP1 POP SWAP1 JUMP JUMPDEST PUSH2 0x10DC DUP4 DUP4 PUSH2 0x131F JUMP JUMPDEST PUSH2 0x10E8 PUSH0 DUP5 DUP5 DUP5 PUSH2 0xDFB JUMP JUMPDEST POP POP POP JUMP JUMPDEST PUSH0 PUSH20 0xFFFFFFFFFFFFFFFFFFFFFFFFFFFFFFFFFFFFFFFF AND DUP3 PUSH20 0xFFFFFFFFFFFFFFFFFFFFFFFFFFFFFFFFFFFFFFFF AND SUB PUSH2 0x115D JUMPI PUSH0 PUSH1 0x40 MLOAD PUSH32 0x64A0AE9200000000000000000000000000000000000000000000000000000000 DUP2 MSTORE PUSH1 0x4 ADD PUSH2 0x1154 SWAP2 SWAP1 PUSH2 0x1CA1 JUMP JUMPDEST PUSH1 0x40 MLOAD DUP1 SWAP2 SUB SWAP1 REVERT JUMPDEST PUSH0 PUSH2 0x1169 DUP4 DUP4 PUSH0 PUSH2 0x1412 JUMP JUMPDEST SWAP1 POP PUSH0 PUSH20 0xFFFFFFFFFFFFFFFFFFFFFFFFFFFFFFFFFFFFFFFF AND DUP2 PUSH20 0xFFFFFFFFFFFFFFFFFFFFFFFFFFFFFFFFFFFFFFFF AND SUB PUSH2 0x11DB JUMPI DUP2 PUSH1 0x40 MLOAD PUSH32 0x7E27328900000000000000000000000000000000000000000000000000000000 DUP2 MSTORE PUSH1 0x4 ADD PUSH2 0x11D2 SWAP2 SWAP1 PUSH2 0x1F32 JUMP JUMPDEST PUSH1 0x40 MLOAD DUP1 SWAP2 SUB SWAP1 REVERT JUMPDEST DUP4 PUSH20 0xFFFFFFFFFFFFFFFFFFFFFFFFFFFFFFFFFFFFFFFF AND DUP2 PUSH20 0xFFFFFFFFFFFFFFFFFFFFFFFFFFFFFFFFFFFFFFFF AND EQ PUSH2 0x124F JUMPI DUP4 DUP3 DUP3 PUSH1 0x40 MLOAD PUSH32 0x64283D7B00000000000000000000000000000000000000000000000000000000 DUP2 MSTORE PUSH1 0x4 ADD PUSH2 0x1246 SWAP4 SWAP3 SWAP2 SWAP1 PUSH2 0x2935 JUMP JUMPDEST PUSH1 0x40 MLOAD DUP1 SWAP2 SUB SWAP1 REVERT JUMPDEST POP POP POP POP JUMP JUMPDEST PUSH1 0x60 PUSH0 PUSH1 0x1 PUSH2 0x1263 DUP5 PUSH2 0x161D JUMP JUMPDEST ADD SWAP1 POP PUSH0 DUP2 PUSH8 0xFFFFFFFFFFFFFFFF DUP2 GT ISZERO PUSH2 0x1281 JUMPI PUSH2 0x1280 PUSH2 0x1D7A JUMP JUMPDEST JUMPDEST PUSH1 0x40 MLOAD SWAP1 DUP1 DUP3 MSTORE DUP1 PUSH1 0x1F ADD PUSH1 0x1F NOT AND PUSH1 0x20 ADD DUP3 ADD PUSH1 0x40 MSTORE DUP1 ISZERO PUSH2 0x12B3 JUMPI DUP2 PUSH1 0x20 ADD PUSH1 0x1 DUP3 MUL DUP1 CALLDATASIZE DUP4 CALLDATACOPY DUP1 DUP3 ADD SWAP2 POP POP SWAP1 POP JUMPDEST POP SWAP1 POP PUSH0 DUP3 PUSH1 0x20 ADD DUP3 ADD SWAP1 POP JUMPDEST PUSH1 0x1 ISZERO PUSH2 0x1314 JUMPI DUP1 DUP1 PUSH1 0x1 SWAP1 SUB SWAP2 POP POP PUSH32 0x3031323334353637383961626364656600000000000000000000000000000000 PUSH1 0xA DUP7 MOD BYTE DUP2 MSTORE8 PUSH1 0xA DUP6 DUP2 PUSH2 0x1309 JUMPI PUSH2 0x1308 PUSH2 0x296A JUMP JUMPDEST JUMPDEST DIV SWAP5 POP PUSH0 DUP6 SUB PUSH2 0x12C0 JUMPI JUMPDEST DUP2 SWAP4 POP POP POP POP SWAP2 SWAP1 POP JUMP JUMPDEST PUSH0 PUSH20 0xFFFFFFFFFFFFFFFFFFFFFFFFFFFFFFFFFFFFFFFF AND DUP3 PUSH20 0xFFFFFFFFFFFFFFFFFFFFFFFFFFFFFFFFFFFFFFFF AND SUB PUSH2 0x138F JUMPI PUSH0 PUSH1 0x40 MLOAD PUSH32 0x64A0AE9200000000000000000000000000000000000000000000000000000000 DUP2 MSTORE PUSH1 0x4 ADD PUSH2 0x1386 SWAP2 SWAP1 PUSH2 0x1CA1 JUMP JUMPDEST PUSH1 0x40 MLOAD DUP1 SWAP2 SUB SWAP1 REVERT JUMPDEST PUSH0 PUSH2 0x139B DUP4 DUP4 PUSH0 PUSH2 0x1412 JUMP JUMPDEST SWAP1 POP PUSH0 PUSH20 0xFFFFFFFFFFFFFFFFFFFFFFFFFFFFFFFFFFFFFFFF AND DUP2 PUSH20 0xFFFFFFFFFFFFFFFFFFFFFFFFFFFFFFFFFFFFFFFF AND EQ PUSH2 0x140D JUMPI PUSH0 PUSH1 0x40 MLOAD PUSH32 0x73C6AC6E00000000000000000000000000000000000000000000000000000000 DUP2 MSTORE PUSH1 0x4 ADD PUSH2 0x1404 SWAP2 SWAP1 PUSH2 0x1CA1 JUMP JUMPDEST PUSH1 0x40 MLOAD DUP1 SWAP2 SUB SWAP1 REVERT JUMPDEST POP POP POP JUMP JUMPDEST PUSH0 DUP1 PUSH2 0x141D DUP5 PUSH2 0x1092 JUMP JUMPDEST SWAP1 POP PUSH0 PUSH20 0xFFFFFFFFFFFFFFFFFFFFFFFFFFFFFFFFFFFFFFFF AND DUP4 PUSH20 0xFFFFFFFFFFFFFFFFFFFFFFFFFFFFFFFFFFFFFFFF AND EQ PUSH2 0x145E JUMPI PUSH2 0x145D DUP2 DUP5 DUP7 PUSH2 0x176E JUMP JUMPDEST JUMPDEST PUSH0 PUSH20 0xFFFFFFFFFFFFFFFFFFFFFFFFFFFFFFFFFFFFFFFF AND DUP2 PUSH20 0xFFFFFFFFFFFFFFFFFFFFFFFFFFFFFFFFFFFFFFFF AND EQ PUSH2 0x14E9 JUMPI PUSH2 0x149D PUSH0 DUP6 PUSH0 DUP1 PUSH2 0x1831 JUMP JUMPDEST PUSH1 0x1 PUSH1 0x3 PUSH0 DUP4 PUSH20 0xFFFFFFFFFFFFFFFFFFFFFFFFFFFFFFFFFFFFFFFF AND PUSH20 0xFFFFFFFFFFFFFFFFFFFFFFFFFFFFFFFFFFFFFFFF AND DUP2 MSTORE PUSH1 0x20 ADD SWAP1 DUP2 MSTORE PUSH1 0x20 ADD PUSH0 KECCAK256 PUSH0 DUP3 DUP3 SLOAD SUB SWAP3 POP POP DUP2 SWAP1 SSTORE POP JUMPDEST PUSH0 PUSH20 0xFFFFFFFFFFFFFFFFFFFFFFFFFFFFFFFFFFFFFFFF AND DUP6 PUSH20 0xFFFFFFFFFFFFFFFFFFFFFFFFFFFFFFFFFFFFFFFF AND EQ PUSH2 0x1568 JUMPI PUSH1 0x1 PUSH1 0x3 PUSH0 DUP8 PUSH20 0xFFFFFFFFFFFFFFFFFFFFFFFFFFFFFFFFFFFFFFFF AND PUSH20 0xFFFFFFFFFFFFFFFFFFFFFFFFFFFFFFFFFFFFFFFF AND DUP2 MSTORE PUSH1 0x20 ADD SWAP1 DUP2 MSTORE PUSH1 0x20 ADD PUSH0 KECCAK256 PUSH0 DUP3 DUP3 SLOAD ADD SWAP3 POP POP DUP2 SWAP1 SSTORE POP JUMPDEST DUP5 PUSH1 0x2 PUSH0 DUP7 DUP2 MSTORE PUSH1 0x20 ADD SWAP1 DUP2 MSTORE PUSH1 0x20 ADD PUSH0 KECCAK256 PUSH0 PUSH2 0x100 EXP DUP2 SLOAD DUP2 PUSH20 0xFFFFFFFFFFFFFFFFFFFFFFFFFFFFFFFFFFFFFFFF MUL NOT AND SWAP1 DUP4 PUSH20 0xFFFFFFFFFFFFFFFFFFFFFFFFFFFFFFFFFFFFFFFF AND MUL OR SWAP1 SSTORE POP DUP4 DUP6 PUSH20 0xFFFFFFFFFFFFFFFFFFFFFFFFFFFFFFFFFFFFFFFF AND DUP3 PUSH20 0xFFFFFFFFFFFFFFFFFFFFFFFFFFFFFFFFFFFFFFFF AND PUSH32 0xDDF252AD1BE2C89B69C2B068FC378DAA952BA7F163C4A11628F55A4DF523B3EF PUSH1 0x40 MLOAD PUSH1 0x40 MLOAD DUP1 SWAP2 SUB SWAP1 LOG4 DUP1 SWAP2 POP POP SWAP4 SWAP3 POP POP POP JUMP JUMPDEST PUSH0 DUP1 PUSH0 SWAP1 POP PUSH27 0x184F03E93FF9F4DAA797ED6E38ED64BF6A1F010000000000000000 DUP4 LT PUSH2 0x1679 JUMPI PUSH27 0x184F03E93FF9F4DAA797ED6E38ED64BF6A1F010000000000000000 DUP4 DUP2 PUSH2 0x166F JUMPI PUSH2 0x166E PUSH2 0x296A JUMP JUMPDEST JUMPDEST DIV SWAP3 POP PUSH1 0x40 DUP2 ADD SWAP1 POP JUMPDEST PUSH14 0x4EE2D6D415B85ACEF8100000000 DUP4 LT PUSH2 0x16B6 JUMPI PUSH14 0x4EE2D6D415B85ACEF8100000000 DUP4 DUP2 PUSH2 0x16AC JUMPI PUSH2 0x16AB PUSH2 0x296A JUMP JUMPDEST JUMPDEST DIV SWAP3 POP PUSH1 0x20 DUP2 ADD SWAP1 POP JUMPDEST PUSH7 0x2386F26FC10000 DUP4 LT PUSH2 0x16E5 JUMPI PUSH7 0x2386F26FC10000 DUP4 DUP2 PUSH2 0x16DB JUMPI PUSH2 0x16DA PUSH2 0x296A JUMP JUMPDEST JUMPDEST DIV SWAP3 POP PUSH1 0x10 DUP2 ADD SWAP1 POP JUMPDEST PUSH4 0x5F5E100 DUP4 LT PUSH2 0x170E JUMPI PUSH4 0x5F5E100 DUP4 DUP2 PUSH2 0x1704 JUMPI PUSH2 0x1703 PUSH2 0x296A JUMP JUMPDEST JUMPDEST DIV SWAP3 POP PUSH1 0x8 DUP2 ADD SWAP1 POP JUMPDEST PUSH2 0x2710 DUP4 LT PUSH2 0x1733 JUMPI PUSH2 0x2710 DUP4 DUP2 PUSH2 0x1729 JUMPI PUSH2 0x1728 PUSH2 0x296A JUMP JUMPDEST JUMPDEST DIV SWAP3 POP PUSH1 0x4 DUP2 ADD SWAP1 POP JUMPDEST PUSH1 0x64 DUP4 LT PUSH2 0x1756 JUMPI PUSH1 0x64 DUP4 DUP2 PUSH2 0x174C JUMPI PUSH2 0x174B PUSH2 0x296A JUMP JUMPDEST JUMPDEST DIV SWAP3 POP PUSH1 0x2 DUP2 ADD SWAP1 POP JUMPDEST PUSH1 0xA DUP4 LT PUSH2 0x1765 JUMPI PUSH1 0x1 DUP2 ADD SWAP1 POP JUMPDEST DUP1 SWAP2 POP POP SWAP2 SWAP1 POP JUMP JUMPDEST PUSH2 0x1779 DUP4 DUP4 DUP4 PUSH2 0x19F0 JUMP JUMPDEST PUSH2 0x182C JUMPI PUSH0 PUSH20 0xFFFFFFFFFFFFFFFFFFFFFFFFFFFFFFFFFFFFFFFF AND DUP4 PUSH20 0xFFFFFFFFFFFFFFFFFFFFFFFFFFFFFFFFFFFFFFFF AND SUB PUSH2 0x17ED JUMPI DUP1 PUSH1 0x40 MLOAD PUSH32 0x7E27328900000000000000000000000000000000000000000000000000000000 DUP2 MSTORE PUSH1 0x4 ADD PUSH2 0x17E4 SWAP2 SWAP1 PUSH2 0x1F32 JUMP JUMPDEST PUSH1 0x40 MLOAD DUP1 SWAP2 SUB SWAP1 REVERT JUMPDEST DUP2 DUP2 PUSH1 0x40 MLOAD PUSH32 0x177E802F00000000000000000000000000000000000000000000000000000000 DUP2 MSTORE PUSH1 0x4 ADD PUSH2 0x1823 SWAP3 SWAP2 SWAP1 PUSH2 0x2997 JUMP JUMPDEST PUSH1 0x40 MLOAD DUP1 SWAP2 SUB SWAP1 REVERT JUMPDEST POP POP POP JUMP JUMPDEST DUP1 DUP1 PUSH2 0x1869 JUMPI POP PUSH0 PUSH20 0xFFFFFFFFFFFFFFFFFFFFFFFFFFFFFFFFFFFFFFFF AND DUP3 PUSH20 0xFFFFFFFFFFFFFFFFFFFFFFFFFFFFFFFFFFFFFFFF AND EQ ISZERO JUMPDEST ISZERO PUSH2 0x199B JUMPI PUSH0 PUSH2 0x1878 DUP5 PUSH2 0xC21 JUMP JUMPDEST SWAP1 POP PUSH0 PUSH20 0xFFFFFFFFFFFFFFFFFFFFFFFFFFFFFFFFFFFFFFFF AND DUP4 PUSH20 0xFFFFFFFFFFFFFFFFFFFFFFFFFFFFFFFFFFFFFFFF AND EQ ISZERO DUP1 ISZERO PUSH2 0x18E2 JUMPI POP DUP3 PUSH20 0xFFFFFFFFFFFFFFFFFFFFFFFFFFFFFFFFFFFFFFFF AND DUP2 PUSH20 0xFFFFFFFFFFFFFFFFFFFFFFFFFFFFFFFFFFFFFFFF AND EQ ISZERO JUMPDEST DUP1 ISZERO PUSH2 0x18F5 JUMPI POP PUSH2 0x18F3 DUP2 DUP5 PUSH2 0xA6F JUMP JUMPDEST ISZERO JUMPDEST ISZERO PUSH2 0x1937 JUMPI DUP3 PUSH1 0x40 MLOAD PUSH32 0xA9FBF51F00000000000000000000000000000000000000000000000000000000 DUP2 MSTORE PUSH1 0x4 ADD PUSH2 0x192E SWAP2 SWAP1 PUSH2 0x1CA1 JUMP JUMPDEST PUSH1 0x40 MLOAD DUP1 SWAP2 SUB SWAP1 REVERT JUMPDEST DUP2 ISZERO PUSH2 0x1999 JUMPI DUP4 DUP6 PUSH20 0xFFFFFFFFFFFFFFFFFFFFFFFFFFFFFFFFFFFFFFFF AND DUP3 PUSH20 0xFFFFFFFFFFFFFFFFFFFFFFFFFFFFFFFFFFFFFFFF AND PUSH32 0x8C5BE1E5EBEC7D5BD14F71427D1E84F3DD0314C0F7B2291E5B200AC8C7C3B925 PUSH1 0x40 MLOAD PUSH1 0x40 MLOAD DUP1 SWAP2 SUB SWAP1 LOG4 JUMPDEST POP JUMPDEST DUP4 PUSH1 0x4 PUSH0 DUP6 DUP2 MSTORE PUSH1 0x20 ADD SWAP1 DUP2 MSTORE PUSH1 0x20 ADD PUSH0 KECCAK256 PUSH0 PUSH2 0x100 EXP DUP2 SLOAD DUP2 PUSH20 0xFFFFFFFFFFFFFFFFFFFFFFFFFFFFFFFFFFFFFFFF MUL NOT AND SWAP1 DUP4 PUSH20 0xFFFFFFFFFFFFFFFFFFFFFFFFFFFFFFFFFFFFFFFF AND MUL OR SWAP1 SSTORE POP POP POP POP POP JUMP JUMPDEST PUSH0 DUP1 PUSH20 0xFFFFFFFFFFFFFFFFFFFFFFFFFFFFFFFFFFFFFFFF AND DUP4 PUSH20 0xFFFFFFFFFFFFFFFFFFFFFFFFFFFFFFFFFFFFFFFF AND EQ ISZERO DUP1 ISZERO PUSH2 0x1AA7 JUMPI POP DUP3 PUSH20 0xFFFFFFFFFFFFFFFFFFFFFFFFFFFFFFFFFFFFFFFF AND DUP5 PUSH20 0xFFFFFFFFFFFFFFFFFFFFFFFFFFFFFFFFFFFFFFFF AND EQ DUP1 PUSH2 0x1A68 JUMPI POP PUSH2 0x1A67 DUP5 DUP5 PUSH2 0xA6F JUMP JUMPDEST JUMPDEST DUP1 PUSH2 0x1AA6 JUMPI POP DUP3 PUSH20 0xFFFFFFFFFFFFFFFFFFFFFFFFFFFFFFFFFFFFFFFF AND PUSH2 0x1A8E DUP4 PUSH2 0xCA7 JUMP JUMPDEST PUSH20 0xFFFFFFFFFFFFFFFFFFFFFFFFFFFFFFFFFFFFFFFF AND EQ JUMPDEST JUMPDEST SWAP1 POP SWAP4 SWAP3 POP POP POP JUMP JUMPDEST PUSH0 PUSH1 0x40 MLOAD SWAP1 POP SWAP1 JUMP JUMPDEST PUSH0 DUP1 REVERT JUMPDEST PUSH0 DUP1 REVERT JUMPDEST PUSH0 PUSH32 0xFFFFFFFF00000000000000000000000000000000000000000000000000000000 DUP3 AND SWAP1 POP SWAP2 SWAP1 POP JUMP JUMPDEST PUSH2 0x1AF5 DUP2 PUSH2 0x1AC1 JUMP JUMPDEST DUP2 EQ PUSH2 0x1AFF JUMPI PUSH0 DUP1 REVERT JUMPDEST POP JUMP JUMPDEST PUSH0 DUP2 CALLDATALOAD SWAP1 POP PUSH2 0x1B10 DUP2 PUSH2 0x1AEC JUMP JUMPDEST SWAP3 SWAP2 POP POP JUMP JUMPDEST PUSH0 PUSH1 0x20 DUP3 DUP5 SUB SLT ISZERO PUSH2 0x1B2B JUMPI PUSH2 0x1B2A PUSH2 0x1AB9 JUMP JUMPDEST JUMPDEST PUSH0 PUSH2 0x1B38 DUP5 DUP3 DUP6 ADD PUSH2 0x1B02 JUMP JUMPDEST SWAP2 POP POP SWAP3 SWAP2 POP POP JUMP JUMPDEST PUSH0 DUP2 ISZERO ISZERO SWAP1 POP SWAP2 SWAP1 POP JUMP JUMPDEST PUSH2 0x1B55 DUP2 PUSH2 0x1B41 JUMP JUMPDEST DUP3 MSTORE POP POP JUMP JUMPDEST PUSH0 PUSH1 0x20 DUP3 ADD SWAP1 POP PUSH2 0x1B6E PUSH0 DUP4 ADD DUP5 PUSH2 0x1B4C JUMP JUMPDEST SWAP3 SWAP2 POP POP JUMP JUMPDEST PUSH0 DUP2 MLOAD SWAP1 POP SWAP2 SWAP1 POP JUMP JUMPDEST PUSH0 DUP3 DUP3 MSTORE PUSH1 0x20 DUP3 ADD SWAP1 POP SWAP3 SWAP2 POP POP JUMP JUMPDEST DUP3 DUP2 DUP4 MCOPY PUSH0 DUP4 DUP4 ADD MSTORE POP POP POP JUMP JUMPDEST PUSH0 PUSH1 0x1F NOT PUSH1 0x1F DUP4 ADD AND SWAP1 POP SWAP2 SWAP1 POP JUMP JUMPDEST PUSH0 PUSH2 0x1BB6 DUP3 PUSH2 0x1B74 JUMP JUMPDEST PUSH2 0x1BC0 DUP2 DUP6 PUSH2 0x1B7E JUMP JUMPDEST SWAP4 POP PUSH2 0x1BD0 DUP2 DUP6 PUSH1 0x20 DUP7 ADD PUSH2 0x1B8E JUMP JUMPDEST PUSH2 0x1BD9 DUP2 PUSH2 0x1B9C JUMP JUMPDEST DUP5 ADD SWAP2 POP POP SWAP3 SWAP2 POP POP JUMP JUMPDEST PUSH0 PUSH1 0x20 DUP3 ADD SWAP1 POP DUP2 DUP2 SUB PUSH0 DUP4 ADD MSTORE PUSH2 0x1BFC DUP2 DUP5 PUSH2 0x1BAC JUMP JUMPDEST SWAP1 POP SWAP3 SWAP2 POP POP JUMP JUMPDEST PUSH0 DUP2 SWAP1 POP SWAP2 SWAP1 POP JUMP JUMPDEST PUSH2 0x1C16 DUP2 PUSH2 0x1C04 JUMP JUMPDEST DUP2 EQ PUSH2 0x1C20 JUMPI PUSH0 DUP1 REVERT JUMPDEST POP JUMP JUMPDEST PUSH0 DUP2 CALLDATALOAD SWAP1 POP PUSH2 0x1C31 DUP2 PUSH2 0x1C0D JUMP JUMPDEST SWAP3 SWAP2 POP POP JUMP JUMPDEST PUSH0 PUSH1 0x20 DUP3 DUP5 SUB SLT ISZERO PUSH2 0x1C4C JUMPI PUSH2 0x1C4B PUSH2 0x1AB9 JUMP JUMPDEST JUMPDEST PUSH0 PUSH2 0x1C59 DUP5 DUP3 DUP6 ADD PUSH2 0x1C23 JUMP JUMPDEST SWAP2 POP POP SWAP3 SWAP2 POP POP JUMP JUMPDEST PUSH0 PUSH20 0xFFFFFFFFFFFFFFFFFFFFFFFFFFFFFFFFFFFFFFFF DUP3 AND SWAP1 POP SWAP2 SWAP1 POP JUMP JUMPDEST PUSH0 PUSH2 0x1C8B DUP3 PUSH2 0x1C62 JUMP JUMPDEST SWAP1 POP SWAP2 SWAP1 POP JUMP JUMPDEST PUSH2 0x1C9B DUP2 PUSH2 0x1C81 JUMP JUMPDEST DUP3 MSTORE POP POP JUMP JUMPDEST PUSH0 PUSH1 0x20 DUP3 ADD SWAP1 POP PUSH2 0x1CB4 PUSH0 DUP4 ADD DUP5 PUSH2 0x1C92 JUMP JUMPDEST SWAP3 SWAP2 POP POP JUMP JUMPDEST PUSH2 0x1CC3 DUP2 PUSH2 0x1C81 JUMP JUMPDEST DUP2 EQ PUSH2 0x1CCD JUMPI PUSH0 DUP1 REVERT JUMPDEST POP JUMP JUMPDEST PUSH0 DUP2 CALLDATALOAD SWAP1 POP PUSH2 0x1CDE DUP2 PUSH2 0x1CBA JUMP JUMPDEST SWAP3 SWAP2 POP POP JUMP JUMPDEST PUSH0 DUP1 PUSH1 0x40 DUP4 DUP6 SUB SLT ISZERO PUSH2 0x1CFA JUMPI PUSH2 0x1CF9 PUSH2 0x1AB9 JUMP JUMPDEST JUMPDEST PUSH0 PUSH2 0x1D07 DUP6 DUP3 DUP7 ADD PUSH2 0x1CD0 JUMP JUMPDEST SWAP3 POP POP PUSH1 0x20 PUSH2 0x1D18 DUP6 DUP3 DUP7 ADD PUSH2 0x1C23 JUMP JUMPDEST SWAP2 POP POP SWAP3 POP SWAP3 SWAP1 POP JUMP JUMPDEST PUSH0 DUP1 PUSH0 PUSH1 0x60 DUP5 DUP7 SUB SLT ISZERO PUSH2 0x1D39 JUMPI PUSH2 0x1D38 PUSH2 0x1AB9 JUMP JUMPDEST JUMPDEST PUSH0 PUSH2 0x1D46 DUP7 DUP3 DUP8 ADD PUSH2 0x1CD0 JUMP JUMPDEST SWAP4 POP POP PUSH1 0x20 PUSH2 0x1D57 DUP7 DUP3 DUP8 ADD PUSH2 0x1CD0 JUMP JUMPDEST SWAP3 POP POP PUSH1 0x40 PUSH2 0x1D68 DUP7 DUP3 DUP8 ADD PUSH2 0x1C23 JUMP JUMPDEST SWAP2 POP POP SWAP3 POP SWAP3 POP SWAP3 JUMP JUMPDEST PUSH0 DUP1 REVERT JUMPDEST PUSH0 DUP1 REVERT JUMPDEST PUSH32 0x4E487B7100000000000000000000000000000000000000000000000000000000 PUSH0 MSTORE PUSH1 0x41 PUSH1 0x4 MSTORE PUSH1 0x24 PUSH0 REVERT JUMPDEST PUSH2 0x1DB0 DUP3 PUSH2 0x1B9C JUMP JUMPDEST DUP2 ADD DUP2 DUP2 LT PUSH8 0xFFFFFFFFFFFFFFFF DUP3 GT OR ISZERO PUSH2 0x1DCF JUMPI PUSH2 0x1DCE PUSH2 0x1D7A JUMP JUMPDEST JUMPDEST DUP1 PUSH1 0x40 MSTORE POP POP POP JUMP JUMPDEST PUSH0 PUSH2 0x1DE1 PUSH2 0x1AB0 JUMP JUMPDEST SWAP1 POP PUSH2 0x1DED DUP3 DUP3 PUSH2 0x1DA7 JUMP JUMPDEST SWAP2 SWAP1 POP JUMP JUMPDEST PUSH0 PUSH8 0xFFFFFFFFFFFFFFFF DUP3 GT ISZERO PUSH2 0x1E0C JUMPI PUSH2 0x1E0B PUSH2 0x1D7A JUMP JUMPDEST JUMPDEST PUSH2 0x1E15 DUP3 PUSH2 0x1B9C JUMP JUMPDEST SWAP1 POP PUSH1 0x20 DUP2 ADD SWAP1 POP SWAP2 SWAP1 POP JUMP JUMPDEST DUP3 DUP2 DUP4 CALLDATACOPY PUSH0 DUP4 DUP4 ADD MSTORE POP POP POP JUMP JUMPDEST PUSH0 PUSH2 0x1E42 PUSH2 0x1E3D DUP5 PUSH2 0x1DF2 JUMP JUMPDEST PUSH2 0x1DD8 JUMP JUMPDEST SWAP1 POP DUP3 DUP2 MSTORE PUSH1 0x20 DUP2 ADD DUP5 DUP5 DUP5 ADD GT ISZERO PUSH2 0x1E5E JUMPI PUSH2 0x1E5D PUSH2 0x1D76 JUMP JUMPDEST JUMPDEST PUSH2 0x1E69 DUP5 DUP3 DUP6 PUSH2 0x1E22 JUMP JUMPDEST POP SWAP4 SWAP3 POP POP POP JUMP JUMPDEST PUSH0 DUP3 PUSH1 0x1F DUP4 ADD SLT PUSH2 0x1E85 JUMPI PUSH2 0x1E84 PUSH2 0x1D72 JUMP JUMPDEST JUMPDEST DUP2 CALLDATALOAD PUSH2 0x1E95 DUP5 DUP3 PUSH1 0x20 DUP7 ADD PUSH2 0x1E30 JUMP JUMPDEST SWAP2 POP POP SWAP3 SWAP2 POP POP JUMP JUMPDEST PUSH0 DUP1 PUSH1 0x40 DUP4 DUP6 SUB SLT ISZERO PUSH2 0x1EB4 JUMPI PUSH2 0x1EB3 PUSH2 0x1AB9 JUMP JUMPDEST JUMPDEST PUSH0 PUSH2 0x1EC1 DUP6 DUP3 DUP7 ADD PUSH2 0x1CD0 JUMP JUMPDEST SWAP3 POP POP PUSH1 0x20 DUP4 ADD CALLDATALOAD PUSH8 0xFFFFFFFFFFFFFFFF DUP2 GT ISZERO PUSH2 0x1EE2 JUMPI PUSH2 0x1EE1 PUSH2 0x1ABD JUMP JUMPDEST JUMPDEST PUSH2 0x1EEE DUP6 DUP3 DUP7 ADD PUSH2 0x1E71 JUMP JUMPDEST SWAP2 POP POP SWAP3 POP SWAP3 SWAP1 POP JUMP JUMPDEST PUSH0 PUSH1 0x20 DUP3 DUP5 SUB SLT ISZERO PUSH2 0x1F0D JUMPI PUSH2 0x1F0C PUSH2 0x1AB9 JUMP JUMPDEST JUMPDEST PUSH0 PUSH2 0x1F1A DUP5 DUP3 DUP6 ADD PUSH2 0x1CD0 JUMP JUMPDEST SWAP2 POP POP SWAP3 SWAP2 POP POP JUMP JUMPDEST PUSH2 0x1F2C DUP2 PUSH2 0x1C04 JUMP JUMPDEST DUP3 MSTORE POP POP JUMP JUMPDEST PUSH0 PUSH1 0x20 DUP3 ADD SWAP1 POP PUSH2 0x1F45 PUSH0 DUP4 ADD DUP5 PUSH2 0x1F23 JUMP JUMPDEST SWAP3 SWAP2 POP POP JUMP JUMPDEST PUSH2 0x1F54 DUP2 PUSH2 0x1B41 JUMP JUMPDEST DUP2 EQ PUSH2 0x1F5E JUMPI PUSH0 DUP1 REVERT JUMPDEST POP JUMP JUMPDEST PUSH0 DUP2 CALLDATALOAD SWAP1 POP PUSH2 0x1F6F DUP2 PUSH2 0x1F4B JUMP JUMPDEST SWAP3 SWAP2 POP POP JUMP JUMPDEST PUSH0 DUP1 PUSH1 0x40 DUP4 DUP6 SUB SLT ISZERO PUSH2 0x1F8B JUMPI PUSH2 0x1F8A PUSH2 0x1AB9 JUMP JUMPDEST JUMPDEST PUSH0 PUSH2 0x1F98 DUP6 DUP3 DUP7 ADD PUSH2 0x1CD0 JUMP JUMPDEST SWAP3 POP POP PUSH1 0x20 PUSH2 0x1FA9 DUP6 DUP3 DUP7 ADD PUSH2 0x1F61 JUMP JUMPDEST SWAP2 POP POP SWAP3 POP SWAP3 SWAP1 POP JUMP JUMPDEST PUSH0 PUSH8 0xFFFFFFFFFFFFFFFF DUP3 GT ISZERO PUSH2 0x1FCD JUMPI PUSH2 0x1FCC PUSH2 0x1D7A JUMP JUMPDEST JUMPDEST PUSH2 0x1FD6 DUP3 PUSH2 0x1B9C JUMP JUMPDEST SWAP1 POP PUSH1 0x20 DUP2 ADD SWAP1 POP SWAP2 SWAP1 POP JUMP JUMPDEST PUSH0 PUSH2 0x1FF5 PUSH2 0x1FF0 DUP5 PUSH2 0x1FB3 JUMP JUMPDEST PUSH2 0x1DD8 JUMP JUMPDEST SWAP1 POP DUP3 DUP2 MSTORE PUSH1 0x20 DUP2 ADD DUP5 DUP5 DUP5 ADD GT ISZERO PUSH2 0x2011 JUMPI PUSH2 0x2010 PUSH2 0x1D76 JUMP JUMPDEST JUMPDEST PUSH2 0x201C DUP5 DUP3 DUP6 PUSH2 0x1E22 JUMP JUMPDEST POP SWAP4 SWAP3 POP POP POP JUMP JUMPDEST PUSH0 DUP3 PUSH1 0x1F DUP4 ADD SLT PUSH2 0x2038 JUMPI PUSH2 0x2037 PUSH2 0x1D72 JUMP JUMPDEST JUMPDEST DUP2 CALLDATALOAD PUSH2 0x2048 DUP5 DUP3 PUSH1 0x20 DUP7 ADD PUSH2 0x1FE3 JUMP JUMPDEST SWAP2 POP POP SWAP3 SWAP2 POP POP JUMP JUMPDEST PUSH0 DUP1 PUSH0 DUP1 PUSH1 0x80 DUP6 DUP8 SUB SLT ISZERO PUSH2 0x2069 JUMPI PUSH2 0x2068 PUSH2 0x1AB9 JUMP JUMPDEST JUMPDEST PUSH0 PUSH2 0x2076 DUP8 DUP3 DUP9 ADD PUSH2 0x1CD0 JUMP JUMPDEST SWAP5 POP POP PUSH1 0x20 PUSH2 0x2087 DUP8 DUP3 DUP9 ADD PUSH2 0x1CD0 JUMP JUMPDEST SWAP4 POP POP PUSH1 0x40 PUSH2 0x2098 DUP8 DUP3 DUP9 ADD PUSH2 0x1C23 JUMP JUMPDEST SWAP3 POP POP PUSH1 0x60 DUP6 ADD CALLDATALOAD PUSH8 0xFFFFFFFFFFFFFFFF DUP2 GT ISZERO PUSH2 0x20B9 JUMPI PUSH2 0x20B8 PUSH2 0x1ABD JUMP JUMPDEST JUMPDEST PUSH2 0x20C5 DUP8 DUP3 DUP9 ADD PUSH2 0x2024 JUMP JUMPDEST SWAP2 POP POP SWAP3 SWAP6 SWAP2 SWAP5 POP SWAP3 POP JUMP JUMPDEST PUSH0 DUP1 PUSH1 0x40 DUP4 DUP6 SUB SLT ISZERO PUSH2 0x20E7 JUMPI PUSH2 0x20E6 PUSH2 0x1AB9 JUMP JUMPDEST JUMPDEST PUSH0 PUSH2 0x20F4 DUP6 DUP3 DUP7 ADD PUSH2 0x1CD0 JUMP JUMPDEST SWAP3 POP POP PUSH1 0x20 PUSH2 0x2105 DUP6 DUP3 DUP7 ADD PUSH2 0x1CD0 JUMP JUMPDEST SWAP2 POP POP SWAP3 POP SWAP3 SWAP1 POP JUMP JUMPDEST PUSH32 0x4E487B7100000000000000000000000000000000000000000000000000000000 PUSH0 MSTORE PUSH1 0x22 PUSH1 0x4 MSTORE PUSH1 0x24 PUSH0 REVERT JUMPDEST PUSH0 PUSH1 0x2 DUP3 DIV SWAP1 POP PUSH1 0x1 DUP3 AND DUP1 PUSH2 0x2153 JUMPI PUSH1 0x7F DUP3 AND SWAP2 POP JUMPDEST PUSH1 0x20 DUP3 LT DUP2 SUB PUSH2 0x2166 JUMPI PUSH2 0x2165 PUSH2 0x210F JUMP JUMPDEST JUMPDEST POP SWAP2 SWAP1 POP JUMP JUMPDEST PUSH32 0x417070726F76652066756E6374696F6E2069732064697361626C65642E000000 PUSH0 DUP3 ADD MSTORE POP JUMP JUMPDEST PUSH0 PUSH2 0x21A0 PUSH1 0x1D DUP4 PUSH2 0x1B7E JUMP JUMPDEST SWAP2 POP PUSH2 0x21AB DUP3 PUSH2 0x216C JUMP JUMPDEST PUSH1 0x20 DUP3 ADD SWAP1 POP SWAP2 SWAP1 POP JUMP JUMPDEST PUSH0 PUSH1 0x20 DUP3 ADD SWAP1 POP DUP2 DUP2 SUB PUSH0 DUP4 ADD MSTORE PUSH2 0x21CD DUP2 PUSH2 0x2194 JUMP JUMPDEST SWAP1 POP SWAP2 SWAP1 POP JUMP JUMPDEST PUSH32 0x5472616E736665722066726F6D2066756E6374696F6E2069732064697361626C PUSH0 DUP3 ADD MSTORE PUSH32 0x65642E0000000000000000000000000000000000000000000000000000000000 PUSH1 0x20 DUP3 ADD MSTORE POP JUMP JUMPDEST PUSH0 PUSH2 0x222E PUSH1 0x23 DUP4 PUSH2 0x1B7E JUMP JUMPDEST SWAP2 POP PUSH2 0x2239 DUP3 PUSH2 0x21D4 JUMP JUMPDEST PUSH1 0x40 DUP3 ADD SWAP1 POP SWAP2 SWAP1 POP JUMP JUMPDEST PUSH0 PUSH1 0x20 DUP3 ADD SWAP1 POP DUP2 DUP2 SUB PUSH0 DUP4 ADD MSTORE PUSH2 0x225B DUP2 PUSH2 0x2222 JUMP JUMPDEST SWAP1 POP SWAP2 SWAP1 POP JUMP JUMPDEST PUSH32 0x4E6F7420656E6F7567682045544820696E20636F6E7472616374000000000000 PUSH0 DUP3 ADD MSTORE POP JUMP JUMPDEST PUSH0 PUSH2 0x2296 PUSH1 0x1A DUP4 PUSH2 0x1B7E JUMP JUMPDEST SWAP2 POP PUSH2 0x22A1 DUP3 PUSH2 0x2262 JUMP JUMPDEST PUSH1 0x20 DUP3 ADD SWAP1 POP SWAP2 SWAP1 POP JUMP JUMPDEST PUSH0 PUSH1 0x20 DUP3 ADD SWAP1 POP DUP2 DUP2 SUB PUSH0 DUP4 ADD MSTORE PUSH2 0x22C3 DUP2 PUSH2 0x228A JUMP JUMPDEST SWAP1 POP SWAP2 SWAP1 POP JUMP JUMPDEST PUSH32 0x4E487B7100000000000000000000000000000000000000000000000000000000 PUSH0 MSTORE PUSH1 0x11 PUSH1 0x4 MSTORE PUSH1 0x24 PUSH0 REVERT JUMPDEST PUSH0 PUSH2 0x2301 DUP3 PUSH2 0x1C04 JUMP JUMPDEST SWAP2 POP PUSH32 0xFFFFFFFFFFFFFFFFFFFFFFFFFFFFFFFFFFFFFFFFFFFFFFFFFFFFFFFFFFFFFFFF DUP3 SUB PUSH2 0x2333 JUMPI PUSH2 0x2332 PUSH2 0x22CA JUMP JUMPDEST JUMPDEST PUSH1 0x1 DUP3 ADD SWAP1 POP SWAP2 SWAP1 POP JUMP JUMPDEST PUSH0 DUP2 SWAP1 POP SWAP3 SWAP2 POP POP JUMP JUMPDEST POP JUMP JUMPDEST PUSH0 PUSH2 0x2356 PUSH0 DUP4 PUSH2 0x233E JUMP JUMPDEST SWAP2 POP PUSH2 0x2361 DUP3 PUSH2 0x2348 JUMP JUMPDEST PUSH0 DUP3 ADD SWAP1 POP SWAP2 SWAP1 POP JUMP JUMPDEST PUSH0 PUSH2 0x2375 DUP3 PUSH2 0x234B JUMP JUMPDEST SWAP2 POP DUP2 SWAP1 POP SWAP2 SWAP1 POP JUMP JUMPDEST PUSH32 0x4661696C656420746F2073656E64204574686572000000000000000000000000 PUSH0 DUP3 ADD MSTORE POP JUMP JUMPDEST PUSH0 PUSH2 0x23B3 PUSH1 0x14 DUP4 PUSH2 0x1B7E JUMP JUMPDEST SWAP2 POP PUSH2 0x23BE DUP3 PUSH2 0x237F JUMP JUMPDEST PUSH1 0x20 DUP3 ADD SWAP1 POP SWAP2 SWAP1 POP JUMP JUMPDEST PUSH0 PUSH1 0x20 DUP3 ADD SWAP1 POP DUP2 DUP2 SUB PUSH0 DUP4 ADD MSTORE PUSH2 0x23E0 DUP2 PUSH2 0x23A7 JUMP JUMPDEST SWAP1 POP SWAP2 SWAP1 POP JUMP JUMPDEST PUSH32 0x52656E6F756E63696E67206F776E6572736869702069732064697361626C6564 PUSH0 DUP3 ADD MSTORE PUSH32 0x2E00000000000000000000000000000000000000000000000000000000000000 PUSH1 0x20 DUP3 ADD MSTORE POP JUMP JUMPDEST PUSH0 PUSH2 0x2441 PUSH1 0x21 DUP4 PUSH2 0x1B7E JUMP JUMPDEST SWAP2 POP PUSH2 0x244C DUP3 PUSH2 0x23E7 JUMP JUMPDEST PUSH1 0x40 DUP3 ADD SWAP1 POP SWAP2 SWAP1 POP JUMP JUMPDEST PUSH0 PUSH1 0x20 DUP3 ADD SWAP1 POP DUP2 DUP2 SUB PUSH0 DUP4 ADD MSTORE PUSH2 0x246E DUP2 PUSH2 0x2435 JUMP JUMPDEST SWAP1 POP SWAP2 SWAP1 POP JUMP JUMPDEST PUSH32 0x53657420617070726F76616C20666F7220616C6C2066756E6374696F6E206973 PUSH0 DUP3 ADD MSTORE PUSH32 0x2064697361626C65642E00000000000000000000000000000000000000000000 PUSH1 0x20 DUP3 ADD MSTORE POP JUMP JUMPDEST PUSH0 PUSH2 0x24CF PUSH1 0x2A DUP4 PUSH2 0x1B7E JUMP JUMPDEST SWAP2 POP PUSH2 0x24DA DUP3 PUSH2 0x2475 JUMP JUMPDEST PUSH1 0x40 DUP3 ADD SWAP1 POP SWAP2 SWAP1 POP JUMP JUMPDEST PUSH0 PUSH1 0x20 DUP3 ADD SWAP1 POP DUP2 DUP2 SUB PUSH0 DUP4 ADD MSTORE PUSH2 0x24FC DUP2 PUSH2 0x24C3 JUMP JUMPDEST SWAP1 POP SWAP2 SWAP1 POP JUMP JUMPDEST PUSH0 DUP2 SWAP1 POP SWAP3 SWAP2 POP POP JUMP JUMPDEST PUSH0 PUSH2 0x2517 DUP3 PUSH2 0x1B74 JUMP JUMPDEST PUSH2 0x2521 DUP2 DUP6 PUSH2 0x2503 JUMP JUMPDEST SWAP4 POP PUSH2 0x2531 DUP2 DUP6 PUSH1 0x20 DUP7 ADD PUSH2 0x1B8E JUMP JUMPDEST DUP1 DUP5 ADD SWAP2 POP POP SWAP3 SWAP2 POP POP JUMP JUMPDEST PUSH0 PUSH2 0x2548 DUP3 DUP6 PUSH2 0x250D JUMP JUMPDEST SWAP2 POP PUSH2 0x2554 DUP3 DUP5 PUSH2 0x250D JUMP JUMPDEST SWAP2 POP DUP2 SWAP1 POP SWAP4 SWAP3 POP POP POP JUMP JUMPDEST PUSH32 0x5472616E73666572206F776E6572736869702066756E6374696F6E2069732064 PUSH0 DUP3 ADD MSTORE PUSH32 0x697361626C65642E000000000000000000000000000000000000000000000000 PUSH1 0x20 DUP3 ADD MSTORE POP JUMP JUMPDEST PUSH0 PUSH2 0x25BA PUSH1 0x28 DUP4 PUSH2 0x1B7E JUMP JUMPDEST SWAP2 POP PUSH2 0x25C5 DUP3 PUSH2 0x2560 JUMP JUMPDEST PUSH1 0x40 DUP3 ADD SWAP1 POP SWAP2 SWAP1 POP JUMP JUMPDEST PUSH0 PUSH1 0x20 DUP3 ADD SWAP1 POP DUP2 DUP2 SUB PUSH0 DUP4 ADD MSTORE PUSH2 0x25E7 DUP2 PUSH2 0x25AE JUMP JUMPDEST SWAP1 POP SWAP2 SWAP1 POP JUMP JUMPDEST PUSH0 DUP2 SWAP1 POP DUP2 PUSH0 MSTORE PUSH1 0x20 PUSH0 KECCAK256 SWAP1 POP SWAP2 SWAP1 POP JUMP JUMPDEST PUSH0 PUSH1 0x20 PUSH1 0x1F DUP4 ADD DIV SWAP1 POP SWAP2 SWAP1 POP JUMP JUMPDEST PUSH0 DUP3 DUP3 SHL SWAP1 POP SWAP3 SWAP2 POP POP JUMP JUMPDEST PUSH0 PUSH1 0x8 DUP4 MUL PUSH2 0x264A PUSH32 0xFFFFFFFFFFFFFFFFFFFFFFFFFFFFFFFFFFFFFFFFFFFFFFFFFFFFFFFFFFFFFFFF DUP3 PUSH2 0x260F JUMP JUMPDEST PUSH2 0x2654 DUP7 DUP4 PUSH2 0x260F JUMP JUMPDEST SWAP6 POP DUP1 NOT DUP5 AND SWAP4 POP DUP1 DUP7 AND DUP5 OR SWAP3 POP POP POP SWAP4 SWAP3 POP POP POP JUMP JUMPDEST PUSH0 DUP2 SWAP1 POP SWAP2 SWAP1 POP JUMP JUMPDEST PUSH0 PUSH2 0x268F PUSH2 0x268A PUSH2 0x2685 DUP5 PUSH2 0x1C04 JUMP JUMPDEST PUSH2 0x266C JUMP JUMPDEST PUSH2 0x1C04 JUMP JUMPDEST SWAP1 POP SWAP2 SWAP1 POP JUMP JUMPDEST PUSH0 DUP2 SWAP1 POP SWAP2 SWAP1 POP JUMP JUMPDEST PUSH2 0x26A8 DUP4 PUSH2 0x2675 JUMP JUMPDEST PUSH2 0x26BC PUSH2 0x26B4 DUP3 PUSH2 0x2696 JUMP JUMPDEST DUP5 DUP5 SLOAD PUSH2 0x261B JUMP JUMPDEST DUP3 SSTORE POP POP POP POP JUMP JUMPDEST PUSH0 SWAP1 JUMP JUMPDEST PUSH2 0x26D0 PUSH2 0x26C4 JUMP JUMPDEST PUSH2 0x26DB DUP2 DUP5 DUP5 PUSH2 0x269F JUMP JUMPDEST POP POP POP JUMP JUMPDEST JUMPDEST DUP2 DUP2 LT ISZERO PUSH2 0x26FE JUMPI PUSH2 0x26F3 PUSH0 DUP3 PUSH2 0x26C8 JUMP JUMPDEST PUSH1 0x1 DUP2 ADD SWAP1 POP PUSH2 0x26E1 JUMP JUMPDEST POP POP JUMP JUMPDEST PUSH1 0x1F DUP3 GT ISZERO PUSH2 0x2743 JUMPI PUSH2 0x2714 DUP2 PUSH2 0x25EE JUMP JUMPDEST PUSH2 0x271D DUP5 PUSH2 0x2600 JUMP JUMPDEST DUP2 ADD PUSH1 0x20 DUP6 LT ISZERO PUSH2 0x272C JUMPI DUP2 SWAP1 POP JUMPDEST PUSH2 0x2740 PUSH2 0x2738 DUP6 PUSH2 0x2600 JUMP JUMPDEST DUP4 ADD DUP3 PUSH2 0x26E0 JUMP JUMPDEST POP POP JUMPDEST POP POP POP JUMP JUMPDEST PUSH0 DUP3 DUP3 SHR SWAP1 POP SWAP3 SWAP2 POP POP JUMP JUMPDEST PUSH0 PUSH2 0x2763 PUSH0 NOT DUP5 PUSH1 0x8 MUL PUSH2 0x2748 JUMP JUMPDEST NOT DUP1 DUP4 AND SWAP2 POP POP SWAP3 SWAP2 POP POP JUMP JUMPDEST PUSH0 PUSH2 0x277B DUP4 DUP4 PUSH2 0x2754 JUMP JUMPDEST SWAP2 POP DUP3 PUSH1 0x2 MUL DUP3 OR SWAP1 POP SWAP3 SWAP2 POP POP JUMP JUMPDEST PUSH2 0x2794 DUP3 PUSH2 0x1B74 JUMP JUMPDEST PUSH8 0xFFFFFFFFFFFFFFFF DUP2 GT ISZERO PUSH2 0x27AD JUMPI PUSH2 0x27AC PUSH2 0x1D7A JUMP JUMPDEST JUMPDEST PUSH2 0x27B7 DUP3 SLOAD PUSH2 0x213C JUMP JUMPDEST PUSH2 0x27C2 DUP3 DUP3 DUP6 PUSH2 0x2702 JUMP JUMPDEST PUSH0 PUSH1 0x20 SWAP1 POP PUSH1 0x1F DUP4 GT PUSH1 0x1 DUP2 EQ PUSH2 0x27F3 JUMPI PUSH0 DUP5 ISZERO PUSH2 0x27E1 JUMPI DUP3 DUP8 ADD MLOAD SWAP1 POP JUMPDEST PUSH2 0x27EB DUP6 DUP3 PUSH2 0x2770 JUMP JUMPDEST DUP7 SSTORE POP PUSH2 0x2852 JUMP JUMPDEST PUSH1 0x1F NOT DUP5 AND PUSH2 0x2801 DUP7 PUSH2 0x25EE JUMP JUMPDEST PUSH0 JUMPDEST DUP3 DUP2 LT ISZERO PUSH2 0x2828 JUMPI DUP5 DUP10 ADD MLOAD DUP3 SSTORE PUSH1 0x1 DUP3 ADD SWAP2 POP PUSH1 0x20 DUP6 ADD SWAP5 POP PUSH1 0x20 DUP2 ADD SWAP1 POP PUSH2 0x2803 JUMP JUMPDEST DUP7 DUP4 LT ISZERO PUSH2 0x2845 JUMPI DUP5 DUP10 ADD MLOAD PUSH2 0x2841 PUSH1 0x1F DUP10 AND DUP3 PUSH2 0x2754 JUMP JUMPDEST DUP4 SSTORE POP JUMPDEST PUSH1 0x1 PUSH1 0x2 DUP9 MUL ADD DUP9 SSTORE POP POP POP JUMPDEST POP POP POP POP POP POP JUMP JUMPDEST PUSH0 DUP2 MLOAD SWAP1 POP SWAP2 SWAP1 POP JUMP JUMPDEST PUSH0 DUP3 DUP3 MSTORE PUSH1 0x20 DUP3 ADD SWAP1 POP SWAP3 SWAP2 POP POP JUMP JUMPDEST PUSH0 PUSH2 0x287E DUP3 PUSH2 0x285A JUMP JUMPDEST PUSH2 0x2888 DUP2 DUP6 PUSH2 0x2864 JUMP JUMPDEST SWAP4 POP PUSH2 0x2898 DUP2 DUP6 PUSH1 0x20 DUP7 ADD PUSH2 0x1B8E JUMP JUMPDEST PUSH2 0x28A1 DUP2 PUSH2 0x1B9C JUMP JUMPDEST DUP5 ADD SWAP2 POP POP SWAP3 SWAP2 POP POP JUMP JUMPDEST PUSH0 PUSH1 0x80 DUP3 ADD SWAP1 POP PUSH2 0x28BF PUSH0 DUP4 ADD DUP8 PUSH2 0x1C92 JUMP JUMPDEST PUSH2 0x28CC PUSH1 0x20 DUP4 ADD DUP7 PUSH2 0x1C92 JUMP JUMPDEST PUSH2 0x28D9 PUSH1 0x40 DUP4 ADD DUP6 PUSH2 0x1F23 JUMP JUMPDEST DUP2 DUP2 SUB PUSH1 0x60 DUP4 ADD MSTORE PUSH2 0x28EB DUP2 DUP5 PUSH2 0x2874 JUMP JUMPDEST SWAP1 POP SWAP6 SWAP5 POP POP POP POP POP JUMP JUMPDEST PUSH0 DUP2 MLOAD SWAP1 POP PUSH2 0x2904 DUP2 PUSH2 0x1AEC JUMP JUMPDEST SWAP3 SWAP2 POP POP JUMP JUMPDEST PUSH0 PUSH1 0x20 DUP3 DUP5 SUB SLT ISZERO PUSH2 0x291F JUMPI PUSH2 0x291E PUSH2 0x1AB9 JUMP JUMPDEST JUMPDEST PUSH0 PUSH2 0x292C DUP5 DUP3 DUP6 ADD PUSH2 0x28F6 JUMP JUMPDEST SWAP2 POP POP SWAP3 SWAP2 POP POP JUMP JUMPDEST PUSH0 PUSH1 0x60 DUP3 ADD SWAP1 POP PUSH2 0x2948 PUSH0 DUP4 ADD DUP7 PUSH2 0x1C92 JUMP JUMPDEST PUSH2 0x2955 PUSH1 0x20 DUP4 ADD DUP6 PUSH2 0x1F23 JUMP JUMPDEST PUSH2 0x2962 PUSH1 0x40 DUP4 ADD DUP5 PUSH2 0x1C92 JUMP JUMPDEST SWAP5 SWAP4 POP POP POP POP JUMP JUMPDEST PUSH32 0x4E487B7100000000000000000000000000000000000000000000000000000000 PUSH0 MSTORE PUSH1 0x12 PUSH1 0x4 MSTORE PUSH1 0x24 PUSH0 REVERT JUMPDEST PUSH0 PUSH1 0x40 DUP3 ADD SWAP1 POP PUSH2 0x29AA PUSH0 DUP4 ADD DUP6 PUSH2 0x1C92 JUMP JUMPDEST PUSH2 0x29B7 PUSH1 0x20 DUP4 ADD DUP5 PUSH2 0x1F23 JUMP JUMPDEST SWAP4 SWAP3 POP POP POP JUMP INVALID LOG2 PUSH5 0x6970667358 0x22 SLT KECCAK256 0x2E CHAINID 0xCD BLOBHASH 0x2B DUP10 PUSH4 0xE5770D6B CALL 0xB1 PUSH30 0xB8BA5891D1FD5806A75CCF9FEA071AA0B6EE64736F6C6343000819003300 "
				},
				"gasEstimates": {
					"creation": {
						"codeDepositCost": "2148000",
						"executionCost": "infinite",
						"totalCost": "infinite"
					},
					"external": {
						"approve(address,uint256)": "infinite",
						"balanceOf(address)": "infinite",
						"deposit()": "infinite",
						"getApproved(uint256)": "infinite",
						"isApprovedForAll(address,address)": "infinite",
						"mintAndTransfer(address,string)": "infinite",
						"name()": "infinite",
						"owner()": "2560",
						"ownerOf(uint256)": "infinite",
						"renounceOwnership()": "infinite",
						"safeTransferFrom(address,address,uint256)": "infinite",
						"safeTransferFrom(address,address,uint256,bytes)": "infinite",
						"setApprovalForAll(address,bool)": "infinite",
						"supportsInterface(bytes4)": "881",
						"symbol()": "infinite",
						"tokenURI(uint256)": "infinite",
						"transferFrom(address,address,uint256)": "infinite",
						"transferOwnership(address)": "infinite"
					}
				},
				"methodIdentifiers": {
					"approve(address,uint256)": "095ea7b3",
					"balanceOf(address)": "70a08231",
					"deposit()": "d0e30db0",
					"getApproved(uint256)": "081812fc",
					"isApprovedForAll(address,address)": "e985e9c5",
					"mintAndTransfer(address,string)": "3df0805e",
					"name()": "06fdde03",
					"owner()": "8da5cb5b",
					"ownerOf(uint256)": "6352211e",
					"renounceOwnership()": "715018a6",
					"safeTransferFrom(address,address,uint256)": "42842e0e",
					"safeTransferFrom(address,address,uint256,bytes)": "b88d4fde",
					"setApprovalForAll(address,bool)": "a22cb465",
					"supportsInterface(bytes4)": "01ffc9a7",
					"symbol()": "95d89b41",
					"tokenURI(uint256)": "c87b56dd",
					"transferFrom(address,address,uint256)": "23b872dd",
					"transferOwnership(address)": "f2fde38b"
				}
			},
			"storageLayout": {
				"storage": [
					{
						"astId": 349,
						"contract": "contracts/4_PLZNFT.sol:PLZNFT",
						"label": "_name",
						"offset": 0,
						"slot": "0",
						"type": "t_string_storage"
					},
					{
						"astId": 351,
						"contract": "contracts/4_PLZNFT.sol:PLZNFT",
						"label": "_symbol",
						"offset": 0,
						"slot": "1",
						"type": "t_string_storage"
					},
					{
						"astId": 355,
						"contract": "contracts/4_PLZNFT.sol:PLZNFT",
						"label": "_owners",
						"offset": 0,
						"slot": "2",
						"type": "t_mapping(t_uint256,t_address)"
					},
					{
						"astId": 359,
						"contract": "contracts/4_PLZNFT.sol:PLZNFT",
						"label": "_balances",
						"offset": 0,
						"slot": "3",
						"type": "t_mapping(t_address,t_uint256)"
					},
					{
						"astId": 363,
						"contract": "contracts/4_PLZNFT.sol:PLZNFT",
						"label": "_tokenApprovals",
						"offset": 0,
						"slot": "4",
						"type": "t_mapping(t_uint256,t_address)"
					},
					{
						"astId": 369,
						"contract": "contracts/4_PLZNFT.sol:PLZNFT",
						"label": "_operatorApprovals",
						"offset": 0,
						"slot": "5",
						"type": "t_mapping(t_address,t_mapping(t_address,t_bool))"
					},
					{
						"astId": 1488,
						"contract": "contracts/4_PLZNFT.sol:PLZNFT",
						"label": "_tokenURIs",
						"offset": 0,
						"slot": "6",
						"type": "t_mapping(t_uint256,t_string_storage)"
					},
					{
						"astId": 8,
						"contract": "contracts/4_PLZNFT.sol:PLZNFT",
						"label": "_owner",
						"offset": 0,
						"slot": "7",
						"type": "t_address"
					},
					{
						"astId": 3108,
						"contract": "contracts/4_PLZNFT.sol:PLZNFT",
						"label": "_tokenIdCounter",
						"offset": 0,
						"slot": "8",
						"type": "t_uint256"
					}
				],
				"types": {
					"t_address": {
						"encoding": "inplace",
						"label": "address",
						"numberOfBytes": "20"
					},
					"t_bool": {
						"encoding": "inplace",
						"label": "bool",
						"numberOfBytes": "1"
					},
					"t_mapping(t_address,t_bool)": {
						"encoding": "mapping",
						"key": "t_address",
						"label": "mapping(address => bool)",
						"numberOfBytes": "32",
						"value": "t_bool"
					},
					"t_mapping(t_address,t_mapping(t_address,t_bool))": {
						"encoding": "mapping",
						"key": "t_address",
						"label": "mapping(address => mapping(address => bool))",
						"numberOfBytes": "32",
						"value": "t_mapping(t_address,t_bool)"
					},
					"t_mapping(t_address,t_uint256)": {
						"encoding": "mapping",
						"key": "t_address",
						"label": "mapping(address => uint256)",
						"numberOfBytes": "32",
						"value": "t_uint256"
					},
					"t_mapping(t_uint256,t_address)": {
						"encoding": "mapping",
						"key": "t_uint256",
						"label": "mapping(uint256 => address)",
						"numberOfBytes": "32",
						"value": "t_address"
					},
					"t_mapping(t_uint256,t_string_storage)": {
						"encoding": "mapping",
						"key": "t_uint256",
						"label": "mapping(uint256 => string)",
						"numberOfBytes": "32",
						"value": "t_string_storage"
					},
					"t_string_storage": {
						"encoding": "bytes",
						"label": "string",
						"numberOfBytes": "32"
					},
					"t_uint256": {
						"encoding": "inplace",
						"label": "uint256",
						"numberOfBytes": "32"
					}
				}
			},
			"userdoc": {
				"kind": "user",
				"methods": {},
				"version": 1
			}
		}
	}
}