{
	"contracts/6_Ordering.sol": {
		"BeverageOrdering": {
			"abi": [
				{
					"inputs": [
						{
							"internalType": "address",
							"name": "_tokenAddress",
							"type": "address"
						}
					],
					"stateMutability": "nonpayable",
					"type": "constructor"
				},
				{
					"inputs": [
						{
							"internalType": "address",
							"name": "owner",
							"type": "address"
						}
					],
					"name": "OwnableInvalidOwner",
					"type": "error"
				},
				{
					"inputs": [
						{
							"internalType": "address",
							"name": "account",
							"type": "address"
						}
					],
					"name": "OwnableUnauthorizedAccount",
					"type": "error"
				},
				{
					"anonymous": false,
					"inputs": [
						{
							"indexed": true,
							"internalType": "address",
							"name": "previousOwner",
							"type": "address"
						},
						{
							"indexed": true,
							"internalType": "address",
							"name": "newOwner",
							"type": "address"
						}
					],
					"name": "OwnershipTransferred",
					"type": "event"
				},
				{
					"inputs": [
						{
							"internalType": "uint256",
							"name": "",
							"type": "uint256"
						}
					],
					"name": "beverageList",
					"outputs": [
						{
							"internalType": "string",
							"name": "",
							"type": "string"
						}
					],
					"stateMutability": "view",
					"type": "function"
				},
				{
					"inputs": [
						{
							"internalType": "uint256",
							"name": "orderIndex",
							"type": "uint256"
						}
					],
					"name": "confirmOrder",
					"outputs": [],
					"stateMutability": "nonpayable",
					"type": "function"
				},
				{
					"inputs": [],
					"name": "getAllValidBeverages",
					"outputs": [
						{
							"internalType": "string[]",
							"name": "",
							"type": "string[]"
						}
					],
					"stateMutability": "view",
					"type": "function"
				},
				{
					"inputs": [
						{
							"internalType": "uint256",
							"name": "orderIndex",
							"type": "uint256"
						}
					],
					"name": "getOrder",
					"outputs": [
						{
							"components": [
								{
									"internalType": "address",
									"name": "customer",
									"type": "address"
								},
								{
									"internalType": "string",
									"name": "beverage",
									"type": "string"
								},
								{
									"internalType": "bool",
									"name": "fulfilled",
									"type": "bool"
								}
							],
							"internalType": "struct BeverageOrdering.Order",
							"name": "",
							"type": "tuple"
						}
					],
					"stateMutability": "view",
					"type": "function"
				},
				{
					"inputs": [
						{
							"internalType": "string",
							"name": "beverage",
							"type": "string"
						}
					],
					"name": "orderBeverage",
					"outputs": [],
					"stateMutability": "nonpayable",
					"type": "function"
				},
				{
					"inputs": [
						{
							"internalType": "uint256",
							"name": "",
							"type": "uint256"
						}
					],
					"name": "orders",
					"outputs": [
						{
							"internalType": "address",
							"name": "customer",
							"type": "address"
						},
						{
							"internalType": "string",
							"name": "beverage",
							"type": "string"
						},
						{
							"internalType": "bool",
							"name": "fulfilled",
							"type": "bool"
						}
					],
					"stateMutability": "view",
					"type": "function"
				},
				{
					"inputs": [],
					"name": "owner",
					"outputs": [
						{
							"internalType": "address",
							"name": "",
							"type": "address"
						}
					],
					"stateMutability": "view",
					"type": "function"
				},
				{
					"inputs": [],
					"name": "pricePerBeverage",
					"outputs": [
						{
							"internalType": "uint256",
							"name": "",
							"type": "uint256"
						}
					],
					"stateMutability": "view",
					"type": "function"
				},
				{
					"inputs": [],
					"name": "renounceOwnership",
					"outputs": [],
					"stateMutability": "view",
					"type": "function"
				},
				{
					"inputs": [
						{
							"internalType": "string",
							"name": "beverage",
							"type": "string"
						},
						{
							"internalType": "bool",
							"name": "isValid",
							"type": "bool"
						}
					],
					"name": "setBeverageValidity",
					"outputs": [],
					"stateMutability": "nonpayable",
					"type": "function"
				},
				{
					"inputs": [],
					"name": "tokenContract",
					"outputs": [
						{
							"internalType": "contract IERC20",
							"name": "",
							"type": "address"
						}
					],
					"stateMutability": "view",
					"type": "function"
				},
				{
					"inputs": [
						{
							"internalType": "address",
							"name": "newOwner",
							"type": "address"
						}
					],
					"name": "transferOwnership",
					"outputs": [],
					"stateMutability": "nonpayable",
					"type": "function"
				},
				{
					"inputs": [
						{
							"internalType": "string",
							"name": "",
							"type": "string"
						}
					],
					"name": "validBeverages",
					"outputs": [
						{
							"internalType": "bool",
							"name": "",
							"type": "bool"
						}
					],
					"stateMutability": "view",
					"type": "function"
				}
			],
			"devdoc": {
				"errors": {
					"OwnableInvalidOwner(address)": [
						{
							"details": "The owner is not a valid owner account. (eg. `address(0)`)"
						}
					],
					"OwnableUnauthorizedAccount(address)": [
						{
							"details": "The caller account is not authorized to perform an operation."
						}
					]
				},
				"kind": "dev",
				"methods": {
					"owner()": {
						"details": "Returns the address of the current owner."
					},
					"renounceOwnership()": {
						"details": "Leaves the contract without owner. It will not be possible to call `onlyOwner` functions. Can only be called by the current owner. NOTE: Renouncing ownership will leave the contract without an owner, thereby disabling any functionality that is only available to the owner."
					},
					"transferOwnership(address)": {
						"details": "Transfers ownership of the contract to a new account (`newOwner`). Can only be called by the current owner."
					}
				},
				"version": 1
			},
			"evm": {
				"assembly": "    /* \"contracts/6_Ordering.sol\":168:3150  contract BeverageOrdering is Ownable(msg.sender) {... */\n  mstore(0x40, 0x80)\n    /* \"contracts/6_Ordering.sol\":290:294  1e18 */\n  0x0de0b6b3a7640000\n    /* \"contracts/6_Ordering.sol\":256:294  uint256 public pricePerBeverage = 1e18 */\n  0x02\n  sstore\n    /* \"contracts/6_Ordering.sol\":813:1072  constructor(address _tokenAddress) {... */\n  callvalue\n  dup1\n  iszero\n  tag_1\n  jumpi\n  0x00\n  dup1\n  revert\ntag_1:\n  pop\n  mload(0x40)\n  sub(codesize, bytecodeSize)\n  dup1\n  bytecodeSize\n  dup4\n  codecopy\n  dup2\n  dup2\n  add\n  0x40\n  mstore\n  dup2\n  add\n  swap1\n  tag_2\n  swap2\n  swap1\n  tag_3\n  jump\t// in\ntag_2:\n    /* \"contracts/6_Ordering.sol\":205:215  msg.sender */\n  caller\n    /* \"@openzeppelin/contracts/access/Ownable.sol\":1297:1298  0 */\n  0x00\n    /* \"@openzeppelin/contracts/access/Ownable.sol\":1273:1299  initialOwner == address(0) */\n  0xffffffffffffffffffffffffffffffffffffffff\n  and\n    /* \"@openzeppelin/contracts/access/Ownable.sol\":1273:1285  initialOwner */\n  dup2\n    /* \"@openzeppelin/contracts/access/Ownable.sol\":1273:1299  initialOwner == address(0) */\n  0xffffffffffffffffffffffffffffffffffffffff\n  and\n  sub\n    /* \"@openzeppelin/contracts/access/Ownable.sol\":1269:1364  if (initialOwner == address(0)) {... */\n  tag_7\n  jumpi\n    /* \"@openzeppelin/contracts/access/Ownable.sol\":1350:1351  0 */\n  0x00\n    /* \"@openzeppelin/contracts/access/Ownable.sol\":1322:1353  OwnableInvalidOwner(address(0)) */\n  mload(0x40)\n  0x1e4fbdf700000000000000000000000000000000000000000000000000000000\n  dup2\n  mstore\n  0x04\n  add\n  tag_8\n  swap2\n  swap1\n  tag_9\n  jump\t// in\ntag_8:\n  mload(0x40)\n  dup1\n  swap2\n  sub\n  swap1\n  revert\n    /* \"@openzeppelin/contracts/access/Ownable.sol\":1269:1364  if (initialOwner == address(0)) {... */\ntag_7:\n    /* \"@openzeppelin/contracts/access/Ownable.sol\":1373:1405  _transferOwnership(initialOwner) */\n  tag_10\n    /* \"@openzeppelin/contracts/access/Ownable.sol\":1392:1404  initialOwner */\n  dup2\n    /* \"@openzeppelin/contracts/access/Ownable.sol\":1373:1391  _transferOwnership */\n  shl(0x20, tag_11)\n    /* \"@openzeppelin/contracts/access/Ownable.sol\":1373:1405  _transferOwnership(initialOwner) */\n  0x20\n  shr\n  jump\t// in\ntag_10:\n    /* \"@openzeppelin/contracts/access/Ownable.sol\":1225:1412  constructor(address initialOwner) {... */\n  pop\n    /* \"contracts/6_Ordering.sol\":881:894  _tokenAddress */\n  dup1\n    /* \"contracts/6_Ordering.sol\":858:871  tokenContract */\n  0x01\n  0x00\n    /* \"contracts/6_Ordering.sol\":858:895  tokenContract = IERC20(_tokenAddress) */\n  0x0100\n  exp\n  dup2\n  sload\n  dup2\n  0xffffffffffffffffffffffffffffffffffffffff\n  mul\n  not\n  and\n  swap1\n  dup4\n  0xffffffffffffffffffffffffffffffffffffffff\n  and\n  mul\n  or\n  swap1\n  sstore\n  pop\n    /* \"contracts/6_Ordering.sol\":935:939  true */\n  0x01\n    /* \"contracts/6_Ordering.sol\":905:919  validBeverages */\n  0x04\n    /* \"contracts/6_Ordering.sol\":905:932  validBeverages[\"americano\"] */\n  mload(0x40)\n  tag_13\n  swap1\n  tag_14\n  jump\t// in\ntag_13:\n  swap1\n  dup2\n  mstore\n  0x20\n  add\n  mload(0x40)\n  dup1\n  swap2\n  sub\n  swap1\n  keccak256\n  0x00\n    /* \"contracts/6_Ordering.sol\":905:939  validBeverages[\"americano\"] = true */\n  0x0100\n  exp\n  dup2\n  sload\n  dup2\n  0xff\n  mul\n  not\n  and\n  swap1\n  dup4\n  iszero\n  iszero\n  mul\n  or\n  swap1\n  sstore\n  pop\n    /* \"contracts/6_Ordering.sol\":980:984  true */\n  0x01\n    /* \"contracts/6_Ordering.sol\":949:963  validBeverages */\n  0x04\n    /* \"contracts/6_Ordering.sol\":949:977  validBeverages[\"caffelatte\"] */\n  mload(0x40)\n  tag_15\n  swap1\n  tag_16\n  jump\t// in\ntag_15:\n  swap1\n  dup2\n  mstore\n  0x20\n  add\n  mload(0x40)\n  dup1\n  swap2\n  sub\n  swap1\n  keccak256\n  0x00\n    /* \"contracts/6_Ordering.sol\":949:984  validBeverages[\"caffelatte\"] = true */\n  0x0100\n  exp\n  dup2\n  sload\n  dup2\n  0xff\n  mul\n  not\n  and\n  swap1\n  dup4\n  iszero\n  iszero\n  mul\n  or\n  swap1\n  sstore\n  pop\n    /* \"contracts/6_Ordering.sol\":994:1006  beverageList */\n  0x05\n    /* \"contracts/6_Ordering.sol\":994:1024  beverageList.push(\"americano\") */\n  dup1\n  0x01\n  dup2\n  sload\n  add\n  dup1\n  dup3\n  sstore\n  dup1\n  swap2\n  pop\n  pop\n  0x01\n  swap1\n  sub\n  swap1\n  0x00\n  mstore\n  keccak256(0x00, 0x20)\n  add\n  0x00\n  mload(0x40)\n  dup1\n  0x40\n  add\n  0x40\n  mstore\n  dup1\n  0x09\n  dup2\n  mstore\n  0x20\n  add\n  0x616d65726963616e6f0000000000000000000000000000000000000000000000\n  dup2\n  mstore\n  pop\n  swap1\n  swap2\n  swap1\n  swap2\n  pop\n  swap1\n  dup2\n  tag_18\n  swap2\n  swap1\n  tag_19\n  jump\t// in\ntag_18:\n  pop\n    /* \"contracts/6_Ordering.sol\":1034:1046  beverageList */\n  0x05\n    /* \"contracts/6_Ordering.sol\":1034:1065  beverageList.push(\"caffelatte\") */\n  dup1\n  0x01\n  dup2\n  sload\n  add\n  dup1\n  dup3\n  sstore\n  dup1\n  swap2\n  pop\n  pop\n  0x01\n  swap1\n  sub\n  swap1\n  0x00\n  mstore\n  keccak256(0x00, 0x20)\n  add\n  0x00\n  mload(0x40)\n  dup1\n  0x40\n  add\n  0x40\n  mstore\n  dup1\n  0x0a\n  dup2\n  mstore\n  0x20\n  add\n  0x63616666656c6174746500000000000000000000000000000000000000000000\n  dup2\n  mstore\n  pop\n  swap1\n  swap2\n  swap1\n  swap2\n  pop\n  swap1\n  dup2\n  tag_21\n  swap2\n  swap1\n  tag_19\n  jump\t// in\ntag_21:\n  pop\n    /* \"contracts/6_Ordering.sol\":813:1072  constructor(address _tokenAddress) {... */\n  pop\n    /* \"contracts/6_Ordering.sol\":168:3150  contract BeverageOrdering is Ownable(msg.sender) {... */\n  jump(tag_22)\n    /* \"@openzeppelin/contracts/access/Ownable.sol\":2912:3099  function _transferOwnership(address newOwner) internal virtual {... */\ntag_11:\n    /* \"@openzeppelin/contracts/access/Ownable.sol\":2985:3001  address oldOwner */\n  0x00\n    /* \"@openzeppelin/contracts/access/Ownable.sol\":3004:3010  _owner */\n  dup1\n  0x00\n  swap1\n  sload\n  swap1\n  0x0100\n  exp\n  swap1\n  div\n  0xffffffffffffffffffffffffffffffffffffffff\n  and\n    /* \"@openzeppelin/contracts/access/Ownable.sol\":2985:3010  address oldOwner = _owner */\n  swap1\n  pop\n    /* \"@openzeppelin/contracts/access/Ownable.sol\":3029:3037  newOwner */\n  dup2\n    /* \"@openzeppelin/contracts/access/Ownable.sol\":3020:3026  _owner */\n  0x00\n  dup1\n    /* \"@openzeppelin/contracts/access/Ownable.sol\":3020:3037  _owner = newOwner */\n  0x0100\n  exp\n  dup2\n  sload\n  dup2\n  0xffffffffffffffffffffffffffffffffffffffff\n  mul\n  not\n  and\n  swap1\n  dup4\n  0xffffffffffffffffffffffffffffffffffffffff\n  and\n  mul\n  or\n  swap1\n  sstore\n  pop\n    /* \"@openzeppelin/contracts/access/Ownable.sol\":3083:3091  newOwner */\n  dup2\n    /* \"@openzeppelin/contracts/access/Ownable.sol\":3052:3092  OwnershipTransferred(oldOwner, newOwner) */\n  0xffffffffffffffffffffffffffffffffffffffff\n  and\n    /* \"@openzeppelin/contracts/access/Ownable.sol\":3073:3081  oldOwner */\n  dup2\n    /* \"@openzeppelin/contracts/access/Ownable.sol\":3052:3092  OwnershipTransferred(oldOwner, newOwner) */\n  0xffffffffffffffffffffffffffffffffffffffff\n  and\n  0x8be0079c531659141344cd1fd0a4f28419497f9722a3daafe3b4186f6b6457e0\n  mload(0x40)\n  mload(0x40)\n  dup1\n  swap2\n  sub\n  swap1\n  log3\n    /* \"@openzeppelin/contracts/access/Ownable.sol\":2975:3099  {... */\n  pop\n    /* \"@openzeppelin/contracts/access/Ownable.sol\":2912:3099  function _transferOwnership(address newOwner) internal virtual {... */\n  pop\n  jump\t// out\n    /* \"#utility.yul\":88:205   */\ntag_25:\n    /* \"#utility.yul\":197:198   */\n  0x00\n    /* \"#utility.yul\":194:195   */\n  dup1\n    /* \"#utility.yul\":187:199   */\n  revert\n    /* \"#utility.yul\":334:460   */\ntag_27:\n    /* \"#utility.yul\":371:378   */\n  0x00\n    /* \"#utility.yul\":411:453   */\n  0xffffffffffffffffffffffffffffffffffffffff\n    /* \"#utility.yul\":404:409   */\n  dup3\n    /* \"#utility.yul\":400:454   */\n  and\n    /* \"#utility.yul\":389:454   */\n  swap1\n  pop\n    /* \"#utility.yul\":334:460   */\n  swap2\n  swap1\n  pop\n  jump\t// out\n    /* \"#utility.yul\":466:562   */\ntag_28:\n    /* \"#utility.yul\":503:510   */\n  0x00\n    /* \"#utility.yul\":532:556   */\n  tag_63\n    /* \"#utility.yul\":550:555   */\n  dup3\n    /* \"#utility.yul\":532:556   */\n  tag_27\n  jump\t// in\ntag_63:\n    /* \"#utility.yul\":521:556   */\n  swap1\n  pop\n    /* \"#utility.yul\":466:562   */\n  swap2\n  swap1\n  pop\n  jump\t// out\n    /* \"#utility.yul\":568:690   */\ntag_29:\n    /* \"#utility.yul\":641:665   */\n  tag_65\n    /* \"#utility.yul\":659:664   */\n  dup2\n    /* \"#utility.yul\":641:665   */\n  tag_28\n  jump\t// in\ntag_65:\n    /* \"#utility.yul\":634:639   */\n  dup2\n    /* \"#utility.yul\":631:666   */\n  eq\n    /* \"#utility.yul\":621:684   */\n  tag_66\n  jumpi\n    /* \"#utility.yul\":680:681   */\n  0x00\n    /* \"#utility.yul\":677:678   */\n  dup1\n    /* \"#utility.yul\":670:682   */\n  revert\n    /* \"#utility.yul\":621:684   */\ntag_66:\n    /* \"#utility.yul\":568:690   */\n  pop\n  jump\t// out\n    /* \"#utility.yul\":696:839   */\ntag_30:\n    /* \"#utility.yul\":753:758   */\n  0x00\n    /* \"#utility.yul\":784:790   */\n  dup2\n    /* \"#utility.yul\":778:791   */\n  mload\n    /* \"#utility.yul\":769:791   */\n  swap1\n  pop\n    /* \"#utility.yul\":800:833   */\n  tag_68\n    /* \"#utility.yul\":827:832   */\n  dup2\n    /* \"#utility.yul\":800:833   */\n  tag_29\n  jump\t// in\ntag_68:\n    /* \"#utility.yul\":696:839   */\n  swap3\n  swap2\n  pop\n  pop\n  jump\t// out\n    /* \"#utility.yul\":845:1196   */\ntag_3:\n    /* \"#utility.yul\":915:921   */\n  0x00\n    /* \"#utility.yul\":964:966   */\n  0x20\n    /* \"#utility.yul\":952:961   */\n  dup3\n    /* \"#utility.yul\":943:950   */\n  dup5\n    /* \"#utility.yul\":939:962   */\n  sub\n    /* \"#utility.yul\":935:967   */\n  slt\n    /* \"#utility.yul\":932:1051   */\n  iszero\n  tag_70\n  jumpi\n    /* \"#utility.yul\":970:1049   */\n  tag_71\n  tag_25\n  jump\t// in\ntag_71:\n    /* \"#utility.yul\":932:1051   */\ntag_70:\n    /* \"#utility.yul\":1090:1091   */\n  0x00\n    /* \"#utility.yul\":1115:1179   */\n  tag_72\n    /* \"#utility.yul\":1171:1178   */\n  dup5\n    /* \"#utility.yul\":1162:1168   */\n  dup3\n    /* \"#utility.yul\":1151:1160   */\n  dup6\n    /* \"#utility.yul\":1147:1169   */\n  add\n    /* \"#utility.yul\":1115:1179   */\n  tag_30\n  jump\t// in\ntag_72:\n    /* \"#utility.yul\":1105:1179   */\n  swap2\n  pop\n    /* \"#utility.yul\":1061:1189   */\n  pop\n    /* \"#utility.yul\":845:1196   */\n  swap3\n  swap2\n  pop\n  pop\n  jump\t// out\n    /* \"#utility.yul\":1202:1320   */\ntag_31:\n    /* \"#utility.yul\":1289:1313   */\n  tag_74\n    /* \"#utility.yul\":1307:1312   */\n  dup2\n    /* \"#utility.yul\":1289:1313   */\n  tag_28\n  jump\t// in\ntag_74:\n    /* \"#utility.yul\":1284:1287   */\n  dup3\n    /* \"#utility.yul\":1277:1314   */\n  mstore\n    /* \"#utility.yul\":1202:1320   */\n  pop\n  pop\n  jump\t// out\n    /* \"#utility.yul\":1326:1548   */\ntag_9:\n    /* \"#utility.yul\":1419:1423   */\n  0x00\n    /* \"#utility.yul\":1457:1459   */\n  0x20\n    /* \"#utility.yul\":1446:1455   */\n  dup3\n    /* \"#utility.yul\":1442:1460   */\n  add\n    /* \"#utility.yul\":1434:1460   */\n  swap1\n  pop\n    /* \"#utility.yul\":1470:1541   */\n  tag_76\n    /* \"#utility.yul\":1538:1539   */\n  0x00\n    /* \"#utility.yul\":1527:1536   */\n  dup4\n    /* \"#utility.yul\":1523:1540   */\n  add\n    /* \"#utility.yul\":1514:1520   */\n  dup5\n    /* \"#utility.yul\":1470:1541   */\n  tag_31\n  jump\t// in\ntag_76:\n    /* \"#utility.yul\":1326:1548   */\n  swap3\n  swap2\n  pop\n  pop\n  jump\t// out\n    /* \"#utility.yul\":1554:1702   */\ntag_32:\n    /* \"#utility.yul\":1656:1667   */\n  0x00\n    /* \"#utility.yul\":1693:1696   */\n  dup2\n    /* \"#utility.yul\":1678:1696   */\n  swap1\n  pop\n    /* \"#utility.yul\":1554:1702   */\n  swap3\n  swap2\n  pop\n  pop\n  jump\t// out\n    /* \"#utility.yul\":1708:1867   */\ntag_33:\n    /* \"#utility.yul\":1848:1859   */\n  0x616d65726963616e6f0000000000000000000000000000000000000000000000\n    /* \"#utility.yul\":1844:1845   */\n  0x00\n    /* \"#utility.yul\":1836:1842   */\n  dup3\n    /* \"#utility.yul\":1832:1846   */\n  add\n    /* \"#utility.yul\":1825:1860   */\n  mstore\n    /* \"#utility.yul\":1708:1867   */\n  pop\n  jump\t// out\n    /* \"#utility.yul\":1873:2273   */\ntag_34:\n    /* \"#utility.yul\":2033:2036   */\n  0x00\n    /* \"#utility.yul\":2054:2138   */\n  tag_80\n    /* \"#utility.yul\":2136:2137   */\n  0x09\n    /* \"#utility.yul\":2131:2134   */\n  dup4\n    /* \"#utility.yul\":2054:2138   */\n  tag_32\n  jump\t// in\ntag_80:\n    /* \"#utility.yul\":2047:2138   */\n  swap2\n  pop\n    /* \"#utility.yul\":2147:2240   */\n  tag_81\n    /* \"#utility.yul\":2236:2239   */\n  dup3\n    /* \"#utility.yul\":2147:2240   */\n  tag_33\n  jump\t// in\ntag_81:\n    /* \"#utility.yul\":2265:2266   */\n  0x09\n    /* \"#utility.yul\":2260:2263   */\n  dup3\n    /* \"#utility.yul\":2256:2267   */\n  add\n    /* \"#utility.yul\":2249:2267   */\n  swap1\n  pop\n    /* \"#utility.yul\":1873:2273   */\n  swap2\n  swap1\n  pop\n  jump\t// out\n    /* \"#utility.yul\":2279:2660   */\ntag_14:\n    /* \"#utility.yul\":2464:2467   */\n  0x00\n    /* \"#utility.yul\":2486:2634   */\n  tag_83\n    /* \"#utility.yul\":2630:2633   */\n  dup3\n    /* \"#utility.yul\":2486:2634   */\n  tag_34\n  jump\t// in\ntag_83:\n    /* \"#utility.yul\":2479:2634   */\n  swap2\n  pop\n    /* \"#utility.yul\":2651:2654   */\n  dup2\n    /* \"#utility.yul\":2644:2654   */\n  swap1\n  pop\n    /* \"#utility.yul\":2279:2660   */\n  swap2\n  swap1\n  pop\n  jump\t// out\n    /* \"#utility.yul\":2666:2826   */\ntag_35:\n    /* \"#utility.yul\":2806:2818   */\n  0x63616666656c6174746500000000000000000000000000000000000000000000\n    /* \"#utility.yul\":2802:2803   */\n  0x00\n    /* \"#utility.yul\":2794:2800   */\n  dup3\n    /* \"#utility.yul\":2790:2804   */\n  add\n    /* \"#utility.yul\":2783:2819   */\n  mstore\n    /* \"#utility.yul\":2666:2826   */\n  pop\n  jump\t// out\n    /* \"#utility.yul\":2832:3234   */\ntag_36:\n    /* \"#utility.yul\":2992:2995   */\n  0x00\n    /* \"#utility.yul\":3013:3098   */\n  tag_86\n    /* \"#utility.yul\":3095:3097   */\n  0x0a\n    /* \"#utility.yul\":3090:3093   */\n  dup4\n    /* \"#utility.yul\":3013:3098   */\n  tag_32\n  jump\t// in\ntag_86:\n    /* \"#utility.yul\":3006:3098   */\n  swap2\n  pop\n    /* \"#utility.yul\":3107:3200   */\n  tag_87\n    /* \"#utility.yul\":3196:3199   */\n  dup3\n    /* \"#utility.yul\":3107:3200   */\n  tag_35\n  jump\t// in\ntag_87:\n    /* \"#utility.yul\":3225:3227   */\n  0x0a\n    /* \"#utility.yul\":3220:3223   */\n  dup3\n    /* \"#utility.yul\":3216:3228   */\n  add\n    /* \"#utility.yul\":3209:3228   */\n  swap1\n  pop\n    /* \"#utility.yul\":2832:3234   */\n  swap2\n  swap1\n  pop\n  jump\t// out\n    /* \"#utility.yul\":3240:3621   */\ntag_16:\n    /* \"#utility.yul\":3425:3428   */\n  0x00\n    /* \"#utility.yul\":3447:3595   */\n  tag_89\n    /* \"#utility.yul\":3591:3594   */\n  dup3\n    /* \"#utility.yul\":3447:3595   */\n  tag_36\n  jump\t// in\ntag_89:\n    /* \"#utility.yul\":3440:3595   */\n  swap2\n  pop\n    /* \"#utility.yul\":3612:3615   */\n  dup2\n    /* \"#utility.yul\":3605:3615   */\n  swap1\n  pop\n    /* \"#utility.yul\":3240:3621   */\n  swap2\n  swap1\n  pop\n  jump\t// out\n    /* \"#utility.yul\":3627:3726   */\ntag_37:\n    /* \"#utility.yul\":3679:3685   */\n  0x00\n    /* \"#utility.yul\":3713:3718   */\n  dup2\n    /* \"#utility.yul\":3707:3719   */\n  mload\n    /* \"#utility.yul\":3697:3719   */\n  swap1\n  pop\n    /* \"#utility.yul\":3627:3726   */\n  swap2\n  swap1\n  pop\n  jump\t// out\n    /* \"#utility.yul\":3732:3912   */\ntag_38:\n    /* \"#utility.yul\":3780:3857   */\n  0x4e487b7100000000000000000000000000000000000000000000000000000000\n    /* \"#utility.yul\":3777:3778   */\n  0x00\n    /* \"#utility.yul\":3770:3858   */\n  mstore\n    /* \"#utility.yul\":3877:3881   */\n  0x41\n    /* \"#utility.yul\":3874:3875   */\n  0x04\n    /* \"#utility.yul\":3867:3882   */\n  mstore\n    /* \"#utility.yul\":3901:3905   */\n  0x24\n    /* \"#utility.yul\":3898:3899   */\n  0x00\n    /* \"#utility.yul\":3891:3906   */\n  revert\n    /* \"#utility.yul\":3918:4098   */\ntag_39:\n    /* \"#utility.yul\":3966:4043   */\n  0x4e487b7100000000000000000000000000000000000000000000000000000000\n    /* \"#utility.yul\":3963:3964   */\n  0x00\n    /* \"#utility.yul\":3956:4044   */\n  mstore\n    /* \"#utility.yul\":4063:4067   */\n  0x22\n    /* \"#utility.yul\":4060:4061   */\n  0x04\n    /* \"#utility.yul\":4053:4068   */\n  mstore\n    /* \"#utility.yul\":4087:4091   */\n  0x24\n    /* \"#utility.yul\":4084:4085   */\n  0x00\n    /* \"#utility.yul\":4077:4092   */\n  revert\n    /* \"#utility.yul\":4104:4424   */\ntag_40:\n    /* \"#utility.yul\":4148:4154   */\n  0x00\n    /* \"#utility.yul\":4185:4186   */\n  0x02\n    /* \"#utility.yul\":4179:4183   */\n  dup3\n    /* \"#utility.yul\":4175:4187   */\n  div\n    /* \"#utility.yul\":4165:4187   */\n  swap1\n  pop\n    /* \"#utility.yul\":4232:4233   */\n  0x01\n    /* \"#utility.yul\":4226:4230   */\n  dup3\n    /* \"#utility.yul\":4222:4234   */\n  and\n    /* \"#utility.yul\":4253:4271   */\n  dup1\n    /* \"#utility.yul\":4243:4324   */\n  tag_94\n  jumpi\n    /* \"#utility.yul\":4309:4313   */\n  0x7f\n    /* \"#utility.yul\":4301:4307   */\n  dup3\n    /* \"#utility.yul\":4297:4314   */\n  and\n    /* \"#utility.yul\":4287:4314   */\n  swap2\n  pop\n    /* \"#utility.yul\":4243:4324   */\ntag_94:\n    /* \"#utility.yul\":4371:4373   */\n  0x20\n    /* \"#utility.yul\":4363:4369   */\n  dup3\n    /* \"#utility.yul\":4360:4374   */\n  lt\n    /* \"#utility.yul\":4340:4358   */\n  dup2\n    /* \"#utility.yul\":4337:4375   */\n  sub\n    /* \"#utility.yul\":4334:4418   */\n  tag_95\n  jumpi\n    /* \"#utility.yul\":4390:4408   */\n  tag_96\n  tag_39\n  jump\t// in\ntag_96:\n    /* \"#utility.yul\":4334:4418   */\ntag_95:\n    /* \"#utility.yul\":4155:4424   */\n  pop\n    /* \"#utility.yul\":4104:4424   */\n  swap2\n  swap1\n  pop\n  jump\t// out\n    /* \"#utility.yul\":4430:4571   */\ntag_41:\n    /* \"#utility.yul\":4479:4483   */\n  0x00\n    /* \"#utility.yul\":4502:4505   */\n  dup2\n    /* \"#utility.yul\":4494:4505   */\n  swap1\n  pop\n    /* \"#utility.yul\":4525:4528   */\n  dup2\n    /* \"#utility.yul\":4522:4523   */\n  0x00\n    /* \"#utility.yul\":4515:4529   */\n  mstore\n    /* \"#utility.yul\":4559:4563   */\n  0x20\n    /* \"#utility.yul\":4556:4557   */\n  0x00\n    /* \"#utility.yul\":4546:4564   */\n  keccak256\n    /* \"#utility.yul\":4538:4564   */\n  swap1\n  pop\n    /* \"#utility.yul\":4430:4571   */\n  swap2\n  swap1\n  pop\n  jump\t// out\n    /* \"#utility.yul\":4577:4670   */\ntag_42:\n    /* \"#utility.yul\":4614:4620   */\n  0x00\n    /* \"#utility.yul\":4661:4663   */\n  0x20\n    /* \"#utility.yul\":4656:4658   */\n  0x1f\n    /* \"#utility.yul\":4649:4654   */\n  dup4\n    /* \"#utility.yul\":4645:4659   */\n  add\n    /* \"#utility.yul\":4641:4664   */\n  div\n    /* \"#utility.yul\":4631:4664   */\n  swap1\n  pop\n    /* \"#utility.yul\":4577:4670   */\n  swap2\n  swap1\n  pop\n  jump\t// out\n    /* \"#utility.yul\":4676:4783   */\ntag_43:\n    /* \"#utility.yul\":4720:4728   */\n  0x00\n    /* \"#utility.yul\":4770:4775   */\n  dup3\n    /* \"#utility.yul\":4764:4768   */\n  dup3\n    /* \"#utility.yul\":4760:4776   */\n  shl\n    /* \"#utility.yul\":4739:4776   */\n  swap1\n  pop\n    /* \"#utility.yul\":4676:4783   */\n  swap3\n  swap2\n  pop\n  pop\n  jump\t// out\n    /* \"#utility.yul\":4789:5182   */\ntag_44:\n    /* \"#utility.yul\":4858:4864   */\n  0x00\n    /* \"#utility.yul\":4908:4909   */\n  0x08\n    /* \"#utility.yul\":4896:4906   */\n  dup4\n    /* \"#utility.yul\":4892:4910   */\n  mul\n    /* \"#utility.yul\":4931:5028   */\n  tag_101\n    /* \"#utility.yul\":4961:5027   */\n  0xffffffffffffffffffffffffffffffffffffffffffffffffffffffffffffffff\n    /* \"#utility.yul\":4950:4959   */\n  dup3\n    /* \"#utility.yul\":4931:5028   */\n  tag_43\n  jump\t// in\ntag_101:\n    /* \"#utility.yul\":5049:5088   */\n  tag_102\n    /* \"#utility.yul\":5079:5087   */\n  dup7\n    /* \"#utility.yul\":5068:5077   */\n  dup4\n    /* \"#utility.yul\":5049:5088   */\n  tag_43\n  jump\t// in\ntag_102:\n    /* \"#utility.yul\":5037:5088   */\n  swap6\n  pop\n    /* \"#utility.yul\":5121:5125   */\n  dup1\n    /* \"#utility.yul\":5117:5126   */\n  not\n    /* \"#utility.yul\":5110:5115   */\n  dup5\n    /* \"#utility.yul\":5106:5127   */\n  and\n    /* \"#utility.yul\":5097:5127   */\n  swap4\n  pop\n    /* \"#utility.yul\":5170:5174   */\n  dup1\n    /* \"#utility.yul\":5160:5168   */\n  dup7\n    /* \"#utility.yul\":5156:5175   */\n  and\n    /* \"#utility.yul\":5149:5154   */\n  dup5\n    /* \"#utility.yul\":5146:5176   */\n  or\n    /* \"#utility.yul\":5136:5176   */\n  swap3\n  pop\n    /* \"#utility.yul\":4865:5182   */\n  pop\n  pop\n    /* \"#utility.yul\":4789:5182   */\n  swap4\n  swap3\n  pop\n  pop\n  pop\n  jump\t// out\n    /* \"#utility.yul\":5188:5265   */\ntag_45:\n    /* \"#utility.yul\":5225:5232   */\n  0x00\n    /* \"#utility.yul\":5254:5259   */\n  dup2\n    /* \"#utility.yul\":5243:5259   */\n  swap1\n  pop\n    /* \"#utility.yul\":5188:5265   */\n  swap2\n  swap1\n  pop\n  jump\t// out\n    /* \"#utility.yul\":5271:5331   */\ntag_46:\n    /* \"#utility.yul\":5299:5302   */\n  0x00\n    /* \"#utility.yul\":5320:5325   */\n  dup2\n    /* \"#utility.yul\":5313:5325   */\n  swap1\n  pop\n    /* \"#utility.yul\":5271:5331   */\n  swap2\n  swap1\n  pop\n  jump\t// out\n    /* \"#utility.yul\":5337:5479   */\ntag_47:\n    /* \"#utility.yul\":5387:5396   */\n  0x00\n    /* \"#utility.yul\":5420:5473   */\n  tag_106\n    /* \"#utility.yul\":5438:5472   */\n  tag_107\n    /* \"#utility.yul\":5447:5471   */\n  tag_108\n    /* \"#utility.yul\":5465:5470   */\n  dup5\n    /* \"#utility.yul\":5447:5471   */\n  tag_45\n  jump\t// in\ntag_108:\n    /* \"#utility.yul\":5438:5472   */\n  tag_46\n  jump\t// in\ntag_107:\n    /* \"#utility.yul\":5420:5473   */\n  tag_45\n  jump\t// in\ntag_106:\n    /* \"#utility.yul\":5407:5473   */\n  swap1\n  pop\n    /* \"#utility.yul\":5337:5479   */\n  swap2\n  swap1\n  pop\n  jump\t// out\n    /* \"#utility.yul\":5485:5560   */\ntag_48:\n    /* \"#utility.yul\":5528:5531   */\n  0x00\n    /* \"#utility.yul\":5549:5554   */\n  dup2\n    /* \"#utility.yul\":5542:5554   */\n  swap1\n  pop\n    /* \"#utility.yul\":5485:5560   */\n  swap2\n  swap1\n  pop\n  jump\t// out\n    /* \"#utility.yul\":5566:5835   */\ntag_49:\n    /* \"#utility.yul\":5676:5715   */\n  tag_111\n    /* \"#utility.yul\":5707:5714   */\n  dup4\n    /* \"#utility.yul\":5676:5715   */\n  tag_47\n  jump\t// in\ntag_111:\n    /* \"#utility.yul\":5737:5828   */\n  tag_112\n    /* \"#utility.yul\":5786:5827   */\n  tag_113\n    /* \"#utility.yul\":5810:5826   */\n  dup3\n    /* \"#utility.yul\":5786:5827   */\n  tag_48\n  jump\t// in\ntag_113:\n    /* \"#utility.yul\":5778:5784   */\n  dup5\n    /* \"#utility.yul\":5771:5775   */\n  dup5\n    /* \"#utility.yul\":5765:5776   */\n  sload\n    /* \"#utility.yul\":5737:5828   */\n  tag_44\n  jump\t// in\ntag_112:\n    /* \"#utility.yul\":5731:5735   */\n  dup3\n    /* \"#utility.yul\":5724:5829   */\n  sstore\n    /* \"#utility.yul\":5642:5835   */\n  pop\n    /* \"#utility.yul\":5566:5835   */\n  pop\n  pop\n  pop\n  jump\t// out\n    /* \"#utility.yul\":5841:5914   */\ntag_50:\n    /* \"#utility.yul\":5886:5889   */\n  0x00\n    /* \"#utility.yul\":5841:5914   */\n  swap1\n  jump\t// out\n    /* \"#utility.yul\":5920:6109   */\ntag_51:\n    /* \"#utility.yul\":5997:6029   */\n  tag_116\n  tag_50\n  jump\t// in\ntag_116:\n    /* \"#utility.yul\":6038:6103   */\n  tag_117\n    /* \"#utility.yul\":6096:6102   */\n  dup2\n    /* \"#utility.yul\":6088:6094   */\n  dup5\n    /* \"#utility.yul\":6082:6086   */\n  dup5\n    /* \"#utility.yul\":6038:6103   */\n  tag_49\n  jump\t// in\ntag_117:\n    /* \"#utility.yul\":5973:6109   */\n  pop\n    /* \"#utility.yul\":5920:6109   */\n  pop\n  pop\n  jump\t// out\n    /* \"#utility.yul\":6115:6301   */\ntag_52:\n    /* \"#utility.yul\":6175:6295   */\ntag_119:\n    /* \"#utility.yul\":6192:6195   */\n  dup2\n    /* \"#utility.yul\":6185:6190   */\n  dup2\n    /* \"#utility.yul\":6182:6196   */\n  lt\n    /* \"#utility.yul\":6175:6295   */\n  iszero\n  tag_121\n  jumpi\n    /* \"#utility.yul\":6246:6285   */\n  tag_122\n    /* \"#utility.yul\":6283:6284   */\n  0x00\n    /* \"#utility.yul\":6276:6281   */\n  dup3\n    /* \"#utility.yul\":6246:6285   */\n  tag_51\n  jump\t// in\ntag_122:\n    /* \"#utility.yul\":6219:6220   */\n  0x01\n    /* \"#utility.yul\":6212:6217   */\n  dup2\n    /* \"#utility.yul\":6208:6221   */\n  add\n    /* \"#utility.yul\":6199:6221   */\n  swap1\n  pop\n    /* \"#utility.yul\":6175:6295   */\n  jump(tag_119)\ntag_121:\n    /* \"#utility.yul\":6115:6301   */\n  pop\n  pop\n  jump\t// out\n    /* \"#utility.yul\":6307:6850   */\ntag_53:\n    /* \"#utility.yul\":6408:6410   */\n  0x1f\n    /* \"#utility.yul\":6403:6406   */\n  dup3\n    /* \"#utility.yul\":6400:6411   */\n  gt\n    /* \"#utility.yul\":6397:6843   */\n  iszero\n  tag_124\n  jumpi\n    /* \"#utility.yul\":6442:6480   */\n  tag_125\n    /* \"#utility.yul\":6474:6479   */\n  dup2\n    /* \"#utility.yul\":6442:6480   */\n  tag_41\n  jump\t// in\ntag_125:\n    /* \"#utility.yul\":6526:6555   */\n  tag_126\n    /* \"#utility.yul\":6544:6554   */\n  dup5\n    /* \"#utility.yul\":6526:6555   */\n  tag_42\n  jump\t// in\ntag_126:\n    /* \"#utility.yul\":6516:6524   */\n  dup2\n    /* \"#utility.yul\":6512:6556   */\n  add\n    /* \"#utility.yul\":6709:6711   */\n  0x20\n    /* \"#utility.yul\":6697:6707   */\n  dup6\n    /* \"#utility.yul\":6694:6712   */\n  lt\n    /* \"#utility.yul\":6691:6740   */\n  iszero\n  tag_127\n  jumpi\n    /* \"#utility.yul\":6730:6738   */\n  dup2\n    /* \"#utility.yul\":6715:6738   */\n  swap1\n  pop\n    /* \"#utility.yul\":6691:6740   */\ntag_127:\n    /* \"#utility.yul\":6753:6833   */\n  tag_128\n    /* \"#utility.yul\":6809:6831   */\n  tag_129\n    /* \"#utility.yul\":6827:6830   */\n  dup6\n    /* \"#utility.yul\":6809:6831   */\n  tag_42\n  jump\t// in\ntag_129:\n    /* \"#utility.yul\":6799:6807   */\n  dup4\n    /* \"#utility.yul\":6795:6832   */\n  add\n    /* \"#utility.yul\":6782:6793   */\n  dup3\n    /* \"#utility.yul\":6753:6833   */\n  tag_52\n  jump\t// in\ntag_128:\n    /* \"#utility.yul\":6412:6843   */\n  pop\n  pop\n    /* \"#utility.yul\":6397:6843   */\ntag_124:\n    /* \"#utility.yul\":6307:6850   */\n  pop\n  pop\n  pop\n  jump\t// out\n    /* \"#utility.yul\":6856:6973   */\ntag_54:\n    /* \"#utility.yul\":6910:6918   */\n  0x00\n    /* \"#utility.yul\":6960:6965   */\n  dup3\n    /* \"#utility.yul\":6954:6958   */\n  dup3\n    /* \"#utility.yul\":6950:6966   */\n  shr\n    /* \"#utility.yul\":6929:6966   */\n  swap1\n  pop\n    /* \"#utility.yul\":6856:6973   */\n  swap3\n  swap2\n  pop\n  pop\n  jump\t// out\n    /* \"#utility.yul\":6979:7148   */\ntag_55:\n    /* \"#utility.yul\":7023:7029   */\n  0x00\n    /* \"#utility.yul\":7056:7107   */\n  tag_132\n    /* \"#utility.yul\":7104:7105   */\n  0x00\n    /* \"#utility.yul\":7100:7106   */\n  not\n    /* \"#utility.yul\":7092:7097   */\n  dup5\n    /* \"#utility.yul\":7089:7090   */\n  0x08\n    /* \"#utility.yul\":7085:7098   */\n  mul\n    /* \"#utility.yul\":7056:7107   */\n  tag_54\n  jump\t// in\ntag_132:\n    /* \"#utility.yul\":7052:7108   */\n  not\n    /* \"#utility.yul\":7137:7141   */\n  dup1\n    /* \"#utility.yul\":7131:7135   */\n  dup4\n    /* \"#utility.yul\":7127:7142   */\n  and\n    /* \"#utility.yul\":7117:7142   */\n  swap2\n  pop\n    /* \"#utility.yul\":7030:7148   */\n  pop\n    /* \"#utility.yul\":6979:7148   */\n  swap3\n  swap2\n  pop\n  pop\n  jump\t// out\n    /* \"#utility.yul\":7153:7448   */\ntag_56:\n    /* \"#utility.yul\":7229:7233   */\n  0x00\n    /* \"#utility.yul\":7375:7404   */\n  tag_134\n    /* \"#utility.yul\":7400:7403   */\n  dup4\n    /* \"#utility.yul\":7394:7398   */\n  dup4\n    /* \"#utility.yul\":7375:7404   */\n  tag_55\n  jump\t// in\ntag_134:\n    /* \"#utility.yul\":7367:7404   */\n  swap2\n  pop\n    /* \"#utility.yul\":7437:7440   */\n  dup3\n    /* \"#utility.yul\":7434:7435   */\n  0x02\n    /* \"#utility.yul\":7430:7441   */\n  mul\n    /* \"#utility.yul\":7424:7428   */\n  dup3\n    /* \"#utility.yul\":7421:7442   */\n  or\n    /* \"#utility.yul\":7413:7442   */\n  swap1\n  pop\n    /* \"#utility.yul\":7153:7448   */\n  swap3\n  swap2\n  pop\n  pop\n  jump\t// out\n    /* \"#utility.yul\":7453:8848   */\ntag_19:\n    /* \"#utility.yul\":7570:7607   */\n  tag_136\n    /* \"#utility.yul\":7603:7606   */\n  dup3\n    /* \"#utility.yul\":7570:7607   */\n  tag_37\n  jump\t// in\ntag_136:\n    /* \"#utility.yul\":7672:7690   */\n  0xffffffffffffffff\n    /* \"#utility.yul\":7664:7670   */\n  dup2\n    /* \"#utility.yul\":7661:7691   */\n  gt\n    /* \"#utility.yul\":7658:7714   */\n  iszero\n  tag_137\n  jumpi\n    /* \"#utility.yul\":7694:7712   */\n  tag_138\n  tag_38\n  jump\t// in\ntag_138:\n    /* \"#utility.yul\":7658:7714   */\ntag_137:\n    /* \"#utility.yul\":7738:7776   */\n  tag_139\n    /* \"#utility.yul\":7770:7774   */\n  dup3\n    /* \"#utility.yul\":7764:7775   */\n  sload\n    /* \"#utility.yul\":7738:7776   */\n  tag_40\n  jump\t// in\ntag_139:\n    /* \"#utility.yul\":7823:7890   */\n  tag_140\n    /* \"#utility.yul\":7883:7889   */\n  dup3\n    /* \"#utility.yul\":7875:7881   */\n  dup3\n    /* \"#utility.yul\":7869:7873   */\n  dup6\n    /* \"#utility.yul\":7823:7890   */\n  tag_53\n  jump\t// in\ntag_140:\n    /* \"#utility.yul\":7917:7918   */\n  0x00\n    /* \"#utility.yul\":7941:7945   */\n  0x20\n    /* \"#utility.yul\":7928:7945   */\n  swap1\n  pop\n    /* \"#utility.yul\":7973:7975   */\n  0x1f\n    /* \"#utility.yul\":7965:7971   */\n  dup4\n    /* \"#utility.yul\":7962:7976   */\n  gt\n    /* \"#utility.yul\":7990:7991   */\n  0x01\n    /* \"#utility.yul\":7985:8603   */\n  dup2\n  eq\n  tag_142\n  jumpi\n    /* \"#utility.yul\":8647:8648   */\n  0x00\n    /* \"#utility.yul\":8664:8670   */\n  dup5\n    /* \"#utility.yul\":8661:8738   */\n  iszero\n  tag_143\n  jumpi\n    /* \"#utility.yul\":8713:8722   */\n  dup3\n    /* \"#utility.yul\":8708:8711   */\n  dup8\n    /* \"#utility.yul\":8704:8723   */\n  add\n    /* \"#utility.yul\":8698:8724   */\n  mload\n    /* \"#utility.yul\":8689:8724   */\n  swap1\n  pop\n    /* \"#utility.yul\":8661:8738   */\ntag_143:\n    /* \"#utility.yul\":8764:8831   */\n  tag_144\n    /* \"#utility.yul\":8824:8830   */\n  dup6\n    /* \"#utility.yul\":8817:8822   */\n  dup3\n    /* \"#utility.yul\":8764:8831   */\n  tag_56\n  jump\t// in\ntag_144:\n    /* \"#utility.yul\":8758:8762   */\n  dup7\n    /* \"#utility.yul\":8751:8832   */\n  sstore\n    /* \"#utility.yul\":8620:8842   */\n  pop\n    /* \"#utility.yul\":7955:8842   */\n  jump(tag_141)\n    /* \"#utility.yul\":7985:8603   */\ntag_142:\n    /* \"#utility.yul\":8037:8041   */\n  0x1f\n    /* \"#utility.yul\":8033:8042   */\n  not\n    /* \"#utility.yul\":8025:8031   */\n  dup5\n    /* \"#utility.yul\":8021:8043   */\n  and\n    /* \"#utility.yul\":8071:8108   */\n  tag_145\n    /* \"#utility.yul\":8103:8107   */\n  dup7\n    /* \"#utility.yul\":8071:8108   */\n  tag_41\n  jump\t// in\ntag_145:\n    /* \"#utility.yul\":8130:8131   */\n  0x00\n    /* \"#utility.yul\":8144:8352   */\ntag_146:\n    /* \"#utility.yul\":8158:8165   */\n  dup3\n    /* \"#utility.yul\":8155:8156   */\n  dup2\n    /* \"#utility.yul\":8152:8166   */\n  lt\n    /* \"#utility.yul\":8144:8352   */\n  iszero\n  tag_148\n  jumpi\n    /* \"#utility.yul\":8237:8246   */\n  dup5\n    /* \"#utility.yul\":8232:8235   */\n  dup10\n    /* \"#utility.yul\":8228:8247   */\n  add\n    /* \"#utility.yul\":8222:8248   */\n  mload\n    /* \"#utility.yul\":8214:8220   */\n  dup3\n    /* \"#utility.yul\":8207:8249   */\n  sstore\n    /* \"#utility.yul\":8288:8289   */\n  0x01\n    /* \"#utility.yul\":8280:8286   */\n  dup3\n    /* \"#utility.yul\":8276:8290   */\n  add\n    /* \"#utility.yul\":8266:8290   */\n  swap2\n  pop\n    /* \"#utility.yul\":8335:8337   */\n  0x20\n    /* \"#utility.yul\":8324:8333   */\n  dup6\n    /* \"#utility.yul\":8320:8338   */\n  add\n    /* \"#utility.yul\":8307:8338   */\n  swap5\n  pop\n    /* \"#utility.yul\":8181:8185   */\n  0x20\n    /* \"#utility.yul\":8178:8179   */\n  dup2\n    /* \"#utility.yul\":8174:8186   */\n  add\n    /* \"#utility.yul\":8169:8186   */\n  swap1\n  pop\n    /* \"#utility.yul\":8144:8352   */\n  jump(tag_146)\ntag_148:\n    /* \"#utility.yul\":8380:8386   */\n  dup7\n    /* \"#utility.yul\":8371:8378   */\n  dup4\n    /* \"#utility.yul\":8368:8387   */\n  lt\n    /* \"#utility.yul\":8365:8544   */\n  iszero\n  tag_149\n  jumpi\n    /* \"#utility.yul\":8438:8447   */\n  dup5\n    /* \"#utility.yul\":8433:8436   */\n  dup10\n    /* \"#utility.yul\":8429:8448   */\n  add\n    /* \"#utility.yul\":8423:8449   */\n  mload\n    /* \"#utility.yul\":8481:8529   */\n  tag_150\n    /* \"#utility.yul\":8523:8527   */\n  0x1f\n    /* \"#utility.yul\":8515:8521   */\n  dup10\n    /* \"#utility.yul\":8511:8528   */\n  and\n    /* \"#utility.yul\":8500:8509   */\n  dup3\n    /* \"#utility.yul\":8481:8529   */\n  tag_55\n  jump\t// in\ntag_150:\n    /* \"#utility.yul\":8473:8479   */\n  dup4\n    /* \"#utility.yul\":8466:8530   */\n  sstore\n    /* \"#utility.yul\":8388:8544   */\n  pop\n    /* \"#utility.yul\":8365:8544   */\ntag_149:\n    /* \"#utility.yul\":8590:8591   */\n  0x01\n    /* \"#utility.yul\":8586:8587   */\n  0x02\n    /* \"#utility.yul\":8578:8584   */\n  dup9\n    /* \"#utility.yul\":8574:8588   */\n  mul\n    /* \"#utility.yul\":8570:8592   */\n  add\n    /* \"#utility.yul\":8564:8568   */\n  dup9\n    /* \"#utility.yul\":8557:8593   */\n  sstore\n    /* \"#utility.yul\":7992:8603   */\n  pop\n  pop\n  pop\n    /* \"#utility.yul\":7955:8842   */\ntag_141:\n  pop\n    /* \"#utility.yul\":7545:8848   */\n  pop\n  pop\n  pop\n    /* \"#utility.yul\":7453:8848   */\n  pop\n  pop\n  jump\t// out\n    /* \"contracts/6_Ordering.sol\":168:3150  contract BeverageOrdering is Ownable(msg.sender) {... */\ntag_22:\n  dataSize(sub_0)\n  dup1\n  dataOffset(sub_0)\n  0x00\n  codecopy\n  0x00\n  return\nstop\n\nsub_0: assembly {\n        /* \"contracts/6_Ordering.sol\":168:3150  contract BeverageOrdering is Ownable(msg.sender) {... */\n      mstore(0x40, 0x80)\n      callvalue\n      dup1\n      iszero\n      tag_1\n      jumpi\n      0x00\n      dup1\n      revert\n    tag_1:\n      pop\n      jumpi(tag_2, lt(calldatasize, 0x04))\n      shr(0xe0, calldataload(0x00))\n      dup1\n      0xa85c38ef\n      gt\n      tag_16\n      jumpi\n      dup1\n      0xd3fa59cf\n      gt\n      tag_17\n      jumpi\n      dup1\n      0xd3fa59cf\n      eq\n      tag_12\n      jumpi\n      dup1\n      0xf2fde38b\n      eq\n      tag_13\n      jumpi\n      dup1\n      0xf9f847dd\n      eq\n      tag_14\n      jumpi\n      dup1\n      0xfa47fd60\n      eq\n      tag_15\n      jumpi\n      jump(tag_2)\n    tag_17:\n      dup1\n      0xa85c38ef\n      eq\n      tag_9\n      jumpi\n      dup1\n      0xae812b97\n      eq\n      tag_10\n      jumpi\n      dup1\n      0xd09ef241\n      eq\n      tag_11\n      jumpi\n      jump(tag_2)\n    tag_16:\n      dup1\n      0x2ff71f3a\n      eq\n      tag_3\n      jumpi\n      dup1\n      0x55a373d6\n      eq\n      tag_4\n      jumpi\n      dup1\n      0x5660a053\n      eq\n      tag_5\n      jumpi\n      dup1\n      0x715018a6\n      eq\n      tag_6\n      jumpi\n      dup1\n      0x8ac7d79c\n      eq\n      tag_7\n      jumpi\n      dup1\n      0x8da5cb5b\n      eq\n      tag_8\n      jumpi\n    tag_2:\n      0x00\n      dup1\n      revert\n        /* \"contracts/6_Ordering.sol\":458:503  mapping(string => bool) public validBeverages */\n    tag_3:\n      tag_18\n      0x04\n      dup1\n      calldatasize\n      sub\n      dup2\n      add\n      swap1\n      tag_19\n      swap2\n      swap1\n      tag_20\n      jump\t// in\n    tag_19:\n      tag_21\n      jump\t// in\n    tag_18:\n      mload(0x40)\n      tag_22\n      swap2\n      swap1\n      tag_23\n      jump\t// in\n    tag_22:\n      mload(0x40)\n      dup1\n      swap2\n      sub\n      swap1\n      return\n        /* \"contracts/6_Ordering.sol\":223:250  IERC20 public tokenContract */\n    tag_4:\n      tag_24\n      tag_25\n      jump\t// in\n    tag_24:\n      mload(0x40)\n      tag_26\n      swap2\n      swap1\n      tag_27\n      jump\t// in\n    tag_26:\n      mload(0x40)\n      dup1\n      swap2\n      sub\n      swap1\n      return\n        /* \"contracts/6_Ordering.sol\":509:537  string[] public beverageList */\n    tag_5:\n      tag_28\n      0x04\n      dup1\n      calldatasize\n      sub\n      dup2\n      add\n      swap1\n      tag_29\n      swap2\n      swap1\n      tag_30\n      jump\t// in\n    tag_29:\n      tag_31\n      jump\t// in\n    tag_28:\n      mload(0x40)\n      tag_32\n      swap2\n      swap1\n      tag_33\n      jump\t// in\n    tag_32:\n      mload(0x40)\n      dup1\n      swap2\n      sub\n      swap1\n      return\n        /* \"contracts/6_Ordering.sol\":614:734  function renounceOwnership() view public override onlyOwner {... */\n    tag_6:\n      tag_34\n      tag_35\n      jump\t// in\n    tag_34:\n      stop\n        /* \"contracts/6_Ordering.sol\":2522:2777  function confirmOrder(uint256 orderIndex) public onlyOwner {... */\n    tag_7:\n      tag_36\n      0x04\n      dup1\n      calldatasize\n      sub\n      dup2\n      add\n      swap1\n      tag_37\n      swap2\n      swap1\n      tag_30\n      jump\t// in\n    tag_37:\n      tag_38\n      jump\t// in\n    tag_36:\n      stop\n        /* \"@openzeppelin/contracts/access/Ownable.sol\":1638:1723  function owner() public view virtual returns (address) {... */\n    tag_8:\n      tag_39\n      tag_40\n      jump\t// in\n    tag_39:\n      mload(0x40)\n      tag_41\n      swap2\n      swap1\n      tag_42\n      jump\t// in\n    tag_41:\n      mload(0x40)\n      dup1\n      swap2\n      sub\n      swap1\n      return\n        /* \"contracts/6_Ordering.sol\":431:452  Order[] public orders */\n    tag_9:\n      tag_43\n      0x04\n      dup1\n      calldatasize\n      sub\n      dup2\n      add\n      swap1\n      tag_44\n      swap2\n      swap1\n      tag_30\n      jump\t// in\n    tag_44:\n      tag_45\n      jump\t// in\n    tag_43:\n      mload(0x40)\n      tag_46\n      swap4\n      swap3\n      swap2\n      swap1\n      tag_47\n      jump\t// in\n    tag_46:\n      mload(0x40)\n      dup1\n      swap2\n      sub\n      swap1\n      return\n        /* \"contracts/6_Ordering.sol\":3042:3148  function getAllValidBeverages() public view returns (string[] memory) {... */\n    tag_10:\n      tag_48\n      tag_49\n      jump\t// in\n    tag_48:\n      mload(0x40)\n      tag_50\n      swap2\n      swap1\n      tag_51\n      jump\t// in\n    tag_50:\n      mload(0x40)\n      dup1\n      swap2\n      sub\n      swap1\n      return\n        /* \"contracts/6_Ordering.sol\":2818:3001  function getOrder(uint256 orderIndex) public view returns (Order memory) {... */\n    tag_11:\n      tag_52\n      0x04\n      dup1\n      calldatasize\n      sub\n      dup2\n      add\n      swap1\n      tag_53\n      swap2\n      swap1\n      tag_30\n      jump\t// in\n    tag_53:\n      tag_54\n      jump\t// in\n    tag_52:\n      mload(0x40)\n      tag_55\n      swap2\n      swap1\n      tag_56\n      jump\t// in\n    tag_55:\n      mload(0x40)\n      dup1\n      swap2\n      sub\n      swap1\n      return\n        /* \"contracts/6_Ordering.sol\":1112:1994  function setBeverageValidity(string memory beverage, bool isValid) public onlyOwner {... */\n    tag_12:\n      tag_57\n      0x04\n      dup1\n      calldatasize\n      sub\n      dup2\n      add\n      swap1\n      tag_58\n      swap2\n      swap1\n      tag_59\n      jump\t// in\n    tag_58:\n      tag_60\n      jump\t// in\n    tag_57:\n      stop\n        /* \"@openzeppelin/contracts/access/Ownable.sol\":2543:2758  function transferOwnership(address newOwner) public virtual onlyOwner {... */\n    tag_13:\n      tag_61\n      0x04\n      dup1\n      calldatasize\n      sub\n      dup2\n      add\n      swap1\n      tag_62\n      swap2\n      swap1\n      tag_63\n      jump\t// in\n    tag_62:\n      tag_64\n      jump\t// in\n    tag_61:\n      stop\n        /* \"contracts/6_Ordering.sol\":256:294  uint256 public pricePerBeverage = 1e18 */\n    tag_14:\n      tag_65\n      tag_66\n      jump\t// in\n    tag_65:\n      mload(0x40)\n      tag_67\n      swap2\n      swap1\n      tag_68\n      jump\t// in\n    tag_67:\n      mload(0x40)\n      dup1\n      swap2\n      sub\n      swap1\n      return\n        /* \"contracts/6_Ordering.sol\":2021:2481  function orderBeverage(string memory beverage) public {... */\n    tag_15:\n      tag_69\n      0x04\n      dup1\n      calldatasize\n      sub\n      dup2\n      add\n      swap1\n      tag_70\n      swap2\n      swap1\n      tag_20\n      jump\t// in\n    tag_70:\n      tag_71\n      jump\t// in\n    tag_69:\n      stop\n        /* \"contracts/6_Ordering.sol\":458:503  mapping(string => bool) public validBeverages */\n    tag_21:\n      0x04\n      dup2\n      dup1\n      mload\n      0x20\n      dup2\n      add\n      dup3\n      add\n      dup1\n      mload\n      dup5\n      dup3\n      mstore\n      0x20\n      dup4\n      add\n      0x20\n      dup6\n      add\n      keccak256\n      dup2\n      dup4\n      mstore\n      dup1\n      swap6\n      pop\n      pop\n      pop\n      pop\n      pop\n      pop\n      0x00\n      swap2\n      pop\n      sload\n      swap1\n      0x0100\n      exp\n      swap1\n      div\n      0xff\n      and\n      dup2\n      jump\t// out\n        /* \"contracts/6_Ordering.sol\":223:250  IERC20 public tokenContract */\n    tag_25:\n      0x01\n      0x00\n      swap1\n      sload\n      swap1\n      0x0100\n      exp\n      swap1\n      div\n      0xffffffffffffffffffffffffffffffffffffffff\n      and\n      dup2\n      jump\t// out\n        /* \"contracts/6_Ordering.sol\":509:537  string[] public beverageList */\n    tag_31:\n      0x05\n      dup2\n      dup2\n      sload\n      dup2\n      lt\n      tag_72\n      jumpi\n      0x00\n      dup1\n      revert\n    tag_72:\n      swap1\n      0x00\n      mstore\n      keccak256(0x00, 0x20)\n      add\n      0x00\n      swap2\n      pop\n      swap1\n      pop\n      dup1\n      sload\n      tag_74\n      swap1\n      tag_75\n      jump\t// in\n    tag_74:\n      dup1\n      0x1f\n      add\n      0x20\n      dup1\n      swap2\n      div\n      mul\n      0x20\n      add\n      mload(0x40)\n      swap1\n      dup2\n      add\n      0x40\n      mstore\n      dup1\n      swap3\n      swap2\n      swap1\n      dup2\n      dup2\n      mstore\n      0x20\n      add\n      dup3\n      dup1\n      sload\n      tag_76\n      swap1\n      tag_75\n      jump\t// in\n    tag_76:\n      dup1\n      iszero\n      tag_77\n      jumpi\n      dup1\n      0x1f\n      lt\n      tag_78\n      jumpi\n      0x0100\n      dup1\n      dup4\n      sload\n      div\n      mul\n      dup4\n      mstore\n      swap2\n      0x20\n      add\n      swap2\n      jump(tag_77)\n    tag_78:\n      dup3\n      add\n      swap2\n      swap1\n      0x00\n      mstore\n      keccak256(0x00, 0x20)\n      swap1\n    tag_79:\n      dup2\n      sload\n      dup2\n      mstore\n      swap1\n      0x01\n      add\n      swap1\n      0x20\n      add\n      dup1\n      dup4\n      gt\n      tag_79\n      jumpi\n      dup3\n      swap1\n      sub\n      0x1f\n      and\n      dup3\n      add\n      swap2\n    tag_77:\n      pop\n      pop\n      pop\n      pop\n      pop\n      dup2\n      jump\t// out\n        /* \"contracts/6_Ordering.sol\":614:734  function renounceOwnership() view public override onlyOwner {... */\n    tag_35:\n        /* \"@openzeppelin/contracts/access/Ownable.sol\":1531:1544  _checkOwner() */\n      tag_81\n        /* \"@openzeppelin/contracts/access/Ownable.sol\":1531:1542  _checkOwner */\n      tag_82\n        /* \"@openzeppelin/contracts/access/Ownable.sol\":1531:1544  _checkOwner() */\n      jump\t// in\n    tag_81:\n        /* \"contracts/6_Ordering.sol\":684:727  revert(\"Renouncing ownership is disabled.\") */\n      mload(0x40)\n      0x08c379a000000000000000000000000000000000000000000000000000000000\n      dup2\n      mstore\n      0x04\n      add\n      tag_84\n      swap1\n      tag_85\n      jump\t// in\n    tag_84:\n      mload(0x40)\n      dup1\n      swap2\n      sub\n      swap1\n      revert\n        /* \"contracts/6_Ordering.sol\":2522:2777  function confirmOrder(uint256 orderIndex) public onlyOwner {... */\n    tag_38:\n        /* \"@openzeppelin/contracts/access/Ownable.sol\":1531:1544  _checkOwner() */\n      tag_87\n        /* \"@openzeppelin/contracts/access/Ownable.sol\":1531:1542  _checkOwner */\n      tag_82\n        /* \"@openzeppelin/contracts/access/Ownable.sol\":1531:1544  _checkOwner() */\n      jump\t// in\n    tag_87:\n        /* \"contracts/6_Ordering.sol\":2612:2618  orders */\n      0x03\n        /* \"contracts/6_Ordering.sol\":2612:2625  orders.length */\n      dup1\n      sload\n      swap1\n      pop\n        /* \"contracts/6_Ordering.sol\":2599:2609  orderIndex */\n      dup2\n        /* \"contracts/6_Ordering.sol\":2599:2625  orderIndex < orders.length */\n      lt\n        /* \"contracts/6_Ordering.sol\":2591:2649  require(orderIndex < orders.length, \"Invalid order index\") */\n      tag_89\n      jumpi\n      mload(0x40)\n      0x08c379a000000000000000000000000000000000000000000000000000000000\n      dup2\n      mstore\n      0x04\n      add\n      tag_90\n      swap1\n      tag_91\n      jump\t// in\n    tag_90:\n      mload(0x40)\n      dup1\n      swap2\n      sub\n      swap1\n      revert\n    tag_89:\n        /* \"contracts/6_Ordering.sol\":2668:2674  orders */\n      0x03\n        /* \"contracts/6_Ordering.sol\":2675:2685  orderIndex */\n      dup2\n        /* \"contracts/6_Ordering.sol\":2668:2686  orders[orderIndex] */\n      dup2\n      sload\n      dup2\n      lt\n      tag_92\n      jumpi\n      tag_93\n      tag_94\n      jump\t// in\n    tag_93:\n    tag_92:\n      swap1\n      0x00\n      mstore\n      keccak256(0x00, 0x20)\n      swap1\n      0x03\n      mul\n      add\n        /* \"contracts/6_Ordering.sol\":2668:2696  orders[orderIndex].fulfilled */\n      0x02\n      add\n      0x00\n      swap1\n      sload\n      swap1\n      0x0100\n      exp\n      swap1\n      div\n      0xff\n      and\n        /* \"contracts/6_Ordering.sol\":2667:2696  !orders[orderIndex].fulfilled */\n      iszero\n        /* \"contracts/6_Ordering.sol\":2659:2724  require(!orders[orderIndex].fulfilled, \"Order already fulfilled\") */\n      tag_96\n      jumpi\n      mload(0x40)\n      0x08c379a000000000000000000000000000000000000000000000000000000000\n      dup2\n      mstore\n      0x04\n      add\n      tag_97\n      swap1\n      tag_98\n      jump\t// in\n    tag_97:\n      mload(0x40)\n      dup1\n      swap2\n      sub\n      swap1\n      revert\n    tag_96:\n        /* \"contracts/6_Ordering.sol\":2766:2770  true */\n      0x01\n        /* \"contracts/6_Ordering.sol\":2735:2741  orders */\n      0x03\n        /* \"contracts/6_Ordering.sol\":2742:2752  orderIndex */\n      dup3\n        /* \"contracts/6_Ordering.sol\":2735:2753  orders[orderIndex] */\n      dup2\n      sload\n      dup2\n      lt\n      tag_99\n      jumpi\n      tag_100\n      tag_94\n      jump\t// in\n    tag_100:\n    tag_99:\n      swap1\n      0x00\n      mstore\n      keccak256(0x00, 0x20)\n      swap1\n      0x03\n      mul\n      add\n        /* \"contracts/6_Ordering.sol\":2735:2763  orders[orderIndex].fulfilled */\n      0x02\n      add\n      0x00\n        /* \"contracts/6_Ordering.sol\":2735:2770  orders[orderIndex].fulfilled = true */\n      0x0100\n      exp\n      dup2\n      sload\n      dup2\n      0xff\n      mul\n      not\n      and\n      swap1\n      dup4\n      iszero\n      iszero\n      mul\n      or\n      swap1\n      sstore\n      pop\n        /* \"contracts/6_Ordering.sol\":2522:2777  function confirmOrder(uint256 orderIndex) public onlyOwner {... */\n      pop\n      jump\t// out\n        /* \"@openzeppelin/contracts/access/Ownable.sol\":1638:1723  function owner() public view virtual returns (address) {... */\n    tag_40:\n        /* \"@openzeppelin/contracts/access/Ownable.sol\":1684:1691  address */\n      0x00\n        /* \"@openzeppelin/contracts/access/Ownable.sol\":1710:1716  _owner */\n      dup1\n      0x00\n      swap1\n      sload\n      swap1\n      0x0100\n      exp\n      swap1\n      div\n      0xffffffffffffffffffffffffffffffffffffffff\n      and\n        /* \"@openzeppelin/contracts/access/Ownable.sol\":1703:1716  return _owner */\n      swap1\n      pop\n        /* \"@openzeppelin/contracts/access/Ownable.sol\":1638:1723  function owner() public view virtual returns (address) {... */\n      swap1\n      jump\t// out\n        /* \"contracts/6_Ordering.sol\":431:452  Order[] public orders */\n    tag_45:\n      0x03\n      dup2\n      dup2\n      sload\n      dup2\n      lt\n      tag_103\n      jumpi\n      0x00\n      dup1\n      revert\n    tag_103:\n      swap1\n      0x00\n      mstore\n      keccak256(0x00, 0x20)\n      swap1\n      0x03\n      mul\n      add\n      0x00\n      swap2\n      pop\n      swap1\n      pop\n      dup1\n      0x00\n      add\n      0x00\n      swap1\n      sload\n      swap1\n      0x0100\n      exp\n      swap1\n      div\n      0xffffffffffffffffffffffffffffffffffffffff\n      and\n      swap1\n      dup1\n      0x01\n      add\n      dup1\n      sload\n      tag_105\n      swap1\n      tag_75\n      jump\t// in\n    tag_105:\n      dup1\n      0x1f\n      add\n      0x20\n      dup1\n      swap2\n      div\n      mul\n      0x20\n      add\n      mload(0x40)\n      swap1\n      dup2\n      add\n      0x40\n      mstore\n      dup1\n      swap3\n      swap2\n      swap1\n      dup2\n      dup2\n      mstore\n      0x20\n      add\n      dup3\n      dup1\n      sload\n      tag_106\n      swap1\n      tag_75\n      jump\t// in\n    tag_106:\n      dup1\n      iszero\n      tag_107\n      jumpi\n      dup1\n      0x1f\n      lt\n      tag_108\n      jumpi\n      0x0100\n      dup1\n      dup4\n      sload\n      div\n      mul\n      dup4\n      mstore\n      swap2\n      0x20\n      add\n      swap2\n      jump(tag_107)\n    tag_108:\n      dup3\n      add\n      swap2\n      swap1\n      0x00\n      mstore\n      keccak256(0x00, 0x20)\n      swap1\n    tag_109:\n      dup2\n      sload\n      dup2\n      mstore\n      swap1\n      0x01\n      add\n      swap1\n      0x20\n      add\n      dup1\n      dup4\n      gt\n      tag_109\n      jumpi\n      dup3\n      swap1\n      sub\n      0x1f\n      and\n      dup3\n      add\n      swap2\n    tag_107:\n      pop\n      pop\n      pop\n      pop\n      pop\n      swap1\n      dup1\n      0x02\n      add\n      0x00\n      swap1\n      sload\n      swap1\n      0x0100\n      exp\n      swap1\n      div\n      0xff\n      and\n      swap1\n      pop\n      dup4\n      jump\t// out\n        /* \"contracts/6_Ordering.sol\":3042:3148  function getAllValidBeverages() public view returns (string[] memory) {... */\n    tag_49:\n        /* \"contracts/6_Ordering.sol\":3095:3110  string[] memory */\n      0x60\n        /* \"contracts/6_Ordering.sol\":3129:3141  beverageList */\n      0x05\n        /* \"contracts/6_Ordering.sol\":3122:3141  return beverageList */\n      dup1\n      sload\n      dup1\n      0x20\n      mul\n      0x20\n      add\n      mload(0x40)\n      swap1\n      dup2\n      add\n      0x40\n      mstore\n      dup1\n      swap3\n      swap2\n      swap1\n      dup2\n      dup2\n      mstore\n      0x20\n      add\n      0x00\n      swap1\n    tag_111:\n      dup3\n      dup3\n      lt\n      iszero\n      tag_112\n      jumpi\n      dup4\n      dup3\n      swap1\n      0x00\n      mstore\n      keccak256(0x00, 0x20)\n      add\n      dup1\n      sload\n      tag_114\n      swap1\n      tag_75\n      jump\t// in\n    tag_114:\n      dup1\n      0x1f\n      add\n      0x20\n      dup1\n      swap2\n      div\n      mul\n      0x20\n      add\n      mload(0x40)\n      swap1\n      dup2\n      add\n      0x40\n      mstore\n      dup1\n      swap3\n      swap2\n      swap1\n      dup2\n      dup2\n      mstore\n      0x20\n      add\n      dup3\n      dup1\n      sload\n      tag_115\n      swap1\n      tag_75\n      jump\t// in\n    tag_115:\n      dup1\n      iszero\n      tag_116\n      jumpi\n      dup1\n      0x1f\n      lt\n      tag_117\n      jumpi\n      0x0100\n      dup1\n      dup4\n      sload\n      div\n      mul\n      dup4\n      mstore\n      swap2\n      0x20\n      add\n      swap2\n      jump(tag_116)\n    tag_117:\n      dup3\n      add\n      swap2\n      swap1\n      0x00\n      mstore\n      keccak256(0x00, 0x20)\n      swap1\n    tag_118:\n      dup2\n      sload\n      dup2\n      mstore\n      swap1\n      0x01\n      add\n      swap1\n      0x20\n      add\n      dup1\n      dup4\n      gt\n      tag_118\n      jumpi\n      dup3\n      swap1\n      sub\n      0x1f\n      and\n      dup3\n      add\n      swap2\n    tag_116:\n      pop\n      pop\n      pop\n      pop\n      pop\n      dup2\n      mstore\n      0x20\n      add\n      swap1\n      0x01\n      add\n      swap1\n      jump(tag_111)\n    tag_112:\n      pop\n      pop\n      pop\n      pop\n      swap1\n      pop\n        /* \"contracts/6_Ordering.sol\":3042:3148  function getAllValidBeverages() public view returns (string[] memory) {... */\n      swap1\n      jump\t// out\n        /* \"contracts/6_Ordering.sol\":2818:3001  function getOrder(uint256 orderIndex) public view returns (Order memory) {... */\n    tag_54:\n        /* \"contracts/6_Ordering.sol\":2877:2889  Order memory */\n      tag_119\n      tag_120\n      jump\t// in\n    tag_119:\n        /* \"contracts/6_Ordering.sol\":2922:2928  orders */\n      0x03\n        /* \"contracts/6_Ordering.sol\":2922:2935  orders.length */\n      dup1\n      sload\n      swap1\n      pop\n        /* \"contracts/6_Ordering.sol\":2909:2919  orderIndex */\n      dup3\n        /* \"contracts/6_Ordering.sol\":2909:2935  orderIndex < orders.length */\n      lt\n        /* \"contracts/6_Ordering.sol\":2901:2959  require(orderIndex < orders.length, \"Invalid order index\") */\n      tag_122\n      jumpi\n      mload(0x40)\n      0x08c379a000000000000000000000000000000000000000000000000000000000\n      dup2\n      mstore\n      0x04\n      add\n      tag_123\n      swap1\n      tag_91\n      jump\t// in\n    tag_123:\n      mload(0x40)\n      dup1\n      swap2\n      sub\n      swap1\n      revert\n    tag_122:\n        /* \"contracts/6_Ordering.sol\":2976:2982  orders */\n      0x03\n        /* \"contracts/6_Ordering.sol\":2983:2993  orderIndex */\n      dup3\n        /* \"contracts/6_Ordering.sol\":2976:2994  orders[orderIndex] */\n      dup2\n      sload\n      dup2\n      lt\n      tag_124\n      jumpi\n      tag_125\n      tag_94\n      jump\t// in\n    tag_125:\n    tag_124:\n      swap1\n      0x00\n      mstore\n      keccak256(0x00, 0x20)\n      swap1\n      0x03\n      mul\n      add\n        /* \"contracts/6_Ordering.sol\":2969:2994  return orders[orderIndex] */\n      mload(0x40)\n      dup1\n      0x60\n      add\n      0x40\n      mstore\n      swap1\n      dup2\n      0x00\n      dup3\n      add\n      0x00\n      swap1\n      sload\n      swap1\n      0x0100\n      exp\n      swap1\n      div\n      0xffffffffffffffffffffffffffffffffffffffff\n      and\n      0xffffffffffffffffffffffffffffffffffffffff\n      and\n      0xffffffffffffffffffffffffffffffffffffffff\n      and\n      dup2\n      mstore\n      0x20\n      add\n      0x01\n      dup3\n      add\n      dup1\n      sload\n      tag_127\n      swap1\n      tag_75\n      jump\t// in\n    tag_127:\n      dup1\n      0x1f\n      add\n      0x20\n      dup1\n      swap2\n      div\n      mul\n      0x20\n      add\n      mload(0x40)\n      swap1\n      dup2\n      add\n      0x40\n      mstore\n      dup1\n      swap3\n      swap2\n      swap1\n      dup2\n      dup2\n      mstore\n      0x20\n      add\n      dup3\n      dup1\n      sload\n      tag_128\n      swap1\n      tag_75\n      jump\t// in\n    tag_128:\n      dup1\n      iszero\n      tag_129\n      jumpi\n      dup1\n      0x1f\n      lt\n      tag_130\n      jumpi\n      0x0100\n      dup1\n      dup4\n      sload\n      div\n      mul\n      dup4\n      mstore\n      swap2\n      0x20\n      add\n      swap2\n      jump(tag_129)\n    tag_130:\n      dup3\n      add\n      swap2\n      swap1\n      0x00\n      mstore\n      keccak256(0x00, 0x20)\n      swap1\n    tag_131:\n      dup2\n      sload\n      dup2\n      mstore\n      swap1\n      0x01\n      add\n      swap1\n      0x20\n      add\n      dup1\n      dup4\n      gt\n      tag_131\n      jumpi\n      dup3\n      swap1\n      sub\n      0x1f\n      and\n      dup3\n      add\n      swap2\n    tag_129:\n      pop\n      pop\n      pop\n      pop\n      pop\n      dup2\n      mstore\n      0x20\n      add\n      0x02\n      dup3\n      add\n      0x00\n      swap1\n      sload\n      swap1\n      0x0100\n      exp\n      swap1\n      div\n      0xff\n      and\n      iszero\n      iszero\n      iszero\n      iszero\n      dup2\n      mstore\n      pop\n      pop\n      swap1\n      pop\n        /* \"contracts/6_Ordering.sol\":2818:3001  function getOrder(uint256 orderIndex) public view returns (Order memory) {... */\n      swap2\n      swap1\n      pop\n      jump\t// out\n        /* \"contracts/6_Ordering.sol\":1112:1994  function setBeverageValidity(string memory beverage, bool isValid) public onlyOwner {... */\n    tag_60:\n        /* \"@openzeppelin/contracts/access/Ownable.sol\":1531:1544  _checkOwner() */\n      tag_133\n        /* \"@openzeppelin/contracts/access/Ownable.sol\":1531:1542  _checkOwner */\n      tag_82\n        /* \"@openzeppelin/contracts/access/Ownable.sol\":1531:1544  _checkOwner() */\n      jump\t// in\n    tag_133:\n        /* \"contracts/6_Ordering.sol\":1233:1240  isValid */\n      dup1\n        /* \"contracts/6_Ordering.sol\":1206:1220  validBeverages */\n      0x04\n        /* \"contracts/6_Ordering.sol\":1221:1229  beverage */\n      dup4\n        /* \"contracts/6_Ordering.sol\":1206:1230  validBeverages[beverage] */\n      mload(0x40)\n      tag_135\n      swap2\n      swap1\n      tag_136\n      jump\t// in\n    tag_135:\n      swap1\n      dup2\n      mstore\n      0x20\n      add\n      mload(0x40)\n      dup1\n      swap2\n      sub\n      swap1\n      keccak256\n      0x00\n        /* \"contracts/6_Ordering.sol\":1206:1240  validBeverages[beverage] = isValid */\n      0x0100\n      exp\n      dup2\n      sload\n      dup2\n      0xff\n      mul\n      not\n      and\n      swap1\n      dup4\n      iszero\n      iszero\n      mul\n      or\n      swap1\n      sstore\n      pop\n        /* \"contracts/6_Ordering.sol\":1250:1261  bool exists */\n      0x00\n        /* \"contracts/6_Ordering.sol\":1284:1293  uint256 i */\n      dup1\n        /* \"contracts/6_Ordering.sol\":1279:1513  for (uint256 i = 0; i < beverageList.length; i++) {... */\n    tag_137:\n        /* \"contracts/6_Ordering.sol\":1303:1315  beverageList */\n      0x05\n        /* \"contracts/6_Ordering.sol\":1303:1322  beverageList.length */\n      dup1\n      sload\n      swap1\n      pop\n        /* \"contracts/6_Ordering.sol\":1299:1300  i */\n      dup2\n        /* \"contracts/6_Ordering.sol\":1299:1322  i < beverageList.length */\n      lt\n        /* \"contracts/6_Ordering.sol\":1279:1513  for (uint256 i = 0; i < beverageList.length; i++) {... */\n      iszero\n      tag_138\n      jumpi\n        /* \"contracts/6_Ordering.sol\":1422:1430  beverage */\n      dup4\n        /* \"contracts/6_Ordering.sol\":1405:1431  abi.encodePacked(beverage) */\n      add(0x20, mload(0x40))\n      tag_140\n      swap2\n      swap1\n      tag_136\n      jump\t// in\n    tag_140:\n      mload(0x40)\n      0x20\n      dup2\n      dup4\n      sub\n      sub\n      dup2\n      mstore\n      swap1\n      0x40\n      mstore\n        /* \"contracts/6_Ordering.sol\":1395:1432  keccak256(abi.encodePacked(beverage)) */\n      dup1\n      mload\n      swap1\n      0x20\n      add\n      keccak256\n        /* \"contracts/6_Ordering.sol\":1374:1386  beverageList */\n      0x05\n        /* \"contracts/6_Ordering.sol\":1387:1388  i */\n      dup3\n        /* \"contracts/6_Ordering.sol\":1374:1389  beverageList[i] */\n      dup2\n      sload\n      dup2\n      lt\n      tag_141\n      jumpi\n      tag_142\n      tag_94\n      jump\t// in\n    tag_142:\n    tag_141:\n      swap1\n      0x00\n      mstore\n      keccak256(0x00, 0x20)\n      add\n        /* \"contracts/6_Ordering.sol\":1357:1390  abi.encodePacked(beverageList[i]) */\n      add(0x20, mload(0x40))\n      tag_144\n      swap2\n      swap1\n      tag_145\n      jump\t// in\n    tag_144:\n      mload(0x40)\n      0x20\n      dup2\n      dup4\n      sub\n      sub\n      dup2\n      mstore\n      swap1\n      0x40\n      mstore\n        /* \"contracts/6_Ordering.sol\":1347:1391  keccak256(abi.encodePacked(beverageList[i])) */\n      dup1\n      mload\n      swap1\n      0x20\n      add\n      keccak256\n        /* \"contracts/6_Ordering.sol\":1347:1432  keccak256(abi.encodePacked(beverageList[i])) == keccak256(abi.encodePacked(beverage)) */\n      sub\n        /* \"contracts/6_Ordering.sol\":1343:1503  if (keccak256(abi.encodePacked(beverageList[i])) == keccak256(abi.encodePacked(beverage))) {... */\n      tag_146\n      jumpi\n        /* \"contracts/6_Ordering.sol\":1461:1465  true */\n      0x01\n        /* \"contracts/6_Ordering.sol\":1452:1465  exists = true */\n      swap2\n      pop\n        /* \"contracts/6_Ordering.sol\":1483:1488  break */\n      jump(tag_138)\n        /* \"contracts/6_Ordering.sol\":1343:1503  if (keccak256(abi.encodePacked(beverageList[i])) == keccak256(abi.encodePacked(beverage))) {... */\n    tag_146:\n        /* \"contracts/6_Ordering.sol\":1324:1327  i++ */\n      dup1\n      dup1\n      0x01\n      add\n      swap2\n      pop\n      pop\n        /* \"contracts/6_Ordering.sol\":1279:1513  for (uint256 i = 0; i < beverageList.length; i++) {... */\n      jump(tag_137)\n    tag_138:\n      pop\n        /* \"contracts/6_Ordering.sol\":1526:1533  isValid */\n      dup2\n        /* \"contracts/6_Ordering.sol\":1526:1544  isValid && !exists */\n      dup1\n      iszero\n      tag_147\n      jumpi\n      pop\n        /* \"contracts/6_Ordering.sol\":1538:1544  exists */\n      dup1\n        /* \"contracts/6_Ordering.sol\":1537:1544  !exists */\n      iszero\n        /* \"contracts/6_Ordering.sol\":1526:1544  isValid && !exists */\n    tag_147:\n        /* \"contracts/6_Ordering.sol\":1522:1988  if (isValid && !exists) {... */\n      iszero\n      tag_148\n      jumpi\n        /* \"contracts/6_Ordering.sol\":1560:1572  beverageList */\n      0x05\n        /* \"contracts/6_Ordering.sol\":1578:1586  beverage */\n      dup4\n        /* \"contracts/6_Ordering.sol\":1560:1587  beverageList.push(beverage) */\n      swap1\n      dup1\n      0x01\n      dup2\n      sload\n      add\n      dup1\n      dup3\n      sstore\n      dup1\n      swap2\n      pop\n      pop\n      0x01\n      swap1\n      sub\n      swap1\n      0x00\n      mstore\n      keccak256(0x00, 0x20)\n      add\n      0x00\n      swap1\n      swap2\n      swap1\n      swap2\n      swap1\n      swap2\n      pop\n      swap1\n      dup2\n      tag_150\n      swap2\n      swap1\n      tag_151\n      jump\t// in\n    tag_150:\n      pop\n        /* \"contracts/6_Ordering.sol\":1522:1988  if (isValid && !exists) {... */\n      jump(tag_152)\n    tag_148:\n        /* \"contracts/6_Ordering.sol\":1609:1616  isValid */\n      dup2\n        /* \"contracts/6_Ordering.sol\":1608:1616  !isValid */\n      iszero\n        /* \"contracts/6_Ordering.sol\":1608:1626  !isValid && exists */\n      dup1\n      iszero\n      tag_153\n      jumpi\n      pop\n        /* \"contracts/6_Ordering.sol\":1620:1626  exists */\n      dup1\n        /* \"contracts/6_Ordering.sol\":1608:1626  !isValid && exists */\n    tag_153:\n        /* \"contracts/6_Ordering.sol\":1604:1988  if (!isValid && exists) {... */\n      iszero\n      tag_154\n      jumpi\n        /* \"contracts/6_Ordering.sol\":1647:1656  uint256 i */\n      0x00\n        /* \"contracts/6_Ordering.sol\":1642:1978  for (uint256 i = 0; i < beverageList.length; i++) {... */\n    tag_155:\n        /* \"contracts/6_Ordering.sol\":1666:1678  beverageList */\n      0x05\n        /* \"contracts/6_Ordering.sol\":1666:1685  beverageList.length */\n      dup1\n      sload\n      swap1\n      pop\n        /* \"contracts/6_Ordering.sol\":1662:1663  i */\n      dup2\n        /* \"contracts/6_Ordering.sol\":1662:1685  i < beverageList.length */\n      lt\n        /* \"contracts/6_Ordering.sol\":1642:1978  for (uint256 i = 0; i < beverageList.length; i++) {... */\n      iszero\n      tag_156\n      jumpi\n        /* \"contracts/6_Ordering.sol\":1789:1797  beverage */\n      dup4\n        /* \"contracts/6_Ordering.sol\":1772:1798  abi.encodePacked(beverage) */\n      add(0x20, mload(0x40))\n      tag_158\n      swap2\n      swap1\n      tag_136\n      jump\t// in\n    tag_158:\n      mload(0x40)\n      0x20\n      dup2\n      dup4\n      sub\n      sub\n      dup2\n      mstore\n      swap1\n      0x40\n      mstore\n        /* \"contracts/6_Ordering.sol\":1762:1799  keccak256(abi.encodePacked(beverage)) */\n      dup1\n      mload\n      swap1\n      0x20\n      add\n      keccak256\n        /* \"contracts/6_Ordering.sol\":1741:1753  beverageList */\n      0x05\n        /* \"contracts/6_Ordering.sol\":1754:1755  i */\n      dup3\n        /* \"contracts/6_Ordering.sol\":1741:1756  beverageList[i] */\n      dup2\n      sload\n      dup2\n      lt\n      tag_159\n      jumpi\n      tag_160\n      tag_94\n      jump\t// in\n    tag_160:\n    tag_159:\n      swap1\n      0x00\n      mstore\n      keccak256(0x00, 0x20)\n      add\n        /* \"contracts/6_Ordering.sol\":1724:1757  abi.encodePacked(beverageList[i]) */\n      add(0x20, mload(0x40))\n      tag_162\n      swap2\n      swap1\n      tag_145\n      jump\t// in\n    tag_162:\n      mload(0x40)\n      0x20\n      dup2\n      dup4\n      sub\n      sub\n      dup2\n      mstore\n      swap1\n      0x40\n      mstore\n        /* \"contracts/6_Ordering.sol\":1714:1758  keccak256(abi.encodePacked(beverageList[i])) */\n      dup1\n      mload\n      swap1\n      0x20\n      add\n      keccak256\n        /* \"contracts/6_Ordering.sol\":1714:1799  keccak256(abi.encodePacked(beverageList[i])) == keccak256(abi.encodePacked(beverage)) */\n      sub\n        /* \"contracts/6_Ordering.sol\":1710:1964  if (keccak256(abi.encodePacked(beverageList[i])) == keccak256(abi.encodePacked(beverage))) {... */\n      tag_163\n      jumpi\n        /* \"contracts/6_Ordering.sol\":1841:1853  beverageList */\n      0x05\n        /* \"contracts/6_Ordering.sol\":1876:1877  1 */\n      0x01\n        /* \"contracts/6_Ordering.sol\":1854:1866  beverageList */\n      0x05\n        /* \"contracts/6_Ordering.sol\":1854:1873  beverageList.length */\n      dup1\n      sload\n      swap1\n      pop\n        /* \"contracts/6_Ordering.sol\":1854:1877  beverageList.length - 1 */\n      tag_164\n      swap2\n      swap1\n      tag_165\n      jump\t// in\n    tag_164:\n        /* \"contracts/6_Ordering.sol\":1841:1878  beverageList[beverageList.length - 1] */\n      dup2\n      sload\n      dup2\n      lt\n      tag_166\n      jumpi\n      tag_167\n      tag_94\n      jump\t// in\n    tag_167:\n    tag_166:\n      swap1\n      0x00\n      mstore\n      keccak256(0x00, 0x20)\n      add\n        /* \"contracts/6_Ordering.sol\":1823:1835  beverageList */\n      0x05\n        /* \"contracts/6_Ordering.sol\":1836:1837  i */\n      dup3\n        /* \"contracts/6_Ordering.sol\":1823:1838  beverageList[i] */\n      dup2\n      sload\n      dup2\n      lt\n      tag_169\n      jumpi\n      tag_170\n      tag_94\n      jump\t// in\n    tag_170:\n    tag_169:\n      swap1\n      0x00\n      mstore\n      keccak256(0x00, 0x20)\n      add\n        /* \"contracts/6_Ordering.sol\":1823:1878  beverageList[i] = beverageList[beverageList.length - 1] */\n      swap1\n      dup2\n      tag_172\n      swap2\n      swap1\n      tag_173\n      jump\t// in\n    tag_172:\n      pop\n        /* \"contracts/6_Ordering.sol\":1900:1912  beverageList */\n      0x05\n        /* \"contracts/6_Ordering.sol\":1900:1918  beverageList.pop() */\n      dup1\n      sload\n      dup1\n      tag_174\n      jumpi\n      tag_175\n      tag_176\n      jump\t// in\n    tag_175:\n    tag_174:\n      0x01\n      swap1\n      sub\n      dup2\n      dup2\n      swap1\n      0x00\n      mstore\n      keccak256(0x00, 0x20)\n      add\n      0x00\n      tag_178\n      swap2\n      swap1\n      tag_179\n      jump\t// in\n    tag_178:\n      swap1\n      sstore\n        /* \"contracts/6_Ordering.sol\":1940:1945  break */\n      jump(tag_156)\n        /* \"contracts/6_Ordering.sol\":1710:1964  if (keccak256(abi.encodePacked(beverageList[i])) == keccak256(abi.encodePacked(beverage))) {... */\n    tag_163:\n        /* \"contracts/6_Ordering.sol\":1687:1690  i++ */\n      dup1\n      dup1\n      0x01\n      add\n      swap2\n      pop\n      pop\n        /* \"contracts/6_Ordering.sol\":1642:1978  for (uint256 i = 0; i < beverageList.length; i++) {... */\n      jump(tag_155)\n    tag_156:\n      pop\n        /* \"contracts/6_Ordering.sol\":1604:1988  if (!isValid && exists) {... */\n    tag_154:\n        /* \"contracts/6_Ordering.sol\":1522:1988  if (isValid && !exists) {... */\n    tag_152:\n        /* \"contracts/6_Ordering.sol\":1196:1994  {... */\n      pop\n        /* \"contracts/6_Ordering.sol\":1112:1994  function setBeverageValidity(string memory beverage, bool isValid) public onlyOwner {... */\n      pop\n      pop\n      jump\t// out\n        /* \"@openzeppelin/contracts/access/Ownable.sol\":2543:2758  function transferOwnership(address newOwner) public virtual onlyOwner {... */\n    tag_64:\n        /* \"@openzeppelin/contracts/access/Ownable.sol\":1531:1544  _checkOwner() */\n      tag_181\n        /* \"@openzeppelin/contracts/access/Ownable.sol\":1531:1542  _checkOwner */\n      tag_82\n        /* \"@openzeppelin/contracts/access/Ownable.sol\":1531:1544  _checkOwner() */\n      jump\t// in\n    tag_181:\n        /* \"@openzeppelin/contracts/access/Ownable.sol\":2647:2648  0 */\n      0x00\n        /* \"@openzeppelin/contracts/access/Ownable.sol\":2627:2649  newOwner == address(0) */\n      0xffffffffffffffffffffffffffffffffffffffff\n      and\n        /* \"@openzeppelin/contracts/access/Ownable.sol\":2627:2635  newOwner */\n      dup2\n        /* \"@openzeppelin/contracts/access/Ownable.sol\":2627:2649  newOwner == address(0) */\n      0xffffffffffffffffffffffffffffffffffffffff\n      and\n      sub\n        /* \"@openzeppelin/contracts/access/Ownable.sol\":2623:2714  if (newOwner == address(0)) {... */\n      tag_183\n      jumpi\n        /* \"@openzeppelin/contracts/access/Ownable.sol\":2700:2701  0 */\n      0x00\n        /* \"@openzeppelin/contracts/access/Ownable.sol\":2672:2703  OwnableInvalidOwner(address(0)) */\n      mload(0x40)\n      0x1e4fbdf700000000000000000000000000000000000000000000000000000000\n      dup2\n      mstore\n      0x04\n      add\n      tag_184\n      swap2\n      swap1\n      tag_42\n      jump\t// in\n    tag_184:\n      mload(0x40)\n      dup1\n      swap2\n      sub\n      swap1\n      revert\n        /* \"@openzeppelin/contracts/access/Ownable.sol\":2623:2714  if (newOwner == address(0)) {... */\n    tag_183:\n        /* \"@openzeppelin/contracts/access/Ownable.sol\":2723:2751  _transferOwnership(newOwner) */\n      tag_185\n        /* \"@openzeppelin/contracts/access/Ownable.sol\":2742:2750  newOwner */\n      dup2\n        /* \"@openzeppelin/contracts/access/Ownable.sol\":2723:2741  _transferOwnership */\n      tag_186\n        /* \"@openzeppelin/contracts/access/Ownable.sol\":2723:2751  _transferOwnership(newOwner) */\n      jump\t// in\n    tag_185:\n        /* \"@openzeppelin/contracts/access/Ownable.sol\":2543:2758  function transferOwnership(address newOwner) public virtual onlyOwner {... */\n      pop\n      jump\t// out\n        /* \"contracts/6_Ordering.sol\":256:294  uint256 public pricePerBeverage = 1e18 */\n    tag_66:\n      sload(0x02)\n      dup2\n      jump\t// out\n        /* \"contracts/6_Ordering.sol\":2021:2481  function orderBeverage(string memory beverage) public {... */\n    tag_71:\n        /* \"contracts/6_Ordering.sol\":2132:2148  pricePerBeverage */\n      sload(0x02)\n        /* \"contracts/6_Ordering.sol\":2093:2106  tokenContract */\n      0x01\n      0x00\n      swap1\n      sload\n      swap1\n      0x0100\n      exp\n      swap1\n      div\n      0xffffffffffffffffffffffffffffffffffffffff\n      and\n        /* \"contracts/6_Ordering.sol\":2093:2116  tokenContract.balanceOf */\n      0xffffffffffffffffffffffffffffffffffffffff\n      and\n      0x70a08231\n        /* \"contracts/6_Ordering.sol\":2117:2127  msg.sender */\n      caller\n        /* \"contracts/6_Ordering.sol\":2093:2128  tokenContract.balanceOf(msg.sender) */\n      mload(0x40)\n      dup3\n      0xffffffff\n      and\n      0xe0\n      shl\n      dup2\n      mstore\n      0x04\n      add\n      tag_188\n      swap2\n      swap1\n      tag_42\n      jump\t// in\n    tag_188:\n      0x20\n      mload(0x40)\n      dup1\n      dup4\n      sub\n      dup2\n      dup7\n      gas\n      staticcall\n      iszero\n      dup1\n      iszero\n      tag_190\n      jumpi\n      returndatasize\n      0x00\n      dup1\n      returndatacopy\n      revert(0x00, returndatasize)\n    tag_190:\n      pop\n      pop\n      pop\n      pop\n      mload(0x40)\n      returndatasize\n      not(0x1f)\n      0x1f\n      dup3\n      add\n      and\n      dup3\n      add\n      dup1\n      0x40\n      mstore\n      pop\n      dup2\n      add\n      swap1\n      tag_191\n      swap2\n      swap1\n      tag_192\n      jump\t// in\n    tag_191:\n        /* \"contracts/6_Ordering.sol\":2093:2148  tokenContract.balanceOf(msg.sender) >= pricePerBeverage */\n      lt\n      iszero\n        /* \"contracts/6_Ordering.sol\":2085:2188  require(tokenContract.balanceOf(msg.sender) >= pricePerBeverage, \"Insufficient balance to place order\") */\n      tag_193\n      jumpi\n      mload(0x40)\n      0x08c379a000000000000000000000000000000000000000000000000000000000\n      dup2\n      mstore\n      0x04\n      add\n      tag_194\n      swap1\n      tag_195\n      jump\t// in\n    tag_194:\n      mload(0x40)\n      dup1\n      swap2\n      sub\n      swap1\n      revert\n    tag_193:\n        /* \"contracts/6_Ordering.sol\":2206:2220  validBeverages */\n      0x04\n        /* \"contracts/6_Ordering.sol\":2221:2229  beverage */\n      dup2\n        /* \"contracts/6_Ordering.sol\":2206:2230  validBeverages[beverage] */\n      mload(0x40)\n      tag_196\n      swap2\n      swap1\n      tag_136\n      jump\t// in\n    tag_196:\n      swap1\n      dup2\n      mstore\n      0x20\n      add\n      mload(0x40)\n      dup1\n      swap2\n      sub\n      swap1\n      keccak256\n      0x00\n      swap1\n      sload\n      swap1\n      0x0100\n      exp\n      swap1\n      div\n      0xff\n      and\n        /* \"contracts/6_Ordering.sol\":2198:2256  require(validBeverages[beverage], \"Invalid beverage type\") */\n      tag_197\n      jumpi\n      mload(0x40)\n      0x08c379a000000000000000000000000000000000000000000000000000000000\n      dup2\n      mstore\n      0x04\n      add\n      tag_198\n      swap1\n      tag_199\n      jump\t// in\n    tag_198:\n      mload(0x40)\n      dup1\n      swap2\n      sub\n      swap1\n      revert\n    tag_197:\n        /* \"contracts/6_Ordering.sol\":2266:2279  tokenContract */\n      0x01\n      0x00\n      swap1\n      sload\n      swap1\n      0x0100\n      exp\n      swap1\n      div\n      0xffffffffffffffffffffffffffffffffffffffff\n      and\n        /* \"contracts/6_Ordering.sol\":2266:2292  tokenContract.transferFrom */\n      0xffffffffffffffffffffffffffffffffffffffff\n      and\n      0x23b872dd\n        /* \"contracts/6_Ordering.sol\":2293:2303  msg.sender */\n      caller\n        /* \"contracts/6_Ordering.sol\":2313:2317  this */\n      address\n        /* \"contracts/6_Ordering.sol\":2320:2336  pricePerBeverage */\n      sload(0x02)\n        /* \"contracts/6_Ordering.sol\":2266:2337  tokenContract.transferFrom(msg.sender, address(this), pricePerBeverage) */\n      mload(0x40)\n      dup5\n      0xffffffff\n      and\n      0xe0\n      shl\n      dup2\n      mstore\n      0x04\n      add\n      tag_200\n      swap4\n      swap3\n      swap2\n      swap1\n      tag_201\n      jump\t// in\n    tag_200:\n      0x20\n      mload(0x40)\n      dup1\n      dup4\n      sub\n      dup2\n      0x00\n      dup8\n      gas\n      call\n      iszero\n      dup1\n      iszero\n      tag_203\n      jumpi\n      returndatasize\n      0x00\n      dup1\n      returndatacopy\n      revert(0x00, returndatasize)\n    tag_203:\n      pop\n      pop\n      pop\n      pop\n      mload(0x40)\n      returndatasize\n      not(0x1f)\n      0x1f\n      dup3\n      add\n      and\n      dup3\n      add\n      dup1\n      0x40\n      mstore\n      pop\n      dup2\n      add\n      swap1\n      tag_204\n      swap2\n      swap1\n      tag_205\n      jump\t// in\n    tag_204:\n      pop\n        /* \"contracts/6_Ordering.sol\":2348:2354  orders */\n      0x03\n        /* \"contracts/6_Ordering.sol\":2360:2473  Order({... */\n      mload(0x40)\n      dup1\n      0x60\n      add\n      0x40\n      mstore\n      dup1\n        /* \"contracts/6_Ordering.sol\":2390:2400  msg.sender */\n      caller\n        /* \"contracts/6_Ordering.sol\":2360:2473  Order({... */\n      0xffffffffffffffffffffffffffffffffffffffff\n      and\n      dup2\n      mstore\n      0x20\n      add\n        /* \"contracts/6_Ordering.sol\":2424:2432  beverage */\n      dup4\n        /* \"contracts/6_Ordering.sol\":2360:2473  Order({... */\n      dup2\n      mstore\n      0x20\n      add\n        /* \"contracts/6_Ordering.sol\":2457:2462  false */\n      0x00\n        /* \"contracts/6_Ordering.sol\":2360:2473  Order({... */\n      iszero\n      iszero\n      dup2\n      mstore\n      pop\n        /* \"contracts/6_Ordering.sol\":2348:2474  orders.push(Order({... */\n      swap1\n      dup1\n      0x01\n      dup2\n      sload\n      add\n      dup1\n      dup3\n      sstore\n      dup1\n      swap2\n      pop\n      pop\n      0x01\n      swap1\n      sub\n      swap1\n      0x00\n      mstore\n      keccak256(0x00, 0x20)\n      swap1\n      0x03\n      mul\n      add\n      0x00\n      swap1\n      swap2\n      swap1\n      swap2\n      swap1\n      swap2\n      pop\n      0x00\n      dup3\n      add\n      mload\n      dup2\n      0x00\n      add\n      exp(0x0100, 0x00)\n      dup2\n      sload\n      dup2\n      0xffffffffffffffffffffffffffffffffffffffff\n      mul\n      not\n      and\n      swap1\n      dup4\n      0xffffffffffffffffffffffffffffffffffffffff\n      and\n      mul\n      or\n      swap1\n      sstore\n      pop\n      0x20\n      dup3\n      add\n      mload\n      dup2\n      0x01\n      add\n      swap1\n      dup2\n      tag_207\n      swap2\n      swap1\n      tag_151\n      jump\t// in\n    tag_207:\n      pop\n      0x40\n      dup3\n      add\n      mload\n      dup2\n      0x02\n      add\n      exp(0x0100, 0x00)\n      dup2\n      sload\n      dup2\n      0xff\n      mul\n      not\n      and\n      swap1\n      dup4\n      iszero\n      iszero\n      mul\n      or\n      swap1\n      sstore\n      pop\n      pop\n      pop\n        /* \"contracts/6_Ordering.sol\":2021:2481  function orderBeverage(string memory beverage) public {... */\n      pop\n      jump\t// out\n        /* \"@openzeppelin/contracts/access/Ownable.sol\":1796:1958  function _checkOwner() internal view virtual {... */\n    tag_82:\n        /* \"@openzeppelin/contracts/access/Ownable.sol\":1866:1878  _msgSender() */\n      tag_209\n        /* \"@openzeppelin/contracts/access/Ownable.sol\":1866:1876  _msgSender */\n      tag_210\n        /* \"@openzeppelin/contracts/access/Ownable.sol\":1866:1878  _msgSender() */\n      jump\t// in\n    tag_209:\n        /* \"@openzeppelin/contracts/access/Ownable.sol\":1855:1878  owner() != _msgSender() */\n      0xffffffffffffffffffffffffffffffffffffffff\n      and\n        /* \"@openzeppelin/contracts/access/Ownable.sol\":1855:1862  owner() */\n      tag_211\n        /* \"@openzeppelin/contracts/access/Ownable.sol\":1855:1860  owner */\n      tag_40\n        /* \"@openzeppelin/contracts/access/Ownable.sol\":1855:1862  owner() */\n      jump\t// in\n    tag_211:\n        /* \"@openzeppelin/contracts/access/Ownable.sol\":1855:1878  owner() != _msgSender() */\n      0xffffffffffffffffffffffffffffffffffffffff\n      and\n      eq\n        /* \"@openzeppelin/contracts/access/Ownable.sol\":1851:1952  if (owner() != _msgSender()) {... */\n      tag_212\n      jumpi\n        /* \"@openzeppelin/contracts/access/Ownable.sol\":1928:1940  _msgSender() */\n      tag_213\n        /* \"@openzeppelin/contracts/access/Ownable.sol\":1928:1938  _msgSender */\n      tag_210\n        /* \"@openzeppelin/contracts/access/Ownable.sol\":1928:1940  _msgSender() */\n      jump\t// in\n    tag_213:\n        /* \"@openzeppelin/contracts/access/Ownable.sol\":1901:1941  OwnableUnauthorizedAccount(_msgSender()) */\n      mload(0x40)\n      0x118cdaa700000000000000000000000000000000000000000000000000000000\n      dup2\n      mstore\n      0x04\n      add\n      tag_214\n      swap2\n      swap1\n      tag_42\n      jump\t// in\n    tag_214:\n      mload(0x40)\n      dup1\n      swap2\n      sub\n      swap1\n      revert\n        /* \"@openzeppelin/contracts/access/Ownable.sol\":1851:1952  if (owner() != _msgSender()) {... */\n    tag_212:\n        /* \"@openzeppelin/contracts/access/Ownable.sol\":1796:1958  function _checkOwner() internal view virtual {... */\n      jump\t// out\n        /* \"@openzeppelin/contracts/access/Ownable.sol\":2912:3099  function _transferOwnership(address newOwner) internal virtual {... */\n    tag_186:\n        /* \"@openzeppelin/contracts/access/Ownable.sol\":2985:3001  address oldOwner */\n      0x00\n        /* \"@openzeppelin/contracts/access/Ownable.sol\":3004:3010  _owner */\n      dup1\n      0x00\n      swap1\n      sload\n      swap1\n      0x0100\n      exp\n      swap1\n      div\n      0xffffffffffffffffffffffffffffffffffffffff\n      and\n        /* \"@openzeppelin/contracts/access/Ownable.sol\":2985:3010  address oldOwner = _owner */\n      swap1\n      pop\n        /* \"@openzeppelin/contracts/access/Ownable.sol\":3029:3037  newOwner */\n      dup2\n        /* \"@openzeppelin/contracts/access/Ownable.sol\":3020:3026  _owner */\n      0x00\n      dup1\n        /* \"@openzeppelin/contracts/access/Ownable.sol\":3020:3037  _owner = newOwner */\n      0x0100\n      exp\n      dup2\n      sload\n      dup2\n      0xffffffffffffffffffffffffffffffffffffffff\n      mul\n      not\n      and\n      swap1\n      dup4\n      0xffffffffffffffffffffffffffffffffffffffff\n      and\n      mul\n      or\n      swap1\n      sstore\n      pop\n        /* \"@openzeppelin/contracts/access/Ownable.sol\":3083:3091  newOwner */\n      dup2\n        /* \"@openzeppelin/contracts/access/Ownable.sol\":3052:3092  OwnershipTransferred(oldOwner, newOwner) */\n      0xffffffffffffffffffffffffffffffffffffffff\n      and\n        /* \"@openzeppelin/contracts/access/Ownable.sol\":3073:3081  oldOwner */\n      dup2\n        /* \"@openzeppelin/contracts/access/Ownable.sol\":3052:3092  OwnershipTransferred(oldOwner, newOwner) */\n      0xffffffffffffffffffffffffffffffffffffffff\n      and\n      0x8be0079c531659141344cd1fd0a4f28419497f9722a3daafe3b4186f6b6457e0\n      mload(0x40)\n      mload(0x40)\n      dup1\n      swap2\n      sub\n      swap1\n      log3\n        /* \"@openzeppelin/contracts/access/Ownable.sol\":2975:3099  {... */\n      pop\n        /* \"@openzeppelin/contracts/access/Ownable.sol\":2912:3099  function _transferOwnership(address newOwner) internal virtual {... */\n      pop\n      jump\t// out\n        /* \"@openzeppelin/contracts/utils/Context.sol\":656:752  function _msgSender() internal view virtual returns (address) {... */\n    tag_210:\n        /* \"@openzeppelin/contracts/utils/Context.sol\":709:716  address */\n      0x00\n        /* \"@openzeppelin/contracts/utils/Context.sol\":735:745  msg.sender */\n      caller\n        /* \"@openzeppelin/contracts/utils/Context.sol\":728:745  return msg.sender */\n      swap1\n      pop\n        /* \"@openzeppelin/contracts/utils/Context.sol\":656:752  function _msgSender() internal view virtual returns (address) {... */\n      swap1\n      jump\t// out\n    tag_120:\n      mload(0x40)\n      dup1\n      0x60\n      add\n      0x40\n      mstore\n      dup1\n      and(0xffffffffffffffffffffffffffffffffffffffff, 0x00)\n      dup2\n      mstore\n      0x20\n      add\n      0x60\n      dup2\n      mstore\n      0x20\n      add\n      iszero(iszero(0x00))\n      dup2\n      mstore\n      pop\n      swap1\n      jump\t// out\n    tag_179:\n      pop\n      dup1\n      sload\n      tag_217\n      swap1\n      tag_75\n      jump\t// in\n    tag_217:\n      0x00\n      dup3\n      sstore\n      dup1\n      0x1f\n      lt\n      tag_219\n      jumpi\n      pop\n      jump(tag_218)\n    tag_219:\n      0x1f\n      add\n      0x20\n      swap1\n      div\n      swap1\n      0x00\n      mstore\n      keccak256(0x00, 0x20)\n      swap1\n      dup2\n      add\n      swap1\n      tag_220\n      swap2\n      swap1\n      tag_221\n      jump\t// in\n    tag_220:\n    tag_218:\n      pop\n      jump\t// out\n    tag_221:\n    tag_222:\n      dup1\n      dup3\n      gt\n      iszero\n      tag_223\n      jumpi\n      0x00\n      dup2\n      0x00\n      swap1\n      sstore\n      pop\n      0x01\n      add\n      jump(tag_222)\n    tag_223:\n      pop\n      swap1\n      jump\t// out\n        /* \"#utility.yul\":7:82   */\n    tag_224:\n        /* \"#utility.yul\":40:46   */\n      0x00\n        /* \"#utility.yul\":73:75   */\n      0x40\n        /* \"#utility.yul\":67:76   */\n      mload\n        /* \"#utility.yul\":57:76   */\n      swap1\n      pop\n        /* \"#utility.yul\":7:82   */\n      swap1\n      jump\t// out\n        /* \"#utility.yul\":88:205   */\n    tag_225:\n        /* \"#utility.yul\":197:198   */\n      0x00\n        /* \"#utility.yul\":194:195   */\n      dup1\n        /* \"#utility.yul\":187:199   */\n      revert\n        /* \"#utility.yul\":211:328   */\n    tag_226:\n        /* \"#utility.yul\":320:321   */\n      0x00\n        /* \"#utility.yul\":317:318   */\n      dup1\n        /* \"#utility.yul\":310:322   */\n      revert\n        /* \"#utility.yul\":334:451   */\n    tag_227:\n        /* \"#utility.yul\":443:444   */\n      0x00\n        /* \"#utility.yul\":440:441   */\n      dup1\n        /* \"#utility.yul\":433:445   */\n      revert\n        /* \"#utility.yul\":457:574   */\n    tag_228:\n        /* \"#utility.yul\":566:567   */\n      0x00\n        /* \"#utility.yul\":563:564   */\n      dup1\n        /* \"#utility.yul\":556:568   */\n      revert\n        /* \"#utility.yul\":580:682   */\n    tag_229:\n        /* \"#utility.yul\":621:627   */\n      0x00\n        /* \"#utility.yul\":672:674   */\n      0x1f\n        /* \"#utility.yul\":668:675   */\n      not\n        /* \"#utility.yul\":663:665   */\n      0x1f\n        /* \"#utility.yul\":656:661   */\n      dup4\n        /* \"#utility.yul\":652:666   */\n      add\n        /* \"#utility.yul\":648:676   */\n      and\n        /* \"#utility.yul\":638:676   */\n      swap1\n      pop\n        /* \"#utility.yul\":580:682   */\n      swap2\n      swap1\n      pop\n      jump\t// out\n        /* \"#utility.yul\":688:868   */\n    tag_230:\n        /* \"#utility.yul\":736:813   */\n      0x4e487b7100000000000000000000000000000000000000000000000000000000\n        /* \"#utility.yul\":733:734   */\n      0x00\n        /* \"#utility.yul\":726:814   */\n      mstore\n        /* \"#utility.yul\":833:837   */\n      0x41\n        /* \"#utility.yul\":830:831   */\n      0x04\n        /* \"#utility.yul\":823:838   */\n      mstore\n        /* \"#utility.yul\":857:861   */\n      0x24\n        /* \"#utility.yul\":854:855   */\n      0x00\n        /* \"#utility.yul\":847:862   */\n      revert\n        /* \"#utility.yul\":874:1155   */\n    tag_231:\n        /* \"#utility.yul\":957:984   */\n      tag_312\n        /* \"#utility.yul\":979:983   */\n      dup3\n        /* \"#utility.yul\":957:984   */\n      tag_229\n      jump\t// in\n    tag_312:\n        /* \"#utility.yul\":949:955   */\n      dup2\n        /* \"#utility.yul\":945:985   */\n      add\n        /* \"#utility.yul\":1087:1093   */\n      dup2\n        /* \"#utility.yul\":1075:1085   */\n      dup2\n        /* \"#utility.yul\":1072:1094   */\n      lt\n        /* \"#utility.yul\":1051:1069   */\n      0xffffffffffffffff\n        /* \"#utility.yul\":1039:1049   */\n      dup3\n        /* \"#utility.yul\":1036:1070   */\n      gt\n        /* \"#utility.yul\":1033:1095   */\n      or\n        /* \"#utility.yul\":1030:1118   */\n      iszero\n      tag_313\n      jumpi\n        /* \"#utility.yul\":1098:1116   */\n      tag_314\n      tag_230\n      jump\t// in\n    tag_314:\n        /* \"#utility.yul\":1030:1118   */\n    tag_313:\n        /* \"#utility.yul\":1138:1148   */\n      dup1\n        /* \"#utility.yul\":1134:1136   */\n      0x40\n        /* \"#utility.yul\":1127:1149   */\n      mstore\n        /* \"#utility.yul\":917:1155   */\n      pop\n        /* \"#utility.yul\":874:1155   */\n      pop\n      pop\n      jump\t// out\n        /* \"#utility.yul\":1161:1290   */\n    tag_232:\n        /* \"#utility.yul\":1195:1201   */\n      0x00\n        /* \"#utility.yul\":1222:1242   */\n      tag_316\n      tag_224\n      jump\t// in\n    tag_316:\n        /* \"#utility.yul\":1212:1242   */\n      swap1\n      pop\n        /* \"#utility.yul\":1251:1284   */\n      tag_317\n        /* \"#utility.yul\":1279:1283   */\n      dup3\n        /* \"#utility.yul\":1271:1277   */\n      dup3\n        /* \"#utility.yul\":1251:1284   */\n      tag_231\n      jump\t// in\n    tag_317:\n        /* \"#utility.yul\":1161:1290   */\n      swap2\n      swap1\n      pop\n      jump\t// out\n        /* \"#utility.yul\":1296:1604   */\n    tag_233:\n        /* \"#utility.yul\":1358:1362   */\n      0x00\n        /* \"#utility.yul\":1448:1466   */\n      0xffffffffffffffff\n        /* \"#utility.yul\":1440:1446   */\n      dup3\n        /* \"#utility.yul\":1437:1467   */\n      gt\n        /* \"#utility.yul\":1434:1490   */\n      iszero\n      tag_319\n      jumpi\n        /* \"#utility.yul\":1470:1488   */\n      tag_320\n      tag_230\n      jump\t// in\n    tag_320:\n        /* \"#utility.yul\":1434:1490   */\n    tag_319:\n        /* \"#utility.yul\":1508:1537   */\n      tag_321\n        /* \"#utility.yul\":1530:1536   */\n      dup3\n        /* \"#utility.yul\":1508:1537   */\n      tag_229\n      jump\t// in\n    tag_321:\n        /* \"#utility.yul\":1500:1537   */\n      swap1\n      pop\n        /* \"#utility.yul\":1592:1596   */\n      0x20\n        /* \"#utility.yul\":1586:1590   */\n      dup2\n        /* \"#utility.yul\":1582:1597   */\n      add\n        /* \"#utility.yul\":1574:1597   */\n      swap1\n      pop\n        /* \"#utility.yul\":1296:1604   */\n      swap2\n      swap1\n      pop\n      jump\t// out\n        /* \"#utility.yul\":1610:1758   */\n    tag_234:\n        /* \"#utility.yul\":1708:1714   */\n      dup3\n        /* \"#utility.yul\":1703:1706   */\n      dup2\n        /* \"#utility.yul\":1698:1701   */\n      dup4\n        /* \"#utility.yul\":1685:1715   */\n      calldatacopy\n        /* \"#utility.yul\":1749:1750   */\n      0x00\n        /* \"#utility.yul\":1740:1746   */\n      dup4\n        /* \"#utility.yul\":1735:1738   */\n      dup4\n        /* \"#utility.yul\":1731:1747   */\n      add\n        /* \"#utility.yul\":1724:1751   */\n      mstore\n        /* \"#utility.yul\":1610:1758   */\n      pop\n      pop\n      pop\n      jump\t// out\n        /* \"#utility.yul\":1764:2189   */\n    tag_235:\n        /* \"#utility.yul\":1842:1847   */\n      0x00\n        /* \"#utility.yul\":1867:1933   */\n      tag_324\n        /* \"#utility.yul\":1883:1932   */\n      tag_325\n        /* \"#utility.yul\":1925:1931   */\n      dup5\n        /* \"#utility.yul\":1883:1932   */\n      tag_233\n      jump\t// in\n    tag_325:\n        /* \"#utility.yul\":1867:1933   */\n      tag_232\n      jump\t// in\n    tag_324:\n        /* \"#utility.yul\":1858:1933   */\n      swap1\n      pop\n        /* \"#utility.yul\":1956:1962   */\n      dup3\n        /* \"#utility.yul\":1949:1954   */\n      dup2\n        /* \"#utility.yul\":1942:1963   */\n      mstore\n        /* \"#utility.yul\":1994:1998   */\n      0x20\n        /* \"#utility.yul\":1987:1992   */\n      dup2\n        /* \"#utility.yul\":1983:1999   */\n      add\n        /* \"#utility.yul\":2032:2035   */\n      dup5\n        /* \"#utility.yul\":2023:2029   */\n      dup5\n        /* \"#utility.yul\":2018:2021   */\n      dup5\n        /* \"#utility.yul\":2014:2030   */\n      add\n        /* \"#utility.yul\":2011:2036   */\n      gt\n        /* \"#utility.yul\":2008:2120   */\n      iszero\n      tag_326\n      jumpi\n        /* \"#utility.yul\":2039:2118   */\n      tag_327\n      tag_228\n      jump\t// in\n    tag_327:\n        /* \"#utility.yul\":2008:2120   */\n    tag_326:\n        /* \"#utility.yul\":2129:2183   */\n      tag_328\n        /* \"#utility.yul\":2176:2182   */\n      dup5\n        /* \"#utility.yul\":2171:2174   */\n      dup3\n        /* \"#utility.yul\":2166:2169   */\n      dup6\n        /* \"#utility.yul\":2129:2183   */\n      tag_234\n      jump\t// in\n    tag_328:\n        /* \"#utility.yul\":1848:2189   */\n      pop\n        /* \"#utility.yul\":1764:2189   */\n      swap4\n      swap3\n      pop\n      pop\n      pop\n      jump\t// out\n        /* \"#utility.yul\":2209:2549   */\n    tag_236:\n        /* \"#utility.yul\":2265:2270   */\n      0x00\n        /* \"#utility.yul\":2314:2317   */\n      dup3\n        /* \"#utility.yul\":2307:2311   */\n      0x1f\n        /* \"#utility.yul\":2299:2305   */\n      dup4\n        /* \"#utility.yul\":2295:2312   */\n      add\n        /* \"#utility.yul\":2291:2318   */\n      slt\n        /* \"#utility.yul\":2281:2403   */\n      tag_330\n      jumpi\n        /* \"#utility.yul\":2322:2401   */\n      tag_331\n      tag_227\n      jump\t// in\n    tag_331:\n        /* \"#utility.yul\":2281:2403   */\n    tag_330:\n        /* \"#utility.yul\":2439:2445   */\n      dup2\n        /* \"#utility.yul\":2426:2446   */\n      calldataload\n        /* \"#utility.yul\":2464:2543   */\n      tag_332\n        /* \"#utility.yul\":2539:2542   */\n      dup5\n        /* \"#utility.yul\":2531:2537   */\n      dup3\n        /* \"#utility.yul\":2524:2528   */\n      0x20\n        /* \"#utility.yul\":2516:2522   */\n      dup7\n        /* \"#utility.yul\":2512:2529   */\n      add\n        /* \"#utility.yul\":2464:2543   */\n      tag_235\n      jump\t// in\n    tag_332:\n        /* \"#utility.yul\":2455:2543   */\n      swap2\n      pop\n        /* \"#utility.yul\":2271:2549   */\n      pop\n        /* \"#utility.yul\":2209:2549   */\n      swap3\n      swap2\n      pop\n      pop\n      jump\t// out\n        /* \"#utility.yul\":2555:3064   */\n    tag_20:\n        /* \"#utility.yul\":2624:2630   */\n      0x00\n        /* \"#utility.yul\":2673:2675   */\n      0x20\n        /* \"#utility.yul\":2661:2670   */\n      dup3\n        /* \"#utility.yul\":2652:2659   */\n      dup5\n        /* \"#utility.yul\":2648:2671   */\n      sub\n        /* \"#utility.yul\":2644:2676   */\n      slt\n        /* \"#utility.yul\":2641:2760   */\n      iszero\n      tag_334\n      jumpi\n        /* \"#utility.yul\":2679:2758   */\n      tag_335\n      tag_225\n      jump\t// in\n    tag_335:\n        /* \"#utility.yul\":2641:2760   */\n    tag_334:\n        /* \"#utility.yul\":2827:2828   */\n      0x00\n        /* \"#utility.yul\":2816:2825   */\n      dup3\n        /* \"#utility.yul\":2812:2829   */\n      add\n        /* \"#utility.yul\":2799:2830   */\n      calldataload\n        /* \"#utility.yul\":2857:2875   */\n      0xffffffffffffffff\n        /* \"#utility.yul\":2849:2855   */\n      dup2\n        /* \"#utility.yul\":2846:2876   */\n      gt\n        /* \"#utility.yul\":2843:2960   */\n      iszero\n      tag_336\n      jumpi\n        /* \"#utility.yul\":2879:2958   */\n      tag_337\n      tag_226\n      jump\t// in\n    tag_337:\n        /* \"#utility.yul\":2843:2960   */\n    tag_336:\n        /* \"#utility.yul\":2984:3047   */\n      tag_338\n        /* \"#utility.yul\":3039:3046   */\n      dup5\n        /* \"#utility.yul\":3030:3036   */\n      dup3\n        /* \"#utility.yul\":3019:3028   */\n      dup6\n        /* \"#utility.yul\":3015:3037   */\n      add\n        /* \"#utility.yul\":2984:3047   */\n      tag_236\n      jump\t// in\n    tag_338:\n        /* \"#utility.yul\":2974:3047   */\n      swap2\n      pop\n        /* \"#utility.yul\":2770:3057   */\n      pop\n        /* \"#utility.yul\":2555:3064   */\n      swap3\n      swap2\n      pop\n      pop\n      jump\t// out\n        /* \"#utility.yul\":3070:3160   */\n    tag_237:\n        /* \"#utility.yul\":3104:3111   */\n      0x00\n        /* \"#utility.yul\":3147:3152   */\n      dup2\n        /* \"#utility.yul\":3140:3153   */\n      iszero\n        /* \"#utility.yul\":3133:3154   */\n      iszero\n        /* \"#utility.yul\":3122:3154   */\n      swap1\n      pop\n        /* \"#utility.yul\":3070:3160   */\n      swap2\n      swap1\n      pop\n      jump\t// out\n        /* \"#utility.yul\":3166:3275   */\n    tag_238:\n        /* \"#utility.yul\":3247:3268   */\n      tag_341\n        /* \"#utility.yul\":3262:3267   */\n      dup2\n        /* \"#utility.yul\":3247:3268   */\n      tag_237\n      jump\t// in\n    tag_341:\n        /* \"#utility.yul\":3242:3245   */\n      dup3\n        /* \"#utility.yul\":3235:3269   */\n      mstore\n        /* \"#utility.yul\":3166:3275   */\n      pop\n      pop\n      jump\t// out\n        /* \"#utility.yul\":3281:3491   */\n    tag_23:\n        /* \"#utility.yul\":3368:3372   */\n      0x00\n        /* \"#utility.yul\":3406:3408   */\n      0x20\n        /* \"#utility.yul\":3395:3404   */\n      dup3\n        /* \"#utility.yul\":3391:3409   */\n      add\n        /* \"#utility.yul\":3383:3409   */\n      swap1\n      pop\n        /* \"#utility.yul\":3419:3484   */\n      tag_343\n        /* \"#utility.yul\":3481:3482   */\n      0x00\n        /* \"#utility.yul\":3470:3479   */\n      dup4\n        /* \"#utility.yul\":3466:3483   */\n      add\n        /* \"#utility.yul\":3457:3463   */\n      dup5\n        /* \"#utility.yul\":3419:3484   */\n      tag_238\n      jump\t// in\n    tag_343:\n        /* \"#utility.yul\":3281:3491   */\n      swap3\n      swap2\n      pop\n      pop\n      jump\t// out\n        /* \"#utility.yul\":3497:3623   */\n    tag_239:\n        /* \"#utility.yul\":3534:3541   */\n      0x00\n        /* \"#utility.yul\":3574:3616   */\n      0xffffffffffffffffffffffffffffffffffffffff\n        /* \"#utility.yul\":3567:3572   */\n      dup3\n        /* \"#utility.yul\":3563:3617   */\n      and\n        /* \"#utility.yul\":3552:3617   */\n      swap1\n      pop\n        /* \"#utility.yul\":3497:3623   */\n      swap2\n      swap1\n      pop\n      jump\t// out\n        /* \"#utility.yul\":3629:3689   */\n    tag_240:\n        /* \"#utility.yul\":3657:3660   */\n      0x00\n        /* \"#utility.yul\":3678:3683   */\n      dup2\n        /* \"#utility.yul\":3671:3683   */\n      swap1\n      pop\n        /* \"#utility.yul\":3629:3689   */\n      swap2\n      swap1\n      pop\n      jump\t// out\n        /* \"#utility.yul\":3695:3837   */\n    tag_241:\n        /* \"#utility.yul\":3745:3754   */\n      0x00\n        /* \"#utility.yul\":3778:3831   */\n      tag_347\n        /* \"#utility.yul\":3796:3830   */\n      tag_348\n        /* \"#utility.yul\":3805:3829   */\n      tag_349\n        /* \"#utility.yul\":3823:3828   */\n      dup5\n        /* \"#utility.yul\":3805:3829   */\n      tag_239\n      jump\t// in\n    tag_349:\n        /* \"#utility.yul\":3796:3830   */\n      tag_240\n      jump\t// in\n    tag_348:\n        /* \"#utility.yul\":3778:3831   */\n      tag_239\n      jump\t// in\n    tag_347:\n        /* \"#utility.yul\":3765:3831   */\n      swap1\n      pop\n        /* \"#utility.yul\":3695:3837   */\n      swap2\n      swap1\n      pop\n      jump\t// out\n        /* \"#utility.yul\":3843:3969   */\n    tag_242:\n        /* \"#utility.yul\":3893:3902   */\n      0x00\n        /* \"#utility.yul\":3926:3963   */\n      tag_351\n        /* \"#utility.yul\":3957:3962   */\n      dup3\n        /* \"#utility.yul\":3926:3963   */\n      tag_241\n      jump\t// in\n    tag_351:\n        /* \"#utility.yul\":3913:3963   */\n      swap1\n      pop\n        /* \"#utility.yul\":3843:3969   */\n      swap2\n      swap1\n      pop\n      jump\t// out\n        /* \"#utility.yul\":3975:4115   */\n    tag_243:\n        /* \"#utility.yul\":4039:4048   */\n      0x00\n        /* \"#utility.yul\":4072:4109   */\n      tag_353\n        /* \"#utility.yul\":4103:4108   */\n      dup3\n        /* \"#utility.yul\":4072:4109   */\n      tag_242\n      jump\t// in\n    tag_353:\n        /* \"#utility.yul\":4059:4109   */\n      swap1\n      pop\n        /* \"#utility.yul\":3975:4115   */\n      swap2\n      swap1\n      pop\n      jump\t// out\n        /* \"#utility.yul\":4121:4280   */\n    tag_244:\n        /* \"#utility.yul\":4222:4273   */\n      tag_355\n        /* \"#utility.yul\":4267:4272   */\n      dup2\n        /* \"#utility.yul\":4222:4273   */\n      tag_243\n      jump\t// in\n    tag_355:\n        /* \"#utility.yul\":4217:4220   */\n      dup3\n        /* \"#utility.yul\":4210:4274   */\n      mstore\n        /* \"#utility.yul\":4121:4280   */\n      pop\n      pop\n      jump\t// out\n        /* \"#utility.yul\":4286:4536   */\n    tag_27:\n        /* \"#utility.yul\":4393:4397   */\n      0x00\n        /* \"#utility.yul\":4431:4433   */\n      0x20\n        /* \"#utility.yul\":4420:4429   */\n      dup3\n        /* \"#utility.yul\":4416:4434   */\n      add\n        /* \"#utility.yul\":4408:4434   */\n      swap1\n      pop\n        /* \"#utility.yul\":4444:4529   */\n      tag_357\n        /* \"#utility.yul\":4526:4527   */\n      0x00\n        /* \"#utility.yul\":4515:4524   */\n      dup4\n        /* \"#utility.yul\":4511:4528   */\n      add\n        /* \"#utility.yul\":4502:4508   */\n      dup5\n        /* \"#utility.yul\":4444:4529   */\n      tag_244\n      jump\t// in\n    tag_357:\n        /* \"#utility.yul\":4286:4536   */\n      swap3\n      swap2\n      pop\n      pop\n      jump\t// out\n        /* \"#utility.yul\":4542:4619   */\n    tag_245:\n        /* \"#utility.yul\":4579:4586   */\n      0x00\n        /* \"#utility.yul\":4608:4613   */\n      dup2\n        /* \"#utility.yul\":4597:4613   */\n      swap1\n      pop\n        /* \"#utility.yul\":4542:4619   */\n      swap2\n      swap1\n      pop\n      jump\t// out\n        /* \"#utility.yul\":4625:4747   */\n    tag_246:\n        /* \"#utility.yul\":4698:4722   */\n      tag_360\n        /* \"#utility.yul\":4716:4721   */\n      dup2\n        /* \"#utility.yul\":4698:4722   */\n      tag_245\n      jump\t// in\n    tag_360:\n        /* \"#utility.yul\":4691:4696   */\n      dup2\n        /* \"#utility.yul\":4688:4723   */\n      eq\n        /* \"#utility.yul\":4678:4741   */\n      tag_361\n      jumpi\n        /* \"#utility.yul\":4737:4738   */\n      0x00\n        /* \"#utility.yul\":4734:4735   */\n      dup1\n        /* \"#utility.yul\":4727:4739   */\n      revert\n        /* \"#utility.yul\":4678:4741   */\n    tag_361:\n        /* \"#utility.yul\":4625:4747   */\n      pop\n      jump\t// out\n        /* \"#utility.yul\":4753:4892   */\n    tag_247:\n        /* \"#utility.yul\":4799:4804   */\n      0x00\n        /* \"#utility.yul\":4837:4843   */\n      dup2\n        /* \"#utility.yul\":4824:4844   */\n      calldataload\n        /* \"#utility.yul\":4815:4844   */\n      swap1\n      pop\n        /* \"#utility.yul\":4853:4886   */\n      tag_363\n        /* \"#utility.yul\":4880:4885   */\n      dup2\n        /* \"#utility.yul\":4853:4886   */\n      tag_246\n      jump\t// in\n    tag_363:\n        /* \"#utility.yul\":4753:4892   */\n      swap3\n      swap2\n      pop\n      pop\n      jump\t// out\n        /* \"#utility.yul\":4898:5227   */\n    tag_30:\n        /* \"#utility.yul\":4957:4963   */\n      0x00\n        /* \"#utility.yul\":5006:5008   */\n      0x20\n        /* \"#utility.yul\":4994:5003   */\n      dup3\n        /* \"#utility.yul\":4985:4992   */\n      dup5\n        /* \"#utility.yul\":4981:5004   */\n      sub\n        /* \"#utility.yul\":4977:5009   */\n      slt\n        /* \"#utility.yul\":4974:5093   */\n      iszero\n      tag_365\n      jumpi\n        /* \"#utility.yul\":5012:5091   */\n      tag_366\n      tag_225\n      jump\t// in\n    tag_366:\n        /* \"#utility.yul\":4974:5093   */\n    tag_365:\n        /* \"#utility.yul\":5132:5133   */\n      0x00\n        /* \"#utility.yul\":5157:5210   */\n      tag_367\n        /* \"#utility.yul\":5202:5209   */\n      dup5\n        /* \"#utility.yul\":5193:5199   */\n      dup3\n        /* \"#utility.yul\":5182:5191   */\n      dup6\n        /* \"#utility.yul\":5178:5200   */\n      add\n        /* \"#utility.yul\":5157:5210   */\n      tag_247\n      jump\t// in\n    tag_367:\n        /* \"#utility.yul\":5147:5210   */\n      swap2\n      pop\n        /* \"#utility.yul\":5103:5220   */\n      pop\n        /* \"#utility.yul\":4898:5227   */\n      swap3\n      swap2\n      pop\n      pop\n      jump\t// out\n        /* \"#utility.yul\":5233:5332   */\n    tag_248:\n        /* \"#utility.yul\":5285:5291   */\n      0x00\n        /* \"#utility.yul\":5319:5324   */\n      dup2\n        /* \"#utility.yul\":5313:5325   */\n      mload\n        /* \"#utility.yul\":5303:5325   */\n      swap1\n      pop\n        /* \"#utility.yul\":5233:5332   */\n      swap2\n      swap1\n      pop\n      jump\t// out\n        /* \"#utility.yul\":5338:5507   */\n    tag_249:\n        /* \"#utility.yul\":5422:5433   */\n      0x00\n        /* \"#utility.yul\":5456:5462   */\n      dup3\n        /* \"#utility.yul\":5451:5454   */\n      dup3\n        /* \"#utility.yul\":5444:5463   */\n      mstore\n        /* \"#utility.yul\":5496:5500   */\n      0x20\n        /* \"#utility.yul\":5491:5494   */\n      dup3\n        /* \"#utility.yul\":5487:5501   */\n      add\n        /* \"#utility.yul\":5472:5501   */\n      swap1\n      pop\n        /* \"#utility.yul\":5338:5507   */\n      swap3\n      swap2\n      pop\n      pop\n      jump\t// out\n        /* \"#utility.yul\":5513:5761   */\n    tag_250:\n        /* \"#utility.yul\":5595:5596   */\n      0x00\n        /* \"#utility.yul\":5605:5718   */\n    tag_371:\n        /* \"#utility.yul\":5619:5625   */\n      dup4\n        /* \"#utility.yul\":5616:5617   */\n      dup2\n        /* \"#utility.yul\":5613:5626   */\n      lt\n        /* \"#utility.yul\":5605:5718   */\n      iszero\n      tag_373\n      jumpi\n        /* \"#utility.yul\":5704:5705   */\n      dup1\n        /* \"#utility.yul\":5699:5702   */\n      dup3\n        /* \"#utility.yul\":5695:5706   */\n      add\n        /* \"#utility.yul\":5689:5707   */\n      mload\n        /* \"#utility.yul\":5685:5686   */\n      dup2\n        /* \"#utility.yul\":5680:5683   */\n      dup5\n        /* \"#utility.yul\":5676:5687   */\n      add\n        /* \"#utility.yul\":5669:5708   */\n      mstore\n        /* \"#utility.yul\":5641:5643   */\n      0x20\n        /* \"#utility.yul\":5638:5639   */\n      dup2\n        /* \"#utility.yul\":5634:5644   */\n      add\n        /* \"#utility.yul\":5629:5644   */\n      swap1\n      pop\n        /* \"#utility.yul\":5605:5718   */\n      jump(tag_371)\n    tag_373:\n        /* \"#utility.yul\":5752:5753   */\n      0x00\n        /* \"#utility.yul\":5743:5749   */\n      dup5\n        /* \"#utility.yul\":5738:5741   */\n      dup5\n        /* \"#utility.yul\":5734:5750   */\n      add\n        /* \"#utility.yul\":5727:5754   */\n      mstore\n        /* \"#utility.yul\":5575:5761   */\n      pop\n        /* \"#utility.yul\":5513:5761   */\n      pop\n      pop\n      pop\n      jump\t// out\n        /* \"#utility.yul\":5767:6144   */\n    tag_251:\n        /* \"#utility.yul\":5855:5858   */\n      0x00\n        /* \"#utility.yul\":5883:5922   */\n      tag_375\n        /* \"#utility.yul\":5916:5921   */\n      dup3\n        /* \"#utility.yul\":5883:5922   */\n      tag_248\n      jump\t// in\n    tag_375:\n        /* \"#utility.yul\":5938:6009   */\n      tag_376\n        /* \"#utility.yul\":6002:6008   */\n      dup2\n        /* \"#utility.yul\":5997:6000   */\n      dup6\n        /* \"#utility.yul\":5938:6009   */\n      tag_249\n      jump\t// in\n    tag_376:\n        /* \"#utility.yul\":5931:6009   */\n      swap4\n      pop\n        /* \"#utility.yul\":6018:6083   */\n      tag_377\n        /* \"#utility.yul\":6076:6082   */\n      dup2\n        /* \"#utility.yul\":6071:6074   */\n      dup6\n        /* \"#utility.yul\":6064:6068   */\n      0x20\n        /* \"#utility.yul\":6057:6062   */\n      dup7\n        /* \"#utility.yul\":6053:6069   */\n      add\n        /* \"#utility.yul\":6018:6083   */\n      tag_250\n      jump\t// in\n    tag_377:\n        /* \"#utility.yul\":6108:6137   */\n      tag_378\n        /* \"#utility.yul\":6130:6136   */\n      dup2\n        /* \"#utility.yul\":6108:6137   */\n      tag_229\n      jump\t// in\n    tag_378:\n        /* \"#utility.yul\":6103:6106   */\n      dup5\n        /* \"#utility.yul\":6099:6138   */\n      add\n        /* \"#utility.yul\":6092:6138   */\n      swap2\n      pop\n        /* \"#utility.yul\":5859:6144   */\n      pop\n        /* \"#utility.yul\":5767:6144   */\n      swap3\n      swap2\n      pop\n      pop\n      jump\t// out\n        /* \"#utility.yul\":6150:6463   */\n    tag_33:\n        /* \"#utility.yul\":6263:6267   */\n      0x00\n        /* \"#utility.yul\":6301:6303   */\n      0x20\n        /* \"#utility.yul\":6290:6299   */\n      dup3\n        /* \"#utility.yul\":6286:6304   */\n      add\n        /* \"#utility.yul\":6278:6304   */\n      swap1\n      pop\n        /* \"#utility.yul\":6350:6359   */\n      dup2\n        /* \"#utility.yul\":6344:6348   */\n      dup2\n        /* \"#utility.yul\":6340:6360   */\n      sub\n        /* \"#utility.yul\":6336:6337   */\n      0x00\n        /* \"#utility.yul\":6325:6334   */\n      dup4\n        /* \"#utility.yul\":6321:6338   */\n      add\n        /* \"#utility.yul\":6314:6361   */\n      mstore\n        /* \"#utility.yul\":6378:6456   */\n      tag_380\n        /* \"#utility.yul\":6451:6455   */\n      dup2\n        /* \"#utility.yul\":6442:6448   */\n      dup5\n        /* \"#utility.yul\":6378:6456   */\n      tag_251\n      jump\t// in\n    tag_380:\n        /* \"#utility.yul\":6370:6456   */\n      swap1\n      pop\n        /* \"#utility.yul\":6150:6463   */\n      swap3\n      swap2\n      pop\n      pop\n      jump\t// out\n        /* \"#utility.yul\":6469:6565   */\n    tag_252:\n        /* \"#utility.yul\":6506:6513   */\n      0x00\n        /* \"#utility.yul\":6535:6559   */\n      tag_382\n        /* \"#utility.yul\":6553:6558   */\n      dup3\n        /* \"#utility.yul\":6535:6559   */\n      tag_239\n      jump\t// in\n    tag_382:\n        /* \"#utility.yul\":6524:6559   */\n      swap1\n      pop\n        /* \"#utility.yul\":6469:6565   */\n      swap2\n      swap1\n      pop\n      jump\t// out\n        /* \"#utility.yul\":6571:6689   */\n    tag_253:\n        /* \"#utility.yul\":6658:6682   */\n      tag_384\n        /* \"#utility.yul\":6676:6681   */\n      dup2\n        /* \"#utility.yul\":6658:6682   */\n      tag_252\n      jump\t// in\n    tag_384:\n        /* \"#utility.yul\":6653:6656   */\n      dup3\n        /* \"#utility.yul\":6646:6683   */\n      mstore\n        /* \"#utility.yul\":6571:6689   */\n      pop\n      pop\n      jump\t// out\n        /* \"#utility.yul\":6695:6917   */\n    tag_42:\n        /* \"#utility.yul\":6788:6792   */\n      0x00\n        /* \"#utility.yul\":6826:6828   */\n      0x20\n        /* \"#utility.yul\":6815:6824   */\n      dup3\n        /* \"#utility.yul\":6811:6829   */\n      add\n        /* \"#utility.yul\":6803:6829   */\n      swap1\n      pop\n        /* \"#utility.yul\":6839:6910   */\n      tag_386\n        /* \"#utility.yul\":6907:6908   */\n      0x00\n        /* \"#utility.yul\":6896:6905   */\n      dup4\n        /* \"#utility.yul\":6892:6909   */\n      add\n        /* \"#utility.yul\":6883:6889   */\n      dup5\n        /* \"#utility.yul\":6839:6910   */\n      tag_253\n      jump\t// in\n    tag_386:\n        /* \"#utility.yul\":6695:6917   */\n      swap3\n      swap2\n      pop\n      pop\n      jump\t// out\n        /* \"#utility.yul\":6923:7444   */\n    tag_47:\n        /* \"#utility.yul\":7086:7090   */\n      0x00\n        /* \"#utility.yul\":7124:7126   */\n      0x60\n        /* \"#utility.yul\":7113:7122   */\n      dup3\n        /* \"#utility.yul\":7109:7127   */\n      add\n        /* \"#utility.yul\":7101:7127   */\n      swap1\n      pop\n        /* \"#utility.yul\":7137:7208   */\n      tag_388\n        /* \"#utility.yul\":7205:7206   */\n      0x00\n        /* \"#utility.yul\":7194:7203   */\n      dup4\n        /* \"#utility.yul\":7190:7207   */\n      add\n        /* \"#utility.yul\":7181:7187   */\n      dup7\n        /* \"#utility.yul\":7137:7208   */\n      tag_253\n      jump\t// in\n    tag_388:\n        /* \"#utility.yul\":7255:7264   */\n      dup2\n        /* \"#utility.yul\":7249:7253   */\n      dup2\n        /* \"#utility.yul\":7245:7265   */\n      sub\n        /* \"#utility.yul\":7240:7242   */\n      0x20\n        /* \"#utility.yul\":7229:7238   */\n      dup4\n        /* \"#utility.yul\":7225:7243   */\n      add\n        /* \"#utility.yul\":7218:7266   */\n      mstore\n        /* \"#utility.yul\":7283:7361   */\n      tag_389\n        /* \"#utility.yul\":7356:7360   */\n      dup2\n        /* \"#utility.yul\":7347:7353   */\n      dup6\n        /* \"#utility.yul\":7283:7361   */\n      tag_251\n      jump\t// in\n    tag_389:\n        /* \"#utility.yul\":7275:7361   */\n      swap1\n      pop\n        /* \"#utility.yul\":7371:7437   */\n      tag_390\n        /* \"#utility.yul\":7433:7435   */\n      0x40\n        /* \"#utility.yul\":7422:7431   */\n      dup4\n        /* \"#utility.yul\":7418:7436   */\n      add\n        /* \"#utility.yul\":7409:7415   */\n      dup5\n        /* \"#utility.yul\":7371:7437   */\n      tag_238\n      jump\t// in\n    tag_390:\n        /* \"#utility.yul\":6923:7444   */\n      swap5\n      swap4\n      pop\n      pop\n      pop\n      pop\n      jump\t// out\n        /* \"#utility.yul\":7450:7574   */\n    tag_254:\n        /* \"#utility.yul\":7527:7533   */\n      0x00\n        /* \"#utility.yul\":7561:7566   */\n      dup2\n        /* \"#utility.yul\":7555:7567   */\n      mload\n        /* \"#utility.yul\":7545:7567   */\n      swap1\n      pop\n        /* \"#utility.yul\":7450:7574   */\n      swap2\n      swap1\n      pop\n      jump\t// out\n        /* \"#utility.yul\":7580:7774   */\n    tag_255:\n        /* \"#utility.yul\":7689:7700   */\n      0x00\n        /* \"#utility.yul\":7723:7729   */\n      dup3\n        /* \"#utility.yul\":7718:7721   */\n      dup3\n        /* \"#utility.yul\":7711:7730   */\n      mstore\n        /* \"#utility.yul\":7763:7767   */\n      0x20\n        /* \"#utility.yul\":7758:7761   */\n      dup3\n        /* \"#utility.yul\":7754:7768   */\n      add\n        /* \"#utility.yul\":7739:7768   */\n      swap1\n      pop\n        /* \"#utility.yul\":7580:7774   */\n      swap3\n      swap2\n      pop\n      pop\n      jump\t// out\n        /* \"#utility.yul\":7780:7922   */\n    tag_256:\n        /* \"#utility.yul\":7857:7861   */\n      0x00\n        /* \"#utility.yul\":7880:7883   */\n      dup2\n        /* \"#utility.yul\":7872:7883   */\n      swap1\n      pop\n        /* \"#utility.yul\":7910:7914   */\n      0x20\n        /* \"#utility.yul\":7905:7908   */\n      dup3\n        /* \"#utility.yul\":7901:7915   */\n      add\n        /* \"#utility.yul\":7893:7915   */\n      swap1\n      pop\n        /* \"#utility.yul\":7780:7922   */\n      swap2\n      swap1\n      pop\n      jump\t// out\n        /* \"#utility.yul\":7928:8087   */\n    tag_257:\n        /* \"#utility.yul\":8002:8013   */\n      0x00\n        /* \"#utility.yul\":8036:8042   */\n      dup3\n        /* \"#utility.yul\":8031:8034   */\n      dup3\n        /* \"#utility.yul\":8024:8043   */\n      mstore\n        /* \"#utility.yul\":8076:8080   */\n      0x20\n        /* \"#utility.yul\":8071:8074   */\n      dup3\n        /* \"#utility.yul\":8067:8081   */\n      add\n        /* \"#utility.yul\":8052:8081   */\n      swap1\n      pop\n        /* \"#utility.yul\":7928:8087   */\n      swap3\n      swap2\n      pop\n      pop\n      jump\t// out\n        /* \"#utility.yul\":8093:8450   */\n    tag_258:\n        /* \"#utility.yul\":8171:8174   */\n      0x00\n        /* \"#utility.yul\":8199:8238   */\n      tag_396\n        /* \"#utility.yul\":8232:8237   */\n      dup3\n        /* \"#utility.yul\":8199:8238   */\n      tag_248\n      jump\t// in\n    tag_396:\n        /* \"#utility.yul\":8254:8315   */\n      tag_397\n        /* \"#utility.yul\":8308:8314   */\n      dup2\n        /* \"#utility.yul\":8303:8306   */\n      dup6\n        /* \"#utility.yul\":8254:8315   */\n      tag_257\n      jump\t// in\n    tag_397:\n        /* \"#utility.yul\":8247:8315   */\n      swap4\n      pop\n        /* \"#utility.yul\":8324:8389   */\n      tag_398\n        /* \"#utility.yul\":8382:8388   */\n      dup2\n        /* \"#utility.yul\":8377:8380   */\n      dup6\n        /* \"#utility.yul\":8370:8374   */\n      0x20\n        /* \"#utility.yul\":8363:8368   */\n      dup7\n        /* \"#utility.yul\":8359:8375   */\n      add\n        /* \"#utility.yul\":8324:8389   */\n      tag_250\n      jump\t// in\n    tag_398:\n        /* \"#utility.yul\":8414:8443   */\n      tag_399\n        /* \"#utility.yul\":8436:8442   */\n      dup2\n        /* \"#utility.yul\":8414:8443   */\n      tag_229\n      jump\t// in\n    tag_399:\n        /* \"#utility.yul\":8409:8412   */\n      dup5\n        /* \"#utility.yul\":8405:8444   */\n      add\n        /* \"#utility.yul\":8398:8444   */\n      swap2\n      pop\n        /* \"#utility.yul\":8175:8450   */\n      pop\n        /* \"#utility.yul\":8093:8450   */\n      swap3\n      swap2\n      pop\n      pop\n      jump\t// out\n        /* \"#utility.yul\":8456:8652   */\n    tag_259:\n        /* \"#utility.yul\":8545:8555   */\n      0x00\n        /* \"#utility.yul\":8580:8646   */\n      tag_401\n        /* \"#utility.yul\":8642:8645   */\n      dup4\n        /* \"#utility.yul\":8634:8640   */\n      dup4\n        /* \"#utility.yul\":8580:8646   */\n      tag_258\n      jump\t// in\n    tag_401:\n        /* \"#utility.yul\":8566:8646   */\n      swap1\n      pop\n        /* \"#utility.yul\":8456:8652   */\n      swap3\n      swap2\n      pop\n      pop\n      jump\t// out\n        /* \"#utility.yul\":8658:8781   */\n    tag_260:\n        /* \"#utility.yul\":8738:8742   */\n      0x00\n        /* \"#utility.yul\":8770:8774   */\n      0x20\n        /* \"#utility.yul\":8765:8768   */\n      dup3\n        /* \"#utility.yul\":8761:8775   */\n      add\n        /* \"#utility.yul\":8753:8775   */\n      swap1\n      pop\n        /* \"#utility.yul\":8658:8781   */\n      swap2\n      swap1\n      pop\n      jump\t// out\n        /* \"#utility.yul\":8815:9806   */\n    tag_261:\n        /* \"#utility.yul\":8954:8957   */\n      0x00\n        /* \"#utility.yul\":8983:9047   */\n      tag_404\n        /* \"#utility.yul\":9041:9046   */\n      dup3\n        /* \"#utility.yul\":8983:9047   */\n      tag_254\n      jump\t// in\n    tag_404:\n        /* \"#utility.yul\":9063:9159   */\n      tag_405\n        /* \"#utility.yul\":9152:9158   */\n      dup2\n        /* \"#utility.yul\":9147:9150   */\n      dup6\n        /* \"#utility.yul\":9063:9159   */\n      tag_255\n      jump\t// in\n    tag_405:\n        /* \"#utility.yul\":9056:9159   */\n      swap4\n      pop\n        /* \"#utility.yul\":9185:9188   */\n      dup4\n        /* \"#utility.yul\":9230:9234   */\n      0x20\n        /* \"#utility.yul\":9222:9228   */\n      dup3\n        /* \"#utility.yul\":9218:9235   */\n      mul\n        /* \"#utility.yul\":9213:9216   */\n      dup6\n        /* \"#utility.yul\":9209:9236   */\n      add\n        /* \"#utility.yul\":9260:9326   */\n      tag_406\n        /* \"#utility.yul\":9320:9325   */\n      dup6\n        /* \"#utility.yul\":9260:9326   */\n      tag_256\n      jump\t// in\n    tag_406:\n        /* \"#utility.yul\":9349:9356   */\n      dup1\n        /* \"#utility.yul\":9380:9381   */\n      0x00\n        /* \"#utility.yul\":9365:9761   */\n    tag_407:\n        /* \"#utility.yul\":9390:9396   */\n      dup6\n        /* \"#utility.yul\":9387:9388   */\n      dup2\n        /* \"#utility.yul\":9384:9397   */\n      lt\n        /* \"#utility.yul\":9365:9761   */\n      iszero\n      tag_409\n      jumpi\n        /* \"#utility.yul\":9461:9470   */\n      dup5\n        /* \"#utility.yul\":9455:9459   */\n      dup5\n        /* \"#utility.yul\":9451:9471   */\n      sub\n        /* \"#utility.yul\":9446:9449   */\n      dup10\n        /* \"#utility.yul\":9439:9472   */\n      mstore\n        /* \"#utility.yul\":9512:9518   */\n      dup2\n        /* \"#utility.yul\":9506:9519   */\n      mload\n        /* \"#utility.yul\":9540:9624   */\n      tag_410\n        /* \"#utility.yul\":9619:9623   */\n      dup6\n        /* \"#utility.yul\":9604:9617   */\n      dup3\n        /* \"#utility.yul\":9540:9624   */\n      tag_259\n      jump\t// in\n    tag_410:\n        /* \"#utility.yul\":9532:9624   */\n      swap5\n      pop\n        /* \"#utility.yul\":9647:9717   */\n      tag_411\n        /* \"#utility.yul\":9710:9716   */\n      dup4\n        /* \"#utility.yul\":9647:9717   */\n      tag_260\n      jump\t// in\n    tag_411:\n        /* \"#utility.yul\":9637:9717   */\n      swap3\n      pop\n        /* \"#utility.yul\":9746:9750   */\n      0x20\n        /* \"#utility.yul\":9741:9744   */\n      dup11\n        /* \"#utility.yul\":9737:9751   */\n      add\n        /* \"#utility.yul\":9730:9751   */\n      swap10\n      pop\n        /* \"#utility.yul\":9425:9761   */\n      pop\n        /* \"#utility.yul\":9412:9413   */\n      0x01\n        /* \"#utility.yul\":9409:9410   */\n      dup2\n        /* \"#utility.yul\":9405:9414   */\n      add\n        /* \"#utility.yul\":9400:9414   */\n      swap1\n      pop\n        /* \"#utility.yul\":9365:9761   */\n      jump(tag_407)\n    tag_409:\n        /* \"#utility.yul\":9369:9383   */\n      pop\n        /* \"#utility.yul\":9777:9781   */\n      dup3\n        /* \"#utility.yul\":9770:9781   */\n      swap8\n      pop\n        /* \"#utility.yul\":9797:9800   */\n      dup8\n        /* \"#utility.yul\":9790:9800   */\n      swap6\n      pop\n        /* \"#utility.yul\":8959:9806   */\n      pop\n      pop\n      pop\n      pop\n      pop\n        /* \"#utility.yul\":8815:9806   */\n      swap3\n      swap2\n      pop\n      pop\n      jump\t// out\n        /* \"#utility.yul\":9812:10225   */\n    tag_51:\n        /* \"#utility.yul\":9975:9979   */\n      0x00\n        /* \"#utility.yul\":10013:10015   */\n      0x20\n        /* \"#utility.yul\":10002:10011   */\n      dup3\n        /* \"#utility.yul\":9998:10016   */\n      add\n        /* \"#utility.yul\":9990:10016   */\n      swap1\n      pop\n        /* \"#utility.yul\":10062:10071   */\n      dup2\n        /* \"#utility.yul\":10056:10060   */\n      dup2\n        /* \"#utility.yul\":10052:10072   */\n      sub\n        /* \"#utility.yul\":10048:10049   */\n      0x00\n        /* \"#utility.yul\":10037:10046   */\n      dup4\n        /* \"#utility.yul\":10033:10050   */\n      add\n        /* \"#utility.yul\":10026:10073   */\n      mstore\n        /* \"#utility.yul\":10090:10218   */\n      tag_413\n        /* \"#utility.yul\":10213:10217   */\n      dup2\n        /* \"#utility.yul\":10204:10210   */\n      dup5\n        /* \"#utility.yul\":10090:10218   */\n      tag_261\n      jump\t// in\n    tag_413:\n        /* \"#utility.yul\":10082:10218   */\n      swap1\n      pop\n        /* \"#utility.yul\":9812:10225   */\n      swap3\n      swap2\n      pop\n      pop\n      jump\t// out\n        /* \"#utility.yul\":10231:10339   */\n    tag_262:\n        /* \"#utility.yul\":10308:10332   */\n      tag_415\n        /* \"#utility.yul\":10326:10331   */\n      dup2\n        /* \"#utility.yul\":10308:10332   */\n      tag_252\n      jump\t// in\n    tag_415:\n        /* \"#utility.yul\":10303:10306   */\n      dup3\n        /* \"#utility.yul\":10296:10333   */\n      mstore\n        /* \"#utility.yul\":10231:10339   */\n      pop\n      pop\n      jump\t// out\n        /* \"#utility.yul\":10345:10444   */\n    tag_263:\n        /* \"#utility.yul\":10416:10437   */\n      tag_417\n        /* \"#utility.yul\":10431:10436   */\n      dup2\n        /* \"#utility.yul\":10416:10437   */\n      tag_237\n      jump\t// in\n    tag_417:\n        /* \"#utility.yul\":10411:10414   */\n      dup3\n        /* \"#utility.yul\":10404:10438   */\n      mstore\n        /* \"#utility.yul\":10345:10444   */\n      pop\n      pop\n      jump\t// out\n        /* \"#utility.yul\":10520:11301   */\n    tag_264:\n        /* \"#utility.yul\":10633:10636   */\n      0x00\n        /* \"#utility.yul\":10669:10673   */\n      0x60\n        /* \"#utility.yul\":10664:10667   */\n      dup4\n        /* \"#utility.yul\":10660:10674   */\n      add\n        /* \"#utility.yul\":10760:10764   */\n      0x00\n        /* \"#utility.yul\":10753:10758   */\n      dup4\n        /* \"#utility.yul\":10749:10765   */\n      add\n        /* \"#utility.yul\":10743:10766   */\n      mload\n        /* \"#utility.yul\":10779:10842   */\n      tag_419\n        /* \"#utility.yul\":10836:10840   */\n      0x00\n        /* \"#utility.yul\":10831:10834   */\n      dup7\n        /* \"#utility.yul\":10827:10841   */\n      add\n        /* \"#utility.yul\":10813:10825   */\n      dup3\n        /* \"#utility.yul\":10779:10842   */\n      tag_262\n      jump\t// in\n    tag_419:\n        /* \"#utility.yul\":10684:10852   */\n      pop\n        /* \"#utility.yul\":10938:10942   */\n      0x20\n        /* \"#utility.yul\":10931:10936   */\n      dup4\n        /* \"#utility.yul\":10927:10943   */\n      add\n        /* \"#utility.yul\":10921:10944   */\n      mload\n        /* \"#utility.yul\":10991:10994   */\n      dup5\n        /* \"#utility.yul\":10985:10989   */\n      dup3\n        /* \"#utility.yul\":10981:10995   */\n      sub\n        /* \"#utility.yul\":10974:10978   */\n      0x20\n        /* \"#utility.yul\":10969:10972   */\n      dup7\n        /* \"#utility.yul\":10965:10979   */\n      add\n        /* \"#utility.yul\":10958:10996   */\n      mstore\n        /* \"#utility.yul\":11017:11090   */\n      tag_420\n        /* \"#utility.yul\":11085:11089   */\n      dup3\n        /* \"#utility.yul\":11071:11083   */\n      dup3\n        /* \"#utility.yul\":11017:11090   */\n      tag_258\n      jump\t// in\n    tag_420:\n        /* \"#utility.yul\":11009:11090   */\n      swap2\n      pop\n        /* \"#utility.yul\":10862:11101   */\n      pop\n        /* \"#utility.yul\":11188:11192   */\n      0x40\n        /* \"#utility.yul\":11181:11186   */\n      dup4\n        /* \"#utility.yul\":11177:11193   */\n      add\n        /* \"#utility.yul\":11171:11194   */\n      mload\n        /* \"#utility.yul\":11207:11264   */\n      tag_421\n        /* \"#utility.yul\":11258:11262   */\n      0x40\n        /* \"#utility.yul\":11253:11256   */\n      dup7\n        /* \"#utility.yul\":11249:11263   */\n      add\n        /* \"#utility.yul\":11235:11247   */\n      dup3\n        /* \"#utility.yul\":11207:11264   */\n      tag_263\n      jump\t// in\n    tag_421:\n        /* \"#utility.yul\":11111:11274   */\n      pop\n        /* \"#utility.yul\":11291:11295   */\n      dup1\n        /* \"#utility.yul\":11284:11295   */\n      swap2\n      pop\n        /* \"#utility.yul\":10638:11301   */\n      pop\n        /* \"#utility.yul\":10520:11301   */\n      swap3\n      swap2\n      pop\n      pop\n      jump\t// out\n        /* \"#utility.yul\":11307:11668   */\n    tag_56:\n        /* \"#utility.yul\":11444:11448   */\n      0x00\n        /* \"#utility.yul\":11482:11484   */\n      0x20\n        /* \"#utility.yul\":11471:11480   */\n      dup3\n        /* \"#utility.yul\":11467:11485   */\n      add\n        /* \"#utility.yul\":11459:11485   */\n      swap1\n      pop\n        /* \"#utility.yul\":11531:11540   */\n      dup2\n        /* \"#utility.yul\":11525:11529   */\n      dup2\n        /* \"#utility.yul\":11521:11541   */\n      sub\n        /* \"#utility.yul\":11517:11518   */\n      0x00\n        /* \"#utility.yul\":11506:11515   */\n      dup4\n        /* \"#utility.yul\":11502:11519   */\n      add\n        /* \"#utility.yul\":11495:11542   */\n      mstore\n        /* \"#utility.yul\":11559:11661   */\n      tag_423\n        /* \"#utility.yul\":11656:11660   */\n      dup2\n        /* \"#utility.yul\":11647:11653   */\n      dup5\n        /* \"#utility.yul\":11559:11661   */\n      tag_264\n      jump\t// in\n    tag_423:\n        /* \"#utility.yul\":11551:11661   */\n      swap1\n      pop\n        /* \"#utility.yul\":11307:11668   */\n      swap3\n      swap2\n      pop\n      pop\n      jump\t// out\n        /* \"#utility.yul\":11674:11790   */\n    tag_265:\n        /* \"#utility.yul\":11744:11765   */\n      tag_425\n        /* \"#utility.yul\":11759:11764   */\n      dup2\n        /* \"#utility.yul\":11744:11765   */\n      tag_237\n      jump\t// in\n    tag_425:\n        /* \"#utility.yul\":11737:11742   */\n      dup2\n        /* \"#utility.yul\":11734:11766   */\n      eq\n        /* \"#utility.yul\":11724:11784   */\n      tag_426\n      jumpi\n        /* \"#utility.yul\":11780:11781   */\n      0x00\n        /* \"#utility.yul\":11777:11778   */\n      dup1\n        /* \"#utility.yul\":11770:11782   */\n      revert\n        /* \"#utility.yul\":11724:11784   */\n    tag_426:\n        /* \"#utility.yul\":11674:11790   */\n      pop\n      jump\t// out\n        /* \"#utility.yul\":11796:11929   */\n    tag_266:\n        /* \"#utility.yul\":11839:11844   */\n      0x00\n        /* \"#utility.yul\":11877:11883   */\n      dup2\n        /* \"#utility.yul\":11864:11884   */\n      calldataload\n        /* \"#utility.yul\":11855:11884   */\n      swap1\n      pop\n        /* \"#utility.yul\":11893:11923   */\n      tag_428\n        /* \"#utility.yul\":11917:11922   */\n      dup2\n        /* \"#utility.yul\":11893:11923   */\n      tag_265\n      jump\t// in\n    tag_428:\n        /* \"#utility.yul\":11796:11929   */\n      swap3\n      swap2\n      pop\n      pop\n      jump\t// out\n        /* \"#utility.yul\":11935:12583   */\n    tag_59:\n        /* \"#utility.yul\":12010:12016   */\n      0x00\n        /* \"#utility.yul\":12018:12024   */\n      dup1\n        /* \"#utility.yul\":12067:12069   */\n      0x40\n        /* \"#utility.yul\":12055:12064   */\n      dup4\n        /* \"#utility.yul\":12046:12053   */\n      dup6\n        /* \"#utility.yul\":12042:12065   */\n      sub\n        /* \"#utility.yul\":12038:12070   */\n      slt\n        /* \"#utility.yul\":12035:12154   */\n      iszero\n      tag_430\n      jumpi\n        /* \"#utility.yul\":12073:12152   */\n      tag_431\n      tag_225\n      jump\t// in\n    tag_431:\n        /* \"#utility.yul\":12035:12154   */\n    tag_430:\n        /* \"#utility.yul\":12221:12222   */\n      0x00\n        /* \"#utility.yul\":12210:12219   */\n      dup4\n        /* \"#utility.yul\":12206:12223   */\n      add\n        /* \"#utility.yul\":12193:12224   */\n      calldataload\n        /* \"#utility.yul\":12251:12269   */\n      0xffffffffffffffff\n        /* \"#utility.yul\":12243:12249   */\n      dup2\n        /* \"#utility.yul\":12240:12270   */\n      gt\n        /* \"#utility.yul\":12237:12354   */\n      iszero\n      tag_432\n      jumpi\n        /* \"#utility.yul\":12273:12352   */\n      tag_433\n      tag_226\n      jump\t// in\n    tag_433:\n        /* \"#utility.yul\":12237:12354   */\n    tag_432:\n        /* \"#utility.yul\":12378:12441   */\n      tag_434\n        /* \"#utility.yul\":12433:12440   */\n      dup6\n        /* \"#utility.yul\":12424:12430   */\n      dup3\n        /* \"#utility.yul\":12413:12422   */\n      dup7\n        /* \"#utility.yul\":12409:12431   */\n      add\n        /* \"#utility.yul\":12378:12441   */\n      tag_236\n      jump\t// in\n    tag_434:\n        /* \"#utility.yul\":12368:12441   */\n      swap3\n      pop\n        /* \"#utility.yul\":12164:12451   */\n      pop\n        /* \"#utility.yul\":12490:12492   */\n      0x20\n        /* \"#utility.yul\":12516:12566   */\n      tag_435\n        /* \"#utility.yul\":12558:12565   */\n      dup6\n        /* \"#utility.yul\":12549:12555   */\n      dup3\n        /* \"#utility.yul\":12538:12547   */\n      dup7\n        /* \"#utility.yul\":12534:12556   */\n      add\n        /* \"#utility.yul\":12516:12566   */\n      tag_266\n      jump\t// in\n    tag_435:\n        /* \"#utility.yul\":12506:12566   */\n      swap2\n      pop\n        /* \"#utility.yul\":12461:12576   */\n      pop\n        /* \"#utility.yul\":11935:12583   */\n      swap3\n      pop\n      swap3\n      swap1\n      pop\n      jump\t// out\n        /* \"#utility.yul\":12589:12711   */\n    tag_267:\n        /* \"#utility.yul\":12662:12686   */\n      tag_437\n        /* \"#utility.yul\":12680:12685   */\n      dup2\n        /* \"#utility.yul\":12662:12686   */\n      tag_252\n      jump\t// in\n    tag_437:\n        /* \"#utility.yul\":12655:12660   */\n      dup2\n        /* \"#utility.yul\":12652:12687   */\n      eq\n        /* \"#utility.yul\":12642:12705   */\n      tag_438\n      jumpi\n        /* \"#utility.yul\":12701:12702   */\n      0x00\n        /* \"#utility.yul\":12698:12699   */\n      dup1\n        /* \"#utility.yul\":12691:12703   */\n      revert\n        /* \"#utility.yul\":12642:12705   */\n    tag_438:\n        /* \"#utility.yul\":12589:12711   */\n      pop\n      jump\t// out\n        /* \"#utility.yul\":12717:12856   */\n    tag_268:\n        /* \"#utility.yul\":12763:12768   */\n      0x00\n        /* \"#utility.yul\":12801:12807   */\n      dup2\n        /* \"#utility.yul\":12788:12808   */\n      calldataload\n        /* \"#utility.yul\":12779:12808   */\n      swap1\n      pop\n        /* \"#utility.yul\":12817:12850   */\n      tag_440\n        /* \"#utility.yul\":12844:12849   */\n      dup2\n        /* \"#utility.yul\":12817:12850   */\n      tag_267\n      jump\t// in\n    tag_440:\n        /* \"#utility.yul\":12717:12856   */\n      swap3\n      swap2\n      pop\n      pop\n      jump\t// out\n        /* \"#utility.yul\":12862:13191   */\n    tag_63:\n        /* \"#utility.yul\":12921:12927   */\n      0x00\n        /* \"#utility.yul\":12970:12972   */\n      0x20\n        /* \"#utility.yul\":12958:12967   */\n      dup3\n        /* \"#utility.yul\":12949:12956   */\n      dup5\n        /* \"#utility.yul\":12945:12968   */\n      sub\n        /* \"#utility.yul\":12941:12973   */\n      slt\n        /* \"#utility.yul\":12938:13057   */\n      iszero\n      tag_442\n      jumpi\n        /* \"#utility.yul\":12976:13055   */\n      tag_443\n      tag_225\n      jump\t// in\n    tag_443:\n        /* \"#utility.yul\":12938:13057   */\n    tag_442:\n        /* \"#utility.yul\":13096:13097   */\n      0x00\n        /* \"#utility.yul\":13121:13174   */\n      tag_444\n        /* \"#utility.yul\":13166:13173   */\n      dup5\n        /* \"#utility.yul\":13157:13163   */\n      dup3\n        /* \"#utility.yul\":13146:13155   */\n      dup6\n        /* \"#utility.yul\":13142:13164   */\n      add\n        /* \"#utility.yul\":13121:13174   */\n      tag_268\n      jump\t// in\n    tag_444:\n        /* \"#utility.yul\":13111:13174   */\n      swap2\n      pop\n        /* \"#utility.yul\":13067:13184   */\n      pop\n        /* \"#utility.yul\":12862:13191   */\n      swap3\n      swap2\n      pop\n      pop\n      jump\t// out\n        /* \"#utility.yul\":13197:13315   */\n    tag_269:\n        /* \"#utility.yul\":13284:13308   */\n      tag_446\n        /* \"#utility.yul\":13302:13307   */\n      dup2\n        /* \"#utility.yul\":13284:13308   */\n      tag_245\n      jump\t// in\n    tag_446:\n        /* \"#utility.yul\":13279:13282   */\n      dup3\n        /* \"#utility.yul\":13272:13309   */\n      mstore\n        /* \"#utility.yul\":13197:13315   */\n      pop\n      pop\n      jump\t// out\n        /* \"#utility.yul\":13321:13543   */\n    tag_68:\n        /* \"#utility.yul\":13414:13418   */\n      0x00\n        /* \"#utility.yul\":13452:13454   */\n      0x20\n        /* \"#utility.yul\":13441:13450   */\n      dup3\n        /* \"#utility.yul\":13437:13455   */\n      add\n        /* \"#utility.yul\":13429:13455   */\n      swap1\n      pop\n        /* \"#utility.yul\":13465:13536   */\n      tag_448\n        /* \"#utility.yul\":13533:13534   */\n      0x00\n        /* \"#utility.yul\":13522:13531   */\n      dup4\n        /* \"#utility.yul\":13518:13535   */\n      add\n        /* \"#utility.yul\":13509:13515   */\n      dup5\n        /* \"#utility.yul\":13465:13536   */\n      tag_269\n      jump\t// in\n    tag_448:\n        /* \"#utility.yul\":13321:13543   */\n      swap3\n      swap2\n      pop\n      pop\n      jump\t// out\n        /* \"#utility.yul\":13549:13729   */\n    tag_270:\n        /* \"#utility.yul\":13597:13674   */\n      0x4e487b7100000000000000000000000000000000000000000000000000000000\n        /* \"#utility.yul\":13594:13595   */\n      0x00\n        /* \"#utility.yul\":13587:13675   */\n      mstore\n        /* \"#utility.yul\":13694:13698   */\n      0x22\n        /* \"#utility.yul\":13691:13692   */\n      0x04\n        /* \"#utility.yul\":13684:13699   */\n      mstore\n        /* \"#utility.yul\":13718:13722   */\n      0x24\n        /* \"#utility.yul\":13715:13716   */\n      0x00\n        /* \"#utility.yul\":13708:13723   */\n      revert\n        /* \"#utility.yul\":13735:14055   */\n    tag_75:\n        /* \"#utility.yul\":13779:13785   */\n      0x00\n        /* \"#utility.yul\":13816:13817   */\n      0x02\n        /* \"#utility.yul\":13810:13814   */\n      dup3\n        /* \"#utility.yul\":13806:13818   */\n      div\n        /* \"#utility.yul\":13796:13818   */\n      swap1\n      pop\n        /* \"#utility.yul\":13863:13864   */\n      0x01\n        /* \"#utility.yul\":13857:13861   */\n      dup3\n        /* \"#utility.yul\":13853:13865   */\n      and\n        /* \"#utility.yul\":13884:13902   */\n      dup1\n        /* \"#utility.yul\":13874:13955   */\n      tag_451\n      jumpi\n        /* \"#utility.yul\":13940:13944   */\n      0x7f\n        /* \"#utility.yul\":13932:13938   */\n      dup3\n        /* \"#utility.yul\":13928:13945   */\n      and\n        /* \"#utility.yul\":13918:13945   */\n      swap2\n      pop\n        /* \"#utility.yul\":13874:13955   */\n    tag_451:\n        /* \"#utility.yul\":14002:14004   */\n      0x20\n        /* \"#utility.yul\":13994:14000   */\n      dup3\n        /* \"#utility.yul\":13991:14005   */\n      lt\n        /* \"#utility.yul\":13971:13989   */\n      dup2\n        /* \"#utility.yul\":13968:14006   */\n      sub\n        /* \"#utility.yul\":13965:14049   */\n      tag_452\n      jumpi\n        /* \"#utility.yul\":14021:14039   */\n      tag_453\n      tag_270\n      jump\t// in\n    tag_453:\n        /* \"#utility.yul\":13965:14049   */\n    tag_452:\n        /* \"#utility.yul\":13786:14055   */\n      pop\n        /* \"#utility.yul\":13735:14055   */\n      swap2\n      swap1\n      pop\n      jump\t// out\n        /* \"#utility.yul\":14061:14281   */\n    tag_271:\n        /* \"#utility.yul\":14201:14235   */\n      0x52656e6f756e63696e67206f776e6572736869702069732064697361626c6564\n        /* \"#utility.yul\":14197:14198   */\n      0x00\n        /* \"#utility.yul\":14189:14195   */\n      dup3\n        /* \"#utility.yul\":14185:14199   */\n      add\n        /* \"#utility.yul\":14178:14236   */\n      mstore\n        /* \"#utility.yul\":14270:14273   */\n      0x2e00000000000000000000000000000000000000000000000000000000000000\n        /* \"#utility.yul\":14265:14267   */\n      0x20\n        /* \"#utility.yul\":14257:14263   */\n      dup3\n        /* \"#utility.yul\":14253:14268   */\n      add\n        /* \"#utility.yul\":14246:14274   */\n      mstore\n        /* \"#utility.yul\":14061:14281   */\n      pop\n      jump\t// out\n        /* \"#utility.yul\":14287:14653   */\n    tag_272:\n        /* \"#utility.yul\":14429:14432   */\n      0x00\n        /* \"#utility.yul\":14450:14517   */\n      tag_456\n        /* \"#utility.yul\":14514:14516   */\n      0x21\n        /* \"#utility.yul\":14509:14512   */\n      dup4\n        /* \"#utility.yul\":14450:14517   */\n      tag_249\n      jump\t// in\n    tag_456:\n        /* \"#utility.yul\":14443:14517   */\n      swap2\n      pop\n        /* \"#utility.yul\":14526:14619   */\n      tag_457\n        /* \"#utility.yul\":14615:14618   */\n      dup3\n        /* \"#utility.yul\":14526:14619   */\n      tag_271\n      jump\t// in\n    tag_457:\n        /* \"#utility.yul\":14644:14646   */\n      0x40\n        /* \"#utility.yul\":14639:14642   */\n      dup3\n        /* \"#utility.yul\":14635:14647   */\n      add\n        /* \"#utility.yul\":14628:14647   */\n      swap1\n      pop\n        /* \"#utility.yul\":14287:14653   */\n      swap2\n      swap1\n      pop\n      jump\t// out\n        /* \"#utility.yul\":14659:15078   */\n    tag_85:\n        /* \"#utility.yul\":14825:14829   */\n      0x00\n        /* \"#utility.yul\":14863:14865   */\n      0x20\n        /* \"#utility.yul\":14852:14861   */\n      dup3\n        /* \"#utility.yul\":14848:14866   */\n      add\n        /* \"#utility.yul\":14840:14866   */\n      swap1\n      pop\n        /* \"#utility.yul\":14912:14921   */\n      dup2\n        /* \"#utility.yul\":14906:14910   */\n      dup2\n        /* \"#utility.yul\":14902:14922   */\n      sub\n        /* \"#utility.yul\":14898:14899   */\n      0x00\n        /* \"#utility.yul\":14887:14896   */\n      dup4\n        /* \"#utility.yul\":14883:14900   */\n      add\n        /* \"#utility.yul\":14876:14923   */\n      mstore\n        /* \"#utility.yul\":14940:15071   */\n      tag_459\n        /* \"#utility.yul\":15066:15070   */\n      dup2\n        /* \"#utility.yul\":14940:15071   */\n      tag_272\n      jump\t// in\n    tag_459:\n        /* \"#utility.yul\":14932:15071   */\n      swap1\n      pop\n        /* \"#utility.yul\":14659:15078   */\n      swap2\n      swap1\n      pop\n      jump\t// out\n        /* \"#utility.yul\":15084:15253   */\n    tag_273:\n        /* \"#utility.yul\":15224:15245   */\n      0x496e76616c6964206f7264657220696e64657800000000000000000000000000\n        /* \"#utility.yul\":15220:15221   */\n      0x00\n        /* \"#utility.yul\":15212:15218   */\n      dup3\n        /* \"#utility.yul\":15208:15222   */\n      add\n        /* \"#utility.yul\":15201:15246   */\n      mstore\n        /* \"#utility.yul\":15084:15253   */\n      pop\n      jump\t// out\n        /* \"#utility.yul\":15259:15625   */\n    tag_274:\n        /* \"#utility.yul\":15401:15404   */\n      0x00\n        /* \"#utility.yul\":15422:15489   */\n      tag_462\n        /* \"#utility.yul\":15486:15488   */\n      0x13\n        /* \"#utility.yul\":15481:15484   */\n      dup4\n        /* \"#utility.yul\":15422:15489   */\n      tag_249\n      jump\t// in\n    tag_462:\n        /* \"#utility.yul\":15415:15489   */\n      swap2\n      pop\n        /* \"#utility.yul\":15498:15591   */\n      tag_463\n        /* \"#utility.yul\":15587:15590   */\n      dup3\n        /* \"#utility.yul\":15498:15591   */\n      tag_273\n      jump\t// in\n    tag_463:\n        /* \"#utility.yul\":15616:15618   */\n      0x20\n        /* \"#utility.yul\":15611:15614   */\n      dup3\n        /* \"#utility.yul\":15607:15619   */\n      add\n        /* \"#utility.yul\":15600:15619   */\n      swap1\n      pop\n        /* \"#utility.yul\":15259:15625   */\n      swap2\n      swap1\n      pop\n      jump\t// out\n        /* \"#utility.yul\":15631:16050   */\n    tag_91:\n        /* \"#utility.yul\":15797:15801   */\n      0x00\n        /* \"#utility.yul\":15835:15837   */\n      0x20\n        /* \"#utility.yul\":15824:15833   */\n      dup3\n        /* \"#utility.yul\":15820:15838   */\n      add\n        /* \"#utility.yul\":15812:15838   */\n      swap1\n      pop\n        /* \"#utility.yul\":15884:15893   */\n      dup2\n        /* \"#utility.yul\":15878:15882   */\n      dup2\n        /* \"#utility.yul\":15874:15894   */\n      sub\n        /* \"#utility.yul\":15870:15871   */\n      0x00\n        /* \"#utility.yul\":15859:15868   */\n      dup4\n        /* \"#utility.yul\":15855:15872   */\n      add\n        /* \"#utility.yul\":15848:15895   */\n      mstore\n        /* \"#utility.yul\":15912:16043   */\n      tag_465\n        /* \"#utility.yul\":16038:16042   */\n      dup2\n        /* \"#utility.yul\":15912:16043   */\n      tag_274\n      jump\t// in\n    tag_465:\n        /* \"#utility.yul\":15904:16043   */\n      swap1\n      pop\n        /* \"#utility.yul\":15631:16050   */\n      swap2\n      swap1\n      pop\n      jump\t// out\n        /* \"#utility.yul\":16056:16236   */\n    tag_94:\n        /* \"#utility.yul\":16104:16181   */\n      0x4e487b7100000000000000000000000000000000000000000000000000000000\n        /* \"#utility.yul\":16101:16102   */\n      0x00\n        /* \"#utility.yul\":16094:16182   */\n      mstore\n        /* \"#utility.yul\":16201:16205   */\n      0x32\n        /* \"#utility.yul\":16198:16199   */\n      0x04\n        /* \"#utility.yul\":16191:16206   */\n      mstore\n        /* \"#utility.yul\":16225:16229   */\n      0x24\n        /* \"#utility.yul\":16222:16223   */\n      0x00\n        /* \"#utility.yul\":16215:16230   */\n      revert\n        /* \"#utility.yul\":16242:16415   */\n    tag_275:\n        /* \"#utility.yul\":16382:16407   */\n      0x4f7264657220616c72656164792066756c66696c6c6564000000000000000000\n        /* \"#utility.yul\":16378:16379   */\n      0x00\n        /* \"#utility.yul\":16370:16376   */\n      dup3\n        /* \"#utility.yul\":16366:16380   */\n      add\n        /* \"#utility.yul\":16359:16408   */\n      mstore\n        /* \"#utility.yul\":16242:16415   */\n      pop\n      jump\t// out\n        /* \"#utility.yul\":16421:16787   */\n    tag_276:\n        /* \"#utility.yul\":16563:16566   */\n      0x00\n        /* \"#utility.yul\":16584:16651   */\n      tag_469\n        /* \"#utility.yul\":16648:16650   */\n      0x17\n        /* \"#utility.yul\":16643:16646   */\n      dup4\n        /* \"#utility.yul\":16584:16651   */\n      tag_249\n      jump\t// in\n    tag_469:\n        /* \"#utility.yul\":16577:16651   */\n      swap2\n      pop\n        /* \"#utility.yul\":16660:16753   */\n      tag_470\n        /* \"#utility.yul\":16749:16752   */\n      dup3\n        /* \"#utility.yul\":16660:16753   */\n      tag_275\n      jump\t// in\n    tag_470:\n        /* \"#utility.yul\":16778:16780   */\n      0x20\n        /* \"#utility.yul\":16773:16776   */\n      dup3\n        /* \"#utility.yul\":16769:16781   */\n      add\n        /* \"#utility.yul\":16762:16781   */\n      swap1\n      pop\n        /* \"#utility.yul\":16421:16787   */\n      swap2\n      swap1\n      pop\n      jump\t// out\n        /* \"#utility.yul\":16793:17212   */\n    tag_98:\n        /* \"#utility.yul\":16959:16963   */\n      0x00\n        /* \"#utility.yul\":16997:16999   */\n      0x20\n        /* \"#utility.yul\":16986:16995   */\n      dup3\n        /* \"#utility.yul\":16982:17000   */\n      add\n        /* \"#utility.yul\":16974:17000   */\n      swap1\n      pop\n        /* \"#utility.yul\":17046:17055   */\n      dup2\n        /* \"#utility.yul\":17040:17044   */\n      dup2\n        /* \"#utility.yul\":17036:17056   */\n      sub\n        /* \"#utility.yul\":17032:17033   */\n      0x00\n        /* \"#utility.yul\":17021:17030   */\n      dup4\n        /* \"#utility.yul\":17017:17034   */\n      add\n        /* \"#utility.yul\":17010:17057   */\n      mstore\n        /* \"#utility.yul\":17074:17205   */\n      tag_472\n        /* \"#utility.yul\":17200:17204   */\n      dup2\n        /* \"#utility.yul\":17074:17205   */\n      tag_276\n      jump\t// in\n    tag_472:\n        /* \"#utility.yul\":17066:17205   */\n      swap1\n      pop\n        /* \"#utility.yul\":16793:17212   */\n      swap2\n      swap1\n      pop\n      jump\t// out\n        /* \"#utility.yul\":17218:17366   */\n    tag_277:\n        /* \"#utility.yul\":17320:17331   */\n      0x00\n        /* \"#utility.yul\":17357:17360   */\n      dup2\n        /* \"#utility.yul\":17342:17360   */\n      swap1\n      pop\n        /* \"#utility.yul\":17218:17366   */\n      swap3\n      swap2\n      pop\n      pop\n      jump\t// out\n        /* \"#utility.yul\":17372:17762   */\n    tag_278:\n        /* \"#utility.yul\":17478:17481   */\n      0x00\n        /* \"#utility.yul\":17506:17545   */\n      tag_475\n        /* \"#utility.yul\":17539:17544   */\n      dup3\n        /* \"#utility.yul\":17506:17545   */\n      tag_248\n      jump\t// in\n    tag_475:\n        /* \"#utility.yul\":17561:17650   */\n      tag_476\n        /* \"#utility.yul\":17643:17649   */\n      dup2\n        /* \"#utility.yul\":17638:17641   */\n      dup6\n        /* \"#utility.yul\":17561:17650   */\n      tag_277\n      jump\t// in\n    tag_476:\n        /* \"#utility.yul\":17554:17650   */\n      swap4\n      pop\n        /* \"#utility.yul\":17659:17724   */\n      tag_477\n        /* \"#utility.yul\":17717:17723   */\n      dup2\n        /* \"#utility.yul\":17712:17715   */\n      dup6\n        /* \"#utility.yul\":17705:17709   */\n      0x20\n        /* \"#utility.yul\":17698:17703   */\n      dup7\n        /* \"#utility.yul\":17694:17710   */\n      add\n        /* \"#utility.yul\":17659:17724   */\n      tag_250\n      jump\t// in\n    tag_477:\n        /* \"#utility.yul\":17749:17755   */\n      dup1\n        /* \"#utility.yul\":17744:17747   */\n      dup5\n        /* \"#utility.yul\":17740:17756   */\n      add\n        /* \"#utility.yul\":17733:17756   */\n      swap2\n      pop\n        /* \"#utility.yul\":17482:17762   */\n      pop\n        /* \"#utility.yul\":17372:17762   */\n      swap3\n      swap2\n      pop\n      pop\n      jump\t// out\n        /* \"#utility.yul\":17768:18043   */\n    tag_136:\n        /* \"#utility.yul\":17900:17903   */\n      0x00\n        /* \"#utility.yul\":17922:18017   */\n      tag_479\n        /* \"#utility.yul\":18013:18016   */\n      dup3\n        /* \"#utility.yul\":18004:18010   */\n      dup5\n        /* \"#utility.yul\":17922:18017   */\n      tag_278\n      jump\t// in\n    tag_479:\n        /* \"#utility.yul\":17915:18017   */\n      swap2\n      pop\n        /* \"#utility.yul\":18034:18037   */\n      dup2\n        /* \"#utility.yul\":18027:18037   */\n      swap1\n      pop\n        /* \"#utility.yul\":17768:18043   */\n      swap3\n      swap2\n      pop\n      pop\n      jump\t// out\n        /* \"#utility.yul\":18049:18190   */\n    tag_279:\n        /* \"#utility.yul\":18098:18102   */\n      0x00\n        /* \"#utility.yul\":18121:18124   */\n      dup2\n        /* \"#utility.yul\":18113:18124   */\n      swap1\n      pop\n        /* \"#utility.yul\":18144:18147   */\n      dup2\n        /* \"#utility.yul\":18141:18142   */\n      0x00\n        /* \"#utility.yul\":18134:18148   */\n      mstore\n        /* \"#utility.yul\":18178:18182   */\n      0x20\n        /* \"#utility.yul\":18175:18176   */\n      0x00\n        /* \"#utility.yul\":18165:18183   */\n      keccak256\n        /* \"#utility.yul\":18157:18183   */\n      swap1\n      pop\n        /* \"#utility.yul\":18049:18190   */\n      swap2\n      swap1\n      pop\n      jump\t// out\n        /* \"#utility.yul\":18220:19094   */\n    tag_280:\n        /* \"#utility.yul\":18323:18326   */\n      0x00\n        /* \"#utility.yul\":18360:18365   */\n      dup2\n        /* \"#utility.yul\":18354:18366   */\n      sload\n        /* \"#utility.yul\":18389:18425   */\n      tag_482\n        /* \"#utility.yul\":18415:18424   */\n      dup2\n        /* \"#utility.yul\":18389:18425   */\n      tag_75\n      jump\t// in\n    tag_482:\n        /* \"#utility.yul\":18441:18530   */\n      tag_483\n        /* \"#utility.yul\":18523:18529   */\n      dup2\n        /* \"#utility.yul\":18518:18521   */\n      dup7\n        /* \"#utility.yul\":18441:18530   */\n      tag_277\n      jump\t// in\n    tag_483:\n        /* \"#utility.yul\":18434:18530   */\n      swap5\n      pop\n        /* \"#utility.yul\":18561:18562   */\n      0x01\n        /* \"#utility.yul\":18550:18559   */\n      dup3\n        /* \"#utility.yul\":18546:18563   */\n      and\n        /* \"#utility.yul\":18577:18578   */\n      0x00\n        /* \"#utility.yul\":18572:18738   */\n      dup2\n      eq\n      tag_485\n      jumpi\n        /* \"#utility.yul\":18752:18753   */\n      0x01\n        /* \"#utility.yul\":18747:19088   */\n      dup2\n      eq\n      tag_486\n      jumpi\n        /* \"#utility.yul\":18539:19088   */\n      jump(tag_484)\n        /* \"#utility.yul\":18572:18738   */\n    tag_485:\n        /* \"#utility.yul\":18656:18660   */\n      0xff\n        /* \"#utility.yul\":18652:18661   */\n      not\n        /* \"#utility.yul\":18641:18650   */\n      dup4\n        /* \"#utility.yul\":18637:18662   */\n      and\n        /* \"#utility.yul\":18632:18635   */\n      dup7\n        /* \"#utility.yul\":18625:18663   */\n      mstore\n        /* \"#utility.yul\":18718:18724   */\n      dup2\n        /* \"#utility.yul\":18711:18725   */\n      iszero\n        /* \"#utility.yul\":18704:18726   */\n      iszero\n        /* \"#utility.yul\":18696:18702   */\n      dup3\n        /* \"#utility.yul\":18692:18727   */\n      mul\n        /* \"#utility.yul\":18687:18690   */\n      dup7\n        /* \"#utility.yul\":18683:18728   */\n      add\n        /* \"#utility.yul\":18676:18728   */\n      swap4\n      pop\n        /* \"#utility.yul\":18572:18738   */\n      jump(tag_484)\n        /* \"#utility.yul\":18747:19088   */\n    tag_486:\n        /* \"#utility.yul\":18814:18852   */\n      tag_487\n        /* \"#utility.yul\":18846:18851   */\n      dup6\n        /* \"#utility.yul\":18814:18852   */\n      tag_279\n      jump\t// in\n    tag_487:\n        /* \"#utility.yul\":18874:18875   */\n      0x00\n        /* \"#utility.yul\":18888:19042   */\n    tag_488:\n        /* \"#utility.yul\":18902:18908   */\n      dup4\n        /* \"#utility.yul\":18899:18900   */\n      dup2\n        /* \"#utility.yul\":18896:18909   */\n      lt\n        /* \"#utility.yul\":18888:19042   */\n      iszero\n      tag_490\n      jumpi\n        /* \"#utility.yul\":18976:18983   */\n      dup2\n        /* \"#utility.yul\":18970:18984   */\n      sload\n        /* \"#utility.yul\":18966:18967   */\n      dup2\n        /* \"#utility.yul\":18961:18964   */\n      dup10\n        /* \"#utility.yul\":18957:18968   */\n      add\n        /* \"#utility.yul\":18950:18985   */\n      mstore\n        /* \"#utility.yul\":19026:19027   */\n      0x01\n        /* \"#utility.yul\":19017:19024   */\n      dup3\n        /* \"#utility.yul\":19013:19028   */\n      add\n        /* \"#utility.yul\":19002:19028   */\n      swap2\n      pop\n        /* \"#utility.yul\":18924:18928   */\n      0x20\n        /* \"#utility.yul\":18921:18922   */\n      dup2\n        /* \"#utility.yul\":18917:18929   */\n      add\n        /* \"#utility.yul\":18912:18929   */\n      swap1\n      pop\n        /* \"#utility.yul\":18888:19042   */\n      jump(tag_488)\n    tag_490:\n        /* \"#utility.yul\":19071:19077   */\n      dup4\n        /* \"#utility.yul\":19066:19069   */\n      dup9\n        /* \"#utility.yul\":19062:19078   */\n      add\n        /* \"#utility.yul\":19055:19078   */\n      swap6\n      pop\n        /* \"#utility.yul\":18754:19088   */\n      pop\n      pop\n        /* \"#utility.yul\":18539:19088   */\n    tag_484:\n      pop\n        /* \"#utility.yul\":18327:19094   */\n      pop\n      pop\n        /* \"#utility.yul\":18220:19094   */\n      swap3\n      swap2\n      pop\n      pop\n      jump\t// out\n        /* \"#utility.yul\":19100:19369   */\n    tag_145:\n        /* \"#utility.yul\":19229:19232   */\n      0x00\n        /* \"#utility.yul\":19251:19343   */\n      tag_492\n        /* \"#utility.yul\":19339:19342   */\n      dup3\n        /* \"#utility.yul\":19330:19336   */\n      dup5\n        /* \"#utility.yul\":19251:19343   */\n      tag_280\n      jump\t// in\n    tag_492:\n        /* \"#utility.yul\":19244:19343   */\n      swap2\n      pop\n        /* \"#utility.yul\":19360:19363   */\n      dup2\n        /* \"#utility.yul\":19353:19363   */\n      swap1\n      pop\n        /* \"#utility.yul\":19100:19369   */\n      swap3\n      swap2\n      pop\n      pop\n      jump\t// out\n        /* \"#utility.yul\":19375:19468   */\n    tag_281:\n        /* \"#utility.yul\":19412:19418   */\n      0x00\n        /* \"#utility.yul\":19459:19461   */\n      0x20\n        /* \"#utility.yul\":19454:19456   */\n      0x1f\n        /* \"#utility.yul\":19447:19452   */\n      dup4\n        /* \"#utility.yul\":19443:19457   */\n      add\n        /* \"#utility.yul\":19439:19462   */\n      div\n        /* \"#utility.yul\":19429:19462   */\n      swap1\n      pop\n        /* \"#utility.yul\":19375:19468   */\n      swap2\n      swap1\n      pop\n      jump\t// out\n        /* \"#utility.yul\":19474:19581   */\n    tag_282:\n        /* \"#utility.yul\":19518:19526   */\n      0x00\n        /* \"#utility.yul\":19568:19573   */\n      dup3\n        /* \"#utility.yul\":19562:19566   */\n      dup3\n        /* \"#utility.yul\":19558:19574   */\n      shl\n        /* \"#utility.yul\":19537:19574   */\n      swap1\n      pop\n        /* \"#utility.yul\":19474:19581   */\n      swap3\n      swap2\n      pop\n      pop\n      jump\t// out\n        /* \"#utility.yul\":19587:19980   */\n    tag_283:\n        /* \"#utility.yul\":19656:19662   */\n      0x00\n        /* \"#utility.yul\":19706:19707   */\n      0x08\n        /* \"#utility.yul\":19694:19704   */\n      dup4\n        /* \"#utility.yul\":19690:19708   */\n      mul\n        /* \"#utility.yul\":19729:19826   */\n      tag_496\n        /* \"#utility.yul\":19759:19825   */\n      0xffffffffffffffffffffffffffffffffffffffffffffffffffffffffffffffff\n        /* \"#utility.yul\":19748:19757   */\n      dup3\n        /* \"#utility.yul\":19729:19826   */\n      tag_282\n      jump\t// in\n    tag_496:\n        /* \"#utility.yul\":19847:19886   */\n      tag_497\n        /* \"#utility.yul\":19877:19885   */\n      dup7\n        /* \"#utility.yul\":19866:19875   */\n      dup4\n        /* \"#utility.yul\":19847:19886   */\n      tag_282\n      jump\t// in\n    tag_497:\n        /* \"#utility.yul\":19835:19886   */\n      swap6\n      pop\n        /* \"#utility.yul\":19919:19923   */\n      dup1\n        /* \"#utility.yul\":19915:19924   */\n      not\n        /* \"#utility.yul\":19908:19913   */\n      dup5\n        /* \"#utility.yul\":19904:19925   */\n      and\n        /* \"#utility.yul\":19895:19925   */\n      swap4\n      pop\n        /* \"#utility.yul\":19968:19972   */\n      dup1\n        /* \"#utility.yul\":19958:19966   */\n      dup7\n        /* \"#utility.yul\":19954:19973   */\n      and\n        /* \"#utility.yul\":19947:19952   */\n      dup5\n        /* \"#utility.yul\":19944:19974   */\n      or\n        /* \"#utility.yul\":19934:19974   */\n      swap3\n      pop\n        /* \"#utility.yul\":19663:19980   */\n      pop\n      pop\n        /* \"#utility.yul\":19587:19980   */\n      swap4\n      swap3\n      pop\n      pop\n      pop\n      jump\t// out\n        /* \"#utility.yul\":19986:20128   */\n    tag_284:\n        /* \"#utility.yul\":20036:20045   */\n      0x00\n        /* \"#utility.yul\":20069:20122   */\n      tag_499\n        /* \"#utility.yul\":20087:20121   */\n      tag_500\n        /* \"#utility.yul\":20096:20120   */\n      tag_501\n        /* \"#utility.yul\":20114:20119   */\n      dup5\n        /* \"#utility.yul\":20096:20120   */\n      tag_245\n      jump\t// in\n    tag_501:\n        /* \"#utility.yul\":20087:20121   */\n      tag_240\n      jump\t// in\n    tag_500:\n        /* \"#utility.yul\":20069:20122   */\n      tag_245\n      jump\t// in\n    tag_499:\n        /* \"#utility.yul\":20056:20122   */\n      swap1\n      pop\n        /* \"#utility.yul\":19986:20128   */\n      swap2\n      swap1\n      pop\n      jump\t// out\n        /* \"#utility.yul\":20134:20209   */\n    tag_285:\n        /* \"#utility.yul\":20177:20180   */\n      0x00\n        /* \"#utility.yul\":20198:20203   */\n      dup2\n        /* \"#utility.yul\":20191:20203   */\n      swap1\n      pop\n        /* \"#utility.yul\":20134:20209   */\n      swap2\n      swap1\n      pop\n      jump\t// out\n        /* \"#utility.yul\":20215:20484   */\n    tag_286:\n        /* \"#utility.yul\":20325:20364   */\n      tag_504\n        /* \"#utility.yul\":20356:20363   */\n      dup4\n        /* \"#utility.yul\":20325:20364   */\n      tag_284\n      jump\t// in\n    tag_504:\n        /* \"#utility.yul\":20386:20477   */\n      tag_505\n        /* \"#utility.yul\":20435:20476   */\n      tag_506\n        /* \"#utility.yul\":20459:20475   */\n      dup3\n        /* \"#utility.yul\":20435:20476   */\n      tag_285\n      jump\t// in\n    tag_506:\n        /* \"#utility.yul\":20427:20433   */\n      dup5\n        /* \"#utility.yul\":20420:20424   */\n      dup5\n        /* \"#utility.yul\":20414:20425   */\n      sload\n        /* \"#utility.yul\":20386:20477   */\n      tag_283\n      jump\t// in\n    tag_505:\n        /* \"#utility.yul\":20380:20384   */\n      dup3\n        /* \"#utility.yul\":20373:20478   */\n      sstore\n        /* \"#utility.yul\":20291:20484   */\n      pop\n        /* \"#utility.yul\":20215:20484   */\n      pop\n      pop\n      pop\n      jump\t// out\n        /* \"#utility.yul\":20490:20563   */\n    tag_287:\n        /* \"#utility.yul\":20535:20538   */\n      0x00\n        /* \"#utility.yul\":20490:20563   */\n      swap1\n      jump\t// out\n        /* \"#utility.yul\":20569:20758   */\n    tag_288:\n        /* \"#utility.yul\":20646:20678   */\n      tag_509\n      tag_287\n      jump\t// in\n    tag_509:\n        /* \"#utility.yul\":20687:20752   */\n      tag_510\n        /* \"#utility.yul\":20745:20751   */\n      dup2\n        /* \"#utility.yul\":20737:20743   */\n      dup5\n        /* \"#utility.yul\":20731:20735   */\n      dup5\n        /* \"#utility.yul\":20687:20752   */\n      tag_286\n      jump\t// in\n    tag_510:\n        /* \"#utility.yul\":20622:20758   */\n      pop\n        /* \"#utility.yul\":20569:20758   */\n      pop\n      pop\n      jump\t// out\n        /* \"#utility.yul\":20764:20950   */\n    tag_289:\n        /* \"#utility.yul\":20824:20944   */\n    tag_512:\n        /* \"#utility.yul\":20841:20844   */\n      dup2\n        /* \"#utility.yul\":20834:20839   */\n      dup2\n        /* \"#utility.yul\":20831:20845   */\n      lt\n        /* \"#utility.yul\":20824:20944   */\n      iszero\n      tag_514\n      jumpi\n        /* \"#utility.yul\":20895:20934   */\n      tag_515\n        /* \"#utility.yul\":20932:20933   */\n      0x00\n        /* \"#utility.yul\":20925:20930   */\n      dup3\n        /* \"#utility.yul\":20895:20934   */\n      tag_288\n      jump\t// in\n    tag_515:\n        /* \"#utility.yul\":20868:20869   */\n      0x01\n        /* \"#utility.yul\":20861:20866   */\n      dup2\n        /* \"#utility.yul\":20857:20870   */\n      add\n        /* \"#utility.yul\":20848:20870   */\n      swap1\n      pop\n        /* \"#utility.yul\":20824:20944   */\n      jump(tag_512)\n    tag_514:\n        /* \"#utility.yul\":20764:20950   */\n      pop\n      pop\n      jump\t// out\n        /* \"#utility.yul\":20956:21499   */\n    tag_290:\n        /* \"#utility.yul\":21057:21059   */\n      0x1f\n        /* \"#utility.yul\":21052:21055   */\n      dup3\n        /* \"#utility.yul\":21049:21060   */\n      gt\n        /* \"#utility.yul\":21046:21492   */\n      iszero\n      tag_517\n      jumpi\n        /* \"#utility.yul\":21091:21129   */\n      tag_518\n        /* \"#utility.yul\":21123:21128   */\n      dup2\n        /* \"#utility.yul\":21091:21129   */\n      tag_279\n      jump\t// in\n    tag_518:\n        /* \"#utility.yul\":21175:21204   */\n      tag_519\n        /* \"#utility.yul\":21193:21203   */\n      dup5\n        /* \"#utility.yul\":21175:21204   */\n      tag_281\n      jump\t// in\n    tag_519:\n        /* \"#utility.yul\":21165:21173   */\n      dup2\n        /* \"#utility.yul\":21161:21205   */\n      add\n        /* \"#utility.yul\":21358:21360   */\n      0x20\n        /* \"#utility.yul\":21346:21356   */\n      dup6\n        /* \"#utility.yul\":21343:21361   */\n      lt\n        /* \"#utility.yul\":21340:21389   */\n      iszero\n      tag_520\n      jumpi\n        /* \"#utility.yul\":21379:21387   */\n      dup2\n        /* \"#utility.yul\":21364:21387   */\n      swap1\n      pop\n        /* \"#utility.yul\":21340:21389   */\n    tag_520:\n        /* \"#utility.yul\":21402:21482   */\n      tag_521\n        /* \"#utility.yul\":21458:21480   */\n      tag_522\n        /* \"#utility.yul\":21476:21479   */\n      dup6\n        /* \"#utility.yul\":21458:21480   */\n      tag_281\n      jump\t// in\n    tag_522:\n        /* \"#utility.yul\":21448:21456   */\n      dup4\n        /* \"#utility.yul\":21444:21481   */\n      add\n        /* \"#utility.yul\":21431:21442   */\n      dup3\n        /* \"#utility.yul\":21402:21482   */\n      tag_289\n      jump\t// in\n    tag_521:\n        /* \"#utility.yul\":21061:21492   */\n      pop\n      pop\n        /* \"#utility.yul\":21046:21492   */\n    tag_517:\n        /* \"#utility.yul\":20956:21499   */\n      pop\n      pop\n      pop\n      jump\t// out\n        /* \"#utility.yul\":21505:21622   */\n    tag_291:\n        /* \"#utility.yul\":21559:21567   */\n      0x00\n        /* \"#utility.yul\":21609:21614   */\n      dup3\n        /* \"#utility.yul\":21603:21607   */\n      dup3\n        /* \"#utility.yul\":21599:21615   */\n      shr\n        /* \"#utility.yul\":21578:21615   */\n      swap1\n      pop\n        /* \"#utility.yul\":21505:21622   */\n      swap3\n      swap2\n      pop\n      pop\n      jump\t// out\n        /* \"#utility.yul\":21628:21797   */\n    tag_292:\n        /* \"#utility.yul\":21672:21678   */\n      0x00\n        /* \"#utility.yul\":21705:21756   */\n      tag_525\n        /* \"#utility.yul\":21753:21754   */\n      0x00\n        /* \"#utility.yul\":21749:21755   */\n      not\n        /* \"#utility.yul\":21741:21746   */\n      dup5\n        /* \"#utility.yul\":21738:21739   */\n      0x08\n        /* \"#utility.yul\":21734:21747   */\n      mul\n        /* \"#utility.yul\":21705:21756   */\n      tag_291\n      jump\t// in\n    tag_525:\n        /* \"#utility.yul\":21701:21757   */\n      not\n        /* \"#utility.yul\":21786:21790   */\n      dup1\n        /* \"#utility.yul\":21780:21784   */\n      dup4\n        /* \"#utility.yul\":21776:21791   */\n      and\n        /* \"#utility.yul\":21766:21791   */\n      swap2\n      pop\n        /* \"#utility.yul\":21679:21797   */\n      pop\n        /* \"#utility.yul\":21628:21797   */\n      swap3\n      swap2\n      pop\n      pop\n      jump\t// out\n        /* \"#utility.yul\":21802:22097   */\n    tag_293:\n        /* \"#utility.yul\":21878:21882   */\n      0x00\n        /* \"#utility.yul\":22024:22053   */\n      tag_527\n        /* \"#utility.yul\":22049:22052   */\n      dup4\n        /* \"#utility.yul\":22043:22047   */\n      dup4\n        /* \"#utility.yul\":22024:22053   */\n      tag_292\n      jump\t// in\n    tag_527:\n        /* \"#utility.yul\":22016:22053   */\n      swap2\n      pop\n        /* \"#utility.yul\":22086:22089   */\n      dup3\n        /* \"#utility.yul\":22083:22084   */\n      0x02\n        /* \"#utility.yul\":22079:22090   */\n      mul\n        /* \"#utility.yul\":22073:22077   */\n      dup3\n        /* \"#utility.yul\":22070:22091   */\n      or\n        /* \"#utility.yul\":22062:22091   */\n      swap1\n      pop\n        /* \"#utility.yul\":21802:22097   */\n      swap3\n      swap2\n      pop\n      pop\n      jump\t// out\n        /* \"#utility.yul\":22102:23497   */\n    tag_151:\n        /* \"#utility.yul\":22219:22256   */\n      tag_529\n        /* \"#utility.yul\":22252:22255   */\n      dup3\n        /* \"#utility.yul\":22219:22256   */\n      tag_248\n      jump\t// in\n    tag_529:\n        /* \"#utility.yul\":22321:22339   */\n      0xffffffffffffffff\n        /* \"#utility.yul\":22313:22319   */\n      dup2\n        /* \"#utility.yul\":22310:22340   */\n      gt\n        /* \"#utility.yul\":22307:22363   */\n      iszero\n      tag_530\n      jumpi\n        /* \"#utility.yul\":22343:22361   */\n      tag_531\n      tag_230\n      jump\t// in\n    tag_531:\n        /* \"#utility.yul\":22307:22363   */\n    tag_530:\n        /* \"#utility.yul\":22387:22425   */\n      tag_532\n        /* \"#utility.yul\":22419:22423   */\n      dup3\n        /* \"#utility.yul\":22413:22424   */\n      sload\n        /* \"#utility.yul\":22387:22425   */\n      tag_75\n      jump\t// in\n    tag_532:\n        /* \"#utility.yul\":22472:22539   */\n      tag_533\n        /* \"#utility.yul\":22532:22538   */\n      dup3\n        /* \"#utility.yul\":22524:22530   */\n      dup3\n        /* \"#utility.yul\":22518:22522   */\n      dup6\n        /* \"#utility.yul\":22472:22539   */\n      tag_290\n      jump\t// in\n    tag_533:\n        /* \"#utility.yul\":22566:22567   */\n      0x00\n        /* \"#utility.yul\":22590:22594   */\n      0x20\n        /* \"#utility.yul\":22577:22594   */\n      swap1\n      pop\n        /* \"#utility.yul\":22622:22624   */\n      0x1f\n        /* \"#utility.yul\":22614:22620   */\n      dup4\n        /* \"#utility.yul\":22611:22625   */\n      gt\n        /* \"#utility.yul\":22639:22640   */\n      0x01\n        /* \"#utility.yul\":22634:23252   */\n      dup2\n      eq\n      tag_535\n      jumpi\n        /* \"#utility.yul\":23296:23297   */\n      0x00\n        /* \"#utility.yul\":23313:23319   */\n      dup5\n        /* \"#utility.yul\":23310:23387   */\n      iszero\n      tag_536\n      jumpi\n        /* \"#utility.yul\":23362:23371   */\n      dup3\n        /* \"#utility.yul\":23357:23360   */\n      dup8\n        /* \"#utility.yul\":23353:23372   */\n      add\n        /* \"#utility.yul\":23347:23373   */\n      mload\n        /* \"#utility.yul\":23338:23373   */\n      swap1\n      pop\n        /* \"#utility.yul\":23310:23387   */\n    tag_536:\n        /* \"#utility.yul\":23413:23480   */\n      tag_537\n        /* \"#utility.yul\":23473:23479   */\n      dup6\n        /* \"#utility.yul\":23466:23471   */\n      dup3\n        /* \"#utility.yul\":23413:23480   */\n      tag_293\n      jump\t// in\n    tag_537:\n        /* \"#utility.yul\":23407:23411   */\n      dup7\n        /* \"#utility.yul\":23400:23481   */\n      sstore\n        /* \"#utility.yul\":23269:23491   */\n      pop\n        /* \"#utility.yul\":22604:23491   */\n      jump(tag_534)\n        /* \"#utility.yul\":22634:23252   */\n    tag_535:\n        /* \"#utility.yul\":22686:22690   */\n      0x1f\n        /* \"#utility.yul\":22682:22691   */\n      not\n        /* \"#utility.yul\":22674:22680   */\n      dup5\n        /* \"#utility.yul\":22670:22692   */\n      and\n        /* \"#utility.yul\":22720:22757   */\n      tag_538\n        /* \"#utility.yul\":22752:22756   */\n      dup7\n        /* \"#utility.yul\":22720:22757   */\n      tag_279\n      jump\t// in\n    tag_538:\n        /* \"#utility.yul\":22779:22780   */\n      0x00\n        /* \"#utility.yul\":22793:23001   */\n    tag_539:\n        /* \"#utility.yul\":22807:22814   */\n      dup3\n        /* \"#utility.yul\":22804:22805   */\n      dup2\n        /* \"#utility.yul\":22801:22815   */\n      lt\n        /* \"#utility.yul\":22793:23001   */\n      iszero\n      tag_541\n      jumpi\n        /* \"#utility.yul\":22886:22895   */\n      dup5\n        /* \"#utility.yul\":22881:22884   */\n      dup10\n        /* \"#utility.yul\":22877:22896   */\n      add\n        /* \"#utility.yul\":22871:22897   */\n      mload\n        /* \"#utility.yul\":22863:22869   */\n      dup3\n        /* \"#utility.yul\":22856:22898   */\n      sstore\n        /* \"#utility.yul\":22937:22938   */\n      0x01\n        /* \"#utility.yul\":22929:22935   */\n      dup3\n        /* \"#utility.yul\":22925:22939   */\n      add\n        /* \"#utility.yul\":22915:22939   */\n      swap2\n      pop\n        /* \"#utility.yul\":22984:22986   */\n      0x20\n        /* \"#utility.yul\":22973:22982   */\n      dup6\n        /* \"#utility.yul\":22969:22987   */\n      add\n        /* \"#utility.yul\":22956:22987   */\n      swap5\n      pop\n        /* \"#utility.yul\":22830:22834   */\n      0x20\n        /* \"#utility.yul\":22827:22828   */\n      dup2\n        /* \"#utility.yul\":22823:22835   */\n      add\n        /* \"#utility.yul\":22818:22835   */\n      swap1\n      pop\n        /* \"#utility.yul\":22793:23001   */\n      jump(tag_539)\n    tag_541:\n        /* \"#utility.yul\":23029:23035   */\n      dup7\n        /* \"#utility.yul\":23020:23027   */\n      dup4\n        /* \"#utility.yul\":23017:23036   */\n      lt\n        /* \"#utility.yul\":23014:23193   */\n      iszero\n      tag_542\n      jumpi\n        /* \"#utility.yul\":23087:23096   */\n      dup5\n        /* \"#utility.yul\":23082:23085   */\n      dup10\n        /* \"#utility.yul\":23078:23097   */\n      add\n        /* \"#utility.yul\":23072:23098   */\n      mload\n        /* \"#utility.yul\":23130:23178   */\n      tag_543\n        /* \"#utility.yul\":23172:23176   */\n      0x1f\n        /* \"#utility.yul\":23164:23170   */\n      dup10\n        /* \"#utility.yul\":23160:23177   */\n      and\n        /* \"#utility.yul\":23149:23158   */\n      dup3\n        /* \"#utility.yul\":23130:23178   */\n      tag_292\n      jump\t// in\n    tag_543:\n        /* \"#utility.yul\":23122:23128   */\n      dup4\n        /* \"#utility.yul\":23115:23179   */\n      sstore\n        /* \"#utility.yul\":23037:23193   */\n      pop\n        /* \"#utility.yul\":23014:23193   */\n    tag_542:\n        /* \"#utility.yul\":23239:23240   */\n      0x01\n        /* \"#utility.yul\":23235:23236   */\n      0x02\n        /* \"#utility.yul\":23227:23233   */\n      dup9\n        /* \"#utility.yul\":23223:23237   */\n      mul\n        /* \"#utility.yul\":23219:23241   */\n      add\n        /* \"#utility.yul\":23213:23217   */\n      dup9\n        /* \"#utility.yul\":23206:23242   */\n      sstore\n        /* \"#utility.yul\":22641:23252   */\n      pop\n      pop\n      pop\n        /* \"#utility.yul\":22604:23491   */\n    tag_534:\n      pop\n        /* \"#utility.yul\":22194:23497   */\n      pop\n      pop\n      pop\n        /* \"#utility.yul\":22102:23497   */\n      pop\n      pop\n      jump\t// out\n        /* \"#utility.yul\":23503:23683   */\n    tag_294:\n        /* \"#utility.yul\":23551:23628   */\n      0x4e487b7100000000000000000000000000000000000000000000000000000000\n        /* \"#utility.yul\":23548:23549   */\n      0x00\n        /* \"#utility.yul\":23541:23629   */\n      mstore\n        /* \"#utility.yul\":23648:23652   */\n      0x11\n        /* \"#utility.yul\":23645:23646   */\n      0x04\n        /* \"#utility.yul\":23638:23653   */\n      mstore\n        /* \"#utility.yul\":23672:23676   */\n      0x24\n        /* \"#utility.yul\":23669:23670   */\n      0x00\n        /* \"#utility.yul\":23662:23677   */\n      revert\n        /* \"#utility.yul\":23689:23883   */\n    tag_165:\n        /* \"#utility.yul\":23729:23733   */\n      0x00\n        /* \"#utility.yul\":23749:23769   */\n      tag_546\n        /* \"#utility.yul\":23767:23768   */\n      dup3\n        /* \"#utility.yul\":23749:23769   */\n      tag_245\n      jump\t// in\n    tag_546:\n        /* \"#utility.yul\":23744:23769   */\n      swap2\n      pop\n        /* \"#utility.yul\":23783:23803   */\n      tag_547\n        /* \"#utility.yul\":23801:23802   */\n      dup4\n        /* \"#utility.yul\":23783:23803   */\n      tag_245\n      jump\t// in\n    tag_547:\n        /* \"#utility.yul\":23778:23803   */\n      swap3\n      pop\n        /* \"#utility.yul\":23827:23828   */\n      dup3\n        /* \"#utility.yul\":23824:23825   */\n      dup3\n        /* \"#utility.yul\":23820:23829   */\n      sub\n        /* \"#utility.yul\":23812:23829   */\n      swap1\n      pop\n        /* \"#utility.yul\":23851:23852   */\n      dup2\n        /* \"#utility.yul\":23845:23849   */\n      dup2\n        /* \"#utility.yul\":23842:23853   */\n      gt\n        /* \"#utility.yul\":23839:23876   */\n      iszero\n      tag_548\n      jumpi\n        /* \"#utility.yul\":23856:23874   */\n      tag_549\n      tag_294\n      jump\t// in\n    tag_549:\n        /* \"#utility.yul\":23839:23876   */\n    tag_548:\n        /* \"#utility.yul\":23689:23883   */\n      swap3\n      swap2\n      pop\n      pop\n      jump\t// out\n        /* \"#utility.yul\":23889:24042   */\n    tag_295:\n        /* \"#utility.yul\":23942:23948   */\n      0x00\n        /* \"#utility.yul\":23976:23981   */\n      dup2\n        /* \"#utility.yul\":23970:23982   */\n      sload\n        /* \"#utility.yul\":23960:23982   */\n      swap1\n      pop\n        /* \"#utility.yul\":24002:24035   */\n      tag_551\n        /* \"#utility.yul\":24028:24034   */\n      dup2\n        /* \"#utility.yul\":24002:24035   */\n      tag_75\n      jump\t// in\n    tag_551:\n        /* \"#utility.yul\":23992:24035   */\n      swap1\n      pop\n        /* \"#utility.yul\":23889:24042   */\n      swap2\n      swap1\n      pop\n      jump\t// out\n        /* \"#utility.yul\":24048:24193   */\n    tag_296:\n        /* \"#utility.yul\":24101:24105   */\n      0x00\n        /* \"#utility.yul\":24124:24127   */\n      dup2\n        /* \"#utility.yul\":24116:24127   */\n      swap1\n      pop\n        /* \"#utility.yul\":24147:24150   */\n      dup2\n        /* \"#utility.yul\":24144:24145   */\n      0x00\n        /* \"#utility.yul\":24137:24151   */\n      mstore\n        /* \"#utility.yul\":24181:24185   */\n      0x20\n        /* \"#utility.yul\":24178:24179   */\n      0x00\n        /* \"#utility.yul\":24168:24186   */\n      keccak256\n        /* \"#utility.yul\":24160:24186   */\n      swap1\n      pop\n        /* \"#utility.yul\":24048:24193   */\n      swap2\n      swap1\n      pop\n      jump\t// out\n        /* \"#utility.yul\":24199:25662   */\n    tag_173:\n        /* \"#utility.yul\":24314:24317   */\n      dup2\n        /* \"#utility.yul\":24308:24312   */\n      dup2\n        /* \"#utility.yul\":24305:24318   */\n      sub\n        /* \"#utility.yul\":24302:24328   */\n      tag_554\n      jumpi\n        /* \"#utility.yul\":24321:24326   */\n      pop\n      pop\n      jump(tag_553)\n        /* \"#utility.yul\":24302:24328   */\n    tag_554:\n        /* \"#utility.yul\":24352:24390   */\n      tag_555\n        /* \"#utility.yul\":24386:24389   */\n      dup3\n        /* \"#utility.yul\":24352:24390   */\n      tag_295\n      jump\t// in\n    tag_555:\n        /* \"#utility.yul\":24455:24473   */\n      0xffffffffffffffff\n        /* \"#utility.yul\":24447:24453   */\n      dup2\n        /* \"#utility.yul\":24444:24474   */\n      gt\n        /* \"#utility.yul\":24441:24497   */\n      iszero\n      tag_556\n      jumpi\n        /* \"#utility.yul\":24477:24495   */\n      tag_557\n      tag_230\n      jump\t// in\n    tag_557:\n        /* \"#utility.yul\":24441:24497   */\n    tag_556:\n        /* \"#utility.yul\":24521:24559   */\n      tag_558\n        /* \"#utility.yul\":24553:24557   */\n      dup3\n        /* \"#utility.yul\":24547:24558   */\n      sload\n        /* \"#utility.yul\":24521:24559   */\n      tag_75\n      jump\t// in\n    tag_558:\n        /* \"#utility.yul\":24606:24673   */\n      tag_559\n        /* \"#utility.yul\":24666:24672   */\n      dup3\n        /* \"#utility.yul\":24658:24664   */\n      dup3\n        /* \"#utility.yul\":24652:24656   */\n      dup6\n        /* \"#utility.yul\":24606:24673   */\n      tag_290\n      jump\t// in\n    tag_559:\n        /* \"#utility.yul\":24700:24701   */\n      0x00\n        /* \"#utility.yul\":24729:24731   */\n      0x1f\n        /* \"#utility.yul\":24721:24727   */\n      dup4\n        /* \"#utility.yul\":24718:24732   */\n      gt\n        /* \"#utility.yul\":24746:24747   */\n      0x01\n        /* \"#utility.yul\":24741:25417   */\n      dup2\n      eq\n      tag_561\n      jumpi\n        /* \"#utility.yul\":25461:25462   */\n      0x00\n        /* \"#utility.yul\":25478:25484   */\n      dup5\n        /* \"#utility.yul\":25475:25552   */\n      iszero\n      tag_562\n      jumpi\n        /* \"#utility.yul\":25527:25536   */\n      dup3\n        /* \"#utility.yul\":25522:25525   */\n      dup8\n        /* \"#utility.yul\":25518:25537   */\n      add\n        /* \"#utility.yul\":25512:25538   */\n      sload\n        /* \"#utility.yul\":25503:25538   */\n      swap1\n      pop\n        /* \"#utility.yul\":25475:25552   */\n    tag_562:\n        /* \"#utility.yul\":25578:25645   */\n      tag_563\n        /* \"#utility.yul\":25638:25644   */\n      dup6\n        /* \"#utility.yul\":25631:25636   */\n      dup3\n        /* \"#utility.yul\":25578:25645   */\n      tag_293\n      jump\t// in\n    tag_563:\n        /* \"#utility.yul\":25572:25576   */\n      dup7\n        /* \"#utility.yul\":25565:25646   */\n      sstore\n        /* \"#utility.yul\":25434:25656   */\n      pop\n        /* \"#utility.yul\":24711:25656   */\n      jump(tag_560)\n        /* \"#utility.yul\":24741:25417   */\n    tag_561:\n        /* \"#utility.yul\":24793:24797   */\n      0x1f\n        /* \"#utility.yul\":24789:24798   */\n      not\n        /* \"#utility.yul\":24781:24787   */\n      dup5\n        /* \"#utility.yul\":24777:24799   */\n      and\n        /* \"#utility.yul\":24819:24859   */\n      tag_564\n        /* \"#utility.yul\":24855:24858   */\n      dup8\n        /* \"#utility.yul\":24819:24859   */\n      tag_296\n      jump\t// in\n    tag_564:\n        /* \"#utility.yul\":24812:24859   */\n      swap7\n      pop\n        /* \"#utility.yul\":24886:24923   */\n      tag_565\n        /* \"#utility.yul\":24918:24922   */\n      dup7\n        /* \"#utility.yul\":24886:24923   */\n      tag_279\n      jump\t// in\n    tag_565:\n        /* \"#utility.yul\":24945:24946   */\n      0x00\n        /* \"#utility.yul\":24959:25166   */\n    tag_566:\n        /* \"#utility.yul\":24973:24980   */\n      dup3\n        /* \"#utility.yul\":24970:24971   */\n      dup2\n        /* \"#utility.yul\":24967:24981   */\n      lt\n        /* \"#utility.yul\":24959:25166   */\n      iszero\n      tag_568\n      jumpi\n        /* \"#utility.yul\":25052:25061   */\n      dup5\n        /* \"#utility.yul\":25047:25050   */\n      dup10\n        /* \"#utility.yul\":25043:25062   */\n      add\n        /* \"#utility.yul\":25037:25063   */\n      sload\n        /* \"#utility.yul\":25029:25035   */\n      dup3\n        /* \"#utility.yul\":25022:25064   */\n      sstore\n        /* \"#utility.yul\":25103:25104   */\n      0x01\n        /* \"#utility.yul\":25095:25101   */\n      dup3\n        /* \"#utility.yul\":25091:25105   */\n      add\n        /* \"#utility.yul\":25081:25105   */\n      swap2\n      pop\n        /* \"#utility.yul\":25150:25151   */\n      0x01\n        /* \"#utility.yul\":25139:25148   */\n      dup6\n        /* \"#utility.yul\":25135:25152   */\n      add\n        /* \"#utility.yul\":25122:25152   */\n      swap5\n      pop\n        /* \"#utility.yul\":24996:25000   */\n      0x20\n        /* \"#utility.yul\":24993:24994   */\n      dup2\n        /* \"#utility.yul\":24989:25001   */\n      add\n        /* \"#utility.yul\":24984:25001   */\n      swap1\n      pop\n        /* \"#utility.yul\":24959:25166   */\n      jump(tag_566)\n    tag_568:\n        /* \"#utility.yul\":25194:25200   */\n      dup7\n        /* \"#utility.yul\":25185:25192   */\n      dup4\n        /* \"#utility.yul\":25182:25201   */\n      lt\n        /* \"#utility.yul\":25179:25358   */\n      iszero\n      tag_569\n      jumpi\n        /* \"#utility.yul\":25252:25261   */\n      dup5\n        /* \"#utility.yul\":25247:25250   */\n      dup10\n        /* \"#utility.yul\":25243:25262   */\n      add\n        /* \"#utility.yul\":25237:25263   */\n      sload\n        /* \"#utility.yul\":25295:25343   */\n      tag_570\n        /* \"#utility.yul\":25337:25341   */\n      0x1f\n        /* \"#utility.yul\":25329:25335   */\n      dup10\n        /* \"#utility.yul\":25325:25342   */\n      and\n        /* \"#utility.yul\":25314:25323   */\n      dup3\n        /* \"#utility.yul\":25295:25343   */\n      tag_292\n      jump\t// in\n    tag_570:\n        /* \"#utility.yul\":25287:25293   */\n      dup4\n        /* \"#utility.yul\":25280:25344   */\n      sstore\n        /* \"#utility.yul\":25202:25358   */\n      pop\n        /* \"#utility.yul\":25179:25358   */\n    tag_569:\n        /* \"#utility.yul\":25404:25405   */\n      0x01\n        /* \"#utility.yul\":25400:25401   */\n      0x02\n        /* \"#utility.yul\":25392:25398   */\n      dup9\n        /* \"#utility.yul\":25388:25402   */\n      mul\n        /* \"#utility.yul\":25384:25406   */\n      add\n        /* \"#utility.yul\":25378:25382   */\n      dup9\n        /* \"#utility.yul\":25371:25407   */\n      sstore\n        /* \"#utility.yul\":24748:25417   */\n      pop\n      pop\n      pop\n        /* \"#utility.yul\":24711:25656   */\n    tag_560:\n      pop\n        /* \"#utility.yul\":24292:25662   */\n      pop\n      pop\n      pop\n        /* \"#utility.yul\":24199:25662   */\n      pop\n      pop\n    tag_553:\n      jump\t// out\n        /* \"#utility.yul\":25668:25848   */\n    tag_176:\n        /* \"#utility.yul\":25716:25793   */\n      0x4e487b7100000000000000000000000000000000000000000000000000000000\n        /* \"#utility.yul\":25713:25714   */\n      0x00\n        /* \"#utility.yul\":25706:25794   */\n      mstore\n        /* \"#utility.yul\":25813:25817   */\n      0x31\n        /* \"#utility.yul\":25810:25811   */\n      0x04\n        /* \"#utility.yul\":25803:25818   */\n      mstore\n        /* \"#utility.yul\":25837:25841   */\n      0x24\n        /* \"#utility.yul\":25834:25835   */\n      0x00\n        /* \"#utility.yul\":25827:25842   */\n      revert\n        /* \"#utility.yul\":25854:25997   */\n    tag_297:\n        /* \"#utility.yul\":25911:25916   */\n      0x00\n        /* \"#utility.yul\":25942:25948   */\n      dup2\n        /* \"#utility.yul\":25936:25949   */\n      mload\n        /* \"#utility.yul\":25927:25949   */\n      swap1\n      pop\n        /* \"#utility.yul\":25958:25991   */\n      tag_573\n        /* \"#utility.yul\":25985:25990   */\n      dup2\n        /* \"#utility.yul\":25958:25991   */\n      tag_246\n      jump\t// in\n    tag_573:\n        /* \"#utility.yul\":25854:25997   */\n      swap3\n      swap2\n      pop\n      pop\n      jump\t// out\n        /* \"#utility.yul\":26003:26354   */\n    tag_192:\n        /* \"#utility.yul\":26073:26079   */\n      0x00\n        /* \"#utility.yul\":26122:26124   */\n      0x20\n        /* \"#utility.yul\":26110:26119   */\n      dup3\n        /* \"#utility.yul\":26101:26108   */\n      dup5\n        /* \"#utility.yul\":26097:26120   */\n      sub\n        /* \"#utility.yul\":26093:26125   */\n      slt\n        /* \"#utility.yul\":26090:26209   */\n      iszero\n      tag_575\n      jumpi\n        /* \"#utility.yul\":26128:26207   */\n      tag_576\n      tag_225\n      jump\t// in\n    tag_576:\n        /* \"#utility.yul\":26090:26209   */\n    tag_575:\n        /* \"#utility.yul\":26248:26249   */\n      0x00\n        /* \"#utility.yul\":26273:26337   */\n      tag_577\n        /* \"#utility.yul\":26329:26336   */\n      dup5\n        /* \"#utility.yul\":26320:26326   */\n      dup3\n        /* \"#utility.yul\":26309:26318   */\n      dup6\n        /* \"#utility.yul\":26305:26327   */\n      add\n        /* \"#utility.yul\":26273:26337   */\n      tag_297\n      jump\t// in\n    tag_577:\n        /* \"#utility.yul\":26263:26337   */\n      swap2\n      pop\n        /* \"#utility.yul\":26219:26347   */\n      pop\n        /* \"#utility.yul\":26003:26354   */\n      swap3\n      swap2\n      pop\n      pop\n      jump\t// out\n        /* \"#utility.yul\":26360:26582   */\n    tag_298:\n        /* \"#utility.yul\":26500:26534   */\n      0x496e73756666696369656e742062616c616e636520746f20706c616365206f72\n        /* \"#utility.yul\":26496:26497   */\n      0x00\n        /* \"#utility.yul\":26488:26494   */\n      dup3\n        /* \"#utility.yul\":26484:26498   */\n      add\n        /* \"#utility.yul\":26477:26535   */\n      mstore\n        /* \"#utility.yul\":26569:26574   */\n      0x6465720000000000000000000000000000000000000000000000000000000000\n        /* \"#utility.yul\":26564:26566   */\n      0x20\n        /* \"#utility.yul\":26556:26562   */\n      dup3\n        /* \"#utility.yul\":26552:26567   */\n      add\n        /* \"#utility.yul\":26545:26575   */\n      mstore\n        /* \"#utility.yul\":26360:26582   */\n      pop\n      jump\t// out\n        /* \"#utility.yul\":26588:26954   */\n    tag_299:\n        /* \"#utility.yul\":26730:26733   */\n      0x00\n        /* \"#utility.yul\":26751:26818   */\n      tag_580\n        /* \"#utility.yul\":26815:26817   */\n      0x23\n        /* \"#utility.yul\":26810:26813   */\n      dup4\n        /* \"#utility.yul\":26751:26818   */\n      tag_249\n      jump\t// in\n    tag_580:\n        /* \"#utility.yul\":26744:26818   */\n      swap2\n      pop\n        /* \"#utility.yul\":26827:26920   */\n      tag_581\n        /* \"#utility.yul\":26916:26919   */\n      dup3\n        /* \"#utility.yul\":26827:26920   */\n      tag_298\n      jump\t// in\n    tag_581:\n        /* \"#utility.yul\":26945:26947   */\n      0x40\n        /* \"#utility.yul\":26940:26943   */\n      dup3\n        /* \"#utility.yul\":26936:26948   */\n      add\n        /* \"#utility.yul\":26929:26948   */\n      swap1\n      pop\n        /* \"#utility.yul\":26588:26954   */\n      swap2\n      swap1\n      pop\n      jump\t// out\n        /* \"#utility.yul\":26960:27379   */\n    tag_195:\n        /* \"#utility.yul\":27126:27130   */\n      0x00\n        /* \"#utility.yul\":27164:27166   */\n      0x20\n        /* \"#utility.yul\":27153:27162   */\n      dup3\n        /* \"#utility.yul\":27149:27167   */\n      add\n        /* \"#utility.yul\":27141:27167   */\n      swap1\n      pop\n        /* \"#utility.yul\":27213:27222   */\n      dup2\n        /* \"#utility.yul\":27207:27211   */\n      dup2\n        /* \"#utility.yul\":27203:27223   */\n      sub\n        /* \"#utility.yul\":27199:27200   */\n      0x00\n        /* \"#utility.yul\":27188:27197   */\n      dup4\n        /* \"#utility.yul\":27184:27201   */\n      add\n        /* \"#utility.yul\":27177:27224   */\n      mstore\n        /* \"#utility.yul\":27241:27372   */\n      tag_583\n        /* \"#utility.yul\":27367:27371   */\n      dup2\n        /* \"#utility.yul\":27241:27372   */\n      tag_299\n      jump\t// in\n    tag_583:\n        /* \"#utility.yul\":27233:27372   */\n      swap1\n      pop\n        /* \"#utility.yul\":26960:27379   */\n      swap2\n      swap1\n      pop\n      jump\t// out\n        /* \"#utility.yul\":27385:27556   */\n    tag_300:\n        /* \"#utility.yul\":27525:27548   */\n      0x496e76616c696420626576657261676520747970650000000000000000000000\n        /* \"#utility.yul\":27521:27522   */\n      0x00\n        /* \"#utility.yul\":27513:27519   */\n      dup3\n        /* \"#utility.yul\":27509:27523   */\n      add\n        /* \"#utility.yul\":27502:27549   */\n      mstore\n        /* \"#utility.yul\":27385:27556   */\n      pop\n      jump\t// out\n        /* \"#utility.yul\":27562:27928   */\n    tag_301:\n        /* \"#utility.yul\":27704:27707   */\n      0x00\n        /* \"#utility.yul\":27725:27792   */\n      tag_586\n        /* \"#utility.yul\":27789:27791   */\n      0x15\n        /* \"#utility.yul\":27784:27787   */\n      dup4\n        /* \"#utility.yul\":27725:27792   */\n      tag_249\n      jump\t// in\n    tag_586:\n        /* \"#utility.yul\":27718:27792   */\n      swap2\n      pop\n        /* \"#utility.yul\":27801:27894   */\n      tag_587\n        /* \"#utility.yul\":27890:27893   */\n      dup3\n        /* \"#utility.yul\":27801:27894   */\n      tag_300\n      jump\t// in\n    tag_587:\n        /* \"#utility.yul\":27919:27921   */\n      0x20\n        /* \"#utility.yul\":27914:27917   */\n      dup3\n        /* \"#utility.yul\":27910:27922   */\n      add\n        /* \"#utility.yul\":27903:27922   */\n      swap1\n      pop\n        /* \"#utility.yul\":27562:27928   */\n      swap2\n      swap1\n      pop\n      jump\t// out\n        /* \"#utility.yul\":27934:28353   */\n    tag_199:\n        /* \"#utility.yul\":28100:28104   */\n      0x00\n        /* \"#utility.yul\":28138:28140   */\n      0x20\n        /* \"#utility.yul\":28127:28136   */\n      dup3\n        /* \"#utility.yul\":28123:28141   */\n      add\n        /* \"#utility.yul\":28115:28141   */\n      swap1\n      pop\n        /* \"#utility.yul\":28187:28196   */\n      dup2\n        /* \"#utility.yul\":28181:28185   */\n      dup2\n        /* \"#utility.yul\":28177:28197   */\n      sub\n        /* \"#utility.yul\":28173:28174   */\n      0x00\n        /* \"#utility.yul\":28162:28171   */\n      dup4\n        /* \"#utility.yul\":28158:28175   */\n      add\n        /* \"#utility.yul\":28151:28198   */\n      mstore\n        /* \"#utility.yul\":28215:28346   */\n      tag_589\n        /* \"#utility.yul\":28341:28345   */\n      dup2\n        /* \"#utility.yul\":28215:28346   */\n      tag_301\n      jump\t// in\n    tag_589:\n        /* \"#utility.yul\":28207:28346   */\n      swap1\n      pop\n        /* \"#utility.yul\":27934:28353   */\n      swap2\n      swap1\n      pop\n      jump\t// out\n        /* \"#utility.yul\":28359:28801   */\n    tag_201:\n        /* \"#utility.yul\":28508:28512   */\n      0x00\n        /* \"#utility.yul\":28546:28548   */\n      0x60\n        /* \"#utility.yul\":28535:28544   */\n      dup3\n        /* \"#utility.yul\":28531:28549   */\n      add\n        /* \"#utility.yul\":28523:28549   */\n      swap1\n      pop\n        /* \"#utility.yul\":28559:28630   */\n      tag_591\n        /* \"#utility.yul\":28627:28628   */\n      0x00\n        /* \"#utility.yul\":28616:28625   */\n      dup4\n        /* \"#utility.yul\":28612:28629   */\n      add\n        /* \"#utility.yul\":28603:28609   */\n      dup7\n        /* \"#utility.yul\":28559:28630   */\n      tag_253\n      jump\t// in\n    tag_591:\n        /* \"#utility.yul\":28640:28712   */\n      tag_592\n        /* \"#utility.yul\":28708:28710   */\n      0x20\n        /* \"#utility.yul\":28697:28706   */\n      dup4\n        /* \"#utility.yul\":28693:28711   */\n      add\n        /* \"#utility.yul\":28684:28690   */\n      dup6\n        /* \"#utility.yul\":28640:28712   */\n      tag_253\n      jump\t// in\n    tag_592:\n        /* \"#utility.yul\":28722:28794   */\n      tag_593\n        /* \"#utility.yul\":28790:28792   */\n      0x40\n        /* \"#utility.yul\":28779:28788   */\n      dup4\n        /* \"#utility.yul\":28775:28793   */\n      add\n        /* \"#utility.yul\":28766:28772   */\n      dup5\n        /* \"#utility.yul\":28722:28794   */\n      tag_269\n      jump\t// in\n    tag_593:\n        /* \"#utility.yul\":28359:28801   */\n      swap5\n      swap4\n      pop\n      pop\n      pop\n      pop\n      jump\t// out\n        /* \"#utility.yul\":28807:28944   */\n    tag_302:\n        /* \"#utility.yul\":28861:28866   */\n      0x00\n        /* \"#utility.yul\":28892:28898   */\n      dup2\n        /* \"#utility.yul\":28886:28899   */\n      mload\n        /* \"#utility.yul\":28877:28899   */\n      swap1\n      pop\n        /* \"#utility.yul\":28908:28938   */\n      tag_595\n        /* \"#utility.yul\":28932:28937   */\n      dup2\n        /* \"#utility.yul\":28908:28938   */\n      tag_265\n      jump\t// in\n    tag_595:\n        /* \"#utility.yul\":28807:28944   */\n      swap3\n      swap2\n      pop\n      pop\n      jump\t// out\n        /* \"#utility.yul\":28950:29295   */\n    tag_205:\n        /* \"#utility.yul\":29017:29023   */\n      0x00\n        /* \"#utility.yul\":29066:29068   */\n      0x20\n        /* \"#utility.yul\":29054:29063   */\n      dup3\n        /* \"#utility.yul\":29045:29052   */\n      dup5\n        /* \"#utility.yul\":29041:29064   */\n      sub\n        /* \"#utility.yul\":29037:29069   */\n      slt\n        /* \"#utility.yul\":29034:29153   */\n      iszero\n      tag_597\n      jumpi\n        /* \"#utility.yul\":29072:29151   */\n      tag_598\n      tag_225\n      jump\t// in\n    tag_598:\n        /* \"#utility.yul\":29034:29153   */\n    tag_597:\n        /* \"#utility.yul\":29192:29193   */\n      0x00\n        /* \"#utility.yul\":29217:29278   */\n      tag_599\n        /* \"#utility.yul\":29270:29277   */\n      dup5\n        /* \"#utility.yul\":29261:29267   */\n      dup3\n        /* \"#utility.yul\":29250:29259   */\n      dup6\n        /* \"#utility.yul\":29246:29268   */\n      add\n        /* \"#utility.yul\":29217:29278   */\n      tag_302\n      jump\t// in\n    tag_599:\n        /* \"#utility.yul\":29207:29278   */\n      swap2\n      pop\n        /* \"#utility.yul\":29163:29288   */\n      pop\n        /* \"#utility.yul\":28950:29295   */\n      swap3\n      swap2\n      pop\n      pop\n      jump\t// out\n\n    auxdata: 0xa26469706673582212205e050e18f3db60e7c0347d67712d4ff90129cfbbf80fadda581c01e55574786b64736f6c63430008190033\n}\n",
				"bytecode": {
					"linkReferences": {},
					"object": "6080604052670de0b6b3a764000060025534801561001c57600080fd5b5060405161274b38038061274b833981810160405281019061003e9190610367565b33600073ffffffffffffffffffffffffffffffffffffffff168173ffffffffffffffffffffffffffffffffffffffff16036100b15760006040517f1e4fbdf70000000000000000000000000000000000000000000000000000000081526004016100a891906103a3565b60405180910390fd5b6100c08161024060201b60201c565b5080600160006101000a81548173ffffffffffffffffffffffffffffffffffffffff021916908373ffffffffffffffffffffffffffffffffffffffff1602179055506001600460405161011290610415565b908152602001604051809103902060006101000a81548160ff0219169083151502179055506001600460405161014790610476565b908152602001604051809103902060006101000a81548160ff021916908315150217905550600580600181540180825580915050600190039060005260206000200160006040518060400160405280600981526020017f616d65726963616e6f0000000000000000000000000000000000000000000000815250909190915090816101d291906106db565b50600580600181540180825580915050600190039060005260206000200160006040518060400160405280600a81526020017f63616666656c61747465000000000000000000000000000000000000000000008152509091909150908161023991906106db565b50506107ad565b60008060009054906101000a900473ffffffffffffffffffffffffffffffffffffffff169050816000806101000a81548173ffffffffffffffffffffffffffffffffffffffff021916908373ffffffffffffffffffffffffffffffffffffffff1602179055508173ffffffffffffffffffffffffffffffffffffffff168173ffffffffffffffffffffffffffffffffffffffff167f8be0079c531659141344cd1fd0a4f28419497f9722a3daafe3b4186f6b6457e060405160405180910390a35050565b600080fd5b600073ffffffffffffffffffffffffffffffffffffffff82169050919050565b600061033482610309565b9050919050565b61034481610329565b811461034f57600080fd5b50565b6000815190506103618161033b565b92915050565b60006020828403121561037d5761037c610304565b5b600061038b84828501610352565b91505092915050565b61039d81610329565b82525050565b60006020820190506103b86000830184610394565b92915050565b600081905092915050565b7f616d65726963616e6f0000000000000000000000000000000000000000000000600082015250565b60006103ff6009836103be565b915061040a826103c9565b600982019050919050565b6000610420826103f2565b9150819050919050565b7f63616666656c6174746500000000000000000000000000000000000000000000600082015250565b6000610460600a836103be565b915061046b8261042a565b600a82019050919050565b600061048182610453565b9150819050919050565b600081519050919050565b7f4e487b7100000000000000000000000000000000000000000000000000000000600052604160045260246000fd5b7f4e487b7100000000000000000000000000000000000000000000000000000000600052602260045260246000fd5b6000600282049050600182168061050c57607f821691505b60208210810361051f5761051e6104c5565b5b50919050565b60008190508160005260206000209050919050565b60006020601f8301049050919050565b600082821b905092915050565b6000600883026105877fffffffffffffffffffffffffffffffffffffffffffffffffffffffffffffffff8261054a565b610591868361054a565b95508019841693508086168417925050509392505050565b6000819050919050565b6000819050919050565b60006105d86105d36105ce846105a9565b6105b3565b6105a9565b9050919050565b6000819050919050565b6105f2836105bd565b6106066105fe826105df565b848454610557565b825550505050565b600090565b61061b61060e565b6106268184846105e9565b505050565b5b8181101561064a5761063f600082610613565b60018101905061062c565b5050565b601f82111561068f5761066081610525565b6106698461053a565b81016020851015610678578190505b61068c6106848561053a565b83018261062b565b50505b505050565b600082821c905092915050565b60006106b260001984600802610694565b1980831691505092915050565b60006106cb83836106a1565b9150826002028217905092915050565b6106e48261048b565b67ffffffffffffffff8111156106fd576106fc610496565b5b61070782546104f4565b61071282828561064e565b600060209050601f8311600181146107455760008415610733578287015190505b61073d85826106bf565b8655506107a5565b601f19841661075386610525565b60005b8281101561077b57848901518255600182019150602085019450602081019050610756565b868310156107985784890151610794601f8916826106a1565b8355505b6001600288020188555050505b505050505050565b611f8f806107bc6000396000f3fe608060405234801561001057600080fd5b50600436106100cf5760003560e01c8063a85c38ef1161008c578063d3fa59cf11610066578063d3fa59cf14610216578063f2fde38b14610232578063f9f847dd1461024e578063fa47fd601461026c576100cf565b8063a85c38ef14610196578063ae812b97146101c8578063d09ef241146101e6576100cf565b80632ff71f3a146100d457806355a373d6146101045780635660a05314610122578063715018a6146101525780638ac7d79c1461015c5780638da5cb5b14610178575b600080fd5b6100ee60048036038101906100e99190611141565b610288565b6040516100fb91906111a5565b60405180910390f35b61010c6102be565b604051610119919061123f565b60405180910390f35b61013c60048036038101906101379190611290565b6102e4565b604051610149919061133c565b60405180910390f35b61015a610390565b005b61017660048036038101906101719190611290565b6103d3565b005b6101806104d6565b60405161018d919061137f565b60405180910390f35b6101b060048036038101906101ab9190611290565b6104ff565b6040516101bf9392919061139a565b60405180910390f35b6101d06105ee565b6040516101dd91906114e4565b60405180910390f35b61020060048036038101906101fb9190611290565b6106c7565b60405161020d9190611574565b60405180910390f35b610230600480360381019061022b91906115c2565b61084d565b005b61024c6004803603810190610247919061164a565b610aa1565b005b610256610b27565b6040516102639190611686565b60405180910390f35b61028660048036038101906102819190611141565b610b2d565b005b6004818051602081018201805184825260208301602085012081835280955050505050506000915054906101000a900460ff1681565b600160009054906101000a900473ffffffffffffffffffffffffffffffffffffffff1681565b600581815481106102f457600080fd5b90600052602060002001600091509050805461030f906116d0565b80601f016020809104026020016040519081016040528092919081815260200182805461033b906116d0565b80156103885780601f1061035d57610100808354040283529160200191610388565b820191906000526020600020905b81548152906001019060200180831161036b57829003601f168201915b505050505081565b610398610dfe565b6040517f08c379a00000000000000000000000000000000000000000000000000000000081526004016103ca90611773565b60405180910390fd5b6103db610dfe565b6003805490508110610422576040517f08c379a0000000000000000000000000000000000000000000000000000000008152600401610419906117df565b60405180910390fd5b60038181548110610436576104356117ff565b5b906000526020600020906003020160020160009054906101000a900460ff1615610495576040517f08c379a000000000000000000000000000000000000000000000000000000000815260040161048c9061187a565b60405180910390fd5b6001600382815481106104ab576104aa6117ff565b5b906000526020600020906003020160020160006101000a81548160ff02191690831515021790555050565b60008060009054906101000a900473ffffffffffffffffffffffffffffffffffffffff16905090565b6003818154811061050f57600080fd5b90600052602060002090600302016000915090508060000160009054906101000a900473ffffffffffffffffffffffffffffffffffffffff1690806001018054610558906116d0565b80601f0160208091040260200160405190810160405280929190818152602001828054610584906116d0565b80156105d15780601f106105a6576101008083540402835291602001916105d1565b820191906000526020600020905b8154815290600101906020018083116105b457829003601f168201915b5050505050908060020160009054906101000a900460ff16905083565b60606005805480602002602001604051908101604052809291908181526020016000905b828210156106be578382906000526020600020018054610631906116d0565b80601f016020809104026020016040519081016040528092919081815260200182805461065d906116d0565b80156106aa5780601f1061067f576101008083540402835291602001916106aa565b820191906000526020600020905b81548152906001019060200180831161068d57829003601f168201915b505050505081526020019060010190610612565b50505050905090565b6106cf610f51565b6003805490508210610716576040517f08c379a000000000000000000000000000000000000000000000000000000000815260040161070d906117df565b60405180910390fd5b6003828154811061072a576107296117ff565b5b90600052602060002090600302016040518060600160405290816000820160009054906101000a900473ffffffffffffffffffffffffffffffffffffffff1673ffffffffffffffffffffffffffffffffffffffff1673ffffffffffffffffffffffffffffffffffffffff1681526020016001820180546107a9906116d0565b80601f01602080910402602001604051908101604052809291908181526020018280546107d5906116d0565b80156108225780601f106107f757610100808354040283529160200191610822565b820191906000526020600020905b81548152906001019060200180831161080557829003601f168201915b505050505081526020016002820160009054906101000a900460ff1615151515815250509050919050565b610855610dfe565b8060048360405161086691906118d6565b908152602001604051809103902060006101000a81548160ff0219169083151502179055506000805b60058054905081101561092257836040516020016108ad91906118d6565b60405160208183030381529060405280519060200120600582815481106108d7576108d66117ff565b5b906000526020600020016040516020016108f19190611985565b60405160208183030381529060405280519060200120036109155760019150610922565b808060010191505061088f565b5081801561092e575080155b1561096d576005839080600181540180825580915050600190039060005260206000200160009091909190915090816109679190611b29565b50610a9c565b811580156109785750805b15610a9b5760005b600580549050811015610a99578360405160200161099e91906118d6565b60405160208183030381529060405280519060200120600582815481106109c8576109c76117ff565b5b906000526020600020016040516020016109e29190611985565b6040516020818303038152906040528051906020012003610a8c5760056001600580549050610a119190611c2a565b81548110610a2257610a216117ff565b5b9060005260206000200160058281548110610a4057610a3f6117ff565b5b906000526020600020019081610a569190611c89565b506005805480610a6957610a68611d71565b5b600190038181906000526020600020016000610a859190610f8a565b9055610a99565b8080600101915050610980565b505b5b505050565b610aa9610dfe565b600073ffffffffffffffffffffffffffffffffffffffff168173ffffffffffffffffffffffffffffffffffffffff1603610b1b5760006040517f1e4fbdf7000000000000000000000000000000000000000000000000000000008152600401610b12919061137f565b60405180910390fd5b610b2481610e85565b50565b60025481565b600254600160009054906101000a900473ffffffffffffffffffffffffffffffffffffffff1673ffffffffffffffffffffffffffffffffffffffff166370a08231336040518263ffffffff1660e01b8152600401610b8b919061137f565b602060405180830381865afa158015610ba8573d6000803e3d6000fd5b505050506040513d601f19601f82011682018060405250810190610bcc9190611db5565b1015610c0d576040517f08c379a0000000000000000000000000000000000000000000000000000000008152600401610c0490611e54565b60405180910390fd5b600481604051610c1d91906118d6565b908152602001604051809103902060009054906101000a900460ff16610c78576040517f08c379a0000000000000000000000000000000000000000000000000000000008152600401610c6f90611ec0565b60405180910390fd5b600160009054906101000a900473ffffffffffffffffffffffffffffffffffffffff1673ffffffffffffffffffffffffffffffffffffffff166323b872dd33306002546040518463ffffffff1660e01b8152600401610cd993929190611ee0565b6020604051808303816000875af1158015610cf8573d6000803e3d6000fd5b505050506040513d601f19601f82011682018060405250810190610d1c9190611f2c565b50600360405180606001604052803373ffffffffffffffffffffffffffffffffffffffff16815260200183815260200160001515815250908060018154018082558091505060019003906000526020600020906003020160009091909190915060008201518160000160006101000a81548173ffffffffffffffffffffffffffffffffffffffff021916908373ffffffffffffffffffffffffffffffffffffffff1602179055506020820151816001019081610dd89190611b29565b5060408201518160020160006101000a81548160ff021916908315150217905550505050565b610e06610f49565b73ffffffffffffffffffffffffffffffffffffffff16610e246104d6565b73ffffffffffffffffffffffffffffffffffffffff1614610e8357610e47610f49565b6040517f118cdaa7000000000000000000000000000000000000000000000000000000008152600401610e7a919061137f565b60405180910390fd5b565b60008060009054906101000a900473ffffffffffffffffffffffffffffffffffffffff169050816000806101000a81548173ffffffffffffffffffffffffffffffffffffffff021916908373ffffffffffffffffffffffffffffffffffffffff1602179055508173ffffffffffffffffffffffffffffffffffffffff168173ffffffffffffffffffffffffffffffffffffffff167f8be0079c531659141344cd1fd0a4f28419497f9722a3daafe3b4186f6b6457e060405160405180910390a35050565b600033905090565b6040518060600160405280600073ffffffffffffffffffffffffffffffffffffffff168152602001606081526020016000151581525090565b508054610f96906116d0565b6000825580601f10610fa85750610fc7565b601f016020900490600052602060002090810190610fc69190610fca565b5b50565b5b80821115610fe3576000816000905550600101610fcb565b5090565b6000604051905090565b600080fd5b600080fd5b600080fd5b600080fd5b6000601f19601f8301169050919050565b7f4e487b7100000000000000000000000000000000000000000000000000000000600052604160045260246000fd5b61104e82611005565b810181811067ffffffffffffffff8211171561106d5761106c611016565b5b80604052505050565b6000611080610fe7565b905061108c8282611045565b919050565b600067ffffffffffffffff8211156110ac576110ab611016565b5b6110b582611005565b9050602081019050919050565b82818337600083830152505050565b60006110e46110df84611091565b611076565b905082815260208101848484011115611100576110ff611000565b5b61110b8482856110c2565b509392505050565b600082601f83011261112857611127610ffb565b5b81356111388482602086016110d1565b91505092915050565b60006020828403121561115757611156610ff1565b5b600082013567ffffffffffffffff81111561117557611174610ff6565b5b61118184828501611113565b91505092915050565b60008115159050919050565b61119f8161118a565b82525050565b60006020820190506111ba6000830184611196565b92915050565b600073ffffffffffffffffffffffffffffffffffffffff82169050919050565b6000819050919050565b60006112056112006111fb846111c0565b6111e0565b6111c0565b9050919050565b6000611217826111ea565b9050919050565b60006112298261120c565b9050919050565b6112398161121e565b82525050565b60006020820190506112546000830184611230565b92915050565b6000819050919050565b61126d8161125a565b811461127857600080fd5b50565b60008135905061128a81611264565b92915050565b6000602082840312156112a6576112a5610ff1565b5b60006112b48482850161127b565b91505092915050565b600081519050919050565b600082825260208201905092915050565b60005b838110156112f75780820151818401526020810190506112dc565b60008484015250505050565b600061130e826112bd565b61131881856112c8565b93506113288185602086016112d9565b61133181611005565b840191505092915050565b600060208201905081810360008301526113568184611303565b905092915050565b6000611369826111c0565b9050919050565b6113798161135e565b82525050565b60006020820190506113946000830184611370565b92915050565b60006060820190506113af6000830186611370565b81810360208301526113c18185611303565b90506113d06040830184611196565b949350505050565b600081519050919050565b600082825260208201905092915050565b6000819050602082019050919050565b600082825260208201905092915050565b6000611420826112bd565b61142a8185611404565b935061143a8185602086016112d9565b61144381611005565b840191505092915050565b600061145a8383611415565b905092915050565b6000602082019050919050565b600061147a826113d8565b61148481856113e3565b935083602082028501611496856113f4565b8060005b858110156114d257848403895281516114b3858261144e565b94506114be83611462565b925060208a0199505060018101905061149a565b50829750879550505050505092915050565b600060208201905081810360008301526114fe818461146f565b905092915050565b61150f8161135e565b82525050565b61151e8161118a565b82525050565b600060608301600083015161153c6000860182611506565b50602083015184820360208601526115548282611415565b91505060408301516115696040860182611515565b508091505092915050565b6000602082019050818103600083015261158e8184611524565b905092915050565b61159f8161118a565b81146115aa57600080fd5b50565b6000813590506115bc81611596565b92915050565b600080604083850312156115d9576115d8610ff1565b5b600083013567ffffffffffffffff8111156115f7576115f6610ff6565b5b61160385828601611113565b9250506020611614858286016115ad565b9150509250929050565b6116278161135e565b811461163257600080fd5b50565b6000813590506116448161161e565b92915050565b6000602082840312156116605761165f610ff1565b5b600061166e84828501611635565b91505092915050565b6116808161125a565b82525050565b600060208201905061169b6000830184611677565b92915050565b7f4e487b7100000000000000000000000000000000000000000000000000000000600052602260045260246000fd5b600060028204905060018216806116e857607f821691505b6020821081036116fb576116fa6116a1565b5b50919050565b7f52656e6f756e63696e67206f776e6572736869702069732064697361626c656460008201527f2e00000000000000000000000000000000000000000000000000000000000000602082015250565b600061175d6021836112c8565b915061176882611701565b604082019050919050565b6000602082019050818103600083015261178c81611750565b9050919050565b7f496e76616c6964206f7264657220696e64657800000000000000000000000000600082015250565b60006117c96013836112c8565b91506117d482611793565b602082019050919050565b600060208201905081810360008301526117f8816117bc565b9050919050565b7f4e487b7100000000000000000000000000000000000000000000000000000000600052603260045260246000fd5b7f4f7264657220616c72656164792066756c66696c6c6564000000000000000000600082015250565b60006118646017836112c8565b915061186f8261182e565b602082019050919050565b6000602082019050818103600083015261189381611857565b9050919050565b600081905092915050565b60006118b0826112bd565b6118ba818561189a565b93506118ca8185602086016112d9565b80840191505092915050565b60006118e282846118a5565b915081905092915050565b60008190508160005260206000209050919050565b6000815461190f816116d0565b611919818661189a565b9450600182166000811461193457600181146119495761197c565b60ff198316865281151582028601935061197c565b611952856118ed565b60005b8381101561197457815481890152600182019150602081019050611955565b838801955050505b50505092915050565b60006119918284611902565b915081905092915050565b60006020601f8301049050919050565b600082821b905092915050565b6000600883026119e97fffffffffffffffffffffffffffffffffffffffffffffffffffffffffffffffff826119ac565b6119f386836119ac565b95508019841693508086168417925050509392505050565b6000611a26611a21611a1c8461125a565b6111e0565b61125a565b9050919050565b6000819050919050565b611a4083611a0b565b611a54611a4c82611a2d565b8484546119b9565b825550505050565b600090565b611a69611a5c565b611a74818484611a37565b505050565b5b81811015611a9857611a8d600082611a61565b600181019050611a7a565b5050565b601f821115611add57611aae816118ed565b611ab78461199c565b81016020851015611ac6578190505b611ada611ad28561199c565b830182611a79565b50505b505050565b600082821c905092915050565b6000611b0060001984600802611ae2565b1980831691505092915050565b6000611b198383611aef565b9150826002028217905092915050565b611b32826112bd565b67ffffffffffffffff811115611b4b57611b4a611016565b5b611b5582546116d0565b611b60828285611a9c565b600060209050601f831160018114611b935760008415611b81578287015190505b611b8b8582611b0d565b865550611bf3565b601f198416611ba1866118ed565b60005b82811015611bc957848901518255600182019150602085019450602081019050611ba4565b86831015611be65784890151611be2601f891682611aef565b8355505b6001600288020188555050505b505050505050565b7f4e487b7100000000000000000000000000000000000000000000000000000000600052601160045260246000fd5b6000611c358261125a565b9150611c408361125a565b9250828203905081811115611c5857611c57611bfb565b5b92915050565b600081549050611c6d816116d0565b9050919050565b60008190508160005260206000209050919050565b818103611c97575050611d6f565b611ca082611c5e565b67ffffffffffffffff811115611cb957611cb8611016565b5b611cc382546116d0565b611cce828285611a9c565b6000601f831160018114611cfd5760008415611ceb578287015490505b611cf58582611b0d565b865550611d68565b601f198416611d0b87611c74565b9650611d16866118ed565b60005b82811015611d3e57848901548255600182019150600185019450602081019050611d19565b86831015611d5b5784890154611d57601f891682611aef565b8355505b6001600288020188555050505b5050505050505b565b7f4e487b7100000000000000000000000000000000000000000000000000000000600052603160045260246000fd5b600081519050611daf81611264565b92915050565b600060208284031215611dcb57611dca610ff1565b5b6000611dd984828501611da0565b91505092915050565b7f496e73756666696369656e742062616c616e636520746f20706c616365206f7260008201527f6465720000000000000000000000000000000000000000000000000000000000602082015250565b6000611e3e6023836112c8565b9150611e4982611de2565b604082019050919050565b60006020820190508181036000830152611e6d81611e31565b9050919050565b7f496e76616c696420626576657261676520747970650000000000000000000000600082015250565b6000611eaa6015836112c8565b9150611eb582611e74565b602082019050919050565b60006020820190508181036000830152611ed981611e9d565b9050919050565b6000606082019050611ef56000830186611370565b611f026020830185611370565b611f0f6040830184611677565b949350505050565b600081519050611f2681611596565b92915050565b600060208284031215611f4257611f41610ff1565b5b6000611f5084828501611f17565b9150509291505056fea26469706673582212205e050e18f3db60e7c0347d67712d4ff90129cfbbf80fadda581c01e55574786b64736f6c63430008190033",
					"opcodes": "PUSH1 0x80 PUSH1 0x40 MSTORE PUSH8 0xDE0B6B3A7640000 PUSH1 0x2 SSTORE CALLVALUE DUP1 ISZERO PUSH2 0x1C JUMPI PUSH1 0x0 DUP1 REVERT JUMPDEST POP PUSH1 0x40 MLOAD PUSH2 0x274B CODESIZE SUB DUP1 PUSH2 0x274B DUP4 CODECOPY DUP2 DUP2 ADD PUSH1 0x40 MSTORE DUP2 ADD SWAP1 PUSH2 0x3E SWAP2 SWAP1 PUSH2 0x367 JUMP JUMPDEST CALLER PUSH1 0x0 PUSH20 0xFFFFFFFFFFFFFFFFFFFFFFFFFFFFFFFFFFFFFFFF AND DUP2 PUSH20 0xFFFFFFFFFFFFFFFFFFFFFFFFFFFFFFFFFFFFFFFF AND SUB PUSH2 0xB1 JUMPI PUSH1 0x0 PUSH1 0x40 MLOAD PUSH32 0x1E4FBDF700000000000000000000000000000000000000000000000000000000 DUP2 MSTORE PUSH1 0x4 ADD PUSH2 0xA8 SWAP2 SWAP1 PUSH2 0x3A3 JUMP JUMPDEST PUSH1 0x40 MLOAD DUP1 SWAP2 SUB SWAP1 REVERT JUMPDEST PUSH2 0xC0 DUP2 PUSH2 0x240 PUSH1 0x20 SHL PUSH1 0x20 SHR JUMP JUMPDEST POP DUP1 PUSH1 0x1 PUSH1 0x0 PUSH2 0x100 EXP DUP2 SLOAD DUP2 PUSH20 0xFFFFFFFFFFFFFFFFFFFFFFFFFFFFFFFFFFFFFFFF MUL NOT AND SWAP1 DUP4 PUSH20 0xFFFFFFFFFFFFFFFFFFFFFFFFFFFFFFFFFFFFFFFF AND MUL OR SWAP1 SSTORE POP PUSH1 0x1 PUSH1 0x4 PUSH1 0x40 MLOAD PUSH2 0x112 SWAP1 PUSH2 0x415 JUMP JUMPDEST SWAP1 DUP2 MSTORE PUSH1 0x20 ADD PUSH1 0x40 MLOAD DUP1 SWAP2 SUB SWAP1 KECCAK256 PUSH1 0x0 PUSH2 0x100 EXP DUP2 SLOAD DUP2 PUSH1 0xFF MUL NOT AND SWAP1 DUP4 ISZERO ISZERO MUL OR SWAP1 SSTORE POP PUSH1 0x1 PUSH1 0x4 PUSH1 0x40 MLOAD PUSH2 0x147 SWAP1 PUSH2 0x476 JUMP JUMPDEST SWAP1 DUP2 MSTORE PUSH1 0x20 ADD PUSH1 0x40 MLOAD DUP1 SWAP2 SUB SWAP1 KECCAK256 PUSH1 0x0 PUSH2 0x100 EXP DUP2 SLOAD DUP2 PUSH1 0xFF MUL NOT AND SWAP1 DUP4 ISZERO ISZERO MUL OR SWAP1 SSTORE POP PUSH1 0x5 DUP1 PUSH1 0x1 DUP2 SLOAD ADD DUP1 DUP3 SSTORE DUP1 SWAP2 POP POP PUSH1 0x1 SWAP1 SUB SWAP1 PUSH1 0x0 MSTORE PUSH1 0x20 PUSH1 0x0 KECCAK256 ADD PUSH1 0x0 PUSH1 0x40 MLOAD DUP1 PUSH1 0x40 ADD PUSH1 0x40 MSTORE DUP1 PUSH1 0x9 DUP2 MSTORE PUSH1 0x20 ADD PUSH32 0x616D65726963616E6F0000000000000000000000000000000000000000000000 DUP2 MSTORE POP SWAP1 SWAP2 SWAP1 SWAP2 POP SWAP1 DUP2 PUSH2 0x1D2 SWAP2 SWAP1 PUSH2 0x6DB JUMP JUMPDEST POP PUSH1 0x5 DUP1 PUSH1 0x1 DUP2 SLOAD ADD DUP1 DUP3 SSTORE DUP1 SWAP2 POP POP PUSH1 0x1 SWAP1 SUB SWAP1 PUSH1 0x0 MSTORE PUSH1 0x20 PUSH1 0x0 KECCAK256 ADD PUSH1 0x0 PUSH1 0x40 MLOAD DUP1 PUSH1 0x40 ADD PUSH1 0x40 MSTORE DUP1 PUSH1 0xA DUP2 MSTORE PUSH1 0x20 ADD PUSH32 0x63616666656C6174746500000000000000000000000000000000000000000000 DUP2 MSTORE POP SWAP1 SWAP2 SWAP1 SWAP2 POP SWAP1 DUP2 PUSH2 0x239 SWAP2 SWAP1 PUSH2 0x6DB JUMP JUMPDEST POP POP PUSH2 0x7AD JUMP JUMPDEST PUSH1 0x0 DUP1 PUSH1 0x0 SWAP1 SLOAD SWAP1 PUSH2 0x100 EXP SWAP1 DIV PUSH20 0xFFFFFFFFFFFFFFFFFFFFFFFFFFFFFFFFFFFFFFFF AND SWAP1 POP DUP2 PUSH1 0x0 DUP1 PUSH2 0x100 EXP DUP2 SLOAD DUP2 PUSH20 0xFFFFFFFFFFFFFFFFFFFFFFFFFFFFFFFFFFFFFFFF MUL NOT AND SWAP1 DUP4 PUSH20 0xFFFFFFFFFFFFFFFFFFFFFFFFFFFFFFFFFFFFFFFF AND MUL OR SWAP1 SSTORE POP DUP2 PUSH20 0xFFFFFFFFFFFFFFFFFFFFFFFFFFFFFFFFFFFFFFFF AND DUP2 PUSH20 0xFFFFFFFFFFFFFFFFFFFFFFFFFFFFFFFFFFFFFFFF AND PUSH32 0x8BE0079C531659141344CD1FD0A4F28419497F9722A3DAAFE3B4186F6B6457E0 PUSH1 0x40 MLOAD PUSH1 0x40 MLOAD DUP1 SWAP2 SUB SWAP1 LOG3 POP POP JUMP JUMPDEST PUSH1 0x0 DUP1 REVERT JUMPDEST PUSH1 0x0 PUSH20 0xFFFFFFFFFFFFFFFFFFFFFFFFFFFFFFFFFFFFFFFF DUP3 AND SWAP1 POP SWAP2 SWAP1 POP JUMP JUMPDEST PUSH1 0x0 PUSH2 0x334 DUP3 PUSH2 0x309 JUMP JUMPDEST SWAP1 POP SWAP2 SWAP1 POP JUMP JUMPDEST PUSH2 0x344 DUP2 PUSH2 0x329 JUMP JUMPDEST DUP2 EQ PUSH2 0x34F JUMPI PUSH1 0x0 DUP1 REVERT JUMPDEST POP JUMP JUMPDEST PUSH1 0x0 DUP2 MLOAD SWAP1 POP PUSH2 0x361 DUP2 PUSH2 0x33B JUMP JUMPDEST SWAP3 SWAP2 POP POP JUMP JUMPDEST PUSH1 0x0 PUSH1 0x20 DUP3 DUP5 SUB SLT ISZERO PUSH2 0x37D JUMPI PUSH2 0x37C PUSH2 0x304 JUMP JUMPDEST JUMPDEST PUSH1 0x0 PUSH2 0x38B DUP5 DUP3 DUP6 ADD PUSH2 0x352 JUMP JUMPDEST SWAP2 POP POP SWAP3 SWAP2 POP POP JUMP JUMPDEST PUSH2 0x39D DUP2 PUSH2 0x329 JUMP JUMPDEST DUP3 MSTORE POP POP JUMP JUMPDEST PUSH1 0x0 PUSH1 0x20 DUP3 ADD SWAP1 POP PUSH2 0x3B8 PUSH1 0x0 DUP4 ADD DUP5 PUSH2 0x394 JUMP JUMPDEST SWAP3 SWAP2 POP POP JUMP JUMPDEST PUSH1 0x0 DUP2 SWAP1 POP SWAP3 SWAP2 POP POP JUMP JUMPDEST PUSH32 0x616D65726963616E6F0000000000000000000000000000000000000000000000 PUSH1 0x0 DUP3 ADD MSTORE POP JUMP JUMPDEST PUSH1 0x0 PUSH2 0x3FF PUSH1 0x9 DUP4 PUSH2 0x3BE JUMP JUMPDEST SWAP2 POP PUSH2 0x40A DUP3 PUSH2 0x3C9 JUMP JUMPDEST PUSH1 0x9 DUP3 ADD SWAP1 POP SWAP2 SWAP1 POP JUMP JUMPDEST PUSH1 0x0 PUSH2 0x420 DUP3 PUSH2 0x3F2 JUMP JUMPDEST SWAP2 POP DUP2 SWAP1 POP SWAP2 SWAP1 POP JUMP JUMPDEST PUSH32 0x63616666656C6174746500000000000000000000000000000000000000000000 PUSH1 0x0 DUP3 ADD MSTORE POP JUMP JUMPDEST PUSH1 0x0 PUSH2 0x460 PUSH1 0xA DUP4 PUSH2 0x3BE JUMP JUMPDEST SWAP2 POP PUSH2 0x46B DUP3 PUSH2 0x42A JUMP JUMPDEST PUSH1 0xA DUP3 ADD SWAP1 POP SWAP2 SWAP1 POP JUMP JUMPDEST PUSH1 0x0 PUSH2 0x481 DUP3 PUSH2 0x453 JUMP JUMPDEST SWAP2 POP DUP2 SWAP1 POP SWAP2 SWAP1 POP JUMP JUMPDEST PUSH1 0x0 DUP2 MLOAD SWAP1 POP SWAP2 SWAP1 POP JUMP JUMPDEST PUSH32 0x4E487B7100000000000000000000000000000000000000000000000000000000 PUSH1 0x0 MSTORE PUSH1 0x41 PUSH1 0x4 MSTORE PUSH1 0x24 PUSH1 0x0 REVERT JUMPDEST PUSH32 0x4E487B7100000000000000000000000000000000000000000000000000000000 PUSH1 0x0 MSTORE PUSH1 0x22 PUSH1 0x4 MSTORE PUSH1 0x24 PUSH1 0x0 REVERT JUMPDEST PUSH1 0x0 PUSH1 0x2 DUP3 DIV SWAP1 POP PUSH1 0x1 DUP3 AND DUP1 PUSH2 0x50C JUMPI PUSH1 0x7F DUP3 AND SWAP2 POP JUMPDEST PUSH1 0x20 DUP3 LT DUP2 SUB PUSH2 0x51F JUMPI PUSH2 0x51E PUSH2 0x4C5 JUMP JUMPDEST JUMPDEST POP SWAP2 SWAP1 POP JUMP JUMPDEST PUSH1 0x0 DUP2 SWAP1 POP DUP2 PUSH1 0x0 MSTORE PUSH1 0x20 PUSH1 0x0 KECCAK256 SWAP1 POP SWAP2 SWAP1 POP JUMP JUMPDEST PUSH1 0x0 PUSH1 0x20 PUSH1 0x1F DUP4 ADD DIV SWAP1 POP SWAP2 SWAP1 POP JUMP JUMPDEST PUSH1 0x0 DUP3 DUP3 SHL SWAP1 POP SWAP3 SWAP2 POP POP JUMP JUMPDEST PUSH1 0x0 PUSH1 0x8 DUP4 MUL PUSH2 0x587 PUSH32 0xFFFFFFFFFFFFFFFFFFFFFFFFFFFFFFFFFFFFFFFFFFFFFFFFFFFFFFFFFFFFFFFF DUP3 PUSH2 0x54A JUMP JUMPDEST PUSH2 0x591 DUP7 DUP4 PUSH2 0x54A JUMP JUMPDEST SWAP6 POP DUP1 NOT DUP5 AND SWAP4 POP DUP1 DUP7 AND DUP5 OR SWAP3 POP POP POP SWAP4 SWAP3 POP POP POP JUMP JUMPDEST PUSH1 0x0 DUP2 SWAP1 POP SWAP2 SWAP1 POP JUMP JUMPDEST PUSH1 0x0 DUP2 SWAP1 POP SWAP2 SWAP1 POP JUMP JUMPDEST PUSH1 0x0 PUSH2 0x5D8 PUSH2 0x5D3 PUSH2 0x5CE DUP5 PUSH2 0x5A9 JUMP JUMPDEST PUSH2 0x5B3 JUMP JUMPDEST PUSH2 0x5A9 JUMP JUMPDEST SWAP1 POP SWAP2 SWAP1 POP JUMP JUMPDEST PUSH1 0x0 DUP2 SWAP1 POP SWAP2 SWAP1 POP JUMP JUMPDEST PUSH2 0x5F2 DUP4 PUSH2 0x5BD JUMP JUMPDEST PUSH2 0x606 PUSH2 0x5FE DUP3 PUSH2 0x5DF JUMP JUMPDEST DUP5 DUP5 SLOAD PUSH2 0x557 JUMP JUMPDEST DUP3 SSTORE POP POP POP POP JUMP JUMPDEST PUSH1 0x0 SWAP1 JUMP JUMPDEST PUSH2 0x61B PUSH2 0x60E JUMP JUMPDEST PUSH2 0x626 DUP2 DUP5 DUP5 PUSH2 0x5E9 JUMP JUMPDEST POP POP POP JUMP JUMPDEST JUMPDEST DUP2 DUP2 LT ISZERO PUSH2 0x64A JUMPI PUSH2 0x63F PUSH1 0x0 DUP3 PUSH2 0x613 JUMP JUMPDEST PUSH1 0x1 DUP2 ADD SWAP1 POP PUSH2 0x62C JUMP JUMPDEST POP POP JUMP JUMPDEST PUSH1 0x1F DUP3 GT ISZERO PUSH2 0x68F JUMPI PUSH2 0x660 DUP2 PUSH2 0x525 JUMP JUMPDEST PUSH2 0x669 DUP5 PUSH2 0x53A JUMP JUMPDEST DUP2 ADD PUSH1 0x20 DUP6 LT ISZERO PUSH2 0x678 JUMPI DUP2 SWAP1 POP JUMPDEST PUSH2 0x68C PUSH2 0x684 DUP6 PUSH2 0x53A JUMP JUMPDEST DUP4 ADD DUP3 PUSH2 0x62B JUMP JUMPDEST POP POP JUMPDEST POP POP POP JUMP JUMPDEST PUSH1 0x0 DUP3 DUP3 SHR SWAP1 POP SWAP3 SWAP2 POP POP JUMP JUMPDEST PUSH1 0x0 PUSH2 0x6B2 PUSH1 0x0 NOT DUP5 PUSH1 0x8 MUL PUSH2 0x694 JUMP JUMPDEST NOT DUP1 DUP4 AND SWAP2 POP POP SWAP3 SWAP2 POP POP JUMP JUMPDEST PUSH1 0x0 PUSH2 0x6CB DUP4 DUP4 PUSH2 0x6A1 JUMP JUMPDEST SWAP2 POP DUP3 PUSH1 0x2 MUL DUP3 OR SWAP1 POP SWAP3 SWAP2 POP POP JUMP JUMPDEST PUSH2 0x6E4 DUP3 PUSH2 0x48B JUMP JUMPDEST PUSH8 0xFFFFFFFFFFFFFFFF DUP2 GT ISZERO PUSH2 0x6FD JUMPI PUSH2 0x6FC PUSH2 0x496 JUMP JUMPDEST JUMPDEST PUSH2 0x707 DUP3 SLOAD PUSH2 0x4F4 JUMP JUMPDEST PUSH2 0x712 DUP3 DUP3 DUP6 PUSH2 0x64E JUMP JUMPDEST PUSH1 0x0 PUSH1 0x20 SWAP1 POP PUSH1 0x1F DUP4 GT PUSH1 0x1 DUP2 EQ PUSH2 0x745 JUMPI PUSH1 0x0 DUP5 ISZERO PUSH2 0x733 JUMPI DUP3 DUP8 ADD MLOAD SWAP1 POP JUMPDEST PUSH2 0x73D DUP6 DUP3 PUSH2 0x6BF JUMP JUMPDEST DUP7 SSTORE POP PUSH2 0x7A5 JUMP JUMPDEST PUSH1 0x1F NOT DUP5 AND PUSH2 0x753 DUP7 PUSH2 0x525 JUMP JUMPDEST PUSH1 0x0 JUMPDEST DUP3 DUP2 LT ISZERO PUSH2 0x77B JUMPI DUP5 DUP10 ADD MLOAD DUP3 SSTORE PUSH1 0x1 DUP3 ADD SWAP2 POP PUSH1 0x20 DUP6 ADD SWAP5 POP PUSH1 0x20 DUP2 ADD SWAP1 POP PUSH2 0x756 JUMP JUMPDEST DUP7 DUP4 LT ISZERO PUSH2 0x798 JUMPI DUP5 DUP10 ADD MLOAD PUSH2 0x794 PUSH1 0x1F DUP10 AND DUP3 PUSH2 0x6A1 JUMP JUMPDEST DUP4 SSTORE POP JUMPDEST PUSH1 0x1 PUSH1 0x2 DUP9 MUL ADD DUP9 SSTORE POP POP POP JUMPDEST POP POP POP POP POP POP JUMP JUMPDEST PUSH2 0x1F8F DUP1 PUSH2 0x7BC PUSH1 0x0 CODECOPY PUSH1 0x0 RETURN INVALID PUSH1 0x80 PUSH1 0x40 MSTORE CALLVALUE DUP1 ISZERO PUSH2 0x10 JUMPI PUSH1 0x0 DUP1 REVERT JUMPDEST POP PUSH1 0x4 CALLDATASIZE LT PUSH2 0xCF JUMPI PUSH1 0x0 CALLDATALOAD PUSH1 0xE0 SHR DUP1 PUSH4 0xA85C38EF GT PUSH2 0x8C JUMPI DUP1 PUSH4 0xD3FA59CF GT PUSH2 0x66 JUMPI DUP1 PUSH4 0xD3FA59CF EQ PUSH2 0x216 JUMPI DUP1 PUSH4 0xF2FDE38B EQ PUSH2 0x232 JUMPI DUP1 PUSH4 0xF9F847DD EQ PUSH2 0x24E JUMPI DUP1 PUSH4 0xFA47FD60 EQ PUSH2 0x26C JUMPI PUSH2 0xCF JUMP JUMPDEST DUP1 PUSH4 0xA85C38EF EQ PUSH2 0x196 JUMPI DUP1 PUSH4 0xAE812B97 EQ PUSH2 0x1C8 JUMPI DUP1 PUSH4 0xD09EF241 EQ PUSH2 0x1E6 JUMPI PUSH2 0xCF JUMP JUMPDEST DUP1 PUSH4 0x2FF71F3A EQ PUSH2 0xD4 JUMPI DUP1 PUSH4 0x55A373D6 EQ PUSH2 0x104 JUMPI DUP1 PUSH4 0x5660A053 EQ PUSH2 0x122 JUMPI DUP1 PUSH4 0x715018A6 EQ PUSH2 0x152 JUMPI DUP1 PUSH4 0x8AC7D79C EQ PUSH2 0x15C JUMPI DUP1 PUSH4 0x8DA5CB5B EQ PUSH2 0x178 JUMPI JUMPDEST PUSH1 0x0 DUP1 REVERT JUMPDEST PUSH2 0xEE PUSH1 0x4 DUP1 CALLDATASIZE SUB DUP2 ADD SWAP1 PUSH2 0xE9 SWAP2 SWAP1 PUSH2 0x1141 JUMP JUMPDEST PUSH2 0x288 JUMP JUMPDEST PUSH1 0x40 MLOAD PUSH2 0xFB SWAP2 SWAP1 PUSH2 0x11A5 JUMP JUMPDEST PUSH1 0x40 MLOAD DUP1 SWAP2 SUB SWAP1 RETURN JUMPDEST PUSH2 0x10C PUSH2 0x2BE JUMP JUMPDEST PUSH1 0x40 MLOAD PUSH2 0x119 SWAP2 SWAP1 PUSH2 0x123F JUMP JUMPDEST PUSH1 0x40 MLOAD DUP1 SWAP2 SUB SWAP1 RETURN JUMPDEST PUSH2 0x13C PUSH1 0x4 DUP1 CALLDATASIZE SUB DUP2 ADD SWAP1 PUSH2 0x137 SWAP2 SWAP1 PUSH2 0x1290 JUMP JUMPDEST PUSH2 0x2E4 JUMP JUMPDEST PUSH1 0x40 MLOAD PUSH2 0x149 SWAP2 SWAP1 PUSH2 0x133C JUMP JUMPDEST PUSH1 0x40 MLOAD DUP1 SWAP2 SUB SWAP1 RETURN JUMPDEST PUSH2 0x15A PUSH2 0x390 JUMP JUMPDEST STOP JUMPDEST PUSH2 0x176 PUSH1 0x4 DUP1 CALLDATASIZE SUB DUP2 ADD SWAP1 PUSH2 0x171 SWAP2 SWAP1 PUSH2 0x1290 JUMP JUMPDEST PUSH2 0x3D3 JUMP JUMPDEST STOP JUMPDEST PUSH2 0x180 PUSH2 0x4D6 JUMP JUMPDEST PUSH1 0x40 MLOAD PUSH2 0x18D SWAP2 SWAP1 PUSH2 0x137F JUMP JUMPDEST PUSH1 0x40 MLOAD DUP1 SWAP2 SUB SWAP1 RETURN JUMPDEST PUSH2 0x1B0 PUSH1 0x4 DUP1 CALLDATASIZE SUB DUP2 ADD SWAP1 PUSH2 0x1AB SWAP2 SWAP1 PUSH2 0x1290 JUMP JUMPDEST PUSH2 0x4FF JUMP JUMPDEST PUSH1 0x40 MLOAD PUSH2 0x1BF SWAP4 SWAP3 SWAP2 SWAP1 PUSH2 0x139A JUMP JUMPDEST PUSH1 0x40 MLOAD DUP1 SWAP2 SUB SWAP1 RETURN JUMPDEST PUSH2 0x1D0 PUSH2 0x5EE JUMP JUMPDEST PUSH1 0x40 MLOAD PUSH2 0x1DD SWAP2 SWAP1 PUSH2 0x14E4 JUMP JUMPDEST PUSH1 0x40 MLOAD DUP1 SWAP2 SUB SWAP1 RETURN JUMPDEST PUSH2 0x200 PUSH1 0x4 DUP1 CALLDATASIZE SUB DUP2 ADD SWAP1 PUSH2 0x1FB SWAP2 SWAP1 PUSH2 0x1290 JUMP JUMPDEST PUSH2 0x6C7 JUMP JUMPDEST PUSH1 0x40 MLOAD PUSH2 0x20D SWAP2 SWAP1 PUSH2 0x1574 JUMP JUMPDEST PUSH1 0x40 MLOAD DUP1 SWAP2 SUB SWAP1 RETURN JUMPDEST PUSH2 0x230 PUSH1 0x4 DUP1 CALLDATASIZE SUB DUP2 ADD SWAP1 PUSH2 0x22B SWAP2 SWAP1 PUSH2 0x15C2 JUMP JUMPDEST PUSH2 0x84D JUMP JUMPDEST STOP JUMPDEST PUSH2 0x24C PUSH1 0x4 DUP1 CALLDATASIZE SUB DUP2 ADD SWAP1 PUSH2 0x247 SWAP2 SWAP1 PUSH2 0x164A JUMP JUMPDEST PUSH2 0xAA1 JUMP JUMPDEST STOP JUMPDEST PUSH2 0x256 PUSH2 0xB27 JUMP JUMPDEST PUSH1 0x40 MLOAD PUSH2 0x263 SWAP2 SWAP1 PUSH2 0x1686 JUMP JUMPDEST PUSH1 0x40 MLOAD DUP1 SWAP2 SUB SWAP1 RETURN JUMPDEST PUSH2 0x286 PUSH1 0x4 DUP1 CALLDATASIZE SUB DUP2 ADD SWAP1 PUSH2 0x281 SWAP2 SWAP1 PUSH2 0x1141 JUMP JUMPDEST PUSH2 0xB2D JUMP JUMPDEST STOP JUMPDEST PUSH1 0x4 DUP2 DUP1 MLOAD PUSH1 0x20 DUP2 ADD DUP3 ADD DUP1 MLOAD DUP5 DUP3 MSTORE PUSH1 0x20 DUP4 ADD PUSH1 0x20 DUP6 ADD KECCAK256 DUP2 DUP4 MSTORE DUP1 SWAP6 POP POP POP POP POP POP PUSH1 0x0 SWAP2 POP SLOAD SWAP1 PUSH2 0x100 EXP SWAP1 DIV PUSH1 0xFF AND DUP2 JUMP JUMPDEST PUSH1 0x1 PUSH1 0x0 SWAP1 SLOAD SWAP1 PUSH2 0x100 EXP SWAP1 DIV PUSH20 0xFFFFFFFFFFFFFFFFFFFFFFFFFFFFFFFFFFFFFFFF AND DUP2 JUMP JUMPDEST PUSH1 0x5 DUP2 DUP2 SLOAD DUP2 LT PUSH2 0x2F4 JUMPI PUSH1 0x0 DUP1 REVERT JUMPDEST SWAP1 PUSH1 0x0 MSTORE PUSH1 0x20 PUSH1 0x0 KECCAK256 ADD PUSH1 0x0 SWAP2 POP SWAP1 POP DUP1 SLOAD PUSH2 0x30F SWAP1 PUSH2 0x16D0 JUMP JUMPDEST DUP1 PUSH1 0x1F ADD PUSH1 0x20 DUP1 SWAP2 DIV MUL PUSH1 0x20 ADD PUSH1 0x40 MLOAD SWAP1 DUP2 ADD PUSH1 0x40 MSTORE DUP1 SWAP3 SWAP2 SWAP1 DUP2 DUP2 MSTORE PUSH1 0x20 ADD DUP3 DUP1 SLOAD PUSH2 0x33B SWAP1 PUSH2 0x16D0 JUMP JUMPDEST DUP1 ISZERO PUSH2 0x388 JUMPI DUP1 PUSH1 0x1F LT PUSH2 0x35D JUMPI PUSH2 0x100 DUP1 DUP4 SLOAD DIV MUL DUP4 MSTORE SWAP2 PUSH1 0x20 ADD SWAP2 PUSH2 0x388 JUMP JUMPDEST DUP3 ADD SWAP2 SWAP1 PUSH1 0x0 MSTORE PUSH1 0x20 PUSH1 0x0 KECCAK256 SWAP1 JUMPDEST DUP2 SLOAD DUP2 MSTORE SWAP1 PUSH1 0x1 ADD SWAP1 PUSH1 0x20 ADD DUP1 DUP4 GT PUSH2 0x36B JUMPI DUP3 SWAP1 SUB PUSH1 0x1F AND DUP3 ADD SWAP2 JUMPDEST POP POP POP POP POP DUP2 JUMP JUMPDEST PUSH2 0x398 PUSH2 0xDFE JUMP JUMPDEST PUSH1 0x40 MLOAD PUSH32 0x8C379A000000000000000000000000000000000000000000000000000000000 DUP2 MSTORE PUSH1 0x4 ADD PUSH2 0x3CA SWAP1 PUSH2 0x1773 JUMP JUMPDEST PUSH1 0x40 MLOAD DUP1 SWAP2 SUB SWAP1 REVERT JUMPDEST PUSH2 0x3DB PUSH2 0xDFE JUMP JUMPDEST PUSH1 0x3 DUP1 SLOAD SWAP1 POP DUP2 LT PUSH2 0x422 JUMPI PUSH1 0x40 MLOAD PUSH32 0x8C379A000000000000000000000000000000000000000000000000000000000 DUP2 MSTORE PUSH1 0x4 ADD PUSH2 0x419 SWAP1 PUSH2 0x17DF JUMP JUMPDEST PUSH1 0x40 MLOAD DUP1 SWAP2 SUB SWAP1 REVERT JUMPDEST PUSH1 0x3 DUP2 DUP2 SLOAD DUP2 LT PUSH2 0x436 JUMPI PUSH2 0x435 PUSH2 0x17FF JUMP JUMPDEST JUMPDEST SWAP1 PUSH1 0x0 MSTORE PUSH1 0x20 PUSH1 0x0 KECCAK256 SWAP1 PUSH1 0x3 MUL ADD PUSH1 0x2 ADD PUSH1 0x0 SWAP1 SLOAD SWAP1 PUSH2 0x100 EXP SWAP1 DIV PUSH1 0xFF AND ISZERO PUSH2 0x495 JUMPI PUSH1 0x40 MLOAD PUSH32 0x8C379A000000000000000000000000000000000000000000000000000000000 DUP2 MSTORE PUSH1 0x4 ADD PUSH2 0x48C SWAP1 PUSH2 0x187A JUMP JUMPDEST PUSH1 0x40 MLOAD DUP1 SWAP2 SUB SWAP1 REVERT JUMPDEST PUSH1 0x1 PUSH1 0x3 DUP3 DUP2 SLOAD DUP2 LT PUSH2 0x4AB JUMPI PUSH2 0x4AA PUSH2 0x17FF JUMP JUMPDEST JUMPDEST SWAP1 PUSH1 0x0 MSTORE PUSH1 0x20 PUSH1 0x0 KECCAK256 SWAP1 PUSH1 0x3 MUL ADD PUSH1 0x2 ADD PUSH1 0x0 PUSH2 0x100 EXP DUP2 SLOAD DUP2 PUSH1 0xFF MUL NOT AND SWAP1 DUP4 ISZERO ISZERO MUL OR SWAP1 SSTORE POP POP JUMP JUMPDEST PUSH1 0x0 DUP1 PUSH1 0x0 SWAP1 SLOAD SWAP1 PUSH2 0x100 EXP SWAP1 DIV PUSH20 0xFFFFFFFFFFFFFFFFFFFFFFFFFFFFFFFFFFFFFFFF AND SWAP1 POP SWAP1 JUMP JUMPDEST PUSH1 0x3 DUP2 DUP2 SLOAD DUP2 LT PUSH2 0x50F JUMPI PUSH1 0x0 DUP1 REVERT JUMPDEST SWAP1 PUSH1 0x0 MSTORE PUSH1 0x20 PUSH1 0x0 KECCAK256 SWAP1 PUSH1 0x3 MUL ADD PUSH1 0x0 SWAP2 POP SWAP1 POP DUP1 PUSH1 0x0 ADD PUSH1 0x0 SWAP1 SLOAD SWAP1 PUSH2 0x100 EXP SWAP1 DIV PUSH20 0xFFFFFFFFFFFFFFFFFFFFFFFFFFFFFFFFFFFFFFFF AND SWAP1 DUP1 PUSH1 0x1 ADD DUP1 SLOAD PUSH2 0x558 SWAP1 PUSH2 0x16D0 JUMP JUMPDEST DUP1 PUSH1 0x1F ADD PUSH1 0x20 DUP1 SWAP2 DIV MUL PUSH1 0x20 ADD PUSH1 0x40 MLOAD SWAP1 DUP2 ADD PUSH1 0x40 MSTORE DUP1 SWAP3 SWAP2 SWAP1 DUP2 DUP2 MSTORE PUSH1 0x20 ADD DUP3 DUP1 SLOAD PUSH2 0x584 SWAP1 PUSH2 0x16D0 JUMP JUMPDEST DUP1 ISZERO PUSH2 0x5D1 JUMPI DUP1 PUSH1 0x1F LT PUSH2 0x5A6 JUMPI PUSH2 0x100 DUP1 DUP4 SLOAD DIV MUL DUP4 MSTORE SWAP2 PUSH1 0x20 ADD SWAP2 PUSH2 0x5D1 JUMP JUMPDEST DUP3 ADD SWAP2 SWAP1 PUSH1 0x0 MSTORE PUSH1 0x20 PUSH1 0x0 KECCAK256 SWAP1 JUMPDEST DUP2 SLOAD DUP2 MSTORE SWAP1 PUSH1 0x1 ADD SWAP1 PUSH1 0x20 ADD DUP1 DUP4 GT PUSH2 0x5B4 JUMPI DUP3 SWAP1 SUB PUSH1 0x1F AND DUP3 ADD SWAP2 JUMPDEST POP POP POP POP POP SWAP1 DUP1 PUSH1 0x2 ADD PUSH1 0x0 SWAP1 SLOAD SWAP1 PUSH2 0x100 EXP SWAP1 DIV PUSH1 0xFF AND SWAP1 POP DUP4 JUMP JUMPDEST PUSH1 0x60 PUSH1 0x5 DUP1 SLOAD DUP1 PUSH1 0x20 MUL PUSH1 0x20 ADD PUSH1 0x40 MLOAD SWAP1 DUP2 ADD PUSH1 0x40 MSTORE DUP1 SWAP3 SWAP2 SWAP1 DUP2 DUP2 MSTORE PUSH1 0x20 ADD PUSH1 0x0 SWAP1 JUMPDEST DUP3 DUP3 LT ISZERO PUSH2 0x6BE JUMPI DUP4 DUP3 SWAP1 PUSH1 0x0 MSTORE PUSH1 0x20 PUSH1 0x0 KECCAK256 ADD DUP1 SLOAD PUSH2 0x631 SWAP1 PUSH2 0x16D0 JUMP JUMPDEST DUP1 PUSH1 0x1F ADD PUSH1 0x20 DUP1 SWAP2 DIV MUL PUSH1 0x20 ADD PUSH1 0x40 MLOAD SWAP1 DUP2 ADD PUSH1 0x40 MSTORE DUP1 SWAP3 SWAP2 SWAP1 DUP2 DUP2 MSTORE PUSH1 0x20 ADD DUP3 DUP1 SLOAD PUSH2 0x65D SWAP1 PUSH2 0x16D0 JUMP JUMPDEST DUP1 ISZERO PUSH2 0x6AA JUMPI DUP1 PUSH1 0x1F LT PUSH2 0x67F JUMPI PUSH2 0x100 DUP1 DUP4 SLOAD DIV MUL DUP4 MSTORE SWAP2 PUSH1 0x20 ADD SWAP2 PUSH2 0x6AA JUMP JUMPDEST DUP3 ADD SWAP2 SWAP1 PUSH1 0x0 MSTORE PUSH1 0x20 PUSH1 0x0 KECCAK256 SWAP1 JUMPDEST DUP2 SLOAD DUP2 MSTORE SWAP1 PUSH1 0x1 ADD SWAP1 PUSH1 0x20 ADD DUP1 DUP4 GT PUSH2 0x68D JUMPI DUP3 SWAP1 SUB PUSH1 0x1F AND DUP3 ADD SWAP2 JUMPDEST POP POP POP POP POP DUP2 MSTORE PUSH1 0x20 ADD SWAP1 PUSH1 0x1 ADD SWAP1 PUSH2 0x612 JUMP JUMPDEST POP POP POP POP SWAP1 POP SWAP1 JUMP JUMPDEST PUSH2 0x6CF PUSH2 0xF51 JUMP JUMPDEST PUSH1 0x3 DUP1 SLOAD SWAP1 POP DUP3 LT PUSH2 0x716 JUMPI PUSH1 0x40 MLOAD PUSH32 0x8C379A000000000000000000000000000000000000000000000000000000000 DUP2 MSTORE PUSH1 0x4 ADD PUSH2 0x70D SWAP1 PUSH2 0x17DF JUMP JUMPDEST PUSH1 0x40 MLOAD DUP1 SWAP2 SUB SWAP1 REVERT JUMPDEST PUSH1 0x3 DUP3 DUP2 SLOAD DUP2 LT PUSH2 0x72A JUMPI PUSH2 0x729 PUSH2 0x17FF JUMP JUMPDEST JUMPDEST SWAP1 PUSH1 0x0 MSTORE PUSH1 0x20 PUSH1 0x0 KECCAK256 SWAP1 PUSH1 0x3 MUL ADD PUSH1 0x40 MLOAD DUP1 PUSH1 0x60 ADD PUSH1 0x40 MSTORE SWAP1 DUP2 PUSH1 0x0 DUP3 ADD PUSH1 0x0 SWAP1 SLOAD SWAP1 PUSH2 0x100 EXP SWAP1 DIV PUSH20 0xFFFFFFFFFFFFFFFFFFFFFFFFFFFFFFFFFFFFFFFF AND PUSH20 0xFFFFFFFFFFFFFFFFFFFFFFFFFFFFFFFFFFFFFFFF AND PUSH20 0xFFFFFFFFFFFFFFFFFFFFFFFFFFFFFFFFFFFFFFFF AND DUP2 MSTORE PUSH1 0x20 ADD PUSH1 0x1 DUP3 ADD DUP1 SLOAD PUSH2 0x7A9 SWAP1 PUSH2 0x16D0 JUMP JUMPDEST DUP1 PUSH1 0x1F ADD PUSH1 0x20 DUP1 SWAP2 DIV MUL PUSH1 0x20 ADD PUSH1 0x40 MLOAD SWAP1 DUP2 ADD PUSH1 0x40 MSTORE DUP1 SWAP3 SWAP2 SWAP1 DUP2 DUP2 MSTORE PUSH1 0x20 ADD DUP3 DUP1 SLOAD PUSH2 0x7D5 SWAP1 PUSH2 0x16D0 JUMP JUMPDEST DUP1 ISZERO PUSH2 0x822 JUMPI DUP1 PUSH1 0x1F LT PUSH2 0x7F7 JUMPI PUSH2 0x100 DUP1 DUP4 SLOAD DIV MUL DUP4 MSTORE SWAP2 PUSH1 0x20 ADD SWAP2 PUSH2 0x822 JUMP JUMPDEST DUP3 ADD SWAP2 SWAP1 PUSH1 0x0 MSTORE PUSH1 0x20 PUSH1 0x0 KECCAK256 SWAP1 JUMPDEST DUP2 SLOAD DUP2 MSTORE SWAP1 PUSH1 0x1 ADD SWAP1 PUSH1 0x20 ADD DUP1 DUP4 GT PUSH2 0x805 JUMPI DUP3 SWAP1 SUB PUSH1 0x1F AND DUP3 ADD SWAP2 JUMPDEST POP POP POP POP POP DUP2 MSTORE PUSH1 0x20 ADD PUSH1 0x2 DUP3 ADD PUSH1 0x0 SWAP1 SLOAD SWAP1 PUSH2 0x100 EXP SWAP1 DIV PUSH1 0xFF AND ISZERO ISZERO ISZERO ISZERO DUP2 MSTORE POP POP SWAP1 POP SWAP2 SWAP1 POP JUMP JUMPDEST PUSH2 0x855 PUSH2 0xDFE JUMP JUMPDEST DUP1 PUSH1 0x4 DUP4 PUSH1 0x40 MLOAD PUSH2 0x866 SWAP2 SWAP1 PUSH2 0x18D6 JUMP JUMPDEST SWAP1 DUP2 MSTORE PUSH1 0x20 ADD PUSH1 0x40 MLOAD DUP1 SWAP2 SUB SWAP1 KECCAK256 PUSH1 0x0 PUSH2 0x100 EXP DUP2 SLOAD DUP2 PUSH1 0xFF MUL NOT AND SWAP1 DUP4 ISZERO ISZERO MUL OR SWAP1 SSTORE POP PUSH1 0x0 DUP1 JUMPDEST PUSH1 0x5 DUP1 SLOAD SWAP1 POP DUP2 LT ISZERO PUSH2 0x922 JUMPI DUP4 PUSH1 0x40 MLOAD PUSH1 0x20 ADD PUSH2 0x8AD SWAP2 SWAP1 PUSH2 0x18D6 JUMP JUMPDEST PUSH1 0x40 MLOAD PUSH1 0x20 DUP2 DUP4 SUB SUB DUP2 MSTORE SWAP1 PUSH1 0x40 MSTORE DUP1 MLOAD SWAP1 PUSH1 0x20 ADD KECCAK256 PUSH1 0x5 DUP3 DUP2 SLOAD DUP2 LT PUSH2 0x8D7 JUMPI PUSH2 0x8D6 PUSH2 0x17FF JUMP JUMPDEST JUMPDEST SWAP1 PUSH1 0x0 MSTORE PUSH1 0x20 PUSH1 0x0 KECCAK256 ADD PUSH1 0x40 MLOAD PUSH1 0x20 ADD PUSH2 0x8F1 SWAP2 SWAP1 PUSH2 0x1985 JUMP JUMPDEST PUSH1 0x40 MLOAD PUSH1 0x20 DUP2 DUP4 SUB SUB DUP2 MSTORE SWAP1 PUSH1 0x40 MSTORE DUP1 MLOAD SWAP1 PUSH1 0x20 ADD KECCAK256 SUB PUSH2 0x915 JUMPI PUSH1 0x1 SWAP2 POP PUSH2 0x922 JUMP JUMPDEST DUP1 DUP1 PUSH1 0x1 ADD SWAP2 POP POP PUSH2 0x88F JUMP JUMPDEST POP DUP2 DUP1 ISZERO PUSH2 0x92E JUMPI POP DUP1 ISZERO JUMPDEST ISZERO PUSH2 0x96D JUMPI PUSH1 0x5 DUP4 SWAP1 DUP1 PUSH1 0x1 DUP2 SLOAD ADD DUP1 DUP3 SSTORE DUP1 SWAP2 POP POP PUSH1 0x1 SWAP1 SUB SWAP1 PUSH1 0x0 MSTORE PUSH1 0x20 PUSH1 0x0 KECCAK256 ADD PUSH1 0x0 SWAP1 SWAP2 SWAP1 SWAP2 SWAP1 SWAP2 POP SWAP1 DUP2 PUSH2 0x967 SWAP2 SWAP1 PUSH2 0x1B29 JUMP JUMPDEST POP PUSH2 0xA9C JUMP JUMPDEST DUP2 ISZERO DUP1 ISZERO PUSH2 0x978 JUMPI POP DUP1 JUMPDEST ISZERO PUSH2 0xA9B JUMPI PUSH1 0x0 JUMPDEST PUSH1 0x5 DUP1 SLOAD SWAP1 POP DUP2 LT ISZERO PUSH2 0xA99 JUMPI DUP4 PUSH1 0x40 MLOAD PUSH1 0x20 ADD PUSH2 0x99E SWAP2 SWAP1 PUSH2 0x18D6 JUMP JUMPDEST PUSH1 0x40 MLOAD PUSH1 0x20 DUP2 DUP4 SUB SUB DUP2 MSTORE SWAP1 PUSH1 0x40 MSTORE DUP1 MLOAD SWAP1 PUSH1 0x20 ADD KECCAK256 PUSH1 0x5 DUP3 DUP2 SLOAD DUP2 LT PUSH2 0x9C8 JUMPI PUSH2 0x9C7 PUSH2 0x17FF JUMP JUMPDEST JUMPDEST SWAP1 PUSH1 0x0 MSTORE PUSH1 0x20 PUSH1 0x0 KECCAK256 ADD PUSH1 0x40 MLOAD PUSH1 0x20 ADD PUSH2 0x9E2 SWAP2 SWAP1 PUSH2 0x1985 JUMP JUMPDEST PUSH1 0x40 MLOAD PUSH1 0x20 DUP2 DUP4 SUB SUB DUP2 MSTORE SWAP1 PUSH1 0x40 MSTORE DUP1 MLOAD SWAP1 PUSH1 0x20 ADD KECCAK256 SUB PUSH2 0xA8C JUMPI PUSH1 0x5 PUSH1 0x1 PUSH1 0x5 DUP1 SLOAD SWAP1 POP PUSH2 0xA11 SWAP2 SWAP1 PUSH2 0x1C2A JUMP JUMPDEST DUP2 SLOAD DUP2 LT PUSH2 0xA22 JUMPI PUSH2 0xA21 PUSH2 0x17FF JUMP JUMPDEST JUMPDEST SWAP1 PUSH1 0x0 MSTORE PUSH1 0x20 PUSH1 0x0 KECCAK256 ADD PUSH1 0x5 DUP3 DUP2 SLOAD DUP2 LT PUSH2 0xA40 JUMPI PUSH2 0xA3F PUSH2 0x17FF JUMP JUMPDEST JUMPDEST SWAP1 PUSH1 0x0 MSTORE PUSH1 0x20 PUSH1 0x0 KECCAK256 ADD SWAP1 DUP2 PUSH2 0xA56 SWAP2 SWAP1 PUSH2 0x1C89 JUMP JUMPDEST POP PUSH1 0x5 DUP1 SLOAD DUP1 PUSH2 0xA69 JUMPI PUSH2 0xA68 PUSH2 0x1D71 JUMP JUMPDEST JUMPDEST PUSH1 0x1 SWAP1 SUB DUP2 DUP2 SWAP1 PUSH1 0x0 MSTORE PUSH1 0x20 PUSH1 0x0 KECCAK256 ADD PUSH1 0x0 PUSH2 0xA85 SWAP2 SWAP1 PUSH2 0xF8A JUMP JUMPDEST SWAP1 SSTORE PUSH2 0xA99 JUMP JUMPDEST DUP1 DUP1 PUSH1 0x1 ADD SWAP2 POP POP PUSH2 0x980 JUMP JUMPDEST POP JUMPDEST JUMPDEST POP POP POP JUMP JUMPDEST PUSH2 0xAA9 PUSH2 0xDFE JUMP JUMPDEST PUSH1 0x0 PUSH20 0xFFFFFFFFFFFFFFFFFFFFFFFFFFFFFFFFFFFFFFFF AND DUP2 PUSH20 0xFFFFFFFFFFFFFFFFFFFFFFFFFFFFFFFFFFFFFFFF AND SUB PUSH2 0xB1B JUMPI PUSH1 0x0 PUSH1 0x40 MLOAD PUSH32 0x1E4FBDF700000000000000000000000000000000000000000000000000000000 DUP2 MSTORE PUSH1 0x4 ADD PUSH2 0xB12 SWAP2 SWAP1 PUSH2 0x137F JUMP JUMPDEST PUSH1 0x40 MLOAD DUP1 SWAP2 SUB SWAP1 REVERT JUMPDEST PUSH2 0xB24 DUP2 PUSH2 0xE85 JUMP JUMPDEST POP JUMP JUMPDEST PUSH1 0x2 SLOAD DUP2 JUMP JUMPDEST PUSH1 0x2 SLOAD PUSH1 0x1 PUSH1 0x0 SWAP1 SLOAD SWAP1 PUSH2 0x100 EXP SWAP1 DIV PUSH20 0xFFFFFFFFFFFFFFFFFFFFFFFFFFFFFFFFFFFFFFFF AND PUSH20 0xFFFFFFFFFFFFFFFFFFFFFFFFFFFFFFFFFFFFFFFF AND PUSH4 0x70A08231 CALLER PUSH1 0x40 MLOAD DUP3 PUSH4 0xFFFFFFFF AND PUSH1 0xE0 SHL DUP2 MSTORE PUSH1 0x4 ADD PUSH2 0xB8B SWAP2 SWAP1 PUSH2 0x137F JUMP JUMPDEST PUSH1 0x20 PUSH1 0x40 MLOAD DUP1 DUP4 SUB DUP2 DUP7 GAS STATICCALL ISZERO DUP1 ISZERO PUSH2 0xBA8 JUMPI RETURNDATASIZE PUSH1 0x0 DUP1 RETURNDATACOPY RETURNDATASIZE PUSH1 0x0 REVERT JUMPDEST POP POP POP POP PUSH1 0x40 MLOAD RETURNDATASIZE PUSH1 0x1F NOT PUSH1 0x1F DUP3 ADD AND DUP3 ADD DUP1 PUSH1 0x40 MSTORE POP DUP2 ADD SWAP1 PUSH2 0xBCC SWAP2 SWAP1 PUSH2 0x1DB5 JUMP JUMPDEST LT ISZERO PUSH2 0xC0D JUMPI PUSH1 0x40 MLOAD PUSH32 0x8C379A000000000000000000000000000000000000000000000000000000000 DUP2 MSTORE PUSH1 0x4 ADD PUSH2 0xC04 SWAP1 PUSH2 0x1E54 JUMP JUMPDEST PUSH1 0x40 MLOAD DUP1 SWAP2 SUB SWAP1 REVERT JUMPDEST PUSH1 0x4 DUP2 PUSH1 0x40 MLOAD PUSH2 0xC1D SWAP2 SWAP1 PUSH2 0x18D6 JUMP JUMPDEST SWAP1 DUP2 MSTORE PUSH1 0x20 ADD PUSH1 0x40 MLOAD DUP1 SWAP2 SUB SWAP1 KECCAK256 PUSH1 0x0 SWAP1 SLOAD SWAP1 PUSH2 0x100 EXP SWAP1 DIV PUSH1 0xFF AND PUSH2 0xC78 JUMPI PUSH1 0x40 MLOAD PUSH32 0x8C379A000000000000000000000000000000000000000000000000000000000 DUP2 MSTORE PUSH1 0x4 ADD PUSH2 0xC6F SWAP1 PUSH2 0x1EC0 JUMP JUMPDEST PUSH1 0x40 MLOAD DUP1 SWAP2 SUB SWAP1 REVERT JUMPDEST PUSH1 0x1 PUSH1 0x0 SWAP1 SLOAD SWAP1 PUSH2 0x100 EXP SWAP1 DIV PUSH20 0xFFFFFFFFFFFFFFFFFFFFFFFFFFFFFFFFFFFFFFFF AND PUSH20 0xFFFFFFFFFFFFFFFFFFFFFFFFFFFFFFFFFFFFFFFF AND PUSH4 0x23B872DD CALLER ADDRESS PUSH1 0x2 SLOAD PUSH1 0x40 MLOAD DUP5 PUSH4 0xFFFFFFFF AND PUSH1 0xE0 SHL DUP2 MSTORE PUSH1 0x4 ADD PUSH2 0xCD9 SWAP4 SWAP3 SWAP2 SWAP1 PUSH2 0x1EE0 JUMP JUMPDEST PUSH1 0x20 PUSH1 0x40 MLOAD DUP1 DUP4 SUB DUP2 PUSH1 0x0 DUP8 GAS CALL ISZERO DUP1 ISZERO PUSH2 0xCF8 JUMPI RETURNDATASIZE PUSH1 0x0 DUP1 RETURNDATACOPY RETURNDATASIZE PUSH1 0x0 REVERT JUMPDEST POP POP POP POP PUSH1 0x40 MLOAD RETURNDATASIZE PUSH1 0x1F NOT PUSH1 0x1F DUP3 ADD AND DUP3 ADD DUP1 PUSH1 0x40 MSTORE POP DUP2 ADD SWAP1 PUSH2 0xD1C SWAP2 SWAP1 PUSH2 0x1F2C JUMP JUMPDEST POP PUSH1 0x3 PUSH1 0x40 MLOAD DUP1 PUSH1 0x60 ADD PUSH1 0x40 MSTORE DUP1 CALLER PUSH20 0xFFFFFFFFFFFFFFFFFFFFFFFFFFFFFFFFFFFFFFFF AND DUP2 MSTORE PUSH1 0x20 ADD DUP4 DUP2 MSTORE PUSH1 0x20 ADD PUSH1 0x0 ISZERO ISZERO DUP2 MSTORE POP SWAP1 DUP1 PUSH1 0x1 DUP2 SLOAD ADD DUP1 DUP3 SSTORE DUP1 SWAP2 POP POP PUSH1 0x1 SWAP1 SUB SWAP1 PUSH1 0x0 MSTORE PUSH1 0x20 PUSH1 0x0 KECCAK256 SWAP1 PUSH1 0x3 MUL ADD PUSH1 0x0 SWAP1 SWAP2 SWAP1 SWAP2 SWAP1 SWAP2 POP PUSH1 0x0 DUP3 ADD MLOAD DUP2 PUSH1 0x0 ADD PUSH1 0x0 PUSH2 0x100 EXP DUP2 SLOAD DUP2 PUSH20 0xFFFFFFFFFFFFFFFFFFFFFFFFFFFFFFFFFFFFFFFF MUL NOT AND SWAP1 DUP4 PUSH20 0xFFFFFFFFFFFFFFFFFFFFFFFFFFFFFFFFFFFFFFFF AND MUL OR SWAP1 SSTORE POP PUSH1 0x20 DUP3 ADD MLOAD DUP2 PUSH1 0x1 ADD SWAP1 DUP2 PUSH2 0xDD8 SWAP2 SWAP1 PUSH2 0x1B29 JUMP JUMPDEST POP PUSH1 0x40 DUP3 ADD MLOAD DUP2 PUSH1 0x2 ADD PUSH1 0x0 PUSH2 0x100 EXP DUP2 SLOAD DUP2 PUSH1 0xFF MUL NOT AND SWAP1 DUP4 ISZERO ISZERO MUL OR SWAP1 SSTORE POP POP POP POP JUMP JUMPDEST PUSH2 0xE06 PUSH2 0xF49 JUMP JUMPDEST PUSH20 0xFFFFFFFFFFFFFFFFFFFFFFFFFFFFFFFFFFFFFFFF AND PUSH2 0xE24 PUSH2 0x4D6 JUMP JUMPDEST PUSH20 0xFFFFFFFFFFFFFFFFFFFFFFFFFFFFFFFFFFFFFFFF AND EQ PUSH2 0xE83 JUMPI PUSH2 0xE47 PUSH2 0xF49 JUMP JUMPDEST PUSH1 0x40 MLOAD PUSH32 0x118CDAA700000000000000000000000000000000000000000000000000000000 DUP2 MSTORE PUSH1 0x4 ADD PUSH2 0xE7A SWAP2 SWAP1 PUSH2 0x137F JUMP JUMPDEST PUSH1 0x40 MLOAD DUP1 SWAP2 SUB SWAP1 REVERT JUMPDEST JUMP JUMPDEST PUSH1 0x0 DUP1 PUSH1 0x0 SWAP1 SLOAD SWAP1 PUSH2 0x100 EXP SWAP1 DIV PUSH20 0xFFFFFFFFFFFFFFFFFFFFFFFFFFFFFFFFFFFFFFFF AND SWAP1 POP DUP2 PUSH1 0x0 DUP1 PUSH2 0x100 EXP DUP2 SLOAD DUP2 PUSH20 0xFFFFFFFFFFFFFFFFFFFFFFFFFFFFFFFFFFFFFFFF MUL NOT AND SWAP1 DUP4 PUSH20 0xFFFFFFFFFFFFFFFFFFFFFFFFFFFFFFFFFFFFFFFF AND MUL OR SWAP1 SSTORE POP DUP2 PUSH20 0xFFFFFFFFFFFFFFFFFFFFFFFFFFFFFFFFFFFFFFFF AND DUP2 PUSH20 0xFFFFFFFFFFFFFFFFFFFFFFFFFFFFFFFFFFFFFFFF AND PUSH32 0x8BE0079C531659141344CD1FD0A4F28419497F9722A3DAAFE3B4186F6B6457E0 PUSH1 0x40 MLOAD PUSH1 0x40 MLOAD DUP1 SWAP2 SUB SWAP1 LOG3 POP POP JUMP JUMPDEST PUSH1 0x0 CALLER SWAP1 POP SWAP1 JUMP JUMPDEST PUSH1 0x40 MLOAD DUP1 PUSH1 0x60 ADD PUSH1 0x40 MSTORE DUP1 PUSH1 0x0 PUSH20 0xFFFFFFFFFFFFFFFFFFFFFFFFFFFFFFFFFFFFFFFF AND DUP2 MSTORE PUSH1 0x20 ADD PUSH1 0x60 DUP2 MSTORE PUSH1 0x20 ADD PUSH1 0x0 ISZERO ISZERO DUP2 MSTORE POP SWAP1 JUMP JUMPDEST POP DUP1 SLOAD PUSH2 0xF96 SWAP1 PUSH2 0x16D0 JUMP JUMPDEST PUSH1 0x0 DUP3 SSTORE DUP1 PUSH1 0x1F LT PUSH2 0xFA8 JUMPI POP PUSH2 0xFC7 JUMP JUMPDEST PUSH1 0x1F ADD PUSH1 0x20 SWAP1 DIV SWAP1 PUSH1 0x0 MSTORE PUSH1 0x20 PUSH1 0x0 KECCAK256 SWAP1 DUP2 ADD SWAP1 PUSH2 0xFC6 SWAP2 SWAP1 PUSH2 0xFCA JUMP JUMPDEST JUMPDEST POP JUMP JUMPDEST JUMPDEST DUP1 DUP3 GT ISZERO PUSH2 0xFE3 JUMPI PUSH1 0x0 DUP2 PUSH1 0x0 SWAP1 SSTORE POP PUSH1 0x1 ADD PUSH2 0xFCB JUMP JUMPDEST POP SWAP1 JUMP JUMPDEST PUSH1 0x0 PUSH1 0x40 MLOAD SWAP1 POP SWAP1 JUMP JUMPDEST PUSH1 0x0 DUP1 REVERT JUMPDEST PUSH1 0x0 DUP1 REVERT JUMPDEST PUSH1 0x0 DUP1 REVERT JUMPDEST PUSH1 0x0 DUP1 REVERT JUMPDEST PUSH1 0x0 PUSH1 0x1F NOT PUSH1 0x1F DUP4 ADD AND SWAP1 POP SWAP2 SWAP1 POP JUMP JUMPDEST PUSH32 0x4E487B7100000000000000000000000000000000000000000000000000000000 PUSH1 0x0 MSTORE PUSH1 0x41 PUSH1 0x4 MSTORE PUSH1 0x24 PUSH1 0x0 REVERT JUMPDEST PUSH2 0x104E DUP3 PUSH2 0x1005 JUMP JUMPDEST DUP2 ADD DUP2 DUP2 LT PUSH8 0xFFFFFFFFFFFFFFFF DUP3 GT OR ISZERO PUSH2 0x106D JUMPI PUSH2 0x106C PUSH2 0x1016 JUMP JUMPDEST JUMPDEST DUP1 PUSH1 0x40 MSTORE POP POP POP JUMP JUMPDEST PUSH1 0x0 PUSH2 0x1080 PUSH2 0xFE7 JUMP JUMPDEST SWAP1 POP PUSH2 0x108C DUP3 DUP3 PUSH2 0x1045 JUMP JUMPDEST SWAP2 SWAP1 POP JUMP JUMPDEST PUSH1 0x0 PUSH8 0xFFFFFFFFFFFFFFFF DUP3 GT ISZERO PUSH2 0x10AC JUMPI PUSH2 0x10AB PUSH2 0x1016 JUMP JUMPDEST JUMPDEST PUSH2 0x10B5 DUP3 PUSH2 0x1005 JUMP JUMPDEST SWAP1 POP PUSH1 0x20 DUP2 ADD SWAP1 POP SWAP2 SWAP1 POP JUMP JUMPDEST DUP3 DUP2 DUP4 CALLDATACOPY PUSH1 0x0 DUP4 DUP4 ADD MSTORE POP POP POP JUMP JUMPDEST PUSH1 0x0 PUSH2 0x10E4 PUSH2 0x10DF DUP5 PUSH2 0x1091 JUMP JUMPDEST PUSH2 0x1076 JUMP JUMPDEST SWAP1 POP DUP3 DUP2 MSTORE PUSH1 0x20 DUP2 ADD DUP5 DUP5 DUP5 ADD GT ISZERO PUSH2 0x1100 JUMPI PUSH2 0x10FF PUSH2 0x1000 JUMP JUMPDEST JUMPDEST PUSH2 0x110B DUP5 DUP3 DUP6 PUSH2 0x10C2 JUMP JUMPDEST POP SWAP4 SWAP3 POP POP POP JUMP JUMPDEST PUSH1 0x0 DUP3 PUSH1 0x1F DUP4 ADD SLT PUSH2 0x1128 JUMPI PUSH2 0x1127 PUSH2 0xFFB JUMP JUMPDEST JUMPDEST DUP2 CALLDATALOAD PUSH2 0x1138 DUP5 DUP3 PUSH1 0x20 DUP7 ADD PUSH2 0x10D1 JUMP JUMPDEST SWAP2 POP POP SWAP3 SWAP2 POP POP JUMP JUMPDEST PUSH1 0x0 PUSH1 0x20 DUP3 DUP5 SUB SLT ISZERO PUSH2 0x1157 JUMPI PUSH2 0x1156 PUSH2 0xFF1 JUMP JUMPDEST JUMPDEST PUSH1 0x0 DUP3 ADD CALLDATALOAD PUSH8 0xFFFFFFFFFFFFFFFF DUP2 GT ISZERO PUSH2 0x1175 JUMPI PUSH2 0x1174 PUSH2 0xFF6 JUMP JUMPDEST JUMPDEST PUSH2 0x1181 DUP5 DUP3 DUP6 ADD PUSH2 0x1113 JUMP JUMPDEST SWAP2 POP POP SWAP3 SWAP2 POP POP JUMP JUMPDEST PUSH1 0x0 DUP2 ISZERO ISZERO SWAP1 POP SWAP2 SWAP1 POP JUMP JUMPDEST PUSH2 0x119F DUP2 PUSH2 0x118A JUMP JUMPDEST DUP3 MSTORE POP POP JUMP JUMPDEST PUSH1 0x0 PUSH1 0x20 DUP3 ADD SWAP1 POP PUSH2 0x11BA PUSH1 0x0 DUP4 ADD DUP5 PUSH2 0x1196 JUMP JUMPDEST SWAP3 SWAP2 POP POP JUMP JUMPDEST PUSH1 0x0 PUSH20 0xFFFFFFFFFFFFFFFFFFFFFFFFFFFFFFFFFFFFFFFF DUP3 AND SWAP1 POP SWAP2 SWAP1 POP JUMP JUMPDEST PUSH1 0x0 DUP2 SWAP1 POP SWAP2 SWAP1 POP JUMP JUMPDEST PUSH1 0x0 PUSH2 0x1205 PUSH2 0x1200 PUSH2 0x11FB DUP5 PUSH2 0x11C0 JUMP JUMPDEST PUSH2 0x11E0 JUMP JUMPDEST PUSH2 0x11C0 JUMP JUMPDEST SWAP1 POP SWAP2 SWAP1 POP JUMP JUMPDEST PUSH1 0x0 PUSH2 0x1217 DUP3 PUSH2 0x11EA JUMP JUMPDEST SWAP1 POP SWAP2 SWAP1 POP JUMP JUMPDEST PUSH1 0x0 PUSH2 0x1229 DUP3 PUSH2 0x120C JUMP JUMPDEST SWAP1 POP SWAP2 SWAP1 POP JUMP JUMPDEST PUSH2 0x1239 DUP2 PUSH2 0x121E JUMP JUMPDEST DUP3 MSTORE POP POP JUMP JUMPDEST PUSH1 0x0 PUSH1 0x20 DUP3 ADD SWAP1 POP PUSH2 0x1254 PUSH1 0x0 DUP4 ADD DUP5 PUSH2 0x1230 JUMP JUMPDEST SWAP3 SWAP2 POP POP JUMP JUMPDEST PUSH1 0x0 DUP2 SWAP1 POP SWAP2 SWAP1 POP JUMP JUMPDEST PUSH2 0x126D DUP2 PUSH2 0x125A JUMP JUMPDEST DUP2 EQ PUSH2 0x1278 JUMPI PUSH1 0x0 DUP1 REVERT JUMPDEST POP JUMP JUMPDEST PUSH1 0x0 DUP2 CALLDATALOAD SWAP1 POP PUSH2 0x128A DUP2 PUSH2 0x1264 JUMP JUMPDEST SWAP3 SWAP2 POP POP JUMP JUMPDEST PUSH1 0x0 PUSH1 0x20 DUP3 DUP5 SUB SLT ISZERO PUSH2 0x12A6 JUMPI PUSH2 0x12A5 PUSH2 0xFF1 JUMP JUMPDEST JUMPDEST PUSH1 0x0 PUSH2 0x12B4 DUP5 DUP3 DUP6 ADD PUSH2 0x127B JUMP JUMPDEST SWAP2 POP POP SWAP3 SWAP2 POP POP JUMP JUMPDEST PUSH1 0x0 DUP2 MLOAD SWAP1 POP SWAP2 SWAP1 POP JUMP JUMPDEST PUSH1 0x0 DUP3 DUP3 MSTORE PUSH1 0x20 DUP3 ADD SWAP1 POP SWAP3 SWAP2 POP POP JUMP JUMPDEST PUSH1 0x0 JUMPDEST DUP4 DUP2 LT ISZERO PUSH2 0x12F7 JUMPI DUP1 DUP3 ADD MLOAD DUP2 DUP5 ADD MSTORE PUSH1 0x20 DUP2 ADD SWAP1 POP PUSH2 0x12DC JUMP JUMPDEST PUSH1 0x0 DUP5 DUP5 ADD MSTORE POP POP POP POP JUMP JUMPDEST PUSH1 0x0 PUSH2 0x130E DUP3 PUSH2 0x12BD JUMP JUMPDEST PUSH2 0x1318 DUP2 DUP6 PUSH2 0x12C8 JUMP JUMPDEST SWAP4 POP PUSH2 0x1328 DUP2 DUP6 PUSH1 0x20 DUP7 ADD PUSH2 0x12D9 JUMP JUMPDEST PUSH2 0x1331 DUP2 PUSH2 0x1005 JUMP JUMPDEST DUP5 ADD SWAP2 POP POP SWAP3 SWAP2 POP POP JUMP JUMPDEST PUSH1 0x0 PUSH1 0x20 DUP3 ADD SWAP1 POP DUP2 DUP2 SUB PUSH1 0x0 DUP4 ADD MSTORE PUSH2 0x1356 DUP2 DUP5 PUSH2 0x1303 JUMP JUMPDEST SWAP1 POP SWAP3 SWAP2 POP POP JUMP JUMPDEST PUSH1 0x0 PUSH2 0x1369 DUP3 PUSH2 0x11C0 JUMP JUMPDEST SWAP1 POP SWAP2 SWAP1 POP JUMP JUMPDEST PUSH2 0x1379 DUP2 PUSH2 0x135E JUMP JUMPDEST DUP3 MSTORE POP POP JUMP JUMPDEST PUSH1 0x0 PUSH1 0x20 DUP3 ADD SWAP1 POP PUSH2 0x1394 PUSH1 0x0 DUP4 ADD DUP5 PUSH2 0x1370 JUMP JUMPDEST SWAP3 SWAP2 POP POP JUMP JUMPDEST PUSH1 0x0 PUSH1 0x60 DUP3 ADD SWAP1 POP PUSH2 0x13AF PUSH1 0x0 DUP4 ADD DUP7 PUSH2 0x1370 JUMP JUMPDEST DUP2 DUP2 SUB PUSH1 0x20 DUP4 ADD MSTORE PUSH2 0x13C1 DUP2 DUP6 PUSH2 0x1303 JUMP JUMPDEST SWAP1 POP PUSH2 0x13D0 PUSH1 0x40 DUP4 ADD DUP5 PUSH2 0x1196 JUMP JUMPDEST SWAP5 SWAP4 POP POP POP POP JUMP JUMPDEST PUSH1 0x0 DUP2 MLOAD SWAP1 POP SWAP2 SWAP1 POP JUMP JUMPDEST PUSH1 0x0 DUP3 DUP3 MSTORE PUSH1 0x20 DUP3 ADD SWAP1 POP SWAP3 SWAP2 POP POP JUMP JUMPDEST PUSH1 0x0 DUP2 SWAP1 POP PUSH1 0x20 DUP3 ADD SWAP1 POP SWAP2 SWAP1 POP JUMP JUMPDEST PUSH1 0x0 DUP3 DUP3 MSTORE PUSH1 0x20 DUP3 ADD SWAP1 POP SWAP3 SWAP2 POP POP JUMP JUMPDEST PUSH1 0x0 PUSH2 0x1420 DUP3 PUSH2 0x12BD JUMP JUMPDEST PUSH2 0x142A DUP2 DUP6 PUSH2 0x1404 JUMP JUMPDEST SWAP4 POP PUSH2 0x143A DUP2 DUP6 PUSH1 0x20 DUP7 ADD PUSH2 0x12D9 JUMP JUMPDEST PUSH2 0x1443 DUP2 PUSH2 0x1005 JUMP JUMPDEST DUP5 ADD SWAP2 POP POP SWAP3 SWAP2 POP POP JUMP JUMPDEST PUSH1 0x0 PUSH2 0x145A DUP4 DUP4 PUSH2 0x1415 JUMP JUMPDEST SWAP1 POP SWAP3 SWAP2 POP POP JUMP JUMPDEST PUSH1 0x0 PUSH1 0x20 DUP3 ADD SWAP1 POP SWAP2 SWAP1 POP JUMP JUMPDEST PUSH1 0x0 PUSH2 0x147A DUP3 PUSH2 0x13D8 JUMP JUMPDEST PUSH2 0x1484 DUP2 DUP6 PUSH2 0x13E3 JUMP JUMPDEST SWAP4 POP DUP4 PUSH1 0x20 DUP3 MUL DUP6 ADD PUSH2 0x1496 DUP6 PUSH2 0x13F4 JUMP JUMPDEST DUP1 PUSH1 0x0 JUMPDEST DUP6 DUP2 LT ISZERO PUSH2 0x14D2 JUMPI DUP5 DUP5 SUB DUP10 MSTORE DUP2 MLOAD PUSH2 0x14B3 DUP6 DUP3 PUSH2 0x144E JUMP JUMPDEST SWAP5 POP PUSH2 0x14BE DUP4 PUSH2 0x1462 JUMP JUMPDEST SWAP3 POP PUSH1 0x20 DUP11 ADD SWAP10 POP POP PUSH1 0x1 DUP2 ADD SWAP1 POP PUSH2 0x149A JUMP JUMPDEST POP DUP3 SWAP8 POP DUP8 SWAP6 POP POP POP POP POP POP SWAP3 SWAP2 POP POP JUMP JUMPDEST PUSH1 0x0 PUSH1 0x20 DUP3 ADD SWAP1 POP DUP2 DUP2 SUB PUSH1 0x0 DUP4 ADD MSTORE PUSH2 0x14FE DUP2 DUP5 PUSH2 0x146F JUMP JUMPDEST SWAP1 POP SWAP3 SWAP2 POP POP JUMP JUMPDEST PUSH2 0x150F DUP2 PUSH2 0x135E JUMP JUMPDEST DUP3 MSTORE POP POP JUMP JUMPDEST PUSH2 0x151E DUP2 PUSH2 0x118A JUMP JUMPDEST DUP3 MSTORE POP POP JUMP JUMPDEST PUSH1 0x0 PUSH1 0x60 DUP4 ADD PUSH1 0x0 DUP4 ADD MLOAD PUSH2 0x153C PUSH1 0x0 DUP7 ADD DUP3 PUSH2 0x1506 JUMP JUMPDEST POP PUSH1 0x20 DUP4 ADD MLOAD DUP5 DUP3 SUB PUSH1 0x20 DUP7 ADD MSTORE PUSH2 0x1554 DUP3 DUP3 PUSH2 0x1415 JUMP JUMPDEST SWAP2 POP POP PUSH1 0x40 DUP4 ADD MLOAD PUSH2 0x1569 PUSH1 0x40 DUP7 ADD DUP3 PUSH2 0x1515 JUMP JUMPDEST POP DUP1 SWAP2 POP POP SWAP3 SWAP2 POP POP JUMP JUMPDEST PUSH1 0x0 PUSH1 0x20 DUP3 ADD SWAP1 POP DUP2 DUP2 SUB PUSH1 0x0 DUP4 ADD MSTORE PUSH2 0x158E DUP2 DUP5 PUSH2 0x1524 JUMP JUMPDEST SWAP1 POP SWAP3 SWAP2 POP POP JUMP JUMPDEST PUSH2 0x159F DUP2 PUSH2 0x118A JUMP JUMPDEST DUP2 EQ PUSH2 0x15AA JUMPI PUSH1 0x0 DUP1 REVERT JUMPDEST POP JUMP JUMPDEST PUSH1 0x0 DUP2 CALLDATALOAD SWAP1 POP PUSH2 0x15BC DUP2 PUSH2 0x1596 JUMP JUMPDEST SWAP3 SWAP2 POP POP JUMP JUMPDEST PUSH1 0x0 DUP1 PUSH1 0x40 DUP4 DUP6 SUB SLT ISZERO PUSH2 0x15D9 JUMPI PUSH2 0x15D8 PUSH2 0xFF1 JUMP JUMPDEST JUMPDEST PUSH1 0x0 DUP4 ADD CALLDATALOAD PUSH8 0xFFFFFFFFFFFFFFFF DUP2 GT ISZERO PUSH2 0x15F7 JUMPI PUSH2 0x15F6 PUSH2 0xFF6 JUMP JUMPDEST JUMPDEST PUSH2 0x1603 DUP6 DUP3 DUP7 ADD PUSH2 0x1113 JUMP JUMPDEST SWAP3 POP POP PUSH1 0x20 PUSH2 0x1614 DUP6 DUP3 DUP7 ADD PUSH2 0x15AD JUMP JUMPDEST SWAP2 POP POP SWAP3 POP SWAP3 SWAP1 POP JUMP JUMPDEST PUSH2 0x1627 DUP2 PUSH2 0x135E JUMP JUMPDEST DUP2 EQ PUSH2 0x1632 JUMPI PUSH1 0x0 DUP1 REVERT JUMPDEST POP JUMP JUMPDEST PUSH1 0x0 DUP2 CALLDATALOAD SWAP1 POP PUSH2 0x1644 DUP2 PUSH2 0x161E JUMP JUMPDEST SWAP3 SWAP2 POP POP JUMP JUMPDEST PUSH1 0x0 PUSH1 0x20 DUP3 DUP5 SUB SLT ISZERO PUSH2 0x1660 JUMPI PUSH2 0x165F PUSH2 0xFF1 JUMP JUMPDEST JUMPDEST PUSH1 0x0 PUSH2 0x166E DUP5 DUP3 DUP6 ADD PUSH2 0x1635 JUMP JUMPDEST SWAP2 POP POP SWAP3 SWAP2 POP POP JUMP JUMPDEST PUSH2 0x1680 DUP2 PUSH2 0x125A JUMP JUMPDEST DUP3 MSTORE POP POP JUMP JUMPDEST PUSH1 0x0 PUSH1 0x20 DUP3 ADD SWAP1 POP PUSH2 0x169B PUSH1 0x0 DUP4 ADD DUP5 PUSH2 0x1677 JUMP JUMPDEST SWAP3 SWAP2 POP POP JUMP JUMPDEST PUSH32 0x4E487B7100000000000000000000000000000000000000000000000000000000 PUSH1 0x0 MSTORE PUSH1 0x22 PUSH1 0x4 MSTORE PUSH1 0x24 PUSH1 0x0 REVERT JUMPDEST PUSH1 0x0 PUSH1 0x2 DUP3 DIV SWAP1 POP PUSH1 0x1 DUP3 AND DUP1 PUSH2 0x16E8 JUMPI PUSH1 0x7F DUP3 AND SWAP2 POP JUMPDEST PUSH1 0x20 DUP3 LT DUP2 SUB PUSH2 0x16FB JUMPI PUSH2 0x16FA PUSH2 0x16A1 JUMP JUMPDEST JUMPDEST POP SWAP2 SWAP1 POP JUMP JUMPDEST PUSH32 0x52656E6F756E63696E67206F776E6572736869702069732064697361626C6564 PUSH1 0x0 DUP3 ADD MSTORE PUSH32 0x2E00000000000000000000000000000000000000000000000000000000000000 PUSH1 0x20 DUP3 ADD MSTORE POP JUMP JUMPDEST PUSH1 0x0 PUSH2 0x175D PUSH1 0x21 DUP4 PUSH2 0x12C8 JUMP JUMPDEST SWAP2 POP PUSH2 0x1768 DUP3 PUSH2 0x1701 JUMP JUMPDEST PUSH1 0x40 DUP3 ADD SWAP1 POP SWAP2 SWAP1 POP JUMP JUMPDEST PUSH1 0x0 PUSH1 0x20 DUP3 ADD SWAP1 POP DUP2 DUP2 SUB PUSH1 0x0 DUP4 ADD MSTORE PUSH2 0x178C DUP2 PUSH2 0x1750 JUMP JUMPDEST SWAP1 POP SWAP2 SWAP1 POP JUMP JUMPDEST PUSH32 0x496E76616C6964206F7264657220696E64657800000000000000000000000000 PUSH1 0x0 DUP3 ADD MSTORE POP JUMP JUMPDEST PUSH1 0x0 PUSH2 0x17C9 PUSH1 0x13 DUP4 PUSH2 0x12C8 JUMP JUMPDEST SWAP2 POP PUSH2 0x17D4 DUP3 PUSH2 0x1793 JUMP JUMPDEST PUSH1 0x20 DUP3 ADD SWAP1 POP SWAP2 SWAP1 POP JUMP JUMPDEST PUSH1 0x0 PUSH1 0x20 DUP3 ADD SWAP1 POP DUP2 DUP2 SUB PUSH1 0x0 DUP4 ADD MSTORE PUSH2 0x17F8 DUP2 PUSH2 0x17BC JUMP JUMPDEST SWAP1 POP SWAP2 SWAP1 POP JUMP JUMPDEST PUSH32 0x4E487B7100000000000000000000000000000000000000000000000000000000 PUSH1 0x0 MSTORE PUSH1 0x32 PUSH1 0x4 MSTORE PUSH1 0x24 PUSH1 0x0 REVERT JUMPDEST PUSH32 0x4F7264657220616C72656164792066756C66696C6C6564000000000000000000 PUSH1 0x0 DUP3 ADD MSTORE POP JUMP JUMPDEST PUSH1 0x0 PUSH2 0x1864 PUSH1 0x17 DUP4 PUSH2 0x12C8 JUMP JUMPDEST SWAP2 POP PUSH2 0x186F DUP3 PUSH2 0x182E JUMP JUMPDEST PUSH1 0x20 DUP3 ADD SWAP1 POP SWAP2 SWAP1 POP JUMP JUMPDEST PUSH1 0x0 PUSH1 0x20 DUP3 ADD SWAP1 POP DUP2 DUP2 SUB PUSH1 0x0 DUP4 ADD MSTORE PUSH2 0x1893 DUP2 PUSH2 0x1857 JUMP JUMPDEST SWAP1 POP SWAP2 SWAP1 POP JUMP JUMPDEST PUSH1 0x0 DUP2 SWAP1 POP SWAP3 SWAP2 POP POP JUMP JUMPDEST PUSH1 0x0 PUSH2 0x18B0 DUP3 PUSH2 0x12BD JUMP JUMPDEST PUSH2 0x18BA DUP2 DUP6 PUSH2 0x189A JUMP JUMPDEST SWAP4 POP PUSH2 0x18CA DUP2 DUP6 PUSH1 0x20 DUP7 ADD PUSH2 0x12D9 JUMP JUMPDEST DUP1 DUP5 ADD SWAP2 POP POP SWAP3 SWAP2 POP POP JUMP JUMPDEST PUSH1 0x0 PUSH2 0x18E2 DUP3 DUP5 PUSH2 0x18A5 JUMP JUMPDEST SWAP2 POP DUP2 SWAP1 POP SWAP3 SWAP2 POP POP JUMP JUMPDEST PUSH1 0x0 DUP2 SWAP1 POP DUP2 PUSH1 0x0 MSTORE PUSH1 0x20 PUSH1 0x0 KECCAK256 SWAP1 POP SWAP2 SWAP1 POP JUMP JUMPDEST PUSH1 0x0 DUP2 SLOAD PUSH2 0x190F DUP2 PUSH2 0x16D0 JUMP JUMPDEST PUSH2 0x1919 DUP2 DUP7 PUSH2 0x189A JUMP JUMPDEST SWAP5 POP PUSH1 0x1 DUP3 AND PUSH1 0x0 DUP2 EQ PUSH2 0x1934 JUMPI PUSH1 0x1 DUP2 EQ PUSH2 0x1949 JUMPI PUSH2 0x197C JUMP JUMPDEST PUSH1 0xFF NOT DUP4 AND DUP7 MSTORE DUP2 ISZERO ISZERO DUP3 MUL DUP7 ADD SWAP4 POP PUSH2 0x197C JUMP JUMPDEST PUSH2 0x1952 DUP6 PUSH2 0x18ED JUMP JUMPDEST PUSH1 0x0 JUMPDEST DUP4 DUP2 LT ISZERO PUSH2 0x1974 JUMPI DUP2 SLOAD DUP2 DUP10 ADD MSTORE PUSH1 0x1 DUP3 ADD SWAP2 POP PUSH1 0x20 DUP2 ADD SWAP1 POP PUSH2 0x1955 JUMP JUMPDEST DUP4 DUP9 ADD SWAP6 POP POP POP JUMPDEST POP POP POP SWAP3 SWAP2 POP POP JUMP JUMPDEST PUSH1 0x0 PUSH2 0x1991 DUP3 DUP5 PUSH2 0x1902 JUMP JUMPDEST SWAP2 POP DUP2 SWAP1 POP SWAP3 SWAP2 POP POP JUMP JUMPDEST PUSH1 0x0 PUSH1 0x20 PUSH1 0x1F DUP4 ADD DIV SWAP1 POP SWAP2 SWAP1 POP JUMP JUMPDEST PUSH1 0x0 DUP3 DUP3 SHL SWAP1 POP SWAP3 SWAP2 POP POP JUMP JUMPDEST PUSH1 0x0 PUSH1 0x8 DUP4 MUL PUSH2 0x19E9 PUSH32 0xFFFFFFFFFFFFFFFFFFFFFFFFFFFFFFFFFFFFFFFFFFFFFFFFFFFFFFFFFFFFFFFF DUP3 PUSH2 0x19AC JUMP JUMPDEST PUSH2 0x19F3 DUP7 DUP4 PUSH2 0x19AC JUMP JUMPDEST SWAP6 POP DUP1 NOT DUP5 AND SWAP4 POP DUP1 DUP7 AND DUP5 OR SWAP3 POP POP POP SWAP4 SWAP3 POP POP POP JUMP JUMPDEST PUSH1 0x0 PUSH2 0x1A26 PUSH2 0x1A21 PUSH2 0x1A1C DUP5 PUSH2 0x125A JUMP JUMPDEST PUSH2 0x11E0 JUMP JUMPDEST PUSH2 0x125A JUMP JUMPDEST SWAP1 POP SWAP2 SWAP1 POP JUMP JUMPDEST PUSH1 0x0 DUP2 SWAP1 POP SWAP2 SWAP1 POP JUMP JUMPDEST PUSH2 0x1A40 DUP4 PUSH2 0x1A0B JUMP JUMPDEST PUSH2 0x1A54 PUSH2 0x1A4C DUP3 PUSH2 0x1A2D JUMP JUMPDEST DUP5 DUP5 SLOAD PUSH2 0x19B9 JUMP JUMPDEST DUP3 SSTORE POP POP POP POP JUMP JUMPDEST PUSH1 0x0 SWAP1 JUMP JUMPDEST PUSH2 0x1A69 PUSH2 0x1A5C JUMP JUMPDEST PUSH2 0x1A74 DUP2 DUP5 DUP5 PUSH2 0x1A37 JUMP JUMPDEST POP POP POP JUMP JUMPDEST JUMPDEST DUP2 DUP2 LT ISZERO PUSH2 0x1A98 JUMPI PUSH2 0x1A8D PUSH1 0x0 DUP3 PUSH2 0x1A61 JUMP JUMPDEST PUSH1 0x1 DUP2 ADD SWAP1 POP PUSH2 0x1A7A JUMP JUMPDEST POP POP JUMP JUMPDEST PUSH1 0x1F DUP3 GT ISZERO PUSH2 0x1ADD JUMPI PUSH2 0x1AAE DUP2 PUSH2 0x18ED JUMP JUMPDEST PUSH2 0x1AB7 DUP5 PUSH2 0x199C JUMP JUMPDEST DUP2 ADD PUSH1 0x20 DUP6 LT ISZERO PUSH2 0x1AC6 JUMPI DUP2 SWAP1 POP JUMPDEST PUSH2 0x1ADA PUSH2 0x1AD2 DUP6 PUSH2 0x199C JUMP JUMPDEST DUP4 ADD DUP3 PUSH2 0x1A79 JUMP JUMPDEST POP POP JUMPDEST POP POP POP JUMP JUMPDEST PUSH1 0x0 DUP3 DUP3 SHR SWAP1 POP SWAP3 SWAP2 POP POP JUMP JUMPDEST PUSH1 0x0 PUSH2 0x1B00 PUSH1 0x0 NOT DUP5 PUSH1 0x8 MUL PUSH2 0x1AE2 JUMP JUMPDEST NOT DUP1 DUP4 AND SWAP2 POP POP SWAP3 SWAP2 POP POP JUMP JUMPDEST PUSH1 0x0 PUSH2 0x1B19 DUP4 DUP4 PUSH2 0x1AEF JUMP JUMPDEST SWAP2 POP DUP3 PUSH1 0x2 MUL DUP3 OR SWAP1 POP SWAP3 SWAP2 POP POP JUMP JUMPDEST PUSH2 0x1B32 DUP3 PUSH2 0x12BD JUMP JUMPDEST PUSH8 0xFFFFFFFFFFFFFFFF DUP2 GT ISZERO PUSH2 0x1B4B JUMPI PUSH2 0x1B4A PUSH2 0x1016 JUMP JUMPDEST JUMPDEST PUSH2 0x1B55 DUP3 SLOAD PUSH2 0x16D0 JUMP JUMPDEST PUSH2 0x1B60 DUP3 DUP3 DUP6 PUSH2 0x1A9C JUMP JUMPDEST PUSH1 0x0 PUSH1 0x20 SWAP1 POP PUSH1 0x1F DUP4 GT PUSH1 0x1 DUP2 EQ PUSH2 0x1B93 JUMPI PUSH1 0x0 DUP5 ISZERO PUSH2 0x1B81 JUMPI DUP3 DUP8 ADD MLOAD SWAP1 POP JUMPDEST PUSH2 0x1B8B DUP6 DUP3 PUSH2 0x1B0D JUMP JUMPDEST DUP7 SSTORE POP PUSH2 0x1BF3 JUMP JUMPDEST PUSH1 0x1F NOT DUP5 AND PUSH2 0x1BA1 DUP7 PUSH2 0x18ED JUMP JUMPDEST PUSH1 0x0 JUMPDEST DUP3 DUP2 LT ISZERO PUSH2 0x1BC9 JUMPI DUP5 DUP10 ADD MLOAD DUP3 SSTORE PUSH1 0x1 DUP3 ADD SWAP2 POP PUSH1 0x20 DUP6 ADD SWAP5 POP PUSH1 0x20 DUP2 ADD SWAP1 POP PUSH2 0x1BA4 JUMP JUMPDEST DUP7 DUP4 LT ISZERO PUSH2 0x1BE6 JUMPI DUP5 DUP10 ADD MLOAD PUSH2 0x1BE2 PUSH1 0x1F DUP10 AND DUP3 PUSH2 0x1AEF JUMP JUMPDEST DUP4 SSTORE POP JUMPDEST PUSH1 0x1 PUSH1 0x2 DUP9 MUL ADD DUP9 SSTORE POP POP POP JUMPDEST POP POP POP POP POP POP JUMP JUMPDEST PUSH32 0x4E487B7100000000000000000000000000000000000000000000000000000000 PUSH1 0x0 MSTORE PUSH1 0x11 PUSH1 0x4 MSTORE PUSH1 0x24 PUSH1 0x0 REVERT JUMPDEST PUSH1 0x0 PUSH2 0x1C35 DUP3 PUSH2 0x125A JUMP JUMPDEST SWAP2 POP PUSH2 0x1C40 DUP4 PUSH2 0x125A JUMP JUMPDEST SWAP3 POP DUP3 DUP3 SUB SWAP1 POP DUP2 DUP2 GT ISZERO PUSH2 0x1C58 JUMPI PUSH2 0x1C57 PUSH2 0x1BFB JUMP JUMPDEST JUMPDEST SWAP3 SWAP2 POP POP JUMP JUMPDEST PUSH1 0x0 DUP2 SLOAD SWAP1 POP PUSH2 0x1C6D DUP2 PUSH2 0x16D0 JUMP JUMPDEST SWAP1 POP SWAP2 SWAP1 POP JUMP JUMPDEST PUSH1 0x0 DUP2 SWAP1 POP DUP2 PUSH1 0x0 MSTORE PUSH1 0x20 PUSH1 0x0 KECCAK256 SWAP1 POP SWAP2 SWAP1 POP JUMP JUMPDEST DUP2 DUP2 SUB PUSH2 0x1C97 JUMPI POP POP PUSH2 0x1D6F JUMP JUMPDEST PUSH2 0x1CA0 DUP3 PUSH2 0x1C5E JUMP JUMPDEST PUSH8 0xFFFFFFFFFFFFFFFF DUP2 GT ISZERO PUSH2 0x1CB9 JUMPI PUSH2 0x1CB8 PUSH2 0x1016 JUMP JUMPDEST JUMPDEST PUSH2 0x1CC3 DUP3 SLOAD PUSH2 0x16D0 JUMP JUMPDEST PUSH2 0x1CCE DUP3 DUP3 DUP6 PUSH2 0x1A9C JUMP JUMPDEST PUSH1 0x0 PUSH1 0x1F DUP4 GT PUSH1 0x1 DUP2 EQ PUSH2 0x1CFD JUMPI PUSH1 0x0 DUP5 ISZERO PUSH2 0x1CEB JUMPI DUP3 DUP8 ADD SLOAD SWAP1 POP JUMPDEST PUSH2 0x1CF5 DUP6 DUP3 PUSH2 0x1B0D JUMP JUMPDEST DUP7 SSTORE POP PUSH2 0x1D68 JUMP JUMPDEST PUSH1 0x1F NOT DUP5 AND PUSH2 0x1D0B DUP8 PUSH2 0x1C74 JUMP JUMPDEST SWAP7 POP PUSH2 0x1D16 DUP7 PUSH2 0x18ED JUMP JUMPDEST PUSH1 0x0 JUMPDEST DUP3 DUP2 LT ISZERO PUSH2 0x1D3E JUMPI DUP5 DUP10 ADD SLOAD DUP3 SSTORE PUSH1 0x1 DUP3 ADD SWAP2 POP PUSH1 0x1 DUP6 ADD SWAP5 POP PUSH1 0x20 DUP2 ADD SWAP1 POP PUSH2 0x1D19 JUMP JUMPDEST DUP7 DUP4 LT ISZERO PUSH2 0x1D5B JUMPI DUP5 DUP10 ADD SLOAD PUSH2 0x1D57 PUSH1 0x1F DUP10 AND DUP3 PUSH2 0x1AEF JUMP JUMPDEST DUP4 SSTORE POP JUMPDEST PUSH1 0x1 PUSH1 0x2 DUP9 MUL ADD DUP9 SSTORE POP POP POP JUMPDEST POP POP POP POP POP POP JUMPDEST JUMP JUMPDEST PUSH32 0x4E487B7100000000000000000000000000000000000000000000000000000000 PUSH1 0x0 MSTORE PUSH1 0x31 PUSH1 0x4 MSTORE PUSH1 0x24 PUSH1 0x0 REVERT JUMPDEST PUSH1 0x0 DUP2 MLOAD SWAP1 POP PUSH2 0x1DAF DUP2 PUSH2 0x1264 JUMP JUMPDEST SWAP3 SWAP2 POP POP JUMP JUMPDEST PUSH1 0x0 PUSH1 0x20 DUP3 DUP5 SUB SLT ISZERO PUSH2 0x1DCB JUMPI PUSH2 0x1DCA PUSH2 0xFF1 JUMP JUMPDEST JUMPDEST PUSH1 0x0 PUSH2 0x1DD9 DUP5 DUP3 DUP6 ADD PUSH2 0x1DA0 JUMP JUMPDEST SWAP2 POP POP SWAP3 SWAP2 POP POP JUMP JUMPDEST PUSH32 0x496E73756666696369656E742062616C616E636520746F20706C616365206F72 PUSH1 0x0 DUP3 ADD MSTORE PUSH32 0x6465720000000000000000000000000000000000000000000000000000000000 PUSH1 0x20 DUP3 ADD MSTORE POP JUMP JUMPDEST PUSH1 0x0 PUSH2 0x1E3E PUSH1 0x23 DUP4 PUSH2 0x12C8 JUMP JUMPDEST SWAP2 POP PUSH2 0x1E49 DUP3 PUSH2 0x1DE2 JUMP JUMPDEST PUSH1 0x40 DUP3 ADD SWAP1 POP SWAP2 SWAP1 POP JUMP JUMPDEST PUSH1 0x0 PUSH1 0x20 DUP3 ADD SWAP1 POP DUP2 DUP2 SUB PUSH1 0x0 DUP4 ADD MSTORE PUSH2 0x1E6D DUP2 PUSH2 0x1E31 JUMP JUMPDEST SWAP1 POP SWAP2 SWAP1 POP JUMP JUMPDEST PUSH32 0x496E76616C696420626576657261676520747970650000000000000000000000 PUSH1 0x0 DUP3 ADD MSTORE POP JUMP JUMPDEST PUSH1 0x0 PUSH2 0x1EAA PUSH1 0x15 DUP4 PUSH2 0x12C8 JUMP JUMPDEST SWAP2 POP PUSH2 0x1EB5 DUP3 PUSH2 0x1E74 JUMP JUMPDEST PUSH1 0x20 DUP3 ADD SWAP1 POP SWAP2 SWAP1 POP JUMP JUMPDEST PUSH1 0x0 PUSH1 0x20 DUP3 ADD SWAP1 POP DUP2 DUP2 SUB PUSH1 0x0 DUP4 ADD MSTORE PUSH2 0x1ED9 DUP2 PUSH2 0x1E9D JUMP JUMPDEST SWAP1 POP SWAP2 SWAP1 POP JUMP JUMPDEST PUSH1 0x0 PUSH1 0x60 DUP3 ADD SWAP1 POP PUSH2 0x1EF5 PUSH1 0x0 DUP4 ADD DUP7 PUSH2 0x1370 JUMP JUMPDEST PUSH2 0x1F02 PUSH1 0x20 DUP4 ADD DUP6 PUSH2 0x1370 JUMP JUMPDEST PUSH2 0x1F0F PUSH1 0x40 DUP4 ADD DUP5 PUSH2 0x1677 JUMP JUMPDEST SWAP5 SWAP4 POP POP POP POP JUMP JUMPDEST PUSH1 0x0 DUP2 MLOAD SWAP1 POP PUSH2 0x1F26 DUP2 PUSH2 0x1596 JUMP JUMPDEST SWAP3 SWAP2 POP POP JUMP JUMPDEST PUSH1 0x0 PUSH1 0x20 DUP3 DUP5 SUB SLT ISZERO PUSH2 0x1F42 JUMPI PUSH2 0x1F41 PUSH2 0xFF1 JUMP JUMPDEST JUMPDEST PUSH1 0x0 PUSH2 0x1F50 DUP5 DUP3 DUP6 ADD PUSH2 0x1F17 JUMP JUMPDEST SWAP2 POP POP SWAP3 SWAP2 POP POP JUMP INVALID LOG2 PUSH5 0x6970667358 0x22 SLT KECCAK256 MCOPY SDIV 0xE XOR RETURN 0xDB PUSH1 0xE7 0xC0 CALLVALUE PUSH30 0x67712D4FF90129CFBBF80FADDA581C01E55574786B64736F6C6343000819 STOP CALLER "
				},
				"gasEstimates": {
					"creation": {
						"codeDepositCost": "1615800",
						"executionCost": "infinite",
						"totalCost": "infinite"
					},
					"external": {
						"beverageList(uint256)": "infinite",
						"confirmOrder(uint256)": "infinite",
						"getAllValidBeverages()": "infinite",
						"getOrder(uint256)": "infinite",
						"orderBeverage(string)": "infinite",
						"orders(uint256)": "infinite",
						"owner()": "2633",
						"pricePerBeverage()": "2495",
						"renounceOwnership()": "infinite",
						"setBeverageValidity(string,bool)": "infinite",
						"tokenContract()": "infinite",
						"transferOwnership(address)": "infinite",
						"validBeverages(string)": "infinite"
					}
				},
				"methodIdentifiers": {
					"beverageList(uint256)": "5660a053",
					"confirmOrder(uint256)": "8ac7d79c",
					"getAllValidBeverages()": "ae812b97",
					"getOrder(uint256)": "d09ef241",
					"orderBeverage(string)": "fa47fd60",
					"orders(uint256)": "a85c38ef",
					"owner()": "8da5cb5b",
					"pricePerBeverage()": "f9f847dd",
					"renounceOwnership()": "715018a6",
					"setBeverageValidity(string,bool)": "d3fa59cf",
					"tokenContract()": "55a373d6",
					"transferOwnership(address)": "f2fde38b",
					"validBeverages(string)": "2ff71f3a"
				}
			},
			"storageLayout": {
				"storage": [
					{
						"astId": 8,
						"contract": "contracts/6_Ordering.sol:BeverageOrdering",
						"label": "_owner",
						"offset": 0,
						"slot": "0",
						"type": "t_address"
					},
					{
						"astId": 266,
						"contract": "contracts/6_Ordering.sol:BeverageOrdering",
						"label": "tokenContract",
						"offset": 0,
						"slot": "1",
						"type": "t_contract(IERC20)225"
					},
					{
						"astId": 269,
						"contract": "contracts/6_Ordering.sol:BeverageOrdering",
						"label": "pricePerBeverage",
						"offset": 0,
						"slot": "2",
						"type": "t_uint256"
					},
					{
						"astId": 280,
						"contract": "contracts/6_Ordering.sol:BeverageOrdering",
						"label": "orders",
						"offset": 0,
						"slot": "3",
						"type": "t_array(t_struct(Order)276_storage)dyn_storage"
					},
					{
						"astId": 284,
						"contract": "contracts/6_Ordering.sol:BeverageOrdering",
						"label": "validBeverages",
						"offset": 0,
						"slot": "4",
						"type": "t_mapping(t_string_memory_ptr,t_bool)"
					},
					{
						"astId": 287,
						"contract": "contracts/6_Ordering.sol:BeverageOrdering",
						"label": "beverageList",
						"offset": 0,
						"slot": "5",
						"type": "t_array(t_string_storage)dyn_storage"
					}
				],
				"types": {
					"t_address": {
						"encoding": "inplace",
						"label": "address",
						"numberOfBytes": "20"
					},
					"t_array(t_string_storage)dyn_storage": {
						"base": "t_string_storage",
						"encoding": "dynamic_array",
						"label": "string[]",
						"numberOfBytes": "32"
					},
					"t_array(t_struct(Order)276_storage)dyn_storage": {
						"base": "t_struct(Order)276_storage",
						"encoding": "dynamic_array",
						"label": "struct BeverageOrdering.Order[]",
						"numberOfBytes": "32"
					},
					"t_bool": {
						"encoding": "inplace",
						"label": "bool",
						"numberOfBytes": "1"
					},
					"t_contract(IERC20)225": {
						"encoding": "inplace",
						"label": "contract IERC20",
						"numberOfBytes": "20"
					},
					"t_mapping(t_string_memory_ptr,t_bool)": {
						"encoding": "mapping",
						"key": "t_string_memory_ptr",
						"label": "mapping(string => bool)",
						"numberOfBytes": "32",
						"value": "t_bool"
					},
					"t_string_memory_ptr": {
						"encoding": "bytes",
						"label": "string",
						"numberOfBytes": "32"
					},
					"t_string_storage": {
						"encoding": "bytes",
						"label": "string",
						"numberOfBytes": "32"
					},
					"t_struct(Order)276_storage": {
						"encoding": "inplace",
						"label": "struct BeverageOrdering.Order",
						"members": [
							{
								"astId": 271,
								"contract": "contracts/6_Ordering.sol:BeverageOrdering",
								"label": "customer",
								"offset": 0,
								"slot": "0",
								"type": "t_address"
							},
							{
								"astId": 273,
								"contract": "contracts/6_Ordering.sol:BeverageOrdering",
								"label": "beverage",
								"offset": 0,
								"slot": "1",
								"type": "t_string_storage"
							},
							{
								"astId": 275,
								"contract": "contracts/6_Ordering.sol:BeverageOrdering",
								"label": "fulfilled",
								"offset": 0,
								"slot": "2",
								"type": "t_bool"
							}
						],
						"numberOfBytes": "96"
					},
					"t_uint256": {
						"encoding": "inplace",
						"label": "uint256",
						"numberOfBytes": "32"
					}
				}
			},
			"userdoc": {
				"kind": "user",
				"methods": {},
				"version": 1
			}
		}
	}
}