{
	"data": {
		"bytecode": {
			"linkReferences": {},
			"object": "60806040526001600855348015610014575f80fd5b50336040518060400160405280600681526020017f504c5a4e465400000000000000000000000000000000000000000000000000008152506040518060400160405280600681526020017f504c5a4e46540000000000000000000000000000000000000000000000000000815250815f90816100909190610425565b5080600190816100a09190610425565b5050505f73ffffffffffffffffffffffffffffffffffffffff168173ffffffffffffffffffffffffffffffffffffffff1603610113575f6040517f1e4fbdf700000000000000000000000000000000000000000000000000000000815260040161010a9190610533565b60405180910390fd5b6101228161012860201b60201c565b5061054c565b5f60075f9054906101000a900473ffffffffffffffffffffffffffffffffffffffff1690508160075f6101000a81548173ffffffffffffffffffffffffffffffffffffffff021916908373ffffffffffffffffffffffffffffffffffffffff1602179055508173ffffffffffffffffffffffffffffffffffffffff168173ffffffffffffffffffffffffffffffffffffffff167f8be0079c531659141344cd1fd0a4f28419497f9722a3daafe3b4186f6b6457e060405160405180910390a35050565b5f81519050919050565b7f4e487b71000000000000000000000000000000000000000000000000000000005f52604160045260245ffd5b7f4e487b71000000000000000000000000000000000000000000000000000000005f52602260045260245ffd5b5f600282049050600182168061026657607f821691505b60208210810361027957610278610222565b5b50919050565b5f819050815f5260205f209050919050565b5f6020601f8301049050919050565b5f82821b905092915050565b5f600883026102db7fffffffffffffffffffffffffffffffffffffffffffffffffffffffffffffffff826102a0565b6102e586836102a0565b95508019841693508086168417925050509392505050565b5f819050919050565b5f819050919050565b5f61032961032461031f846102fd565b610306565b6102fd565b9050919050565b5f819050919050565b6103428361030f565b61035661034e82610330565b8484546102ac565b825550505050565b5f90565b61036a61035e565b610375818484610339565b505050565b5b818110156103985761038d5f82610362565b60018101905061037b565b5050565b601f8211156103dd576103ae8161027f565b6103b784610291565b810160208510156103c6578190505b6103da6103d285610291565b83018261037a565b50505b505050565b5f82821c905092915050565b5f6103fd5f19846008026103e2565b1980831691505092915050565b5f61041583836103ee565b9150826002028217905092915050565b61042e826101eb565b67ffffffffffffffff811115610447576104466101f5565b5b610451825461024f565b61045c82828561039c565b5f60209050601f83116001811461048d575f841561047b578287015190505b610485858261040a565b8655506104ec565b601f19841661049b8661027f565b5f5b828110156104c25784890151825560018201915060208501945060208101905061049d565b868310156104df57848901516104db601f8916826103ee565b8355505b6001600288020188555050505b505050505050565b5f73ffffffffffffffffffffffffffffffffffffffff82169050919050565b5f61051d826104f4565b9050919050565b61052d81610513565b82525050565b5f6020820190506105465f830184610524565b92915050565b6129f4806105595f395ff3fe60806040526004361061010c575f3560e01c8063715018a611610094578063b88d4fde11610063578063b88d4fde14610363578063c87b56dd1461038b578063d0e30db0146103c7578063e985e9c5146103d1578063f2fde38b1461040d57610113565b8063715018a6146102d15780638da5cb5b146102e757806395d89b4114610311578063a22cb4651461033b57610113565b806323b872dd116100db57806323b872dd146101e15780633df0805e1461020957806342842e0e146102315780636352211e1461025957806370a082311461029557610113565b806301ffc9a71461011757806306fdde0314610153578063081812fc1461017d578063095ea7b3146101b957610113565b3661011357005b5f80fd5b348015610122575f80fd5b5061013d60048036038101906101389190611b16565b610435565b60405161014a9190611b5b565b60405180910390f35b34801561015e575f80fd5b50610167610495565b6040516101749190611be4565b60405180910390f35b348015610188575f80fd5b506101a3600480360381019061019e9190611c37565b610524565b6040516101b09190611ca1565b60405180910390f35b3480156101c4575f80fd5b506101df60048036038101906101da9190611ce4565b61053f565b005b3480156101ec575f80fd5b5061020760048036038101906102029190611d22565b610582565b005b348015610214575f80fd5b5061022f600480360381019061022a9190611e9e565b6105c5565b005b34801561023c575f80fd5b5061025760048036038101906102529190611d22565b610719565b005b348015610264575f80fd5b5061027f600480360381019061027a9190611c37565b610738565b60405161028c9190611ca1565b60405180910390f35b3480156102a0575f80fd5b506102bb60048036038101906102b69190611ef8565b610749565b6040516102c89190611f32565b60405180910390f35b3480156102dc575f80fd5b506102e56107ff565b005b3480156102f2575f80fd5b506102fb610842565b6040516103089190611ca1565b60405180910390f35b34801561031c575f80fd5b5061032561086a565b6040516103329190611be4565b60405180910390f35b348015610346575f80fd5b50610361600480360381019061035c9190611f75565b6108fa565b005b34801561036e575f80fd5b5061038960048036038101906103849190612051565b61093d565b005b348015610396575f80fd5b506103b160048036038101906103ac9190611c37565b61095a565b6040516103be9190611be4565b60405180910390f35b6103cf610a65565b005b3480156103dc575f80fd5b506103f760048036038101906103f291906120d1565b610a6f565b6040516104049190611b5b565b60405180910390f35b348015610418575f80fd5b50610433600480360381019061042e9190611ef8565b610afd565b005b5f634906490660e01b7bffffffffffffffffffffffffffffffffffffffffffffffffffffffff1916827bffffffffffffffffffffffffffffffffffffffffffffffffffffffff1916148061048e575061048d82610b40565b5b9050919050565b60605f80546104a39061213c565b80601f01602080910402602001604051908101604052809291908181526020018280546104cf9061213c565b801561051a5780601f106104f15761010080835404028352916020019161051a565b820191905f5260205f20905b8154815290600101906020018083116104fd57829003601f168201915b5050505050905090565b5f61052e82610c21565b5061053882610ca7565b9050919050565b610547610ce0565b6040517f08c379a0000000000000000000000000000000000000000000000000000000008152600401610579906121b6565b60405180910390fd5b61058a610ce0565b6040517f08c379a00000000000000000000000000000000000000000000000000000000081526004016105bc90612244565b60405180910390fd5b6105cd610ce0565b670de0b6b3a7640000471015610618576040517f08c379a000000000000000000000000000000000000000000000000000000000815260040161060f906122ac565b60405180910390fd5b5f60085490506106283382610d67565b6106328183610d84565b60085f815480929190610644906122f7565b91905055505f8373ffffffffffffffffffffffffffffffffffffffff16670de0b6b3a76400006040516106769061236b565b5f6040518083038185875af1925050503d805f81146106b0576040519150601f19603f3d011682016040523d82523d5f602084013e6106b5565b606091505b50509050806106f9576040517f08c379a00000000000000000000000000000000000000000000000000000000081526004016106f0906123c9565b60405180910390fd5b61071333858460405180602001604052805f815250610dde565b50505050565b61073383838360405180602001604052805f81525061093d565b505050565b5f61074282610c21565b9050919050565b5f8073ffffffffffffffffffffffffffffffffffffffff168273ffffffffffffffffffffffffffffffffffffffff16036107ba575f6040517f89c62b640000000000000000000000000000000000000000000000000000000081526004016107b19190611ca1565b60405180910390fd5b60035f8373ffffffffffffffffffffffffffffffffffffffff1673ffffffffffffffffffffffffffffffffffffffff1681526020019081526020015f20549050919050565b610807610ce0565b6040517f08c379a000000000000000000000000000000000000000000000000000000000815260040161083990612457565b60405180910390fd5b5f60075f9054906101000a900473ffffffffffffffffffffffffffffffffffffffff16905090565b6060600180546108799061213c565b80601f01602080910402602001604051908101604052809291908181526020018280546108a59061213c565b80156108f05780601f106108c7576101008083540402835291602001916108f0565b820191905f5260205f20905b8154815290600101906020018083116108d357829003601f168201915b5050505050905090565b610902610ce0565b6040517f08c379a0000000000000000000000000000000000000000000000000000000008152600401610934906124e5565b60405180910390fd5b610948848484610582565b61095484848484610dfb565b50505050565b606061096582610c21565b505f60065f8481526020019081526020015f2080546109839061213c565b80601f01602080910402602001604051908101604052809291908181526020018280546109af9061213c565b80156109fa5780601f106109d1576101008083540402835291602001916109fa565b820191905f5260205f20905b8154815290600101906020018083116109dd57829003601f168201915b505050505090505f610a0a610fad565b90505f815103610a1e578192505050610a60565b5f82511115610a52578082604051602001610a3a92919061253d565b60405160208183030381529060405292505050610a60565b610a5b84610fc3565b925050505b919050565b610a6d610ce0565b565b5f60055f8473ffffffffffffffffffffffffffffffffffffffff1673ffffffffffffffffffffffffffffffffffffffff1681526020019081526020015f205f8373ffffffffffffffffffffffffffffffffffffffff1673ffffffffffffffffffffffffffffffffffffffff1681526020019081526020015f205f9054906101000a900460ff16905092915050565b610b05610ce0565b6040517f08c379a0000000000000000000000000000000000000000000000000000000008152600401610b37906125d0565b60405180910390fd5b5f7f80ac58cd000000000000000000000000000000000000000000000000000000007bffffffffffffffffffffffffffffffffffffffffffffffffffffffff1916827bffffffffffffffffffffffffffffffffffffffffffffffffffffffff19161480610c0a57507f5b5e139f000000000000000000000000000000000000000000000000000000007bffffffffffffffffffffffffffffffffffffffffffffffffffffffff1916827bffffffffffffffffffffffffffffffffffffffffffffffffffffffff1916145b80610c1a5750610c1982611029565b5b9050919050565b5f80610c2c83611092565b90505f73ffffffffffffffffffffffffffffffffffffffff168173ffffffffffffffffffffffffffffffffffffffff1603610c9e57826040517f7e273289000000000000000000000000000000000000000000000000000000008152600401610c959190611f32565b60405180910390fd5b80915050919050565b5f60045f8381526020019081526020015f205f9054906101000a900473ffffffffffffffffffffffffffffffffffffffff169050919050565b610ce86110cb565b73ffffffffffffffffffffffffffffffffffffffff16610d06610842565b73ffffffffffffffffffffffffffffffffffffffff1614610d6557610d296110cb565b6040517f118cdaa7000000000000000000000000000000000000000000000000000000008152600401610d5c9190611ca1565b60405180910390fd5b565b610d80828260405180602001604052805f8152506110d2565b5050565b8060065f8481526020019081526020015f209081610da2919061278b565b507ff8e1a15aba9398e019f0b49df1a4fde98ee17ae345cb5f6b5e2c27f5033e8ce782604051610dd29190611f32565b60405180910390a15050565b610de98484846110ed565b610df584848484610dfb565b50505050565b5f8373ffffffffffffffffffffffffffffffffffffffff163b1115610fa7578273ffffffffffffffffffffffffffffffffffffffff1663150b7a02610e3e6110cb565b8685856040518563ffffffff1660e01b8152600401610e6094939291906128ac565b6020604051808303815f875af1925050508015610e9b57506040513d601f19601f82011682018060405250810190610e98919061290a565b60015b610f1c573d805f8114610ec9576040519150601f19603f3d011682016040523d82523d5f602084013e610ece565b606091505b505f815103610f1457836040517f64a0ae92000000000000000000000000000000000000000000000000000000008152600401610f0b9190611ca1565b60405180910390fd5b805181602001fd5b63150b7a0260e01b7bffffffffffffffffffffffffffffffffffffffffffffffffffffffff1916817bffffffffffffffffffffffffffffffffffffffffffffffffffffffff191614610fa557836040517f64a0ae92000000000000000000000000000000000000000000000000000000008152600401610f9c9190611ca1565b60405180910390fd5b505b50505050565b606060405180602001604052805f815250905090565b6060610fce82610c21565b505f610fd8610fad565b90505f815111610ff65760405180602001604052805f815250611021565b8061100084611255565b60405160200161101192919061253d565b6040516020818303038152906040525b915050919050565b5f7f01ffc9a7000000000000000000000000000000000000000000000000000000007bffffffffffffffffffffffffffffffffffffffffffffffffffffffff1916827bffffffffffffffffffffffffffffffffffffffffffffffffffffffff1916149050919050565b5f60025f8381526020019081526020015f205f9054906101000a900473ffffffffffffffffffffffffffffffffffffffff169050919050565b5f33905090565b6110dc838361131f565b6110e85f848484610dfb565b505050565b5f73ffffffffffffffffffffffffffffffffffffffff168273ffffffffffffffffffffffffffffffffffffffff160361115d575f6040517f64a0ae920000000000000000000000000000000000000000000000000000000081526004016111549190611ca1565b60405180910390fd5b5f61116983835f611412565b90505f73ffffffffffffffffffffffffffffffffffffffff168173ffffffffffffffffffffffffffffffffffffffff16036111db57816040517f7e2732890000000000000000000000000000000000000000000000000000000081526004016111d29190611f32565b60405180910390fd5b8373ffffffffffffffffffffffffffffffffffffffff168173ffffffffffffffffffffffffffffffffffffffff161461124f578382826040517f64283d7b00000000000000000000000000000000000000000000000000000000815260040161124693929190612935565b60405180910390fd5b50505050565b60605f60016112638461161d565b0190505f8167ffffffffffffffff81111561128157611280611d7a565b5b6040519080825280601f01601f1916602001820160405280156112b35781602001600182028036833780820191505090505b5090505f82602001820190505b600115611314578080600190039150507f3031323334353637383961626364656600000000000000000000000000000000600a86061a8153600a85816113095761130861296a565b5b0494505f85036112c0575b819350505050919050565b5f73ffffffffffffffffffffffffffffffffffffffff168273ffffffffffffffffffffffffffffffffffffffff160361138f575f6040517f64a0ae920000000000000000000000000000000000000000000000000000000081526004016113869190611ca1565b60405180910390fd5b5f61139b83835f611412565b90505f73ffffffffffffffffffffffffffffffffffffffff168173ffffffffffffffffffffffffffffffffffffffff161461140d575f6040517f73c6ac6e0000000000000000000000000000000000000000000000000000000081526004016114049190611ca1565b60405180910390fd5b505050565b5f8061141d84611092565b90505f73ffffffffffffffffffffffffffffffffffffffff168373ffffffffffffffffffffffffffffffffffffffff161461145e5761145d81848661176e565b5b5f73ffffffffffffffffffffffffffffffffffffffff168173ffffffffffffffffffffffffffffffffffffffff16146114e95761149d5f855f80611831565b600160035f8373ffffffffffffffffffffffffffffffffffffffff1673ffffffffffffffffffffffffffffffffffffffff1681526020019081526020015f205f82825403925050819055505b5f73ffffffffffffffffffffffffffffffffffffffff168573ffffffffffffffffffffffffffffffffffffffff161461156857600160035f8773ffffffffffffffffffffffffffffffffffffffff1673ffffffffffffffffffffffffffffffffffffffff1681526020019081526020015f205f82825401925050819055505b8460025f8681526020019081526020015f205f6101000a81548173ffffffffffffffffffffffffffffffffffffffff021916908373ffffffffffffffffffffffffffffffffffffffff160217905550838573ffffffffffffffffffffffffffffffffffffffff168273ffffffffffffffffffffffffffffffffffffffff167fddf252ad1be2c89b69c2b068fc378daa952ba7f163c4a11628f55a4df523b3ef60405160405180910390a4809150509392505050565b5f805f90507a184f03e93ff9f4daa797ed6e38ed64bf6a1f0100000000000000008310611679577a184f03e93ff9f4daa797ed6e38ed64bf6a1f010000000000000000838161166f5761166e61296a565b5b0492506040810190505b6d04ee2d6d415b85acef810000000083106116b6576d04ee2d6d415b85acef810000000083816116ac576116ab61296a565b5b0492506020810190505b662386f26fc1000083106116e557662386f26fc1000083816116db576116da61296a565b5b0492506010810190505b6305f5e100831061170e576305f5e10083816117045761170361296a565b5b0492506008810190505b61271083106117335761271083816117295761172861296a565b5b0492506004810190505b60648310611756576064838161174c5761174b61296a565b5b0492506002810190505b600a8310611765576001810190505b80915050919050565b6117798383836119f0565b61182c575f73ffffffffffffffffffffffffffffffffffffffff168373ffffffffffffffffffffffffffffffffffffffff16036117ed57806040517f7e2732890000000000000000000000000000000000000000000000000000000081526004016117e49190611f32565b60405180910390fd5b81816040517f177e802f000000000000000000000000000000000000000000000000000000008152600401611823929190612997565b60405180910390fd5b505050565b808061186957505f73ffffffffffffffffffffffffffffffffffffffff168273ffffffffffffffffffffffffffffffffffffffff1614155b1561199b575f61187884610c21565b90505f73ffffffffffffffffffffffffffffffffffffffff168373ffffffffffffffffffffffffffffffffffffffff16141580156118e257508273ffffffffffffffffffffffffffffffffffffffff168173ffffffffffffffffffffffffffffffffffffffff1614155b80156118f557506118f38184610a6f565b155b1561193757826040517fa9fbf51f00000000000000000000000000000000000000000000000000000000815260040161192e9190611ca1565b60405180910390fd5b811561199957838573ffffffffffffffffffffffffffffffffffffffff168273ffffffffffffffffffffffffffffffffffffffff167f8c5be1e5ebec7d5bd14f71427d1e84f3dd0314c0f7b2291e5b200ac8c7c3b92560405160405180910390a45b505b8360045f8581526020019081526020015f205f6101000a81548173ffffffffffffffffffffffffffffffffffffffff021916908373ffffffffffffffffffffffffffffffffffffffff16021790555050505050565b5f8073ffffffffffffffffffffffffffffffffffffffff168373ffffffffffffffffffffffffffffffffffffffff1614158015611aa757508273ffffffffffffffffffffffffffffffffffffffff168473ffffffffffffffffffffffffffffffffffffffff161480611a685750611a678484610a6f565b5b80611aa657508273ffffffffffffffffffffffffffffffffffffffff16611a8e83610ca7565b73ffffffffffffffffffffffffffffffffffffffff16145b5b90509392505050565b5f604051905090565b5f80fd5b5f80fd5b5f7fffffffff0000000000000000000000000000000000000000000000000000000082169050919050565b611af581611ac1565b8114611aff575f80fd5b50565b5f81359050611b1081611aec565b92915050565b5f60208284031215611b2b57611b2a611ab9565b5b5f611b3884828501611b02565b91505092915050565b5f8115159050919050565b611b5581611b41565b82525050565b5f602082019050611b6e5f830184611b4c565b92915050565b5f81519050919050565b5f82825260208201905092915050565b8281835e5f83830152505050565b5f601f19601f8301169050919050565b5f611bb682611b74565b611bc08185611b7e565b9350611bd0818560208601611b8e565b611bd981611b9c565b840191505092915050565b5f6020820190508181035f830152611bfc8184611bac565b905092915050565b5f819050919050565b611c1681611c04565b8114611c20575f80fd5b50565b5f81359050611c3181611c0d565b92915050565b5f60208284031215611c4c57611c4b611ab9565b5b5f611c5984828501611c23565b91505092915050565b5f73ffffffffffffffffffffffffffffffffffffffff82169050919050565b5f611c8b82611c62565b9050919050565b611c9b81611c81565b82525050565b5f602082019050611cb45f830184611c92565b92915050565b611cc381611c81565b8114611ccd575f80fd5b50565b5f81359050611cde81611cba565b92915050565b5f8060408385031215611cfa57611cf9611ab9565b5b5f611d0785828601611cd0565b9250506020611d1885828601611c23565b9150509250929050565b5f805f60608486031215611d3957611d38611ab9565b5b5f611d4686828701611cd0565b9350506020611d5786828701611cd0565b9250506040611d6886828701611c23565b9150509250925092565b5f80fd5b5f80fd5b7f4e487b71000000000000000000000000000000000000000000000000000000005f52604160045260245ffd5b611db082611b9c565b810181811067ffffffffffffffff82111715611dcf57611dce611d7a565b5b80604052505050565b5f611de1611ab0565b9050611ded8282611da7565b919050565b5f67ffffffffffffffff821115611e0c57611e0b611d7a565b5b611e1582611b9c565b9050602081019050919050565b828183375f83830152505050565b5f611e42611e3d84611df2565b611dd8565b905082815260208101848484011115611e5e57611e5d611d76565b5b611e69848285611e22565b509392505050565b5f82601f830112611e8557611e84611d72565b5b8135611e95848260208601611e30565b91505092915050565b5f8060408385031215611eb457611eb3611ab9565b5b5f611ec185828601611cd0565b925050602083013567ffffffffffffffff811115611ee257611ee1611abd565b5b611eee85828601611e71565b9150509250929050565b5f60208284031215611f0d57611f0c611ab9565b5b5f611f1a84828501611cd0565b91505092915050565b611f2c81611c04565b82525050565b5f602082019050611f455f830184611f23565b92915050565b611f5481611b41565b8114611f5e575f80fd5b50565b5f81359050611f6f81611f4b565b92915050565b5f8060408385031215611f8b57611f8a611ab9565b5b5f611f9885828601611cd0565b9250506020611fa985828601611f61565b9150509250929050565b5f67ffffffffffffffff821115611fcd57611fcc611d7a565b5b611fd682611b9c565b9050602081019050919050565b5f611ff5611ff084611fb3565b611dd8565b90508281526020810184848401111561201157612010611d76565b5b61201c848285611e22565b509392505050565b5f82601f83011261203857612037611d72565b5b8135612048848260208601611fe3565b91505092915050565b5f805f806080858703121561206957612068611ab9565b5b5f61207687828801611cd0565b945050602061208787828801611cd0565b935050604061209887828801611c23565b925050606085013567ffffffffffffffff8111156120b9576120b8611abd565b5b6120c587828801612024565b91505092959194509250565b5f80604083850312156120e7576120e6611ab9565b5b5f6120f485828601611cd0565b925050602061210585828601611cd0565b9150509250929050565b7f4e487b71000000000000000000000000000000000000000000000000000000005f52602260045260245ffd5b5f600282049050600182168061215357607f821691505b6020821081036121665761216561210f565b5b50919050565b7f417070726f76652066756e6374696f6e2069732064697361626c65642e0000005f82015250565b5f6121a0601d83611b7e565b91506121ab8261216c565b602082019050919050565b5f6020820190508181035f8301526121cd81612194565b9050919050565b7f5472616e736665722066726f6d2066756e6374696f6e2069732064697361626c5f8201527f65642e0000000000000000000000000000000000000000000000000000000000602082015250565b5f61222e602383611b7e565b9150612239826121d4565b604082019050919050565b5f6020820190508181035f83015261225b81612222565b9050919050565b7f4e6f7420656e6f7567682045544820696e20636f6e74726163740000000000005f82015250565b5f612296601a83611b7e565b91506122a182612262565b602082019050919050565b5f6020820190508181035f8301526122c38161228a565b9050919050565b7f4e487b71000000000000000000000000000000000000000000000000000000005f52601160045260245ffd5b5f61230182611c04565b91507fffffffffffffffffffffffffffffffffffffffffffffffffffffffffffffffff8203612333576123326122ca565b5b600182019050919050565b5f81905092915050565b50565b5f6123565f8361233e565b915061236182612348565b5f82019050919050565b5f6123758261234b565b9150819050919050565b7f4661696c656420746f2073656e642045746865720000000000000000000000005f82015250565b5f6123b3601483611b7e565b91506123be8261237f565b602082019050919050565b5f6020820190508181035f8301526123e0816123a7565b9050919050565b7f52656e6f756e63696e67206f776e6572736869702069732064697361626c65645f8201527f2e00000000000000000000000000000000000000000000000000000000000000602082015250565b5f612441602183611b7e565b915061244c826123e7565b604082019050919050565b5f6020820190508181035f83015261246e81612435565b9050919050565b7f53657420617070726f76616c20666f7220616c6c2066756e6374696f6e2069735f8201527f2064697361626c65642e00000000000000000000000000000000000000000000602082015250565b5f6124cf602a83611b7e565b91506124da82612475565b604082019050919050565b5f6020820190508181035f8301526124fc816124c3565b9050919050565b5f81905092915050565b5f61251782611b74565b6125218185612503565b9350612531818560208601611b8e565b80840191505092915050565b5f612548828561250d565b9150612554828461250d565b91508190509392505050565b7f5472616e73666572206f776e6572736869702066756e6374696f6e20697320645f8201527f697361626c65642e000000000000000000000000000000000000000000000000602082015250565b5f6125ba602883611b7e565b91506125c582612560565b604082019050919050565b5f6020820190508181035f8301526125e7816125ae565b9050919050565b5f819050815f5260205f209050919050565b5f6020601f8301049050919050565b5f82821b905092915050565b5f6008830261264a7fffffffffffffffffffffffffffffffffffffffffffffffffffffffffffffffff8261260f565b612654868361260f565b95508019841693508086168417925050509392505050565b5f819050919050565b5f61268f61268a61268584611c04565b61266c565b611c04565b9050919050565b5f819050919050565b6126a883612675565b6126bc6126b482612696565b84845461261b565b825550505050565b5f90565b6126d06126c4565b6126db81848461269f565b505050565b5b818110156126fe576126f35f826126c8565b6001810190506126e1565b5050565b601f82111561274357612714816125ee565b61271d84612600565b8101602085101561272c578190505b61274061273885612600565b8301826126e0565b50505b505050565b5f82821c905092915050565b5f6127635f1984600802612748565b1980831691505092915050565b5f61277b8383612754565b9150826002028217905092915050565b61279482611b74565b67ffffffffffffffff8111156127ad576127ac611d7a565b5b6127b7825461213c565b6127c2828285612702565b5f60209050601f8311600181146127f3575f84156127e1578287015190505b6127eb8582612770565b865550612852565b601f198416612801866125ee565b5f5b8281101561282857848901518255600182019150602085019450602081019050612803565b868310156128455784890151612841601f891682612754565b8355505b6001600288020188555050505b505050505050565b5f81519050919050565b5f82825260208201905092915050565b5f61287e8261285a565b6128888185612864565b9350612898818560208601611b8e565b6128a181611b9c565b840191505092915050565b5f6080820190506128bf5f830187611c92565b6128cc6020830186611c92565b6128d96040830185611f23565b81810360608301526128eb8184612874565b905095945050505050565b5f8151905061290481611aec565b92915050565b5f6020828403121561291f5761291e611ab9565b5b5f61292c848285016128f6565b91505092915050565b5f6060820190506129485f830186611c92565b6129556020830185611f23565b6129626040830184611c92565b949350505050565b7f4e487b71000000000000000000000000000000000000000000000000000000005f52601260045260245ffd5b5f6040820190506129aa5f830185611c92565b6129b76020830184611f23565b939250505056fea26469706673582212202e46cd492b8963e5770d6bf1b17db8ba5891d1fd5806a75ccf9fea071aa0b6ee64736f6c63430008190033",
			"opcodes": "PUSH1 0x80 PUSH1 0x40 MSTORE PUSH1 0x1 PUSH1 0x8 SSTORE CALLVALUE DUP1 ISZERO PUSH2 0x14 JUMPI PUSH0 DUP1 REVERT JUMPDEST POP CALLER PUSH1 0x40 MLOAD DUP1 PUSH1 0x40 ADD PUSH1 0x40 MSTORE DUP1 PUSH1 0x6 DUP2 MSTORE PUSH1 0x20 ADD PUSH32 0x504C5A4E46540000000000000000000000000000000000000000000000000000 DUP2 MSTORE POP PUSH1 0x40 MLOAD DUP1 PUSH1 0x40 ADD PUSH1 0x40 MSTORE DUP1 PUSH1 0x6 DUP2 MSTORE PUSH1 0x20 ADD PUSH32 0x504C5A4E46540000000000000000000000000000000000000000000000000000 DUP2 MSTORE POP DUP2 PUSH0 SWAP1 DUP2 PUSH2 0x90 SWAP2 SWAP1 PUSH2 0x425 JUMP JUMPDEST POP DUP1 PUSH1 0x1 SWAP1 DUP2 PUSH2 0xA0 SWAP2 SWAP1 PUSH2 0x425 JUMP JUMPDEST POP POP POP PUSH0 PUSH20 0xFFFFFFFFFFFFFFFFFFFFFFFFFFFFFFFFFFFFFFFF AND DUP2 PUSH20 0xFFFFFFFFFFFFFFFFFFFFFFFFFFFFFFFFFFFFFFFF AND SUB PUSH2 0x113 JUMPI PUSH0 PUSH1 0x40 MLOAD PUSH32 0x1E4FBDF700000000000000000000000000000000000000000000000000000000 DUP2 MSTORE PUSH1 0x4 ADD PUSH2 0x10A SWAP2 SWAP1 PUSH2 0x533 JUMP JUMPDEST PUSH1 0x40 MLOAD DUP1 SWAP2 SUB SWAP1 REVERT JUMPDEST PUSH2 0x122 DUP2 PUSH2 0x128 PUSH1 0x20 SHL PUSH1 0x20 SHR JUMP JUMPDEST POP PUSH2 0x54C JUMP JUMPDEST PUSH0 PUSH1 0x7 PUSH0 SWAP1 SLOAD SWAP1 PUSH2 0x100 EXP SWAP1 DIV PUSH20 0xFFFFFFFFFFFFFFFFFFFFFFFFFFFFFFFFFFFFFFFF AND SWAP1 POP DUP2 PUSH1 0x7 PUSH0 PUSH2 0x100 EXP DUP2 SLOAD DUP2 PUSH20 0xFFFFFFFFFFFFFFFFFFFFFFFFFFFFFFFFFFFFFFFF MUL NOT AND SWAP1 DUP4 PUSH20 0xFFFFFFFFFFFFFFFFFFFFFFFFFFFFFFFFFFFFFFFF AND MUL OR SWAP1 SSTORE POP DUP2 PUSH20 0xFFFFFFFFFFFFFFFFFFFFFFFFFFFFFFFFFFFFFFFF AND DUP2 PUSH20 0xFFFFFFFFFFFFFFFFFFFFFFFFFFFFFFFFFFFFFFFF AND PUSH32 0x8BE0079C531659141344CD1FD0A4F28419497F9722A3DAAFE3B4186F6B6457E0 PUSH1 0x40 MLOAD PUSH1 0x40 MLOAD DUP1 SWAP2 SUB SWAP1 LOG3 POP POP JUMP JUMPDEST PUSH0 DUP2 MLOAD SWAP1 POP SWAP2 SWAP1 POP JUMP JUMPDEST PUSH32 0x4E487B7100000000000000000000000000000000000000000000000000000000 PUSH0 MSTORE PUSH1 0x41 PUSH1 0x4 MSTORE PUSH1 0x24 PUSH0 REVERT JUMPDEST PUSH32 0x4E487B7100000000000000000000000000000000000000000000000000000000 PUSH0 MSTORE PUSH1 0x22 PUSH1 0x4 MSTORE PUSH1 0x24 PUSH0 REVERT JUMPDEST PUSH0 PUSH1 0x2 DUP3 DIV SWAP1 POP PUSH1 0x1 DUP3 AND DUP1 PUSH2 0x266 JUMPI PUSH1 0x7F DUP3 AND SWAP2 POP JUMPDEST PUSH1 0x20 DUP3 LT DUP2 SUB PUSH2 0x279 JUMPI PUSH2 0x278 PUSH2 0x222 JUMP JUMPDEST JUMPDEST POP SWAP2 SWAP1 POP JUMP JUMPDEST PUSH0 DUP2 SWAP1 POP DUP2 PUSH0 MSTORE PUSH1 0x20 PUSH0 KECCAK256 SWAP1 POP SWAP2 SWAP1 POP JUMP JUMPDEST PUSH0 PUSH1 0x20 PUSH1 0x1F DUP4 ADD DIV SWAP1 POP SWAP2 SWAP1 POP JUMP JUMPDEST PUSH0 DUP3 DUP3 SHL SWAP1 POP SWAP3 SWAP2 POP POP JUMP JUMPDEST PUSH0 PUSH1 0x8 DUP4 MUL PUSH2 0x2DB PUSH32 0xFFFFFFFFFFFFFFFFFFFFFFFFFFFFFFFFFFFFFFFFFFFFFFFFFFFFFFFFFFFFFFFF DUP3 PUSH2 0x2A0 JUMP JUMPDEST PUSH2 0x2E5 DUP7 DUP4 PUSH2 0x2A0 JUMP JUMPDEST SWAP6 POP DUP1 NOT DUP5 AND SWAP4 POP DUP1 DUP7 AND DUP5 OR SWAP3 POP POP POP SWAP4 SWAP3 POP POP POP JUMP JUMPDEST PUSH0 DUP2 SWAP1 POP SWAP2 SWAP1 POP JUMP JUMPDEST PUSH0 DUP2 SWAP1 POP SWAP2 SWAP1 POP JUMP JUMPDEST PUSH0 PUSH2 0x329 PUSH2 0x324 PUSH2 0x31F DUP5 PUSH2 0x2FD JUMP JUMPDEST PUSH2 0x306 JUMP JUMPDEST PUSH2 0x2FD JUMP JUMPDEST SWAP1 POP SWAP2 SWAP1 POP JUMP JUMPDEST PUSH0 DUP2 SWAP1 POP SWAP2 SWAP1 POP JUMP JUMPDEST PUSH2 0x342 DUP4 PUSH2 0x30F JUMP JUMPDEST PUSH2 0x356 PUSH2 0x34E DUP3 PUSH2 0x330 JUMP JUMPDEST DUP5 DUP5 SLOAD PUSH2 0x2AC JUMP JUMPDEST DUP3 SSTORE POP POP POP POP JUMP JUMPDEST PUSH0 SWAP1 JUMP JUMPDEST PUSH2 0x36A PUSH2 0x35E JUMP JUMPDEST PUSH2 0x375 DUP2 DUP5 DUP5 PUSH2 0x339 JUMP JUMPDEST POP POP POP JUMP JUMPDEST JUMPDEST DUP2 DUP2 LT ISZERO PUSH2 0x398 JUMPI PUSH2 0x38D PUSH0 DUP3 PUSH2 0x362 JUMP JUMPDEST PUSH1 0x1 DUP2 ADD SWAP1 POP PUSH2 0x37B JUMP JUMPDEST POP POP JUMP JUMPDEST PUSH1 0x1F DUP3 GT ISZERO PUSH2 0x3DD JUMPI PUSH2 0x3AE DUP2 PUSH2 0x27F JUMP JUMPDEST PUSH2 0x3B7 DUP5 PUSH2 0x291 JUMP JUMPDEST DUP2 ADD PUSH1 0x20 DUP6 LT ISZERO PUSH2 0x3C6 JUMPI DUP2 SWAP1 POP JUMPDEST PUSH2 0x3DA PUSH2 0x3D2 DUP6 PUSH2 0x291 JUMP JUMPDEST DUP4 ADD DUP3 PUSH2 0x37A JUMP JUMPDEST POP POP JUMPDEST POP POP POP JUMP JUMPDEST PUSH0 DUP3 DUP3 SHR SWAP1 POP SWAP3 SWAP2 POP POP JUMP JUMPDEST PUSH0 PUSH2 0x3FD PUSH0 NOT DUP5 PUSH1 0x8 MUL PUSH2 0x3E2 JUMP JUMPDEST NOT DUP1 DUP4 AND SWAP2 POP POP SWAP3 SWAP2 POP POP JUMP JUMPDEST PUSH0 PUSH2 0x415 DUP4 DUP4 PUSH2 0x3EE JUMP JUMPDEST SWAP2 POP DUP3 PUSH1 0x2 MUL DUP3 OR SWAP1 POP SWAP3 SWAP2 POP POP JUMP JUMPDEST PUSH2 0x42E DUP3 PUSH2 0x1EB JUMP JUMPDEST PUSH8 0xFFFFFFFFFFFFFFFF DUP2 GT ISZERO PUSH2 0x447 JUMPI PUSH2 0x446 PUSH2 0x1F5 JUMP JUMPDEST JUMPDEST PUSH2 0x451 DUP3 SLOAD PUSH2 0x24F JUMP JUMPDEST PUSH2 0x45C DUP3 DUP3 DUP6 PUSH2 0x39C JUMP JUMPDEST PUSH0 PUSH1 0x20 SWAP1 POP PUSH1 0x1F DUP4 GT PUSH1 0x1 DUP2 EQ PUSH2 0x48D JUMPI PUSH0 DUP5 ISZERO PUSH2 0x47B JUMPI DUP3 DUP8 ADD MLOAD SWAP1 POP JUMPDEST PUSH2 0x485 DUP6 DUP3 PUSH2 0x40A JUMP JUMPDEST DUP7 SSTORE POP PUSH2 0x4EC JUMP JUMPDEST PUSH1 0x1F NOT DUP5 AND PUSH2 0x49B DUP7 PUSH2 0x27F JUMP JUMPDEST PUSH0 JUMPDEST DUP3 DUP2 LT ISZERO PUSH2 0x4C2 JUMPI DUP5 DUP10 ADD MLOAD DUP3 SSTORE PUSH1 0x1 DUP3 ADD SWAP2 POP PUSH1 0x20 DUP6 ADD SWAP5 POP PUSH1 0x20 DUP2 ADD SWAP1 POP PUSH2 0x49D JUMP JUMPDEST DUP7 DUP4 LT ISZERO PUSH2 0x4DF JUMPI DUP5 DUP10 ADD MLOAD PUSH2 0x4DB PUSH1 0x1F DUP10 AND DUP3 PUSH2 0x3EE JUMP JUMPDEST DUP4 SSTORE POP JUMPDEST PUSH1 0x1 PUSH1 0x2 DUP9 MUL ADD DUP9 SSTORE POP POP POP JUMPDEST POP POP POP POP POP POP JUMP JUMPDEST PUSH0 PUSH20 0xFFFFFFFFFFFFFFFFFFFFFFFFFFFFFFFFFFFFFFFF DUP3 AND SWAP1 POP SWAP2 SWAP1 POP JUMP JUMPDEST PUSH0 PUSH2 0x51D DUP3 PUSH2 0x4F4 JUMP JUMPDEST SWAP1 POP SWAP2 SWAP1 POP JUMP JUMPDEST PUSH2 0x52D DUP2 PUSH2 0x513 JUMP JUMPDEST DUP3 MSTORE POP POP JUMP JUMPDEST PUSH0 PUSH1 0x20 DUP3 ADD SWAP1 POP PUSH2 0x546 PUSH0 DUP4 ADD DUP5 PUSH2 0x524 JUMP JUMPDEST SWAP3 SWAP2 POP POP JUMP JUMPDEST PUSH2 0x29F4 DUP1 PUSH2 0x559 PUSH0 CODECOPY PUSH0 RETURN INVALID PUSH1 0x80 PUSH1 0x40 MSTORE PUSH1 0x4 CALLDATASIZE LT PUSH2 0x10C JUMPI PUSH0 CALLDATALOAD PUSH1 0xE0 SHR DUP1 PUSH4 0x715018A6 GT PUSH2 0x94 JUMPI DUP1 PUSH4 0xB88D4FDE GT PUSH2 0x63 JUMPI DUP1 PUSH4 0xB88D4FDE EQ PUSH2 0x363 JUMPI DUP1 PUSH4 0xC87B56DD EQ PUSH2 0x38B JUMPI DUP1 PUSH4 0xD0E30DB0 EQ PUSH2 0x3C7 JUMPI DUP1 PUSH4 0xE985E9C5 EQ PUSH2 0x3D1 JUMPI DUP1 PUSH4 0xF2FDE38B EQ PUSH2 0x40D JUMPI PUSH2 0x113 JUMP JUMPDEST DUP1 PUSH4 0x715018A6 EQ PUSH2 0x2D1 JUMPI DUP1 PUSH4 0x8DA5CB5B EQ PUSH2 0x2E7 JUMPI DUP1 PUSH4 0x95D89B41 EQ PUSH2 0x311 JUMPI DUP1 PUSH4 0xA22CB465 EQ PUSH2 0x33B JUMPI PUSH2 0x113 JUMP JUMPDEST DUP1 PUSH4 0x23B872DD GT PUSH2 0xDB JUMPI DUP1 PUSH4 0x23B872DD EQ PUSH2 0x1E1 JUMPI DUP1 PUSH4 0x3DF0805E EQ PUSH2 0x209 JUMPI DUP1 PUSH4 0x42842E0E EQ PUSH2 0x231 JUMPI DUP1 PUSH4 0x6352211E EQ PUSH2 0x259 JUMPI DUP1 PUSH4 0x70A08231 EQ PUSH2 0x295 JUMPI PUSH2 0x113 JUMP JUMPDEST DUP1 PUSH4 0x1FFC9A7 EQ PUSH2 0x117 JUMPI DUP1 PUSH4 0x6FDDE03 EQ PUSH2 0x153 JUMPI DUP1 PUSH4 0x81812FC EQ PUSH2 0x17D JUMPI DUP1 PUSH4 0x95EA7B3 EQ PUSH2 0x1B9 JUMPI PUSH2 0x113 JUMP JUMPDEST CALLDATASIZE PUSH2 0x113 JUMPI STOP JUMPDEST PUSH0 DUP1 REVERT JUMPDEST CALLVALUE DUP1 ISZERO PUSH2 0x122 JUMPI PUSH0 DUP1 REVERT JUMPDEST POP PUSH2 0x13D PUSH1 0x4 DUP1 CALLDATASIZE SUB DUP2 ADD SWAP1 PUSH2 0x138 SWAP2 SWAP1 PUSH2 0x1B16 JUMP JUMPDEST PUSH2 0x435 JUMP JUMPDEST PUSH1 0x40 MLOAD PUSH2 0x14A SWAP2 SWAP1 PUSH2 0x1B5B JUMP JUMPDEST PUSH1 0x40 MLOAD DUP1 SWAP2 SUB SWAP1 RETURN JUMPDEST CALLVALUE DUP1 ISZERO PUSH2 0x15E JUMPI PUSH0 DUP1 REVERT JUMPDEST POP PUSH2 0x167 PUSH2 0x495 JUMP JUMPDEST PUSH1 0x40 MLOAD PUSH2 0x174 SWAP2 SWAP1 PUSH2 0x1BE4 JUMP JUMPDEST PUSH1 0x40 MLOAD DUP1 SWAP2 SUB SWAP1 RETURN JUMPDEST CALLVALUE DUP1 ISZERO PUSH2 0x188 JUMPI PUSH0 DUP1 REVERT JUMPDEST POP PUSH2 0x1A3 PUSH1 0x4 DUP1 CALLDATASIZE SUB DUP2 ADD SWAP1 PUSH2 0x19E SWAP2 SWAP1 PUSH2 0x1C37 JUMP JUMPDEST PUSH2 0x524 JUMP JUMPDEST PUSH1 0x40 MLOAD PUSH2 0x1B0 SWAP2 SWAP1 PUSH2 0x1CA1 JUMP JUMPDEST PUSH1 0x40 MLOAD DUP1 SWAP2 SUB SWAP1 RETURN JUMPDEST CALLVALUE DUP1 ISZERO PUSH2 0x1C4 JUMPI PUSH0 DUP1 REVERT JUMPDEST POP PUSH2 0x1DF PUSH1 0x4 DUP1 CALLDATASIZE SUB DUP2 ADD SWAP1 PUSH2 0x1DA SWAP2 SWAP1 PUSH2 0x1CE4 JUMP JUMPDEST PUSH2 0x53F JUMP JUMPDEST STOP JUMPDEST CALLVALUE DUP1 ISZERO PUSH2 0x1EC JUMPI PUSH0 DUP1 REVERT JUMPDEST POP PUSH2 0x207 PUSH1 0x4 DUP1 CALLDATASIZE SUB DUP2 ADD SWAP1 PUSH2 0x202 SWAP2 SWAP1 PUSH2 0x1D22 JUMP JUMPDEST PUSH2 0x582 JUMP JUMPDEST STOP JUMPDEST CALLVALUE DUP1 ISZERO PUSH2 0x214 JUMPI PUSH0 DUP1 REVERT JUMPDEST POP PUSH2 0x22F PUSH1 0x4 DUP1 CALLDATASIZE SUB DUP2 ADD SWAP1 PUSH2 0x22A SWAP2 SWAP1 PUSH2 0x1E9E JUMP JUMPDEST PUSH2 0x5C5 JUMP JUMPDEST STOP JUMPDEST CALLVALUE DUP1 ISZERO PUSH2 0x23C JUMPI PUSH0 DUP1 REVERT JUMPDEST POP PUSH2 0x257 PUSH1 0x4 DUP1 CALLDATASIZE SUB DUP2 ADD SWAP1 PUSH2 0x252 SWAP2 SWAP1 PUSH2 0x1D22 JUMP JUMPDEST PUSH2 0x719 JUMP JUMPDEST STOP JUMPDEST CALLVALUE DUP1 ISZERO PUSH2 0x264 JUMPI PUSH0 DUP1 REVERT JUMPDEST POP PUSH2 0x27F PUSH1 0x4 DUP1 CALLDATASIZE SUB DUP2 ADD SWAP1 PUSH2 0x27A SWAP2 SWAP1 PUSH2 0x1C37 JUMP JUMPDEST PUSH2 0x738 JUMP JUMPDEST PUSH1 0x40 MLOAD PUSH2 0x28C SWAP2 SWAP1 PUSH2 0x1CA1 JUMP JUMPDEST PUSH1 0x40 MLOAD DUP1 SWAP2 SUB SWAP1 RETURN JUMPDEST CALLVALUE DUP1 ISZERO PUSH2 0x2A0 JUMPI PUSH0 DUP1 REVERT JUMPDEST POP PUSH2 0x2BB PUSH1 0x4 DUP1 CALLDATASIZE SUB DUP2 ADD SWAP1 PUSH2 0x2B6 SWAP2 SWAP1 PUSH2 0x1EF8 JUMP JUMPDEST PUSH2 0x749 JUMP JUMPDEST PUSH1 0x40 MLOAD PUSH2 0x2C8 SWAP2 SWAP1 PUSH2 0x1F32 JUMP JUMPDEST PUSH1 0x40 MLOAD DUP1 SWAP2 SUB SWAP1 RETURN JUMPDEST CALLVALUE DUP1 ISZERO PUSH2 0x2DC JUMPI PUSH0 DUP1 REVERT JUMPDEST POP PUSH2 0x2E5 PUSH2 0x7FF JUMP JUMPDEST STOP JUMPDEST CALLVALUE DUP1 ISZERO PUSH2 0x2F2 JUMPI PUSH0 DUP1 REVERT JUMPDEST POP PUSH2 0x2FB PUSH2 0x842 JUMP JUMPDEST PUSH1 0x40 MLOAD PUSH2 0x308 SWAP2 SWAP1 PUSH2 0x1CA1 JUMP JUMPDEST PUSH1 0x40 MLOAD DUP1 SWAP2 SUB SWAP1 RETURN JUMPDEST CALLVALUE DUP1 ISZERO PUSH2 0x31C JUMPI PUSH0 DUP1 REVERT JUMPDEST POP PUSH2 0x325 PUSH2 0x86A JUMP JUMPDEST PUSH1 0x40 MLOAD PUSH2 0x332 SWAP2 SWAP1 PUSH2 0x1BE4 JUMP JUMPDEST PUSH1 0x40 MLOAD DUP1 SWAP2 SUB SWAP1 RETURN JUMPDEST CALLVALUE DUP1 ISZERO PUSH2 0x346 JUMPI PUSH0 DUP1 REVERT JUMPDEST POP PUSH2 0x361 PUSH1 0x4 DUP1 CALLDATASIZE SUB DUP2 ADD SWAP1 PUSH2 0x35C SWAP2 SWAP1 PUSH2 0x1F75 JUMP JUMPDEST PUSH2 0x8FA JUMP JUMPDEST STOP JUMPDEST CALLVALUE DUP1 ISZERO PUSH2 0x36E JUMPI PUSH0 DUP1 REVERT JUMPDEST POP PUSH2 0x389 PUSH1 0x4 DUP1 CALLDATASIZE SUB DUP2 ADD SWAP1 PUSH2 0x384 SWAP2 SWAP1 PUSH2 0x2051 JUMP JUMPDEST PUSH2 0x93D JUMP JUMPDEST STOP JUMPDEST CALLVALUE DUP1 ISZERO PUSH2 0x396 JUMPI PUSH0 DUP1 REVERT JUMPDEST POP PUSH2 0x3B1 PUSH1 0x4 DUP1 CALLDATASIZE SUB DUP2 ADD SWAP1 PUSH2 0x3AC SWAP2 SWAP1 PUSH2 0x1C37 JUMP JUMPDEST PUSH2 0x95A JUMP JUMPDEST PUSH1 0x40 MLOAD PUSH2 0x3BE SWAP2 SWAP1 PUSH2 0x1BE4 JUMP JUMPDEST PUSH1 0x40 MLOAD DUP1 SWAP2 SUB SWAP1 RETURN JUMPDEST PUSH2 0x3CF PUSH2 0xA65 JUMP JUMPDEST STOP JUMPDEST CALLVALUE DUP1 ISZERO PUSH2 0x3DC JUMPI PUSH0 DUP1 REVERT JUMPDEST POP PUSH2 0x3F7 PUSH1 0x4 DUP1 CALLDATASIZE SUB DUP2 ADD SWAP1 PUSH2 0x3F2 SWAP2 SWAP1 PUSH2 0x20D1 JUMP JUMPDEST PUSH2 0xA6F JUMP JUMPDEST PUSH1 0x40 MLOAD PUSH2 0x404 SWAP2 SWAP1 PUSH2 0x1B5B JUMP JUMPDEST PUSH1 0x40 MLOAD DUP1 SWAP2 SUB SWAP1 RETURN JUMPDEST CALLVALUE DUP1 ISZERO PUSH2 0x418 JUMPI PUSH0 DUP1 REVERT JUMPDEST POP PUSH2 0x433 PUSH1 0x4 DUP1 CALLDATASIZE SUB DUP2 ADD SWAP1 PUSH2 0x42E SWAP2 SWAP1 PUSH2 0x1EF8 JUMP JUMPDEST PUSH2 0xAFD JUMP JUMPDEST STOP JUMPDEST PUSH0 PUSH4 0x49064906 PUSH1 0xE0 SHL PUSH28 0xFFFFFFFFFFFFFFFFFFFFFFFFFFFFFFFFFFFFFFFFFFFFFFFFFFFFFFFF NOT AND DUP3 PUSH28 0xFFFFFFFFFFFFFFFFFFFFFFFFFFFFFFFFFFFFFFFFFFFFFFFFFFFFFFFF NOT AND EQ DUP1 PUSH2 0x48E JUMPI POP PUSH2 0x48D DUP3 PUSH2 0xB40 JUMP JUMPDEST JUMPDEST SWAP1 POP SWAP2 SWAP1 POP JUMP JUMPDEST PUSH1 0x60 PUSH0 DUP1 SLOAD PUSH2 0x4A3 SWAP1 PUSH2 0x213C JUMP JUMPDEST DUP1 PUSH1 0x1F ADD PUSH1 0x20 DUP1 SWAP2 DIV MUL PUSH1 0x20 ADD PUSH1 0x40 MLOAD SWAP1 DUP2 ADD PUSH1 0x40 MSTORE DUP1 SWAP3 SWAP2 SWAP1 DUP2 DUP2 MSTORE PUSH1 0x20 ADD DUP3 DUP1 SLOAD PUSH2 0x4CF SWAP1 PUSH2 0x213C JUMP JUMPDEST DUP1 ISZERO PUSH2 0x51A JUMPI DUP1 PUSH1 0x1F LT PUSH2 0x4F1 JUMPI PUSH2 0x100 DUP1 DUP4 SLOAD DIV MUL DUP4 MSTORE SWAP2 PUSH1 0x20 ADD SWAP2 PUSH2 0x51A JUMP JUMPDEST DUP3 ADD SWAP2 SWAP1 PUSH0 MSTORE PUSH1 0x20 PUSH0 KECCAK256 SWAP1 JUMPDEST DUP2 SLOAD DUP2 MSTORE SWAP1 PUSH1 0x1 ADD SWAP1 PUSH1 0x20 ADD DUP1 DUP4 GT PUSH2 0x4FD JUMPI DUP3 SWAP1 SUB PUSH1 0x1F AND DUP3 ADD SWAP2 JUMPDEST POP POP POP POP POP SWAP1 POP SWAP1 JUMP JUMPDEST PUSH0 PUSH2 0x52E DUP3 PUSH2 0xC21 JUMP JUMPDEST POP PUSH2 0x538 DUP3 PUSH2 0xCA7 JUMP JUMPDEST SWAP1 POP SWAP2 SWAP1 POP JUMP JUMPDEST PUSH2 0x547 PUSH2 0xCE0 JUMP JUMPDEST PUSH1 0x40 MLOAD PUSH32 0x8C379A000000000000000000000000000000000000000000000000000000000 DUP2 MSTORE PUSH1 0x4 ADD PUSH2 0x579 SWAP1 PUSH2 0x21B6 JUMP JUMPDEST PUSH1 0x40 MLOAD DUP1 SWAP2 SUB SWAP1 REVERT JUMPDEST PUSH2 0x58A PUSH2 0xCE0 JUMP JUMPDEST PUSH1 0x40 MLOAD PUSH32 0x8C379A000000000000000000000000000000000000000000000000000000000 DUP2 MSTORE PUSH1 0x4 ADD PUSH2 0x5BC SWAP1 PUSH2 0x2244 JUMP JUMPDEST PUSH1 0x40 MLOAD DUP1 SWAP2 SUB SWAP1 REVERT JUMPDEST PUSH2 0x5CD PUSH2 0xCE0 JUMP JUMPDEST PUSH8 0xDE0B6B3A7640000 SELFBALANCE LT ISZERO PUSH2 0x618 JUMPI PUSH1 0x40 MLOAD PUSH32 0x8C379A000000000000000000000000000000000000000000000000000000000 DUP2 MSTORE PUSH1 0x4 ADD PUSH2 0x60F SWAP1 PUSH2 0x22AC JUMP JUMPDEST PUSH1 0x40 MLOAD DUP1 SWAP2 SUB SWAP1 REVERT JUMPDEST PUSH0 PUSH1 0x8 SLOAD SWAP1 POP PUSH2 0x628 CALLER DUP3 PUSH2 0xD67 JUMP JUMPDEST PUSH2 0x632 DUP2 DUP4 PUSH2 0xD84 JUMP JUMPDEST PUSH1 0x8 PUSH0 DUP2 SLOAD DUP1 SWAP3 SWAP2 SWAP1 PUSH2 0x644 SWAP1 PUSH2 0x22F7 JUMP JUMPDEST SWAP2 SWAP1 POP SSTORE POP PUSH0 DUP4 PUSH20 0xFFFFFFFFFFFFFFFFFFFFFFFFFFFFFFFFFFFFFFFF AND PUSH8 0xDE0B6B3A7640000 PUSH1 0x40 MLOAD PUSH2 0x676 SWAP1 PUSH2 0x236B JUMP JUMPDEST PUSH0 PUSH1 0x40 MLOAD DUP1 DUP4 SUB DUP2 DUP6 DUP8 GAS CALL SWAP3 POP POP POP RETURNDATASIZE DUP1 PUSH0 DUP2 EQ PUSH2 0x6B0 JUMPI PUSH1 0x40 MLOAD SWAP2 POP PUSH1 0x1F NOT PUSH1 0x3F RETURNDATASIZE ADD AND DUP3 ADD PUSH1 0x40 MSTORE RETURNDATASIZE DUP3 MSTORE RETURNDATASIZE PUSH0 PUSH1 0x20 DUP5 ADD RETURNDATACOPY PUSH2 0x6B5 JUMP JUMPDEST PUSH1 0x60 SWAP2 POP JUMPDEST POP POP SWAP1 POP DUP1 PUSH2 0x6F9 JUMPI PUSH1 0x40 MLOAD PUSH32 0x8C379A000000000000000000000000000000000000000000000000000000000 DUP2 MSTORE PUSH1 0x4 ADD PUSH2 0x6F0 SWAP1 PUSH2 0x23C9 JUMP JUMPDEST PUSH1 0x40 MLOAD DUP1 SWAP2 SUB SWAP1 REVERT JUMPDEST PUSH2 0x713 CALLER DUP6 DUP5 PUSH1 0x40 MLOAD DUP1 PUSH1 0x20 ADD PUSH1 0x40 MSTORE DUP1 PUSH0 DUP2 MSTORE POP PUSH2 0xDDE JUMP JUMPDEST POP POP POP POP JUMP JUMPDEST PUSH2 0x733 DUP4 DUP4 DUP4 PUSH1 0x40 MLOAD DUP1 PUSH1 0x20 ADD PUSH1 0x40 MSTORE DUP1 PUSH0 DUP2 MSTORE POP PUSH2 0x93D JUMP JUMPDEST POP POP POP JUMP JUMPDEST PUSH0 PUSH2 0x742 DUP3 PUSH2 0xC21 JUMP JUMPDEST SWAP1 POP SWAP2 SWAP1 POP JUMP JUMPDEST PUSH0 DUP1 PUSH20 0xFFFFFFFFFFFFFFFFFFFFFFFFFFFFFFFFFFFFFFFF AND DUP3 PUSH20 0xFFFFFFFFFFFFFFFFFFFFFFFFFFFFFFFFFFFFFFFF AND SUB PUSH2 0x7BA JUMPI PUSH0 PUSH1 0x40 MLOAD PUSH32 0x89C62B6400000000000000000000000000000000000000000000000000000000 DUP2 MSTORE PUSH1 0x4 ADD PUSH2 0x7B1 SWAP2 SWAP1 PUSH2 0x1CA1 JUMP JUMPDEST PUSH1 0x40 MLOAD DUP1 SWAP2 SUB SWAP1 REVERT JUMPDEST PUSH1 0x3 PUSH0 DUP4 PUSH20 0xFFFFFFFFFFFFFFFFFFFFFFFFFFFFFFFFFFFFFFFF AND PUSH20 0xFFFFFFFFFFFFFFFFFFFFFFFFFFFFFFFFFFFFFFFF AND DUP2 MSTORE PUSH1 0x20 ADD SWAP1 DUP2 MSTORE PUSH1 0x20 ADD PUSH0 KECCAK256 SLOAD SWAP1 POP SWAP2 SWAP1 POP JUMP JUMPDEST PUSH2 0x807 PUSH2 0xCE0 JUMP JUMPDEST PUSH1 0x40 MLOAD PUSH32 0x8C379A000000000000000000000000000000000000000000000000000000000 DUP2 MSTORE PUSH1 0x4 ADD PUSH2 0x839 SWAP1 PUSH2 0x2457 JUMP JUMPDEST PUSH1 0x40 MLOAD DUP1 SWAP2 SUB SWAP1 REVERT JUMPDEST PUSH0 PUSH1 0x7 PUSH0 SWAP1 SLOAD SWAP1 PUSH2 0x100 EXP SWAP1 DIV PUSH20 0xFFFFFFFFFFFFFFFFFFFFFFFFFFFFFFFFFFFFFFFF AND SWAP1 POP SWAP1 JUMP JUMPDEST PUSH1 0x60 PUSH1 0x1 DUP1 SLOAD PUSH2 0x879 SWAP1 PUSH2 0x213C JUMP JUMPDEST DUP1 PUSH1 0x1F ADD PUSH1 0x20 DUP1 SWAP2 DIV MUL PUSH1 0x20 ADD PUSH1 0x40 MLOAD SWAP1 DUP2 ADD PUSH1 0x40 MSTORE DUP1 SWAP3 SWAP2 SWAP1 DUP2 DUP2 MSTORE PUSH1 0x20 ADD DUP3 DUP1 SLOAD PUSH2 0x8A5 SWAP1 PUSH2 0x213C JUMP JUMPDEST DUP1 ISZERO PUSH2 0x8F0 JUMPI DUP1 PUSH1 0x1F LT PUSH2 0x8C7 JUMPI PUSH2 0x100 DUP1 DUP4 SLOAD DIV MUL DUP4 MSTORE SWAP2 PUSH1 0x20 ADD SWAP2 PUSH2 0x8F0 JUMP JUMPDEST DUP3 ADD SWAP2 SWAP1 PUSH0 MSTORE PUSH1 0x20 PUSH0 KECCAK256 SWAP1 JUMPDEST DUP2 SLOAD DUP2 MSTORE SWAP1 PUSH1 0x1 ADD SWAP1 PUSH1 0x20 ADD DUP1 DUP4 GT PUSH2 0x8D3 JUMPI DUP3 SWAP1 SUB PUSH1 0x1F AND DUP3 ADD SWAP2 JUMPDEST POP POP POP POP POP SWAP1 POP SWAP1 JUMP JUMPDEST PUSH2 0x902 PUSH2 0xCE0 JUMP JUMPDEST PUSH1 0x40 MLOAD PUSH32 0x8C379A000000000000000000000000000000000000000000000000000000000 DUP2 MSTORE PUSH1 0x4 ADD PUSH2 0x934 SWAP1 PUSH2 0x24E5 JUMP JUMPDEST PUSH1 0x40 MLOAD DUP1 SWAP2 SUB SWAP1 REVERT JUMPDEST PUSH2 0x948 DUP5 DUP5 DUP5 PUSH2 0x582 JUMP JUMPDEST PUSH2 0x954 DUP5 DUP5 DUP5 DUP5 PUSH2 0xDFB JUMP JUMPDEST POP POP POP POP JUMP JUMPDEST PUSH1 0x60 PUSH2 0x965 DUP3 PUSH2 0xC21 JUMP JUMPDEST POP PUSH0 PUSH1 0x6 PUSH0 DUP5 DUP2 MSTORE PUSH1 0x20 ADD SWAP1 DUP2 MSTORE PUSH1 0x20 ADD PUSH0 KECCAK256 DUP1 SLOAD PUSH2 0x983 SWAP1 PUSH2 0x213C JUMP JUMPDEST DUP1 PUSH1 0x1F ADD PUSH1 0x20 DUP1 SWAP2 DIV MUL PUSH1 0x20 ADD PUSH1 0x40 MLOAD SWAP1 DUP2 ADD PUSH1 0x40 MSTORE DUP1 SWAP3 SWAP2 SWAP1 DUP2 DUP2 MSTORE PUSH1 0x20 ADD DUP3 DUP1 SLOAD PUSH2 0x9AF SWAP1 PUSH2 0x213C JUMP JUMPDEST DUP1 ISZERO PUSH2 0x9FA JUMPI DUP1 PUSH1 0x1F LT PUSH2 0x9D1 JUMPI PUSH2 0x100 DUP1 DUP4 SLOAD DIV MUL DUP4 MSTORE SWAP2 PUSH1 0x20 ADD SWAP2 PUSH2 0x9FA JUMP JUMPDEST DUP3 ADD SWAP2 SWAP1 PUSH0 MSTORE PUSH1 0x20 PUSH0 KECCAK256 SWAP1 JUMPDEST DUP2 SLOAD DUP2 MSTORE SWAP1 PUSH1 0x1 ADD SWAP1 PUSH1 0x20 ADD DUP1 DUP4 GT PUSH2 0x9DD JUMPI DUP3 SWAP1 SUB PUSH1 0x1F AND DUP3 ADD SWAP2 JUMPDEST POP POP POP POP POP SWAP1 POP PUSH0 PUSH2 0xA0A PUSH2 0xFAD JUMP JUMPDEST SWAP1 POP PUSH0 DUP2 MLOAD SUB PUSH2 0xA1E JUMPI DUP2 SWAP3 POP POP POP PUSH2 0xA60 JUMP JUMPDEST PUSH0 DUP3 MLOAD GT ISZERO PUSH2 0xA52 JUMPI DUP1 DUP3 PUSH1 0x40 MLOAD PUSH1 0x20 ADD PUSH2 0xA3A SWAP3 SWAP2 SWAP1 PUSH2 0x253D JUMP JUMPDEST PUSH1 0x40 MLOAD PUSH1 0x20 DUP2 DUP4 SUB SUB DUP2 MSTORE SWAP1 PUSH1 0x40 MSTORE SWAP3 POP POP POP PUSH2 0xA60 JUMP JUMPDEST PUSH2 0xA5B DUP5 PUSH2 0xFC3 JUMP JUMPDEST SWAP3 POP POP POP JUMPDEST SWAP2 SWAP1 POP JUMP JUMPDEST PUSH2 0xA6D PUSH2 0xCE0 JUMP JUMPDEST JUMP JUMPDEST PUSH0 PUSH1 0x5 PUSH0 DUP5 PUSH20 0xFFFFFFFFFFFFFFFFFFFFFFFFFFFFFFFFFFFFFFFF AND PUSH20 0xFFFFFFFFFFFFFFFFFFFFFFFFFFFFFFFFFFFFFFFF AND DUP2 MSTORE PUSH1 0x20 ADD SWAP1 DUP2 MSTORE PUSH1 0x20 ADD PUSH0 KECCAK256 PUSH0 DUP4 PUSH20 0xFFFFFFFFFFFFFFFFFFFFFFFFFFFFFFFFFFFFFFFF AND PUSH20 0xFFFFFFFFFFFFFFFFFFFFFFFFFFFFFFFFFFFFFFFF AND DUP2 MSTORE PUSH1 0x20 ADD SWAP1 DUP2 MSTORE PUSH1 0x20 ADD PUSH0 KECCAK256 PUSH0 SWAP1 SLOAD SWAP1 PUSH2 0x100 EXP SWAP1 DIV PUSH1 0xFF AND SWAP1 POP SWAP3 SWAP2 POP POP JUMP JUMPDEST PUSH2 0xB05 PUSH2 0xCE0 JUMP JUMPDEST PUSH1 0x40 MLOAD PUSH32 0x8C379A000000000000000000000000000000000000000000000000000000000 DUP2 MSTORE PUSH1 0x4 ADD PUSH2 0xB37 SWAP1 PUSH2 0x25D0 JUMP JUMPDEST PUSH1 0x40 MLOAD DUP1 SWAP2 SUB SWAP1 REVERT JUMPDEST PUSH0 PUSH32 0x80AC58CD00000000000000000000000000000000000000000000000000000000 PUSH28 0xFFFFFFFFFFFFFFFFFFFFFFFFFFFFFFFFFFFFFFFFFFFFFFFFFFFFFFFF NOT AND DUP3 PUSH28 0xFFFFFFFFFFFFFFFFFFFFFFFFFFFFFFFFFFFFFFFFFFFFFFFFFFFFFFFF NOT AND EQ DUP1 PUSH2 0xC0A JUMPI POP PUSH32 0x5B5E139F00000000000000000000000000000000000000000000000000000000 PUSH28 0xFFFFFFFFFFFFFFFFFFFFFFFFFFFFFFFFFFFFFFFFFFFFFFFFFFFFFFFF NOT AND DUP3 PUSH28 0xFFFFFFFFFFFFFFFFFFFFFFFFFFFFFFFFFFFFFFFFFFFFFFFFFFFFFFFF NOT AND EQ JUMPDEST DUP1 PUSH2 0xC1A JUMPI POP PUSH2 0xC19 DUP3 PUSH2 0x1029 JUMP JUMPDEST JUMPDEST SWAP1 POP SWAP2 SWAP1 POP JUMP JUMPDEST PUSH0 DUP1 PUSH2 0xC2C DUP4 PUSH2 0x1092 JUMP JUMPDEST SWAP1 POP PUSH0 PUSH20 0xFFFFFFFFFFFFFFFFFFFFFFFFFFFFFFFFFFFFFFFF AND DUP2 PUSH20 0xFFFFFFFFFFFFFFFFFFFFFFFFFFFFFFFFFFFFFFFF AND SUB PUSH2 0xC9E JUMPI DUP3 PUSH1 0x40 MLOAD PUSH32 0x7E27328900000000000000000000000000000000000000000000000000000000 DUP2 MSTORE PUSH1 0x4 ADD PUSH2 0xC95 SWAP2 SWAP1 PUSH2 0x1F32 JUMP JUMPDEST PUSH1 0x40 MLOAD DUP1 SWAP2 SUB SWAP1 REVERT JUMPDEST DUP1 SWAP2 POP POP SWAP2 SWAP1 POP JUMP JUMPDEST PUSH0 PUSH1 0x4 PUSH0 DUP4 DUP2 MSTORE PUSH1 0x20 ADD SWAP1 DUP2 MSTORE PUSH1 0x20 ADD PUSH0 KECCAK256 PUSH0 SWAP1 SLOAD SWAP1 PUSH2 0x100 EXP SWAP1 DIV PUSH20 0xFFFFFFFFFFFFFFFFFFFFFFFFFFFFFFFFFFFFFFFF AND SWAP1 POP SWAP2 SWAP1 POP JUMP JUMPDEST PUSH2 0xCE8 PUSH2 0x10CB JUMP JUMPDEST PUSH20 0xFFFFFFFFFFFFFFFFFFFFFFFFFFFFFFFFFFFFFFFF AND PUSH2 0xD06 PUSH2 0x842 JUMP JUMPDEST PUSH20 0xFFFFFFFFFFFFFFFFFFFFFFFFFFFFFFFFFFFFFFFF AND EQ PUSH2 0xD65 JUMPI PUSH2 0xD29 PUSH2 0x10CB JUMP JUMPDEST PUSH1 0x40 MLOAD PUSH32 0x118CDAA700000000000000000000000000000000000000000000000000000000 DUP2 MSTORE PUSH1 0x4 ADD PUSH2 0xD5C SWAP2 SWAP1 PUSH2 0x1CA1 JUMP JUMPDEST PUSH1 0x40 MLOAD DUP1 SWAP2 SUB SWAP1 REVERT JUMPDEST JUMP JUMPDEST PUSH2 0xD80 DUP3 DUP3 PUSH1 0x40 MLOAD DUP1 PUSH1 0x20 ADD PUSH1 0x40 MSTORE DUP1 PUSH0 DUP2 MSTORE POP PUSH2 0x10D2 JUMP JUMPDEST POP POP JUMP JUMPDEST DUP1 PUSH1 0x6 PUSH0 DUP5 DUP2 MSTORE PUSH1 0x20 ADD SWAP1 DUP2 MSTORE PUSH1 0x20 ADD PUSH0 KECCAK256 SWAP1 DUP2 PUSH2 0xDA2 SWAP2 SWAP1 PUSH2 0x278B JUMP JUMPDEST POP PUSH32 0xF8E1A15ABA9398E019F0B49DF1A4FDE98EE17AE345CB5F6B5E2C27F5033E8CE7 DUP3 PUSH1 0x40 MLOAD PUSH2 0xDD2 SWAP2 SWAP1 PUSH2 0x1F32 JUMP JUMPDEST PUSH1 0x40 MLOAD DUP1 SWAP2 SUB SWAP1 LOG1 POP POP JUMP JUMPDEST PUSH2 0xDE9 DUP5 DUP5 DUP5 PUSH2 0x10ED JUMP JUMPDEST PUSH2 0xDF5 DUP5 DUP5 DUP5 DUP5 PUSH2 0xDFB JUMP JUMPDEST POP POP POP POP JUMP JUMPDEST PUSH0 DUP4 PUSH20 0xFFFFFFFFFFFFFFFFFFFFFFFFFFFFFFFFFFFFFFFF AND EXTCODESIZE GT ISZERO PUSH2 0xFA7 JUMPI DUP3 PUSH20 0xFFFFFFFFFFFFFFFFFFFFFFFFFFFFFFFFFFFFFFFF AND PUSH4 0x150B7A02 PUSH2 0xE3E PUSH2 0x10CB JUMP JUMPDEST DUP7 DUP6 DUP6 PUSH1 0x40 MLOAD DUP6 PUSH4 0xFFFFFFFF AND PUSH1 0xE0 SHL DUP2 MSTORE PUSH1 0x4 ADD PUSH2 0xE60 SWAP5 SWAP4 SWAP3 SWAP2 SWAP1 PUSH2 0x28AC JUMP JUMPDEST PUSH1 0x20 PUSH1 0x40 MLOAD DUP1 DUP4 SUB DUP2 PUSH0 DUP8 GAS CALL SWAP3 POP POP POP DUP1 ISZERO PUSH2 0xE9B JUMPI POP PUSH1 0x40 MLOAD RETURNDATASIZE PUSH1 0x1F NOT PUSH1 0x1F DUP3 ADD AND DUP3 ADD DUP1 PUSH1 0x40 MSTORE POP DUP2 ADD SWAP1 PUSH2 0xE98 SWAP2 SWAP1 PUSH2 0x290A JUMP JUMPDEST PUSH1 0x1 JUMPDEST PUSH2 0xF1C JUMPI RETURNDATASIZE DUP1 PUSH0 DUP2 EQ PUSH2 0xEC9 JUMPI PUSH1 0x40 MLOAD SWAP2 POP PUSH1 0x1F NOT PUSH1 0x3F RETURNDATASIZE ADD AND DUP3 ADD PUSH1 0x40 MSTORE RETURNDATASIZE DUP3 MSTORE RETURNDATASIZE PUSH0 PUSH1 0x20 DUP5 ADD RETURNDATACOPY PUSH2 0xECE JUMP JUMPDEST PUSH1 0x60 SWAP2 POP JUMPDEST POP PUSH0 DUP2 MLOAD SUB PUSH2 0xF14 JUMPI DUP4 PUSH1 0x40 MLOAD PUSH32 0x64A0AE9200000000000000000000000000000000000000000000000000000000 DUP2 MSTORE PUSH1 0x4 ADD PUSH2 0xF0B SWAP2 SWAP1 PUSH2 0x1CA1 JUMP JUMPDEST PUSH1 0x40 MLOAD DUP1 SWAP2 SUB SWAP1 REVERT JUMPDEST DUP1 MLOAD DUP2 PUSH1 0x20 ADD REVERT JUMPDEST PUSH4 0x150B7A02 PUSH1 0xE0 SHL PUSH28 0xFFFFFFFFFFFFFFFFFFFFFFFFFFFFFFFFFFFFFFFFFFFFFFFFFFFFFFFF NOT AND DUP2 PUSH28 0xFFFFFFFFFFFFFFFFFFFFFFFFFFFFFFFFFFFFFFFFFFFFFFFFFFFFFFFF NOT AND EQ PUSH2 0xFA5 JUMPI DUP4 PUSH1 0x40 MLOAD PUSH32 0x64A0AE9200000000000000000000000000000000000000000000000000000000 DUP2 MSTORE PUSH1 0x4 ADD PUSH2 0xF9C SWAP2 SWAP1 PUSH2 0x1CA1 JUMP JUMPDEST PUSH1 0x40 MLOAD DUP1 SWAP2 SUB SWAP1 REVERT JUMPDEST POP JUMPDEST POP POP POP POP JUMP JUMPDEST PUSH1 0x60 PUSH1 0x40 MLOAD DUP1 PUSH1 0x20 ADD PUSH1 0x40 MSTORE DUP1 PUSH0 DUP2 MSTORE POP SWAP1 POP SWAP1 JUMP JUMPDEST PUSH1 0x60 PUSH2 0xFCE DUP3 PUSH2 0xC21 JUMP JUMPDEST POP PUSH0 PUSH2 0xFD8 PUSH2 0xFAD JUMP JUMPDEST SWAP1 POP PUSH0 DUP2 MLOAD GT PUSH2 0xFF6 JUMPI PUSH1 0x40 MLOAD DUP1 PUSH1 0x20 ADD PUSH1 0x40 MSTORE DUP1 PUSH0 DUP2 MSTORE POP PUSH2 0x1021 JUMP JUMPDEST DUP1 PUSH2 0x1000 DUP5 PUSH2 0x1255 JUMP JUMPDEST PUSH1 0x40 MLOAD PUSH1 0x20 ADD PUSH2 0x1011 SWAP3 SWAP2 SWAP1 PUSH2 0x253D JUMP JUMPDEST PUSH1 0x40 MLOAD PUSH1 0x20 DUP2 DUP4 SUB SUB DUP2 MSTORE SWAP1 PUSH1 0x40 MSTORE JUMPDEST SWAP2 POP POP SWAP2 SWAP1 POP JUMP JUMPDEST PUSH0 PUSH32 0x1FFC9A700000000000000000000000000000000000000000000000000000000 PUSH28 0xFFFFFFFFFFFFFFFFFFFFFFFFFFFFFFFFFFFFFFFFFFFFFFFFFFFFFFFF NOT AND DUP3 PUSH28 0xFFFFFFFFFFFFFFFFFFFFFFFFFFFFFFFFFFFFFFFFFFFFFFFFFFFFFFFF NOT AND EQ SWAP1 POP SWAP2 SWAP1 POP JUMP JUMPDEST PUSH0 PUSH1 0x2 PUSH0 DUP4 DUP2 MSTORE PUSH1 0x20 ADD SWAP1 DUP2 MSTORE PUSH1 0x20 ADD PUSH0 KECCAK256 PUSH0 SWAP1 SLOAD SWAP1 PUSH2 0x100 EXP SWAP1 DIV PUSH20 0xFFFFFFFFFFFFFFFFFFFFFFFFFFFFFFFFFFFFFFFF AND SWAP1 POP SWAP2 SWAP1 POP JUMP JUMPDEST PUSH0 CALLER SWAP1 POP SWAP1 JUMP JUMPDEST PUSH2 0x10DC DUP4 DUP4 PUSH2 0x131F JUMP JUMPDEST PUSH2 0x10E8 PUSH0 DUP5 DUP5 DUP5 PUSH2 0xDFB JUMP JUMPDEST POP POP POP JUMP JUMPDEST PUSH0 PUSH20 0xFFFFFFFFFFFFFFFFFFFFFFFFFFFFFFFFFFFFFFFF AND DUP3 PUSH20 0xFFFFFFFFFFFFFFFFFFFFFFFFFFFFFFFFFFFFFFFF AND SUB PUSH2 0x115D JUMPI PUSH0 PUSH1 0x40 MLOAD PUSH32 0x64A0AE9200000000000000000000000000000000000000000000000000000000 DUP2 MSTORE PUSH1 0x4 ADD PUSH2 0x1154 SWAP2 SWAP1 PUSH2 0x1CA1 JUMP JUMPDEST PUSH1 0x40 MLOAD DUP1 SWAP2 SUB SWAP1 REVERT JUMPDEST PUSH0 PUSH2 0x1169 DUP4 DUP4 PUSH0 PUSH2 0x1412 JUMP JUMPDEST SWAP1 POP PUSH0 PUSH20 0xFFFFFFFFFFFFFFFFFFFFFFFFFFFFFFFFFFFFFFFF AND DUP2 PUSH20 0xFFFFFFFFFFFFFFFFFFFFFFFFFFFFFFFFFFFFFFFF AND SUB PUSH2 0x11DB JUMPI DUP2 PUSH1 0x40 MLOAD PUSH32 0x7E27328900000000000000000000000000000000000000000000000000000000 DUP2 MSTORE PUSH1 0x4 ADD PUSH2 0x11D2 SWAP2 SWAP1 PUSH2 0x1F32 JUMP JUMPDEST PUSH1 0x40 MLOAD DUP1 SWAP2 SUB SWAP1 REVERT JUMPDEST DUP4 PUSH20 0xFFFFFFFFFFFFFFFFFFFFFFFFFFFFFFFFFFFFFFFF AND DUP2 PUSH20 0xFFFFFFFFFFFFFFFFFFFFFFFFFFFFFFFFFFFFFFFF AND EQ PUSH2 0x124F JUMPI DUP4 DUP3 DUP3 PUSH1 0x40 MLOAD PUSH32 0x64283D7B00000000000000000000000000000000000000000000000000000000 DUP2 MSTORE PUSH1 0x4 ADD PUSH2 0x1246 SWAP4 SWAP3 SWAP2 SWAP1 PUSH2 0x2935 JUMP JUMPDEST PUSH1 0x40 MLOAD DUP1 SWAP2 SUB SWAP1 REVERT JUMPDEST POP POP POP POP JUMP JUMPDEST PUSH1 0x60 PUSH0 PUSH1 0x1 PUSH2 0x1263 DUP5 PUSH2 0x161D JUMP JUMPDEST ADD SWAP1 POP PUSH0 DUP2 PUSH8 0xFFFFFFFFFFFFFFFF DUP2 GT ISZERO PUSH2 0x1281 JUMPI PUSH2 0x1280 PUSH2 0x1D7A JUMP JUMPDEST JUMPDEST PUSH1 0x40 MLOAD SWAP1 DUP1 DUP3 MSTORE DUP1 PUSH1 0x1F ADD PUSH1 0x1F NOT AND PUSH1 0x20 ADD DUP3 ADD PUSH1 0x40 MSTORE DUP1 ISZERO PUSH2 0x12B3 JUMPI DUP2 PUSH1 0x20 ADD PUSH1 0x1 DUP3 MUL DUP1 CALLDATASIZE DUP4 CALLDATACOPY DUP1 DUP3 ADD SWAP2 POP POP SWAP1 POP JUMPDEST POP SWAP1 POP PUSH0 DUP3 PUSH1 0x20 ADD DUP3 ADD SWAP1 POP JUMPDEST PUSH1 0x1 ISZERO PUSH2 0x1314 JUMPI DUP1 DUP1 PUSH1 0x1 SWAP1 SUB SWAP2 POP POP PUSH32 0x3031323334353637383961626364656600000000000000000000000000000000 PUSH1 0xA DUP7 MOD BYTE DUP2 MSTORE8 PUSH1 0xA DUP6 DUP2 PUSH2 0x1309 JUMPI PUSH2 0x1308 PUSH2 0x296A JUMP JUMPDEST JUMPDEST DIV SWAP5 POP PUSH0 DUP6 SUB PUSH2 0x12C0 JUMPI JUMPDEST DUP2 SWAP4 POP POP POP POP SWAP2 SWAP1 POP JUMP JUMPDEST PUSH0 PUSH20 0xFFFFFFFFFFFFFFFFFFFFFFFFFFFFFFFFFFFFFFFF AND DUP3 PUSH20 0xFFFFFFFFFFFFFFFFFFFFFFFFFFFFFFFFFFFFFFFF AND SUB PUSH2 0x138F JUMPI PUSH0 PUSH1 0x40 MLOAD PUSH32 0x64A0AE9200000000000000000000000000000000000000000000000000000000 DUP2 MSTORE PUSH1 0x4 ADD PUSH2 0x1386 SWAP2 SWAP1 PUSH2 0x1CA1 JUMP JUMPDEST PUSH1 0x40 MLOAD DUP1 SWAP2 SUB SWAP1 REVERT JUMPDEST PUSH0 PUSH2 0x139B DUP4 DUP4 PUSH0 PUSH2 0x1412 JUMP JUMPDEST SWAP1 POP PUSH0 PUSH20 0xFFFFFFFFFFFFFFFFFFFFFFFFFFFFFFFFFFFFFFFF AND DUP2 PUSH20 0xFFFFFFFFFFFFFFFFFFFFFFFFFFFFFFFFFFFFFFFF AND EQ PUSH2 0x140D JUMPI PUSH0 PUSH1 0x40 MLOAD PUSH32 0x73C6AC6E00000000000000000000000000000000000000000000000000000000 DUP2 MSTORE PUSH1 0x4 ADD PUSH2 0x1404 SWAP2 SWAP1 PUSH2 0x1CA1 JUMP JUMPDEST PUSH1 0x40 MLOAD DUP1 SWAP2 SUB SWAP1 REVERT JUMPDEST POP POP POP JUMP JUMPDEST PUSH0 DUP1 PUSH2 0x141D DUP5 PUSH2 0x1092 JUMP JUMPDEST SWAP1 POP PUSH0 PUSH20 0xFFFFFFFFFFFFFFFFFFFFFFFFFFFFFFFFFFFFFFFF AND DUP4 PUSH20 0xFFFFFFFFFFFFFFFFFFFFFFFFFFFFFFFFFFFFFFFF AND EQ PUSH2 0x145E JUMPI PUSH2 0x145D DUP2 DUP5 DUP7 PUSH2 0x176E JUMP JUMPDEST JUMPDEST PUSH0 PUSH20 0xFFFFFFFFFFFFFFFFFFFFFFFFFFFFFFFFFFFFFFFF AND DUP2 PUSH20 0xFFFFFFFFFFFFFFFFFFFFFFFFFFFFFFFFFFFFFFFF AND EQ PUSH2 0x14E9 JUMPI PUSH2 0x149D PUSH0 DUP6 PUSH0 DUP1 PUSH2 0x1831 JUMP JUMPDEST PUSH1 0x1 PUSH1 0x3 PUSH0 DUP4 PUSH20 0xFFFFFFFFFFFFFFFFFFFFFFFFFFFFFFFFFFFFFFFF AND PUSH20 0xFFFFFFFFFFFFFFFFFFFFFFFFFFFFFFFFFFFFFFFF AND DUP2 MSTORE PUSH1 0x20 ADD SWAP1 DUP2 MSTORE PUSH1 0x20 ADD PUSH0 KECCAK256 PUSH0 DUP3 DUP3 SLOAD SUB SWAP3 POP POP DUP2 SWAP1 SSTORE POP JUMPDEST PUSH0 PUSH20 0xFFFFFFFFFFFFFFFFFFFFFFFFFFFFFFFFFFFFFFFF AND DUP6 PUSH20 0xFFFFFFFFFFFFFFFFFFFFFFFFFFFFFFFFFFFFFFFF AND EQ PUSH2 0x1568 JUMPI PUSH1 0x1 PUSH1 0x3 PUSH0 DUP8 PUSH20 0xFFFFFFFFFFFFFFFFFFFFFFFFFFFFFFFFFFFFFFFF AND PUSH20 0xFFFFFFFFFFFFFFFFFFFFFFFFFFFFFFFFFFFFFFFF AND DUP2 MSTORE PUSH1 0x20 ADD SWAP1 DUP2 MSTORE PUSH1 0x20 ADD PUSH0 KECCAK256 PUSH0 DUP3 DUP3 SLOAD ADD SWAP3 POP POP DUP2 SWAP1 SSTORE POP JUMPDEST DUP5 PUSH1 0x2 PUSH0 DUP7 DUP2 MSTORE PUSH1 0x20 ADD SWAP1 DUP2 MSTORE PUSH1 0x20 ADD PUSH0 KECCAK256 PUSH0 PUSH2 0x100 EXP DUP2 SLOAD DUP2 PUSH20 0xFFFFFFFFFFFFFFFFFFFFFFFFFFFFFFFFFFFFFFFF MUL NOT AND SWAP1 DUP4 PUSH20 0xFFFFFFFFFFFFFFFFFFFFFFFFFFFFFFFFFFFFFFFF AND MUL OR SWAP1 SSTORE POP DUP4 DUP6 PUSH20 0xFFFFFFFFFFFFFFFFFFFFFFFFFFFFFFFFFFFFFFFF AND DUP3 PUSH20 0xFFFFFFFFFFFFFFFFFFFFFFFFFFFFFFFFFFFFFFFF AND PUSH32 0xDDF252AD1BE2C89B69C2B068FC378DAA952BA7F163C4A11628F55A4DF523B3EF PUSH1 0x40 MLOAD PUSH1 0x40 MLOAD DUP1 SWAP2 SUB SWAP1 LOG4 DUP1 SWAP2 POP POP SWAP4 SWAP3 POP POP POP JUMP JUMPDEST PUSH0 DUP1 PUSH0 SWAP1 POP PUSH27 0x184F03E93FF9F4DAA797ED6E38ED64BF6A1F010000000000000000 DUP4 LT PUSH2 0x1679 JUMPI PUSH27 0x184F03E93FF9F4DAA797ED6E38ED64BF6A1F010000000000000000 DUP4 DUP2 PUSH2 0x166F JUMPI PUSH2 0x166E PUSH2 0x296A JUMP JUMPDEST JUMPDEST DIV SWAP3 POP PUSH1 0x40 DUP2 ADD SWAP1 POP JUMPDEST PUSH14 0x4EE2D6D415B85ACEF8100000000 DUP4 LT PUSH2 0x16B6 JUMPI PUSH14 0x4EE2D6D415B85ACEF8100000000 DUP4 DUP2 PUSH2 0x16AC JUMPI PUSH2 0x16AB PUSH2 0x296A JUMP JUMPDEST JUMPDEST DIV SWAP3 POP PUSH1 0x20 DUP2 ADD SWAP1 POP JUMPDEST PUSH7 0x2386F26FC10000 DUP4 LT PUSH2 0x16E5 JUMPI PUSH7 0x2386F26FC10000 DUP4 DUP2 PUSH2 0x16DB JUMPI PUSH2 0x16DA PUSH2 0x296A JUMP JUMPDEST JUMPDEST DIV SWAP3 POP PUSH1 0x10 DUP2 ADD SWAP1 POP JUMPDEST PUSH4 0x5F5E100 DUP4 LT PUSH2 0x170E JUMPI PUSH4 0x5F5E100 DUP4 DUP2 PUSH2 0x1704 JUMPI PUSH2 0x1703 PUSH2 0x296A JUMP JUMPDEST JUMPDEST DIV SWAP3 POP PUSH1 0x8 DUP2 ADD SWAP1 POP JUMPDEST PUSH2 0x2710 DUP4 LT PUSH2 0x1733 JUMPI PUSH2 0x2710 DUP4 DUP2 PUSH2 0x1729 JUMPI PUSH2 0x1728 PUSH2 0x296A JUMP JUMPDEST JUMPDEST DIV SWAP3 POP PUSH1 0x4 DUP2 ADD SWAP1 POP JUMPDEST PUSH1 0x64 DUP4 LT PUSH2 0x1756 JUMPI PUSH1 0x64 DUP4 DUP2 PUSH2 0x174C JUMPI PUSH2 0x174B PUSH2 0x296A JUMP JUMPDEST JUMPDEST DIV SWAP3 POP PUSH1 0x2 DUP2 ADD SWAP1 POP JUMPDEST PUSH1 0xA DUP4 LT PUSH2 0x1765 JUMPI PUSH1 0x1 DUP2 ADD SWAP1 POP JUMPDEST DUP1 SWAP2 POP POP SWAP2 SWAP1 POP JUMP JUMPDEST PUSH2 0x1779 DUP4 DUP4 DUP4 PUSH2 0x19F0 JUMP JUMPDEST PUSH2 0x182C JUMPI PUSH0 PUSH20 0xFFFFFFFFFFFFFFFFFFFFFFFFFFFFFFFFFFFFFFFF AND DUP4 PUSH20 0xFFFFFFFFFFFFFFFFFFFFFFFFFFFFFFFFFFFFFFFF AND SUB PUSH2 0x17ED JUMPI DUP1 PUSH1 0x40 MLOAD PUSH32 0x7E27328900000000000000000000000000000000000000000000000000000000 DUP2 MSTORE PUSH1 0x4 ADD PUSH2 0x17E4 SWAP2 SWAP1 PUSH2 0x1F32 JUMP JUMPDEST PUSH1 0x40 MLOAD DUP1 SWAP2 SUB SWAP1 REVERT JUMPDEST DUP2 DUP2 PUSH1 0x40 MLOAD PUSH32 0x177E802F00000000000000000000000000000000000000000000000000000000 DUP2 MSTORE PUSH1 0x4 ADD PUSH2 0x1823 SWAP3 SWAP2 SWAP1 PUSH2 0x2997 JUMP JUMPDEST PUSH1 0x40 MLOAD DUP1 SWAP2 SUB SWAP1 REVERT JUMPDEST POP POP POP JUMP JUMPDEST DUP1 DUP1 PUSH2 0x1869 JUMPI POP PUSH0 PUSH20 0xFFFFFFFFFFFFFFFFFFFFFFFFFFFFFFFFFFFFFFFF AND DUP3 PUSH20 0xFFFFFFFFFFFFFFFFFFFFFFFFFFFFFFFFFFFFFFFF AND EQ ISZERO JUMPDEST ISZERO PUSH2 0x199B JUMPI PUSH0 PUSH2 0x1878 DUP5 PUSH2 0xC21 JUMP JUMPDEST SWAP1 POP PUSH0 PUSH20 0xFFFFFFFFFFFFFFFFFFFFFFFFFFFFFFFFFFFFFFFF AND DUP4 PUSH20 0xFFFFFFFFFFFFFFFFFFFFFFFFFFFFFFFFFFFFFFFF AND EQ ISZERO DUP1 ISZERO PUSH2 0x18E2 JUMPI POP DUP3 PUSH20 0xFFFFFFFFFFFFFFFFFFFFFFFFFFFFFFFFFFFFFFFF AND DUP2 PUSH20 0xFFFFFFFFFFFFFFFFFFFFFFFFFFFFFFFFFFFFFFFF AND EQ ISZERO JUMPDEST DUP1 ISZERO PUSH2 0x18F5 JUMPI POP PUSH2 0x18F3 DUP2 DUP5 PUSH2 0xA6F JUMP JUMPDEST ISZERO JUMPDEST ISZERO PUSH2 0x1937 JUMPI DUP3 PUSH1 0x40 MLOAD PUSH32 0xA9FBF51F00000000000000000000000000000000000000000000000000000000 DUP2 MSTORE PUSH1 0x4 ADD PUSH2 0x192E SWAP2 SWAP1 PUSH2 0x1CA1 JUMP JUMPDEST PUSH1 0x40 MLOAD DUP1 SWAP2 SUB SWAP1 REVERT JUMPDEST DUP2 ISZERO PUSH2 0x1999 JUMPI DUP4 DUP6 PUSH20 0xFFFFFFFFFFFFFFFFFFFFFFFFFFFFFFFFFFFFFFFF AND DUP3 PUSH20 0xFFFFFFFFFFFFFFFFFFFFFFFFFFFFFFFFFFFFFFFF AND PUSH32 0x8C5BE1E5EBEC7D5BD14F71427D1E84F3DD0314C0F7B2291E5B200AC8C7C3B925 PUSH1 0x40 MLOAD PUSH1 0x40 MLOAD DUP1 SWAP2 SUB SWAP1 LOG4 JUMPDEST POP JUMPDEST DUP4 PUSH1 0x4 PUSH0 DUP6 DUP2 MSTORE PUSH1 0x20 ADD SWAP1 DUP2 MSTORE PUSH1 0x20 ADD PUSH0 KECCAK256 PUSH0 PUSH2 0x100 EXP DUP2 SLOAD DUP2 PUSH20 0xFFFFFFFFFFFFFFFFFFFFFFFFFFFFFFFFFFFFFFFF MUL NOT AND SWAP1 DUP4 PUSH20 0xFFFFFFFFFFFFFFFFFFFFFFFFFFFFFFFFFFFFFFFF AND MUL OR SWAP1 SSTORE POP POP POP POP POP JUMP JUMPDEST PUSH0 DUP1 PUSH20 0xFFFFFFFFFFFFFFFFFFFFFFFFFFFFFFFFFFFFFFFF AND DUP4 PUSH20 0xFFFFFFFFFFFFFFFFFFFFFFFFFFFFFFFFFFFFFFFF AND EQ ISZERO DUP1 ISZERO PUSH2 0x1AA7 JUMPI POP DUP3 PUSH20 0xFFFFFFFFFFFFFFFFFFFFFFFFFFFFFFFFFFFFFFFF AND DUP5 PUSH20 0xFFFFFFFFFFFFFFFFFFFFFFFFFFFFFFFFFFFFFFFF AND EQ DUP1 PUSH2 0x1A68 JUMPI POP PUSH2 0x1A67 DUP5 DUP5 PUSH2 0xA6F JUMP JUMPDEST JUMPDEST DUP1 PUSH2 0x1AA6 JUMPI POP DUP3 PUSH20 0xFFFFFFFFFFFFFFFFFFFFFFFFFFFFFFFFFFFFFFFF AND PUSH2 0x1A8E DUP4 PUSH2 0xCA7 JUMP JUMPDEST PUSH20 0xFFFFFFFFFFFFFFFFFFFFFFFFFFFFFFFFFFFFFFFF AND EQ JUMPDEST JUMPDEST SWAP1 POP SWAP4 SWAP3 POP POP POP JUMP JUMPDEST PUSH0 PUSH1 0x40 MLOAD SWAP1 POP SWAP1 JUMP JUMPDEST PUSH0 DUP1 REVERT JUMPDEST PUSH0 DUP1 REVERT JUMPDEST PUSH0 PUSH32 0xFFFFFFFF00000000000000000000000000000000000000000000000000000000 DUP3 AND SWAP1 POP SWAP2 SWAP1 POP JUMP JUMPDEST PUSH2 0x1AF5 DUP2 PUSH2 0x1AC1 JUMP JUMPDEST DUP2 EQ PUSH2 0x1AFF JUMPI PUSH0 DUP1 REVERT JUMPDEST POP JUMP JUMPDEST PUSH0 DUP2 CALLDATALOAD SWAP1 POP PUSH2 0x1B10 DUP2 PUSH2 0x1AEC JUMP JUMPDEST SWAP3 SWAP2 POP POP JUMP JUMPDEST PUSH0 PUSH1 0x20 DUP3 DUP5 SUB SLT ISZERO PUSH2 0x1B2B JUMPI PUSH2 0x1B2A PUSH2 0x1AB9 JUMP JUMPDEST JUMPDEST PUSH0 PUSH2 0x1B38 DUP5 DUP3 DUP6 ADD PUSH2 0x1B02 JUMP JUMPDEST SWAP2 POP POP SWAP3 SWAP2 POP POP JUMP JUMPDEST PUSH0 DUP2 ISZERO ISZERO SWAP1 POP SWAP2 SWAP1 POP JUMP JUMPDEST PUSH2 0x1B55 DUP2 PUSH2 0x1B41 JUMP JUMPDEST DUP3 MSTORE POP POP JUMP JUMPDEST PUSH0 PUSH1 0x20 DUP3 ADD SWAP1 POP PUSH2 0x1B6E PUSH0 DUP4 ADD DUP5 PUSH2 0x1B4C JUMP JUMPDEST SWAP3 SWAP2 POP POP JUMP JUMPDEST PUSH0 DUP2 MLOAD SWAP1 POP SWAP2 SWAP1 POP JUMP JUMPDEST PUSH0 DUP3 DUP3 MSTORE PUSH1 0x20 DUP3 ADD SWAP1 POP SWAP3 SWAP2 POP POP JUMP JUMPDEST DUP3 DUP2 DUP4 MCOPY PUSH0 DUP4 DUP4 ADD MSTORE POP POP POP JUMP JUMPDEST PUSH0 PUSH1 0x1F NOT PUSH1 0x1F DUP4 ADD AND SWAP1 POP SWAP2 SWAP1 POP JUMP JUMPDEST PUSH0 PUSH2 0x1BB6 DUP3 PUSH2 0x1B74 JUMP JUMPDEST PUSH2 0x1BC0 DUP2 DUP6 PUSH2 0x1B7E JUMP JUMPDEST SWAP4 POP PUSH2 0x1BD0 DUP2 DUP6 PUSH1 0x20 DUP7 ADD PUSH2 0x1B8E JUMP JUMPDEST PUSH2 0x1BD9 DUP2 PUSH2 0x1B9C JUMP JUMPDEST DUP5 ADD SWAP2 POP POP SWAP3 SWAP2 POP POP JUMP JUMPDEST PUSH0 PUSH1 0x20 DUP3 ADD SWAP1 POP DUP2 DUP2 SUB PUSH0 DUP4 ADD MSTORE PUSH2 0x1BFC DUP2 DUP5 PUSH2 0x1BAC JUMP JUMPDEST SWAP1 POP SWAP3 SWAP2 POP POP JUMP JUMPDEST PUSH0 DUP2 SWAP1 POP SWAP2 SWAP1 POP JUMP JUMPDEST PUSH2 0x1C16 DUP2 PUSH2 0x1C04 JUMP JUMPDEST DUP2 EQ PUSH2 0x1C20 JUMPI PUSH0 DUP1 REVERT JUMPDEST POP JUMP JUMPDEST PUSH0 DUP2 CALLDATALOAD SWAP1 POP PUSH2 0x1C31 DUP2 PUSH2 0x1C0D JUMP JUMPDEST SWAP3 SWAP2 POP POP JUMP JUMPDEST PUSH0 PUSH1 0x20 DUP3 DUP5 SUB SLT ISZERO PUSH2 0x1C4C JUMPI PUSH2 0x1C4B PUSH2 0x1AB9 JUMP JUMPDEST JUMPDEST PUSH0 PUSH2 0x1C59 DUP5 DUP3 DUP6 ADD PUSH2 0x1C23 JUMP JUMPDEST SWAP2 POP POP SWAP3 SWAP2 POP POP JUMP JUMPDEST PUSH0 PUSH20 0xFFFFFFFFFFFFFFFFFFFFFFFFFFFFFFFFFFFFFFFF DUP3 AND SWAP1 POP SWAP2 SWAP1 POP JUMP JUMPDEST PUSH0 PUSH2 0x1C8B DUP3 PUSH2 0x1C62 JUMP JUMPDEST SWAP1 POP SWAP2 SWAP1 POP JUMP JUMPDEST PUSH2 0x1C9B DUP2 PUSH2 0x1C81 JUMP JUMPDEST DUP3 MSTORE POP POP JUMP JUMPDEST PUSH0 PUSH1 0x20 DUP3 ADD SWAP1 POP PUSH2 0x1CB4 PUSH0 DUP4 ADD DUP5 PUSH2 0x1C92 JUMP JUMPDEST SWAP3 SWAP2 POP POP JUMP JUMPDEST PUSH2 0x1CC3 DUP2 PUSH2 0x1C81 JUMP JUMPDEST DUP2 EQ PUSH2 0x1CCD JUMPI PUSH0 DUP1 REVERT JUMPDEST POP JUMP JUMPDEST PUSH0 DUP2 CALLDATALOAD SWAP1 POP PUSH2 0x1CDE DUP2 PUSH2 0x1CBA JUMP JUMPDEST SWAP3 SWAP2 POP POP JUMP JUMPDEST PUSH0 DUP1 PUSH1 0x40 DUP4 DUP6 SUB SLT ISZERO PUSH2 0x1CFA JUMPI PUSH2 0x1CF9 PUSH2 0x1AB9 JUMP JUMPDEST JUMPDEST PUSH0 PUSH2 0x1D07 DUP6 DUP3 DUP7 ADD PUSH2 0x1CD0 JUMP JUMPDEST SWAP3 POP POP PUSH1 0x20 PUSH2 0x1D18 DUP6 DUP3 DUP7 ADD PUSH2 0x1C23 JUMP JUMPDEST SWAP2 POP POP SWAP3 POP SWAP3 SWAP1 POP JUMP JUMPDEST PUSH0 DUP1 PUSH0 PUSH1 0x60 DUP5 DUP7 SUB SLT ISZERO PUSH2 0x1D39 JUMPI PUSH2 0x1D38 PUSH2 0x1AB9 JUMP JUMPDEST JUMPDEST PUSH0 PUSH2 0x1D46 DUP7 DUP3 DUP8 ADD PUSH2 0x1CD0 JUMP JUMPDEST SWAP4 POP POP PUSH1 0x20 PUSH2 0x1D57 DUP7 DUP3 DUP8 ADD PUSH2 0x1CD0 JUMP JUMPDEST SWAP3 POP POP PUSH1 0x40 PUSH2 0x1D68 DUP7 DUP3 DUP8 ADD PUSH2 0x1C23 JUMP JUMPDEST SWAP2 POP POP SWAP3 POP SWAP3 POP SWAP3 JUMP JUMPDEST PUSH0 DUP1 REVERT JUMPDEST PUSH0 DUP1 REVERT JUMPDEST PUSH32 0x4E487B7100000000000000000000000000000000000000000000000000000000 PUSH0 MSTORE PUSH1 0x41 PUSH1 0x4 MSTORE PUSH1 0x24 PUSH0 REVERT JUMPDEST PUSH2 0x1DB0 DUP3 PUSH2 0x1B9C JUMP JUMPDEST DUP2 ADD DUP2 DUP2 LT PUSH8 0xFFFFFFFFFFFFFFFF DUP3 GT OR ISZERO PUSH2 0x1DCF JUMPI PUSH2 0x1DCE PUSH2 0x1D7A JUMP JUMPDEST JUMPDEST DUP1 PUSH1 0x40 MSTORE POP POP POP JUMP JUMPDEST PUSH0 PUSH2 0x1DE1 PUSH2 0x1AB0 JUMP JUMPDEST SWAP1 POP PUSH2 0x1DED DUP3 DUP3 PUSH2 0x1DA7 JUMP JUMPDEST SWAP2 SWAP1 POP JUMP JUMPDEST PUSH0 PUSH8 0xFFFFFFFFFFFFFFFF DUP3 GT ISZERO PUSH2 0x1E0C JUMPI PUSH2 0x1E0B PUSH2 0x1D7A JUMP JUMPDEST JUMPDEST PUSH2 0x1E15 DUP3 PUSH2 0x1B9C JUMP JUMPDEST SWAP1 POP PUSH1 0x20 DUP2 ADD SWAP1 POP SWAP2 SWAP1 POP JUMP JUMPDEST DUP3 DUP2 DUP4 CALLDATACOPY PUSH0 DUP4 DUP4 ADD MSTORE POP POP POP JUMP JUMPDEST PUSH0 PUSH2 0x1E42 PUSH2 0x1E3D DUP5 PUSH2 0x1DF2 JUMP JUMPDEST PUSH2 0x1DD8 JUMP JUMPDEST SWAP1 POP DUP3 DUP2 MSTORE PUSH1 0x20 DUP2 ADD DUP5 DUP5 DUP5 ADD GT ISZERO PUSH2 0x1E5E JUMPI PUSH2 0x1E5D PUSH2 0x1D76 JUMP JUMPDEST JUMPDEST PUSH2 0x1E69 DUP5 DUP3 DUP6 PUSH2 0x1E22 JUMP JUMPDEST POP SWAP4 SWAP3 POP POP POP JUMP JUMPDEST PUSH0 DUP3 PUSH1 0x1F DUP4 ADD SLT PUSH2 0x1E85 JUMPI PUSH2 0x1E84 PUSH2 0x1D72 JUMP JUMPDEST JUMPDEST DUP2 CALLDATALOAD PUSH2 0x1E95 DUP5 DUP3 PUSH1 0x20 DUP7 ADD PUSH2 0x1E30 JUMP JUMPDEST SWAP2 POP POP SWAP3 SWAP2 POP POP JUMP JUMPDEST PUSH0 DUP1 PUSH1 0x40 DUP4 DUP6 SUB SLT ISZERO PUSH2 0x1EB4 JUMPI PUSH2 0x1EB3 PUSH2 0x1AB9 JUMP JUMPDEST JUMPDEST PUSH0 PUSH2 0x1EC1 DUP6 DUP3 DUP7 ADD PUSH2 0x1CD0 JUMP JUMPDEST SWAP3 POP POP PUSH1 0x20 DUP4 ADD CALLDATALOAD PUSH8 0xFFFFFFFFFFFFFFFF DUP2 GT ISZERO PUSH2 0x1EE2 JUMPI PUSH2 0x1EE1 PUSH2 0x1ABD JUMP JUMPDEST JUMPDEST PUSH2 0x1EEE DUP6 DUP3 DUP7 ADD PUSH2 0x1E71 JUMP JUMPDEST SWAP2 POP POP SWAP3 POP SWAP3 SWAP1 POP JUMP JUMPDEST PUSH0 PUSH1 0x20 DUP3 DUP5 SUB SLT ISZERO PUSH2 0x1F0D JUMPI PUSH2 0x1F0C PUSH2 0x1AB9 JUMP JUMPDEST JUMPDEST PUSH0 PUSH2 0x1F1A DUP5 DUP3 DUP6 ADD PUSH2 0x1CD0 JUMP JUMPDEST SWAP2 POP POP SWAP3 SWAP2 POP POP JUMP JUMPDEST PUSH2 0x1F2C DUP2 PUSH2 0x1C04 JUMP JUMPDEST DUP3 MSTORE POP POP JUMP JUMPDEST PUSH0 PUSH1 0x20 DUP3 ADD SWAP1 POP PUSH2 0x1F45 PUSH0 DUP4 ADD DUP5 PUSH2 0x1F23 JUMP JUMPDEST SWAP3 SWAP2 POP POP JUMP JUMPDEST PUSH2 0x1F54 DUP2 PUSH2 0x1B41 JUMP JUMPDEST DUP2 EQ PUSH2 0x1F5E JUMPI PUSH0 DUP1 REVERT JUMPDEST POP JUMP JUMPDEST PUSH0 DUP2 CALLDATALOAD SWAP1 POP PUSH2 0x1F6F DUP2 PUSH2 0x1F4B JUMP JUMPDEST SWAP3 SWAP2 POP POP JUMP JUMPDEST PUSH0 DUP1 PUSH1 0x40 DUP4 DUP6 SUB SLT ISZERO PUSH2 0x1F8B JUMPI PUSH2 0x1F8A PUSH2 0x1AB9 JUMP JUMPDEST JUMPDEST PUSH0 PUSH2 0x1F98 DUP6 DUP3 DUP7 ADD PUSH2 0x1CD0 JUMP JUMPDEST SWAP3 POP POP PUSH1 0x20 PUSH2 0x1FA9 DUP6 DUP3 DUP7 ADD PUSH2 0x1F61 JUMP JUMPDEST SWAP2 POP POP SWAP3 POP SWAP3 SWAP1 POP JUMP JUMPDEST PUSH0 PUSH8 0xFFFFFFFFFFFFFFFF DUP3 GT ISZERO PUSH2 0x1FCD JUMPI PUSH2 0x1FCC PUSH2 0x1D7A JUMP JUMPDEST JUMPDEST PUSH2 0x1FD6 DUP3 PUSH2 0x1B9C JUMP JUMPDEST SWAP1 POP PUSH1 0x20 DUP2 ADD SWAP1 POP SWAP2 SWAP1 POP JUMP JUMPDEST PUSH0 PUSH2 0x1FF5 PUSH2 0x1FF0 DUP5 PUSH2 0x1FB3 JUMP JUMPDEST PUSH2 0x1DD8 JUMP JUMPDEST SWAP1 POP DUP3 DUP2 MSTORE PUSH1 0x20 DUP2 ADD DUP5 DUP5 DUP5 ADD GT ISZERO PUSH2 0x2011 JUMPI PUSH2 0x2010 PUSH2 0x1D76 JUMP JUMPDEST JUMPDEST PUSH2 0x201C DUP5 DUP3 DUP6 PUSH2 0x1E22 JUMP JUMPDEST POP SWAP4 SWAP3 POP POP POP JUMP JUMPDEST PUSH0 DUP3 PUSH1 0x1F DUP4 ADD SLT PUSH2 0x2038 JUMPI PUSH2 0x2037 PUSH2 0x1D72 JUMP JUMPDEST JUMPDEST DUP2 CALLDATALOAD PUSH2 0x2048 DUP5 DUP3 PUSH1 0x20 DUP7 ADD PUSH2 0x1FE3 JUMP JUMPDEST SWAP2 POP POP SWAP3 SWAP2 POP POP JUMP JUMPDEST PUSH0 DUP1 PUSH0 DUP1 PUSH1 0x80 DUP6 DUP8 SUB SLT ISZERO PUSH2 0x2069 JUMPI PUSH2 0x2068 PUSH2 0x1AB9 JUMP JUMPDEST JUMPDEST PUSH0 PUSH2 0x2076 DUP8 DUP3 DUP9 ADD PUSH2 0x1CD0 JUMP JUMPDEST SWAP5 POP POP PUSH1 0x20 PUSH2 0x2087 DUP8 DUP3 DUP9 ADD PUSH2 0x1CD0 JUMP JUMPDEST SWAP4 POP POP PUSH1 0x40 PUSH2 0x2098 DUP8 DUP3 DUP9 ADD PUSH2 0x1C23 JUMP JUMPDEST SWAP3 POP POP PUSH1 0x60 DUP6 ADD CALLDATALOAD PUSH8 0xFFFFFFFFFFFFFFFF DUP2 GT ISZERO PUSH2 0x20B9 JUMPI PUSH2 0x20B8 PUSH2 0x1ABD JUMP JUMPDEST JUMPDEST PUSH2 0x20C5 DUP8 DUP3 DUP9 ADD PUSH2 0x2024 JUMP JUMPDEST SWAP2 POP POP SWAP3 SWAP6 SWAP2 SWAP5 POP SWAP3 POP JUMP JUMPDEST PUSH0 DUP1 PUSH1 0x40 DUP4 DUP6 SUB SLT ISZERO PUSH2 0x20E7 JUMPI PUSH2 0x20E6 PUSH2 0x1AB9 JUMP JUMPDEST JUMPDEST PUSH0 PUSH2 0x20F4 DUP6 DUP3 DUP7 ADD PUSH2 0x1CD0 JUMP JUMPDEST SWAP3 POP POP PUSH1 0x20 PUSH2 0x2105 DUP6 DUP3 DUP7 ADD PUSH2 0x1CD0 JUMP JUMPDEST SWAP2 POP POP SWAP3 POP SWAP3 SWAP1 POP JUMP JUMPDEST PUSH32 0x4E487B7100000000000000000000000000000000000000000000000000000000 PUSH0 MSTORE PUSH1 0x22 PUSH1 0x4 MSTORE PUSH1 0x24 PUSH0 REVERT JUMPDEST PUSH0 PUSH1 0x2 DUP3 DIV SWAP1 POP PUSH1 0x1 DUP3 AND DUP1 PUSH2 0x2153 JUMPI PUSH1 0x7F DUP3 AND SWAP2 POP JUMPDEST PUSH1 0x20 DUP3 LT DUP2 SUB PUSH2 0x2166 JUMPI PUSH2 0x2165 PUSH2 0x210F JUMP JUMPDEST JUMPDEST POP SWAP2 SWAP1 POP JUMP JUMPDEST PUSH32 0x417070726F76652066756E6374696F6E2069732064697361626C65642E000000 PUSH0 DUP3 ADD MSTORE POP JUMP JUMPDEST PUSH0 PUSH2 0x21A0 PUSH1 0x1D DUP4 PUSH2 0x1B7E JUMP JUMPDEST SWAP2 POP PUSH2 0x21AB DUP3 PUSH2 0x216C JUMP JUMPDEST PUSH1 0x20 DUP3 ADD SWAP1 POP SWAP2 SWAP1 POP JUMP JUMPDEST PUSH0 PUSH1 0x20 DUP3 ADD SWAP1 POP DUP2 DUP2 SUB PUSH0 DUP4 ADD MSTORE PUSH2 0x21CD DUP2 PUSH2 0x2194 JUMP JUMPDEST SWAP1 POP SWAP2 SWAP1 POP JUMP JUMPDEST PUSH32 0x5472616E736665722066726F6D2066756E6374696F6E2069732064697361626C PUSH0 DUP3 ADD MSTORE PUSH32 0x65642E0000000000000000000000000000000000000000000000000000000000 PUSH1 0x20 DUP3 ADD MSTORE POP JUMP JUMPDEST PUSH0 PUSH2 0x222E PUSH1 0x23 DUP4 PUSH2 0x1B7E JUMP JUMPDEST SWAP2 POP PUSH2 0x2239 DUP3 PUSH2 0x21D4 JUMP JUMPDEST PUSH1 0x40 DUP3 ADD SWAP1 POP SWAP2 SWAP1 POP JUMP JUMPDEST PUSH0 PUSH1 0x20 DUP3 ADD SWAP1 POP DUP2 DUP2 SUB PUSH0 DUP4 ADD MSTORE PUSH2 0x225B DUP2 PUSH2 0x2222 JUMP JUMPDEST SWAP1 POP SWAP2 SWAP1 POP JUMP JUMPDEST PUSH32 0x4E6F7420656E6F7567682045544820696E20636F6E7472616374000000000000 PUSH0 DUP3 ADD MSTORE POP JUMP JUMPDEST PUSH0 PUSH2 0x2296 PUSH1 0x1A DUP4 PUSH2 0x1B7E JUMP JUMPDEST SWAP2 POP PUSH2 0x22A1 DUP3 PUSH2 0x2262 JUMP JUMPDEST PUSH1 0x20 DUP3 ADD SWAP1 POP SWAP2 SWAP1 POP JUMP JUMPDEST PUSH0 PUSH1 0x20 DUP3 ADD SWAP1 POP DUP2 DUP2 SUB PUSH0 DUP4 ADD MSTORE PUSH2 0x22C3 DUP2 PUSH2 0x228A JUMP JUMPDEST SWAP1 POP SWAP2 SWAP1 POP JUMP JUMPDEST PUSH32 0x4E487B7100000000000000000000000000000000000000000000000000000000 PUSH0 MSTORE PUSH1 0x11 PUSH1 0x4 MSTORE PUSH1 0x24 PUSH0 REVERT JUMPDEST PUSH0 PUSH2 0x2301 DUP3 PUSH2 0x1C04 JUMP JUMPDEST SWAP2 POP PUSH32 0xFFFFFFFFFFFFFFFFFFFFFFFFFFFFFFFFFFFFFFFFFFFFFFFFFFFFFFFFFFFFFFFF DUP3 SUB PUSH2 0x2333 JUMPI PUSH2 0x2332 PUSH2 0x22CA JUMP JUMPDEST JUMPDEST PUSH1 0x1 DUP3 ADD SWAP1 POP SWAP2 SWAP1 POP JUMP JUMPDEST PUSH0 DUP2 SWAP1 POP SWAP3 SWAP2 POP POP JUMP JUMPDEST POP JUMP JUMPDEST PUSH0 PUSH2 0x2356 PUSH0 DUP4 PUSH2 0x233E JUMP JUMPDEST SWAP2 POP PUSH2 0x2361 DUP3 PUSH2 0x2348 JUMP JUMPDEST PUSH0 DUP3 ADD SWAP1 POP SWAP2 SWAP1 POP JUMP JUMPDEST PUSH0 PUSH2 0x2375 DUP3 PUSH2 0x234B JUMP JUMPDEST SWAP2 POP DUP2 SWAP1 POP SWAP2 SWAP1 POP JUMP JUMPDEST PUSH32 0x4661696C656420746F2073656E64204574686572000000000000000000000000 PUSH0 DUP3 ADD MSTORE POP JUMP JUMPDEST PUSH0 PUSH2 0x23B3 PUSH1 0x14 DUP4 PUSH2 0x1B7E JUMP JUMPDEST SWAP2 POP PUSH2 0x23BE DUP3 PUSH2 0x237F JUMP JUMPDEST PUSH1 0x20 DUP3 ADD SWAP1 POP SWAP2 SWAP1 POP JUMP JUMPDEST PUSH0 PUSH1 0x20 DUP3 ADD SWAP1 POP DUP2 DUP2 SUB PUSH0 DUP4 ADD MSTORE PUSH2 0x23E0 DUP2 PUSH2 0x23A7 JUMP JUMPDEST SWAP1 POP SWAP2 SWAP1 POP JUMP JUMPDEST PUSH32 0x52656E6F756E63696E67206F776E6572736869702069732064697361626C6564 PUSH0 DUP3 ADD MSTORE PUSH32 0x2E00000000000000000000000000000000000000000000000000000000000000 PUSH1 0x20 DUP3 ADD MSTORE POP JUMP JUMPDEST PUSH0 PUSH2 0x2441 PUSH1 0x21 DUP4 PUSH2 0x1B7E JUMP JUMPDEST SWAP2 POP PUSH2 0x244C DUP3 PUSH2 0x23E7 JUMP JUMPDEST PUSH1 0x40 DUP3 ADD SWAP1 POP SWAP2 SWAP1 POP JUMP JUMPDEST PUSH0 PUSH1 0x20 DUP3 ADD SWAP1 POP DUP2 DUP2 SUB PUSH0 DUP4 ADD MSTORE PUSH2 0x246E DUP2 PUSH2 0x2435 JUMP JUMPDEST SWAP1 POP SWAP2 SWAP1 POP JUMP JUMPDEST PUSH32 0x53657420617070726F76616C20666F7220616C6C2066756E6374696F6E206973 PUSH0 DUP3 ADD MSTORE PUSH32 0x2064697361626C65642E00000000000000000000000000000000000000000000 PUSH1 0x20 DUP3 ADD MSTORE POP JUMP JUMPDEST PUSH0 PUSH2 0x24CF PUSH1 0x2A DUP4 PUSH2 0x1B7E JUMP JUMPDEST SWAP2 POP PUSH2 0x24DA DUP3 PUSH2 0x2475 JUMP JUMPDEST PUSH1 0x40 DUP3 ADD SWAP1 POP SWAP2 SWAP1 POP JUMP JUMPDEST PUSH0 PUSH1 0x20 DUP3 ADD SWAP1 POP DUP2 DUP2 SUB PUSH0 DUP4 ADD MSTORE PUSH2 0x24FC DUP2 PUSH2 0x24C3 JUMP JUMPDEST SWAP1 POP SWAP2 SWAP1 POP JUMP JUMPDEST PUSH0 DUP2 SWAP1 POP SWAP3 SWAP2 POP POP JUMP JUMPDEST PUSH0 PUSH2 0x2517 DUP3 PUSH2 0x1B74 JUMP JUMPDEST PUSH2 0x2521 DUP2 DUP6 PUSH2 0x2503 JUMP JUMPDEST SWAP4 POP PUSH2 0x2531 DUP2 DUP6 PUSH1 0x20 DUP7 ADD PUSH2 0x1B8E JUMP JUMPDEST DUP1 DUP5 ADD SWAP2 POP POP SWAP3 SWAP2 POP POP JUMP JUMPDEST PUSH0 PUSH2 0x2548 DUP3 DUP6 PUSH2 0x250D JUMP JUMPDEST SWAP2 POP PUSH2 0x2554 DUP3 DUP5 PUSH2 0x250D JUMP JUMPDEST SWAP2 POP DUP2 SWAP1 POP SWAP4 SWAP3 POP POP POP JUMP JUMPDEST PUSH32 0x5472616E73666572206F776E6572736869702066756E6374696F6E2069732064 PUSH0 DUP3 ADD MSTORE PUSH32 0x697361626C65642E000000000000000000000000000000000000000000000000 PUSH1 0x20 DUP3 ADD MSTORE POP JUMP JUMPDEST PUSH0 PUSH2 0x25BA PUSH1 0x28 DUP4 PUSH2 0x1B7E JUMP JUMPDEST SWAP2 POP PUSH2 0x25C5 DUP3 PUSH2 0x2560 JUMP JUMPDEST PUSH1 0x40 DUP3 ADD SWAP1 POP SWAP2 SWAP1 POP JUMP JUMPDEST PUSH0 PUSH1 0x20 DUP3 ADD SWAP1 POP DUP2 DUP2 SUB PUSH0 DUP4 ADD MSTORE PUSH2 0x25E7 DUP2 PUSH2 0x25AE JUMP JUMPDEST SWAP1 POP SWAP2 SWAP1 POP JUMP JUMPDEST PUSH0 DUP2 SWAP1 POP DUP2 PUSH0 MSTORE PUSH1 0x20 PUSH0 KECCAK256 SWAP1 POP SWAP2 SWAP1 POP JUMP JUMPDEST PUSH0 PUSH1 0x20 PUSH1 0x1F DUP4 ADD DIV SWAP1 POP SWAP2 SWAP1 POP JUMP JUMPDEST PUSH0 DUP3 DUP3 SHL SWAP1 POP SWAP3 SWAP2 POP POP JUMP JUMPDEST PUSH0 PUSH1 0x8 DUP4 MUL PUSH2 0x264A PUSH32 0xFFFFFFFFFFFFFFFFFFFFFFFFFFFFFFFFFFFFFFFFFFFFFFFFFFFFFFFFFFFFFFFF DUP3 PUSH2 0x260F JUMP JUMPDEST PUSH2 0x2654 DUP7 DUP4 PUSH2 0x260F JUMP JUMPDEST SWAP6 POP DUP1 NOT DUP5 AND SWAP4 POP DUP1 DUP7 AND DUP5 OR SWAP3 POP POP POP SWAP4 SWAP3 POP POP POP JUMP JUMPDEST PUSH0 DUP2 SWAP1 POP SWAP2 SWAP1 POP JUMP JUMPDEST PUSH0 PUSH2 0x268F PUSH2 0x268A PUSH2 0x2685 DUP5 PUSH2 0x1C04 JUMP JUMPDEST PUSH2 0x266C JUMP JUMPDEST PUSH2 0x1C04 JUMP JUMPDEST SWAP1 POP SWAP2 SWAP1 POP JUMP JUMPDEST PUSH0 DUP2 SWAP1 POP SWAP2 SWAP1 POP JUMP JUMPDEST PUSH2 0x26A8 DUP4 PUSH2 0x2675 JUMP JUMPDEST PUSH2 0x26BC PUSH2 0x26B4 DUP3 PUSH2 0x2696 JUMP JUMPDEST DUP5 DUP5 SLOAD PUSH2 0x261B JUMP JUMPDEST DUP3 SSTORE POP POP POP POP JUMP JUMPDEST PUSH0 SWAP1 JUMP JUMPDEST PUSH2 0x26D0 PUSH2 0x26C4 JUMP JUMPDEST PUSH2 0x26DB DUP2 DUP5 DUP5 PUSH2 0x269F JUMP JUMPDEST POP POP POP JUMP JUMPDEST JUMPDEST DUP2 DUP2 LT ISZERO PUSH2 0x26FE JUMPI PUSH2 0x26F3 PUSH0 DUP3 PUSH2 0x26C8 JUMP JUMPDEST PUSH1 0x1 DUP2 ADD SWAP1 POP PUSH2 0x26E1 JUMP JUMPDEST POP POP JUMP JUMPDEST PUSH1 0x1F DUP3 GT ISZERO PUSH2 0x2743 JUMPI PUSH2 0x2714 DUP2 PUSH2 0x25EE JUMP JUMPDEST PUSH2 0x271D DUP5 PUSH2 0x2600 JUMP JUMPDEST DUP2 ADD PUSH1 0x20 DUP6 LT ISZERO PUSH2 0x272C JUMPI DUP2 SWAP1 POP JUMPDEST PUSH2 0x2740 PUSH2 0x2738 DUP6 PUSH2 0x2600 JUMP JUMPDEST DUP4 ADD DUP3 PUSH2 0x26E0 JUMP JUMPDEST POP POP JUMPDEST POP POP POP JUMP JUMPDEST PUSH0 DUP3 DUP3 SHR SWAP1 POP SWAP3 SWAP2 POP POP JUMP JUMPDEST PUSH0 PUSH2 0x2763 PUSH0 NOT DUP5 PUSH1 0x8 MUL PUSH2 0x2748 JUMP JUMPDEST NOT DUP1 DUP4 AND SWAP2 POP POP SWAP3 SWAP2 POP POP JUMP JUMPDEST PUSH0 PUSH2 0x277B DUP4 DUP4 PUSH2 0x2754 JUMP JUMPDEST SWAP2 POP DUP3 PUSH1 0x2 MUL DUP3 OR SWAP1 POP SWAP3 SWAP2 POP POP JUMP JUMPDEST PUSH2 0x2794 DUP3 PUSH2 0x1B74 JUMP JUMPDEST PUSH8 0xFFFFFFFFFFFFFFFF DUP2 GT ISZERO PUSH2 0x27AD JUMPI PUSH2 0x27AC PUSH2 0x1D7A JUMP JUMPDEST JUMPDEST PUSH2 0x27B7 DUP3 SLOAD PUSH2 0x213C JUMP JUMPDEST PUSH2 0x27C2 DUP3 DUP3 DUP6 PUSH2 0x2702 JUMP JUMPDEST PUSH0 PUSH1 0x20 SWAP1 POP PUSH1 0x1F DUP4 GT PUSH1 0x1 DUP2 EQ PUSH2 0x27F3 JUMPI PUSH0 DUP5 ISZERO PUSH2 0x27E1 JUMPI DUP3 DUP8 ADD MLOAD SWAP1 POP JUMPDEST PUSH2 0x27EB DUP6 DUP3 PUSH2 0x2770 JUMP JUMPDEST DUP7 SSTORE POP PUSH2 0x2852 JUMP JUMPDEST PUSH1 0x1F NOT DUP5 AND PUSH2 0x2801 DUP7 PUSH2 0x25EE JUMP JUMPDEST PUSH0 JUMPDEST DUP3 DUP2 LT ISZERO PUSH2 0x2828 JUMPI DUP5 DUP10 ADD MLOAD DUP3 SSTORE PUSH1 0x1 DUP3 ADD SWAP2 POP PUSH1 0x20 DUP6 ADD SWAP5 POP PUSH1 0x20 DUP2 ADD SWAP1 POP PUSH2 0x2803 JUMP JUMPDEST DUP7 DUP4 LT ISZERO PUSH2 0x2845 JUMPI DUP5 DUP10 ADD MLOAD PUSH2 0x2841 PUSH1 0x1F DUP10 AND DUP3 PUSH2 0x2754 JUMP JUMPDEST DUP4 SSTORE POP JUMPDEST PUSH1 0x1 PUSH1 0x2 DUP9 MUL ADD DUP9 SSTORE POP POP POP JUMPDEST POP POP POP POP POP POP JUMP JUMPDEST PUSH0 DUP2 MLOAD SWAP1 POP SWAP2 SWAP1 POP JUMP JUMPDEST PUSH0 DUP3 DUP3 MSTORE PUSH1 0x20 DUP3 ADD SWAP1 POP SWAP3 SWAP2 POP POP JUMP JUMPDEST PUSH0 PUSH2 0x287E DUP3 PUSH2 0x285A JUMP JUMPDEST PUSH2 0x2888 DUP2 DUP6 PUSH2 0x2864 JUMP JUMPDEST SWAP4 POP PUSH2 0x2898 DUP2 DUP6 PUSH1 0x20 DUP7 ADD PUSH2 0x1B8E JUMP JUMPDEST PUSH2 0x28A1 DUP2 PUSH2 0x1B9C JUMP JUMPDEST DUP5 ADD SWAP2 POP POP SWAP3 SWAP2 POP POP JUMP JUMPDEST PUSH0 PUSH1 0x80 DUP3 ADD SWAP1 POP PUSH2 0x28BF PUSH0 DUP4 ADD DUP8 PUSH2 0x1C92 JUMP JUMPDEST PUSH2 0x28CC PUSH1 0x20 DUP4 ADD DUP7 PUSH2 0x1C92 JUMP JUMPDEST PUSH2 0x28D9 PUSH1 0x40 DUP4 ADD DUP6 PUSH2 0x1F23 JUMP JUMPDEST DUP2 DUP2 SUB PUSH1 0x60 DUP4 ADD MSTORE PUSH2 0x28EB DUP2 DUP5 PUSH2 0x2874 JUMP JUMPDEST SWAP1 POP SWAP6 SWAP5 POP POP POP POP POP JUMP JUMPDEST PUSH0 DUP2 MLOAD SWAP1 POP PUSH2 0x2904 DUP2 PUSH2 0x1AEC JUMP JUMPDEST SWAP3 SWAP2 POP POP JUMP JUMPDEST PUSH0 PUSH1 0x20 DUP3 DUP5 SUB SLT ISZERO PUSH2 0x291F JUMPI PUSH2 0x291E PUSH2 0x1AB9 JUMP JUMPDEST JUMPDEST PUSH0 PUSH2 0x292C DUP5 DUP3 DUP6 ADD PUSH2 0x28F6 JUMP JUMPDEST SWAP2 POP POP SWAP3 SWAP2 POP POP JUMP JUMPDEST PUSH0 PUSH1 0x60 DUP3 ADD SWAP1 POP PUSH2 0x2948 PUSH0 DUP4 ADD DUP7 PUSH2 0x1C92 JUMP JUMPDEST PUSH2 0x2955 PUSH1 0x20 DUP4 ADD DUP6 PUSH2 0x1F23 JUMP JUMPDEST PUSH2 0x2962 PUSH1 0x40 DUP4 ADD DUP5 PUSH2 0x1C92 JUMP JUMPDEST SWAP5 SWAP4 POP POP POP POP JUMP JUMPDEST PUSH32 0x4E487B7100000000000000000000000000000000000000000000000000000000 PUSH0 MSTORE PUSH1 0x12 PUSH1 0x4 MSTORE PUSH1 0x24 PUSH0 REVERT JUMPDEST PUSH0 PUSH1 0x40 DUP3 ADD SWAP1 POP PUSH2 0x29AA PUSH0 DUP4 ADD DUP6 PUSH2 0x1C92 JUMP JUMPDEST PUSH2 0x29B7 PUSH1 0x20 DUP4 ADD DUP5 PUSH2 0x1F23 JUMP JUMPDEST SWAP4 SWAP3 POP POP POP JUMP INVALID LOG2 PUSH5 0x6970667358 0x22 SLT KECCAK256 0x2E CHAINID 0xCD BLOBHASH 0x2B DUP10 PUSH4 0xE5770D6B CALL 0xB1 PUSH30 0xB8BA5891D1FD5806A75CCF9FEA071AA0B6EE64736F6C6343000819003300 "
		},
		"gasEstimates": {
			"creation": {
				"codeDepositCost": "2148000",
				"executionCost": "infinite",
				"totalCost": "infinite"
			},
			"external": {
				"approve(address,uint256)": "infinite",
				"balanceOf(address)": "infinite",
				"deposit()": "infinite",
				"getApproved(uint256)": "infinite",
				"isApprovedForAll(address,address)": "infinite",
				"mintAndTransfer(address,string)": "infinite",
				"name()": "infinite",
				"owner()": "2560",
				"ownerOf(uint256)": "infinite",
				"renounceOwnership()": "infinite",
				"safeTransferFrom(address,address,uint256)": "infinite",
				"safeTransferFrom(address,address,uint256,bytes)": "infinite",
				"setApprovalForAll(address,bool)": "infinite",
				"supportsInterface(bytes4)": "881",
				"symbol()": "infinite",
				"tokenURI(uint256)": "infinite",
				"transferFrom(address,address,uint256)": "infinite",
				"transferOwnership(address)": "infinite"
			}
		},
		"methodIdentifiers": {
			"approve(address,uint256)": "095ea7b3",
			"balanceOf(address)": "70a08231",
			"deposit()": "d0e30db0",
			"getApproved(uint256)": "081812fc",
			"isApprovedForAll(address,address)": "e985e9c5",
			"mintAndTransfer(address,string)": "3df0805e",
			"name()": "06fdde03",
			"owner()": "8da5cb5b",
			"ownerOf(uint256)": "6352211e",
			"renounceOwnership()": "715018a6",
			"safeTransferFrom(address,address,uint256)": "42842e0e",
			"safeTransferFrom(address,address,uint256,bytes)": "b88d4fde",
			"setApprovalForAll(address,bool)": "a22cb465",
			"supportsInterface(bytes4)": "01ffc9a7",
			"symbol()": "95d89b41",
			"tokenURI(uint256)": "c87b56dd",
			"transferFrom(address,address,uint256)": "23b872dd",
			"transferOwnership(address)": "f2fde38b"
		}
	},
	"abi": [
		{
			"inputs": [],
			"stateMutability": "nonpayable",
			"type": "constructor"
		},
		{
			"inputs": [
				{
					"internalType": "address",
					"name": "sender",
					"type": "address"
				},
				{
					"internalType": "uint256",
					"name": "tokenId",
					"type": "uint256"
				},
				{
					"internalType": "address",
					"name": "owner",
					"type": "address"
				}
			],
			"name": "ERC721IncorrectOwner",
			"type": "error"
		},
		{
			"inputs": [
				{
					"internalType": "address",
					"name": "operator",
					"type": "address"
				},
				{
					"internalType": "uint256",
					"name": "tokenId",
					"type": "uint256"
				}
			],
			"name": "ERC721InsufficientApproval",
			"type": "error"
		},
		{
			"inputs": [
				{
					"internalType": "address",
					"name": "approver",
					"type": "address"
				}
			],
			"name": "ERC721InvalidApprover",
			"type": "error"
		},
		{
			"inputs": [
				{
					"internalType": "address",
					"name": "operator",
					"type": "address"
				}
			],
			"name": "ERC721InvalidOperator",
			"type": "error"
		},
		{
			"inputs": [
				{
					"internalType": "address",
					"name": "owner",
					"type": "address"
				}
			],
			"name": "ERC721InvalidOwner",
			"type": "error"
		},
		{
			"inputs": [
				{
					"internalType": "address",
					"name": "receiver",
					"type": "address"
				}
			],
			"name": "ERC721InvalidReceiver",
			"type": "error"
		},
		{
			"inputs": [
				{
					"internalType": "address",
					"name": "sender",
					"type": "address"
				}
			],
			"name": "ERC721InvalidSender",
			"type": "error"
		},
		{
			"inputs": [
				{
					"internalType": "uint256",
					"name": "tokenId",
					"type": "uint256"
				}
			],
			"name": "ERC721NonexistentToken",
			"type": "error"
		},
		{
			"inputs": [
				{
					"internalType": "address",
					"name": "owner",
					"type": "address"
				}
			],
			"name": "OwnableInvalidOwner",
			"type": "error"
		},
		{
			"inputs": [
				{
					"internalType": "address",
					"name": "account",
					"type": "address"
				}
			],
			"name": "OwnableUnauthorizedAccount",
			"type": "error"
		},
		{
			"anonymous": false,
			"inputs": [
				{
					"indexed": true,
					"internalType": "address",
					"name": "owner",
					"type": "address"
				},
				{
					"indexed": true,
					"internalType": "address",
					"name": "approved",
					"type": "address"
				},
				{
					"indexed": true,
					"internalType": "uint256",
					"name": "tokenId",
					"type": "uint256"
				}
			],
			"name": "Approval",
			"type": "event"
		},
		{
			"anonymous": false,
			"inputs": [
				{
					"indexed": true,
					"internalType": "address",
					"name": "owner",
					"type": "address"
				},
				{
					"indexed": true,
					"internalType": "address",
					"name": "operator",
					"type": "address"
				},
				{
					"indexed": false,
					"internalType": "bool",
					"name": "approved",
					"type": "bool"
				}
			],
			"name": "ApprovalForAll",
			"type": "event"
		},
		{
			"anonymous": false,
			"inputs": [
				{
					"indexed": false,
					"internalType": "uint256",
					"name": "_fromTokenId",
					"type": "uint256"
				},
				{
					"indexed": false,
					"internalType": "uint256",
					"name": "_toTokenId",
					"type": "uint256"
				}
			],
			"name": "BatchMetadataUpdate",
			"type": "event"
		},
		{
			"anonymous": false,
			"inputs": [
				{
					"indexed": false,
					"internalType": "uint256",
					"name": "_tokenId",
					"type": "uint256"
				}
			],
			"name": "MetadataUpdate",
			"type": "event"
		},
		{
			"anonymous": false,
			"inputs": [
				{
					"indexed": true,
					"internalType": "address",
					"name": "previousOwner",
					"type": "address"
				},
				{
					"indexed": true,
					"internalType": "address",
					"name": "newOwner",
					"type": "address"
				}
			],
			"name": "OwnershipTransferred",
			"type": "event"
		},
		{
			"anonymous": false,
			"inputs": [
				{
					"indexed": true,
					"internalType": "address",
					"name": "from",
					"type": "address"
				},
				{
					"indexed": true,
					"internalType": "address",
					"name": "to",
					"type": "address"
				},
				{
					"indexed": true,
					"internalType": "uint256",
					"name": "tokenId",
					"type": "uint256"
				}
			],
			"name": "Transfer",
			"type": "event"
		},
		{
			"inputs": [
				{
					"internalType": "address",
					"name": "",
					"type": "address"
				},
				{
					"internalType": "uint256",
					"name": "",
					"type": "uint256"
				}
			],
			"name": "approve",
			"outputs": [],
			"stateMutability": "view",
			"type": "function"
		},
		{
			"inputs": [
				{
					"internalType": "address",
					"name": "owner",
					"type": "address"
				}
			],
			"name": "balanceOf",
			"outputs": [
				{
					"internalType": "uint256",
					"name": "",
					"type": "uint256"
				}
			],
			"stateMutability": "view",
			"type": "function"
		},
		{
			"inputs": [],
			"name": "deposit",
			"outputs": [],
			"stateMutability": "payable",
			"type": "function"
		},
		{
			"inputs": [
				{
					"internalType": "uint256",
					"name": "tokenId",
					"type": "uint256"
				}
			],
			"name": "getApproved",
			"outputs": [
				{
					"internalType": "address",
					"name": "",
					"type": "address"
				}
			],
			"stateMutability": "view",
			"type": "function"
		},
		{
			"inputs": [
				{
					"internalType": "address",
					"name": "owner",
					"type": "address"
				},
				{
					"internalType": "address",
					"name": "operator",
					"type": "address"
				}
			],
			"name": "isApprovedForAll",
			"outputs": [
				{
					"internalType": "bool",
					"name": "",
					"type": "bool"
				}
			],
			"stateMutability": "view",
			"type": "function"
		},
		{
			"inputs": [
				{
					"internalType": "address",
					"name": "recipient",
					"type": "address"
				},
				{
					"internalType": "string",
					"name": "tokenURI",
					"type": "string"
				}
			],
			"name": "mintAndTransfer",
			"outputs": [],
			"stateMutability": "nonpayable",
			"type": "function"
		},
		{
			"inputs": [],
			"name": "name",
			"outputs": [
				{
					"internalType": "string",
					"name": "",
					"type": "string"
				}
			],
			"stateMutability": "view",
			"type": "function"
		},
		{
			"inputs": [],
			"name": "owner",
			"outputs": [
				{
					"internalType": "address",
					"name": "",
					"type": "address"
				}
			],
			"stateMutability": "view",
			"type": "function"
		},
		{
			"inputs": [
				{
					"internalType": "uint256",
					"name": "tokenId",
					"type": "uint256"
				}
			],
			"name": "ownerOf",
			"outputs": [
				{
					"internalType": "address",
					"name": "",
					"type": "address"
				}
			],
			"stateMutability": "view",
			"type": "function"
		},
		{
			"inputs": [],
			"name": "renounceOwnership",
			"outputs": [],
			"stateMutability": "view",
			"type": "function"
		},
		{
			"inputs": [
				{
					"internalType": "address",
					"name": "from",
					"type": "address"
				},
				{
					"internalType": "address",
					"name": "to",
					"type": "address"
				},
				{
					"internalType": "uint256",
					"name": "tokenId",
					"type": "uint256"
				}
			],
			"name": "safeTransferFrom",
			"outputs": [],
			"stateMutability": "nonpayable",
			"type": "function"
		},
		{
			"inputs": [
				{
					"internalType": "address",
					"name": "from",
					"type": "address"
				},
				{
					"internalType": "address",
					"name": "to",
					"type": "address"
				},
				{
					"internalType": "uint256",
					"name": "tokenId",
					"type": "uint256"
				},
				{
					"internalType": "bytes",
					"name": "data",
					"type": "bytes"
				}
			],
			"name": "safeTransferFrom",
			"outputs": [],
			"stateMutability": "nonpayable",
			"type": "function"
		},
		{
			"inputs": [
				{
					"internalType": "address",
					"name": "",
					"type": "address"
				},
				{
					"internalType": "bool",
					"name": "",
					"type": "bool"
				}
			],
			"name": "setApprovalForAll",
			"outputs": [],
			"stateMutability": "view",
			"type": "function"
		},
		{
			"inputs": [
				{
					"internalType": "bytes4",
					"name": "interfaceId",
					"type": "bytes4"
				}
			],
			"name": "supportsInterface",
			"outputs": [
				{
					"internalType": "bool",
					"name": "",
					"type": "bool"
				}
			],
			"stateMutability": "view",
			"type": "function"
		},
		{
			"inputs": [],
			"name": "symbol",
			"outputs": [
				{
					"internalType": "string",
					"name": "",
					"type": "string"
				}
			],
			"stateMutability": "view",
			"type": "function"
		},
		{
			"inputs": [
				{
					"internalType": "uint256",
					"name": "tokenId",
					"type": "uint256"
				}
			],
			"name": "tokenURI",
			"outputs": [
				{
					"internalType": "string",
					"name": "",
					"type": "string"
				}
			],
			"stateMutability": "view",
			"type": "function"
		},
		{
			"inputs": [
				{
					"internalType": "address",
					"name": "",
					"type": "address"
				},
				{
					"internalType": "address",
					"name": "",
					"type": "address"
				},
				{
					"internalType": "uint256",
					"name": "",
					"type": "uint256"
				}
			],
			"name": "transferFrom",
			"outputs": [],
			"stateMutability": "view",
			"type": "function"
		},
		{
			"inputs": [
				{
					"internalType": "address",
					"name": "",
					"type": "address"
				}
			],
			"name": "transferOwnership",
			"outputs": [],
			"stateMutability": "view",
			"type": "function"
		},
		{
			"stateMutability": "payable",
			"type": "receive"
		}
	]
}